:020000040000FA
:10000000784A0010AD020000B5020000B7020000FF
:10001000B9020000BB020000BD02000000000000A9
:10002000000000000000000000000000BF0200000F
:10003000C102000000000000C3020000E73B000016
:10004000C7020000AD3E0000C73E0000ED3E0000CC
:10005000EF3E00009B680100C7020000C7020000DD
:10006000C7020000C7020000C7020000C70200006C
:10007000C7020000C7020000C7020000C70200005C
:10008000C702000039060000C7020000C7020000D6
:10009000C7020000C702000071420000C702000052
:1000A000C7020000C7020000C7020000C70200002C
:1000B0007B0F0000C7020000C7020000C70200005B
:1000C000C7020000C7020000C7020000DFF80CD022
:1000D00018F022F8004800479D020000784A0010FE
:1000E000AA204107087255200872704700B50548DC
:1000F000410648600120086103200870FFF7F0FF07
:1001000000BD0000A0ACB9035448C06C5349C8649A
:100110000846C06CC8640846C06820F03000C8605B
:100120000846C06840F03000C8604D48006F4C4938
:1001300008670846806A40F0050088624948006800
:1001400040F004004849C1F8C4004FF000004449A1
:10015000C8600846406840F00200486008464068B1
:1001600020F0020048600846406840F00100486006
:100170003A48C06840F030003849C8604FF002008B
:100180004FF0010101FA00F14FEA50124FF0E02365
:1001900003EB8202C2F8001100BF704770B5002463
:1001A00000E0641C47F230508442FADB10202C49F6
:1001B00008602E480078401C2C49087008460078DA
:1001C00002284ADB2A480068294948602448C06A56
:1001D000086000202549087025490968244A5268AA
:1001E000881A17F033FD0646224917F028FB05460A
:1001F0002946214817F059FB20490860204800781B
:10020000401C1F4908700846007804281FD1144874
:10021000806A60F004001249886200201849087062
:100220001648006817490968C861174800680078CF
:1002300020F002001449096808701348006800782B
:1002400020F00100401C10490968087005E00448CE
:10025000806A40F005000249886270BD00C002401B
:1002600000800040C4C00F4000C00F4000000010DC
:100270000400001000007A44D313834E0C000010D9
:1002800001000010740300108003001010B51BF073
:100290004FFA10BD10B51BF03FFC10BD03F0D0FBB2
:1002A00003E002F0FBF9FFF7F5FFFAE706488047A5
:1002B00006480047FEE7FEE7FEE7FEE7FEE7FEE74B
:1002C000FEE7FEE7FEE7FEE775380000CD00000020
:1002D0000848406840F48020064948600846406C61
:1002E00020F4402048640448006840F004000249BB
:1002F0000860704700C0024000400340FFFFFFFF5E
:1003000070B505460C469A48006840F0400099498F
:10031000C1F8C4002946984817F0C7FA064617F0F6
:10032000D1FC401E954988610846406840F00900AC
:10033000486008464069002048610846406940F02E
:10034000020048618E4800696FF30B008C49086118
:100350000846C0688B4908408949C86000208A491E
:100360000968087025E088480068017844FA01F0BF
:100370004FF6FE71884315D08148016982480068B4
:10038000007842000120904001437D4801617B4894
:10039000C06C7D4909680978093101228A401043FF
:1003A0007649C864784800680078401C7649096836
:1003B00008707548006800780628D4DB062072496A
:1003C0000968087052E0704800680178891C44FA96
:1003D00001F04FF6FE71884341D06848C16C6A480D
:1003E00000680078C01C0122824011436348C16448
:1003F000654800680078801F06282ED2DFE800F0EC
:10040000030A11181F265E48C06840F020005C49AE
:10041000C86023E05A48C06840F400705849C8607A
:100420001CE05748C06840F400605549C86015E0BA
:100430005348C06840F400405149C8600EE050483D
:10044000C06840F400304E49C86007E04C48C068BE
:1004500040F400104A49C86000E000BF00BF4A48AD
:1004600000680078401C48490968087046480068E0
:1004700000780C28A7DB002043490968087070BD8C
:100480002DE9FF5F04460D4616469946DDF838A073
:10049000032C00D9A41D504617F041FC4FF0333215
:1004A0003A4BCDE9020117F0E7FA074617F05EFC78
:1004B00082460F9817F033FC354A364BCDE90201DE
:1004C00017F0DAFA074617F051FC0F90D5B1012D5D
:1004D0003ED1304617F0BAFB2F49039017F0E5F9EB
:1004E00080462649886917F0B1FB8346414617F0DC
:1004F000A6F9074617F0E6FB2049042202FB041187
:10050000886126E0484617F0A1FB2449009017F0C7
:10051000CCF9514602900F9817F08BF9019002998F
:1005200017F08DF98346514617F031F912490390BF
:1005300017F085F980464FF07E5117F07AF907469B
:1005400017F0C0FB0D49042202FB0411886100E092
:1005500000BF00BF032C00D9A41F0848006D012173
:10056000A14041F00101084304490865BDE8FF9F2F
:10057000C4C00F4000C00F4020BCBE4B00800140F3
:1005800000C00240CF30CCFF7C0300103333E33F88
:10059000CDCCCCCCCCCCF43F0000C84200003443DE
:1005A00010B53748006840F400703649C1F8C400FF
:1005B0004FF01200344908724FF0000008644FF009
:1005C000010008720846007B40F00100087340F209
:1005D000E47088874FF001002C4908702C4908709E
:1005E0004FF00000A1F104010870A1F104010870AE
:1005F000A1F1040108704FF011004FF0010101FA60
:1006000000F14FEA50124FF0E02303EB8202C2F8F0
:10061000001100BF4FF00001002807DACA06140ECF
:100620001C4A00F00F031B1FD45403E0CA06130E2C
:10063000194A135400BF10BD1FB5184800688068E0
:10064000401C1649096888600F48007840F0010096
:100650000D4908701248007812490978124A127838
:10066000094B9B8FCDE90032CDE90210064890F886
:10067000383010F82C2F0DA1144817F0F1FF1FBDD2
:10068000C4C00F4000C00F4000400240384002404C
:100690002C40024018ED00E000E400E07C03001074
:1006A000204002402440024028400240253032646D
:1006B0002F253032642F253034642D253032643AB2
:1006C000253032643A2530326400000028040010DE
:1006D00007280CD2DFE800F00405060708090A0025
:1006E00005E004E003E002E001E000E000BF00BF3D
:1006F00000BFFEE710B519F045FD1BF027F91AF011
:1007000031FF1DF047F81CF047F91AF04BF9BDE82E
:10071000104019F0C1B910B519F04EFD1BF01CF9CD
:100720001AF08EFF1CF008FABDE810401AF018BD50
:1007300000207047704770470020704700207047C6
:100740000020704770B50546282018F059FF044670
:1007500000BF2822214628461AF0EEF805462078E8
:10076000002847D09FA120461CF04BF820B19F4A9B
:100770009FA1601D16F02EFD9EA120461CF041F8A1
:1007800028B19A4A121F9AA1601D16F023FD9BA161
:1007900020461CF036F828B1944A083294A1601D16
:1007A00016F018FD97A120461CF02BF828B18F4AAF
:1007B000121D8FA1601D16F00DFD94A120461CF0A6
:1007C00020F828B1894A103292A1601D16F002FD6E
:1007D00091A120461CF015F818B100208349091F8B
:1007E00008748FA120461CF00CF818B101207F4935
:1007F000091F0874002DACD1204619F09BFD70BD77
:1008000070472DE9F04705460E4691469A462878EE
:1008100062284CD010DC4D2873D006DC412871D002
:10082000442870D048286FD1B7E053286DD05428A1
:100830006CD06128F7D148E074280ED006DC682817
:1008400027D0692873D07028EDD114E076287CD0A9
:1008500078285CD07928E6D145E0734909680868B2
:1008600017F05DFA07463A460B46291D304617F049
:10087000F7FE0446B2E06C490968486817F04FFA81
:1008800007463A460B46291D304617F0E9FE044656
:10089000A4E065490968886817F041FA07463A46B6
:1008A0000B46291D304617F0DBFE044696E05E49F4
:1008B0000968086A17F033FA07463A460B46291DBD
:1008C000304617F0CDFE044688E05749096888692C
:1008D00017F025FA07463A460B46291D304617F011
:1008E000BFFE04467AE050490968486917F017FAD4
:1008F00007463A460B46291D304617F0B1FE04461E
:100900006CE038E02FE03FE062E058E04EE046491E
:100910000968086917F003FA07463A460B46291D8D
:10092000304617F09DFE044658E000E00DE03E49D9
:100930000968C86817F0F3F907463A460B46291DBF
:10094000304617F08DFE044648E037490968C8690B
:1009500017F0E5F907463A460B46291D304617F0D1
:100960007FFE04463AE03148828F291D304617F059
:1009700077FE044632E02E48027805F10401304645
:1009800017F06EFE044629E02A48027805F10401BA
:10099000304617F065FE044620E02748027805F14E
:1009A0000401304617F05CFE044617E02348027845
:1009B00005F10401304617F053FE04460EE02048CE
:1009C000027805F10401304617F04AFE044605E0BE
:1009D0001CA1304617F044FE044600BF00BFA0B281
:1009E000BDE8F087746D696E3D000000440400109E
:1009F00025660000746D61783D000000706D696EC1
:100A00003D000000706D61783D0000006273656319
:100A10003D00000025640000766172743D00000016
:100A2000766172703D0000007403001000400240C7
:100A3000384002402C4002402840024024400240FE
:100A4000204002403C703E592E2E2E2071756520AC
:100A5000717569657265732071756520706F6E6759
:100A60006120617175693F203A763C2F703E00002D
:100A70001C200121814042094FF0E02303EB820258
:100A8000C2F8001100BF70471C2001218140FE4ABE
:100A9000430942F8231000BF704770B505460E4663
:100AA0008EB9032405E015F8021BC8B2F7490855B2
:100AB000641C062CF7DB7E20F4490870FF20487088
:100AC000FE20887009E0002405E015F8021BC8B27A
:100AD000EE490855641C062CF7DBFFF7D5FF4FF0F5
:100AE000A040006820F001004FF0A0410860E848F5
:100AF000006820F00300C1F80001E4480079E349F0
:100B0000497940EA01204FF0A0410864DF4880782D
:100B1000DE49C97840EA01204FF0A0414864DB4833
:100B20000078DA49497840EA01204FF0A041886412
:100B30000846006840F44F4008600846D0F80001BD
:100B400040F07800C1F80001FFF792FF012070BD6E
:100B500000200FE000EB4001CE4A02EB4121CE4ADB
:100B600042F83010002102EBC0025160CB4A42F83B
:100B70002010401C0328EDD3C749C94A1160C7495A
:100B80004FF0A042C2F820114FF00201C54A116097
:100B90004FF000014FF0A042C2F82811704700202A
:100BA00013E000EB4001C04A02EB4121BF4A42F88A
:100BB0003010BF4902EBC00251600021BD4A42F82B
:100BC000301002EBC0025160401C0428E9D3B74941
:100BD000B94A1160B7494FF0A042C2F80C114FF06A
:100BE0000301B64A11604FF000014FF0A042C2F875
:100BF0001811704710B5014641F480704FF0A044C1
:100C0000A06201206062002307E04FF0A040406B2B
:100C100010F0010F00D103E05B1CB3F5A02FF4D35B
:100C200000BF00204FF0A04460622046026B90B2EB
:100C300010BD10B540F480734FF0A044A36223466A
:100C4000D962002207E04FF0A0435B6B13F0010F65
:100C500000D103E0521CB2F5A02FF4D300BF10BDA9
:100C600010B59748006840F080409649C1F8C4002C
:100C70009548964988600846C06820F00F0000F14A
:100C80000500C8604FF44F404FF0A04108604FF09E
:100C900038007F4908604FF000008D49086004E08B
:100CA0008B480068401C8A49086089480068FF2812
:100CB000F6D902204FF0A041086030204860400182
:100CC000486143F20F7008611220C8604FF4307021
:100CD0006F49086048F23C004FF0A04108624FF0B5
:100CE00000007B49086004E079480068401C7849AE
:100CF000086077480068FF28F6D93C204FF0A041F3
:100D000008624FF40060886100207149086004E0C7
:100D10006F480068401C6E4908606D480068FF28F5
:100D2000F6D900204FF0A04188614FF40041FFF751
:100D300080FF0020664908600FE00020FFF75AFF9F
:100D4000644908600846008810F4084F00D109E0A3
:100D50005F480068401C5E4908605D480068B0F567
:100D6000801FEAD300BF0220FFF744FF5A49086002
:100D70000320FFF73FFF59490860084600684FF617
:100D8000F07108405449098840EA0140A0F5F82173
:100D9000F0391ED14FF480510020FFF74AFF0020A8
:100DA0004B4908600FE00120FFF724FF4949086024
:100DB0000846007810F0200F00D009E04448006891
:100DC000401C4349086042480068B0F5801FEAD3E0
:100DD00000BF00203E4908600FE00120FFF70AFF36
:100DE0003C4908600846007810F0040F00D009E084
:100DF00037480068401C3649086035480068B0F53F
:100E0000803FEAD300BF1F20FFF7F4FE314908609E
:100E10000846007810F0100F11D04FF0A040406845
:100E200040F001004FF0A04148601948006840F4CC
:100E30008060C1F800014FF01500886003E01220C7
:100E40004FF0A04188602348007810F0080F05D0CB
:100E50004FF480704FF0A041886103E000204FF014
:100E6000A0418861094800790849497940EA012090
:100E70004FF0A0410864054880780449C97840EAE9
:100E800001204FF0A0412BE080E100E020000010A5
:100E900000010050540C082030F4072048F40720CB
:100EA0001C0100502401005054F40720F0F30720E7
:100EB000FF05008010F407200801005010010050C9
:100EC000C4C00F4000C00F400501155000C00240D3
:100ED0004400001040000010480000104C000010BA
:100EE00048644D4800784C49497840EA01204FF069
:100EF000A0418864FFF753FEFFF72AFE26204749EA
:100F000008604FF08800464908604FF6FF7001F115
:100F1000040108604FF0A040D0F8000140F0030049
:100F20004FF0A041C1F800010846006840F0010000
:100F3000086010BD70B53B4D296800F104033A4DBF
:100F400055F83140058805F103054FEAA50202E096
:100F500020CB20C4521E002AFAD105886D1E45F010
:100F60004045314E06EBC10675604D1C2946032DE8
:100F700000D100212B4D296070BD2DE9F04740E0E4
:100F80002748001DC0F8008018F0080F38D0274807
:100F9000046831E0264850F8347017F0804F00D1D3
:100FA00023E0C7F30A00C51E40F2EA50854202D88A
:100FB0002048074200D018E045F0004018F020FB20
:100FC00006468EB106F1040A1B4850F83490E81C1E
:100FD000850804E059F8040B4AF8040B6D1E002D37
:100FE000F8D130461BF018FB00BF601C04460428F3
:100FF00000D100240D48046010480068A042C9D107
:1010000000BF0748001F00680549096810EA010889
:10101000B6D1BDE8F08700002000001000020050AB
:10102000E40F00502801005030F407201801005050
:1010300010F407200000901BF0F30720140100506B
:101040001CB50446FE480078012847D1FD480088B9
:101050002188884219DD2088A1880844F949098837
:10106000884212DDF7484088618888420DDD60883B
:10107000E1880844F3494988884206DD207A10B99E
:10108000012020721CBD0020FCE7EF48406900EB06
:1010900080004000ED49098888421CD8002000905B
:1010A00003463C22012101900620FFF7E9F90320C5
:1010B000E7490870E748007801280CDD0120E6497F
:1010C00008700420E2490870E2480078022802D142
:1010D0000120E24908700020DC49088000202072CD
:1010E00000BFCFE72DE9F84F04460E4617461D46D0
:1010F0000095B4F800C0B4F80480C444ACF1010C0D
:101100001FFA8CF263881946208815F0B4F900950F
:10111000B4F802C0B4F80680C444ACF1010C1FFA64
:101120008CF322886188104615F0A5F90095B4F873
:1011300002C0B4F80680C444ACF1010C1FFA8CF371
:10114000B4F800C0B4F80480C444ACF1010C1FFA38
:101150008CF2B4F802C0B4F80680C444ACF1010CBF
:101160001FFA8CF1208815F086F90095B4F802C0BA
:10117000B4F80680C444ACF1010C1FFA8CF3B4F847
:1011800000C0B4F80480C444ACF1010C1FFA8CF226
:10119000B4F800C0C444ACF1010C1FFA8CF06188B3
:1011A00015F069F9304615F0F6FF4008B4F80490E0
:1011B00009EBD971228802EB6101A1EBC0001FFA93
:1011C00080FA00200090B4F8068008EBD87062889E
:1011D00002EB6000083881B23B463246504615F0BB
:1011E000F9F9BDE8F88F2DE9FC414FF4FC634FF6A7
:1011F000E0729B499B48FFF775FF4FF4FC634FF685
:10120000E07299A19948FFF76DFF4FF4FC634FF628
:10121000E07297A19748FFF765FF4FF4FC634FF624
:10122000E07295A19748FFF75DFF4FF4FC634FF61E
:10123000E07295A19748FFF755FF4FF4FC634FF616
:10124000E07295A19748FFF74DFF4FF4FC634FF60E
:10125000E07295A19748FFF745FF7B49086816F0B3
:1012600018FD04467849486816F013FD054676498E
:10127000886816F00EFD06467349C86816F009FD29
:10128000074633463A468CA19248CDE9005417F000
:10129000E7F96D48007C38B14FF4FC631A468D497C
:1012A0008D48FFF71FFF07E04FF4FC634FF47842CF
:1012B00088498948FFF716FF4FF4FC634FF6E07248
:1012C00086A18748FFF70EFF4FF4FC634FF6E072EC
:1012D00082A18448FFF706FF4FF4FC634FF6E072EB
:1012E0007EA18148FFF7FEFE4FF4FC634FF6E072EB
:1012F0007AA17E48FFF7F6FE4FF4FC634FF6E072EA
:101300007BA17C48FFF7EEFE4FF4FC634FF6E072E2
:1013100077A17948FFF7E6FE4FF4FC634FF6E072E1
:1013200073A17648FFF7DEFE4FF4FC634FF6E072E0
:101330006FA17348FFF7D6FEBDE8FC811CB54FF4E2
:10134000FC634FF6E07246494648FFF7CBFE4FF488
:10135000FC634FF6E07244A14448FFF7C3FE4FF42C
:10136000FC634FF6E07242A14248FFF7BBFE4FF428
:10137000FC634FF6E07263A14248FFF7B3FE4FF4FF
:10138000FC634FF6E07261A14248FFF7ABFE4FF4F9
:10139000FC634FF6E0725FA14248FFF7A3FE4FF4F3
:1013A000FC634FF6E0725EA14248FFF79BFE782097
:1013B0000121A823C022CDE900105BA1454817F008
:1013C0004FF94FF4FC634FF6E07242494248FFF791
:1013D00089FE4FF4FC634FF6E07240A14048FFF7EE
:1013E00081FE4FF4FC634FF6E0723CA13D48FFF7ED
:1013F00079FE4FF4FC634FF6E07238A13A48FFF7EC
:1014000071FE4FF4FC634FF6E07234A13748FFF7EA
:1014100069FE4FF4FC634FF6E07235A13548FFF7E3
:1014200061FE4FF4FC634FF6E07231A13248FFF7E2
:1014300059FE4FF4FC634FF6E0722DA12F487BE07C
:1014400024030010700300104004001094030010E7
:101450005100001050000010530000105200001006
:10146000280400105E0000102D3E000068000010EF
:101470003C2D00007200001054656D702E6D696E79
:101480002E0000006201001054656D702E6D6178B1
:101490002E0000006C010010507265732E6D696E95
:1014A0002E00000076010010507265732E6D617879
:1014B0002E0000008001001050726573205B2564CF
:1014C0002C25645D2054656D70205B25642C25649B
:1014D0005D000000580400108A0100102D0000007B
:1014E000940100109E010010A8010010B20100102C
:1014F0002B000000BC010010C6010010D00100103C
:10150000DA010010486F7261730000004D696E755A
:10151000746F7300536567756E646F73000000002D
:10152000446961730000000049503A25642E256427
:101530002E25642E25640000FFF7D4FD4FF4FC63D4
:101540004FF6E072AFF25801FE48FFF7CBFD1CBD2D
:10155000F8B504460E46002514E000966788B4F8F6
:1015600006C06744BF1EBBB227882F44BF1CBAB257
:101570006788BF1CB9B227882F44BF1CB8B214F0CB
:101580007AFF6D1CA088001FA842E6DCF8BD2DE99B
:10159000F0414FF4FC634FF6E072EB49EB48FFF784
:1015A000A1FD4FF4FC634FF6E072AFF24411E8483E
:1015B000FFF798FD4FF4FC634FF6E072AFF2501165
:1015C000E448FFF78FFD4FF4FC634FF6E072E2A1B1
:1015D000E548FFF787FDE5480068407810F0010F07
:1015E0002FD0E3490968086816F099FB04462246A3
:1015F0000B46E0A1E24817F033F84FF4FC634FF6D6
:10160000E072DF49DF48FFF76DFDD9490968486896
:1016100016F085FB044622460B46DBA1D84817F09E
:101620001FF84FF4FC634FF6E072D549D948FFF735
:1016300059FDCE480068407820F00100CB49096888
:101640004870D54A5168106816F0F3F80646D24A39
:101650005168C74A1268106816F0EBF80746CF4980
:1016600016F0EDF80546314616F01FF9044616F05F
:1016700010FB0B287ED2DFE800F0062F5986B2DF80
:10168000FDFCFBFAF9000021C548FFF761FF0021CE
:10169000C448FFF75DFF0021C348FFF759FF002151
:1016A000C248FFF755FF0021C148FFF751FF002155
:1016B000C048FFF74DFF0021BF48FFF749FF002159
:1016C000BE48FFF745FF0021BD48FFF741FF00215D
:1016D000BC48FFF73DFF7BE24FF6FF71B048FFF7D4
:1016E00037FF0021AF48FFF733FF0021AE48FFF777
:1016F0002FFF0021AD48FFF72BFF0021AC48FFF77B
:1017000027FF0021AB48FFF723FF0021AA48FFF77E
:101710001FFF0021A948FFF71BFF0021A848FFF782
:1017200017FF0021A748FFF713FF51E24FF6FF71A3
:101730009B48FFF70DFF4FF6FF719A48FFF708FF30
:1017400000219948FFF704FF00219848FFF700FFA8
:1017500000219748FFF7FCFE00219648FFF7F8FEAE
:1017600000219548FFF7F4FE00219448FFF7F0FEB2
:10177000002100E0C1E19248FFF7EAFE0021914814
:10178000FFF7E6FE24E24FF6E0718548FFF7E0FE42
:101790004FF6E0718348FFF7DBFE4FF6E0718248B9
:1017A000FFF7D6FE00218148FFF7D2FE00218048D6
:1017B000FFF7CEFE00217F48FFF7CAFE00217E48DA
:1017C000FFF7C6FE00217D48FFF7C2FE00217C48DE
:1017D000FFF7BEFE00217B48FFF7BAFEF8E14FF6A7
:1017E000E0716F48FFF7B4FE4FF6E0716D48FFF708
:1017F000AFFE4FF6E0716C48FFF7AAFE4FF6E071BE
:101800006A48FFF7A5FE00216948FFF7A1FE002105
:101810006848FFF79DFE00216748FFF799FE002109
:101820006648FFF795FE00216548FFF791FE00210D
:101830006448FFF78DFECBE11F215948FFF788FE72
:101840001F215848FFF784FE1F215748FFF780FEED
:101850001F215648FFF77CFE1F215548FFF778FEF1
:1018600000215448FFF774FE002104E012E1DFE09C
:10187000ADE039E00FE05048FFF76AFE00214F4825
:10188000FFF766FE00214E48FFF762FE00214D483B
:10189000FFF75EFE9CE11F214148FFF759FE1F2123
:1018A0004048FFF755FE1F213F48FFF751FE1F211B
:1018B0003E48FFF74DFE1F213D48FFF749FE1F211F
:1018C0003C48FFF745FE00213B48FFF741FE002161
:1018D0003A48FFF73DFE00213948FFF739FE002165
:1018E0003848FFF735FE73E14FF4FC612C48FFF7F1
:1018F0002FFE4FF4FC612B48FFF72AFE4FF4FC61EA
:101900002948FFF725FE4FF4FC612848FFF720FE29
:101910004FF4FC612648FFF71BFE4FF4FC6125489D
:10192000FFF716FE4FF4FC612348FFF711FE00217C
:101930002248FFF70DFE00212148FFF709FE002194
:10194000204841E0DA010010280400105E00001079
:10195000680000107200001054656D70657261744B
:101960007572613A00000000E4010010800300106D
:1019700074030010252E30326620644300000000FE
:1019800058040010EE010010252E303266206D4202
:1019900061722E000C020010400400100000204173
:1019A000840200108E02001098020010A2020010A3
:1019B000AC020010B6020010C0020010CA020010F3
:1019C000D4020010DE020010FFF7C2FD00E14FF468
:1019D000FC61FE48FFF7BCFD4FF4FC61FC48FFF7DB
:1019E000B7FD4FF4FC61FB48FFF7B2FD4FF4FC611B
:1019F000F948FFF7ADFD4FF4FC61F848FFF7A8FD8B
:101A00004FF4FC61F648FFF7A3FD4FF4FC61F54885
:101A1000FFF79EFD4FF4FC61F348FFF799FD0021AD
:101A2000F248FFF795FD0021F148FFF791FDCFE067
:101A30004FF47841E548FFF78BFD4FF47841E448D7
:101A4000FFF786FD4FF47841E248FFF781FD4FF440
:101A50007841E148FFF77CFD4FF47841DF48FFF71C
:101A600077FD4FF47841DE48FFF772FD4FF478417F
:101A7000DC48FFF76DFD4FF47841DB48FFF768FD68
:101A80004FF47841D948FFF763FD0021D848FFF7AC
:101A90005FFD9DE04FF47841CC48FFF759FD4FF4CE
:101AA0007841CB48FFF754FD4FF47841C948FFF720
:101AB0004FFD4FF47841C848FFF74AFD4FF4784195
:101AC000C648FFF745FD4FF47841C548FFF740FD94
:101AD0004FF47841C348FFF73BFD4FF47841C248CB
:101AE000FFF736FD4FF47841C048FFF731FD4FF462
:101AF0007841BF48FFF72CFD6AE0BE4A5168BE4AF4
:101B00001268106816F058F931D24FF47841AF4896
:101B1000FFF71EFD4FF47841AD48FFF719FD4FF474
:101B20007841AC48FFF714FD4FF47841AA48FFF71D
:101B30000FFD4FF47841A948FFF70AFD4FF47841B3
:101B4000A748FFF705FD4FF47841A648FFF700FDD1
:101B50004FF47841A448FFF7FBFC4FF47841A348C9
:101B6000FFF7F6FC4FF47841A148FFF7F1FCA14ADA
:101B70005168A14A1268106816F014F927D20021A2
:101B80009248FFF7E5FC00219148FFF7E1FC0021B6
:101B90009048FFF7DDFC00218F48FFF7D9FC0021BA
:101BA0008E48FFF7D5FC00218D48FFF7D1FC0021BE
:101BB0008C48FFF7CDFC00218B48FFF7C9FC0021C2
:101BC0008A48FFF7C5FC00218948FFF7C1FC00BF28
:101BD00000BF4FF4FC634FF6E07288A18A48FFF71C
:101BE00081FA844AD168906815F023FE0646814A3E
:101BF000D168814A1268506815F01BFE0746834978
:101C000015F01DFE0546314615F04FFE044616F050
:101C100040F80B287ED2DFE800F0062F5986B2D8B4
:101C2000D7D6D5D4D30000217948FFF791FC002105
:101C30007848FFF78DFC00217748FFF789FC0021E9
:101C40007648FFF785FC00217548FFF781FC0021ED
:101C50007448FFF77DFC00217348FFF779FC0021F1
:101C60007248FFF775FC00217148FFF771FC0021F5
:101C70007048FFF76DFC6FE24FF6FF716448FFF7A5
:101C800067FC00216348FFF763FC00216248FFF70F
:101C90005FFC00216148FFF75BFC00216048FFF713
:101CA00057FC00215F48FFF753FC00215E48FFF717
:101CB0004FFC00215D48FFF74BFC00215C48FFF71B
:101CC00047FC00215B48FFF743FC45E24FF6FF71FC
:101CD0004F48FFF73DFC4FF6FF714E48FFF738FCC9
:101CE00000214D48FFF734FC00214C48FFF730FC41
:101CF00000214B48FFF72CFC00214A48FFF728FC45
:101D000000214948FFF724FC00214848FFF720FC48
:101D1000002100E0B5E14648FFF71AFC00214548E4
:101D2000FFF716FC18E24FF6E0713948FFF710FC98
:101D30004FF6E0713748FFF70BFC4FF6E07136487D
:101D4000FFF706FC00213548FFF702FC002134486C
:101D5000FFF7FEFB00213348FFF7FAFB0021324872
:101D6000FFF7F6FB00213148FFF7F2FB0021304876
:101D7000FFF7EEFB00212F48FFF7EAFBECE14FF6FF
:101D8000E0712348FFF7E4FB4FF6E0712148FFF7CD
:101D9000DFFB4FF6E0712048FFF7DAFB4FF6E0710A
:101DA0001E48FFF7D5FB00211D48FFF7D1FB00219E
:101DB0001C48FFF7CDFB00211B48FFF7C9FB3BE0A8
:101DC0002CE1F9E0C7E096E06CE042E0840200100C
:101DD0008E02001098020010A2020010AC02001047
:101DE000B6020010C0020010CA020010D402001097
:101DF000DE0200104004001074030010507265737E
:101E0000696F6E3A000000000202001000002041DD
:101E1000200200102A020010340200103E020010BE
:101E200048020010520200105C020010660200100E
:101E3000700200107A0200100021FE48FFF788FBB4
:101E40000021FD48FFF784FB0021FC48FFF780FBE1
:101E500082E11F21FA48FFF77BFB1F21F948FFF7BA
:101E600077FB1F21F848FFF773FB1F21F748FFF7A7
:101E70006FFB1F21F648FFF76BFB0021F548FFF7CA
:101E800067FB0021F448FFF763FB0021E948FFF7F7
:101E90005FFB0021E848FFF75BFB0021E748FFF705
:101EA00057FB59E11F21E648FFF752FB1F21E54888
:101EB000FFF74EFB1F21E448FFF74AFB1F21E348D1
:101EC000FFF746FB1F21E248FFF742FB1F21E148D5
:101ED000FFF73EFB0021E048FFF73AFB0021D54821
:101EE000FFF736FB0021D448FFF732FB0021D3482F
:101EF000FFF72EFB30E14FF4FC61D148FFF728FBE0
:101F00004FF4FC61CF48FFF723FB4FF4FC61CE4850
:101F1000FFF71EFB4FF4FC61CC48FFF719FB4FF4B1
:101F2000FC61CB48FFF714FB4FF4FC61C948FFF795
:101F30000FFB4FF4FC61C848FFF70AFB0021BD48C6
:101F4000FFF706FB0021BC48FFF702FB0021BB485E
:101F5000FFF7FEFA00E14FF4FC61B948FFF7F8FA29
:101F60004FF4FC61B748FFF7F3FA4FF4FC61B64851
:101F7000FFF7EEFA4FF4FC61B448FFF7E9FA4FF4CB
:101F8000FC61B348FFF7E4FA4FF4FC61B148FFF796
:101F9000DFFA4FF4FC61B048FFF7DAFA4FF4FC6166
:101FA000A448FFF7D5FA0021A348FFF7D1FA002192
:101FB000A248FFF7CDFACFE04FF47841A048FFF7F1
:101FC000C7FA4FF478419F48FFF7C2FA4FF47841BF
:101FD0009D48FFF7BDFA4FF478419C48FFF7B8FAE7
:101FE0004FF478419A48FFF7B3FA4FF47841994893
:101FF000FFF7AEFA4FF478419748FFF7A9FA4FF48C
:1020000078418C48FFF7A4FA4FF478418A48FFF7EB
:102010009FFA00218948FFF79BFA9DE04FF4784131
:102020008748FFF795FA4FF478418648FFF790FA12
:102030004FF478418448FFF78BFA4FF47841834896
:10204000FFF786FA4FF478418148FFF781FA4FF4A1
:1020500078418048FFF77CFA4FF478417E48FFF7DB
:1020600077FA4FF478417348FFF772FA4FF47841EA
:102070007148FFF76DFA4FF478417048FFF768FA3E
:102080006AE0764A9168764A1268506815F094FEC4
:1020900031D24FF478416A48FFF75AFA4FF4784149
:1020A0006848FFF755FA4FF478416748FFF750FA50
:1020B0004FF478416548FFF74BFA4FF47841644894
:1020C000FFF746FA4FF478416248FFF741FA4FF4C0
:1020D00078416148FFF73CFA4FF478415548FFF7E3
:1020E00037FA4FF478415448FFF732FA4FF4784109
:1020F0005248FFF72DFA594AD168594A1268506878
:1021000015F050FE27D200214D48FFF721FA00219B
:102110004C48FFF71DFA00214B48FFF719FA002140
:102120004A48FFF715FA00214948FFF711FA002144
:102130004848FFF70DFA00214748FFF709FA002148
:102140003C48FFF705FA00213B48FFF701FA002160
:102150003A48FFF7FDF900BF00BFBDE8F08170B558
:102160004FF4FC634FF6E0723E493F48FEF7BAFF7A
:102170004FF4FC634FF6E072AFF614513B48FEF7A4
:10218000B1FF4FF4FC634FF6E072AFF61C513848D4
:10219000FEF7A8FF4FF4FC634FF6E07235A13A4812
:1021A000FEF7A0FF39480068407810F0010F13D007
:1021B0002B490968886915F0B2FD044622460B4692
:1021C00033A1384816F04CFA4FF4FC634FF6E07236
:1021D00034493548FEF786FF4FF4FC634FF6E07252
:1021E00032A13548FEF77EFF4FF4FC634FF6E072F4
:1021F00032A13548FEF776FF4FF4FC634FF6E072EC
:1022000032A13548FEF76EFF4FF4FC634FF6E072E3
:1022100032A13548FEF766FF1C480068007810F0D0
:10222000010F78D00E490968C86915F078FD044699
:1022300022465BE066020010700200107A02001075
:10224000200200102A020010340200103E0200108A
:1022500048020010520200105C02001040040010FE
:1022600074030010280400105E00001068000010C5
:10227000720000104D454449444153204143545598
:10228000414C455300000000FE0000108003001088
:10229000416C747572613A20252E303266206D2EA5
:1022A00000000000580400100801001056656C2E54
:1022B00020762E3A000000001201001048756D656E
:1022C0006461643A000000001C010010436C6172FC
:1022D000696461643A00000026010010496E636978
:1022E00064652055563A0000300100100B46FCA1F1
:1022F000FE4816F0B5F94FF4FC634FF6E072FB4967
:10230000FB48FEF7EFFEFB480068007820F0010074
:10231000F84909680870F7480068407810F0010F24
:102320001BD0F5490968886815F0F9FC0446224677
:102330000B46F2A1ED4816F093F94FF4FC634FF60B
:10234000E072EA49F048FEF7CDFEEA4800684078BE
:1023500020F00100E74909684870E7490968086A00
:1023600015F0DDFC044622460B46E8A1DF4816F0D6
:1023700077F94FF4FC634FF6E072DC49E648FEF76C
:10238000B1FEDD490968C86815F0C9FC044622465B
:102390000B46E2A1D54816F063F94FF4FC634FF603
:1023A000E072D249E048FEF79DFE70BD10B54FF4D3
:1023B000FC634FF6E072DD49DD48FEF793FE4FF413
:1023C000FC634FF6E072AFF66071DA48FEF78AFE02
:1023D0004FF4FC634FF6E072AFF66C71D648FEF72F
:1023E00081FE4FF4FC634FF6E072D4A1D548FEF7AE
:1023F00079FE4FF4FC634FF6E072D3A1D448FEF7A8
:1024000071FE4FF4FC634FF6E072D2A1D648FEF79E
:1024100069FED648007805282BD2DFE800F0032BB0
:10242000537BA3004FF6FF731A46D1A1D148FEF7A4
:1024300059FE4FF4FC634FF6E072CFA1CF48FEF790
:1024400051FE4FF4FC634FF6E072CDA1CD48FEF78C
:1024500049FE4FF4FC634FF6E072CBA1CB48FEF788
:1024600041FE4FF4FC634FF6E072C9A1C948FEF784
:1024700039FE9FE04FF4FC634FF6E072BCA1BD480B
:10248000FEF730FE4FF6FF731A46BBA1BB48FEF7BE
:1024900029FE4FF4FC634FF6E072B9A1B948FEF78C
:1024A00021FE4FF4FC634FF6E072B7A1B748FEF788
:1024B00019FE4FF4FC634FF6E072B5A1B548FEF784
:1024C00011FE77E04FF4FC634FF6E072A8A1A94833
:1024D000FEF708FE4FF4FC634FF6E072A6A1A74892
:1024E000FEF700FE4FF6FF731A46A5A1A548FEF7BA
:1024F000F9FD4FF4FC634FF6E072A3A1A348FEF789
:10250000F1FD4FF4FC634FF6E072A1A1A148FEF784
:10251000E9FD4FE04FF4FC634FF6E07294A195485B
:10252000FEF7E0FD4FF4FC634FF6E07292A1934892
:10253000FEF7D8FD4FF4FC634FF6E07290A191488E
:10254000FEF7D0FD4FF6FF731A468FA18F48FEF7B6
:10255000C9FD4FF4FC634FF6E0728DA18D48FEF784
:10256000C1FD27E04FF4FC634FF6E07280A1814883
:10257000FEF7B8FD4FF4FC634FF6E0727EA17F4892
:10258000FEF7B0FD4FF4FC634FF6E0727CA17D488E
:10259000FEF7A8FD4FF4FC634FF6E0727AA17B488A
:1025A000FEF7A0FD4FF6FF731A4679A17948FEF7B2
:1025B00099FD00BF00BF4FF4FC634FF6E07276A1B7
:1025C0007748FEF78FFD7748007820B101281AD0B0
:1025D000022847D12EE04FF478431A4672A173487F
:1025E000FEF780FD4FF4FC634FF6E07270A1714876
:1025F000FEF778FD4FF4FC634FF6E0726EA16F4872
:10260000FEF770FD2EE04FF4FC634FF6E07266A11A
:102610006648FEF767FD1F231A4665A16548FEF769
:1026200061FD4FF4FC634FF6E07263A16348FEF76F
:1026300059FD17E04FF4FC634FF6E0725AA15B4876
:10264000FEF750FD4FF4FC634FF6E07258A1594875
:10265000FEF748FD4FF6FF731A4657A15748FEF79D
:1026600041FD00BF00BF4FF4FC634FF6E07254A180
:102670005548FEF737FD10BD10B500F0AAFD044621
:1026800044B1524A2146524800F059FF01205149B5
:10269000087002E000204F49087010BD1CB5FDF71E
:1026A0001FFDFFF7E9FF4C480078B8B14FF0E0207C
:1026B000006910F4803F11D0002000900E49019075
:1026C0000968464B0022086A012101F07FFF0020C3
:1026D0000090034601904148027881E084E00000C8
:1026E000252E303266206D707300000058040010F3
:1026F0003A0100108003001074030010252E3032C0
:10270000662025250000000044010010252E3032EF
:1027100066204C55580000004E010010252E303226
:102720006620555673000000580100102804001060
:102730005E000010680000107200001056616C6F9F
:10274000726573007C000010416A757374657300D4
:10275000860000104E6976656C206465206272699F
:102760006C6C6F3A000000009000001051000010E7
:10277000310000009A00001032000000A400001098
:1027800033000000AE00001034000000B80000105C
:1027900041000000C2000010506C61790000000090
:1027A000CC0000105000001048500000D60000106F
:1027B0004C500000E0000010554C5000EA000010A2
:1027C0004C6F616400000000F4000010280300104A
:1027D00070030010240300105300001025030010A4
:1027E00001210620FDF74CFEFE480068007806280F
:1027F0007ED2DFE800F003FDFCFBFAF9FFF7D6FD1F
:10280000F948FEF71DFC30B10120F649096808704F
:10281000002012F0E6F9F548FEF712FC30B1022074
:10282000F04909680870002012F0DBF9F048FEF763
:1028300007FC30B10320EB4909680870002012F052
:10284000D0F9EC48FEF7FCFB30B10520E5490968FA
:102850000870002012F0C5F9E748FEF7F1FB88B1D7
:102860000020E6490870E6490870009003460122FE
:10287000114601900620FDF703FE0020E149087093
:10288000E1490870E148FEF7DBFB90B10020DB492D
:102890000870DB4908700090034614220121019062
:1028A0000620FDF7EDFD0120D64908700020D6492D
:1028B0000870D748FEF7C4FB90B10020CF490870DC
:1028C000CF4908700090034628220121019006207C
:1028D000FDF7D6FD0220CB4908700020CA490870D8
:1028E000CC48FEF7ADFBA8B100200090034600E005
:1028F000E8E13C22012101900620FDF7C1FD002006
:10290000BE490870BE4908700320BE490870002007
:10291000BD490870C048FEF793FB58B10120B74984
:1029200008700020B64908700420B64908700120DC
:10293000B5490870B948FEF783FB70B1B848006824
:102940000078C00909D0B6480068007820F08000FF
:10295000B3490968087001F001FEB248FEF770FB48
:1029600070B1AF4800680078C00909D0AC48006871
:10297000007820F08000AA490968087001F056FD2F
:10298000A948FEF75DFB98B100209F4908709B495C
:10299000087003209B4908700020009003463C22E9
:1029A000012101900620FDF76BFD0020944908707D
:1029B0009E48FEF745FB58B101209349087004205A
:1029C0009049087001208D49087000208C490870DA
:1029D0009748FEF735FB80B102208B490870042030
:1029E00088490870012004E0A8E0A6E036E01DE078
:1029F00004E0824908708249087064E1FFF7AFFB88
:102A00007948FEF71DFB30B102207649096808704D
:102A1000002012F0E6F87548FEF712FB28B10020FE
:102A200070490968087012F0DCF84CE1FEF7AFFD60
:102A30006D48FEF705FB28B100206A490968087057
:102A400012F0CFF86948FEF7FBFA30B10120654972
:102A500009680870002012F0C4F834E1FEF76EFC3B
:102A60006148FEF7EDFA28B100205E490968087058
:102A700012F0B7F85D48FEF7E3FA28B10020594993
:102A80000968087012F0ADF86A48FEF7D9FA30B15B
:102A900069480078A0F10100684981F82800684879
:102AA000FEF7CEFA30B167480078A0F10100634923
:102AB00081F824006448FEF7C3FA30B16348007817
:102AC000A0F101005D4981F820006148FEF7B8FAE5
:102AD00030B160480078A0F10100584981F82C001D
:102AE0005D48FEF7ADFA30B15348007800F10100BF
:102AF000524981F828005948FEF7A2FA30B15148EE
:102B0000007800F101004D4981F824005448FEF797
:102B100097FA30B14D48007800F10100474981F83B
:102B200020005048FEF78CFA30B14A48007800F196
:102B30000100424981F82C00C5E0C4E0FEF753FBD8
:102B40002948FEF77DFA28B1002026490968087057
:102B500012F047F82548FEF773FA28B10020214902
:102B60000968087012F03DF83248FEF769FA38B18A
:102B70003D4948684FF07E5114F05BFE3A49486089
:102B80002F48FEF75DFA38B1374908684FF07E519B
:102B900014F04FFE344908602B48FEF751FA30B16B
:102BA0003149C868314914F044FE2F49C8602848AB
:102BB000FEF746FA30B12C4988682C4914F039FEEA
:102BC000294988602448FEF73BFA38B1264948680D
:102BD0004FF07E5114F0DBFD234948601F48FEF79B
:102BE0002FFA45E078030010680000107200001012
:102BF000860000107C0000109A00001053000010A6
:102C0000520000105100001050000010A4000010ED
:102C1000AE000010B8000010C2000010CC00001080
:102C200080030010F4000010D6000010E000001037
:102C3000EA000010940100102840024000400240C9
:102C40009E01001024400240A801001020400240D4
:102C5000B20100102C400240BC010010C60100105F
:102C6000D0010010DA0100104004001000002041E3
:102C700038B15A4908684FF07E5114F088FD574921
:102C800008605748FEF7DCF930B15449C868554927
:102C900014F07DFD5149C8605348FEF7D1F930B1B9
:102CA0004E4988684F4914F072FD4C4988604F487E
:102CB000FEF7C6F928B14948007CC0F10100474938
:102CC000087400BF00BF00BF1CBD10B500F0DCF8E9
:102CD00002F04FFC10BD10B54FF4FC631F2244A15D
:102CE0004748FEF7FFF94FF4FC631F2245A14C480B
:102CF000FEF7F8F910BD10B54FF4FC631F223CA19C
:102D00003F48FEF7EFF94FF4FC631F2245A144480A
:102D1000FEF7E8F94FF6FF714748FEF719FC10BDC2
:102D200010B54FF4FC631F2231A13548FEF7DAF9E4
:102D30004FF4FC631F2241A13948FEF7D3F94FF647
:102D4000FF713D48FEF704FC4FF6FF714248FEF765
:102D5000FFFB10BD10B54FF4FC631F2224A12848CF
:102D6000FEF7C0F94FF4FC631F223CA12C48FEF78C
:102D7000B9F94FF6FF713048FEF7EAFB4FF6FF71E5
:102D80003548FEF7E5FB4FF6FF713A48FEF7E0FBEA
:102D900010BD10B54FF4FC631F2237A11848FEF791
:102DA000A1F94FF4FC631F2235A11D48FEF79AF9E3
:102DB0004FF6FF712048FEF7CBFB4FF6FF71264818
:102DC000FEF7C6FB4FF6FF712A48FEF7C1FB4FF630
:102DD000FF712848FEF7BCFB10BD00004004001046
:102DE000D001001000002041DA0100108A0100101B
:102DF00043415247414E444F202E2E2E00000000EA
:102E0000E8020010507265706172616E646F206537
:102E10006C2073697374656D612E2E2E00000000A6
:102E2000F2020010437265616E646F206D75657308
:102E3000747261732E2E2E00FC02001042757363B3
:102E4000616E646F20636F6E6578696F6E205443A6
:102E5000502E2E2E0000000006030010496E6963FC
:102E600069616E646F206D6F64756C6F732E2E2EAA
:102E700000000000100300104341524741444F003E
:102E8000313030250000000000B589B002208DF8F7
:102E90001E0000208DF820008DF81F008DF81C000A
:102EA00007208DF81D0007A802F05EF808208DF8B5
:102EB0001D0007A802F058F809208DF81D0007A88A
:102EC00002F052F800208DF81E008DF81C0006203C
:102ED0008DF81D0007A802F047F800208DF81E00AD
:102EE00002208DF81C000D208DF81D0007A802F0AF
:102EF0003BF800224FF40051022002F097F84FF403
:102F00000051022002F0A6F801224021002002F028
:102F10008DF84021002002F09DF801A801F0FEFC90
:102F2000FE48069001A9FE4801F097FC0121FC48EB
:102F300001F0FFFC09B000BD70B50446FDF7D0F804
:102F4000002507E00C2000BF0100A0F10102D0B273
:102F5000FAD16D1CA542F5D370BD10B5044600BF73
:102F60001021EF4801F09EFE0128F9D02146EC48DF
:102F700001F047FD00BF0421E94801F093FE00285D
:102F8000F9D0E74801F04FFDC0B210BD70B5002088
:102F9000FFF7E3FF05464FF6FF7000EA0524012026
:102FA000FFF7CAFF0020FFF7D8FF05462C43E410C7
:102FB000C4F30B04204670BD10B54020D949C86148
:102FC0000120FFF7B9FF9020FFF7C7FF0120FFF7AF
:102FD000B3FFFFF7DBFF04464020D249886120465B
:102FE00010BD10B54020CF49C8610120FFF7A4FFF4
:102FF000D020FFF7B2FF0120FFF79EFFFFF7C6FFCB
:1030000004464020C7498861204610BD2DE9F041A3
:1030100004460D46FFF7D0FF06460120FFF78CFF60
:10302000FFF7DFFF074626602F60BDE8F08170B52F
:1030300004460D464FF478422946204612F08FFF91
:10304000611C88B24FF47842294612F088FF681C50
:1030500081B24FF47842204612F081FF6A1C91B28F
:10306000621C90B24FF4784212F079FF70BDF8B54F
:1030700004460D464FF6FF70A11E8AB20D3900902E
:1030800088B22B46294613F0F6F94FF6FF7004F18B
:103090000F018AB2A11C009088B22B46294613F07A
:1030A000EAF94FF6FF700090A81E83B20D3881B286
:1030B0002246204613F0DFF94FF6FF70009005F12D
:1030C0000F0083B2A81C81B22246204613F0D3F928
:1030D0004BF6F04005F10F06B3B2E61FB2B205F1B0
:1030E0000F06B1B2A4F10F060090B0B213F0C3F90D
:1030F0004BF6F04005F10F06B3B2A4F10F06B2B2E1
:10310000EE1DB1B2A4F10F060090B0B213F0B3F906
:103110004BF6F040A5F10F06B3B2E61FB2B2A5F12F
:103120000F06B1B2A4F10F060090B0B213F0A3F9EC
:103130004BF6F040A5F10F06B3B2A4F10F06B2B200
:10314000EE1FB1B2A4F10F060090B0B213F093F9E4
:103150004BF6F04005F10F06B3B204F10F06B2B220
:1031600005F10F06B1B2E61D0090B0B213F083F97D
:103170004BF6F04005F10F06B3B204F10F06B2B200
:10318000EE1DB1B204F10F060090B0B213F073F966
:103190004BF6F040A5F10F06B3B204F10F06B2B240
:1031A000A5F10F06B1B2E61D0090B0B213F063F9BD
:1031B0004BF6F040EE1FB3B204F10F06B2B2A5F128
:1031C0000F06B1B204F10F060090B0B213F053F93C
:1031D000F8BDF0B597B000274821684613F0D0FF3E
:1031E00000BF15A916A8FFF711FF16984DF8270084
:1031F00009A8159940F82710781CC7B24948406DB6
:1032000010F4005F01D1092FEBDB092F7ED1DDE93E
:103210000001084402990844032190FBF1F0129048
:10322000DDE90301084405990844032190FBF1F00E
:103230001390DDE90601084408990844032190FB36
:10324000F1F01490DDE91201441ADDE91301451A89
:1032500012991498461A002C01DD204600E06042C5
:103260000446002D01DD284600E068420546002E98
:1032700001DD304600E070420646502C06DD502D40
:1032800004DD502E02DD002017B0F0BDAC4215DA8F
:10329000A64209DA149A1299881800EBD071C1F38A
:1032A0004F01214A11801EE0DDE91212881800EB5F
:1032B000D071C1F34F011C4A118014E0AE4209DA0B
:1032C000149A1299881800EBD071C1F34F01164A75
:1032D000118008E0DDE91312881800EBD071C1F30A
:1032E0004F01114A1180DDE9091001440B9808448F
:1032F000032190FBF1F01290DDE90C1001440E98CF
:103300000844032190FBF1F0139000E063E0DDE955
:103310000F10014411980844032107E020A1070081
:103320000000034000C009206C03001090FBF1F086
:103330001490DDE91201441ADDE91301451A1299CE
:103340001498461A002C01DD204600E06042044635
:10335000002D01DD284600E068420546002E01DD13
:10336000304600E070420646502C05DD502D03DD4E
:10337000502E01DD002087E7AC4215DAA64209DABB
:10338000149A1299881800EBD071C1F34F01C24A08
:1033900051801EE0DDE91212881800EBD071C1F3F4
:1033A0004F01BD4A518014E0AE4209DA149A1299D5
:1033B000881800EBD071C1F34F01B74A518008E083
:1033C000DDE91312881800EBD071C1F34F01B24A46
:1033D0005180B14858E7002056E72DE9F0470546EF
:1033E0000C4616464FF0000921882289891AE38885
:1033F00062899A1A5143A2882389D31A67886289FD
:10340000BA1A03FB121014F026FCC6E90C010022C4
:103410001346D6E90C71384614F094FC02D14FF0F3
:10342000010989E029882A89891AE38862899A1A18
:103430005143AA882B89D31A67886289BA1A03FB79
:10344000121014F008FCC6E9000121882289891AAB
:10345000AA882B89D21A51432A88D21AA38827898D
:10346000DB1B02FB131014F0F6FBC6E902012189F5
:10347000AA885143A2882B8902FB13116288514309
:1034800022885A4323892F8803FB1723E28803FBF2
:103490000212A18879432388AF8803FB171361893F
:1034A00003FB012014F0D7FBC6E904016A8869898F
:1034B000511AE38862899A1A5143EB886A899B1AE8
:1034C00067886289BA1A03FB121014F0C4FBC6E9BC
:1034D000060121882289891AEB886A899A1A514340
:1034E0006B886A899A1AA3882789DB1B02FB131051
:1034F00014F0B1FBC6E908012189EA885143A38889
:103500006A8903FB12116288514322886B895A43EE
:1035100023896F8803FB1723E28803FB0213A1882A
:1035200079432788EA8807FB1212618902FB013080
:1035300014F091FBC6E90A014846BDE8F0872DE981
:10354000F04F8BB08246894614464FF0000B0022A4
:103550001346D4E90C51284614F0F4FB60D0B9F8B6
:10356000020014F089FB0546D4E902733A4614F0D0
:1035700083FACDE90201B9F8000014F07DFB07469B
:10358000D4E900532A4614F077FACDE90001DDE9C9
:10359000022314F0CAF9CDE90401D4E904532A4600
:1035A00014F0C3F9CDE90601D4E90C532A4614F00E
:1035B000D5FACDE9080114F099FBAAF80000B9F892
:1035C000020014F059FB0746D4E908532A4614F0C8
:1035D00053FACDE90201B9F8000014F04DFB07469B
:1035E000D4E906532A4614F047FACDE90001DDE993
:1035F000022314F09AF9CDE90401D4E90A532A46CA
:1036000014F093F9CDE90601D4E90C532A4614F0DD
:10361000A5FACDE9080114F069FBAAF8020001E05F
:103620004FF0010B58460BB0BDE8F08F38B50024C1
:1036300027E0002011F0D5FA00204FF6FF7317A203
:103640000A210090084612F0C5FF1C48FFF774FCE1
:103650001B4A02EB84025188194A32F82400FFF712
:1036600006FD00BFFFF7B5FD0546002DFAD02888FE
:10367000144921F82400688801EB84014880601C0B
:10368000C4B2032CD5DB104A0E490D48FFF7A5FE46
:10369000002011F0A6FA38BD6C030010546F75635A
:1036A000682063726F73736861697220746F20633E
:1036B000616C6962726174650000000020A10700FE
:1036C0006003001070040010280300102DE9F0477B
:1036D000B1480068C0F3016003287CD1AF4800689E
:1036E00010F0030006D0012833D002285FD0032851
:1036F0002ED100E000BFA8480068C0F3074000F1E9
:1037000001044FF00201A648D0F88800C0F30E0073
:1037100000F10100A1FB0001A24B4FF0000CA0FB47
:10372000037901FB039100FB0C11224663463846E6
:1037300013F0DCFC05469C480068C0B200F10104AF
:1037400022464FF00003284613F0D0FC974908604A
:103750005DE091480068C0F3074000F101044FF0BC
:1037600002018F48D0F88800C0F30E0000F101007C
:10377000A1FB00108E4A4FF0000CA1FB027900FB68
:10378000029001FB0C0122466346384613F0AEFC62
:10379000054685480068C0B200F1010422464FF09A
:1037A0000003284613F0A2FC804908602FE07A4805
:1037B0000068C0F3074000F101044FF002017848AF
:1037C000D0F88800C0F30E0000F10100A1FB001248
:1037D0004FF4004000E01BE04FF00003A1FB007934
:1037E00002FB009001FB03012246384613F07EFCE9
:1037F00005466D480068C0B200F1010422464FF052
:103800000003284613F072FC6849086000BF2FE0EF
:103810006248006810F0030006D0012810D002288A
:1038200019D0032823D100E000BF5F480068C0B270
:1038300000F101005B49B1FBF0F05C49086016E063
:1038400059480068C0B200F101005949B1FBF0F0DD
:10385000564908600BE054480068C0B200F101000E
:103860004FF40041B1FBF0F05049086000BF00BFC9
:10387000BDE8F08720204F4908604948D0F8A001F2
:1038800010F0200F05D000BF4A48006810F0400F2C
:10389000FAD00320444908604FF000004049C1F8C5
:1038A000A801454908604FF001003C4908604348C1
:1038B000434908604FF0AA00424908604FF05500A4
:1038C00008604FF00100404908604FF0AA003D49F0
:1038D00008604FF055003249C1F88C0000BF2E48F7
:1038E000006810F0806FFAD00320374908604FF06D
:1038F000AA002B49C1F88C004FF0550031490860EF
:1039000000BF2548006800F04070B0F1407FF8D15A
:1039100023202E4908604FF0AA002149C1F8AC00CD
:103920004FF055002A4908604FF00100294908600E
:103930004FF0AA00264908604FF055001849C1F819
:10394000AC0000BF2448006810F4806FFAD0032058
:10395000204908604FF0AA001149C1F8AC004FF0AF
:1039600055001B49086000BF1B48006800F4407008
:10397000B0F5407FF8D11948194908604FF00000B0
:103980000749C1F8C8010846006820F4704040F4B7
:10399000804008607047000088C00F400CC10F4095
:1039A00000C00F4000093D0004C10F408803001013
:1039B000001BB700A0C10F40ACC10F406300050061
:1039C00084C00F408CC00F4080C00F40A4C00F4087
:1039D000ACC00F40A0C00F40A8C00F40DE87280435
:1039E000C4C00F40042043490968087000204249C0
:1039F000096808604049096888603F49096848606B
:103A00003D490968C8613C490968C86000213A48D5
:103A10000068816100203849096808610021364842
:103A20000068416135483649086036484860364884
:103A300088603648C8600A204861002008747047D2
:103A40001CB5FFF742F9002011F0CBF8FFF743F95E
:103A5000FFF7C8FF002011F0C4F8FFF74CF900F0A1
:103A600023FE002011F0BDF8FFF75AF9FCF70EFC19
:103A7000002011F0B6F8FFF76DF900F05DF800F0E6
:103A800083F800F0B7FBFCF723FC00F0B3FCFCF775
:103A900087FD4FF408511948FCF732FC1C481D49BA
:103AA0005A230022CDE9001011460220FCF7E8FC61
:103AB0000020009003463222012101900620FCF7ED
:103AC000DFFC00F04BFE00F019FD00F04EFAFCF7B1
:103AD0001BFB12F0BEFD13F0FAF8002011F081F884
:103AE000FFF757F9002011F07CF800200149096820
:103AF00008701CBD780300107403001000004842D9
:103B000040040010000020C10080BB440000FA43C4
:103B10006F12033B6F12833A10B5002807DACA060A
:103B2000140EF34A00F00F031B1FD45403E0CA061F
:103B3000130EF04A135410BD10B5EF4800680A2167
:103B4000B0FBF1F0401E4FF0E02148610720086112
:103B5000E94800680A21B0FBF1F4B4F1807F00D39A
:103B600011E024F07F40401E4FF0E02148611F210A
:103B70004FF0FF30FFF7D0FF00204FF0E0218861C9
:103B80000720086100BF10BD10B5DC48006840F494
:103B90004100DB49C1F8C4000846D0F8C40040F039
:103BA0000200D64908604FF003004FF04021486101
:103BB0004FF00000C8600846406840F001004860CF
:103BC000D04888614FF001010846FFF7A5FF0120AA
:103BD0000121814042094FF0E02303EB8202C2F849
:103BE000001100BF10BD1CB519F0CAFDC6484069E0
:103BF00000EB80004000C5490988884205D9C348C8
:103C00000088401CC14908800FE0C148007860B1BD
:103C10000020C0490870BE49087000900346012288
:103C2000114601900620FCF72BFC1CBD2DE9F0414C
:103C30004FF0402000684FF040210860B6480078FF
:103C4000052190FBF1F201FB1207384613F0F5FF56
:103C500006464FF07E5113F0F2FD05464FF07C51C1
:103C600013F023FE0446002114F09CF835D1AB4834
:103C7000806A40F00500A94988620846806A40F0E1
:103C80003000886200F031FA13F0B2F8A4480068FE
:103C90000078C0F3400078B9A248007860B10020F5
:103CA000A1490968C8619E480068007820F00100B9
:103CB000401C9B490968087099480068007820F00A
:103CC000020097490968087095480068407820F01C
:103CD0000100401C924909684870BDE8F08170B548
:103CE000002013F0AAFF05464FF07C5113F0DDFDD4
:103CF0000446002114F056F822D189480068007863
:103D0000C0F3C000E0B187480078C8B17B480068C4
:103D100040F480507A49C1F8C400814800680078B6
:103D200020F008007E49096808708048006820F08B
:103D3000C0607E4908600846006840F48030086032
:103D400070BD2DE9FC417048007C002856D16E4AB8
:103D50001168754A1268106814F02EF818D8744863
:103D60007449B4230022CDE9001011460220FCF76B
:103D700087FB6B4800680078C00909D06848006874
:103D8000007820F0800066490968087000F0E6FBC2
:103D90005D4A5168644A1268106814F003F809D843
:103DA0006348644900231A46CDE9001019460220F1
:103DB000FCF766FB544A5168106813F03AFD074659
:103DC000514A5168584A1268106813F032FD804613
:103DD000594913F034FD0646394613F066FD054691
:103DE00013F070FFC4B25248524923460022CDE975
:103DF000001011460220FCF743FB55E0424A91684F
:103E0000494A1268506813F0D7FF18D84848494902
:103E1000B4230022CDE9001011460220FCF730FB4C
:103E20003F4800680078C00909D03D480068007824
:103E300020F080003A490968087000F08FFB324A90
:103E4000D168394A1268506813F0ACFF09D8384875
:103E5000384900231A46CDE9001019460220FCF724
:103E60000FFB294AD168906813F0E3FC0746264A05
:103E7000D1682D4A1268506813F0DBFC80462E4949
:103E800013F0DDFC0646394613F00FFD054613F02E
:103E900019FFC4B22648274923460022CDE9001065
:103EA00011460220FCF7ECFABDE8FC8110B5FFF7E3
:103EB000BDFEFFF714FF18480078401C1649087033
:103EC000FFF73FFF10BD10B514480068C4B214F0EE
:103ED000100F01D0FCF762F914F0020F01D000F0CE
:103EE00047FB0E4800680D49086010BD70477047D9
:103EF00018ED00E000E400E088030010C4C00F40AB
:103F000000C00F401FBCBE0040040010940300100E
:103F100052000010530000108C030010008000407D
:103F200080030010AC030010740300100040034035
:103F30006F12033B6F12833A00003443A449886830
:103F40000221A34A5160012151607047A1480068D5
:103F500040F40000A049C1F8C4004FF000009C49A3
:103F600008674FF01800C860704700B5FFF7EEFF14
:103F7000FFF7E4FF00BD30B500250023002448E032
:103F8000FFF7DCFF00BF9548406BC0F3C04018B995
:103F90008F4880686428F6D3FFF7D0FF0346904827
:103FA00001680068401C8E4A10608E4840F821303D
:103FB000282B01D3432B01D9002030BD0023FFF76C
:103FC000BDFF00BF8548406BC0F3C04018B18048BA
:103FD00080686428F6D3FFF7B1FF03468048016884
:103FE0000068401C7E4A10607E4840F821303C2B1F
:103FF00008D9502B06D2C4F107010120884028437C
:10400000C5B205E00A2B01D3642B01D90020D4E707
:10401000641C082CB4DB2846CFE700B50023FFF76B
:104020008DFF00BF6D48406BC0F3C04018B16848B9
:1040300080682D28F6D3FFF781FF034668480168A2
:104040000068401C664A1060664840F82130052B25
:1040500001D32D2B01D9012000BDFFF76FFF00BF59
:104060005E48406BC0F3C04018B959488068642866
:10407000F6D3FFF763FF0346594801680068401C08
:10408000574A1060574840F82130462B01D35A2B2D
:1040900001D90120E0E7FFF751FF00BF4F48406B17
:1040A000C0F3C04018B14A4880686428F6D3FFF7CF
:1040B00045FF03464A4801680068401C484A1060B2
:1040C000484840F82130462B01D35A2B01D9012012
:1040D000C2E70020C0E700B50346FFF72FFF00BF8F
:1040E0003B4880689842FBD300BD2DE9F84F002083
:1040F0000090002482463A4908603B4908703748DE
:10410000006A40F40020354908624FF40020C8637B
:1041100044F25060FFF7DFFF3048006A20F40020CF
:104120002E490862FFF779FF08B1BDE8F88F4FF01C
:10413000000908E0FFF71FFFC9F10301C90088402B
:10414000044309F10109B9F1040FF3DBFFF713FF91
:104150008246200E8DF80000200C8DF80100200A08
:104160008DF80200E0B28DF803009DF800009DF884
:10417000011008449DF8021008449DF803100844FB
:10418000194908700846007850451ED14FF6FF7156
:1041900001EA144013F070FD07460022134B13F0A0
:1041A000DDFC054613F0E2FD114909688860A0B204
:1041B00013F062FD074600220C4B13F0CFFC0546BE
:1041C00013F0D4FD0A490968086000BFADE700009C
:1041D00000400940C4C00F4000C00F4000C009208B
:1041E00098030010B00400109C030010000024404D
:1041F000740300106B48006840F480506A49C1F8AD
:10420000C4006A48406840F4803068494860084605
:10421000406C20F44030486465480068654940EAD5
:104220000100634908600846C06840F00200C860A9
:1042300061480068007820F0080000F108005E493D
:10424000096808705A48C06820F480705849C860EE
:104250004FF016004FF0010101FA00F14FEA501241
:104260004FF0E02303EB8202C2F8001100BF704759
:104270002DE9FC5F51480078002865D0012862D103
:104280004B48006820F48030494908604969C1F30F
:104290000B1013F0DBFC4A4908604A4948480068A3
:1042A00013F003FB464908600846006813F037FD29
:1042B00006460022444B13F0DCFB04460D46404802
:1042C000006813F02CFD06460022404B13F0D4FB8F
:1042D000804622462B4613F041FC824613F046FDF1
:1042E0003749086000200090034601903848026872
:1042F000203203213248006800F068F92C498969AE
:10430000C1F30B1013F0A2FC3249086008460068A4
:1043100013F005FD804600222F4B13F0ADFB06463F
:1043200000222E4B13F01AFC044613F01FFD2849FF
:104330000968C86020480068007820F0080008304C
:104340001D490968087022E019480069C0F3072078
:104350002349244A12688854224801680068401C96
:10436000204A106043F67F6081420FD3002011463F
:1043700008601D49486110480068007820F08000FE
:1043800080300D490968087000F08DF800BF00BF4B
:10439000BDE8FC9F12481549096808601449086087
:1043A00070470000C4C00F4000C00F4000C0024072
:1043B0000040034002FF210080030010AC03001006
:1043C000A003001000F07F450000F03F0080514046
:1043D00074030010A40300100080404000FEAF40B2
:1043E000D0070010A803001000800040DC0300107C
:1043F000004100503A48406840F4804038494860E5
:1044000040F6344037498861022048600120486006
:104410000020486102200121814042094FF0E02341
:1044200003EB8202C2F8001100BF704700202E4942
:10443000087001202D4908702D4800682D4908603A
:104440002B48C0682C49086001202949C8600846EB
:10445000006820F0FF0008600846006840F0010096
:1044600008600846006820F47F400860084600683D
:1044700040F4807008600846006820F480300860CE
:104480000846006820F0E06008600846006840F0D8
:10449000C0600860022013494861486001204860FC
:1044A0003120C863704711480078012816D111489F
:1044B00000680F49086010480068C8600846006836
:1044C00020F0E06008600846006840F47F40086023
:1044D0000120054908700020044908707047000059
:1044E00000C0024000800040AC0300108D030010AB
:1044F00000400340B0030010B40300102C48406893
:1045000040F400102A4948600E202A49486040F2D1
:104510001A60088128480068007820F08000803008
:1045200025490968087070470A2905DDA1F10A02CA
:1045300000FA02F290B200E008411E4A12684FF6FB
:10454000C0739A431B4B1A601A4612684FF48033AB
:1045500043EA80131A43174B1A6070471820174913
:1045600048611748C86102204860012048607047D0
:1045700000B51448006820F001001349C1F810018B
:104580000D480068007820F0800000F180000A49A2
:10459000096808700948406920F0380007494861F7
:1045A0004FF0000003490860FFF7A8FF00BD0000BE
:1045B00000C0024000C0084080030010008000409E
:1045C00080F0FA0210410050004000502DE9FC5FDD
:1045D00081468A4614469B46BAF1000F09D0BAF1CB
:1045E000010F24D0BAF1020F3DD0BAF1030F57D119
:1045F0003CE04B49087813F029FB4FF07E510190C5
:10460000484613F016F98046464913F04EF907461E
:10461000019913F014F9064613F054FBC0B2401C84
:104620003F490D5C284613F011FB206039E03E49FC
:10463000087813F00BFB07464FF07E51484613F005
:10464000F8F88046374913F030F90646394613F03A
:10465000F6F8054613F036FBC0B2401C3249085C40
:104660008BF800001DE0C4F800901AE0484613F0F3
:1046700056FB2E4A2E4BCDE9000113F0FDF90746FB
:104680002C4A2D4B13F051F9054613F06FFB2060B7
:104690000021206813F086FB01D20020206000BFBB
:1046A00000BF00BFBDE8FC9F2DE9F04F87B04FF081
:1046B000000A27E0504613F0C0FA834613F02FFBA0
:1046C0001E4A1F4BCDE9000113F0D6F900221D4B05
:1046D000CDE9020113F042FA804615F0F5FC0646DA
:1046E0000022194B13F0C8F90022184BCDE9040140
:1046F00013F01BF9044613F0F9FA154901F80A0002
:104700000AF1010ABAF1200FD4DB07B0BDE8F08F3F
:104710000F481049096808600F4908607047000099
:10472000C60300100000C642B80300100BB5A679FE
:10473000C729F0BFA835CD3B4E8159407A008BFC8C
:10474000FA2119400000404000805F4000C05F40F7
:1047500050460010DC0300100041005010B517480F
:10476000006840F000501649C1F8C4004FF0010045
:10477000144908634FF040004863FFF7C9FF12482F
:104780001249096848601148006810490968886042
:104790000D4818300B49C1F804010C4800680C4959
:1047A00008600C4801F10401086008490968C86004
:1047B00040F6C1100349C1F8100110BDC4C00F403C
:1047C00000C00F400040005008C00840DC0300104B
:1047D00008410050200000042DE9F04704468846B7
:1047E000FB48844202D0FB48844200D103E04321CD
:1047F000F9A000F087FEF648844204D12A2000F098
:104800001EFE074609E0F348844204D1142000F05C
:1048100016FE074601E0BDE8F08700254FF0FF399E
:1048200002260AE0681C7043B7FBF0F9C14504D9C1
:104830006D1CFF2D01D90025B61CC145F2D820689A
:10484000C0B2206020684FF6FF7101EA05210843DD
:104850002060F0B2206100BFDDE770B504460D4670
:10486000DB48844202D0DB48844200D103E081214E
:10487000D9A000F047FED648844204D10121480562
:1048800000F0FAFD08E0D348844204D1012100156C
:1048900000F0F2FD00E070BDA88829890843298A4C
:1048A00008432988084386B22660287B00F00F065B
:1048B000666020466969FFF78FFF00BFEBE710B520
:1048C0000446C348844202D0C248844200D103E077
:1048D000A821C1A000F016FEBD48844205D10021E8
:1048E0004FF4001000F0C8FD06E0BA48844203D13E
:1048F0000021001500F0C0FD10BD10B50446B448FD
:10490000844202D0B348844200D103E0C021B2A067
:1049100000F0F8FD206800F00F0010BD002141609C
:104920008160B7494161072101600021C1600161D7
:10493000704770B504460D46A548844202D0A5488C
:10494000844200D103E0E521A3A000F0DBFD0DB11E
:10495000012D00D103E0E6219FA000F0D3FD012D41
:1049600004D1606840F00200606003E0606800F01D
:104970000D00606070BD70B504460D4694488442D9
:1049800002D09448844200D103E0FE2192A000F0BE
:10499000B9FD0DB1012D00D103E0FF218EA000F083
:1049A000B1FD012D04D1606840F00100606003E0BA
:1049B000606800F00E00606070BD70B504460D4682
:1049C0008348844202D08348844200D104E04FF4FB
:1049D0008D7181A000F096FD0DB1012D00D104E094
:1049E00040F21B117CA000F08DFD012D04D1606808
:1049F00000F00700606003E0606840F0080060605D
:104A000070BD70B504460D467148844202D07148AD
:104A1000844200D104E04FF49A716FA000F072FD5F
:104A2000A8B2A06070BD10B504466948844202D0A7
:104A30006848844200D104E04FF4A27166A000F0FF
:104A400061FDA06880B210BD2DE9F74F82B0064627
:104A50000C460020E0606060606103E03046FFF7D4
:104A6000E2FF0746F06810F0040FF7D10320306230
:104A70003046FFF742FF082801DD012500E0002550
:104A8000049800287AD125B9D4F80890D4F800A069
:104A900003E0D4F808B02068019060E0F06810F0FE
:104AA000020F2ED02169606888422AD0206888B918
:104AB0003DB9FF213046FFF7A4FF6068401C6060ED
:104AC0001FE04FF6FF713046FFF79BFF6068801CC8
:104AD000606016E055B99AF800103046FFF791FF74
:104AE0000AF1010A6068401C60600AE001980188D0
:104AF0003046FFF786FF0198801C01906068801C9B
:104B00006060D6F8188018F0010F07D048F40070E4
:104B100060614FF0FF3005B0BDE8F08F17E0304620
:104B2000FFF781FF0746A06848B125B989F80070F2
:104B300009F1010903E0ABF800700BF1020B1DB99C
:104B4000E068401CE06002E0E068801CE060F06823
:104B500010F0040F03D0D4E903018842DFD12169AA
:104B6000606888429AD1D4E90301884296D14FF413
:104B700080706061206810B16068CCE705E0A068D3
:104B800008B1E068C7E70020C5E7049801287DD197
:104B90006BE0206888B93DB9FF213046FFF731FF4F
:104BA0006068401C606036E04FF6FF713046FFF7EA
:104BB00028FF6068801C60602DE01DBBD4E9000206
:104BC000815C3046FFF71DFF6068401C606022E09A
:104BD00000800840000003402E2E5C4D656E755C21
:104BE0004669726D776172655C736F757263655C3F
:104BF0006C7063313778785F7373702E63000000D8
:104C000040420F00D4E90002815A3046FFF7F9FE16
:104C10006068801C6060D6F8188018F0010F05D01D
:104C200048F4007060614FF0FF3074E715E03046E3
:104C3000FFF7F9FE0746A06838B11DB9D4E90212A2
:104C40008F5402E0D4E902128F521DB9E068401C73
:104C5000E06002E0E068801CE060F06810F0040FA3
:104C600003D0D4E903018842E1D1F06810F0020FCB
:104C700003D02169606888428BD1D4E9030188425E
:104C800003D121696068884204D000E007E00F206A
:104C9000706102E04FF48070606100203BE74FF0EC
:104CA000FF3038E770B505460C467748854202D09C
:104CB0007648854200D105E04FF40571AFF2E80077
:104CC00000F020FC012C07D0022C05D0042C03D0CE
:104CD000082C01D0102C00D105E040F21521AFF2D4
:104CE000081000F00FFCE868204201D0012070BDE0
:104CF0000020FCE770B504460D4616466248844223
:104D000002D06248844200D105E04FF40B71AFF24B
:104D1000381000F0F7FB012E03D160692843606171
:104D200004E060690F21A9430840606170BD70B55F
:104D300005460C465448854202D05448854200D16D
:104D400005E040F24921AFF2701000F0DBFB012CCE
:104D500005D0022C03D0042C01D0082C00D105E092
:104D600040F24A21AFF2901000F0CCFBA86920423B
:104D700001D0012070BD0020FCE710B50446424878
:104D8000844202D04148844200D105E04FF41671BC
:104D9000AFF2BC1000F0B6FBA06910BD70B50546BF
:104DA0000C463948854202D03848854200D105E09A
:104DB00040F26D21AFF2E01000F0A4FB012C05D011
:104DC000022C03D0042C01D0082C00D105E040F2C5
:104DD0006E21AFF2FC1000F095FBE869204201D093
:104DE000012070BD0020FCE770B504460D46264842
:104DF000844202D02548844200D105E040F281215E
:104E0000AFF22C2000F07EFB012D01D0022D00D14D
:104E100005E040F28221AFF2402000F073FB2562F2
:104E200070BD70B504460D4616461748844202D040
:104E30001648844200D105E040F29721AFF2682085
:104E400000F060FB022D01D0012D00D105E04FF4F0
:104E50002671AFF27C2000F055FB0EB1012E00D17F
:104E600005E040F29921AFF2902000F04BFB012EBB
:104E700003D1606A2843606204E0606A0321A943A9
:104E80000840606270BD00000080084000000340E0
:104E9000F0B504460B461546194660003B4A1029FA
:104EA00001D31039401C52F820604FEA410C03270F
:104EB00007FA0CF7BE4342F8206052F820604F001A
:104EC00005FA07F73E4342F82060F0BDF0B504460E
:104ED0000B461546194660002C4A4032102901D372
:104EE0001039401C52F820604FEA410C032707FAA2
:104EF0000CF7BE4342F8206052F820604F0005FADC
:104F000007F73E4342F82060F0BD30B50B461F491D
:104F10006831012A07D151F8204001259D402C43DA
:104F200041F8204006E051F8204001259D40AC4367
:104F300041F8204030BD012806D11449896A41F06A
:104F40000801124A916206E028B91049896A21F0E5
:104F500008010E4A91627047012800D1052201B96B
:104F60000A220A4BDA67704710B50446A2786178C6
:104F70002078FFF78DFFE27861782078FFF7A6FFB1
:104F8000227961782078FFF7C0FF10BD00C0024091
:104F900001460020052912D2DFE801F00305080BC5
:104FA0000E00F8480CE0F748203009E0F5484030A2
:104FB00006E0F448603003E0F248803000E000BFD3
:104FC00000BF704701460020052912D2DFE801F03A
:104FD0000305080B0E00EB480CE0EA48203009E01E
:104FE000E848403006E0E748603003E0E5488030BC
:104FF00000E000BF00BF704701460020052912D223
:10500000DFE801F00305080B0E00DE480CE0DD4888
:10501000203009E0DB48403006E0DA48603003E049
:10502000D848803000E000BF00BF70472DE9F04154
:1050300007460D4616463846FFF7AAFF04463CB120
:105040001EB120682843206002E02068A843206049
:10505000BDE8F08170B506460C463046FFF798FF74
:10506000054605B1AC6170BD70B506460C463046CC
:10507000FFF78EFF054605B1EC6170BD70B50546C2
:105080002846FFF785FF04460CB1606970BD00201B
:10509000FCE718B912B9BC4B196014E0022803D11F
:1050A00012B9BA4B19600EE020B9012A02D1B84BEF
:1050B000196008E0022804D1012A02D1B54B196019
:1050C00001E000BFFEE7704703463BB932B9B24882
:1050D000006820FA01F000F001007047022B07D1B0
:1050E00032B9AE48006820FA01F000F00100F4E7A0
:1050F00043B9012A06D1AA48006820FA01F000F05D
:105100000100EAE7022B08D1012A06D1A548006870
:1051100020FA01F000F00100DFE700BFFEE710B960
:10512000A14A116006E0022802D1A04A116001E004
:1051300000BFFEE7704770B504460D46164632467E
:1051400029462046FFF772FF70BD70B504460D4634
:1051500029462046FFF77EFF70BD70B504460D4618
:1051600029462046FFF780FF70BD10B50446204653
:10517000FFF784FF10BD70B504460D461646324653
:1051800029462046FFF785FF70BD70B504460D46E1
:105190001646324629462046FFF796FF70BD10B5E9
:1051A00003460C4621461846FFF7B9FF10BD2DE90E
:1051B000F04107460D4616463846FFF7E9FE04461D
:1051C0003CB11EB120692843206102E02069A84358
:1051D0002061BDE8F0812DE9F04180460E4615467C
:1051E0001F464046FFF7EEFE04468CB147B11EB1A4
:1051F0006088284360800BE020882843208007E0F7
:105200001EB16088A843608002E02088A843208007
:10521000BDE8F0812DE9F04180460E4615461F4657
:105220004046FFF7CFFE04468CB147B11EB1608AFD
:10523000284360820BE0208A2843208207E01EB1C9
:10524000608AA843608202E0208AA8432082BDE8E9
:10525000F0812DE9F04107460E4614463846FFF727
:10526000B1FE05461DB10EB16C8300E02C83BDE894
:10527000F0812DE9F04107460E4614463846FFF707
:10528000A1FE05461DB10EB1EC8300E0AC83BDE884
:10529000F08170B506460D463046FFF793FE044692
:1052A00024B10DB1E08A70BDA08AFCE70020FAE7C6
:1052B0002DE9F04180460C4616461F464046FFF752
:1052C0009BFE05465DB12FB1032C08DC285D304301
:1052D000285504E0032C02DC285DB0432855BDE8C6
:1052E000F0812DE9F04180460C4616461F464046A7
:1052F000FFF782FE05469DB14FB1032C10DC05F18E
:105300001000005D304305F11001085508E0032C42
:1053100006DC05F11000005DB04305F110010855F1
:10532000BDE8F0812DE9F04107460C4615463846A8
:10533000FFF762FE064626B1032C02DC06F11800D8
:105340000555BDE8F0812DE9F04107460C461546AC
:105350003846FFF751FE064626B1032C02DC06F163
:105360001C000555BDE8F08170B506460C46304678
:10537000FFF742FE0546DDB1032C19DC05F11400F0
:10538000005D70BD00C0092090800240B0800240E6
:1053900094800240B480024084800240A480024095
:1053A00088800240A88002408C800240AC8002408D
:1053B0000020E6E710B50A46202801D2034601E0A6
:1053C000A0F120031946202814D2464B1B684FF049
:1053D000030404FA01F423EA0403434CC4F8A8319B
:1053E000404B1B6802FA01F443EA04033E4CC4F844
:1053F000A83113E03D4B1B684FF0030404FA01F49D
:1054000023EA0403384CC4F8AC31384B1B6802FA69
:1054100001F443EA0403344CC4F8AC3110BD014636
:10542000202903D20A462F4B186803E0A1F120027D
:105430002E4B186820FA02F303F00300704770B592
:1054400006462B4804683046FFF7E9FF054635B1AC
:10545000012D06D0022D06D0032D08D105E004252C
:1054600005E0012503E0022501E0082500BF00BF9B
:10547000B4FBF5F4204670BD01290AD11D4A12681B
:105480001D4B00EA030342EA0302174BC3F8C42092
:105490000AE049B9174A1268174B23EA000302EAE7
:1054A0000302114BC3F8C420704700201349086061
:1054B00030BF704704201249086008200F49086077
:1054C00030BF704704200E49086009200B4908606E
:1054D00030BF704704200A4908600320074908606C
:1054E00030BF7047A8C10F4000C00F40ACC10F4093
:1054F00088030010C4C00F40DEF7EFEFC0C00F40BC
:1055000010ED00E000BFFEE770B505460C46A4F1C3
:105510002000044A02EB00111022284611F017FE69
:1055200070BD000098E20100FE48006C40F0FF00F2
:10553000FC4908640846006840F4FF00086008461B
:10554000006A40F0605008620846006C40F48070C9
:1055500008647047002109E0002201E0531C9AB260
:1055600040F275439A42F9DB4B1C99B28142F3DB5E
:10557000704700B587B0FFF7D7FF6420FFF7EAFF59
:1055800000200590059803904FF48070E549C865A8
:10559000C004C86380008863039802900298019059
:1055A0000198496D60F30701DE484165406920F4C8
:1055B000FF024FF4FF01019801EAC0100243D948ED
:1055C000426100BF4FF08050D649C86300BF4FF022
:1055D0008050D44988630015886500BF00BFC86546
:1055E000C0048863400088634000C86300BF084669
:1055F000006C20F0FF0008640846006820F4FF00FB
:1056000008600846406DC1B20291C648406900F486
:10561000FF010191DDE9010141EAD0110291C14888
:10562000006C40F0FF00BF4908640846006840F481
:10563000FF01BC480160029803904FF00050B94947
:1056400088634115B74881650398049004980690D3
:105650000698A0F51341253905D00698A0F5134109
:10566000283942F0A7820120AF490870B120049088
:10567000A5200590049803904FF48070A949C8654F
:10568000C004C8638100A748816303980290029810
:105690000190A4490198496D60F30701A148416553
:1056A000406920F4FF014FF4FF02019802EAC010A4
:1056B00001439C48416100BF4FF08051C16300BF6E
:1056C0004FF080519748816340159649886500BF27
:1056D000059803904815C865C00488630398029034
:1056E000029801900198496D60F307018D4841656A
:1056F000406920F4FF024FF4FF01019801EAC01055
:1057000002438848426100BF4FF080508549C8631A
:1057100000BF4FF08050834988630115814881653F
:1057200000BF00BFB12005900598039008467D4951
:10573000C865C004C863800088630398029002981B
:1057400001900198496D60F3070176484165406911
:1057500020F4FF024FF4FF01019801EAC010024358
:105760007048426100BF4FF080506E49C86300BF6F
:105770004FF080516B4881634115816500BF00BFC8
:1057800040156849C865C104664881634800654999
:1057900088634000C86300BF0846006C20F0FF002B
:1057A00008640846006820F4FF0008600846406D61
:1057B000C0B202900846406900F4FF000190DDE9A4
:1057C000011040EAD11002905648006C40F0FF00F2
:1057D000544908640846006840F4FF0008600298D5
:1057E00003904FF00050886340158865039804903B
:1057F000049806900698A5285ED103204A490870AF
:10580000B120049000200590049803904FF480701C
:105810004449C865C004C863800088630398029047
:10582000029801900198496D60F307013D48416578
:10583000406920F4FF024FF4FF01019801EAC01013
:1058400002433848426100BF4FF080503549C86379
:1058500000BF4FF08051334881634015314988655E
:1058600000BF059803904815C865C0048863039875
:105870000290029801900198496D60F30701294850
:105880004165406920F4FF014FF4FF02019802EAEC
:10589000C01001432348416100BF4FF080502149AF
:1058A000C86300BF4FF080501E49886301151D4832
:1058B000816500BF00BF02E002201B490870E5209F
:1058C000049047F6F0000590049803904FF4807020
:1058D0001449C865C1041348C1638800114988632D
:1058E00003980290029801900198496D60F30701B6
:1058F0000C484165406920F4FF024FF4FF01019814
:1059000001EAC01002430748426100BF4FF08050D7
:105910000449C86300BF4FF08050024988630015F6
:10592000886503E000C00920E003001000BF05986F
:1059300003904815C865C0048863039802900298D4
:1059400001900198496D60F30701FE484165406987
:1059500020F4FF024FF4FF01019801EAC010024356
:10596000F848426100BF4FF08050F649C86300BF5D
:105970004FF08050F34988630015886500BF00BF71
:105980000120049000020590049803904815C86512
:10599000C004C86380008863039802900298019055
:1059A0000198496D60F30701E6484165406920F4BC
:1059B000FF024FF4FF01019801EAC0100243E148E1
:1059C000426100BF4FF08050DE49C86300BF4FF016
:1059D0008050DC4988630015886500BF05980390F6
:1059E0004815C865C0048863039802900298019026
:1059F0000198496D60F30701D2484165406920F480
:105A0000FF024FF4FF01019801EAC0100243CD48A4
:105A1000426100BF4FF08050CA49C86300BF4FF0D9
:105A20008050C84988630015886500BF00BF022008
:105A300004904FF4E0600590049803904815C86501
:105A4000C004C863800088630398029002980190A4
:105A50000198496D60F30701BA484165406920F437
:105A6000FF014FF4FF02019802EAC0100143B5485C
:105A7000416100BF4FF08050B249C86300BF4FF092
:105A80008050B04988630115AE48816500BF059814
:105A900003900846AB49C865C00488630398029028
:105AA000029801900198496D60F30701A54841658E
:105AB000406920F4FF024FF4FF01019801EAC01091
:105AC0000243A048426100BF4FF080509D49C86327
:105AD00000BF4FF080519B4881634015994988650C
