:020000040000FA
:1000000058640010AD020000B5020000B702000005
:10001000B9020000BB020000BD02000000000000A9
:10002000000000000000000000000000BF0200000F
:10003000C102000000000000C302000003360000FF
:10004000C70200005F3700000D38000033380000A1
:1000500035380000D7610100C7020000C702000068
:10006000C5640100C7020000C7020000C70200000B
:10007000C7020000C7020000C7020000C70200005C
:10008000C702000039060000C7020000C7020000D6
:10009000C7020000C7020000B93B0000C702000011
:1000A000C7020000C7020000C7020000C70200002C
:1000B0007F0E0000C7020000C7020000C702000058
:1000C000C7020000C7020000C7020000DFF80CD022
:1000D00017F020FB004800479D0200005864001004
:1000E000AA204107087255200872704700B50548DC
:1000F000410648600120086103200870FFF7F0FF07
:1001000000BD0000A0ACB9035448C06C5349C8649A
:100110000846C06CC8640846C06820F03000C8605B
:100120000846C06840F03000C8604D48006F4C4938
:1001300008670846806A40F0050088624948006800
:1001400040F004004849C1F8C4004FF000004449A1
:10015000C8600846406840F00200486008464068B1
:1001600020F0020048600846406840F00100486006
:100170003A48C06840F030003849C8604FF002008B
:100180004FF0010101FA00F14FEA50124FF0E02365
:1001900003EB8202C2F8001100BF704770B5002463
:1001A00000E0641C47F230508442FADB10202C49F6
:1001B00008602E480078401C2C49087008460078DA
:1001C00002284ADB2A480068294948602448C06A56
:1001D000086000202549087025490968244A5268AA
:1001E000881A17F04AF80646224916F03FFE0546DF
:1001F0002946214816F070FE204908602048007802
:10020000401C1F4908700846007804281FD1144874
:10021000806A60F004001249886200201849087062
:100220001648006817490968C861174800680078CF
:1002300020F002001449096808701348006800782B
:1002400020F00100401C10490968087005E00448CE
:10025000806A40F005000249886270BD00C002401B
:1002600000800040C4C00F4000C00F4000000010DC
:100270000400001000007A44D313834E0C000010D9
:1002800001000010C4C20720D0C2072010B51AF028
:10029000BDFC10BD10B51AF0ADFE10BD03F0F8F8AE
:1002A00003E002F0C6F8FFF7F5FFFAE706488047DB
:1002B00006480047FEE7FEE7FEE7FEE7FEE7FEE74B
:1002C000FEE7FEE7FEE7FEE7C5320000CD000000D6
:1002D0000848406840F48020064948600846406C61
:1002E00020F4402048640448006840F004000249BB
:1002F0000860704700C0024000400340FFFFFFFF5E
:1003000070B505460C469A48006840F0400099498F
:10031000C1F8C4002946984816F0DEFD064616F0DE
:10032000E8FF401E954988610846406840F0090092
:10033000486008464069002048610846406940F02E
:10034000020048618E4800696FF30B008C49086118
:100350000846C0688B4908408949C86000208A491E
:100360000968087025E088480068017844FA01F0BF
:100370004FF6FE71884315D08148016982480068B4
:10038000007842000120904001437D4801617B4894
:10039000C06C7D4909680978093101228A401043FF
:1003A0007649C864784800680078401C7649096836
:1003B00008707548006800780628D4DB062072496A
:1003C0000968087052E0704800680178891C44FA96
:1003D00001F04FF6FE71884341D06848C16C6A480D
:1003E00000680078C01C0122824011436348C16448
:1003F000654800680078801F06282ED2DFE800F0EC
:10040000030A11181F265E48C06840F020005C49AE
:10041000C86023E05A48C06840F400705849C8607A
:100420001CE05748C06840F400605549C86015E0BA
:100430005348C06840F400405149C8600EE050483D
:10044000C06840F400304E49C86007E04C48C068BE
:1004500040F400104A49C86000E000BF00BF4A48AD
:1004600000680078401C48490968087046480068E0
:1004700000780C28A7DB002043490968087070BD8C
:100480002DE9FF5F04460D4616469946DDF838A073
:10049000032C00D9A41D504616F058FF4FF03332FC
:1004A0003A4BCDE9020116F0FEFD074616F076FF45
:1004B00082460F9816F04AFF354A364BCDE90201C5
:1004C00016F0F1FD074616F069FF0F90D5B1012D2A
:1004D0003ED1304616F0D1FE2F49039016F0FCFCB9
:1004E00080462649886916F0C8FE8346414616F0C4
:1004F000BDFC074616F0FDFE2049042202FB041154
:10050000886126E0484616F0B8FE2449009016F0AF
:10051000E3FC514602900F9816F0A2FC019002995C
:1005200016F0A4FC8346514616F048FC124903908D
:1005300016F09CFC80464FF07E5116F091FC074669
:1005400016F0D7FE0D49042202FB0411886100E079
:1005500000BF00BF032C00D9A41F0848006D012173
:10056000A14041F00101084304490865BDE8FF9F2F
:10057000C4C00F4000C00F4020BCBE4B00800140F3
:1005800000C00240CF30CCFFCCC207203333E33F62
:10059000CDCCCCCCCCCCF43F0000C84200003443DE
:1005A00010B53748006840F400703649C1F8C400FF
:1005B0004FF01200344908724FF0000008644FF009
:1005C000010008720846007B40F00100087340F209
:1005D000E47088874FF001002C4908702C4908709E
:1005E0004FF00000A1F104010870A1F104010870AE
:1005F000A1F1040108704FF011004FF0010101FA60
:1006000000F14FEA50124FF0E02303EB8202C2F8F0
:10061000001100BF4FF00001002807DACA06140ECF
:100620001C4A00F00F031B1FD45403E0CA06130E2C
:10063000194A135400BF10BD1FB5184800688068E0
:10064000401C1649096888600F48007840F0010096
:100650000D4908701248007812490978124A127838
:10066000094B9B8FCDE90032CDE90210064890F886
:10067000383010F82C2F0DA1144817F0FDFA1FBDCB
:10068000C4C00F4000C00F4000400240384002404C
:100690002C40024018ED00E000E400E0CCC207204E
:1006A000204002402440024028400240253032646D
:1006B0002F253032642F253034642D253032643AB2
:1006C000253032643A2530326400000024C307200C
:1006D00007280CD2DFE800F00405060708090A0025
:1006E00005E004E003E002E001E000E000BF00BF3D
:1006F00000BFFEE710B518F0F3FF1AF095FB1AF0F3
:100700009FF91CF00DFB1BF00DFC19F0B9FBBDE8C7
:10071000104018F0C5BC10B518F0FCFF1AF08AFBA9
:100720001AF0FCF91BF0CEFCBDE8104019F086BFB2
:1007300000207047704770470020704700207047C6
:1007400000207047704770472DE9F04705460E4678
:1007500091469A46287862284CD010DC4D2873D0F8
:1007600006DC412871D0442870D048286FD1B7E00A
:1007700053286DD054286CD06128F7D148E07428F4
:100780000ED006DC682827D0692873D07028EDD1F8
:1007900014E076287CD078285CD07928E6D145E032
:1007A00062490968086816F0D1FD07463A460B46CB
:1007B000291D304617F060FA0446B2E05B4909682B
:1007C000486816F0C3FD07463A460B46291D3046D9
:1007D00017F052FA0446A4E054490968886816F0F4
:1007E000B5FD07463A460B46291D304617F044FA38
:1007F000044696E04D490968086A16F0A7FD0746C9
:100800003A460B46291D304617F036FA044688E072
:1008100046490968886916F099FD07463A460B462D
:10082000291D304617F028FA04467AE03F49096846
:10083000486916F08BFD07463A460B46291D30469F
:1008400017F01AFA04466CE038E02FE03FE062E06F
:1008500058E04EE035490968086916F077FD07460B
:100860003A460B46291D304617F006FA044658E072
:1008700000E00DE02D490968C86816F067FD0746DD
:100880003A460B46291D304617F0F6F9044648E073
:1008900026490968C86916F059FD07463A460B46CD
:1008A000291D304617F0E8F904463AE02048828FC7
:1008B000291D304617F0E0F9044632E01D48027861
:1008C00005F10401304617F0D7F9044629E01A482B
:1008D000027805F10401304617F0CEF9044620E015
:1008E0001648027805F10401304617F0C5F90446B0
:1008F00017E01348027805F10401304617F0BCF9FF
:1009000004460EE00F48027805F10401304617F066
:10091000B3F9044605E00CA1304617F0ADF90446E2
:1009200000BF00BFA0B2BDE8F0870000C4C207202E
:1009300000400240384002402C4002402840024023
:1009400024400240204002403C703E592E2E2E2072
:1009500071756520717569657265732071756520A3
:10096000706F6E676120617175693F203A6C3C2F32
:10097000703E00001C200121814042094FF0E0231D
:1009800003EB8202C2F8001100BF70471C20012156
:100990008140FE4A430942F8231000BF704770B5FA
:1009A00005460E468EB9032405E015F8021BC8B2B1
:1009B000F7490855641C062CF7DB7E20F4490870C3
:1009C000FF204870FE20887009E0002405E015F83B
:1009D000021BC8B2EE490855641C062CF7DBFFF772
:1009E000D5FF4FF0A040006820F001004FF0A0417B
:1009F0000860E848006820F00300C1F80001E448FE
:100A00000079E349497940EA01204FF0A0410864A8
:100A1000DF488078DE49C97840EA01204FF0A041E4
:100A20004864DB480078DA49497840EA01204FF011
:100A3000A04188640846006840F44F4008600846BA
:100A4000D0F8000140F07800C1F80001FFF792FFF4
:100A5000012070BD00200FE000EB4001CE4A02EB08
:100A60004121CE4A42F83010002102EBC002516011
:100A7000CB4A42F82010401C0328EDD3C749C94A8D
:100A80001160C7494FF0A042C2F820114FF0020197
:100A9000C54A11604FF000014FF0A042C2F8281182
:100AA0007047002013E000EB4001C04A02EB4121F7
:100AB000BF4A42F83010BF4902EBC002516000212A
:100AC000BD4A42F8301002EBC0025160401C0428BD
:100AD000E9D3B749B94A1160B7494FF0A042C2F80B
:100AE0000C114FF00301B64A11604FF000014FF0B6
:100AF000A042C2F81811704710B5014641F4807049
:100B00004FF0A044A06201206062002307E04FF094
:100B1000A040406B10F0010F00D103E05B1CB3F567
:100B2000A02FF4D300BF00204FF0A0446062204605
:100B3000026B90B210BD10B540F480734FF0A0442A
:100B4000A3622346D962002207E04FF0A0435B6B0B
:100B500013F0010F00D103E0521CB2F5A02FF4D323
:100B600000BF10BD10B59748006840F0804096491E
:100B7000C1F8C4009548964988600846C06820F0CE
:100B80000F0000F10500C8604FF44F404FF0A04146
:100B900008604FF038007F4908604FF000008D4931
:100BA000086004E08B480068401C8A490860894856
:100BB0000068FF28F6D902204FF0A04108603020DD
:100BC00048604001486143F20F7008611220C8601C
:100BD0004FF430706F49086048F23C004FF0A0417C
:100BE00008624FF000007B49086004E07948006823
:100BF000401C7849086077480068FF28F6D93C20F7
:100C00004FF0A04108624FF40060886100207149F4
:100C1000086004E06F480068401C6E4908606D4839
:100C20000068FF28F6D900204FF0A04188614FF4FA
:100C30000041FFF780FF0020664908600FE00020B8
:100C4000FFF75AFF644908600846008810F4084F0F
:100C500000D109E05F480068401C5E4908605D48BB
:100C60000068B0F5801FEAD300BF0220FFF744FF01
:100C70005A4908600320FFF73FFF594908600846BA
:100C800000684FF6F07108405449098840EA014075
:100C9000A0F5F821F0391ED14FF480510020FFF764
:100CA0004AFF00204B4908600FE00120FFF724FFB6
:100CB000494908600846007810F0200F00D009E08C
:100CC00044480068401C4349086042480068B0F549
:100CD000801FEAD300BF00203E4908600FE00120DA
:100CE000FFF70AFF3C4908600846007810F0040F3F
:100CF00000D009E037480068401C36490860354894
:100D00000068B0F5803FEAD300BF1F20FFF7F4FE74
:100D1000314908600846007810F0100F11D04FF0EC
:100D2000A040406840F001004FF0A04148601948E1
:100D3000006840F48060C1F800014FF01500886041
:100D400003E012204FF0A04188602348007810F0A3
:100D5000080F05D04FF480704FF0A041886103E088
:100D600000204FF0A041886109480079084949797D
:100D700040EA01204FF0A04108640548807804490A
:100D8000C97840EA01204FF0A0412BE080E100E06B
:100D900010C00720000100508C0F082068F70720C2
:100DA00080F707201C010050240100508CF7072019
:100DB00028F70720FF05008048F7072008010050AA
:100DC00010010050C4C00F4000C00F400501155075
:100DD00000C0024018000010140000101C00001099
:100DE0002000001048644D4800784C49497840EA9A
:100DF00001204FF0A0418864FFF753FEFFF72AFE61
:100E00002620474908604FF08800464908604FF6A1
:100E1000FF7001F1040108604FF0A040D0F800011C
:100E200040F003004FF0A041C1F8000108460068FF
:100E300040F00100086010BD70B53B4D296800F11D
:100E400004033A4D55F83140058805F103054FEA92
:100E5000A50202E020CB20C4521E002AFAD1058848
:100E60006D1E45F04045314E06EBC10675604D1CC8
:100E70002946032D00D100212B4D296070BD2DE99D
:100E8000F04740E02748001DC0F8008018F0080F28
:100E900038D02748046831E0264850F8347017F0FD
:100EA000804F00D123E0C7F30A00C51E40F2EA508C
:100EB000854202D82048074200D018E045F00040A3
:100EC00017F0A2FE06468EB106F1040A1B4850F840
:100ED0003490E81C850804E059F8040B4AF8040B28
:100EE0006D1E002DF8D130461AF004FE00BF601CC4
:100EF0000446042800D100240D480460104800680E
:100F0000A042C9D100BF0748001F00680549096811
:100F100010EA0108B6D1BDE8F087000010C0072034
:100F200000020050E40F00502801005068F707202D
:100F30001801005048F707200000901B28F70720F1
:100F4000140100501CB50446F7480078012847D129
:100F5000F64800882188884219DD2088A188084445
:100F6000F2490988884212DDF04840886188884249
:100F70000DDD6088E1880844EC494988884206DD37
:100F8000207A10B9012020721CBD0020FCE7E8483F
:100F9000406900EB80004000E649098888421CD87F
:100FA0000020009003463C22012101900620FFF71B
:100FB00067FA0320E0490870E048007801280CDD5A
:100FC0000120DF4908700420DB490870DB48007805
:100FD000022802D10120DB4908700020D549088091
:100FE0000020207200BFCFE72DE9F84F04460E46DF
:100FF00017461D460095B4F800C0B4F80480C444F8
:10100000ACF1010C1FFA8CF263881946208814F0A9
:10101000CEFE0095B4F802C0B4F80680C444ACF12A
:10102000010C1FFA8CF322886188104614F0BFFE71
:101030000095B4F802C0B4F80680C444ACF1010CC9
:101040001FFA8CF3B4F800C0B4F80480C444ACF1C7
:10105000010C1FFA8CF2B4F802C0B4F80680C44444
:10106000ACF1010C1FFA8CF1208814F0A0FE009561
:10107000B4F802C0B4F80680C444ACF1010C1FFA05
:101080008CF3B4F800C0B4F80480C444ACF1010C93
:101090001FFA8CF2B4F800C0C444ACF1010C1FFA82
:1010A0008CF0618814F083FE304615F0D2FD4008C4
:1010B000B4F8049009EBD971228802EB6101A1EB2D
:1010C000C0001FFA80FA00200090B4F8068008EBF8
:1010D000D870628802EB6000083881B23B46324625
:1010E000504614F013FFBDE8F88F1CB54FF4FC63B5
:1010F0004FF6E07294499548FFF776FF4FF4FC6392
:101100004FF6E07292A19348FFF76EFF4FF4FC6335
:101110004FF6E07290A19148FFF766FF4FF4FC6331
:101120004FF6E0728EA19048FFF75EFF4FF4FC632C
:101130004FF6E0728DA18F48FFF756FF4FF4FC6326
:101140004FF6E0728CA18F48FFF74EFF4FF4FC631F
:101150004FF6E0728CA18E48FFF746FF0820D7219A
:10116000A823C022CDE900108AA18E4816F084FD84
:101170004FF4FC634FF6E0728A498B48FFF734FF67
:101180004FF4FC634FF6E07288A18948FFF72CFF0B
:101190004FF4FC634FF6E07284A18648FFF724FF0A
:1011A0004FF4FC634FF6E07280A18348FFF71CFF09
:1011B0004FF4FC634FF6E0727CA18048FFF714FF08
:1011C0004FF4FC634FF6E0727DA17E48FFF70CFF01
:1011D0004FF4FC634FF6E07279A17B48FFF704FF00
:1011E0004FF4FC634FF6E07275A17848FFF7FCFE00
:1011F0004FF4FC634FF6E07271A17548FFF7F4FEFF
:101200001CBDF8B504460E46002514E0009667881C
:10121000B4F806C06744BF1EBBB227882F44BF1C6A
:10122000BAB26788BF1CB9B227882F44BF1CB8B2B6
:1012300014F0BDFD6D1CA088001FA842E6DCF8BDBF
:101240002DE9F0414FF4FC634FF6E0723E493F4810
:10125000FFF7CAFE4FF4FC634FF6E0723CA13D4835
:10126000FFF7C2FE4FF4FC634FF6E0723AA13B4831
:10127000FFF7BAFE4FF4FC634FF6E07255A15948F0
:10128000FFF7B2FE58480068407810F0010F2FD0E9
:1012900056490968086816F059F8044622460B4674
:1012A00053A1404816F0E8FC4FF4FC634FF6E0729F
:1012B0003C495248FFF798FE4C490968486816F0C7
:1012C00045F8044622460B464DA1364816F0D4FC9C
:1012D0004FF4FC634FF6E07232494C48FFF784FE4E
:1012E00041480068407820F001003F490968487093
:1012F0000F4A5168106815F0B3FD06460C4A516854
:101300003A4A1268106815F0ABFD0746404915F0DF
:10131000ADFD0546314615F0DFFD044615F0D0FF62
:101320000B2800D276E087E2C2C2072070000010CE
:10133000CC000010E0C207202BC007202AC00720E5
:101340002DC007202CC0072024C3072038C0072049
:101350002D3E000042C007203C2D00004CC007205D
:10136000486F7261730000003CC107204D696E75C3
:10137000746F730046C10720536567756E646F73A1
:101380000000000050C107204469617300000000A4
:101390005AC1072049503A25642E25642E25642E13
:1013A00025640000E400001064C107202D00000047
:1013B0006EC1072078C1072082C107208CC1072099
:1013C0002B00000096C10720A0C10720AAC107205A
:1013D000B4C1072054656D70657261747572613AAD
:1013E00000000000BEC10720D0C20720C4C20720F1
:1013F000252E30326620644300000000C8C107205B
:10140000252E303266206D4261722E00E6C1072023
:1014100000002041DFE800F0062F5984B0DDFEFD1A
:10142000FCFBFA000021FA48FFF7EBFE0021F94827
:10143000FFF7E7FE0021F848FFF7E3FE0021F74839
:10144000FFF7DFFE0021F648FFF7DBFE0021F5483D
:10145000FFF7D7FE0021F448FFF7D3FE0021F34841
:10146000FFF7CFFE0021F248FFF7CBFE0021F14845
:10147000FFF7C7FE4BE24FF6FF71E548FFF7C1FEED
:101480000021E448FFF7BDFE0021E348FFF7B9FE65
:101490000021E248FFF7B5FE0021E148FFF7B1FE69
:1014A0000021E048FFF7ADFE0021DF48FFF7A9FE6D
:1014B0000021DE48FFF7A5FE0021DD48FFF7A1FE71
:1014C0000021DC48FFF79DFE21E24FF6FF71D04876
:1014D000FFF797FE4FF6FF71CE48FFF792FE00210F
:1014E000CD48FFF78EFE0021CC48FFF78AFE002191
:1014F000CB48FFF786FE0021CA48FFF782FE002195
:10150000C948FFF77EFE0021C848FFF77AFE002198
:10151000C748FFF776FE0021C648FFF772FEF6E1E6
:101520004FF6E071BA48FFF76CFE4FF6E071B9482C
:10153000FFF767FE4FF6E071B748FFF762FE002144
:10154000B648FFF75EFE0021B548FFF75AFE0021BE
:10155000B448FFF756FE0021B348FFF752FE0021C2
:10156000B248FFF74EFE0021B148FFF74AFE0021C6
:10157000B048FFF746FECAE14FF6E071A448FFF716
:1015800040FE4FF6E071A348FFF73BFE4FF6E071D7
:10159000A148FFF736FE4FF6E071A048FFF731FE95
:1015A00000219F48FFF72DFE00219E48FFF729FEEE
:1015B00000219D48FFF725FE00219C48FFF721FEF2
:1015C00000219B48FFF71DFE00219A48FFF719FEF6
:1015D0009DE11F218E48FFF714FE1F218D48FFF764
:1015E00010FE1F218C48FFF70CFE1F218B48FFF7D0
:1015F00008FE1F218A48FFF704FE00218948FFF7F3
:1016000000FE00218848FFF7FCFD04E0CCE099E0F3
:1016100067E036E00CE000218448FFF7F2FD00218E
:101620008348FFF7EEFD00218248FFF7EAFD6EE1F7
:101630001F217748FFF7E5FD1F217648FFF7E1FD01
:101640001F217548FFF7DDFD1F217448FFF7D9FD05
:101650001F217348FFF7D5FD1F217248FFF7D1FD09
:1016600000217148FFF7CDFD00217048FFF7C9FD4B
:1016700000216F48FFF7C5FD00216E48FFF7C1FD4F
:1016800045E14FF4FC616248FFF7BBFD4FF4FC619C
:101690006048FFF7B6FD4FF4FC615F48FFF7B1FD0E
:1016A0004FF4FC615D48FFF7ACFD4FF4FC615C4812
:1016B000FFF7A7FD4FF4FC615A48FFF7A2FD4FF476
:1016C000FC615948FFF79DFD00215848FFF799FD3F
:1016D00000215748FFF795FD00215648FFF791FD7F
:1016E00015E14FF4FC614A48FFF78BFD4FF4FC61B4
:1016F0004848FFF786FD4FF4FC614748FFF781FD3E
:101700004FF4FC614548FFF77CFD4FF4FC61444811
:10171000FFF777FD4FF4FC614248FFF772FD4FF48D
:10172000FC614148FFF76DFD4FF4FC613F48FFF756
:1017300068FD00213E48FFF764FD00213D48FFF7AA
:1017400060FDE4E04FF478413148FFF75AFD4FF473
:1017500078413048FFF755FD4FF478412E48FFF7A8
:1017600050FD4FF478412D48FFF74BFD4FF4784181
:101770002B48FFF746FD4FF478412A48FFF741FD1B
:101780004FF478412848FFF73CFD4FF47841274853
:10179000FFF737FD4FF478412548FFF732FD002170
:1017A0002448FFF72EFDB2E04FF478411848FFF7C8
:1017B00028FD4FF478411748FFF723FD4FF4784197
:1017C0001548FFF71EFD4FF478411448FFF719FD47
:1017D0004FF478411248FFF714FD4FF47841114857
:1017E000FFF70FFD4FF478410F48FFF70AFD4FF464
:1017F00078410E48FFF705FD4FF478410C48FFF79C
:1018000000FD4FF478410B48FFF7FBFC7FE0000040
:101810005EC2072068C2072072C207207CC2072070
:1018200086C2072090C207209AC20720A4C20720C0
:10183000AEC20720B8C20720FB4A5168FB4A1268B3
:10184000106815F0D1FD31D24FF47841F848FFF718
:10185000D8FC4FF47841F748FFF7D3FC4FF47841B8
:10186000F548FFF7CEFC4FF47841F448FFF7C9FC88
:101870004FF47841F248FFF7C4FC4FF47841F14847
:10188000FFF7BFFC4FF47841EF48FFF7BAFC4FF485
:101890007841EE48FFF7B5FC4FF47841EC48FFF78C
:1018A000B0FC4FF47841EB48FFF7ABFCDE4A5168DF
:1018B000DE4A1268106815F08DFD27D20021DC4841
:1018C000FFF79FFC0021DB48FFF79BFC0021DA4873
:1018D000FFF797FC0021D948FFF793FC0021D84877
:1018E000FFF78FFC0021D748FFF78BFC0021D6487B
:1018F000FFF787FC0021D548FFF783FC0021D4487F
:10190000FFF77FFC0021D348FFF77BFC00BF00BF3F
:101910004FF4FC634FF6E072CFA1D248FFF764FBAF
:10192000C14AD168906815F09BFA0646BE4AD16854
:10193000BE4A1268506815F093FA0746CA4915F076
:1019400095FA0546314615F0C7FA044615F0B8FC7D
:101950000B287DD2DFE800F0062F5986B2DFFEFDAE
:10196000FCFBFA000021C148FFF74BFC0021C048F6
:10197000FFF747FC0021BF48FFF743FC0021BE48AA
:10198000FFF73FFC0021BD48FFF73BFC0021BC48AE
:10199000FFF737FC0021BB48FFF733FC0021BA48B2
:1019A000FFF72FFC0021B948FFF72BFC0021B848B6
:1019B000FFF727FC6FE24FF6FF71AC48FFF721FC01
:1019C0000021AB48FFF71DFC0021AA48FFF719FCD6
:1019D0000021A948FFF715FC0021A848FFF711FCDA
:1019E0000021A748FFF70DFC0021A648FFF709FCDE
:1019F0000021A548FFF705FC0021A448FFF701FCE2
:101A00000021A348FFF7FDFB45E24FF6FF71974821
:101A1000FFF7F7FB4FF6FF719548FFF7F2FB002148
:101A20009448FFF7EEFB00219348FFF7EAFB002103
:101A30009248FFF7E6FB00219148FFF7E2FB002107
:101A40009048FFF7DEFB00218F48FFF7DAFB00E04C
:101A5000B6E100218D48FFF7D4FB00218C48FFF749
:101A6000D0FB18E24FF6E0718048FFF7CAFB4FF653
:101A7000E0717F48FFF7C5FB4FF6E0717D48FFF747
:101A8000C0FB00217C48FFF7BCFB00217B48FFF72F
:101A9000B8FB00217A48FFF7B4FB00217948FFF733
:101AA000B0FB00217848FFF7ACFB00217748FFF737
:101AB000A8FB00217648FFF7A4FBECE14FF6E071AC
:101AC0006A48FFF79EFB4FF6E0716948FFF799FB04
:101AD0004FF6E0716748FFF794FB4FF6E0716648F8
:101AE000FFF78FFB00216548FFF78BFB002164485F
:101AF000FFF787FB00216348FFF783FB0021624863
:101B0000FFF77FFB00216148FFF77BFB0021604866
:101B1000FFF777FBBFE11F215448FFF772FB1F213E
:101B20005348FFF76EFB1F215248FFF76AFB1F2146
:101B30005148FFF766FB1F215048FFF762FB002169
:101B40004F48FFF75EFB00214E4804E005E1D2E07C
:101B5000A0E038E00EE0FFF754FB00214A48FFF711
:101B600050FB00214948FFF74CFB00214848FFF794
:101B700048FB90E11F213D48FFF743FB1F213C48F4
:101B8000FFF73FFB1F213B48FFF73BFB1F213A4874
:101B9000FFF737FB1F213948FFF733FB1F21384878
:101BA000FFF72FFB00213748FFF72BFB00213648BA
:101BB000FFF727FB00213548FFF723FB00213448BE
:101BC000FFF71FFB67E14FF4FC612848FFF719FBA3
:101BD0004FF4FC612648FFF714FB4FF4FC612548E5
:101BE000FFF70FFB4FF4FC612348FFF70AFB4FF4AC
:101BF000FC612248FFF705FB4FF4FC612048FFF72A
:101C000000FB4FF4FC611F48FFF7FBFA00211E4860
:101C1000FFF7F7FA00211D48FFF7F3FA00211C48EF
:101C2000FFF7EFFA37E10000CC000010C4C2072034
:101C30005EC2072068C2072072C207207CC207204C
:101C400086C2072090C207209AC20720A4C207209C
:101C5000AEC20720B8C2072050726573696F6E3A32
:101C600000000000DCC1072000002041FAC107206D
:101C700004C207200EC2072018C2072022C2072074
:101C80002CC2072036C2072040C207204AC20720C4
:101C900054C207204FF4FC61FD48FFF7B2FA4FF43D
:101CA000FC61FC48FFF7ADFA4FF4FC61FA48FFF71E
:101CB000A8FA4FF4FC61F948FFF7A3FA4FF4FC616E
:101CC000F748FFF79EFA4FF4FC61F648FFF799FAE0
:101CD0004FF4FC61F448FFF794FA4FF4FC61F348C9
:101CE000FFF78FFA0021F248FFF78BFA0021F14845
:101CF000FFF787FACFE04FF47841E548FFF781FA24
:101D00004FF47841E348FFF77CFA4FF47841E2481A
:101D1000FFF777FA4FF47841E048FFF772FA4FF493
:101D20007841DF48FFF76DFA4FF47841DD48FFF75F
:101D300068FA4FF47841DC48FFF763FA4FF47841D2
:101D4000DA48FFF75EFA4FF47841D948FFF759FABD
:101D50000021D848FFF755FA9DE04FF47841CC4870
:101D6000FFF74FFA4FF47841CA48FFF74AFA4FF4A9
:101D70007841C948FFF745FA4FF47841C748FFF763
:101D800040FA4FF47841C648FFF73BFA4FF47841E8
:101D9000C448FFF736FA4FF47841C348FFF731FAE9
:101DA0004FF47841C148FFF72CFA4FF47841C0480E
:101DB000FFF727FA4FF47841BE48FFF722FA6AE0AE
:101DC000BD4A9168BD4A1268506815F00DFB31D2CA
:101DD0004FF47841AE48FFF714FA4FF47841AD481C
:101DE000FFF70FFA4FF47841AB48FFF70AFA4FF4C8
:101DF0007841AA48FFF705FA4FF47841A848FFF761
:101E000000FA4FF47841A748FFF7FBF94FF4784107
:101E1000A548FFF7F6F94FF47841A448FFF7F1F928
:101E20004FF47841A248FFF7ECF94FF47841A1480C
:101E3000FFF7E7F9A04AD168A04A1268506815F088
:101E4000C9FA27D200219248FFF7DBF90021914817
:101E5000FFF7D7F900219048FFF7D3F900218F4809
:101E6000FFF7CFF900218E48FFF7CBF900218D480D
:101E7000FFF7C7F900218C48FFF7C3F900218B4811
:101E8000FFF7BFF900218A48FFF7BBF90021894815
:101E9000FFF7B7F900BF00BFBDE8F08170B54FF4A0
:101EA000FC634FF6E07286498648FFF79DF84FF4D1
:101EB000FC634FF6E072AFF668318348FFF794F8A1
:101EC0004FF4FC634FF6E072AFF674317F48FFF7D2
:101ED0008BF84FF4FC634FF6E0727DA18148FFF769
:101EE00083F881480068407810F0010F13D07349DF
:101EF0000968886915F02AFA044622460B467BA138
:101F00007F4815F0B9FE4FF4FC634FF6E0727C4950
:101F10007C48FFF769F84FF4FC634FF6E0727AA152
:101F20007C48FFF761F84FF4FC634FF6E0727AA14A
:101F30007C48FFF759F84FF4FC634FF6E0727AA142
:101F40007C48FFF751F84FF4FC634FF6E0727AA13A
:101F50007C48FFF749F864480068007810F0010FEA
:101F60001BD056490968C86915F0F0F904462246A5
:101F70000B4675A1624815F07FFE4FF4FC634FF6E7
:101F8000E0725F497348FFF72FF857480068007800
:101F900020F00100544909680870534800684078EF
:101FA00010F0010F1BD045490968886815F0CEF97B
:101FB000044622460B4668A1514815F05DFE4FF4D9
:101FC000FC634FF6E0724E496648FFF70DF846484D
:101FD0000068407820F0010043490968487037499B
:101FE0000968086A15F0B2F9044622460B465EA15C
:101FF000434815F041FE4FF4FC634FF6E072404950
:102000005C48FEF7F1FF2D490968C86815F09EF994
:10201000044622460B4658A1394815F02DFE4FF4D0
:10202000FC634FF6E07236495648FEF7DDFF70BD9F
:1020300010B54FF4FC634FF6E07221492148FEF7DA
:10204000D3FF4FF4FC634FF6E072AFF6FC411E483D
:10205000FEF7CAFF4FF4FC634FF6E072AFF608518B
:102060001A48FEF7C1FF4FF4FC634FF6E07246A139
:102070004748FEF7B9FF4FF4FC634FF6E07245A105
:102080004648FEF7B1FF4FF4FC634FF6E07287E07D
:10209000FAC1072004C207200EC2072018C2072079
:1020A00022C207202CC2072036C2072040C20720C8
:1020B0004AC2072054C20720CC000010C4C2072027
:1020C00024C3072038C0072042C007204CC0072087
:1020D0004D4544494441532041435455414C455397
:1020E00000000000D8C00720D0C20720416C7475E2
:1020F00072613A20252E303266206D2E00000000DD
:10210000E4000010E2C0072056656C2E20762E3ABF
:1021100000000000ECC0072048756D656461643AFA
:1021200000000000F6C00720436C617269646164BE
:102130003A00000000C10720496E636964652055BC
:10214000563A00000AC10720252E303266206D70F5
:102150007300000014C10720252E3032662025258B
:10216000000000001EC10720252E303266204C558D
:102170005800000028C10720252E30326620555611
:102180007300000032C10720496E666F2E00000008
:1021900056C00720416A75737465730060C00720DC
:1021A000F8A1FD48FEF720FFFC48007805282BD257
:1021B000DFE800F0032B537BA3004FF6FF731A46B2
:1021C000F7A1F848FEF710FF4FF4FC634FF6E072FA
:1021D000F5A1F648FEF708FF4FF4FC634FF6E072F6
:1021E000F3A1F448FEF700FF4FF4FC634FF6E072F2
:1021F000F1A1F248FEF7F8FE4FF4FC634FF6E072EF
:10220000EFA1F048FEF7F0FE9FE04FF4FC634FF6BD
:10221000E072E3A1E348FEF7E7FE4FF6FF731A46CC
:10222000E1A1E248FEF7E0FE4FF4FC634FF6E072F6
:10223000DFA1E048FEF7D8FE4FF4FC634FF6E072F2
:10224000DDA1DE48FEF7D0FE4FF4FC634FF6E072EE
:10225000DBA1DC48FEF7C8FE77E04FF4FC634FF6E5
:10226000E072CFA1CF48FEF7BFFE4FF4FC634FF6FC
:10227000E072CDA1CD48FEF7B7FE4FF6FF731A46C8
:10228000CBA1CC48FEF7B0FE4FF4FC634FF6E072F2
:10229000C9A1CA48FEF7A8FE4FF4FC634FF6E072EE
:1022A000C7A1C848FEF7A0FE4FE04FF4FC634FF60D
:1022B000E072BBA1BB48FEF797FE4FF4FC634FF6FC
:1022C000E072B9A1B948FEF78FFE4FF4FC634FF6F8
:1022D000E072B7A1B748FEF787FE4FF6FF731A46C4
:1022E000B5A1B648FEF780FE4FF4FC634FF6E072EE
:1022F000B3A1B448FEF778FE27E04FF4FC634FF635
:10230000E072A7A1A748FEF76FFE4FF4FC634FF6FB
:10231000E072A5A1A548FEF767FE4FF4FC634FF6F7
:10232000E072A3A1A348FEF75FFE4FF4FC634FF6F3
:10233000E072A1A1A148FEF757FE4FF6FF731A46BF
:102340009FA1A048FEF750FE00BF00BF4FF4FC6302
:102350004FF6E0729CA19E48FEF746FE9D4800782D
:1023600020B101281AD0022847D12EE04FF478433B
:102370001A4699A19948FEF737FE4FF4FC634FF6D1
:10238000E07297A19748FEF72FFE4FF4FC634FF6DB
:10239000E07295A19548FEF727FE2EE04FF4FC630E
:1023A0004FF6E0728CA18D48FEF71EFE1F231A46E1
:1023B0008BA18C48FEF718FE4FF4FC634FF6E072D9
:1023C00089A18A48FEF710FE17E04FF4FC634FF630
:1023D000E07281A18148FEF707FE4FF4FC634FF6DF
:1023E000E0727FA17F48FEF7FFFD4FF6FF731A46AC
:1023F0007DA17E48FEF7F8FD00BF00BF4FF4FC63EF
:102400004FF6E0727AA17C48FEF7EEFD10BD10B5E4
:1024100000F007FC044644B1784A2146784800F0B1
:10242000B6FD01207749087002E000207549087068
:1024300010BD1CB5FDF754FEFFF7E9FF72480078A8
:10244000D0B14FF0E020006910F4803F14D000209C
:1024500000906E49019009686D4B0022086A0121C5
:1024600001F052FD00200090034601906848027878
:1024700001210620FEF704F8664800680078052868
:102480007ED2DFE800F003FEFDFCFB00FFF7D0FD8D
:102490006148FEF757FD30B101205E4909680870B8
:1024A000002012F03AF85D48FEF74CFD30B10220F2
:1024B000584909680870002012F02FF85848FEF7B4
:1024C00041FD30B10320534909680870002012F023
:1024D00024F83448FEF736FD88B100204A490870D8
:1024E00050490870009003460122114601900620D1
:1024F000FDF7C6FF002029490870364908702B48AF
:10250000FEF720FD90B100203F4908704549087052
:10251000009003461422012101900620FDF7B0FF30
:1025200001201E49087000202A4908702148FEF742
:1025300009FD90B10020344908703A4908700090B4
:1025400003462822012101900620FDF799FF022071
:102550001249087000201F4908701848FEF7F2FC65
:1025600078B10020009003463C2201210190062012
:10257000FDF786FF0020244908702A49087053E0BF
:102580006BE157E04E6976656C2064652062726984
:102590006C6C6F3A000000006AC007202BC0072057
:1025A0003100000074C00720320000007EC0072008
:1025B0003300000088C007203400000092C00720CC
:1025C000410000009CC00720506C617900000000B1
:1025D000A6C007202AC0072048500000B0C007202E
:1025E0004C500000BAC00720554C5000C4C0072012
:1025F0004C6F616400000000CEC00720280000106E
:1026000070000010C2C207202DC00720C4C20720DE
:10261000C3C20720C8C2072042C007204CC0072001
:1026200060C007202CC007200320904908700020BC
:102630008F4908708F48FEF785FC58B101208E49FC
:10264000087000208D490870042088490870012016
:10265000874908708A48FEF775FC70B189480068A0
:102660000078C00909D087480068007820F0800011
:1026700084490968087001F009FC03E0ECE07CE0A3
:1026800063E04AE08048FEF75DFC70B17D48006879
:102690000078C00909D07B480068007820F08000ED
:1026A00078490968087001F059FB7848FEF74AFC40
:1026B00098B100206E4908706F49087003206B497B
:1026C00008700020009003463C2201210190062062
:1026D000FDF7D6FE0020694908706D48FEF732FC10
:1026E00058B1012062490870042060490870012037
:1026F000614908700020614908706648FEF722FCB5
:1027000050B102205A49087004205849087001202D
:102710005949087059490870A0E0FFF7BFFB5E48AF
:10272000FEF710FC30B102205C49096808700020F7
:1027300011F0F3FE5A48FEF705FC28B10020574976
:102740000968087011F0E9FE88E0FEF779FD52484B
:10275000FEF7F8FB28B1002050490968087011F015
:10276000DCFE4F48FEF7EEFB30B101204B49096813
:102770000870002011F0D1FE70E0FEF7B6FC46486C
:10278000FEF7E0FB28B1002044490968087011F009
:10279000C4FE4348FEF7D6FB28B100203F49096834
:1027A000087011F0BAFE3F48FEF7CCFB30B13E484E
:1027B0000078A0F101003D4981F828003C48FEF76F
:1027C000C1FB30B13B480078A0F10100374981F8E6
:1027D00024003948FEF7B6FB30B138480078A0F144
:1027E0000100324981F820003548FEF7ABFB30B1DB
:1027F00034480078A0F101002C4981F82C003248BF
:10280000FEF7A0FB30B12848007800F1010027490D
:1028100081F828002D48FEF795FB30B12548007857
:1028200000F10100214981F824002948FEF78AFBC4
:1028300030B12248007800F101001C4981F82000E5
:102840002448FEF77FFB30B11E48007800F10100FC
:10285000164981F82C0001E000E000BF00BF1CBD5C
:1028600010B500F039F802F020FB10BD2BC0072096
:102870002AC007209CC007202DC007202CC007209D
:10288000A6C00720D0C20720CEC00720B0C00720B6
:10289000BAC00720C4C0072042C00720C8C2072012
:1028A0004CC007206EC10720284002400040024073
:1028B00078C107202440024082C107202040024006
:1028C0008CC107202C40024096C10720A0C10720E0
:1028D000AAC10720B4C1072000B589B002208DF835
:1028E0001E0000208DF820008DF81F008DF81C00C0
:1028F00007208DF81D0007A801F0D2FF08208DF8F1
:102900001D0007A801F0CCFF09208DF81D0007A8C5
:1029100001F0C6FF00208DF81E008DF81C00062077
:102920008DF81D0007A801F0BBFF00208DF81E00E8
:1029300002208DF81C000D208DF81D0007A801F065
:10294000AFFF00224FF40051022002F00BF84FF4C9
:102950000051022002F01AF801224021002002F06A
:1029600001F84021002002F011F801A801F072FCEA
:10297000FE48069001A9FE4801F00BFC0121FC482D
:1029800001F073FC09B000BD70B50446FDF7A8FB6B
:10299000002507E00C2000BF0100A0F10102D0B229
:1029A000FAD16D1CA542F5D370BD10B5044600BF29
:1029B0001021EF4801F012FE0128F9D02146EC4821
:1029C00001F0BBFC00BF0421E94801F007FE00282C
:1029D000F9D0E74801F0C3FCC0B210BD70B50020CB
:1029E000FFF7E3FF05464FF6FF7000EA05240120DC
:1029F000FFF7CAFF0020FFF7D8FF05462C43E4107D
:102A0000C4F30B04204670BD10B54020D949C861FD
:102A10000120FFF7B9FF9020FFF7C7FF0120FFF764
:102A2000B3FFFFF7DBFF04464020D2498861204610
:102A300010BD10B54020CF49C8610120FFF7A4FFA9
:102A4000D020FFF7B2FF0120FFF79EFFFFF7C6FF80
:102A500004464020C7498861204610BD2DE9F04159
:102A600004460D46FFF7D0FF06460120FFF78CFF16
:102A7000FFF7DFFF074626602F60BDE8F08170B5E5
:102A800004460D464FF478422946204612F003FFD3
:102A9000611C88B24FF47842294612F0FCFE681C93
:102AA00081B24FF47842204612F0F5FE6A1C91B2D2
:102AB000621C90B24FF4784212F0EDFE70BDF8B592
:102AC00004460D464FF6FF70A11E8AB20D390090E4
:102AD00088B22B46294613F06AF94FF6FF7004F1CD
:102AE0000F018AB2A11C009088B22B46294613F030
:102AF0005EF94FF6FF700090A81E83B20D3881B2C8
:102B00002246204613F053F94FF6FF70009005F16E
:102B10000F0083B2A81C81B22246204613F047F969
:102B20004BF6F04005F10F06B3B2E61FB2B205F165
:102B30000F06B1B2A4F10F060090B0B213F037F94E
:102B40004BF6F04005F10F06B3B2A4F10F06B2B296
:102B5000EE1DB1B2A4F10F060090B0B213F027F948
:102B60004BF6F040A5F10F06B3B2E61FB2B2A5F1E5
:102B70000F06B1B2A4F10F060090B0B213F017F92E
:102B80004BF6F040A5F10F06B3B2A4F10F06B2B2B6
:102B9000EE1FB1B2A4F10F060090B0B213F007F926
:102BA0004BF6F04005F10F06B3B204F10F06B2B2D6
:102BB00005F10F06B1B2E61D0090B0B213F0F7F8C0
:102BC0004BF6F04005F10F06B3B204F10F06B2B2B6
:102BD000EE1DB1B204F10F060090B0B213F0E7F8A9
:102BE0004BF6F040A5F10F06B3B204F10F06B2B2F6
:102BF000A5F10F06B1B2E61D0090B0B213F0D7F800
:102C00004BF6F040EE1FB3B204F10F06B2B2A5F1DD
:102C10000F06B1B204F10F060090B0B213F0C7F87E
:102C2000F8BDF0B597B000274821684614F006F8C3
:102C300000BF15A916A8FFF711FF16984DF8270039
:102C400009A8159940F82710781CC7B24948406D6B
:102C500010F4005F01D1092FEBDB092F7ED1DDE9F4
:102C60000001084402990844032190FBF1F01290FE
:102C7000DDE90301084405990844032190FBF1F0C4
:102C80001390DDE90601084408990844032190FBEC
:102C9000F1F01490DDE91201441ADDE91301451A3F
:102CA00012991498461A002C01DD204600E060427B
:102CB0000446002D01DD284600E068420546002E4E
:102CC00001DD304600E070420646502C06DD502DF6
:102CD00004DD502E02DD002017B0F0BDAC4215DA45
:102CE000A64209DA149A1299881800EBD071C1F340
:102CF0004F01214A11801EE0DDE91212881800EB15
:102D0000D071C1F34F011C4A118014E0AE4209DAC0
:102D1000149A1299881800EBD071C1F34F01164A2A
:102D2000118008E0DDE91312881800EBD071C1F3BF
:102D30004F01114A1180DDE9091001440B98084444
:102D4000032190FBF1F01290DDE90C1001440E9884
:102D50000844032190FBF1F0139000E063E0DDE90B
:102D60000F10014411980844032107E020A1070037
:102D70000000034000C009206C00001090FBF1F03F
:102D80001490DDE91201441ADDE91301451A129984
:102D90001498461A002C01DD204600E060420446EB
:102DA000002D01DD284600E068420546002E01DDC9
:102DB000304600E070420646502C05DD502D03DD04
:102DC000502E01DD002087E7AC4215DAA64209DA71
:102DD000149A1299881800EBD071C1F34F01C24ABE
:102DE00051801EE0DDE91212881800EBD071C1F3AA
:102DF0004F01BD4A518014E0AE4209DA149A12998B
:102E0000881800EBD071C1F34F01B74A518008E038
:102E1000DDE91312881800EBD071C1F34F01B24AFB
:102E20005180B14858E7002056E72DE9F0470546A4
:102E30000C4616464FF0000921882289891AE3883A
:102E400062899A1A5143A2882389D31A67886289B2
:102E5000BA1A03FB121014F015FAC6E90C0100228D
:102E60001346D6E90C71384614F084FA02D14FF0BB
:102E7000010989E029882A89891AE38862899A1ACE
:102E80005143AA882B89D31A67886289BA1A03FB2F
:102E9000121014F0F7F9C6E9000121882289891A75
:102EA000AA882B89D21A51432A88D21AA388278943
:102EB000DB1B02FB131014F0E5F9C6E902012189BE
:102EC000AA885143A2882B8902FB131162885143BF
:102ED00022885A4323892F8803FB1723E28803FBA8
:102EE0000212A18879432388AF8803FB17136189F5
:102EF00003FB012014F0C6F9C6E904016A88698958
:102F0000511AE38862899A1A5143EB886A899B1A9D
:102F100067886289BA1A03FB121014F0B3F9C6E984
:102F2000060121882289891AEB886A899A1A5143F5
:102F30006B886A899A1AA3882789DB1B02FB131006
:102F400014F0A0F9C6E908012189EA885143A38851
:102F50006A8903FB12116288514322886B895A43A4
:102F600023896F8803FB1723E28803FB0213A188E0
:102F700079432788EA8807FB1212618902FB013036
:102F800014F080F9C6E90A014846BDE8F0872DE94A
:102F9000F04F8BB08246894614464FF0000B00225A
:102FA0001346D4E90C51284614F0E4F960D0B9F87E
:102FB000020014F078F90546D4E902733A4614F099
:102FC00072F8CDE90201B9F8000014F06CF9074677
:102FD000D4E900532A4614F066F8CDE90001DDE992
:102FE000022313F0B9FFCDE90401D4E904532A46C2
:102FF00013F0B2FFCDE90601D4E90C532A4614F0D0
:10300000C4F8CDE9080114F088F9AAF80000B9F86D
:10301000020014F048F90746D4E908532A4614F090
:1030200042F8CDE90201B9F8000014F03CF9074676
:10303000D4E906532A4614F036F8CDE90001DDE95B
:10304000022313F089FFCDE90401D4E90A532A468B
:1030500013F082FFCDE90601D4E90C532A4614F09F
:1030600094F8CDE9080114F058F9AAF8020001E03B
:103070004FF0010B58460BB0BDE8F08F38B5002477
:1030800027E0002011F049FA00204FF6FF7317A245
:103090000A210090084612F039FF1C48FFF774FC23
:1030A0001B4A02EB84025188194A32F82400FFF7C8
:1030B00006FD00BFFFF7B5FD0546002DFAD02888B4
:1030C000144921F82400688801EB84014880601CC1
:1030D000C4B2032CD5DB104A0E490D48FFF7A5FEFC
:1030E000002011F01AFA38BD6C000010546F75639F
:1030F000682063726F73736861697220746F2063F4
:10310000616C6962726174650000000020A10700B3
:1031100060000010FC000010280000102DE9F047AE
:10312000B1480068C0F3016003287CD1AF48006853
:1031300010F0030006D0012833D002285FD0032806
:103140002ED100E000BFA8480068C0F3074000F19E
:1031500001044FF00201A648D0F88800C0F30E0029
:1031600000F10100A1FB0001A24B4FF0000CA0FBFD
:10317000037901FB039100FB0C112246634638469C
:1031800013F012FD05469C480068C0B200F101042E
:1031900022464FF00003284613F006FD97490860C9
:1031A0005DE091480068C0F3074000F101044FF072
:1031B00002018F48D0F88800C0F30E0000F1010032
:1031C000A1FB00108E4A4FF0000CA1FB027900FB1E
:1031D000029001FB0C0122466346384613F0E4FCE2
:1031E000054685480068C0B200F1010422464FF050
:1031F0000003284613F0D8FC804908602FE07A4885
:103200000068C0F3074000F101044FF00201784864
:10321000D0F88800C0F30E0000F10100A1FB0012FD
:103220004FF4004000E01BE04FF00003A1FB0079E9
:1032300002FB009001FB03012246384613F0B4FC68
:1032400005466D480068C0B200F1010422464FF007
:103250000003284613F0A8FC6849086000BF2FE06F
:103260006248006810F0030006D0012810D0022840
:1032700019D0032823D100E000BF5F480068C0B226
:1032800000F101005B49B1FBF0F05C49086016E019
:1032900059480068C0B200F101005949B1FBF0F093
:1032A000564908600BE054480068C0B200F10100C4
:1032B0004FF40041B1FBF0F05049086000BF00BF7F
:1032C000BDE8F08720204F4908604948D0F8A001A8
:1032D00010F0200F05D000BF4A48006810F0400FE2
:1032E000FAD00320444908604FF000004049C1F87B
:1032F000A801454908604FF001003C490860434877
:10330000434908604FF0AA00424908604FF0550059
:1033100008604FF00100404908604FF0AA003D49A5
:1033200008604FF055003249C1F88C0000BF2E48AC
:10333000006810F0806FFAD00320374908604FF022
:10334000AA002B49C1F88C004FF0550031490860A4
:1033500000BF2548006800F04070B0F1407FF8D110
:1033600023202E4908604FF0AA002149C1F8AC0083
:103370004FF055002A4908604FF0010029490860C4
:103380004FF0AA00264908604FF055001849C1F8CF
:10339000AC0000BF2448006810F4806FFAD003200E
:1033A000204908604FF0AA001149C1F8AC004FF065
:1033B00055001B49086000BF1B48006800F44070BE
:1033C000B0F5407FF8D11948194908604FF0000066
:1033D0000749C1F8C8010846006820F4704040F46D
:1033E000804008607047000088C00F400CC10F404B
:1033F00000C00F4000093D0004C10F4074000010E0
:10340000001BB700A0C10F40ACC10F406300050016
:1034100084C00F408CC00F4080C00F40A4C00F403C
:10342000ACC00F40A0C00F40A8C00F40DE872804EA
:10343000C4C00F400420364909680870002035498F
:10344000096808603349096888603249096848603A
:1034500030490968C8612F490968C86000212D48B2
:103460000068816100202B49096808610021294812
:10347000006841612848294908602948486029486E
:1034800088602948C8600A20486100200874704795
:103490001CB5FFF7CFFF00F05DF800F083F800F0F7
:1034A0004DFBFCF715FF00F03DFCFFF7D9F9FDF7E8
:1034B00077F84FF408511848FCF722FF1B481C49C5
:1034C0005A230022CDE9001011460220FCF7D8FF54
:1034D0000020009003463222012101900620FCF7D3
:1034E000CFFF00F0D1FD00F0A1FC00F0E2F9FCF705
:1034F0000BFE12F04AFD12F05FFF13F046F90020B8
:1035000011F00BF800200249096808701CBD00008A
:10351000C8C20720C4C2072000004842CC000010E7
:10352000000020C100007A440000A0416F12033B5C
:103530006F12833A10B5002807DACA06140EBE4A85
:1035400000F00F031B1FD45403E0CA06130EBB4A3E
:10355000135410BD10B5BA4800680A21B0FBF1F051
:10356000401E4FF0E021486107200861B448006820
:103570000A21B0FBF1F4B4F1807F00D311E024F014
:103580007F40401E4FF0E02148611F214FF0FF3087
:10359000FFF7D0FF00204FF0E0218861072008618D
:1035A00000BF10BD10B5A748006840F44100A6490F
:1035B000C1F8C4000846D0F8C40040F00200A14998
:1035C00008604FF003004FF0402148614FF00000C9
:1035D000C8600846406840F0010048609B48886128
:1035E0004FF001010846FFF7A5FF012001218140AE
:1035F00042094FF0E02303EB8202C2F8001100BF42
:1036000010BD1CB519F082FB9148406900EB8000A9
:10361000400090490988884205D98E480088401C9E
:103620008C4908800FE08C48007860B100208B49FD
:1036300008708949087000900346012211460190E4
:103640000620FCF71DFF1CBD2DE9F0414FF0402086
:1036500000684FF04021086081480078052190FB08
:10366000F1F201FB1207384613F0FEFD06464FF05B
:103670007E5113F0FBFB05464FF07C5113F02CFC00
:103680000446002113F0A6FE35D17648806A40F04A
:103690000500744988620846806A40F030008862FC
:1036A00000F0C7F913F002F96F4800680078C0F322
:1036B000400078B96D48007860B100206C49096815
:1036C000C86169480068007820F00100401C664924
:1036D0000968087064480068007820F002006249B8
:1036E0000968087060480068407820F00100401CBC
:1036F0005D4909684870BDE8F08170B5002013F09D
:10370000B3FD05464FF07C5113F0E6FB0446002163
:1037100013F060FE22D1544800680078C0F3C00066
:10372000E0B152480078C8B14648006840F4805083
:103730004549C1F8C4004C480068007820F00800F2
:103740004949096808704B48006820F0C060494941
:1037500008600846006840F48030086070BD2DE9BC
:10376000FC41FFF771FFFFF7C8FF3D480078401CA0
:103770003B4908703648007C18BB354A51681068D0
:1037800013F06EFB0746324A5168394A12681068D6
:1037900013F066FB8046384913F068FB064639464D
:1037A00013F09AFB054613F0A4FDC4B23348344924
:1037B00023460022CDE9001011460220FCF760FEEE
:1037C00022E0234AD168906813F04AFB0746204A5A
:1037D000D168274A1268506813F042FB8046264998
:1037E00013F044FB0646394613F076FB054613F00A
:1037F00080FDC4B22148224923460022CDE90010B1
:1038000011460220FCF73CFEBDE8FC8110B51548CE
:103810000068C4B214F0100F01D0FCF7BFFC14F024
:10382000020F01D000F046FB0E4800680D49086009
:1038300010BD70477047000018ED00E000E400E0A4
:1038400074000010C4C00F4000C00F401FBCBE0079
:10385000CC000010E0C207202CC007202DC007209C
:10386000D8C2072000800040D0C20720800000108E
:10387000C4C2072000400340000034436F12033BE2
:103880006F12833AA44988680221A34A516001213A
:1038900051607047A148006840F40000A049C1F899
:1038A000C4004FF000009C4908674FF01800C86042
:1038B000704700B5FFF7EEFFFFF7E4FF00BD30B53E
:1038C00000250023002448E0FFF7DCFF00BF9548F7
:1038D000406BC0F3C04018B98F4880686428F6D3A5
:1038E000FFF7D0FF0346904801680068401C8E4AED
:1038F00010608E4840F82130282B01D3432B01D98A
:10390000002030BD0023FFF7BDFF00BF8548406B9E
:10391000C0F3C04018B1804880686428F6D3FFF730
:10392000B1FF0346804801680068401C7E4A106071
:103930007E4840F821303C2B08D9502B06D2C4F1E8
:103940000701012088402843C5B205E00A2B01D3B6
:10395000642B01D90020D4E7641C082CB4DB284672
:10396000CFE700B50023FFF78DFF00BF6D48406B28
:10397000C0F3C04018B1684880682D28F6D3FFF71F
:1039800081FF0346684801680068401C664A106071
:10399000664840F82130052B01D32D2B01D9012099
:1039A00000BDFFF76FFF00BF5E48406BC0F3C04033
:1039B00018B9594880686428F6D3FFF763FF0346B7
:1039C000594801680068401C574A1060574840F841
:1039D0002130462B01D35A2B01D90120E0E7FFF714
:1039E00051FF00BF4F48406BC0F3C04018B14A4878
:1039F00080686428F6D3FFF745FF03464A4801680C
:103A00000068401C484A1060484840F82130462B66
:103A100001D35A2B01D90120C2E70020C0E700B52D
:103A20000346FFF72FFF00BF3B4880689842FBD357
:103A300000BD2DE9F84F00200090002482463A494D
:103A400008603B4908703748006A40F40020354957
:103A500008624FF40020C86344F25060FFF7DFFFB4
:103A60003048006A20F400202E490862FFF779FFF1
:103A700008B1BDE8F88F4FF0000908E0FFF71FFF1D
:103A8000C9F10301C9008840044309F10109B9F1F2
:103A9000040FF3DBFFF713FF8246200E8DF80000C2
:103AA000200C8DF80100200A8DF80200E0B28DF89C
:103AB00003009DF800009DF8011008449DF80210D5
:103AC00008449DF803100844194908700846007816
:103AD00050451ED14FF6FF7101EA144013F0E3FB8D
:103AE00007460022134B13F050FB054613F056FC1B
:103AF000114909688860A0B213F0D5FB074600227F
:103B00000C4B13F042FB054613F048FC0A490968C8
:103B1000086000BFADE7000000400940C4C00F408E
:103B200000C00F4000C009207800001008010010FC
:103B30007C00001000002440C4C2072067480068D1
:103B400040F480506649C1F8C4006648406840F4BB
:103B50008030644948600846406C20F44030486436
:103B600061480068614940EA01005F490860084611
:103B7000C06840F00200C8605D480068007820F02E
:103B8000080000F108005A49096808705648C068E2
:103B900020F480705449C8604FF016004FF00101C6
:103BA00001FA00F14FEA50124FF0E02303EB8202DA
:103BB000C2F8001100BF70472DE9FC5F4D48007846
:103BC000002865D0012862D14748006820F4803081
:103BD000454908604969C1F30B1013F04EFB464993
:103BE000086046494448006813F076F94249086085
:103BF0000846006813F0AAFB06460022404B13F06B
:103C00004FFA04460D463C48006813F09FFB0646F9
:103C100000223C4B13F047FA804622462B4613F015
:103C2000B4FA824613F0BAFB3349086000200090D2
:103C30000346019034480268203203212E48006870
:103C400000F062F928498969C1F30B1013F015FBE4
:103C50002E4908600846006813F078FB8046002271
:103C60002B4B13F020FA064600222A4B13F08DFA54
:103C7000044613F093FB24490968C8601C48006897
:103C8000007820F00800083019490968087022E01F
:103C900015480069C0F307201F49204A126888545C
:103CA0001E4801680068401C1C4A106045F6BF5061
:103CB00081420FD3002011460860194948610C4821
:103CC0000068007820F08000803009490968087099
:103CD00000F081F800BF00BFBDE8FC9FC4C00F40EA
:103CE00000C00F4000C002400040034002FF21001E
:103CF000D0C2072080000010E4C2072000F07F45FA
:103D00000000F03F00805140C4C20720E8C20720F5
:103D10000080404000FEAF4028040010ECC20720A5
:103D2000008000403A48406840F48040384948608C
:103D300040F622003749886102204860012048602F
:103D40000020486101200121814042094FF0E02319
:103D500003EB8202C2F8001100BF704700202E4919
:103D6000087001202D4908702D4800682D49086011
:103D70002B48C0682C49086001202949C8600846C2
:103D8000006820F0FF0008600846006840F001006D
:103D900008600846006820F47F4008600846006814
:103DA00040F4807008600846006820F480300860A5
:103DB0000846006820F0E06008600846006840F0AF
:103DC000C0600860022013494861486001204860D3
:103DD0003120C863704711480078012816D1114876
:103DE00000680F49086010480068C860084600680D
:103DF00020F0E06008600846006840F47F400860FA
:103E0000012005490870002004490870704700002F
:103E100000C002400080004080000010D9C207208E
:103E20000040034084000010880000102F484068C4
:103E300040F400102D49486040F622002C490881CA
:103E40000E2048602B480068007820F08000803009
:103E500028490968087070470A2905DDA1F10A029E
:103E600000FA02F290B200E00841214A12684FF6CF
:103E7000C0739A431E4B1A601A4612684FF480337F
:103E800043EA80131A431A4B1A6070471A480068B5
:103E900040F001001949C1F810014FF0180018490D
:103EA00048611848C8614FF0020048604FF00100B7
:103EB000486070471048006820F001000F49C1F8C1
:103EC00010010C480068007820F0800000F18000AC
:103ED0000849096808700A48406920F03800084914
:103EE00048614FF0000002490860704700C002407E
:103EF00000C00840D0C207201041005000400050D0
:103F0000008000403FA5AE022DE9FC5F81468A4655
:103F100014469B46BAF1000F09D0BAF1010F24D024
:103F2000BAF1020F3DD0BAF1030F57D13CE04A4934
:103F3000087813F0A2F94FF07E510190484612F034
:103F40008FFF8046454912F0C7FF0746019912F0DE
:103F50008DFF064613F0CDF9C0B2401C3E490D5C02
:103F6000284613F08AF9206039E03D49087813F0BB
:103F700084F907464FF07E51484612F071FF8046A3
:103F8000364912F0A9FF0646394612F06FFF054682
:103F900013F0AFF9C0B2401C3149085C8BF8000047
:103FA0001DE0C4F800901AE0484613F0CFF92D4AFE
:103FB0002D4BCDE9000113F076F807462B4A2C4B28
:103FC00012F0CAFF054613F0E9F9206000212068CD
:103FD00013F000FA01D20020206000BF00BF00BF34
:103FE000BDE8FC9F2DE9F04788B04FF0000A2CE0B7
:103FF000504613F047F980461E4A1F4B13F053F802
:1040000000224FF08043CDE9000113F0BEF80022FA
:104010001A4BCDE9020113F046F8064617F018FED8
:104020000022174BCDE9040113F03DF804460022AD
:10403000134B12F091FFCDE9060113F06EF911490F
:10404000096801F80A000AF1010A45F6C0508245E4
:10405000CEDB08B0BDE8F0879A0000100000C64231
:104060008C0000100BB5A679C729F0BFA835CD3B51
:104070004E8159407A008BFCFA2119400070C740EC
:1040800000C05F40280400101748006840F000504E
:104090001649C1F8C4004FF00100154908634FF0FC
:1040A00040004863134800681349096808601349D1
:1040B000086013481049096848600D49C1F80401B7
:1040C0000D4800680C49096888600E4908600E4870
:1040D00001F10401086008490968C8604FF41C60D8
:1040E0000A49086070470000C4C00F4000C00F407C
:1040F0000040005028040010F0C20720004100508A
:1041000020C0084008410050C05D0004104100502C
:104110002DE9F04704468846FB48844202D0FB481C
:10412000844200D103E04321F9A000F087FEF64865
:10413000844204D12A2000F01EFE074609E0F3481D
:10414000844204D1142000F016FE074601E0BDE8C9
:10415000F08700254FF0FF3902260AE0681C704303
:10416000B7FBF0F9C14504D96D1CFF2D01D900251D
:10417000B61CC145F2D82068C0B2206020684FF656
:10418000FF7101EA052108432060F0B2206100BF01
:10419000DDE770B504460D46DB48844202D0DB48BB
:1041A000844200D103E08121D9A000F047FED64827
:1041B000844204D10121480500F0FAFD08E0D3480B
:1041C000844204D10121001500F0F2FD00E070BD31
:1041D000A88829890843298A08432988084386B280
:1041E0002660287B00F00F06666020466969FFF7AD
:1041F0008FFF00BFEBE710B50446C348844202D0EE
:10420000C248844200D103E0A821C1A000F016FEFC
:10421000BD48844205D100214FF4001000F0C8FDD4
:1042200006E0BA48844203D10021001500F0C0FD29
:1042300010BD10B50446B448844202D0B34884424D
:1042400000D103E0C021B2A000F0F8FD206800F02A
:104250000F0010BD002141608160B7494161072115
:1042600001600021C1600161704770B504460D46D0
:10427000A548844202D0A548844200D103E0E5214C
:10428000A3A000F0DBFD0DB1012D00D103E0E6217C
:104290009FA000F0D3FD012D04D1606840F0020022
:1042A000606003E0606800F00D00606070BD70B594
:1042B00004460D469448844202D09448844200D17A
:1042C00003E0FE2192A000F0B9FD0DB1012D00D157
:1042D00003E0FF218EA000F0B1FD012D04D1606844
:1042E00040F00100606003E0606800F00E00606074
:1042F00070BD70B504460D468348844202D08348A1
:10430000844200D104E04FF48D7181A000F096FD4D
:104310000DB1012D00D104E040F21B117CA000F092
:104320008DFD012D04D1606800F00700606003E09E
:10433000606840F00800606070BD70B504460D46CE
:104340007148844202D07148844200D104E04FF4A5
:104350009A716FA000F072FDA8B2A06070BD10B598
:1043600004466948844202D06848844200D104E08F
:104370004FF4A27166A000F061FDA06880B210BD8C
:104380002DE9F74F82B006460C460020E0606060E1
:10439000606103E03046FFF7E2FF0746F06810F087
:1043A000040FF7D1032030623046FFF742FF0828A0
:1043B00001DD012500E00025049800287AD125B907
:1043C000D4F80890D4F800A003E0D4F808B020682E
:1043D000019060E0F06810F0020F2ED02169606853
:1043E00088422AD0206888B93DB9FF213046FFF7BE
:1043F000A4FF6068401C60601FE04FF6FF7130460C
:10440000FFF79BFF6068801C606016E055B99AF862
:1044100000103046FFF791FF0AF1010A6068401C66
:1044200060600AE0019801883046FFF786FF019836
:10443000801C01906068801C6060D6F8188018F0BD
:10444000010F07D048F4007060614FF0FF3005B0F5
:10445000BDE8F08F17E03046FFF781FF0746A06800
:1044600048B125B989F8007009F1010903E0ABF8FA
:1044700000700BF1020B1DB9E068401CE06002E027
:10448000E068801CE060F06810F0040F03D0D4E90D
:1044900003018842DFD12169606888429AD1D4E95A
:1044A0000301884296D14FF480706061206810B19A
:1044B0006068CCE705E0A06808B1E068C7E70020C5
:1044C000C5E7049801287DD16BE0206888B93DB923
:1044D000FF213046FFF731FF6068401C606036E026
:1044E0004FF6FF713046FFF728FF6068801C606060
:1044F0002DE01DBBD4E90002815C3046FFF71DFFB3
:104500006068401C606022E00080084000000340BA
:104510002E2E5C4D656E755C4669726D77617265B5
:104520005C736F757263655C6C7063313778785F4C
:104530007373702E6300000040420F00D4E9000244
:10454000815A3046FFF7F9FE6068801C6060D6F83B
:10455000188018F0010F05D048F4007060614FF02A
:10456000FF3074E715E03046FFF7F9FE0746A06814
:1045700038B11DB9D4E902128F5402E0D4E9021215
:104580008F521DB9E068401CE06002E0E068801CCA
:10459000E060F06810F0040F03D0D4E90301884212
:1045A000E1D1F06810F0020F03D021696068884201
:1045B0008BD1D4E90301884203D121696068884224
:1045C00004D000E007E00F20706102E04FF480703B
:1045D000606100203BE74FF0FF3038E770B50546DB
:1045E0000C467748854202D07648854200D105E0E6
:1045F0004FF40571AFF2E80000F020FC012C07D069
:10460000022C05D0042C03D0082C01D0102C00D192
:1046100005E040F21521AFF2081000F00FFCE86849
:10462000204201D0012070BD0020FCE770B5044697
:104630000D4616466248844202D06248844200D148
:1046400005E04FF40B71AFF2381000F0F7FB012ECC
:1046500003D160692843606104E060690F21A943C8
:104660000840606170BD70B505460C4654488542EF
:1046700002D05448854200D105E040F24921AFF212
:10468000701000F0DBFB012C05D0022C03D0042CB1
:1046900001D0082C00D105E040F24A21AFF2901081
:1046A00000F0CCFBA869204201D0012070BD0020A1
:1046B000FCE710B504464248844202D04148844297
:1046C00000D105E04FF41671AFF2BC1000F0B6FB5C
:1046D000A06910BD70B505460C463948854202D028
:1046E0003848854200D105E040F26D21AFF2E0107C
:1046F00000F0A4FB012C05D0022C03D0042C01D027
:10470000082C00D105E040F26E21AFF2FC1000F061
:1047100095FBE869204201D0012070BD0020FCE734
:1047200070B504460D462648844202D0254884428E
:1047300000D105E040F28121AFF22C2000F07EFB99
:10474000012D01D0022D00D105E040F28221AFF20F
:10475000402000F073FB256270BD70B504460D4625
:1047600016461748844202D01648844200D105E01C
:1047700040F29721AFF2682000F060FB022D01D0DB
:10478000012D00D105E04FF42671AFF27C2000F03E
:1047900055FB0EB1012E00D105E040F29921AFF298
:1047A000902000F04BFB012E03D1606A2843606229
:1047B00004E0606A0321A9430840606270BD000004
:1047C0000080084000000340F0B504460B46154643
:1047D000194660003B4A102901D31039401C52F899
:1047E00020604FEA410C032707FA0CF7BE4342F85A
:1047F000206052F820604F0005FA07F73E4342F868
:104800002060F0BDF0B504460B4615461946600021
:104810002C4A4032102901D31039401C52F8206034
:104820004FEA410C032707FA0CF7BE4342F8206019
:1048300052F820604F0005FA07F73E4342F8206027
:10484000F0BD30B50B461F496831012A07D151F838
:10485000204001259D402C4341F8204006E051F8BE
:10486000204001259D40AC4341F8204030BD012847
:1048700006D11449896A41F00801124A916206E0A2
:1048800028B91049896A21F008010E4A91627047DF
:10489000012800D1052201B90A220A4BDA677047C4
:1048A00010B50446A27861782078FFF78DFFE27892
:1048B00061782078FFF7A6FF227961782078FFF7EA
:1048C000C0FF10BD00C0024001460020052912D2E1
:1048D000DFE801F00305080B0E00F8480CE0F7488C
:1048E000203009E0F548403006E0F448603003E04D
:1048F000F248803000E000BF00BF70470146002052
:10490000052912D2DFE801F00305080B0E00EB4881
:104910000CE0EA48203009E0E848403006E0E7488B
:10492000603003E0E548803000E000BF00BF704722
:1049300001460020052912D2DFE801F00305080B2B
:104940000E00DE480CE0DD48203009E0DB48403056
:1049500006E0DA48603003E0D848803000E000BF6D
:1049600000BF70472DE9F04107460D461646384610
:10497000FFF7AAFF04463CB11EB12068284320601F
:1049800002E02068A8432060BDE8F08170B50646CB
:104990000C463046FFF798FF054605B1AC6170BD87
:1049A00070B506460C463046FFF78EFF054605B14A
:1049B000EC6170BD70B505462846FFF785FF0446DB
:1049C0000CB1606970BD0020FCE718B912B9BC4B8E
:1049D000196014E0022803D112B9BA4B19600EE035
:1049E00020B9012A02D1B84B196008E0022804D18D
:1049F000012A02D1B54B196001E000BFFEE7704704
:104A000003463BB932B9B248006820FA01F000F021
:104A100001007047022B07D132B9AE48006820FA76
:104A200001F000F00100F4E743B9012A06D1AA48D9
:104A3000006820FA01F000F00100EAE7022B08D13B
:104A4000012A06D1A548006820FA01F000F0010013
:104A5000DFE700BFFEE710B9A14A116006E00228B7
:104A600002D1A04A116001E000BFFEE7704770B5B7
:104A700004460D461646324629462046FFF772FF89
:104A800070BD70B504460D4629462046FFF77EFFEF
:104A900070BD70B504460D4629462046FFF780FFDD
:104AA00070BD10B504462046FFF784FF10BD70B5F9
:104AB00004460D461646324629462046FFF785FF36
:104AC00070BD70B504460D4616463246294620464E
:104AD000FFF796FF70BD10B503460C4621461846F9
:104AE000FFF7B9FF10BD2DE9F04107460D46164608
:104AF0003846FFF7E9FE04463CB11EB12069284361
:104B0000206102E02069A8432061BDE8F0812DE921
:104B1000F04180460E4615461F464046FFF7EEFE22
:104B200004468CB147B11EB16088284360800BE019
:104B300020882843208007E01EB16088A843608059
:104B400002E02088A8432080BDE8F0812DE9F041F3
:104B500080460E4615461F464046FFF7CFFE0446E8
:104B60008CB147B11EB1608A284360820BE0208A75
:104B70002843208207E01EB1608AA843608202E0D9
:104B8000208AA8432082BDE8F0812DE9F041074644
:104B90000E4614463846FFF7B1FE05461DB10EB16C
:104BA0006C8300E02C83BDE8F0812DE9F0410746DD
:104BB0000E4614463846FFF7A1FE05461DB10EB15C
:104BC000EC8300E0AC83BDE8F08170B506460D468D
:104BD0003046FFF793FE044624B10DB1E08A70BD64
:104BE000A08AFCE70020FAE72DE9F04180460C4658
:104BF00016461F464046FFF79BFE05465DB12FB1A6
:104C0000032C08DC285D3043285504E0032C02DC2B
:104C1000285DB0432855BDE8F0812DE9F04180467C
:104C20000C4616461F464046FFF782FE05469DB1DC
:104C30004FB1032C10DC05F11000005D304305F18D
:104C40001001085508E0032C06DC05F11000005D9A
:104C5000B04305F110010855BDE8F0812DE9F041A0
:104C600007460C4615463846FFF762FE064626B153
:104C7000032C02DC06F118000555BDE8F0812DE992
:104C8000F04107460C4615463846FFF751FE0646EA
:104C900026B1032C02DC06F11C000555BDE8F081AD
:104CA00070B506460C463046FFF742FE0546DDB1BC
:104CB000032C19DC05F11400005D70BD00C0092053
:104CC00090800240B080024094800240B480024054
:104CD00084800240A480024088800240A880024074
:104CE0008C800240AC8002400020E6E710B50A4606
:104CF000202801D2034601E0A0F120031946202814
:104D000014D2464B1B684FF0030404FA01F423EA63
:104D10000403434CC4F8A831404B1B6802FA01F469
:104D200043EA04033E4CC4F8A83113E03D4B1B6832
:104D30004FF0030404FA01F423EA0403384CC4F8E6
:104D4000AC31384B1B6802FA01F443EA0403344CDB
:104D5000C4F8AC3110BD0146202903D20A462F4BBE
:104D6000186803E0A1F120022E4B186820FA02F324
:104D700003F00300704770B506462B4804683046C0
:104D8000FFF7E9FF054635B1012D06D0022D06D00B
:104D9000032D08D105E0042505E0012503E00225E7
:104DA00001E0082500BF00BFB4FBF5F4204670BD4C
:104DB00001290AD11D4A12681D4B00EA030342EA89
:104DC0000302174BC3F8C4200AE049B9174A126816
:104DD000174B23EA000302EA0302114BC3F8C42075
:104DE000704700201349086030BF70470420124903
:104DF000086008200F49086030BF704704200E4942
:104E0000086009200B49086030BF704704200A4938
:104E1000086003200749086030BF7047A8C10F40F1
:104E200000C00F40ACC10F4074000010C4C00F4060
:104E3000DEF7EFEFC0C00F4010ED00E000BFFEE76F
:104E400070B505460C46A4F12000044A02EB00119F
:104E50001022284611F0D9FE70BD000064D6010072
:104E6000FE48006C40F0FF00FC49086408460068FA
:104E700040F4FF0008600846006A40F06050086295
:104E80000846006C40F4807008647047002109E017
:104E9000002201E0531C9AB240F275439A42F9DBBA
:104EA0004B1C99B28142F3DB704700B587B0FFF726
:104EB000D7FF6420FFF7EAFF0020059005980390D4
:104EC0004FF48070E549C865C004C86380008863FA
:104ED00003980290029801900198496D60F30701D0
:104EE000DE484165406920F4FF024FF4FF0101985C
:104EF00001EAC0100243D948426100BF4FF0805020
:104F0000D649C86300BF4FF08050D449886300156C
:104F1000886500BF00BFC865C0048863400088631F
:104F20004000C86300BF0846006C20F0FF00086422
:104F30000846006820F4FF0008600846406DC1B2D2
:104F40000291C648406900F4FF010191DDE90101C9
:104F500041EAD0110291C148006C40F0FF00BF4906
:104F600008640846006840F4FF01BC4801600298EC
:104F700003904FF00050B94988634115B7488165E7
:104F800003980490049806900698A0F513412539DB
:104F900005D00698A0F51341283942F0A7820120D8
:104FA000AF490870B1200490A520059004980390A3
:104FB0004FF48070A949C865C004C8638100A74840
:104FC00081630398029002980190A4490198496D69
:104FD00060F30701A1484165406920F4FF014FF4E7
:104FE000FF02019802EAC01001439C48416100BFE2
:104FF0004FF08051C16300BF4FF0805197488163EB
:1050000040159649886500BF059803904815C86506
:10501000C004886303980290029801900198496D3A
:1050200060F307018D484165406920F4FF024FF4A9
:10503000FF01019801EAC01002438848426100BFA5
:105040004FF080508549C86300BF4FF080508349BE
:10505000886301158148816500BF00BFB1200590BC
:105060000598039008467D49C865C004C863800060
:10507000886303980290029801900198496D60F34B
:10508000070176484165406920F4FF024FF4FF01B3
:10509000019801EAC01002437048426100BF4FF01E
:1050A00080506E49C86300BF4FF080516B488163E8
:1050B0004115816500BF00BF40156849C865C1043E
:1050C000664881634800654988634000C86300BF43
:1050D0000846006C20F0FF0008640846006820F4D1
:1050E000FF0008600846406DC0B202900846406963
:1050F00000F4FF000190DDE9011040EAD1100290B8
:105100005648006C40F0FF005449086408460068A7
:1051100040F4FF000860029803904FF0005088634D
:105120004015886503980490049806900698A52871
:105130005ED103204A490870B120049000200590F8
:10514000049803904FF480704449C865C004C86354
:105150008000886303980290029801900198496D3D
:1051600060F307013D484165406920F4FF024FF4B8
:10517000FF01019801EAC01002433848426100BFB4
:105180004FF080503549C86300BF4FF0805133481D
:10519000816340153149886500BF05980390481523
:1051A000C865C00488630398029002980190019832
:1051B000496D60F3070129484165406920F4FF010A
:1051C0004FF4FF02019802EAC010014323484161F5
:1051D00000BF4FF080502149C86300BF4FF080509E
:1051E0001E49886301151D48816500BF00BF02E0AC
:1051F00002201B490870E520049047F6F000059056
:10520000049803904FF480701449C865C104134892
:10521000C163880011498863039802900298019045
:105220000198496D60F307010C484165406920F41D
:10523000FF024FF4FF01019801EAC0100243074842
:10524000426100BF4FF080500449C86300BF4FF077
:105250008050024988630015886503E000C009207A
:10526000B000001000BF059803904815C865C00441
:10527000886303980290029801900198496D60F349
:105280000701FE484165406920F4FF024FF4FF0129
:10529000019801EAC0100243F848426100BF4FF094
:1052A0008050F649C86300BF4FF08050F3498863CF
:1052B0000015886500BF00BF012004900002059022
:1052C000049803904815C865C004C86380008863CB
:1052D00003980290029801900198496D60F30701CC
:1052E000E6484165406920F4FF024FF4FF01019850
:1052F00001EAC0100243E148426100BF4FF0805014
:10530000DE49C86300BF4FF08050DC498863001558
:10531000886500BF059803904815C865C004886378
:1053200003980290029801900198496D60F307017B
:10533000D2484165406920F4FF024FF4FF01019813
:1053400001EAC0100243CD48426100BF4FF08050D7
:10535000CA49C86300BF4FF08050C8498863001530
:10536000886500BF00BF022004904FF4E060059004
:10537000049803904815C865C004C863800088631A
:1053800003980290029801900198496D60F307011B
:10539000BA484165406920F4FF014FF4FF020198CB
:1053A00002EAC0100143B548416100BF4FF0805090
:1053B000B249C86300BF4FF08050B04988630115FF
:1053C000AE48816500BF059803900846AB49C865A3
:1053D000C004886303980290029801900198496D77
:1053E00060F30701A5484165406920F4FF024FF4CE
:1053F000FF01019801EAC0100243A048426100BFCA
:105400004FF080509D49C86300BF4FF080519B48CA
:10541000816340159949886500BF00BF032004904F
:1054200041F230000590049803904815C865C00407
:10543000C8638000886303980290029801900198E5
:10544000496D60F307018D484165406920F4FF0113
:105450004FF4FF02019802EAC010014387484161FE
:1054600000BF4FF080508549C86300BF4FF08050A7
:105470008249886301158148816500BF05980390C2
:1054800008467E49C865C004886303980290029864
:1054900001900198496D60F30701784841654069C2
:1054A00020F4FF014FF4FF02019802EAC01001430B
:1054B0007248416100BF4FF080507049C86300BF1F
:1054C0004FF080506D4988630015886500BF00BFAC
:1054D0000420049000200590049803904815C865A6
:1054E000C004C8638000886303980290029801900A
:1054F0000198496D60F3070160484165406920F4F7
:10550000FF024FF4FF01019801EAC01002435B481B
:10551000426100BF4FF080505849C86300BF4FF050
:105520008050564988630015886500BF0598039030
:105530004815C865C00488630398029002980190DA
:105540000198496D60F307014C484165406920F4BA
:10555000FF024FF4FF01019801EAC01002434748DF
:10556000426100BF4FF080504449C86300BF4FF014
:1055700080514248816340154049886500BF00BFA3
:105580000820049040F207200590049803904815E5
:10559000C865C004C86380008863039802900298BD
:1055A00001900198496D60F30701344841654069F5
:1055B00020F4FF024FF4FF01019801EAC0100243FA
:1055C0002E48426100BF4FF080502C49C86300BF95
:1055D0004FF080502949886301152848816500BF34
:1055E0000598039008462549C865C0048863039858
:1055F0000290029801900198496D60F307011F48DD
:105600004165406920F4FF024FF4FF01019801EA6F
:10561000C01002431948426100BF4FF08051C1637E
:1056200000BF4FF0805115488163401513498865CC
:1056300000BF00BF0920049000200590049803904B
:1056400049150E48C165C8040C49C86380008863C9
:1056500003980290029801900198496D60F3070148
:1056600006484165406920F4FF024FF4FF010198AC
:1056700001EAC01002430148426101E000C0092074
:1056800000BF4FF08050FE49C86300BF4FF080500C
:10569000FB4988630015886500BF0598039048158D
:1056A000C865C0048863039802900298019001982D
:1056B000496D60F30701F2484165406920F4FF023B
:1056C0004FF4FF01019801EAC0100243EC48426127
:1056D00000BF4FF08050EA49C86300BF4FF08050D0
:1056E000E74988630015886500BF00BF0A20049061
:1056F00000200590049803904815C865C004C8634D
:105700008000886303980290029801900198496D87
:1057100060F30701DA484165406920F4FF024FF465
:10572000FF01019801EAC0100243D548426100BF61
:105730004FF08051C16300BF4FF08050D049886363
:105740000015886500BF059803904815C865C0041A
:10575000886303980290029801900198496D60F364
:105760000701C7484165406920F4FF014FF4FF027B
:10577000019802EAC0100143C148416100BF4FF0E7
:105780008050BF49C86300BF4FF08051BC4881635F
:105790004015BB49886500BF00BF0C200490002065
:1057A0000590049803904815C865C004C86380003C
:1057B000886303980290029801900198496D60F304
:1057C0000701AF484165406920F4FF024FF4FF0133
:1057D000019801EAC0100243A948426100BF4FF09E
:1057E0008051C16300BF4FF08050A5498863011507
:1057F000A348816500BF059803900846A049C86585
:10580000C004886303980290029801900198496D42
:1058100060F307019A484165406920F4FF024FF4A4
:10582000FF01019801EAC01002439548426100BFA0
:105830004FF080509249C86300BF4FF080519048AC
:10584000816340158E49886500BF00BF0D2004901C
:1058500000200590049803904815C865C004C863EB
:105860008000886303980290029801900198496D26
:1058700060F3070182484165406920F4FF024FF45C
:10588000FF01019801EAC01002437D48426100BF58
:105890004FF080507A49C86300BF4FF0805078497C
:1058A00088630015886500BF059803904815C86592
:1058B000C004886303980290029801900198496D92
:1058C00060F307016E484165406920F4FF024FF420
:1058D000FF01019801EAC01002436948426100BF1C
:1058E0004FF080506649C86300BF4FF08050644954
:1058F00088630015886500BF00BF0F20049000205A
:105900000590049803904815C865C004C8638000DA
:10591000886303980290029801900198496D60F3A2
:10592000070157484165406920F4FF024FF4FF0129
:10593000019801EAC01002435148426100BF4FF094
:1059400080504F49C86300BF4FF080504C49886376
:105950000015886500BF059803904815C865C00408
:10596000886303980290029801900198496D60F352
:10597000070143484165406920F4FF024FF4FF01ED
:10598000019801EAC01002433D48426100BF4FF058
:1059900080503B49C86300BF4FF08050384988634E
:1059A0000015886500BF00BF1020049000200590FE
:1059B000049803904815C865C004C8638100304846
:1059C000816303980290029801902D490198496DD6
:1059D00060F307012A484165406920F4FF014FF454
:1059E000FF02019802EAC01001432548416100BF4F
:1059F0004FF080502249C86300BF4FF080502049CB
:105A000088630015886500BF059803904815C86530
:105A1000C004886303980290029801900198496D30
:105A200060F3070116484165406920F4FF014FF417
:105A3000FF02019802EAC01001431148416100BF12
:105A40004FF080500E49C86300BF4FF080500C49A2
:105A500088630015886500BF00BF112004900720EF
:105A60000590049803904815C865C004C863810078
:105A7000034881630398029002980190004901E075
:105A800000C009200198496D60F30701FE48416597
:105A9000406920F4FF024FF4FF01019801EAC010B1
:105AA0000243F948426100BF4FF08050F649C86395
:105AB00000BF4FF08050F44988630015886500BF2F
:105AC000059803904815C865C00488630398029040
:105AD000029801900198496D60F30701EA48416519
