:020000040000FA
:1000000058240820AD020000B5020000B70200002D
:10001000B9020000BB020000BD02000000000000A9
:10002000000000000000000000000000BF0200000F
:10003000C102000000000000C3020000873600007B
:10004000C7020000E5370000E93800000F39000062
:1000500011390000AF620100C7020000C7020000B2
:100060009D650100C7020000C7020000C702000032
:10007000C7020000C7020000C7020000C70200005C
:10008000C702000039060000C7020000C7020000D6
:10009000C7020000C7020000913C0000C702000038
:1000A000C7020000C7020000C7020000C70200002C
:1000B0007F0E0000C7020000C7020000C702000058
:1000C000C7020000C7020000C7020000DFF80CD022
:1000D00017F088FB004800479D02000058240820C4
:1000E000AA204107087255200872704700B50548DC
:1000F000410648600120086103200870FFF7F0FF07
:1001000000BD0000A0ACB9035448C06C5349C8649A
:100110000846C06CC8640846C06820F03000C8605B
:100120000846C06840F03000C8604D48006F4C4938
:1001300008670846806A40F0050088624948006800
:1001400040F004004849C1F8C4004FF000004449A1
:10015000C8600846406840F00200486008464068B1
:1001600020F0020048600846406840F00100486006
:100170003A48C06840F030003849C8604FF002008B
:100180004FF0010101FA00F14FEA50124FF0E02365
:1001900003EB8202C2F8001100BF704770B5002463
:1001A00000E0641C47F230508442FADB10202C49F6
:1001B00008602E480078401C2C49087008460078DA
:1001C00002284ADB2A480068294948602448C06A56
:1001D000086000202549087025490968244A5268AA
:1001E000881A17F0B6F80646224916F0ABFE054607
:1001F0002946214816F0DCFE204908602048007896
:10020000401C1F4908700846007804281FD1144874
:10021000806A60F004001249886200201849087062
:100220001648006817490968C861174800680078CF
:1002300020F002001449096808701348006800782B
:1002400020F00100401C10490968087005E00448CE
:10025000806A40F005000249886270BD00C002401B
:1002600000800040C4C00F4000C00F4000000010DC
:100270000400001000007A44D313834E0C000010D9
:10028000010000109CC20720A8C2072010B51AF078
:1002900005FD10BD10B51AF0F5FE10BD03F03CF9D8
:1002A00003E002F0DCF8FFF7F5FFFAE706488047C5
:1002B00006480047FEE7FEE7FEE7FEE7FEE7FEE74B
:1002C000FEE7FEE7FEE7FEE705330000CD00000095
:1002D0000848406840F48020064948600846406C61
:1002E00020F4402048640448006840F004000249BB
:1002F0000860704700C0024000400340FFFFFFFF5E
:1003000070B505460C469A48006840F0400099498F
:10031000C1F8C4002946984816F04AFE064617F070
:100320003BF8401E954988610846406840F0090046
:10033000486008464069002048610846406940F02E
:10034000020048618E4800696FF30B008C49086118
:100350000846C0688B4908408949C86000208A491E
:100360000968087025E088480068017844FA01F0BF
:100370004FF6FE71884315D08148016982480068B4
:10038000007842000120904001437D4801617B4894
:10039000C06C7D4909680978093101228A401043FF
:1003A0007649C864784800680078401C7649096836
:1003B00008707548006800780628D4DB062072496A
:1003C0000968087052E0704800680178891C44FA96
:1003D00001F04FF6FE71884341D06848C16C6A480D
:1003E00000680078C01C0122824011436348C16448
:1003F000654800680078801F06282ED2DFE800F0EC
:10040000030A11181F265E48C06840F020005C49AE
:10041000C86023E05A48C06840F400705849C8607A
:100420001CE05748C06840F400605549C86015E0BA
:100430005348C06840F400405149C8600EE050483D
:10044000C06840F400304E49C86007E04C48C068BE
:1004500040F400104A49C86000E000BF00BF4A48AD
:1004600000680078401C48490968087046480068E0
:1004700000780C28A7DB002043490968087070BD8C
:100480002DE9FF5F04460D4616469946DDF838A073
:10049000032C00D9A41D504616F0CAFF4FF033328A
:1004A0003A4BCDE9020116F06AFE074616F0FCFF52
:1004B00082460F9816F0BCFF354A364BCDE9020153
:1004C00016F05DFE074616F0EFFF0F90D5B1012D37
:1004D0003ED1304616F03DFF2F49039016F068FDDF
:1004E00080462649886916F034FF8346414616F057
:1004F00029FD074616F050FF2049042202FB041193
:10050000886126E0484616F024FF2449009016F042
:100510004FFD514602900F9816F00EFD0190029982
:1005200016F010FD8346514616F0B4FC12490390B4
:1005300016F008FD80464FF07E5116F0FDFC074690
:1005400016F02AFF0D49042202FB0411886100E025
:1005500000BF00BF032C00D9A41F0848006D012173
:10056000A14041F00101084304490865BDE8FF9F2F
:10057000C4C00F4000C00F4020BCBE4B00800140F3
:1005800000C00240CF30CCFFA4C207203333E33F8A
:10059000CDCCCCCCCCCCF43F0000C84200003443DE
:1005A00010B53748006840F400703649C1F8C400FF
:1005B0004FF01200344908724FF0000008644FF009
:1005C000010008720846007B40F00100087340F209
:1005D000E47088874FF001002C4908702C4908709E
:1005E0004FF00000A1F104010870A1F104010870AE
:1005F000A1F1040108704FF011004FF0010101FA60
:1006000000F14FEA50124FF0E02303EB8202C2F8F0
:10061000001100BF4FF00001002807DACA06140ECF
:100620001C4A00F00F031B1FD45403E0CA06130E2C
:10063000194A135400BF10BD1FB5184800688068E0
:10064000401C1649096888600F48007840F0010096
:100650000D4908701248007812490978124A127838
:10066000094B9B8FCDE90032CDE90210064890F886
:10067000383010F82C2F0DA1144817F045FB1FBD82
:10068000C4C00F4000C00F4000400240384002404C
:100690002C40024018ED00E000E400E0A4C2072076
:1006A000204002402440024028400240253032646D
:1006B0002F253032642F253034642D253032643AB2
:1006C000253032643A25303264000000D800001032
:1006D00007280CD2DFE800F00405060708090A0025
:1006E00005E004E003E002E001E000E000BF00BF3D
:1006F00000BFFEE710B519F03BF81AF0DDFB1AF069
:10070000E7F91CF055FB1BF055FC19F001FCBDE8A6
:10071000104018F00DBD10B519F044F81AF0D2FBD6
:100720001AF044FA1BF016FDBDE8104019F0CEBFD8
:1007300000207047704770470020704700207047C6
:1007400000207047704770472DE9F04705460E4678
:1007500091469A46287862284CD010DC4D2873D0F8
:1007600006DC412871D0442870D048286FD1B7E00A
:1007700053286DD054286CD06128F7D148E07428F4
:100780000ED006DC682827D0692873D07028EDD1F8
:1007900014E076287CD078285CD07928E6D145E032
:1007A00062490968086816F043FE07463A460B4658
:1007B000291D304617F0A8FA0446B2E05B490968E3
:1007C000486816F035FE07463A460B46291D304666
:1007D00017F09AFA0446A4E054490968886816F0AC
:1007E00027FE07463A460B46291D304617F08CFA7D
:1007F000044696E04D490968086A16F019FE074656
:100800003A460B46291D304617F07EFA044688E02A
:1008100046490968886916F00BFE07463A460B46BA
:10082000291D304617F070FA04467AE03F490968FE
:10083000486916F0FDFD07463A460B46291D30462D
:1008400017F062FA04466CE038E02FE03FE062E027
:1008500058E04EE035490968086916F0E9FD074699
:100860003A460B46291D304617F04EFA044658E02A
:1008700000E00DE02D490968C86816F0D9FD07466B
:100880003A460B46291D304617F03EFA044648E02A
:1008900026490968C86916F0CBFD07463A460B465B
:1008A000291D304617F030FA04463AE02048828F7E
:1008B000291D304617F028FA044632E01D48027818
:1008C00005F10401304617F01FFA044629E01A48E2
:1008D000027805F10401304617F016FA044620E0CC
:1008E0001648027805F10401304617F00DFA044667
:1008F00017E01348027805F10401304617F004FAB6
:1009000004460EE00F48027805F10401304617F066
:10091000FBF9044605E00CA1304617F0F5F9044652
:1009200000BF00BFA0B2BDE8F08700009CC2072056
:1009300000400240384002402C4002402840024023
:1009400024400240204002403C703E592E2E2E2072
:1009500071756520717569657265732071756520A3
:10096000706F6E676120617175693F203A6C3C2F32
:10097000703E00001C200121814042094FF0E0231D
:1009800003EB8202C2F8001100BF70471C20012156
:100990008140FE4A430942F8231000BF704770B5FA
:1009A00005460E468EB9032405E015F8021BC8B2B1
:1009B000F7490855641C062CF7DB7E20F4490870C3
:1009C000FF204870FE20887009E0002405E015F83B
:1009D000021BC8B2EE490855641C062CF7DBFFF772
:1009E000D5FF4FF0A040006820F001004FF0A0417B
:1009F0000860E848006820F00300C1F80001E448FE
:100A00000079E349497940EA01204FF0A0410864A8
:100A1000DF488078DE49C97840EA01204FF0A041E4
:100A20004864DB480078DA49497840EA01204FF011
:100A3000A04188640846006840F44F4008600846BA
:100A4000D0F8000140F07800C1F80001FFF792FFF4
:100A5000012070BD00200FE000EB4001CE4A02EB08
:100A60004121CE4A42F83010002102EBC002516011
:100A7000CB4A42F82010401C0328EDD3C749C94A8D
:100A80001160C7494FF0A042C2F820114FF0020197
:100A9000C54A11604FF000014FF0A042C2F8281182
:100AA0007047002013E000EB4001C04A02EB4121F7
:100AB000BF4A42F83010BF4902EBC002516000212A
:100AC000BD4A42F8301002EBC0025160401C0428BD
:100AD000E9D3B749B94A1160B7494FF0A042C2F80B
:100AE0000C114FF00301B64A11604FF000014FF0B6
:100AF000A042C2F81811704710B5014641F4807049
:100B00004FF0A044A06201206062002307E04FF094
:100B1000A040406B10F0010F00D103E05B1CB3F567
:100B2000A02FF4D300BF00204FF0A0446062204605
:100B3000026B90B210BD10B540F480734FF0A0442A
:100B4000A3622346D962002207E04FF0A0435B6B0B
:100B500013F0010F00D103E0521CB2F5A02FF4D323
:100B600000BF10BD10B59748006840F0804096491E
:100B7000C1F8C4009548964988600846C06820F0CE
:100B80000F0000F10500C8604FF44F404FF0A04146
:100B900008604FF038007F4908604FF000008D4931
:100BA000086004E08B480068401C8A490860894856
:100BB0000068FF28F6D902204FF0A04108603020DD
:100BC00048604001486143F20F7008611220C8601C
:100BD0004FF430706F49086048F23C004FF0A0417C
:100BE00008624FF000007B49086004E07948006823
:100BF000401C7849086077480068FF28F6D93C20F7
:100C00004FF0A04108624FF40060886100207149F4
:100C1000086004E06F480068401C6E4908606D4839
:100C20000068FF28F6D900204FF0A04188614FF4FA
:100C30000041FFF780FF0020664908600FE00020B8
:100C4000FFF75AFF644908600846008810F4084F0F
:100C500000D109E05F480068401C5E4908605D48BB
:100C60000068B0F5801FEAD300BF0220FFF744FF01
:100C70005A4908600320FFF73FFF594908600846BA
:100C800000684FF6F07108405449098840EA014075
:100C9000A0F5F821F0391ED14FF480510020FFF764
:100CA0004AFF00204B4908600FE00120FFF724FFB6
:100CB000494908600846007810F0200F00D009E08C
:100CC00044480068401C4349086042480068B0F549
:100CD000801FEAD300BF00203E4908600FE00120DA
:100CE000FFF70AFF3C4908600846007810F0040F3F
:100CF00000D009E037480068401C36490860354894
:100D00000068B0F5803FEAD300BF1F20FFF7F4FE74
:100D1000314908600846007810F0100F11D04FF0EC
:100D2000A040406840F001004FF0A04148601948E1
:100D3000006840F48060C1F800014FF01500886041
:100D400003E012204FF0A04188602348007810F0A3
:100D5000080F05D04FF480704FF0A041886103E088
:100D600000204FF0A041886109480079084949797D
:100D700040EA01204FF0A04108640548807804490A
:100D8000C97840EA01204FF0A0412BE080E100E06B
:100D900020000010000100505C0F082038F70720E9
:100DA00050F707201C010050240100505CF7072079
:100DB000F8F60720FF05008018F70720080100500B
:100DC00010010050C4C00F4000C00F400501155075
:100DD00000C0024008C0072004C007200CC0072044
:100DE00010C0072048644D4800784C49497840EAD3
:100DF00001204FF0A0418864FFF753FEFFF72AFE61
:100E00002620474908604FF08800464908604FF6A1
:100E1000FF7001F1040108604FF0A040D0F800011C
:100E200040F003004FF0A041C1F8000108460068FF
:100E300040F00100086010BD70B53B4D296800F11D
:100E400004033A4D55F83140058805F103054FEA92
:100E5000A50202E020CB20C4521E002AFAD1058848
:100E60006D1E45F04045314E06EBC10675604D1CC8
:100E70002946032D00D100212B4D296070BD2DE99D
:100E8000F04740E02748001DC0F8008018F0080F28
:100E900038D02748046831E0264850F8347017F0FD
:100EA000804F00D123E0C7F30A00C51E40F2EA508C
:100EB000854202D82048074200D018E045F00040A3
:100EC00017F0EAFE06468EB106F1040A1B4850F8F8
:100ED0003490E81C850804E059F8040B4AF8040B28
:100EE0006D1E002DF8D130461AF04CFE00BF601C7C
:100EF0000446042800D100240D480460104800680E
:100F0000A042C9D100BF0748001F00680549096811
:100F100010EA0108B6D1BDE8F087000020000010FB
:100F200000020050E40F00502801005038F707205D
:100F30001801005018F707200000901BF8F6072052
:100F4000140100501CB50446FE480078012848D121
:100F5000FD4800882188884219DD2088A18808443E
:100F6000F9490988884212DDF7484088618888423B
:100F70000DDD6088E1880844F3494988884206DD30
:100F8000207A10B9012020721CBD0020FCE7EF4838
:100F90000068406C00EB80004000ED490988884201
:100FA0001CD80020009003463C220121019006201D
:100FB000FFF766FA0320E7490870E7480078012840
:100FC0000CDD0120E54908700420E2490870E24880
:100FD0000078022802D10120E14908700020DC4994
:100FE00008800020207200BFCEE72DE9F84F0446AC
:100FF0000E4617461D460095B4F800C0B4F80480AC
:10100000C444ACF1010C1FFA8CF2638819462088A5
:1010100014F039FF0095B4F802C0B4F80680C44457
:10102000ACF1010C1FFA8CF322886188104614F091
:101030002AFF0095B4F802C0B4F80680C444ACF1AD
:10104000010C1FFA8CF3B4F800C0B4F80480C44457
:10105000ACF1010C1FFA8CF2B4F802C0B4F80680AF
:10106000C444ACF1010C1FFA8CF1208814F00BFF82
:101070000095B4F802C0B4F80680C444ACF1010C89
:101080001FFA8CF3B4F800C0B4F80480C444ACF187
:10109000010C1FFA8CF2B4F800C0C444ACF1010C8E
:1010A0001FFA8CF0618814F0EEFE304615F03DFE1C
:1010B0004008B4F8049009EBD971228802EB610171
:1010C000A1EBC0001FFA80FA00200090B4F806805F
:1010D00008EBD870628802EB6000083881B23B46AA
:1010E0003246504614F07EFFBDE8F88F00B589B057
:1010F0004FF4FC634FF6E0729A499B48FFF775FF87
:101100004FF4FC634FF6E07298A19948FFF76DFF2A
:101110004FF4FC634FF6E07296A19748FFF765FF26
:101120004FF4FC634FF6E07294A19648FFF75DFF21
:101130004FF4FC634FF6E07293A19548FFF755FF1B
:101140004FF4FC634FF6E07292A19548FFF74DFF14
:101150004FF4FC634FF6E07292A19448FFF745FF0D
:101160000820D721A823C022CDE9001090A103A810
:1011700016F0CAFD4FF4FC634FF6E07203A99048E5
:10118000FFF733FF4FF4FC634FF6E0728DA18E48FA
:10119000FFF72BFF4FF4FC634FF6E07289A18B48F9
:1011A000FFF723FF4FF4FC634FF6E07285A18848F8
:1011B000FFF71BFF4FF4FC634FF6E07281A18548F7
:1011C000FFF713FF4FF4FC634FF6E07282A18348F0
:1011D000FFF70BFF4FF4FC634FF6E0727EA18048EF
:1011E000FFF703FF4FF4FC634FF6E0727AA17D48EE
:1011F000FFF7FBFE4FF4FC634FF6E07276A17A48EE
:10120000FFF7F3FE09B000BDF8B504460E46002511
:1012100014E000966788B4F806C06744BF1EBBB2EE
:1012200027882F44BF1CBAB26788BF1CB9B2278871
:101230002F44BF1CB8B214F026FE6D1CA088001FFE
:10124000A842E6DCF8BD2DE9FF5F4FF4FC634FF6E2
:10125000E07244494448FFF7C8FE4FF4FC634FF680
:10126000E07242A14248FFF7C0FE4FF4FC634FF624
:10127000E07240A14048FFF7B8FE4FF4FC634FF620
:10128000E0725AA15D48FFF7B0FE5D480068407803
:1012900010F0010F54D05A480068407820F0010047
:1012A00057490968487029480068D0E9024327482F
:1012B00000682246D0E90061304615F05AFFCDE9BA
:1012C000000150490968086816F0B2F880461F48C6
:1012D0000068D0E902633246404615F04AFF0446F2
:1012E0000022494B15F04BFF8246DDE9002315F043
:1012F000B8FFCDE9020116F063F80B2821D2DFE830
:1013000000F006A2CCFFFDFCFBFAF9F8F700002183
:101310003E48FFF779FF00213D48FFF775FF0021A8
:101320003C48FFF771FF00213B48FFF76DFF0021AC
:101330003A48FFF769FF00213948FFF765FF71E080
:10134000E6E24EE298C2072088000010ACC20720F7
:101350009400001015C0072014C0072017C00720F4
:1013600016C00720D800001022C007202D3E000024
:101370002CC007203C2D000036C00720486F72614A
:101380007300000026C107204D696E75746F7300ED
:1013900030C10720536567756E646F7300000000ED
:1013A0003AC10720446961730000000044C107206E
:1013B00049503A25642E25642E25642E25640000AC
:1013C0004EC107202D00000058C1072062C1072030
:1013D0006CC1072076C107202B00000080C10720C8
:1013E0008AC1072094C107209EC1072054656D70F3
:1013F000657261747572613A00000000A8C107202F
:10140000A8C207209CC207200000244034C2072045
:101410003EC2072048C2072052C207205CC20720F4
:1014200066C207200021FE48FFF7EEFE0021FD48BE
:10143000FFF7EAFE0021FC48FFF7E6FE0021FB482B
:10144000FFF7E2FE63E24FF6FF71F948FFF7DCFEBB
:101450000021F848FFF7D8FE0021F748FFF7D4FE37
:101460000021F648FFF7D0FE0021F548FFF7CCFE3B
:101470000021F448FFF7C8FE0021E948FFF7C4FE49
:101480000021E848FFF7C0FE0021E748FFF7BCFE57
:101490000021E648FFF7B8FE39E24FF6FF71E44855
:1014A000FFF7B2FE4FF6FF71E248FFF7ADFE0021F5
:1014B000E148FFF7A9FE0021E048FFF7A5FE002163
:1014C000DF48FFF7A1FE0021DE48FFF79DFE002167
:1014D000D348FFF799FE0021D248FFF795FE00217F
:1014E000D148FFF791FE0021D048FFF78DFE0EE2B4
:1014F00044E111E1DFE0AEE084E05AE02CE0FFE7F8
:101500004FF6E071CA48FFF77FFE4FF6E071C94819
:10151000FFF77AFE4FF6E071C748FFF775FE00212E
:10152000C648FFF771FE0021C548FFF76DFE002198
:10153000C448FFF769FE0021B948FFF765FE0021A6
:10154000B848FFF761FE0021B748FFF75DFE0021B4
:10155000B648FFF759FEDAE14FF6E071B448FFF7FD
:1015600053FE4FF6E071B348FFF74EFE4FF6E071C1
:10157000B148FFF749FE4FF6E071B048FFF744FE6F
:101580000021AF48FFF740FE0021AE48FFF73CFEC8
:101590000021A348FFF738FE0021A248FFF734FEE0
:1015A0000021A148FFF730FE0021A048FFF72CFEE4
:1015B000ADE11F219E48FFF727FE1F219D48FFF741
:1015C00023FE1F219C48FFF71FFE1F219B48FFF7AA
:1015D0001BFE1F219A48FFF717FE00219948FFF7CD
:1015E00013FE00218E48FFF70FFE00218D48FFF704
:1015F0000BFE00218C48FFF707FE00218B48FFF708
:1016000003FE84E11F218A48FFF7FEFD1F21894860
:10161000FFF7FAFD1F218848FFF7F6FD1F218748D5
:10162000FFF7F2FD1F218648FFF7EEFD1F218548D9
:10163000FFF7EAFD00217A48FFF7E6FD002179482F
:10164000FFF7E2FD00217848FFF7DEFD0021774833
:10165000FFF7DAFD5BE14FF4FC617548FFF7D4FD5D
:101660004FF4FC617348FFF7CFFD4FF4FC61724803
:10167000FFF7CAFD4FF4FC617048FFF7C5FD4FF45A
:10168000FC616F48FFF7C0FD4FF4FC616D48FFF748
:10169000BBFD4FF4FC616248FFF7B6FD00216148D5
:1016A000FFF7B2FD00216048FFF7AEFD00215F4863
:1016B000FFF7AAFD2BE14FF4FC615D48FFF7A4FDA5
:1016C0004FF4FC615B48FFF79FFD4FF4FC615A4803
:1016D000FFF79AFD4FF4FC615848FFF795FD4FF472
:1016E000FC615748FFF790FD4FF4FC615548FFF748
:1016F0008BFD4FF4FC614A48FFF786FD4FF4FC6117
:101700004848FFF781FD00214748FFF77DFD002194
:101710004648FFF779FDFAE04FF478414448FFF777
:1017200073FD4FF478414348FFF76EFD4FF4784165
:101730004148FFF769FD4FF478414048FFF764FDE9
:101740004FF478413E48FFF75FFD4FF478413D4844
:10175000FFF75AFD4FF478413148FFF755FD4FF43C
:1017600078413048FFF750FD4FF478412E48FFF79D
:101770004BFD00212D48FFF747FDC8E04FF47841AD
:101780002B48FFF741FD4FF478412A48FFF73CFD15
:101790004FF478412848FFF737FD4FF47841274848
:1017A000FFF732FD4FF478412548FFF72DFD4FF448
:1017B00078412448FFF728FD4FF478411848FFF797
:1017C00023FD4FF478411748FFF71EFD4FF4784191
:1017D0001548FFF719FD4FF478411448FFF714FD41
:1017E00095E019490968086815F022FE04460D467F
:1017F00016480168D1E9026332462046294615F0B1
:101800003FFE4AD24FF478410948FFF7FDFC4FF400
:1018100078410848FFF7F8FC4FF47841064817E094
:1018200070C207207AC2072084C207208EC2072018
:1018300034C207203EC2072048C2072052C20720F8
:101840005CC2072066C207209CC20720ACC20720EA
:10185000FFF7DAFC4FF47841FC48FFF7D5FC4FF472
:101860007841FB48FFF7D0FC4FF47841F948FFF787
:10187000CBFC4FF47841F848FFF7C6FC4FF47841B1
:10188000F648FFF7C1FC4FF47841F548FFF7BCFC80
:101890004FF47841F348FFF7B7FCF349096808684B
:1018A00015F0C6FD04460D46F0480168D1E9026313
:1018B00032462046294615F0CFFD27D20021EC48BC
:1018C000FFF7A2FC0021EB48FFF79EFC0021EA484D
:1018D000FFF79AFC0021DD48FFF796FC0021DC4869
:1018E000FFF792FC0021DB48FFF78EFC0021DA486D
:1018F000FFF78AFC0021D948FFF786FC0021D84871
:10190000FFF782FC0021D748FFF77EFC00BF00BF35
:101910004FF4FC634FF6E072D8A1DB48FFF765FB9C
:10192000D2480168D1E906430168D1E90461224641
:10193000304615F01EFC82468B46CB490968486844
:1019400015F076FD0446C9480068D0E906633246C2
:10195000204615F00EFC80460022CC4B15F00FFC03
:1019600052465B46CDE9000115F07BFCCDE9020152
:1019700015F026FD0B287DD2DFE800F0062F5986F2
:10198000B2DFFEFDFCFBFA000021C148FFF73CFC82
:101990000021C048FFF738FC0021BF48FFF734FCA6
:1019A0000021BE48FFF730FC0021BD48FFF72CFCAA
:1019B0000021BC48FFF728FC0021BB48FFF724FCAE
:1019C0000021BA48FFF720FC0021B948FFF71CFCB2
:1019D0000021B848FFF718FC7FE24FF6FF71AC48D2
:1019E000FFF712FC0021AB48FFF70EFC0021AA48CC
:1019F000FFF70AFC0021A948FFF706FC0021A848D0
:101A0000FFF702FC0021A748FFF7FEFB0021A648D4
:101A1000FFF7FAFB0021A548FFF7F6FB0021A448D9
:101A2000FFF7F2FB0021A348FFF7EEFB55E24FF66C
:101A3000FF719748FFF7E8FB4FF6FF719548FFF7F6
:101A4000E3FB00219448FFF7DFFB00219348FFF7F9
:101A5000DBFB00219248FFF7D7FB00219148FFF7FD
:101A6000D3FB00219048FFF7CFFB00218F48FFF701
:101A7000CBFB00E0B6E100218D48FFF7C5FB00215C
:101A80008C48FFF7C1FB28E24FF6E0718048FFF772
:101A9000BBFB4FF6E0717F48FFF7B6FB4FF6E071F6
:101AA0007D48FFF7B1FB00217C48FFF7ADFB00212B
:101AB0007B48FFF7A9FB00217A48FFF7A5FB00212F
:101AC0007948FFF7A1FB00217848FFF79DFB002133
:101AD0007748FFF799FB00217648FFF795FBFCE17B
:101AE0004FF6E0716A48FFF78FFB4FF6E0716948E7
:101AF000FFF78AFB4FF6E0716748FFF785FB4FF66B
:101B0000E0716648FFF780FB00216548FFF77CFB2A
:101B100000216448FFF778FB00216348FFF774FB5E
:101B200000216248FFF770FB00216148FFF76CFB62
:101B300000216048FFF768FBCFE11F215448FFF701
:101B400063FB1F215348FFF75FFB1F215248FFF73C
:101B50005BFB1F215148FFF757FB1F215048FFF740
:101B600053FB00214F48FFF74FFB00214E4804E094
:101B700005E1D2E0A0E038E00EE0FFF745FB0021F0
:101B80004A48FFF741FB00214948FFF73DFB002190
:101B90004848FFF739FBA0E11F213D48FFF734FB20
:101BA0001F213C48FFF730FB1F213B48FFF72CFB70
:101BB0001F213A48FFF728FB1F213948FFF724FB74
:101BC0001F213848FFF720FB00213748FFF71CFB97
:101BD00000213648FFF718FB00213548FFF714FBBA
:101BE00000213448FFF710FB77E14FF4FC612848EF
:101BF000FFF70AFB4FF4FC612648FFF705FB4FF4A3
:101C0000FC612548FFF700FB4FF4FC612348FFF718
:101C1000FBFA4FF4FC612248FFF7F6FA4FF4FC613F
:101C20002048FFF7F1FA4FF4FC611F48FFF7ECFA88
:101C300000211E48FFF7E8FA00211D48FFF7E4FAEB
:101C400000211C48FFF7E0FA47E1000052C20720DC
:101C50005CC2072066C2072070C207207AC2072034
:101C600084C207208EC207209CC20720ACC2072076
:101C700034C207203EC2072048C207205072657355
:101C8000696F6E3A00000000BCC1072000002440CC
:101C9000D0C10720DAC10720E4C10720EEC1072028
:101CA000F8C1072002C207200CC2072016C2072075
:101CB00020C207202AC207204FF4FC61FE48FFF72C
:101CC000A3FA4FF4FC61FD48FFF79EFA4FF4FC6164
:101CD000FB48FFF799FA4FF4FC61FA48FFF794FAD2
:101CE0004FF4FC61F848FFF78FFA4FF4FC61F748B6
:101CF000FFF78AFA4FF4FC61F548FFF785FA4FF4D5
:101D0000FC61F448FFF780FA0021F348FFF77CFA02
:101D10000021F248FFF778FADFE04FF47841E64817
:101D2000FFF772FA4FF47841E448FFF76DFA4FF489
:101D30007841E348FFF768FA4FF47841E148FFF74C
:101D400063FA4FF47841E048FFF75EFA4FF47841C8
:101D5000DE48FFF759FA4FF47841DD48FFF754FAAF
:101D60004FF47841DB48FFF74FFA4FF47841DA48F7
:101D7000FFF74AFA0021D948FFF746FAADE04FF4E1
:101D80007841CD48FFF740FA4FF47841CB48FFF750
:101D90003BFA4FF47841CA48FFF736FA4FF47841DE
:101DA000C848FFF731FA4FF47841C748FFF72CFADB
:101DB0004FF47841C548FFF727FA4FF47841C448FB
:101DC000FFF722FA4FF47841C248FFF71DFA4FF4AB
:101DD0007841C148FFF718FA4FF47841BF48FFF740
:101DE00013FA7AE0BE490968486815F021FB0446F9
:101DF0000D46BC480168D1E90463324620462946B5
:101E000015F03EFB31D24FF47841AB48FFF7FCF9B7
:101E10004FF47841A948FFF7F7F94FF47841A84803
:101E2000FFF7F2F94FF47841A648FFF7EDF94FF4C8
:101E30007841A548FFF7E8F94FF47841A348FFF748
:101E4000E3F94FF47841A248FFF7DEF94FF4784107
:101E5000A048FFF7D9F94FF478419F48FFF7D4F92C
:101E60004FF478419D48FFF7CFF99D4909684868CC
:101E700015F0DEFA04469B480068D0E90663324656
:101E8000204615F0E9FA27D200218B48FFF7BCF96C
:101E900000218A48FFF7B8F900218948FFF7B4F913
:101EA00000218848FFF7B0F900218748FFF7ACF917
:101EB00000218648FFF7A8F900218548FFF7A4F91B
:101EC00000218448FFF7A0F900218348FFF79CF91F
:101ED00000218248FFF798F900BF00BFBDE8FF9FCF
:101EE00030B587B04FF4FC634FF6E0727E497F480F
:101EF000FFF77BF84FF4FC634FF6E072AFF69431D6
:101F00007B48FFF772F84FF4FC634FF6E072AFF6D0
:101F10009C317848FFF769F84FF4FC634FF6E072A4
:101F200075A17A48FFF761F879480068407810F0A9
:101F3000010F13D06A490968886915F079FA0446D7
:101F400022460B4673A101A815F0DEFE4FF4FC6398
:101F50004FF6E07201A97448FFF747F84FF4FC63AD
:101F60004FF6E07271A17448FFF73FF84FF4FC633D
:101F70004FF6E07271A17448FFF737F84FF4FC6335
:101F80004FF6E07271A17448FFF72FF84FF4FC632D
:101F90004FF6E07271A17448FFF727F85C480068BB
:101FA000007810F0010F1BD04D490968C86915F081
:101FB0003FFA044622460B466CA101A815F0A4FE88
:101FC0004FF4FC634FF6E07201A96B48FFF70DF880
:101FD0004F480068007820F001004D4909680870FA
:101FE0004B480068407810F0010F1BD03C4909684D
:101FF000886815F01DFA044622460B465FA101A829
:1020000015F082FE4FF4FC634FF6E07201A95E48C2
:10201000FEF7EBFF3E480068407820F001003C49A5
:10202000096848702E490968086A15F001FA0446E3
:1020300022460B4655A101A815F066FE4FF4FC633D
:102040004FF6E07201A95448FEF7CFFF2449096812
:10205000C86815F0EDF9044622460B464FA101A8C9
:1020600015F052FE4FF4FC634FF6E07201A94E48A2
:10207000FEF7BBFF07B030BD10B54FF4FC634FF661
:10208000E07219491948FEF7B0FF4FF4FC634FF6B0
:10209000E072AFF628511648FEF7A7FF4FF4FC6335
:1020A0004FF6E072AFF634511248FEF79EFF4FF440
:1020B000FC634FF6E07279E0D0C10720DAC1072057
:1020C000E4C10720EEC10720F8C1072002C20720A3
:1020D0000CC2072016C2072020C207202AC20720F0
:1020E0009CC20720ACC20720D800001022C00720E5
:1020F0002CC0072036C007204D4544494441532099
:1021000041435455414C455300000000C2C00720D4
:10211000A8C20720416C747572613A20252E3032B6
:1021200066206D2E00000000CCC0072056656C2E86
:1021300020762E3A00000000D6C0072048756D6555
:102140006461643A00000000E0C00720436C6172E3
:10215000696461643A000000EAC00720496E63695F
:1021600064652055563A0000F4C00720252E303211
:1021700066206D7073000000FEC00720252E3032EF
:10218000662025250000000008C10720252E3032DA
:1021900066204C555800000012C10720252E303211
:1021A00066205556730000001CC10720FBA1FD48A6
:1021B000FEF71BFF4FF4FC634FF6E072FAA1FC48F8
:1021C000FEF713FF4FF4FC634FF6E072F9A1FE48EF
:1021D000FEF70BFFFD48007805282BD2DFE800F062
:1021E000032B537BA3004FF6FF731A46F8A1F9485F
:1021F000FEF7FBFE4FF4FC634FF6E072F6A1F748E2
:10220000FEF7F3FE4FF4FC634FF6E072F4A1F548DD
:10221000FEF7EBFE4FF4FC634FF6E072F2A1F348D9
:10222000FEF7E3FE4FF4FC634FF6E072F0A1F148D5
:10223000FEF7DBFE9FE04FF4FC634FF6E072E4A193
:10224000E448FEF7D2FE4FF6FF731A46E2A1E348D8
:10225000FEF7CBFE4FF4FC634FF6E072E0A1E148DD
:10226000FEF7C3FE4FF4FC634FF6E072DEA1DF48D9
:10227000FEF7BBFE4FF4FC634FF6E072DCA1DD48D5
:10228000FEF7B3FE77E04FF4FC634FF6E072D0A1A7
:10229000D048FEF7AAFE4FF4FC634FF6E072CEA1E1
:1022A000CE48FEF7A2FE4FF6FF731A46CCA1CD48EA
:1022B000FEF79BFE4FF4FC634FF6E072CAA1CB48D9
:1022C000FEF793FE4FF4FC634FF6E072C8A1C948D5
:1022D000FEF78BFE4FE04FF4FC634FF6E072BCA1BB
:1022E000BC48FEF782FE4FF4FC634FF6E072BAA1E1
:1022F000BA48FEF77AFE4FF4FC634FF6E072B8A1DD
:10230000B848FEF772FE4FF6FF731A46B6A1B748FB
:10231000FEF76BFE4FF4FC634FF6E072B4A1B548D4
:10232000FEF763FE27E04FF4FC634FF6E072A8A1CE
:10233000A848FEF75AFE4FF4FC634FF6E072A6A1E0
:10234000A648FEF752FE4FF4FC634FF6E072A4A1DC
:10235000A448FEF74AFE4FF4FC634FF6E072A2A1D8
:10236000A248FEF742FE4FF6FF731A46A0A1A1480D
:10237000FEF73BFE00BF00BF4FF4FC634FF6E07278
:102380009DA19F48FEF731FE9E48007820B10128AC
:102390001AD0022847D12EE04FF478431A469AA16A
:1023A0009A48FEF722FE4FF4FC634FF6E07298A1C4
:1023B0009848FEF71AFE4FF4FC634FF6E07296A1C0
:1023C0009648FEF712FE2EE04FF4FC634FF6E072E3
:1023D0008DA18E48FEF709FE1F231A468CA18D4859
:1023E000FEF703FE4FF4FC634FF6E0728AA18B48C0
:1023F000FEF7FBFD17E04FF4FC634FF6E07282A19D
:102400008248FEF7F2FD4FF4FC634FF6E07280A1C4
:102410008048FEF7EAFD4FF6FF731A467EA17F481B
:10242000FEF7E3FD00BF00BF4FF4FC634FF6E07220
:102430007BA17D48FEF7D9FD10BD10B500F011FC61
:10244000044644B1794A2146794800F0C0FD012094
:102450007849087002E000207649087010BD1CB56C
:10246000FDF73EFEFFF7E9FF73480078D0B14FF06B
:10247000E020006910F4803F14D0002000906F49E4
:10248000019009686E4B0022086A012101F0A8FD45
:10249000002000900346019069480278012106203F
:1024A000FDF7EEFF674800680078052874D2DFE882
:1024B00000F003FEFDFCFB00FFF7DEFD6248FEF7C7
:1024C00041FD30B101205F4909680870002012F019
:1024D00090F85E48FEF736FD30B102205949096890
:1024E0000870002012F085F83148FEF72BFD30B15E
:1024F0000320544909680870002012F07AF8354822
:10250000FEF720FD88B100204B4908705049087043
:10251000009003460122114601900620FDF7B0FF0E
:1025200000202A490870374908702C48FEF70AFD38
:1025300090B100204049087045490870009003465A
:102540001422012101900620FDF79AFF01201F4966
:10255000087000202B4908702248FEF7F3FC90B168
:102560000020354908703A49087000900346282237
:10257000012101900620FDF783FF02201349087016
:102580000020204908701948FEF7DCFC28B1002023
:10259000009003463C225DE07FE16BE0496E666F90
:1025A0002E00000040C00720416A757374657300F7
:1025B0004AC007204E6976656C20646520627269A6
:1025C0006C6C6F3A0000000054C0072015C0072053
:1025D000310000005EC007203200000068C0072004
:1025E0003300000072C00720340000007CC00720C8
:1025F0004100000086C00720506C61790000000097
:1026000090C0072014C00720485000009AC007203F
:102610004C500000A4C00720554C5000AEC007200D
:102620004C6F616400000000B8C00720400000103B
:102630008800001098C2072017C007209CC20720FE
:1026400099C20720A0C207202CC0072036C007204F
:1026500016C00720012101900620FDF711FF002080
:10266000924908709249087003209249087000202E
:10267000914908709148FEF765FC58B101208B49DB
:10268000087000208A49087004208A4908700120D7
:10269000894908708A48FEF755FC98B18948006856
:1026A0000078C0090ED003E0F6E086E06DE054E06B
:1026B00084480068007820F080008249096808702A
:1026C00001F050FC8048FEF73DFC70B17D48006889
:1026D0000078C00909D07B480068007820F08000AD
:1026E00078490968087001F0A5FB7848FEF72AFCD4
:1026F00098B10020704908706C49087003206D493A
:1027000008700020009003463C2201210190062021
:10271000FDF7B6FE0020664908706D48FEF712FC12
:1027200058B10120644908700420624908700120F2
:102730005E49087000205E4908706648FEF702FC9A
:1027400050B102205C49087004205A4908700120E9
:102750005649087056490870A0E0FFF7C1FB5E4873
:10276000FEF7F0FB30B102205C49096808700020D8
:1027700011F03FFF5A48FEF7E5FB28B1002057490A
:102780000968087011F035FF88E0FEF75CFD5248DB
:10279000FEF7D8FB28B1002050490968087011F0F5
:1027A00028FF4F48FEF7CEFB30B101204B490968A6
:1027B0000870002011F01DFF70E0FEF797FC4648FE
:1027C000FEF7C0FB28B1002044490968087011F0E9
:1027D00010FF4348FEF7B6FB28B100203F490968C7
:1027E000087011F006FF3F48FEF7ACFB30B13E48E1
:1027F0000078A0F101003D4981F828003C48FEF72F
:10280000A1FB30B13B480078A0F10100374981F8C5
:1028100024003948FEF796FB30B138480078A0F123
:102820000100324981F820003548FEF78BFB30B1BA
:1028300034480078A0F101002C4981F82C0032487E
:10284000FEF780FB30B12848007800F101002749ED
:1028500081F828002D48FEF775FB30B12548007837
:1028600000F10100214981F824002948FEF76AFBA4
:1028700030B12248007800F101001C4981F82000A5
:102880002448FEF75FFB30B11E48007800F10100DC
:10289000164981F82C0001E000E000BF00BF1CBD1C
:1028A00010B500F039F802F06CFB10BD17C007201E
:1028B00016C0072015C0072014C0072086C00720B7
:1028C00090C00720A8C20720B8C007209AC00720E0
:1028D000A4C00720AEC007202CC00720A0C207203C
:1028E00036C0072058C1072028400240004002405F
:1028F00062C10720244002406CC1072020400240F2
:1029000076C107202C40024080C107208AC10720E1
:1029100094C107209EC1072000B589B002208DF820
:102920001E0000208DF820008DF81F008DF81C007F
:1029300007208DF81D0007A802F01EF808208DF86A
:102940001D0007A802F018F809208DF81D0007A83F
:1029500002F012F800208DF81E008DF81C000620F1
:102960008DF81D0007A802F007F800208DF81E0062
:1029700002208DF81C000D208DF81D0007A801F025
:10298000FBFF00224FF40051022002F057F84FF4F1
:102990000051022002F066F801224021002002F0DE
:1029A0004DF84021002002F05DF801A801F0BEFCC6
:1029B000FE48069001A9FE4801F057FC0121FC48A1
:1029C00001F0BFFC09B000BD70B50446FDF788FBFF
:1029D000002507E00C2000BF0100A0F10102D0B2E9
:1029E000FAD16D1CA542F5D370BD10B5044600BFE9
:1029F0001021EF4801F05EFE0128F9D02146EC4895
:102A000001F007FD00BF0421E94801F053FE002852
:102A1000F9D0E74801F00FFDC0B210BD70B500203D
:102A2000FFF7E3FF05464FF6FF7000EA052401209B
:102A3000FFF7CAFF0020FFF7D8FF05462C43E4103C
:102A4000C4F30B04204670BD10B54020D949C861BD
:102A50000120FFF7B9FF9020FFF7C7FF0120FFF724
:102A6000B3FFFFF7DBFF04464020D24988612046D0
:102A700010BD10B54020CF49C8610120FFF7A4FF69
:102A8000D020FFF7B2FF0120FFF79EFFFFF7C6FF40
:102A900004464020C7498861204610BD2DE9F04119
:102AA00004460D46FFF7D0FF06460120FFF78CFFD6
:102AB000FFF7DFFF074626602F60BDE8F08170B5A5
:102AC00004460D464FF478422946204612F04FFF47
:102AD000611C88B24FF47842294612F048FF681C06
:102AE00081B24FF47842204612F041FF6A1C91B245
:102AF000621C90B24FF4784212F039FF70BDF8B505
:102B000004460D464FF6FF70A11E8AB20D390090A3
:102B100088B22B46294613F0B6F94FF6FF7004F140
:102B20000F018AB2A11C009088B22B46294613F0EF
:102B3000AAF94FF6FF700090A81E83B20D3881B23B
:102B40002246204613F09FF94FF6FF70009005F1E2
:102B50000F0083B2A81C81B22246204613F093F9DD
:102B60004BF6F04005F10F06B3B2E61FB2B205F125
:102B70000F06B1B2A4F10F060090B0B213F083F9C2
:102B80004BF6F04005F10F06B3B2A4F10F06B2B256
:102B9000EE1DB1B2A4F10F060090B0B213F073F9BC
:102BA0004BF6F040A5F10F06B3B2E61FB2B2A5F1A5
:102BB0000F06B1B2A4F10F060090B0B213F063F9A2
:102BC0004BF6F040A5F10F06B3B2A4F10F06B2B276
:102BD000EE1FB1B2A4F10F060090B0B213F053F99A
:102BE0004BF6F04005F10F06B3B204F10F06B2B296
:102BF00005F10F06B1B2E61D0090B0B213F043F933
:102C00004BF6F04005F10F06B3B204F10F06B2B275
:102C1000EE1DB1B204F10F060090B0B213F033F91B
:102C20004BF6F040A5F10F06B3B204F10F06B2B2B5
:102C3000A5F10F06B1B2E61D0090B0B213F023F972
:102C40004BF6F040EE1FB3B204F10F06B2B2A5F19D
:102C50000F06B1B204F10F060090B0B213F013F9F1
:102C6000F8BDF0B597B000274821684614F052F837
:102C700000BF15A916A8FFF711FF16984DF82700F9
:102C800009A8159940F82710781CC7B24948406D2B
:102C900010F4005F01D1092FEBDB092F7ED1DDE9B4
:102CA0000001084402990844032190FBF1F01290BE
:102CB000DDE90301084405990844032190FBF1F084
:102CC0001390DDE90601084408990844032190FBAC
:102CD000F1F01490DDE91201441ADDE91301451AFF
:102CE00012991498461A002C01DD204600E060423B
:102CF0000446002D01DD284600E068420546002E0E
:102D000001DD304600E070420646502C06DD502DB5
:102D100004DD502E02DD002017B0F0BDAC4215DA04
:102D2000A64209DA149A1299881800EBD071C1F3FF
:102D30004F01214A11801EE0DDE91212881800EBD4
:102D4000D071C1F34F011C4A118014E0AE4209DA80
:102D5000149A1299881800EBD071C1F34F01164AEA
:102D6000118008E0DDE91312881800EBD071C1F37F
:102D70004F01114A1180DDE9091001440B98084404
:102D8000032190FBF1F01290DDE90C1001440E9844
:102D90000844032190FBF1F0139000E063E0DDE9CB
:102DA0000F10014411980844032107E020A10700F7
:102DB0000000034000C009208400001090FBF1F0E7
:102DC0001490DDE91201441ADDE91301451A129944
:102DD0001498461A002C01DD204600E060420446AB
:102DE000002D01DD284600E068420546002E01DD89
:102DF000304600E070420646502C05DD502D03DDC4
:102E0000502E01DD002087E7AC4215DAA64209DA30
:102E1000149A1299881800EBD071C1F34F01C24A7D
:102E200051801EE0DDE91212881800EBD071C1F369
:102E30004F01BD4A518014E0AE4209DA149A12994A
:102E4000881800EBD071C1F34F01B74A518008E0F8
:102E5000DDE91312881800EBD071C1F34F01B24ABB
:102E60005180B14858E7002056E72DE9F047054664
:102E70000C4616464FF0000921882289891AE388FA
:102E800062899A1A5143A2882389D31A6788628972
:102E9000BA1A03FB121014F061FAC6E90C01002201
:102EA0001346D6E90C71384614F0D6FA02D14FF029
:102EB000010989E029882A89891AE38862899A1A8E
:102EC0005143AA882B89D31A67886289BA1A03FBEF
:102ED000121014F043FAC6E9000121882289891AE8
:102EE000AA882B89D21A51432A88D21AA388278903
:102EF000DB1B02FB131014F031FAC6E90201218931
:102F0000AA885143A2882B8902FB1311628851437E
:102F100022885A4323892F8803FB1723E28803FB67
:102F20000212A18879432388AF8803FB17136189B4
:102F300003FB012014F012FAC6E904016A886989CA
:102F4000511AE38862899A1A5143EB886A899B1A5D
:102F500067886289BA1A03FB121014F0FFF9C6E9F8
:102F6000060121882289891AEB886A899A1A5143B5
:102F70006B886A899A1AA3882789DB1B02FB1310C6
:102F800014F0ECF9C6E908012189EA885143A388C5
:102F90006A8903FB12116288514322886B895A4364
:102FA00023896F8803FB1723E28803FB0213A188A0
:102FB00079432788EA8807FB1212618902FB0130F6
:102FC00014F0CCF9C6E90A014846BDE8F0872DE9BE
:102FD000F04F8BB08246894614464FF0000B00221A
:102FE0001346D4E90C51284614F036FA60D0B9F8EB
:102FF000020014F0C4F90546D4E902733A4614F00D
:10300000BEF8CDE90201B9F8000014F0B8F907469E
:10301000D4E900532A4614F0B2F8CDE90001DDE905
:10302000022314F005F8CDE90401D4E904532A463B
:1030300013F0FEFFCDE90601D4E90C532A4614F043
:1030400010F9CDE9080114F0DAF9AAF80000B9F88E
:10305000020014F094F90746D4E908532A4614F004
:103060008EF8CDE90201B9F8000014F088F907469E
:10307000D4E906532A4614F082F8CDE90001DDE9CF
:10308000022313F0D5FFCDE90401D4E90A532A46FF
:1030900013F0CEFFCDE90601D4E90C532A4614F013
:1030A000E0F8CDE9080114F0AAF9AAF8020001E05D
:1030B0004FF0010B58460BB0BDE8F08F38B5002437
:1030C00027E0002011F095FA00204FF6FF7317A2B9
:1030D0000A210090084612F085FF1C48FFF774FC97
:1030E0001B4A02EB84025188194A32F82400FFF788
:1030F00006FD00BFFFF7B5FD0546002DFAD0288874
:10310000144921F82400688801EB84014880601C80
:10311000C4B2032CD5DB104A0E490D48FFF7A5FEBB
:10312000002011F066FA38BD84000010546F7563FA
:10313000682063726F73736861697220746F2063B3
:10314000616C6962726174650000000020A1070073
:10315000780000105C210820400000102DE9F047A5
:10316000B1480068C0F3016003287CD1AF48006813
:1031700010F0030006D0012833D002285FD00328C6
:103180002ED100E000BFA8480068C0F3074000F15E
:1031900001044FF00201A648D0F88800C0F30E00E9
:1031A00000F10100A1FB0001A24B4FF0000CA0FBBD
:1031B000037901FB039100FB0C112246634638465C
:1031C00013F05EFD05469C480068C0B200F10104A2
:1031D00022464FF00003284613F052FD974908603D
:1031E0005DE091480068C0F3074000F101044FF032
:1031F00002018F48D0F88800C0F30E0000F10100F2
:10320000A1FB00108E4A4FF0000CA1FB027900FBDD
:10321000029001FB0C0122466346384613F030FD54
:10322000054685480068C0B200F1010422464FF00F
:103230000003284613F024FD804908602FE07A48F7
:103240000068C0F3074000F101044FF00201784824
:10325000D0F88800C0F30E0000F10100A1FB0012BD
:103260004FF4004000E01BE04FF00003A1FB0079A9
:1032700002FB009001FB03012246384613F000FDDB
:1032800005466D480068C0B200F1010422464FF0C7
:103290000003284613F0F4FC6849086000BF2FE0E3
:1032A0006248006810F0030006D0012810D0022800
:1032B00019D0032823D100E000BF5F480068C0B2E6
:1032C00000F101005B49B1FBF0F05C49086016E0D9
:1032D00059480068C0B200F101005949B1FBF0F053
:1032E000564908600BE054480068C0B200F1010084
:1032F0004FF40041B1FBF0F05049086000BF00BF3F
:10330000BDE8F08720204F4908604948D0F8A00167
:1033100010F0200F05D000BF4A48006810F0400FA1
:10332000FAD00320444908604FF000004049C1F83A
:10333000A801454908604FF001003C490860434836
:10334000434908604FF0AA00424908604FF0550019
:1033500008604FF00100404908604FF0AA003D4965
:1033600008604FF055003249C1F88C0000BF2E486C
:10337000006810F0806FFAD00320374908604FF0E2
:10338000AA002B49C1F88C004FF055003149086064
:1033900000BF2548006800F04070B0F1407FF8D1D0
:1033A00023202E4908604FF0AA002149C1F8AC0043
:1033B0004FF055002A4908604FF001002949086084
:1033C0004FF0AA00264908604FF055001849C1F88F
:1033D000AC0000BF2448006810F4806FFAD00320CE
:1033E000204908604FF0AA001149C1F8AC004FF025
:1033F00055001B49086000BF1B48006800F440707E
:10340000B0F5407FF8D11948194908604FF0000025
:103410000749C1F8C8010846006820F4704040F42C
:10342000804008607047000088C00F400CC10F400A
:1034300000C00F4000093D0004C10F40B4C2072086
:10344000001BB700A0C10F40ACC10F4063000500D6
:1034500084C00F408CC00F4080C00F40A4C00F40FC
:10346000ACC00F40A0C00F40A8C00F40DE872804AA
:10347000C4C00F400420464909680870002045492F
:1034800009680860434909688860424909684860DA
:1034900040490968C8613F490968C86000213D4842
:1034A0000068816100203B490968086100213948B2
:1034B000006841613848394A1268C2E9001038484A
:1034C000364A1268C2E902103648344A1268C2E924
:1034D00004103548314A1268C2E906102E482F4AB6
:1034E0001268C2E908102E482C4A1268C2E90C1072
:1034F0002C482A4A1268C2E90A102B48274A126847
:10350000C2E90E100A2025490968486400202349B1
:10351000096881F8400070471CB5FFF7ABFF00F069
:103520005BF800F081F800F075FBFCF7D1FE00F0CD
:1035300065FCFFF7B5F9FDF733F84FF408511B4868
:10354000FCF7DEFE1A481B495A230022CDE9001081
:1035500011460220FCF794FF00200090034632221F
:10356000012101900620FCF78BFF00F0F9FD00F02F
:10357000C9FC00F00CFAFCF7C7FD13F072F900204B
:1035800011F037F800200249096808701CBD0000DE
:10359000A0C207209CC2072000004940ACC20720FF
:1035A000000024C000408F4000003440000048422A
:1035B0006F12033B6F12833A10B5002807DACA0670
:1035C000140ED44A00F00F031B1FD45403E0CA06A4
:1035D000130ED14A135410BD10B5D04800680A210B
:1035E000B0FBF1F0401E4FF0E02148610720086178
:1035F000CA4800680A21B0FBF1F4B4F1807F00D31F
:1036000011E024F07F40401E4FF0E02148611F216F
:103610004FF0FF30FFF7D0FF00204FF0E02188612E
:103620000720086100BF10BD10B5BD48006840F418
:103630004100BC49C1F8C4000846D0F8C40040F0BD
:103640000200B74908604FF003004FF04021486185
:103650004FF00000C8600846406840F00100486034
:10366000B14888614FF001010846FFF7A5FF01202E
:103670000121814042094FF0E02303EB8202C2F8AE
:10368000001100BF10BD1CB519F088FBA7480068E9
:10369000406C00EB80004000A5490988884205D9AC
:1036A000A3480088401CA24908800FE0A148007888
:1036B00060B10020A04908709E4908700090034640
:1036C0000122114601900620FCF7DAFE1CBD2DE90F
:1036D000F0414FF0402000684FF0402108609748CB
:1036E0000078052190FBF1F201FB1207384613F038
:1036F00027FE06464FF07E5113F024FC05464FF09E
:103700007C5113F055FC0446002113F0E9FE35D13D
:103710008B48806A40F00500894988620846806AC3
:1037200040F03000886200F0F2F913F02BF9854880
:1037300000680078C0F3400078B98348007860B131
:10374000002082490968C8617E480068007820F03E
:103750000100401C7B49096808707A4800680078BD
:1037600020F00200774909680870764800684078C0
:1037700020F00100401C734909684870BDE8F081E1
:1037800070B5002013F0DCFD05464FF07C5113F0BE
:103790000FFC0446002113F0A3FE22D16948006803
:1037A0000078C0F3C000E0B167480078C8B15C4859
:1037B000006840F480505B49C1F8C400614800686B
:1037C000007820F008005F490968087060480068C8
:1037D00020F0C0605E4908600846006840F4803010
:1037E000086070BD2DE9F04F85B0FFF770FFFFF75F
:1037F000C7FF52480078401C504908704B48006889
:1038000090F84000002836D148480068D0E90243CB
:10381000464800682246D0E90061304613F0A9FC12
:10382000CDE9020149490968086813F001FE8046A4
:103830003E480068D0E902633246404613F099FCE6
:1038400004460022434B13F09AFCCDE90001DDE968
:10385000022313F006FD824613F0D1FDC0B23E49AB
:1038600004903E48CDE90001002211460220049B4D
:10387000FCF706FE35E02D480168D1E906430168F2
:10388000D1E904612246304613F073FC82468B4630
:103890002E490968486813F0CBFD044623480068A8
:1038A000D0E906633246204613F063FC80460022CE
:1038B000284B13F064FC52465B46CDE9000113F03F
:1038C000D0FCCDE9020113F09AFDC0B20490224869
:1038D0002249CDE90010002211460220049BFCF78A
:1038E000CFFD05B0BDE8F08F10B515480068C4B233
:1038F00014F0100F01D0FCF751FC14F0020F01D0AE
:1039000000F044FB0E4800680D49086010BD704788
:103910007047000018ED00E000E400E0B4C20720AA
:10392000C4C00F4000C00F401FBCBE00ACC2072087
:103930009400001016C0072017C007208C0000104C
:1039400000800040A8C20720B8C207209CC2072000
:1039500000400340008066406F12033B6F12833AC1
:10396000A34988680221A24A516001215160704731
:10397000A048006840F400009F49C1F8C4004FF01F
:1039800000009B4908674FF01800C860704700B5F9
:10399000FFF7EEFFFFF7E4FF00BD30B50025002381
:1039A000002448E0FFF7DCFF00BF9448406BC0F301
:1039B000C04018B98E4880686428F6D3FFF7D0FF5E
:1039C00003468F4801680068401C8D4A10608D488E
:1039D00040F82130282B01D3432B01D9002030BDE2
:1039E0000023FFF7BDFF00BF8448406BC0F3C04019
:1039F00018B17F4880686428F6D3FFF7B1FF03460B
:103A00007F4801680068401C7D4A10607D4840F88E
:103A100021303C2B08D9502B06D2C4F107010120DC
:103A200088402843C5B205E00A2B01D3642B01D995
:103A30000020D4E7641C082CB4DB2846CFE700B58F
:103A40000023FFF78DFF00BF6C48406BC0F3C04000
:103A500018B1674880682D28F6D3FFF781FF034629
:103A6000674801680068401C654A1060654840F876
:103A70002130052B01D32D2B01D9012000BDFFF7EB
:103A80006FFF00BF5D48406BC0F3C04018B9584895
:103A900080686428F6D3FFF763FF0346584801683F
:103AA0000068401C564A1060564840F82130462BAA
:103AB00001D35A2B01D90120E0E7FFF751FF00BFE6
:103AC0004E48406BC0F3C04018B149488068642834
:103AD000F6D3FFF745FF0346494801680068401CDC
:103AE000474A1060474840F82130462B01D35A2BF3
:103AF00001D90120C2E70020C0E700B50346FFF767
:103B00002FFF00BF3A4880689842FBD300BD2DE9E3
:103B1000F84F0024A2460020394908603A4908704D
:103B20003648006A40F40020344908624FF400200F
:103B3000C86344F25060FFF7E0FF3048006A20F4A9
:103B400000202E490862FFF77AFF08B1BDE8F88F20
:103B50004FF0000908E0FFF720FFC9F10301C90099
:103B60008840044309F10109B9F1040FF3DBFFF7C1
:103B700014FF8246200E8DF80000200C8DF8010005
:103B8000200A8DF80200E0B28DF803009DF80000D5
:103B90009DF8011008449DF8021008449DF8031098
:103BA0000844194908700846007850451ED14FF660
:103BB000FF7101EA144013F0E2FB07460022134BA9
:103BC00013F04FFB054613F06FFC1149096888603C
:103BD000A0B213F0D4FB074600220C4B13F041FBBC
:103BE000054613F061FC0A490968086000BFADE7AB
:103BF00000400940C4C00F4000C00F4000C0092071
:103C000098000010F00000109C00001000002440FC
:103C10009CC207206748006840F480506649C1F89C
:103C2000C4006648406840F48030644948600846F3
:103C3000406C20F44030486461480068614940EAC3
:103C400001005F4908600846C06840F00200C86093
:103C50005D480068007820F0080000F108005A492B
:103C6000096808705648C06820F480705449C860DC
:103C70004FF016004FF0010101FA00F14FEA501227
:103C80004FF0E02303EB8202C2F8001100BF70473F
:103C90002DE9FC5F4D480078002865D0012862D1ED
:103CA0004748006820F48030454908604969C1F3FD
:103CB0000B1013F04EFB4649086046494448006823
:103CC00013F076F9424908600846006813F0B0FB2B
:103CD00006460022404B13F04FFA04460D463C487E
:103CE000006813F0A5FB064600223C4B13F047FA90
:103CF000804622462B4613F0B4FA824613F0D4FBDA
:103D0000334908600020009003460190344802685F
:103D1000203203212E48006800F062F928498969A1
:103D2000C1F30B1013F015FB2E490860084600681C
:103D300013F07EFB804600222B4B13F020FA064640
:103D400000222A4B13F08DFA044613F0ADFB2449F0
:103D50000968C8601C480068007820F00800083036
:103D600019490968087022E015480069C0F3072066
:103D70001F49204A126888541E4801680068401C88
:103D80001C4A106045F6BF5081420FD300201146F7
:103D90000860194948610C480068007820F08000EC
:103DA000803009490968087000F081F800BF00BF41
:103DB000BDE8FC9FC4C00F4000C00F4000C00240DF
:103DC0000040034002FF2100A8C20720B8C207201C
:103DD000A000001000F07F450000F03F008051403F
:103DE0009CC20720A40000100080404000FEAF40AD
:103DF00010040010A8000010008000403A484068FD
:103E000040F480403849486040F6220037498861D4
:103E10000220486001204860002048610120012103
:103E2000814042094FF0E02303EB8202C2F8001107
:103E300000BF704700202E49087001202D490870EE
:103E40002D4800682D4908602B48C0682C4908603F
:103E500001202949C8600846006820F0FF0008607A
:103E60000846006840F0010008600846006820F439
:103E70007F4008600846006840F48070086008468B
:103E8000006820F4803008600846006820F0E06098
:103E900008600846006840F0C060086002201349CE
:103EA00048614860012048603120C863704711486C
:103EB0000078012816D1114800680F4908601048A1
:103EC0000068C8600846006820F0E06008600846A6
:103ED000006840F47F400860012005490870002018
:103EE000044908707047000000C002400080004094
:103EF000B8C207208D00001000400340BCC207205C
:103F0000C0C207202F48406840F400102D49486087
:103F100040F622002C4908810E2048602B4800689A
:103F2000007820F0800080302849096808707047C8
:103F30000A2905DDA1F10A0200FA02F290B200E0BE
:103F40000841214A12684FF6C0739A431E4B1A600B
:103F50001A4612684FF4803343EA80131A431A4B0F
:103F60001A6070471A48006840F001001949C1F80A
:103F700010014FF01800184948611848C8614FF007
:103F8000020048604FF00100486070471048006828
:103F900020F001000F49C1F810010C4800680078BA
:103FA00020F0800000F180000849096808700A4884
:103FB000406920F03800084948614FF0000002498C
:103FC0000860704700C0024000C00840A8C2072037
:103FD0001041005000400050008000403FA5AE025C
:103FE0002DE9FC5F81468A4614469B46BAF1000FD4
:103FF00009D0BAF1010F24D0BAF1020F3DD0BAF1C5
:10400000030F57D13CE04A49087813F0A2F94FF06A
:104010007E510190484612F08FFF8046454912F0CC
:10402000C7FF0746019912F08DFF064613F0B4F959
:10403000C0B2401C3E490D5C284613F08AF920604E
:1040400039E03D49087813F084F907464FF07E5176
:10405000484612F071FF8046364912F0A9FF064625
:10406000394612F06FFF054613F096F9C0B2401CB6
:104070003149085C8BF800001DE0C4F800901AE09C
:10408000484613F0D5F92D4A2D4BCDE9000113F028
:1040900076F807462B4A2C4B12F0CAFF054613F060
:1040A00003FA20600021206813F01AFA01D20020E0
:1040B000206000BF00BF00BFBDE8FC9F2DE9F047B6
:1040C00088B04FF0000A2CE0504613F047F98046C4
:1040D0001E4A1F4B13F053F800224FF08043CDE9E6
:1040E000000113F0BEF800221A4BCDE9020113F0D3
:1040F00046F8064617F0F4FD0022174BCDE90401FF
:1041000013F03DF804460022134B12F091FFCDE965
:10411000060113F074F91149096801F80A000AF15F
:10412000010A45F6C0508245CEDB08B0BDE8F087F5
:10413000D2C207200000C642C4C207200BB5A67930
:10414000C729F0BFA835CD3B4E8159407A008BFC82
:10415000FA2119400070C74000C05F4010040010F1
:104160001748006840F000501649C1F8C4004FF0ED
:104170000100154908634FF0400048631348006888
:104180001349096808601349086013481049096811
:1041900048600D49C1F804010D4800680C490968E0
:1041A00088600E4908600E4801F104010860084962
:1041B0000968C8604FF41C600A4908607047000035
:1041C000C4C00F4000C00F40004000501004001059
:1041D000E8C207200041005020C0084008410050BC
:1041E000C05D0004104100502DE9F04704468846A8
:1041F000FB48844202D0FB48844200D103E04321C3
:10420000F9A000F087FEF648844204D12A2000F08D
:104210001EFE074609E0F348844204D1142000F052
:1042200016FE074601E0BDE8F08700254FF0FF3994
:1042300002260AE0681C7043B7FBF0F9C14504D9B7
:104240006D1CFF2D01D90025B61CC145F2D8206890
:10425000C0B2206020684FF6FF7101EA05210843D3
:104260002060F0B2206100BFDDE770B504460D4666
:10427000DB48844202D0DB48844200D103E0812144
:10428000D9A000F047FED648844204D10121480558
:1042900000F0FAFD08E0D348844204D10121001562
:1042A00000F0F2FD00E070BDA88829890843298A42
:1042B00008432988084386B22660287B00F00F0651
:1042C000666020466969FFF78FFF00BFEBE710B516
:1042D0000446C348844202D0C248844200D103E06D
:1042E000A821C1A000F016FEBD48844205D10021DE
:1042F0004FF4001000F0C8FD06E0BA48844203D134
:104300000021001500F0C0FD10BD10B50446B448F2
:10431000844202D0B348844200D103E0C021B2A05D
:1043200000F0F8FD206800F00F0010BD0021416092
:104330008160B7494161072101600021C1600161CD
:10434000704770B504460D46A548844202D0A54882
:10435000844200D103E0E521A3A000F0DBFD0DB114
:10436000012D00D103E0E6219FA000F0D3FD012D37
:1043700004D1606840F00200606003E0606800F013
:104380000D00606070BD70B504460D4694488442CF
:1043900002D09448844200D103E0FE2192A000F0B4
:1043A000B9FD0DB1012D00D103E0FF218EA000F079
:1043B000B1FD012D04D1606840F00100606003E0B0
:1043C000606800F00E00606070BD70B504460D4678
:1043D0008348844202D08348844200D104E04FF4F1
:1043E0008D7181A000F096FD0DB1012D00D104E08A
:1043F00040F21B117CA000F08DFD012D04D16068FE
:1044000000F00700606003E0606840F00800606052
:1044100070BD70B504460D467148844202D07148A3
:10442000844200D104E04FF49A716FA000F072FD55
:10443000A8B2A06070BD10B504466948844202D09D
:104440006848844200D104E04FF4A27166A000F0F5
:1044500061FDA06880B210BD2DE9F74F82B006461D
:104460000C460020E0606060606103E03046FFF7CA
:10447000E2FF0746F06810F0040FF7D10320306226
:104480003046FFF742FF082801DD012500E0002546
:10449000049800287AD125B9D4F80890D4F800A05F
:1044A00003E0D4F808B02068019060E0F06810F0F4
:1044B000020F2ED02169606888422AD0206888B90E
:1044C0003DB9FF213046FFF7A4FF6068401C6060E3
:1044D0001FE04FF6FF713046FFF79BFF6068801CBE
:1044E000606016E055B99AF800103046FFF791FF6A
:1044F0000AF1010A6068401C60600AE001980188C6
:104500003046FFF786FF0198801C01906068801C90
:104510006060D6F8188018F0010F07D048F40070DA
:1045200060614FF0FF3005B0BDE8F08F17E0304616
:10453000FFF781FF0746A06848B125B989F80070E8
:1045400009F1010903E0ABF800700BF1020B1DB992
:10455000E068401CE06002E0E068801CE060F06819
:1045600010F0040F03D0D4E903018842DFD12169A0
:10457000606888429AD1D4E90301884296D14FF409
:1045800080706061206810B16068CCE705E0A068C9
:1045900008B1E068C7E70020C5E7049801287DD18D
:1045A0006BE0206888B93DB9FF213046FFF731FF45
:1045B0006068401C606036E04FF6FF713046FFF7E0
:1045C00028FF6068801C60602DE01DBBD4E90002FC
:1045D000815C3046FFF71DFF6068401C606022E090
:1045E00000800840000003402E2E5C4D656E755C17
:1045F0004669726D776172655C736F757263655C35
:104600006C7063313778785F7373702E63000000CD
:1046100040420F00D4E90002815A3046FFF7F9FE0C
:104620006068801C6060D6F8188018F0010F05D013
:1046300048F4007060614FF0FF3074E715E03046D9
:10464000FFF7F9FE0746A06838B11DB9D4E9021298
:104650008F5402E0D4E902128F521DB9E068401C69
:10466000E06002E0E068801CE060F06810F0040F99
:1046700003D0D4E903018842E1D1F06810F0020FC1
:1046800003D02169606888428BD1D4E90301884254
:1046900003D121696068884204D000E007E00F2060
:1046A000706102E04FF48070606100203BE74FF0E2
:1046B000FF3038E770B505460C467748854202D092
:1046C0007648854200D105E04FF40571AFF2E8006D
:1046D00000F020FC012C07D0022C05D0042C03D0C4
:1046E000082C01D0102C00D105E040F21521AFF2CA
:1046F000081000F00FFCE868204201D0012070BDD6
:104700000020FCE770B504460D4616466248844218
:1047100002D06248844200D105E04FF40B71AFF241
:10472000381000F0F7FB012E03D160692843606167
:1047300004E060690F21A9430840606170BD70B555
:1047400005460C465448854202D05448854200D163
:1047500005E040F24921AFF2701000F0DBFB012CC4
:1047600005D0022C03D0042C01D0082C00D105E088
:1047700040F24A21AFF2901000F0CCFBA869204231
:1047800001D0012070BD0020FCE710B5044642486E
:10479000844202D04148844200D105E04FF41671B2
:1047A000AFF2BC1000F0B6FBA06910BD70B50546B5
:1047B0000C463948854202D03848854200D105E090
:1047C00040F26D21AFF2E01000F0A4FB012C05D007
:1047D000022C03D0042C01D0082C00D105E040F2BB
:1047E0006E21AFF2FC1000F095FBE869204201D089
:1047F000012070BD0020FCE770B504460D46264838
:10480000844202D02548844200D105E040F2812153
:10481000AFF22C2000F07EFB012D01D0022D00D143
:1048200005E040F28221AFF2402000F073FB2562E8
:1048300070BD70B504460D4616461748844202D036
:104840001648844200D105E040F29721AFF268207B
:1048500000F060FB022D01D0012D00D105E04FF4E6
:104860002671AFF27C2000F055FB0EB1012E00D175
:1048700005E040F29921AFF2902000F04BFB012EB1
:1048800003D1606A2843606204E0606A0321A9439F
:104890000840606270BD00000080084000000340D6
:1048A000F0B504460B461546194660003B4A1029F0
:1048B00001D31039401C52F820604FEA410C032705
:1048C00007FA0CF7BE4342F8206052F820604F0010
:1048D00005FA07F73E4342F82060F0BDF0B5044604
:1048E0000B461546194660002C4A4032102901D368
:1048F0001039401C52F820604FEA410C032707FA98
:104900000CF7BE4342F8206052F820604F0005FAD1
:1049100007F73E4342F82060F0BD30B50B461F4913
:104920006831012A07D151F8204001259D402C43D0
:1049300041F8204006E051F8204001259D40AC435D
:1049400041F8204030BD012806D11449896A41F060
:104950000801124A916206E028B91049896A21F0DB
:1049600008010E4A91627047012800D1052201B961
:104970000A220A4BDA67704710B50446A2786178BC
:104980002078FFF78DFFE27861782078FFF7A6FFA7
:10499000227961782078FFF7C0FF10BD00C0024087
:1049A00001460020052912D2DFE801F00305080BBB
:1049B0000E00F8480CE0F748203009E0F548403098
:1049C00006E0F448603003E0F248803000E000BFC9
:1049D00000BF704701460020052912D2DFE801F030
:1049E0000305080B0E00EB480CE0EA48203009E014
:1049F000E848403006E0E748603003E0E5488030B2
:104A000000E000BF00BF704701460020052912D218
:104A1000DFE801F00305080B0E00DE480CE0DD487E
:104A2000203009E0DB48403006E0DA48603003E03F
:104A3000D848803000E000BF00BF70472DE9F0414A
:104A400007460D4616463846FFF7AAFF04463CB116
:104A50001EB120682843206002E02068A84320603F
:104A6000BDE8F08170B506460C463046FFF798FF6A
:104A7000054605B1AC6170BD70B506460C463046C2
:104A8000FFF78EFF054605B1EC6170BD70B50546B8
:104A90002846FFF785FF04460CB1606970BD002011
:104AA000FCE718B912B9BC4B196014E0022803D115
:104AB00012B9BA4B19600EE020B9012A02D1B84BE5
:104AC000196008E0022804D1012A02D1B54B19600F
:104AD00001E000BFFEE7704703463BB932B9B24878
:104AE000006820FA01F000F001007047022B07D1A6
:104AF00032B9AE48006820FA01F000F00100F4E796
:104B000043B9012A06D1AA48006820FA01F000F052
:104B10000100EAE7022B08D1012A06D1A548006866
:104B200020FA01F000F00100DFE700BFFEE710B956
:104B3000A14A116006E0022802D1A04A116001E0FA
:104B400000BFFEE7704770B504460D461646324674
:104B500029462046FFF772FF70BD70B504460D462A
:104B600029462046FFF77EFF70BD70B504460D460E
:104B700029462046FFF780FF70BD10B50446204649
:104B8000FFF784FF10BD70B504460D461646324649
:104B900029462046FFF785FF70BD70B504460D46D7
:104BA0001646324629462046FFF796FF70BD10B5DF
:104BB00003460C4621461846FFF7B9FF10BD2DE904
:104BC000F04107460D4616463846FFF7E9FE044613
:104BD0003CB11EB120692843206102E02069A8434E
:104BE0002061BDE8F0812DE9F04180460E46154672
:104BF0001F464046FFF7EEFE04468CB147B11EB19A
:104C00006088284360800BE020882843208007E0EC
:104C10001EB16088A843608002E02088A8432080FD
:104C2000BDE8F0812DE9F04180460E4615461F464D
:104C30004046FFF7CFFE04468CB147B11EB1608AF3
:104C4000284360820BE0208A2843208207E01EB1BF
:104C5000608AA843608202E0208AA8432082BDE8DF
:104C6000F0812DE9F04107460E4614463846FFF71D
:104C7000B1FE05461DB10EB16C8300E02C83BDE88A
:104C8000F0812DE9F04107460E4614463846FFF7FD
:104C9000A1FE05461DB10EB1EC8300E0AC83BDE87A
:104CA000F08170B506460D463046FFF793FE044688
:104CB00024B10DB1E08A70BDA08AFCE70020FAE7BC
:104CC0002DE9F04180460C4616461F464046FFF748
:104CD0009BFE05465DB12FB1032C08DC285D3043F7
:104CE000285504E0032C02DC285DB0432855BDE8BC
:104CF000F0812DE9F04180460C4616461F4640469D
:104D0000FFF782FE05469DB14FB1032C10DC05F183
:104D10001000005D304305F11001085508E0032C38
:104D200006DC05F11000005DB04305F110010855E7
:104D3000BDE8F0812DE9F04107460C46154638469E
:104D4000FFF762FE064626B1032C02DC06F11800CE
:104D50000555BDE8F0812DE9F04107460C461546A2
:104D60003846FFF751FE064626B1032C02DC06F159
:104D70001C000555BDE8F08170B506460C4630466E
:104D8000FFF742FE0546DDB1032C19DC05F11400E6
:104D9000005D70BD00C0092090800240B0800240DC
:104DA00094800240B480024084800240A48002408B
:104DB00088800240A88002408C800240AC80024083
:104DC0000020E6E710B50A46202801D2034601E09C
:104DD000A0F120031946202814D2464B1B684FF03F
:104DE000030404FA01F423EA0403434CC4F8A83191
:104DF000404B1B6802FA01F443EA04033E4CC4F83A
:104E0000A83113E03D4B1B684FF0030404FA01F492
:104E100023EA0403384CC4F8AC31384B1B6802FA5F
:104E200001F443EA0403344CC4F8AC3110BD01462C
:104E3000202903D20A462F4B186803E0A1F1200273
:104E40002E4B186820FA02F303F00300704770B588
:104E500006462B4804683046FFF7E9FF054635B1A2
:104E6000012D06D0022D06D0032D08D105E0042522
:104E700005E0012503E0022501E0082500BF00BF91
:104E8000B4FBF5F4204670BD01290AD11D4A126811
:104E90001D4B00EA030342EA0302174BC3F8C42088
:104EA0000AE049B9174A1268174B23EA000302EADD
:104EB0000302114BC3F8C420704700201349086057
:104EC00030BF704704201249086008200F4908606D
:104ED00030BF704704200E49086009200B49086064
:104EE00030BF704704200A49086003200749086062
:104EF00030BF7047A8C10F4000C00F40ACC10F4089
:104F0000B4C20720C4C00F40DEF7EFEFC0C00F40AF
:104F100010ED00E000BFFEE770B505460C46A4F1B9
:104F20002000044A02EB00111022284611F0D9FE9D
:104F300070BD0000F4D60100FE48006C40F0FF0098
:104F4000FC4908640846006840F4FF000860084611
:104F5000006A40F0605008620846006C40F48070BF
:104F600008647047002109E0002201E0531C9AB256
:104F700040F275439A42F9DB4B1C99B28142F3DB54
:104F8000704700B587B0FFF7D7FF6420FFF7EAFF4F
:104F900000200590059803904FF48070E549C8659E
:104FA000C004C8638000886303980290029801904F
:104FB0000198496D60F30701DE484165406920F4BE
:104FC000FF024FF4FF01019801EAC0100243D948E3
:104FD000426100BF4FF08050D649C86300BF4FF018
:104FE0008050D44988630015886500BF00BFC8653C
:104FF000C0048863400088634000C86300BF08465F
:10500000006C20F0FF0008640846006820F4FF00F0
:1050100008600846406DC1B20291C648406900F47C
:10502000FF010191DDE9010141EAD0110291C1487E
:10503000006C40F0FF00BF4908640846006840F477
:10504000FF01BC480160029803904FF00050B9493D
:1050500088634115B74881650398049004980690C9
:105060000698A0F51341253905D00698A0F51341FF
:10507000283942F0A7820120AF490870B12004907E
:10508000A5200590049803904FF48070A949C86545
:10509000C004C8638100A748816303980290029806
:1050A0000190A4490198496D60F30701A148416549
:1050B000406920F4FF014FF4FF02019802EAC0109A
:1050C00001439C48416100BF4FF08051C16300BF64
:1050D0004FF080519748816340159649886500BF1D
:1050E000059803904815C865C0048863039802902A
:1050F000029801900198496D60F307018D48416560
:10510000406920F4FF024FF4FF01019801EAC0104A
:1051100002438848426100BF4FF080508549C86310
:1051200000BF4FF080508349886301158148816535
:1051300000BF00BFB12005900598039008467D4947
:10514000C865C004C8638000886303980290029811
:1051500001900198496D60F3070176484165406907
:1051600020F4FF024FF4FF01019801EAC01002434E
:105170007048426100BF4FF080506E49C86300BF65
:105180004FF080516B4881634115816500BF00BFBE
:1051900040156849C865C10466488163480065498F
:1051A00088634000C86300BF0846006C20F0FF0021
:1051B00008640846006820F4FF0008600846406D57
:1051C000C0B202900846406900F4FF000190DDE99A
:1051D000011040EAD11002905648006C40F0FF00E8
:1051E000544908640846006840F4FF0008600298CB
:1051F00003904FF000508863401588650398049031
:10520000049806900698A5285ED103204A490870A4
:10521000B120049000200590049803904FF4807012
:105220004449C865C004C86380008863039802903D
:10523000029801900198496D60F307013D4841656E
:10524000406920F4FF024FF4FF01019801EAC01009
:1052500002433848426100BF4FF080503549C8636F
:1052600000BF4FF080513348816340153149886554
:1052700000BF059803904815C865C004886303986B
:105280000290029801900198496D60F30701294846
:105290004165406920F4FF014FF4FF02019802EAE2
:1052A000C01001432348416100BF4FF080502149A5
:1052B000C86300BF4FF080501E49886301151D4828
:1052C000816500BF00BF02E002201B490870E52095
:1052D000049047F6F0000590049803904FF4807016
:1052E0001449C865C1041348C16388001149886323
:1052F00003980290029801900198496D60F30701AC
:105300000C484165406920F4FF024FF4FF01019809
:1053100001EAC01002430748426100BF4FF08050CD
:105320000449C86300BF4FF08050024988630015EC
:10533000886503E000C00920AC00001000BF05989C
:1053400003904815C865C0048863039802900298CA
:1053500001900198496D60F30701FE48416540697D
:1053600020F4FF024FF4FF01019801EAC01002434C
:10537000F848426100BF4FF08050F649C86300BF53
:105380004FF08050F34988630015886500BF00BF67
:105390000120049000020590049803904815C86508
:1053A000C004C8638000886303980290029801904B
:1053B0000198496D60F30701E6484165406920F4B2
:1053C000FF024FF4FF01019801EAC0100243E148D7
:1053D000426100BF4FF08050DE49C86300BF4FF00C
:1053E0008050DC4988630015886500BF05980390EC
:1053F0004815C865C004886303980290029801901C
:105400000198496D60F30701D2484165406920F475
:10541000FF024FF4FF01019801EAC0100243CD489A
:10542000426100BF4FF08050CA49C86300BF4FF0CF
:105430008050C84988630015886500BF00BF0220FE
:1054400004904FF4E0600590049803904815C865F7
:10545000C004C8638000886303980290029801909A
:105460000198496D60F30701BA484165406920F42D
:10547000FF014FF4FF02019802EAC0100143B54852
:10548000416100BF4FF08050B249C86300BF4FF088
:105490008050B04988630115AE48816500BF05980A
:1054A00003900846AB49C865C0048863039802901E
:1054B000029801900198496D60F30701A548416584
:1054C000406920F4FF024FF4FF01019801EAC01087
:1054D0000243A048426100BF4FF080509D49C8631D
:1054E00000BF4FF080519B48816340159949886502
:1054F00000BF00BF0320049041F2300005900498E3
:1055000003904815C865C004C86380008863039889
:105510000290029801900198496D60F307018D484F
:105520004165406920F4FF014FF4FF02019802EA4F
:10553000C01001438748416100BF4FF0805085494A
:10554000C86300BF4FF080508249886301158148CD
:10555000816500BF0598039008467E49C865C00470
:10556000886303980290029801900198496D60F356
:10557000070178484165406920F4FF014FF4FF02BC
:10558000019802EAC01001437248416100BF4FF028
:1055900080507049C86300BF4FF080506D498863E8
:1055A0000015886500BF00BF04200490002005900E
:1055B000049803904815C865C004C86380008863D8
:1055C00003980290029801900198496D60F30701D9
:1055D00060484165406920F4FF024FF4FF010198E3
:1055E00001EAC01002435B48426100BF4FF08050A7
:1055F0005849C86300BF4FF0805056498863001572
:10560000886500BF059803904815C865C004886385
:1056100003980290029801900198496D60F3070188
:105620004C484165406920F4FF024FF4FF010198A6
:1056300001EAC01002434748426100BF4FF080506A
:105640004449C86300BF4FF0805142488163401510
:105650004049886500BF00BF0820049040F2072041
:105660000590049803904815C865C004C86380007D
:10567000886303980290029801900198496D60F345
:10568000070134484165406920F4FF024FF4FF01EF
:10569000019801EAC01002432E48426100BF4FF05A
:1056A00080502C49C86300BF4FF08050294988635F
:1056B00001152848816500BF0598039008462549D3
:1056C000C865C0048863039802900298019001980D
:1056D000496D60F307011F484165406920F4FF02EE
:1056E0004FF4FF01019801EAC010024319484261DA
:1056F00000BF4FF08051C16300BF4FF0805115488B
:10570000816340151349886500BF00BF09200490DC
:10571000002005900498039049150E48C165C804FF
:105720000C49C86380008863039802900298019036
:105730000198496D60F3070106484165406920F40E
:10574000FF024FF4FF01019801EAC0100243014833
:10575000426101E000C0092000BF4FF08050FE49C7
:10576000C86300BF4FF08050FB498863001588650F
:1057700000BF059803904815C865C0048863039866
:105780000290029801900198496D60F30701F24878
:105790004165406920F4FF024FF4FF01019801EADE
:1057A000C0100243EC48426100BF4FF08050EA490C
:1057B000C86300BF4FF08050E749886300158865D3
:1057C00000BF00BF0A2004900020059004980390B9
:1057D0004815C865C004C8638000886303980290B8
:1057E000029801900198496D60F30701DA4841651C
:1057F000406920F4FF024FF4FF01019801EAC01054
:105800000243D548426100BF4FF08051C16300BFE1
:105810004FF08050D04988630015886500BF059817
:1058200003904815C865C0048863039802900298E5
:1058300001900198496D60F30701C74841654069CF
:1058400020F4FF014FF4FF02019802EAC010014367
:10585000C148416100BF4FF08050BF49C86300BFDD
:105860004FF08051BC4881634015BB49886500BF3B
:1058700000BF0C2004900020059004980390481568
:10588000C865C004C86380008863039802900298CA
:1058900001900198496D60F30701AF484165406987
:1058A00020F4FF024FF4FF01019801EAC010024307
:1058B000A948426100BF4FF08051C16300BF4FF063
:1058C0008050A54988630115A348816500BF0598EC
:1058D00003900846A049C865C004886303980290F5
:1058E000029801900198496D60F307019A4841655B
:1058F000406920F4FF024FF4FF01019801EAC01053
:1059000002439548426100BF4FF080509249C863FE
:1059100000BF4FF080519048816340158E498865E3
:1059200000BF00BF0D200490002005900498039054
:105930004815C865C004C863800088630398029056
:10594000029801900198496D60F307018248416512
:10595000406920F4FF024FF4FF01019801EAC010F2
:1059600002437D48426100BF4FF080507A49C863CE
:1059700000BF4FF08050784988630015886500BFEC
:10598000059803904815C865C00488630398029081
:10599000029801900198496D60F307016E484165D6
:1059A000406920F4FF024FF4FF01019801EAC010A2
:1059B00002436948426100BF4FF080506649C863A6
:1059C00000BF4FF08050644988630015886500BFB0
:1059D00000BF0F2004900020059004980390481504
:1059E000C865C004C8638000886303980290029869
:1059F00001900198496D60F307015748416540697E
:105A000020F4FF024FF4FF01019801EAC0100243A5
:105A10005148426100BF4FF080504F49C86300BFFA
:105A20004FF080504C4988630015886500BF059889
:105A300003904815C865C0048863039802900298D3
:105A400001900198496D60F3070143484165406941
:105A500020F4FF024FF4FF01019801EAC010024355
:105A60003D48426100BF4FF080503B49C86300BFD2
:105A70004FF08050384988630015886500BF00BF2B
:105A80001020049000200590049803904815C865E4
:105A9000C004C86381003048816303980290029873
:105AA00001902D490198496D60F307012A4841652D
:105AB000406920F4FF014FF4FF02019802EAC01090
:105AC00001432548416100BF4FF080502249C8631F
:105AD00000BF4FF08050204988630015886500BFE3
