:020000040000FA
:10000000F8230820AD020000B5020000B70200008E
:10001000B9020000BB020000BD02000000000000A9
:10002000000000000000000000000000BF0200000F
:10003000C102000000000000C3020000932B00007A
:10004000C7020000F12C0000372E00005D2E0000DA
:100050005F2E0000F3570100C7020000C702000036
:10006000E15A0100C7020000C7020000C7020000F9
:10007000C7020000C7020000C7020000C70200005C
:10008000C702000039060000C7020000C7020000D6
:10009000C7020000C7020000D5310000C7020000FF
:1000A000C7020000C7020000C7020000C70200002C
:1000B0007F0E0000C7020000C7020000C702000058
:1000C000C7020000C7020000C7020000DFF80CD022
:1000D00016F00AFE004800479D020000F8230820A1
:1000E000AA204107087255200872704700B50548DC
:1000F000410648600120086103200870FFF7F0FF07
:1001000000BD0000A0ACB9035448C06C5349C8649A
:100110000846C06CC8640846C06820F03000C8605B
:100120000846C06840F03000C8604D48006F4C4938
:1001300008670846806A40F0050088624948006800
:1001400040F004004849C1F8C4004FF000004449A1
:10015000C8600846406840F00200486008464068B1
:1001600020F0020048600846406840F00100486006
:100170003A48C06840F030003849C8604FF002008B
:100180004FF0010101FA00F14FEA50124FF0E02365
:1001900003EB8202C2F8001100BF704770B5002463
:1001A00000E0641C47F230508442FADB10202C49F6
:1001B00008602E480078401C2C49087008460078DA
:1001C00002284ADB2A480068294948602448C06A56
:1001D000086000202549087025490968244A5268AA
:1001E000881A16F058FB0646224916F04DF90546C6
:1001F0002946214816F07EF92049086020480078F9
:10020000401C1F4908700846007804281FD1144874
:10021000806A60F004001249886200201849087062
:100220001648006817490968C861174800680078CF
:1002300020F002001449096808701348006800782B
:1002400020F00100401C10490968087005E00448CE
:10025000806A40F005000249886270BD00C002401B
:1002600000800040C4C00F4000C00F4000000010DC
:100270000400001000007A44D313834E0C000010D9
:100280000100001000C207200CC2072010B519F0B1
:10029000A7FF10BD10B51AF097F910BD02F0B3FB1F
:1002A00003E001F097FBFFF7F5FFFAE70648804708
:1002B00006480047FEE7FEE7FEE7FEE7FEE7FEE74B
:1002C000FEE7FEE7FEE7FEE7E9270000CD000000BD
:1002D0000848406840F48020064948600846406C61
:1002E00020F4402048640448006840F004000249BB
:1002F0000860704700C0024000400340FFFFFFFF5E
:1003000070B505460C469A48006840F0400099498F
:10031000C1F8C4002946984816F0ECF8064616F0D5
:10032000DDFA401E954988610846406840F00900A2
:10033000486008464069002048610846406940F02E
:10034000020048618E4800696FF30B008C49086118
:100350000846C0688B4908408949C86000208A491E
:100360000968087025E088480068017844FA01F0BF
:100370004FF6FE71884315D08148016982480068B4
:10038000007842000120904001437D4801617B4894
:10039000C06C7D4909680978093101228A401043FF
:1003A0007649C864784800680078401C7649096836
:1003B00008707548006800780628D4DB062072496A
:1003C0000968087052E0704800680178891C44FA96
:1003D00001F04FF6FE71884341D06848C16C6A480D
:1003E00000680078C01C0122824011436348C16448
:1003F000654800680078801F06282ED2DFE800F0EC
:10040000030A11181F265E48C06840F020005C49AE
:10041000C86023E05A48C06840F400705849C8607A
:100420001CE05748C06840F400605549C86015E0BA
:100430005348C06840F400405149C8600EE050483D
:10044000C06840F400304E49C86007E04C48C068BE
:1004500040F400104A49C86000E000BF00BF4A48AD
:1004600000680078401C48490968087046480068E0
:1004700000780C28A7DB002043490968087070BD8C
:100480002DE9FF5F04460D4616469946DDF838A073
:10049000032C00D9A41D504616F04DFA4FF033320C
:1004A0003A4BCDE9020116F00CF9074616F06AFA4C
:1004B00082460F9816F03FFA354A364BCDE90201D5
:1004C00016F0FFF8074616F05DFA0F90D5B1012D32
:1004D0003ED1304616F0DFF92F49039016F00AF8A6
:1004E00080462649886916F0D6F98346414615F0BC
:1004F000CBFF074616F0F2F92049042202FB041153
:10050000886126E0484616F0C6F92449009015F0A7
:10051000F1FF514602900F9815F0B0FF019002993B
:1005200015F0B2FF8346514615F056FF124903906D
:1005300015F0AAFF80464FF07E5115F09FFF074649
:1005400016F0CCF90D49042202FB0411886100E089
:1005500000BF00BF032C00D9A41F0848006D012173
:10056000A14041F00101084304490865BDE8FF9F2F
:10057000C4C00F4000C00F4020BCBE4B00800140F3
:1005800000C00240CF30CCFF08C207203333E33F26
:10059000CDCCCCCCCCCCF43F0000C84200003443DE
:1005A00010B53748006840F400703649C1F8C400FF
:1005B0004FF01200344908724FF0000008644FF009
:1005C000010008720846007B40F00100087340F209
:1005D000E47088874FF001002C4908702C4908709E
:1005E0004FF00000A1F104010870A1F104010870AE
:1005F000A1F1040108704FF011004FF0010101FA60
:1006000000F14FEA50124FF0E02303EB8202C2F8F0
:10061000001100BF4FF00001002807DACA06140ECF
:100620001C4A00F00F031B1FD45403E0CA06130E2C
:10063000194A135400BF10BD1FB5184800688068E0
:10064000401C1649096888600F48007840F0010096
:100650000D4908701248007812490978124A127838
:10066000094B9B8FCDE90032CDE90210064890F886
:10067000383010F82C2F0DA1144816F0E7FD1FBDDF
:10068000C4C00F4000C00F4000400240384002404C
:100690002C40024018ED00E000E400E008C2072012
:1006A000204002402440024028400240253032646D
:1006B0002F253032642F253034642D253032643AB2
:1006C000253032643A25303264000000A400001066
:1006D00007280CD2DFE800F00405060708090A0025
:1006E00005E004E003E002E001E000E000BF00BF3D
:1006F00000BFFEE710B518F0DDFA19F07FFE19F023
:1007000089FC1BF0F7FD1AF0F7FE18F0A3FEBDE818
:10071000104017F0AFBF10B518F0E6FA19F074FEEC
:1007200019F0E6FC1AF0B8FFBDE8104019F070BAF5
:1007300000207047704770470020704700207047C6
:1007400000207047704770472DE9F04705460E4678
:1007500091469A46287862284CD010DC4D2873D0F8
:1007600006DC412871D0442870D048286FD1B7E00A
:1007700053286DD054286CD06128F7D148E07428F4
:100780000ED006DC682827D0692873D07028EDD1F8
:1007900014E076287CD078285CD07928E6D145E032
:1007A00062490968086816F0C6F807463A460B46DB
:1007B000291D304616F04AFD0446B2E05B4909683F
:1007C000486816F0B8F807463A460B46291D3046E9
:1007D00016F03CFD0446A4E054490968886816F008
:1007E000AAF807463A460B46291D304616F02EFD5C
:1007F000044696E04D490968086A16F09CF80746D9
:100800003A460B46291D304616F020FD044688E086
:1008100046490968886916F08EF807463A460B463D
:10082000291D304616F012FD04467AE03F4909685A
:10083000486916F080F807463A460B46291D3046AF
:1008400016F004FD04466CE038E02FE03FE062E083
:1008500058E04EE035490968086916F06CF807461B
:100860003A460B46291D304616F0F0FC044658E087
:1008700000E00DE02D490968C86816F05CF80746ED
:100880003A460B46291D304616F0E0FC044648E087
:1008900026490968C86916F04EF807463A460B46DD
:1008A000291D304616F0D2FC04463AE02048828FDB
:1008B000291D304616F0CAFC044632E01D48027875
:1008C00005F10401304616F0C1FC044629E01A483F
:1008D000027805F10401304616F0B8FC044620E029
:1008E0001648027805F10401304616F0AFFC0446C4
:1008F00017E01348027805F10401304616F0A6FC13
:1009000004460EE00F48027805F10401304616F067
:100910009DFC044605E00CA1304616F097FC044609
:1009200000BF00BFA0B2BDE8F087000000C20720F2
:1009300000400240384002402C4002402840024023
:1009400024400240204002403C703E592E2E2E2072
:1009500071756520717569657265732071756520A3
:10096000706F6E676120617175693F203A6C3C2F32
:10097000703E00001C200121814042094FF0E0231D
:1009800003EB8202C2F8001100BF70471C20012156
:100990008140FE4A430942F8231000BF704770B5FA
:1009A00005460E468EB9032405E015F8021BC8B2B1
:1009B000F7490855641C062CF7DB7E20F4490870C3
:1009C000FF204870FE20887009E0002405E015F83B
:1009D000021BC8B2EE490855641C062CF7DBFFF772
:1009E000D5FF4FF0A040006820F001004FF0A0417B
:1009F0000860E848006820F00300C1F80001E448FE
:100A00000079E349497940EA01204FF0A0410864A8
:100A1000DF488078DE49C97840EA01204FF0A041E4
:100A20004864DB480078DA49497840EA01204FF011
:100A3000A04188640846006840F44F4008600846BA
:100A4000D0F8000140F07800C1F80001FFF792FFF4
:100A5000012070BD00200FE000EB4001CE4A02EB08
:100A60004121CE4A42F83010002102EBC002516011
:100A7000CB4A42F82010401C0328EDD3C749C94A8D
:100A80001160C7494FF0A042C2F820114FF0020197
:100A9000C54A11604FF000014FF0A042C2F8281182
:100AA0007047002013E000EB4001C04A02EB4121F7
:100AB000BF4A42F83010BF4902EBC002516000212A
:100AC000BD4A42F8301002EBC0025160401C0428BD
:100AD000E9D3B749B94A1160B7494FF0A042C2F80B
:100AE0000C114FF00301B64A11604FF000014FF0B6
:100AF000A042C2F81811704710B5014641F4807049
:100B00004FF0A044A06201206062002307E04FF094
:100B1000A040406B10F0010F00D103E05B1CB3F567
:100B2000A02FF4D300BF00204FF0A0446062204605
:100B3000026B90B210BD10B540F480734FF0A0442A
:100B4000A3622346D962002207E04FF0A0435B6B0B
:100B500013F0010F00D103E0521CB2F5A02FF4D323
:100B600000BF10BD10B59748006840F0804096491E
:100B7000C1F8C4009548964988600846C06820F0CE
:100B80000F0000F10500C8604FF44F404FF0A04146
:100B900008604FF038007F4908604FF000008D4931
:100BA000086004E08B480068401C8A490860894856
:100BB0000068FF28F6D902204FF0A04108603020DD
:100BC00048604001486143F20F7008611220C8601C
:100BD0004FF430706F49086048F23C004FF0A0417C
:100BE00008624FF000007B49086004E07948006823
:100BF000401C7849086077480068FF28F6D93C20F7
:100C00004FF0A04108624FF40060886100207149F4
:100C1000086004E06F480068401C6E4908606D4839
:100C20000068FF28F6D900204FF0A04188614FF4FA
:100C30000041FFF780FF0020664908600FE00020B8
:100C4000FFF75AFF644908600846008810F4084F0F
:100C500000D109E05F480068401C5E4908605D48BB
:100C60000068B0F5801FEAD300BF0220FFF744FF01
:100C70005A4908600320FFF73FFF594908600846BA
:100C800000684FF6F07108405449098840EA014075
:100C9000A0F5F821F0391ED14FF480510020FFF764
:100CA0004AFF00204B4908600FE00120FFF724FFB6
:100CB000494908600846007810F0200F00D009E08C
:100CC00044480068401C4349086042480068B0F549
:100CD000801FEAD300BF00203E4908600FE00120DA
:100CE000FFF70AFF3C4908600846007810F0040F3F
:100CF00000D009E037480068401C36490860354894
:100D00000068B0F5803FEAD300BF1F20FFF7F4FE74
:100D1000314908600846007810F0100F11D04FF0EC
:100D2000A040406840F001004FF0A04148601948E1
:100D3000006840F48060C1F800014FF01500886041
:100D400003E012204FF0A04188602348007810F0A3
:100D5000080F05D04FF480704FF0A041886103E088
:100D600000204FF0A041886109480079084949797D
:100D700040EA01204FF0A04108640548807804490A
:100D8000C97840EA01204FF0A0412BE080E100E06B
:100D900010C0072000010050C40E0820A0F6072054
:100DA000B8F607201C01005024010050C4F60720AB
:100DB00060F60720FF05008080F60720080100503C
:100DC00010010050C4C00F4000C00F400501155075
:100DD00000C0024034C0072030C0072038C00720C0
:100DE0003CC0072048644D4800784C49497840EAA7
:100DF00001204FF0A0418864FFF753FEFFF72AFE61
:100E00002620474908604FF08800464908604FF6A1
:100E1000FF7001F1040108604FF0A040D0F800011C
:100E200040F003004FF0A041C1F8000108460068FF
:100E300040F00100086010BD70B53B4D296800F11D
:100E400004033A4D55F83140058805F103054FEA92
:100E5000A50202E020CB20C4521E002AFAD1058848
:100E60006D1E45F04045314E06EBC10675604D1CC8
:100E70002946032D00D100212B4D296070BD2DE99D
:100E8000F04740E02748001DC0F8008018F0080F28
:100E900038D02748046831E0264850F8347017F0FD
:100EA000804F00D123E0C7F30A00C51E40F2EA508C
:100EB000854202D82048074200D018E045F00040A3
:100EC00017F08CF906468EB106F1040A1B4850F85B
:100ED0003490E81C850804E059F8040B4AF8040B28
:100EE0006D1E002DF8D130461AF0EEF800BF601CE0
:100EF0000446042800D100240D480460104800680E
:100F0000A042C9D100BF0748001F00680549096811
:100F100010EA0108B6D1BDE8F087000010C0072034
:100F200000020050E40F005028010050A0F60720F6
:100F30001801005080F607200000901B60F6072083
:100F4000140100501CB50446FE480078012848D121
:100F5000FD4800882188884219DD2088A18808443E
:100F6000F9490988884212DDF7484088618888423B
:100F70000DDD6088E1880844F3494988884206DD30
:100F8000207A10B9012020721CBD0020FCE7EF4838
:100F90000068406C00EB80004000ED490988884201
:100FA0001CD80020009003463C220121019006201D
:100FB000FFF766FA0320E7490870E7480078012840
:100FC0000CDD0120E54908700420E2490870E24880
:100FD0000078022802D10120E14908700020DC4994
:100FE00008800020207200BFCEE72DE9F84F0446AC
:100FF0000E4617461D460095B4F800C0B4F80480AC
:10100000C444ACF1010C1FFA8CF2638819462088A5
:1010100014F0DBF90095B4F802C0B4F80680C444BB
:10102000ACF1010C1FFA8CF322886188104614F091
:10103000CCF90095B4F802C0B4F80680C444ACF111
:10104000010C1FFA8CF3B4F800C0B4F80480C44457
:10105000ACF1010C1FFA8CF2B4F802C0B4F80680AF
:10106000C444ACF1010C1FFA8CF1208814F0ADF9E6
:101070000095B4F802C0B4F80680C444ACF1010C89
:101080001FFA8CF3B4F800C0B4F80480C444ACF187
:10109000010C1FFA8CF2B4F800C0C444ACF1010C8E
:1010A0001FFA8CF0618814F090F9304615F0DFF8E3
:1010B0004008B4F8049009EBD971228802EB610171
:1010C000A1EBC0001FFA80FA00200090B4F806805F
:1010D00008EBD870628802EB6000083881B23B46AA
:1010E0003246504614F020FABDE8F88F00B589B0BA
:1010F0004FF4FC634FF6E0729A499B48FFF775FF87
:101100004FF4FC634FF6E07298A19948FFF76DFF2A
:101110004FF4FC634FF6E07296A19748FFF765FF26
:101120004FF4FC634FF6E07294A19648FFF75DFF21
:101130004FF4FC634FF6E07293A19548FFF755FF1B
:101140004FF4FC634FF6E07292A19548FFF74DFF14
:101150004FF4FC634FF6E07292A19448FFF745FF0D
:101160000820D721A823C022CDE9001090A103A810
:1011700016F06CF84FF4FC634FF6E07203A9904848
:10118000FFF733FF4FF4FC634FF6E0728DA18E48FA
:10119000FFF72BFF4FF4FC634FF6E07289A18B48F9
:1011A000FFF723FF4FF4FC634FF6E07285A18848F8
:1011B000FFF71BFF4FF4FC634FF6E07281A18548F7
:1011C000FFF713FF4FF4FC634FF6E07282A18348F0
:1011D000FFF70BFF4FF4FC634FF6E0727EA18048EF
:1011E000FFF703FF4FF4FC634FF6E0727AA17D48EE
:1011F000FFF7FBFE4FF4FC634FF6E07276A17A48EE
:10120000FFF7F3FE09B000BD30B587B04FF4FC63C3
:101210004FF6E07253495448FFF7E7FE4FF4FC6382
:101220004FF6E07251A15248FFF7DFFE4FF4FC6326
:101230004FF6E0724FA15048FFF7D7FE4FF4FC6322
:101240004FF6E07269A16E48FFF7CFFE6D4909685D
:10125000C86915F070FB044622460B466AA101A836
:1012600015F0F4FF6D480068007810F0010F23D0EE
:1012700064490968C86915F05EFB044622460B46BE
:1012800061A101A815F0E2FF4FF4FC634FF6E07294
:1012900063A16948FFF7A9FE60480068007820F064
:1012A00001005E49096808704FF4FC634FF6E07274
:1012B00001A96148FFF799FE4FF4FC634FF6E07215
:1012C0005EA16148FFF791FE4E490968086A15F072
:1012D00032FB044622460B465CA101A815F0B6FF7E
:1012E0004FF4FC634FF6E07201A95B48FFF77DFE07
:1012F00007B030BD30B587B04FF4FC634FF6E072F5
:1013000018491948FFF771FE4FF4FC634FF6E0727D
:1013100016A11748FFF769FE4FF4FC634FF6E07221
:1013200014A11548FFF761FE4FF4FC634FF6E0721D
:101330004AA14F48FFF759FE38480068407810F03E
:10134000010F97E0FCC107205800001010C20720D1
:1013500024C2072041C0072040C0072043C0072007
:1013600042C00720A40000104EC007202D3E000000
:1013700058C007203C2D000062C00720486F7261F2
:101380007300000052C107204D696E75746F7300C1
:101390005CC10720536567756E646F7300000000C1
:1013A00066C10720446961730000000070C1072016
:1013B00049503A25642E25642E25642E25640000AC
:1013C0007AC107202D00000084C107208EC10720AC
:1013D00098C10720A2C107202B000000ACC1072044
:1013E000B6C10720C0C10720CAC1072056656C2EB0
:1013F0002064656C207669656E746F3A00000000A9
:10140000D4C1072000C20720252E303266206D652A
:1014100074726F732F7365672E0000000CC2072073
:1014200020202020202020202020202020202020BC
:101430002020202020202000DEC10720436C617284
:10144000696461643A000000E8C10720252E30324B
:1014500066204C5558000000F2C107204D45444914
:101460004441532041435455414C45530000000032
:10147000EEC0072013D0FD490968886915F05BFAB2
:10148000044622460B46FAA101A815F0DFFE4FF4F0
:10149000FC634FF6E07201A9FA48FFF7A6FD4FF48E
:1014A000FC634FF6E072F8A1FB48FFF79EFD4FF496
:1014B000FC634FF6E072F9A1FB48FFF796FD4FF48D
:1014C000FC634FF6E072F9A1FB48FFF78EFD4FF485
:1014D000FC634FF6E072F9A1FB48FFF786FDFB487D
:1014E0000068407810F0010F43D0E04909680868AF
:1014F00015F021FA044622460B46F5A101A815F085
:10150000A5FE4FF4FC634FF6E07201A9F348FFF724
:101510006CFDD6490968886815F00DFA0446224624
:101520000B46EFA101A815F091FE4FF4FC634FF6B6
:10153000E07201A9ED48FFF758FDCC4909684868F9
:1015400015F0F9F9044622460B46E9A101A815F069
:101550007DFE4FF4FC634FF6E07201A9E748FFF708
:1015600044FDDA480068407820F00100D749096856
:101570004870BE490968C86815F0DDF9044622467E
:101580000B46DFA101A815F061FE4FF4FC634FF696
:10159000E07201A9DD48FFF728FD07B030BD10B5A6
:1015A0004FF4FC634FF6E072D949DA48FFF71DFDAE
:1015B0004FF4FC634FF6E072AFF25021D648FFF7CC
:1015C00014FD4FF4FC634FF6E072AFF25821D3489C
:1015D000FFF70BFD4FF4FC634FF6E072D0A1D24849
:1015E000FFF703FD4FF4FC634FF6E072CFA1D14843
:1015F000FFF7FBFC4FF4FC634FF6E072CEA1D3483B
:10160000FFF7F3FCD248007805282BD2DFE800F082
:10161000032B537BA3004FF6FF731A46CDA1CE4890
:10162000FFF7E3FC4FF4FC634FF6E072CBA1CC482C
:10163000FFF7DBFC4FF4FC634FF6E072C9A1CA4828
:10164000FFF7D3FC4FF4FC634FF6E072C7A1C84824
:10165000FFF7CBFC4FF4FC634FF6E072C5A1C64820
:10166000FFF7C3FC9FE04FF4FC634FF6E072B9A1B3
:10167000B948FFF7BAFC4FF6FF731A46B7A1B8484E
:10168000FFF7B3FC4FF4FC634FF6E072B5A1B64828
:10169000FFF7ABFC4FF4FC634FF6E072B3A1B44824
:1016A000FFF7A3FC4FF4FC634FF6E072B1A1B24820
:1016B000FFF79BFC77E04FF4FC634FF6E072A5A1C7
:1016C000A548FFF792FC4FF4FC634FF6E072A3A12C
:1016D000A348FFF78AFC4FF6FF731A46A1A1A24860
:1016E000FFF783FC4FF4FC634FF6E0729FA1A04824
:1016F000FFF77BFC4FF4FC634FF6E0729DA19E4820
:10170000FFF773FC4FE04FF4FC634FF6E07291A1DA
:101710009148FFF76AFC4FF4FC634FF6E0728FA12B
:101720008F48FFF762FC4FF4FC634FF6E0728DA127
:101730008D48FFF75AFC4FF6FF731A468BA18C4871
:10174000FFF753FC4FF4FC634FF6E07289A18A481F
:10175000FFF74BFC27E04FF4FC634FF6E0727DA1EE
:101760007D48FFF742FC4FF4FC634FF6E0727BA12B
:101770007B48FFF73AFC4FF4FC634FF6E07279A127
:101780007948FFF732FC4FF4FC634FF6E07277A123
:101790007748FFF72AFC4FF6FF731A4675A1764883
:1017A000FFF723FC00BF00BF4FF4FC634FF6E0726D
:1017B00072A17448FFF719FC7348007820B1012822
:1017C0001AD0022847D12EE04FF478431A466FA171
:1017D0006F48FFF70AFC4FF4FC634FF6E0726DA10F
:1017E0006D48FFF702FC4FF4FC634FF6E0726BA10B
:1017F0006B48FFF7FAFB2EE04FF4FC634FF6E07204
:1018000062A16348FFF7F1FB1F231A4661A16248FA
:10181000FFF7EBFB4FF4FC634FF6E0725FA160480B
:10182000FFF7E3FB17E04FF4FC634FF6E07257A1BC
:101830005748FFF7DAFB4FF4FC634FF6E07255A10F
:101840005548FFF7D2FB4FF6FF731A4653A1544891
:10185000FFF7CBFB00BF00BF4FF4FC634FF6E07215
:1018600050A15248FFF7C1FB10BD000000C2072085
:10187000416C747572613A20252E303266206D2ECF
:1018800000000000F8C0072054656D706572617437
:101890007572613A0000000002C1072048756D654D
:1018A0006461643A000000000CC107205072657347
:1018B000696F6E3A0000000016C10720496E636927
:1018C00064652055563A000020C107200CC207204D
:1018D000252E303266206443000000002AC1072014
:1018E000252E3032662025250000000034C1072057
:1018F000252E303266206D4261722E003EC10720D7
:10190000252E3032662055567300000048C107204E
:10191000A40000104EC0072058C0072062C0072056
:10192000496E666F2E0000006CC00720416A757317
:101930007465730076C007204E6976656C20646517
:10194000206272696C6C6F3A0000000080C0072052
:1019500041C00720310000008AC00720320000008B
:1019600094C00720330000009EC007203400000010
:10197000A8C0072041000000B2C00720506C617968
:1019800000000000BCC0072040C0072048500000F5
:10199000C6C007204C500000D0C00720554C500056
:1019A000DAC007204C6F616400000000E4C007202B
:1019B00010B500F0C8FB044644B1EB4A2146EB48A1
:1019C00000F077FD0120EA49087002E00020E849B4
:1019D000087010BD1CB5FEF783FBFFF7E9FFE54873
:1019E0000078D0B14FF0E020006910F4803F14D0AF
:1019F00000200090E04901900968E04B0022086A4D
:101A0000012101F08FFD0020009003460190DB488A
:101A1000027801210620FEF733FDD94800680078DE
:101A200005287DD2DFE800F003F6F4F3F200FFF7BB
:101A3000B6FDD448FFF786FA30B10120D0490968D5
:101A40000870002012F077F8CF48FFF77BFA30B12A
:101A50000220CB4909680870002012F06CF8CB48CE
:101A6000FFF770FA30B10320C549096808700020FB
:101A700012F061F8C648FFF765FA88B10020BD4949
:101A80000870C44908700090034601221146019075
:101A90000620FEF7F5FC0020BF490870BF4908701A
:101AA000BF48FFF74FFA90B10020B2490870B9491A
:101AB0000870009003461422012101900620FEF7D1
:101AC000DFFC0120B44908700020B4490870B54813
:101AD000FFF738FA90B10020A6490870AD490870A8
:101AE000009003462822012101900620FEF7C8FC41
:101AF0000220A94908700020A8490870AA48FFF7E9
:101B000021FAA8B10020009003463C220121019057
:101B10000620FEF7B5FC0020964908709D4900E0BC
:101B200018E1087003209C49087000209B49087048
:101B30009E48FFF707FA58B101208E49087000202F
:101B40009449087004209449087001209349087052
:101B50009748FFF7F7F970B1964800680078C00918
:101B600009D094480068007820F080009149096805
:101B7000087001F099FC9048FFF7E4F970B18D48C6
:101B800000680078C00909D08A480068007820F011
:101B9000800088490968087001F0EEFB8748FFF76C
:101BA000D1F998B100207D4908707249087003206E
:101BB000794908700020009003463C2201210190E1
:101BC0000620FEF75DFC0020724908707C48FFF794
:101BD000B9F958B101207149087004206E490870A4
:101BE00001206449087000206A4908707548FFF7B1
:101BF000A9F950B1022069490870042066490870AB
:101C000001205C49087063490870A4E0A1E031E05C
:101C100018E0FFE7FFF76EFB5A48FFF793F930B182
:101C20000220574909680870002011F084FF5648C7
:101C3000FFF788F928B1002051490968087011F0B0
:101C40007AFF88E0FFF7E0FA4E48FFF77BF928B10A
:101C500000204B490968087011F06DFF4A48FFF7F2
:101C600071F930B10120464909680870002011F06F
:101C700062FF70E0FFF73AFA4248FFF763F928B1D4
:101C800000203F490968087011F055FF3E48FFF7F2
:101C900059F928B100203A490968087011F04BFF42
:101CA0004948FFF74FF930B148480078A0F10100EA
:101CB000474981F828004748FFF744F930B14648C2
:101CC0000078A0F10100424981F824004348FFF761
:101CD00039F930B142480078A0F101003C4981F85F
:101CE00020004048FFF72EF930B13F480078A0F1BE
:101CF0000100374981F82C003C48FFF723F930B147
:101D00003248007800F10100314981F82800384854
:101D1000FFF718F930B13048007800F101002C4984
:101D200081F824003348FFF70DF930B12C480078D2
:101D300000F10100264981F820002F48FFF702F941
:101D400030B12948007800F10100214981F82C00C8
:101D500001E000E000BF00BF1CBD10B500F04EF870
:101D600002F0B1FB10BD0000100000105800001080
:101D7000FCC1072043C0072000C20720FDC1072087
:101D800004C2072058C0072062C0072076C0072081
:101D90008AC0072042C0072041C0072040C007205A
:101DA00094C007209EC00720A8C00720B2C007200B
:101DB000BCC007200CC20720E4C00720C6C0072013
:101DC000D0C00720DAC0072084C107202840024085
:101DD000004002408EC107202440024098C10720E5
:101DE00020400240A2C107202C400240ACC1072085
:101DF000B6C10720C0C10720CAC1072000B589B0FD
:101E000002208DF81E0000208DF820008DF81F00A4
:101E10008DF81C0007208DF81D0007A802F04EF871
:101E200008208DF81D0007A802F048F809208DF859
:101E30001D0007A802F042F800208DF81E008DF862
:101E40001C0006208DF81D0007A802F037F80020BE
:101E50008DF81E0002208DF81C000D208DF81D004D
:101E600007A802F02BF800224FF40051022002F0E4
:101E700087F84FF40051022002F096F80122402129
:101E8000002002F07DF84021002002F08DF801A82A
:101E900001F0EEFCFE48069001A9FE4801F087FC27
:101EA0000121FC4801F0EFFC09B000BD70B504460B
:101EB000FEF716F9002507E00C2000BF0100A0F195
:101EC0000102D0B2FAD16D1CA542F5D370BD10B598
:101ED000044600BF1021EF4801F08EFE0128F9D022
:101EE0002146EC4801F037FD00BF0421E94801F02C
:101EF00083FE0028F9D0E74801F03FFDC0B210BDD5
:101F000070B50020FFF7E3FF05464FF6FF7000EACB
:101F100005240120FFF7CAFF0020FFF7D8FF054680
:101F20002C43E410C4F30B04204670BD10B54020D0
:101F3000D949C8610120FFF7B9FF9020FFF7C7FF1B
:101F40000120FFF7B3FFFFF7DBFF04464020D24933
:101F50008861204610BD10B54020CF49C8610120DE
:101F6000FFF7A4FFD020FFF7B2FF0120FFF79EFF8D
:101F7000FFF7C6FF04464020C7498861204610BDD0
:101F80002DE9F04104460D46FFF7D0FF064601203B
:101F9000FFF78CFFFFF7DFFF074626602F60BDE8E5
:101FA000F08170B504460D464FF47842294620462C
:101FB00012F07FFF611C88B24FF47842294612F07C
:101FC00078FF681C81B24FF47842204612F071FF0E
:101FD0006A1C91B2621C90B24FF4784212F069FF11
:101FE00070BDF8B504460D464FF6FF70A11E8AB2CB
:101FF0000D39009088B22B46294613F0E6F94FF6CA
:10200000FF7004F10F018AB2A11C009088B22B4628
:10201000294613F0DAF94FF6FF700090A81E83B23C
:102020000D3881B22246204613F0CFF94FF6FF70EB
:10203000009005F10F0083B2A81C81B22246204611
:1020400013F0C3F94BF6F04005F10F06B3B2E61FEB
:10205000B2B205F10F06B1B2A4F10F060090B0B212
:1020600013F0B3F94BF6F04005F10F06B3B2A4F14B
:102070000F06B2B2EE1DB1B2A4F10F060090B0B2DD
:1020800013F0A3F94BF6F040A5F10F06B3B2E61F2B
:10209000B2B2A5F10F06B1B2A4F10F060090B0B232
:1020A00013F093F94BF6F040A5F10F06B3B2A4F18B
:1020B0000F06B2B2EE1FB1B2A4F10F060090B0B29B
:1020C00013F083F94BF6F04005F10F06B3B204F1BB
:1020D0000F06B2B205F10F06B1B2E61D0090B0B224
:1020E00013F073F94BF6F04005F10F06B3B204F1AB
:1020F0000F06B2B2EE1DB1B204F10F060090B0B2FD
:1021000013F063F94BF6F040A5F10F06B3B204F1FA
:102110000F06B2B2A5F10F06B1B2E61D0090B0B243
:1021200013F053F94BF6F040EE1FB3B204F10F0673
:10213000B2B2A5F10F06B1B204F10F060090B0B231
:1021400013F043F9F8BDF0B597B000274821684671
:1021500014F082F800BF15A916A8FFF711FF169812
:102160004DF8270009A8159940F82710781CC7B228
:102170004948406D10F4005F01D1092FEBDB092FB6
:102180007ED1DDE90001084402990844032190FB57
:10219000F1F01290DDE90301084405990844032198
:1021A00090FBF1F01390DDE906010844089908441A
:1021B000032190FBF1F01490DDE91201441ADDE9EE
:1021C0001301451A12991498461A002C01DD204675
:1021D00000E060420446002D01DD284600E0684230
:1021E0000546002E01DD304600E070420646502CC8
:1021F00006DD502D04DD502E02DD002017B0F0BDAD
:10220000AC4215DAA64209DA149A1299881800EB42
:10221000D071C1F34F01214A11801EE0DDE9121295
:10222000881800EBD071C1F34F011C4A118014E0F3
:10223000AE4209DA149A1299881800EBD071C1F3F2
:102240004F01164A118008E0DDE91312881800EBEF
:10225000D071C1F34F01114A1180DDE90910014429
:102260000B980844032190FBF1F01290DDE90C106B
:1022700001440E980844032190FBF1F0139000E014
:1022800063E0DDE90F10014411980844032107E0E1
:1022900020A107000000034000C0092054000010E6
:1022A00090FBF1F01490DDE91201441ADDE913010D
:1022B000451A12991498461A002C01DD204600E0B8
:1022C00060420446002D01DD284600E068420546D4
:1022D000002E01DD304600E070420646502C05DD40
:1022E000502D03DD502E01DD002087E7AC4215DACA
:1022F000A64209DA149A1299881800EBD071C1F33A
:102300004F01C24A51801EE0DDE91212881800EB2D
:10231000D071C1F34F01BD4A518014E0AE4209DAD9
:10232000149A1299881800EBD071C1F34F01B74A83
:10233000518008E0DDE91312881800EBD071C1F379
:102340004F01B24A5180B14858E7002056E72DE9C5
:10235000F04705460C4616464FF0000921882289B1
:10236000891AE38862899A1A5143A2882389D31A69
:1023700067886289BA1A03FB121014F091FAC6E951
:102380000C0100221346D6E90C71384614F0E6FA27
:1023900002D14FF0010989E029882A89891AE38846
:1023A00062899A1A5143AA882B89D31A678862894D
:1023B000BA1A03FB121014F073FAC6E9000121885F
:1023C0002289891AAA882B89D21A51432A88D21ABB
:1023D000A3882789DB1B02FB131014F061FAC6E9FE
:1023E00002012189AA885143A2882B8902FB13117B
:1023F0006288514322885A4323892F8803FB17237D
:10240000E28803FB0212A18879432388AF8803FB8B
:102410001713618903FB012014F042FAC6E9040195
:102420006A886989511AE38862899A1A5143EB884C
:102430006A899B1A67886289BA1A03FB121014F022
:102440002FFAC6E9060121882289891AEB886A8950
:102450009A1A51436B886A899A1AA3882789DB1BC9
:1024600002FB131014F01CFAC6E908012189EA885E
:102470005143A3886A8903FB121162885143228861
:102480006B895A4323896F8803FB1723E28803FB78
:102490000213A18879432788EA8807FB1212618911
:1024A00002FB013014F0FCF9C6E90A014846BDE818
:1024B000F0872DE9F04F8BB08246894614464FF0E5
:1024C000000B00221346D4E90C51284614F046FABA
:1024D00060D0B9F8020014F0F4F90546D4E90273AB
:1024E0003A4614F0EEF8CDE90201B9F8000014F014
:1024F000E8F90746D4E900532A4614F0E2F8CDE99A
:102500000001DDE9022314F035F8CDE90401D4E936
:1025100004532A4614F02EF8CDE90601D4E90C53F1
:102520002A4614F040F9CDE9080114F0EBF9AAF8B5
:102530000000B9F8020014F0C4F90746D4E90853C2
:102540002A4614F0BEF8CDE90201B9F8000014F0F3
:10255000B8F90746D4E906532A4614F0B2F8CDE993
:102560000001DDE9022314F005F8CDE90401D4E906
:102570000A532A4613F0FEFFCDE90601D4E90C53B5
:102580002A4614F010F9CDE9080114F0BBF9AAF8B5
:10259000020001E04FF0010B58460BB0BDE8F08F90
:1025A00038B5002427E0002011F0C5FA00204FF6CE
:1025B000FF7317A20A210090084612F0B5FF1C48CD
:1025C000FFF774FC1B4A02EB84025188194A32F867
:1025D0002400FFF706FD00BFFFF7B5FD0546002DFF
:1025E000FAD02888144921F82400688801EB840176
:1025F0004880601CC4B2032CD5DB104A0E490D483C
:10260000FFF7A5FE002011F096FA38BD5400001027
:10261000546F7563682063726F73736861697220A9
:10262000746F2063616C6962726174650000000000
:1026300020A1070048000010C4200820100000104E
:102640002DE9F047B1480068C0F3016003287CD150
:10265000AF48006810F0030006D0012833D00228EC
:102660005FD003282ED100E000BFA8480068C0F367
:10267000074000F101044FF00201A648D0F888009D
:10268000C0F30E0000F10100A1FB0001A24B4FF0CE
:10269000000CA0FB037901FB039100FB0C11224607
:1026A0006346384613F08EFD05469C480068C0B26C
:1026B00000F1010422464FF00003284613F082FD8A
:1026C000974908605DE091480068C0F3074000F159
:1026D00001044FF002018F48D0F88800C0F30E00CB
:1026E00000F10100A1FB00108E4A4FF0000CA1FB8D
:1026F000027900FB029001FB0C012246634638463A
:1027000013F060FD054685480068C0B200F1010481
:1027100022464FF00003284613F054FD804908601C
:102720002FE07A480068C0F3074000F101044FF041
:1027300002017848D0F88800C0F30E0000F10100D3
:10274000A1FB00124FF4004000E01BE04FF000033B
:10275000A1FB007902FB009001FB030122463846F1
:1027600013F030FD05466D480068C0B200F1010469
:1027700022464FF00003284613F024FD6849086004
:1027800000BF2FE06248006810F0030006D0012867
:1027900010D0022819D0032823D100E000BF5F48E1
:1027A0000068C0B200F101005B49B1FBF0F05C4988
:1027B000086016E059480068C0B200F101005949AC
:1027C000B1FBF0F0564908600BE054480068C0B215
:1027D00000F101004FF40041B1FBF0F050490860F6
:1027E00000BF00BFBDE8F08720204F49086049487E
:1027F000D0F8A00110F0200F05D000BF4A480068B3
:1028000010F0400FFAD00320444908604FF0000058
:102810004049C1F8A801454908604FF001003C4912
:1028200008604348434908604FF0AA0042490860E5
:102830004FF0550008604FF00100404908604FF02C
:10284000AA003D4908604FF055003249C1F88C009C
:1028500000BF2E48006810F0806FFAD0032037497F
:1028600008604FF0AA002B49C1F88C004FF05500CA
:102870003149086000BF2548006800F04070B0F1A1
:10288000407FF8D123202E4908604FF0AA0021494B
:10289000C1F8AC004FF055002A4908604FF0010024
:1028A000294908604FF0AA00264908604FF05500FA
:1028B0001849C1F8AC0000BF2448006810F4806FCC
:1028C000FAD00320204908604FF0AA001149C1F84E
:1028D000AC004FF055001B49086000BF1B48006862
:1028E00000F44070B0F5407FF8D1194819490860EC
:1028F0004FF000000749C1F8C8010846006820F4FD
:10290000704040F4804008607047000088C00F406D
:102910000CC10F4000C00F4000093D0004C10F4032
:1029200018C20720001BB700A0C10F40ACC10F4068
:102930006300050084C00F408CC00F4080C00F4072
:10294000A4C00F40ACC00F40A0C00F40A8C00F40B3
:10295000DE872804C4C00F40042048490968087075
:1029600047484849096808604748464909688860F7
:10297000444909684860454842490968C861444873
:1029800040490968C86043493E480068816108467B
:102990003C490968086101463A48006841613E497E
:1029A0003E483F4A1268C2E900103E483C4A12685D
:1029B000C2E9021000213C48394A1268C2E90410F9
:1029C0003A48374A1268C2E906103948344A126850
:1029D000C2E908103748324A1268C2E90C1032487E
:1029E0002F4A1268C2E90A1030482D4A1268C2E91B
:1029F0000E100A202A4909684864002028490968FD
:102A000081F8400070471CB5FFF7A6FF00F06AF898
:102A100000F090F800F0A0FBFDF75AFC00F090FCED
:102A2000FFF79BF9FDF7BCFD4FF408512248FDF775
:102A300067FC224822495A230022CDE900101146A2
:102A40000220FDF71DFD00200090034632220121E7
:102A500001900620FDF714FD00F024FE00F0F4FCC8
:102A600000F037FAFDF750FB13F09DF9002011F04C
:102A700062F800200149096808701CBD04C20720E3
:102A80000000C04100C207206666C63FB81E554020
:102A90009A99993F66660640FCA9F1D24D62603F63
:102AA00010C207204D62503F00408F40000034406C
:102AB00000004940000024C0000048426F12033B60
:102AC0006F12833A10B5002807DACA06140EE44ADA
:102AD00000F00F031B1FD45403E0CA06130EE14A93
:102AE000135410BD10B5E04800680A21B0FBF1F0A6
:102AF000401E4FF0E021486107200861DA48006875
:102B00000A21B0FBF1F4B4F1807F00D311E024F08E
:102B10007F40401E4FF0E02148611F214FF0FF3001
:102B2000FFF7D0FF00204FF0E02188610720086107
:102B300000BF10BD10B5CD48006840F44100CC493D
:102B4000C1F8C4000846D0F8C40040F00200C749EC
:102B500008604FF003004FF0402148614FF0000043
:102B6000C8600846406840F001004860C14888617C
:102B70004FF001010846FFF7A5FF01200121814028
:102B800042094FF0E02303EB8202C2F8001100BFBC
:102B900010BD1CB519F0A4FBB7480068406C00EBF1
:102BA00080004000B5490988884205D9B3480088AB
:102BB000401CB24908800FE0B148007860B10020A5
:102BC000B0490870AE4908700090034601221146D2
:102BD00001900620FDF754FC1CBD2DE9F0414FF09B
:102BE000402000684FF040210860A7480078052188
:102BF00090FBF1F201FB1207384613F043FE064644
:102C00004FF07E5113F040FC05464FF07C5113F01D
:102C100071FC0446002113F0D1FE35D19B48806A37
:102C200040F00500994988620846806A40F030000B
:102C3000886200F00EFA13F047F9954800680078B2
:102C4000C0F3400078B99348007860B10020924901
:102C50000968C8618E480068007820F00100401CB7
:102C60008B49096808708A480068007820F00200E3
:102C700087490968087086480068407820F001009C
:102C8000401C834909684870BDE8F08170B5002098
:102C900013F0F8FD05464FF07C5113F02BFC044671
:102CA000002113F08BFE22D1794800680078C0F330
:102CB000C000E0B177480078C8B16C48006840F4C3
:102CC00080506B49C1F8C40071480068007820F05A
:102CD00008006F49096808707048006820F0C060FB
:102CE0006E4908600846006840F48030086070BD96
:102CF0002DE9F04F87B0FFF770FFFFF7C7FF62487D
:102D00000078401C604908705B48006890F84000FB
:102D1000002846D158480068D0E90021104613F039
:102D200031FE069054480068D0E90221104613F0A5
:102D300029FE059050480068D0E902434E480068DB
:102D40002246D0E90061304613F0B5FCCDE902011E
:102D500051490968086813F0EEFD8046464800684E
:102D6000D0E902633246404613F0A5FC0446002237
:102D70004B4B13F0A6FCCDE90001DDE9022313F073
:102D800012FD824613F0BEFDC0B20490DDE90501DC
:102D9000CDE90001002211460220049BFDF770FBE3
:102DA00046E035480068D0E90421104613F0EAFDFA
:102DB000069031480068D0E90621104613F0E2FD84
:102DC00005902D480068D0E906432B48006822464C
:102DD000D0E90461304613F06EFC82468B462E49E2
:102DE0000968486813F0A7FD044623480068D0E945
:102DF00006633246204613F05EFC80460022284BD4
:102E000013F05FFC52465B46CDE9000113F0CBFCAA
:102E1000CDE9020113F076FDC0B20490DDE90501B1
:102E2000CDE90001002211460220049BFDF728FB9A
:102E300007B0BDE8F08F10B514480068C4B214F0B4
:102E4000100F01D0FDF7AAF914F0020F01D000F025
:102E50003FFB0E4800680D49086010BD7047704781
:102E600018ED00E000E400E018C20720C4C00F40E5
:102E700000C00F401FBCBE0010C2072024C20720A4
:102E800042C0072043C007201CC20720008000402A
:102E90000CC207206400001000C20720004003405D
:102EA00000806640A34988680221A24A516001213E
:102EB00051607047A048006840F400009F49C1F885
:102EC000C4004FF000009B4908674FF01800C8602D
:102ED000704700B5FFF7EEFFFFF7E4FF00BD30B528
:102EE00000250023002448E0FFF7DCFF00BF9448E2
:102EF000406BC0F3C04018B98E4880686428F6D390
:102F0000FFF7D0FF03468F4801680068401C8D4AD8
:102F100010608D4840F82130282B01D3432B01D974
:102F2000002030BD0023FFF7BDFF00BF8448406B89
:102F3000C0F3C04018B17F4880686428F6D3FFF71B
:102F4000B1FF03467F4801680068401C7D4A10605D
:102F50007D4840F821303C2B08D9502B06D2C4F1D3
:102F60000701012088402843C5B205E00A2B01D3A0
:102F7000642B01D90020D4E7641C082CB4DB28465C
:102F8000CFE700B50023FFF78DFF00BF6C48406B13
:102F9000C0F3C04018B1674880682D28F6D3FFF70A
:102FA00081FF0346674801680068401C654A10605D
:102FB000654840F82130052B01D32D2B01D9012084
:102FC00000BDFFF76FFF00BF5D48406BC0F3C0401E
:102FD00018B9584880686428F6D3FFF763FF0346A2
:102FE000584801680068401C564A1060564840F82E
:102FF0002130462B01D35A2B01D90120E0E7FFF7FE
:1030000051FF00BF4E48406BC0F3C04018B1494863
:1030100080686428F6D3FFF745FF034649480168F6
:103020000068401C474A1060474840F82130462B52
:1030300001D35A2B01D90120C2E70020C0E700B517
:103040000346FFF72FFF00BF3A4880689842FBD342
:1030500000BD2DE9F84F0024A24600203949086040
:103060003A4908703648006A40F400203449086242
:103070004FF40020C86344F25060FFF7E0FF30488F
:10308000006A20F400202E490862FFF77AFF08B199
:10309000BDE8F88F4FF0000908E0FFF720FFC9F105
:1030A0000301C9008840044309F10109B9F1040F83
:1030B000F3DBFFF714FF8246200E8DF80000200C92
:1030C0008DF80100200A8DF80200E0B28DF80300AF
:1030D0009DF800009DF8011008449DF80210084476
:1030E0009DF80310084419490870084600785045B7
:1030F0001ED14FF6FF7101EA144013F0E2FB0746C0
:103100000022134B13F04FFB054613F03BFC114913
:1031100009688860A0B213F0D4FB074600220C4B6C
:1031200013F041FB054613F02DFC0A4909680860BD
:1031300000BFADE700400940C4C00F4000C00F40D1
:1031400000C009205C000010BC00001060000010EE
:103150000000244000C207206748006840F4805007
:103160006649C1F8C4006648406840F4803064494C
:1031700048600846406C20F440304864614800686C
:10318000614940EA01005F4908600846C06840F0B4
:103190000200C8605D480068007820F0080000F177
:1031A00008005A49096808705648C06820F48070C1
:1031B0005449C8604FF016004FF0010101FA00F1C8
:1031C0004FEA50124FF0E02303EB8202C2F80011E5
:1031D00000BF70472DE9FC5F4D480078002865D09E
:1031E000012862D14748006820F4803045490860D2
:1031F0004969C1F30B1013F04EFB4649086046497C
:103200004448006813F076F94249086008460068AF
:1032100013F091FB06460022404B13F04FFA044690
:103220000D463C48006813F086FB064600223C4BE6
:1032300013F047FA804622462B4613F0B4FA824632
:1032400013F0A0FB33490860002000900346019072
:1032500034480268203203212E48006800F062F9E9
:1032600028498969C1F30B1013F015FB2E4908603A
:103270000846006813F05FFB804600222B4B13F0DA
:1032800020FA064600222A4B13F08DFA044613F06A
:1032900079FB24490968C8601C480068007820F060
:1032A0000800083019490968087022E015480069CB
:1032B000C0F307201F49204A126888541E4801683D
:1032C0000068401C1C4A106045F6BF5081420FD375
:1032D000002011460860194948610C4800680078D0
:1032E00020F08000803009490968087000F081F8FA
:1032F00000BF00BFBDE8FC9FC4C00F4000C00F402E
:1033000000C002400040034002FF21000CC2072021
:103310006400001028C2072000F07F450000F03F45
:103320000080514000C207202CC20720008040408E
:1033300000FEAF40DC03001030C2072000800040D8
:103340003A48406840F480403849486040F62200DE
:1033500037498861022048600120486000204861A8
:1033600001200121814042094FF0E02303EB82025A
:10337000C2F8001100BF704700202E4908700120DC
:103380002D4908702D4800682D4908602B48C068F9
:103390002C49086001202949C8600846006820F0CF
:1033A000FF0008600846006840F001000860084619
:1033B000006820F47F4008600846006840F4807090
:1033C00008600846006820F48030086008460068FD
:1033D00020F0E06008600846006840F0C0600860C7
:1033E0000220134948614860012048603120C863C9
:1033F000704711480078012816D1114800680F491C
:10340000086010480068C8600846006820F0E06066
:1034100008600846006840F47F40086001200549C4
:1034200008700020044908707047000000C0024086
:1034300000800040640000101DC2072000400340CF
:10344000680000106C0000102F48406840F4001025
:103450002D49486040F622002C4908810E20486022
:103460002B480068007820F08000803028490968E7
:10347000087070470A2905DDA1F10A0200FA02F27C
:1034800090B200E00841214A12684FF6C0739A4397
:103490001E4B1A601A4612684FF4803343EA8013B9
:1034A0001A431A4B1A6070471A48006840F001002E
:1034B0001949C1F810014FF018001849486118481F
:1034C000C8614FF0020048604FF00100486070474B
:1034D0001048006820F001000F49C1F810010C48A5
:1034E0000068007820F0800000F180000849096839
:1034F00008700A48406920F03800084948614FF0D8
:10350000000002490860704700C0024000C0084047
:103510000CC20720104100500040005000800040C5
:103520003FA5AE022DE9FC5F81468A4614469B46C4
:10353000BAF1000F09D0BAF1010F24D0BAF1020F8D
:103540003DD0BAF1030F57D13CE04A49087813F057
:10355000A2F94FF07E510190484612F08FFF80464D
:10356000454912F0C7FF0746019912F08DFF064644
:1035700013F0B4F9C0B2401C3E490D5C284613F06C
:103580008AF9206039E03D49087813F084F907464C
:103590004FF07E51484612F071FF8046364912F0D6
:1035A000A9FF0646394612F06FFF054613F096F95B
:1035B000C0B2401C3149085C8BF800001DE0C4F823
:1035C00000901AE0484613F0B6F92D4A2D4BCDE98C
:1035D000000113F076F807462B4A2C4B12F0CAFF75
:1035E000054613F0CFF920600021206813F0E6F9BA
:1035F00001D20020206000BF00BF00BFBDE8FC9FDB
:103600002DE9F04788B04FF0000A2CE0504613F047
:1036100047F980461E4A1F4B13F053F800224FF023
:103620008043CDE9000113F0BEF800221A4BCDE92A
:10363000020113F046F8064617F0F4FD0022174B7E
:10364000CDE9040113F03DF804460022134B12F0BB
:1036500091FFCDE9060113F055F91149096801F808
:103660000A000AF1010A45F6C0508245CEDB08B0D7
:10367000BDE8F08742C207200000C64234C20720DE
:103680000BB5A679C729F0BFA835CD3B4E8159406F
:103690007A008BFCFA2119400070C74000C05F40DF
:1036A000DC0300101748006840F000501649C1F8CC
:1036B000C4004FF00100154908634FF04000486313
:1036C00013480068134909680860134908601348E3
:1036D0001049096848600D49C1F804010D480068A7
:1036E0000C49096888600E4908600E4801F1040120
:1036F000086008490968C8604FF41C600A490860FE
:1037000070470000C4C00F4000C00F400040005090
:10371000DC03001058C207200041005020C00840C0
:1037200008410050C05D0004104100502DE9F047F1
:1037300004468846FB48844202D0FB48844200D1BC
:1037400003E04321F9A000F087FEF648844204D14B
:103750002A2000F01EFE074609E0F348844204D107
:10376000142000F016FE074601E0BDE8F0870025B2
:103770004FF0FF3902260AE0681C7043B7FBF0F9EE
:10378000C14504D96D1CFF2D01D90025B61CC145CA
:10379000F2D82068C0B2206020684FF6FF7101EABD
:1037A000052108432060F0B2206100BFDDE770B55D
:1037B00004460D46DB48844202D0DB48844200D1F7
:1037C00003E08121D9A000F047FED648844204D10D
:1037D0000121480500F0FAFD08E0D348844204D1F5
:1037E0000121001500F0F2FD00E070BDA8882989D4
:1037F0000843298A08432988084386B22660287B23
:1038000000F00F06666020466969FFF78FFF00BF72
:10381000EBE710B50446C348844202D0C248844254
:1038200000D103E0A821C1A000F016FEBD488442EB
:1038300005D100214FF4001000F0C8FD06E0BA48A1
:10384000844203D10021001500F0C0FD10BD10B569
:103850000446B448844202D0B348844200D103E015
:10386000C021B2A000F0F8FD206800F00F0010BDEC
:10387000002141608160B749416107210160002159
:10388000C1600161704770B504460D46A548844289
:1038900002D0A548844200D103E0E521A3A000F0B6
:1038A000DBFD0DB1012D00D103E0E6219FA000F06A
:1038B000D3FD012D04D1606840F00200606003E098
:1038C000606800F00D00606070BD70B504460D4684
:1038D0009448844202D09448844200D103E0FE21FF
:1038E00092A000F0B9FD0DB1012D00D103E0FF2140
:1038F0008EA000F0B1FD012D04D1606840F0010000
:10390000606003E0606800F00E00606070BD70B53C
:1039100004460D468348844202D08348844200D145
:1039200004E04FF48D7181A000F096FD0DB1012DE2
:1039300000D104E040F21B117CA000F08DFD012DB0
:1039400004D1606800F00700606003E0606840F048
:103950000800606070BD70B504460D467148844231
:1039600002D07148844200D104E04FF49A716FA0F4
:1039700000F072FDA8B2A06070BD10B504466948A1
:10398000844202D06848844200D104E04FF4A2711E
:1039900066A000F061FDA06880B210BD2DE9F74F70
:1039A00082B006460C460020E0606060606103E083
:1039B0003046FFF7E2FF0746F06810F0040FF7D13A
:1039C000032030623046FFF742FF082801DD012561
:1039D00000E00025049800287AD125B9D4F8089091
:1039E000D4F800A003E0D4F808B02068019060E0AB
:1039F000F06810F0020F2ED02169606888422AD04A
:103A0000206888B93DB9FF213046FFF7A4FF606800
:103A1000401C60601FE04FF6FF713046FFF79BFFD0
:103A20006068801C606016E055B99AF80010304656
:103A3000FFF791FF0AF1010A6068401C60600AE02C
:103A4000019801883046FFF786FF0198801C01909D
:103A50006068801C6060D6F8188018F0010F07D0ED
:103A600048F4007060614FF0FF3005B0BDE8F08FA2
:103A700017E03046FFF781FF0746A06848B125B937
:103A800089F8007009F1010903E0ABF800700BF14F
:103A9000020B1DB9E068401CE06002E0E068801C99
:103AA000E060F06810F0040F03D0D4E9030188420D
:103AB000DFD12169606888429AD1D4E90301884244
:103AC00096D14FF480706061206810B16068CCE7D7
:103AD00005E0A06808B1E068C7E70020C5E70498E2
:103AE00001287DD16BE0206888B93DB9FF213046BF
:103AF000FFF731FF6068401C606036E04FF6FF71F1
:103B00003046FFF728FF6068801C60602DE01DBB19
:103B1000D4E90002815C3046FFF71DFF6068401C5D
:103B2000606022E000800840000003402E2E5C4DC3
:103B3000656E755C4669726D776172655C736F75F1
:103B40007263655C6C7063313778785F7373702E65
:103B50006300000040420F00D4E90002815A304661
:103B6000FFF7F9FE6068801C6060D6F8188018F0D6
:103B7000010F05D048F4007060614FF0FF3074E72A
:103B800015E03046FFF7F9FE0746A06838B11DB9C9
:103B9000D4E902128F5402E0D4E902128F521DB907
:103BA000E068401CE06002E0E068801CE060F068D3
:103BB00010F0040F03D0D4E903018842E1D1F0688A
:103BC00010F0020F03D02169606888428BD1D4E9DC
:103BD0000301884203D121696068884204D000E073
:103BE00007E00F20706102E04FF4807060610020F8
:103BF0003BE74FF0FF3038E770B505460C46774895
:103C0000854202D07648854200D105E04FF4057127
:103C1000AFF2E80000F020FC012C07D0022C05D008
:103C2000042C03D0082C01D0102C00D105E040F268
:103C30001521AFF2081000F00FFCE868204201D017
:103C4000012070BD0020FCE770B504460D46164605
:103C50006248844202D06248844200D105E04FF4B9
:103C60000B71AFF2381000F0F7FB012E03D1606941
:103C70002843606104E060690F21A9430840606146
:103C800070BD70B505460C465448854202D0544874
:103C9000854200D105E040F24921AFF2701000F0FA
:103CA000DBFB012C05D0022C03D0042C01D0082C06
:103CB00000D105E040F24A21AFF2901000F0CCFBB9
:103CC000A869204201D0012070BD0020FCE710B59A
:103CD00004464248844202D04148844200D105E073
:103CE0004FF41671AFF2BC1000F0B6FBA06910BD26
:103CF00070B505460C463948854202D038488542A1
:103D000000D105E040F26D21AFF2E01000F0A4FB1D
:103D1000012C05D0022C03D0042C01D0082C00D19A
:103D200005E040F26E21AFF2FC1000F095FBE8696F
:103D3000204201D0012070BD0020FCE770B5044690
:103D40000D462648844202D02548844200D105E031
:103D500040F28121AFF22C2000F07EFB012D01D03A
:103D6000022D00D105E040F28221AFF2402000F0A8
:103D700073FB256270BD70B504460D4616461748A4
:103D8000844202D01648844200D105E040F29721D7
:103D9000AFF2682000F060FB022D01D0012D00D1B0
:103DA00005E04FF42671AFF27C2000F055FB0EB118
:103DB000012E00D105E040F29921AFF2902000F0F1
:103DC0004BFB012E03D1606A2843606204E0606A05
:103DD0000321A9430840606270BD000000800840D4
:103DE00000000340F0B504460B4615461946600036
:103DF0003B4A102901D31039401C52F820604FEA89
:103E0000410C032707FA0CF7BE4342F8206052F832
:103E100020604F0005FA07F73E4342F82060F0BDEE
:103E2000F0B504460B461546194660002C4A403250
:103E3000102901D31039401C52F820604FEA410C80
:103E4000032707FA0CF7BE4342F8206052F82060BF
:103E50004F0005FA07F73E4342F82060F0BD30B549
:103E60000B461F496831012A07D151F8204001252E
:103E70009D402C4341F8204006E051F820400125A8
:103E80009D40AC4341F8204030BD012806D1144983
:103E9000896A41F00801124A916206E028B9104986
:103EA000896A21F008010E4A91627047012800D109
:103EB000052201B90A220A4BDA67704710B5044699
:103EC000A27861782078FFF78DFFE278617820781A
:103ED000FFF7A6FF227961782078FFF7C0FF10BDB9
:103EE00000C0024001460020052912D2DFE801F09F
:103EF0000305080B0E00F8480CE0F748203009E0F5
:103F0000F548403006E0F448603003E0F248803085
:103F100000E000BF00BF704701460020052912D213
:103F2000DFE801F00305080B0E00EB480CE0EA485F
:103F3000203009E0E848403006E0E748603003E020
:103F4000E548803000E000BF00BF70470146002018
:103F5000052912D2DFE801F00305080B0E00DE4848
:103F60000CE0DD48203009E0DB48403006E0DA486C
:103F7000603003E0D848803000E000BF00BF7047E9
:103F80002DE9F04107460D4616463846FFF7AAFFD1
:103F900004463CB11EB120682843206002E020683E
:103FA000A8432060BDE8F08170B506460C46304657
:103FB000FFF798FF054605B1AC6170BD70B50646C8
:103FC0000C463046FFF78EFF054605B1EC6170BD2B
:103FD00070B505462846FFF785FF04460CB16069B9
:103FE00070BD0020FCE718B912B9BC4B196014E091
:103FF000022803D112B9BA4B19600EE020B9012A88
:1040000002D1B84B196008E0022804D1012A02D17C
:10401000B54B196001E000BFFEE7704703463BB9AE
:1040200032B9B248006820FA01F000F00100704790
:10403000022B07D132B9AE48006820FA01F000F037
:104040000100F4E743B9012A06D1AA48006820FA22
:1040500001F000F00100EAE7022B08D1012A06D1A5
:10406000A548006820FA01F000F00100DFE700BF7A
:10407000FEE710B9A14A116006E0022802D1A04A69
:10408000116001E000BFFEE7704770B504460D46C1
:104090001646324629462046FFF772FF70BD70B5BE
:1040A00004460D4629462046FFF77EFF70BD70B5D9
:1040B00004460D4629462046FFF780FF70BD10B527
:1040C00004462046FFF784FF10BD70B504460D4638
:1040D0001646324629462046FFF785FF70BD70B56B
:1040E00004460D461646324629462046FFF796FFFF
:1040F00070BD10B503460C4621461846FFF7B9FFC0
:1041000010BD2DE9F04107460D4616463846FFF72B
:10411000E9FE04463CB11EB120692843206102E05B
:104120002069A8432061BDE8F0812DE9F041804677
:104130000E4615461F464046FFF7EEFE04468CB17C
:1041400047B11EB16088284360800BE02088284377
:10415000208007E01EB16088A843608002E02088CC
:10416000A8432080BDE8F0812DE9F04180460E464D
:1041700015461F464046FFF7CFFE04468CB147B1B7
:104180001EB1608A284360820BE0208A2843208287
:1041900007E01EB1608AA843608202E0208AA8433B
:1041A0002082BDE8F0812DE9F04107460E46144615
:1041B0003846FFF7B1FE05461DB10EB16C8300E035
:1041C0002C83BDE8F0812DE9F04107460E461446E8
:1041D0003846FFF7A1FE05461DB10EB1EC8300E0A5
:1041E000AC83BDE8F08170B506460D463046FFF75A
:1041F00093FE044624B10DB1E08A70BDA08AFCE7AD
:104200000020FAE72DE9F04180460C4616461F468D
:104210004046FFF79BFE05465DB12FB1032C08DC3D
:10422000285D3043285504E0032C02DC285DB043B0
:104230002855BDE8F0812DE9F04180460C46164630
:104240001F464046FFF782FE05469DB14FB1032C45
:1042500010DC05F11000005D304305F11001085538
:1042600008E0032C06DC05F11000005DB04305F109
:1042700010010855BDE8F0812DE9F04107460C46D4
:1042800015463846FFF762FE064626B1032C02DCCF
:1042900006F118000555BDE8F0812DE9F04107460B
:1042A0000C4615463846FFF751FE064626B1032C4C
:1042B00002DC06F11C000555BDE8F08170B506462C
:1042C0000C463046FFF742FE0546DDB1032C19DCF3
:1042D00005F11400005D70BD00C00920908002400F
:1042E000B080024094800240B4800240848002404A
:1042F000A480024088800240A88002408C80024056
:10430000AC8002400020E6E710B50A46202801D222
:10431000034601E0A0F120031946202814D2464BA1
:104320001B684FF0030404FA01F423EA0403434C2E
:10433000C4F8A831404B1B6802FA01F443EA0403B5
:104340003E4CC4F8A83113E03D4B1B684FF003040A
:1043500004FA01F423EA0403384CC4F8AC31384BB6
:104360001B6802FA01F443EA0403344CC4F8AC318C
:1043700010BD0146202903D20A462F4B186803E0DE
:10438000A1F120022E4B186820FA02F303F003007B
:10439000704770B506462B4804683046FFF7E9FFC2
:1043A000054635B1012D06D0022D06D0032D08D1CA
:1043B00005E0042505E0012503E0022501E00825CC
:1043C00000BF00BFB4FBF5F4204670BD01290AD13F
:1043D0001D4A12681D4B00EA030342EA0302174B11
:1043E000C3F8C4200AE049B9174A1268174B23EAF8
:1043F000000302EA0302114BC3F8C42070470020F7
:104400001349086030BF7047042012490860082033
:104410000F49086030BF704704200E49086009202A
:104420000B49086030BF704704200A490860032028
:104430000749086030BF7047A8C10F4000C00F4057
:10444000ACC10F4018C20720C4C00F40DEF7EFEF29
:10445000C0C00F4010ED00E000BFFEE770B505469C
:104460000C46A4F12000044A02EB00111022284659
:1044700011F0D9FE70BD000038CC0100FE48006C80
:1044800040F0FF00FC4908640846006840F4FF0063
:1044900008600846006A40F0605008620846006CF8
:1044A00040F4807008647047002109E0002201E0B8
:1044B000531C9AB240F275439A42F9DB4B1C99B2F5
:1044C0008142F3DB704700B587B0FFF7D7FF642068
:1044D000FFF7EAFF00200590059803904FF48070E5
:1044E000E549C865C004C8638000886303980290EA
:1044F000029801900198496D60F30701DE4841651B
:10450000406920F4FF024FF4FF01019801EAC01056
:104510000243D948426100BF4FF08050D649C8637A
:1045200000BF4FF08050D44988630015886500BFF4
:1045300000BFC865C0048863400088634000C8634A
:1045400000BF0846006C20F0FF00086408460068C1
:1045500020F4FF0008600846406DC1B20291C648D1
:10456000406900F4FF010191DDE9010141EAD01148
:104570000291C148006C40F0FF00BF490864084642
:10458000006840F4FF01BC480160029803904FF0BE
:104590000050B94988634115B74881650398049074
:1045A000049806900698A0F51341253905D0069881
:1045B000A0F51341283942F0A7820120AF490870C5
:1045C000B1200490A5200590049803904FF48070CA
:1045D000A949C865C004C8638100A74881630398DE
:1045E000029002980190A4490198496D60F3070177
:1045F000A1484165406920F4FF014FF4FF02019892
:1046000002EAC01001439C48416100BF4FF0805155
:10461000C16300BF4FF080519748816340159649B0
:10462000886500BF059803904815C865C004886375
:1046300003980290029801900198496D60F3070178
:104640008D484165406920F4FF024FF4FF01019855
:1046500001EAC01002438848426100BF4FF0805019
:104660008549C86300BF4FF08050834988630115B6
:104670008148816500BF00BFB12005900598039077
:1046800008467D49C865C004C863800088630398F4
:104690000290029801900198496D60F307017648F5
:1046A0004165406920F4FF024FF4FF01019801EADF
:1046B000C01002437048426100BF4FF080506E4905
:1046C000C86300BF4FF080516B488163411581651D
:1046D00000BF00BF40156849C865C10466488163D2
:1046E0004800654988634000C86300BF0846006C05
:1046F00020F0FF0008640846006820F4FF0008600E
:104700000846406DC0B202900846406900F4FF00C0
:104710000190DDE9011040EAD11002905648006C8A
:1047200040F0FF00544908640846006840F4FF0068
:104730000860029803904FF0005088634015886528
:1047400003980490049806900698A5285ED103204B
:104750004A490870B1200490002005900498039005
:104760004FF480704449C865C004C8638000886302
:1047700003980290029801900198496D60F3070137
:104780003D484165406920F4FF024FF4FF01019864
:1047900001EAC01002433848426100BF4FF0805028
:1047A0003549C86300BF4FF08051334881634015DD
:1047B0003149886500BF059803904815C865C00455
:1047C000886303980290029801900198496D60F304
:1047D000070129484165406920F4FF014FF4FF02B9
:1047E000019802EAC01001432348416100BF4FF025
:1047F00080502149C86300BF4FF080501E49886334
:1048000001151D48816500BF00BF02E002201B4961
:104810000870E520049047F6F00005900498039096
:104820004FF480701449C865C1041348C1638800FF
:104830001149886303980290029801900198496D8C
:1048400060F307010C484165406920F4FF024FF412
:10485000FF01019801EAC01002430748426100BF0E
:104860004FF080500449C86300BF4FF080500249A8
:1048700088630015886503E000C0092070000010FF
:1048800000BF059803904815C865C0048863039865
:104890000290029801900198496D60F30701FE486B
:1048A0004165406920F4FF024FF4FF01019801EADD
:1048B000C0100243F848426100BF4FF08050F649F3
:1048C000C86300BF4FF08050F349886300158865C6
:1048D00000BF00BF012004900002059004980390DF
:1048E0004815C865C004C8638000886303980290B7
:1048F000029801900198496D60F30701E64841650F
:10490000406920F4FF024FF4FF01019801EAC01052
:104910000243E148426100BF4FF08050DE49C86366
:1049200000BF4FF08050DC4988630015886500BFE8
:10493000059803904815C865C004886303980290E1
:10494000029801900198496D60F30701D2484165D2
:10495000406920F4FF024FF4FF01019801EAC01002
:104960000243CD48426100BF4FF08050CA49C8633E
:1049700000BF4FF08050C84988630015886500BFAC
:1049800000BF022004904FF4E0600590049803906B
:104990004815C865C004C863800088630398029006
:1049A000029801900198496D60F30701BA4841658A
:1049B000406920F4FF014FF4FF02019802EAC010A1
:1049C0000143B548416100BF4FF08050B249C86310
:1049D00000BF4FF08050B04988630115AE48816533
:1049E00000BF059803900846AB49C865C0048863BA
:1049F00003980290029801900198496D60F30701B5
:104A0000A5484165406920F4FF024FF4FF01019879
:104A100001EAC0100243A048426100BF4FF080503D
:104A20009D49C86300BF4FF080519B48816340158A
:104A30009949886500BF00BF0320049041F230000F
:104A40000590049803904815C865C004C8638000A9
:104A5000886303980290029801900198496D60F371
:104A600007018D484165406920F4FF014FF4FF02C2
:104A7000019802EAC01001438748416100BF4FF02E
:104A800080508549C86300BF4FF0805082498863D9
:104A900001158148816500BF0598039008467E494D
:104AA000C865C00488630398029002980190019839
:104AB000496D60F3070178484165406920F4FF01C2
:104AC0004FF4FF02019802EAC010014372484161AD
:104AD00000BF4FF080507049C86300BF4FF0805056
:104AE0006D4988630015886500BF00BF04200490ED
:104AF00000200590049803904815C865C004C86359
:104B00008000886303980290029801900198496D93
:104B100060F3070160484165406920F4FF024FF4EB
:104B2000FF01019801EAC01002435B48426100BFE7
:104B30004FF080505849C86300BF4FF0805056492D
:104B400088630015886500BF059803904815C865FF
:104B5000C004886303980290029801900198496DFF
:104B600060F307014C484165406920F4FF024FF4AF
:104B7000FF01019801EAC01002434748426100BFAB
:104B80004FF080504449C86300BF4FF08051424805
:104B9000816340154049886500BF00BF082004902C
:104BA00040F207200590049803904815C865C0049A
:104BB000C86380008863039802900298019001986E
:104BC000496D60F3070134484165406920F4FF02F4
:104BD0004FF4FF01019801EAC01002432E484261E0
:104BE00000BF4FF080502C49C86300BF4FF0805089
:104BF0002949886301152848816500BF05980390FD
:104C000008462549C865C004886303980290029845
:104C100001900198496D60F307011F4841654069A3
:104C200020F4FF024FF4FF01019801EAC010024393
:104C30001948426100BF4FF08051C16300BF4FF07F
:104C400080511548816340151349886500BF00BF36
:104C500009200490002005900498039049150E48FF
:104C6000C165C8040C49C86380008863039802903A
:104C7000029801900198496D60F30701064841656B
:104C8000406920F4FF024FF4FF01019801EAC010CF
:104C900002430148426101E000C0092000BF4FF01B
:104CA0008050FE49C86300BF4FF08050FB498863C5
:104CB0000015886500BF059803904815C865C004B5
:104CC000886303980290029801900198496D60F3FF
:104CD0000701F2484165406920F4FF024FF4FF01EB
:104CE000019801EAC0100243EC48426100BF4FF056
:104CF0008050EA49C86300BF4FF08050E74988639D
:104D00000015886500BF00BF0A20049000200590B0
:104D1000049803904815C865C004C8638000886380
:104D200003980290029801900198496D60F3070181
:104D3000DA484165406920F4FF024FF4FF01019811
:104D400001EAC0100243D548426100BF4FF08051D4
:104D5000C16300BF4FF08050D0498863001588655B
:104D600000BF059803904815C865C0048863039880
:104D70000290029801900198496D60F30701C748BD
:104D80004165406920F4FF014FF4FF02019802EAF7
:104D9000C0100143C148416100BF4FF08050BF497E
:104DA000C86300BF4FF08051BC4881634015BB49C8
:104DB000886500BF00BF0C20049000200590049877
:104DC00003904815C865C004C863800088630398D1
:104DD0000290029801900198496D60F30701AF4875
:104DE0004165406920F4FF024FF4FF01019801EA98
:104DF000C0100243A948426100BF4FF08051C16317
:104E000000BF4FF08050A54988630115A348816514
:104E100000BF059803900846A049C865C004886390
:104E200003980290029801900198496D60F3070180
:104E30009A484165406920F4FF024FF4FF01019850
:104E400001EAC01002439548426100BF4FF0805014
:104E50009249C86300BF4FF080519048816340156C
:104E60008E49886500BF00BF0D200490002005908A
:104E7000049803904815C865C004C863800088631F
:104E800003980290029801900198496D60F3070120
:104E900082484165406920F4FF024FF4FF01019808
:104EA00001EAC01002437D48426100BF4FF08050CC
:104EB0007A49C86300BF4FF0805078498863001575
:104EC000886500BF059803904815C865C0048863CD
:104ED00003980290029801900198496D60F30701D0
:104EE0006E484165406920F4FF024FF4FF010198CC
:104EF00001EAC01002436948426100BF4FF0805090
:104F00006649C86300BF4FF080506449886300154C
:104F1000886500BF00BF0F20049000200590049812
:104F200003904815C865C004C8638000886303986F
:104F30000290029801900198496D60F3070157486B
:104F40004165406920F4FF024FF4FF01019801EA36
:104F5000C01002435148426100BF4FF080504F499A
:104F6000C86300BF4FF080504C49886300158865C6
:104F700000BF059803904815C865C004886303986E
:104F80000290029801900198496D60F3070143482F
:104F90004165406920F4FF024FF4FF01019801EAE6
:104FA000C01002433D48426100BF4FF080503B4972
:104FB000C86300BF4FF0805038498863001588658A
:104FC00000BF00BF102004900020059004980390BB
:104FD0004815C865C004C8638100304881630398E0
:104FE0000290029801902D490198496D60F30701E4
:104FF0002A484165406920F4FF014FF4FF020198FF
:1050000002EAC01001432548416100BF4FF08050C3
:105010002249C86300BF4FF08050204988630015C3
:10502000886500BF059803904815C865C00488636B
:1050300003980290029801900198496D60F307016E
:1050400016484165406920F4FF014FF4FF020198C2
:1050500002EAC01001431148416100BF4FF0805087
:105060000E49C86300BF4FF080500C49886300159B
:10507000886500BF00BF11200490072005900498A8
:1050800003904815C865C004C86381000348816364
:105090000398029002980190004901E000C00920A5
:1050A0000198496D60F30701FE484165406920F4AD
:1050B000FF024FF4FF01019801EAC0100243F948D2
:1050C000426100BF4FF08050F649C86300BF4FF007
:1050D0008050F44988630015886500BF05980390E7
:1050E0004815C865C004886303980290029801902F
:1050F0000198496D60F30701EA484165406920F471
:10510000FF024FF4FF01019801EAC0100243E54895
:10511000426100BF4FF08050E249C86300BF4FF0CA
:105120008050E04988630015886500BF00BF1220E9
:10513000049000200590049803904815C865C004A9
:10514000C8638000886303980290029801900198D8
:10515000496D60F30701D3484165406920F4FF01C0
:105160004FF4FF02019802EAC0100143CD484161AB
:1051700000BF4FF08050CB49C86300BF4FF0805054
:10518000C84988630115C748816500BF0598039029
:105190000846C449C865C004886303980290029811
:1051A00001900198496D60F30701BE48416540696F
:1051B00020F4FF024FF4FF01019801EAC0100243FE
:1051C000B848426100BF4FF08050B649C86300BF85
:1051D0004FF08050B34988630015886500BF00BF59
:1051E0001320049000200590049803904815C8658A
:1051F000C004C863800088630398029002980190FD
:105200000198496D60F30701A6484165406920F4A3
:10521000FF014FF4FF02019802EAC0100143A148C8
:10522000416100BF4FF080509E49C86300BF4FF0FE
:1052300080509C4988630015886500BF05980390DD
:105240004815C865C00488630398029002980190CD
:105250000198496D60F3070192484165406920F467
:10526000FF024FF4FF01019801EAC01002438D488C
:10527000426100BF4FF080508A49C86300BF4FF0C1
:105280008050884988630015886500BF00BF0720EB
:10529000049001200590049803904815C865C00447
:1052A000C863800088630398029002980190019877
:1052B000496D60F307017B484165406920F4FF01B7
:1052C0004FF4FF02019802EAC010014375484161A2
:1052D00000BF4FF080507349C86300BF4FF080504B
:1052E000704988630015886500BF059803904815CC
:1052F000C865C004886303980290029801900198E1
:10530000496D60F3070167484165406920F4FF017A
:105310004FF4FF02019802EAC01001436148416165
:1053200000BF4FF080505F49C86300BF4FF080500E
:105330005C4988630015886500BF00BFC820FFF77F
:10534000B3F81020049041F2900005900498039067
:105350004FF480705349C865C004C86380008863F7
:1053600003980290029801900198496D60F307013B
:105370004C484165406920F4FF014FF4FF02019859
:1053800002EAC01001434748416100BF4FF080501E
:105390004449C86300BF4FF08050424988630115FB
:1053A0004048816500BF0598039008463D49C8659F
:1053B000C1043C48816303980290029801903949E6
:1053C0000198496D60F3070136484165406920F452
:1053D000FF024FF4FF01019801EAC0100243314877
:1053E000426100BF4FF080502E49C86300BF4FF0AC
:1053F00080502C4988630015886500BF00BF1120CC
:10540000049040F227200590049803904815C86541
:10541000C004C863800088630398029002980190DA
:105420000198496D60F307011E484165406920F409
:10543000FF014FF4FF02019802EAC010014319482E
:10544000416100BF4FF080501649C86300BF4FF064
:1054500080501449886301151248816500BF059882
:10546000039008460F49C865C004886303980290FA
:10547000029801900198496D60F307010948416560
:10548000406920F4FF024FF4FF01019801EAC010C7
:1054900002430448426100BF4FF080500149C86395
:1054A00000BF01E000C009204FF08050FE49886332
:1054B0000015886500BF00BF3220FEF7F5FF1220FF
:1054C00004901F200590049803904FF48070F649D3
:1054D000C865C004C863800088630398029002987E
:1054E00001900198496D60F30701EF4841654069FB
:1054F00020F4FF014FF4FF02019802EAC0100143BB
:10550000E948416100BF4FF08051C16300BF4FF0D7
:105510008050E54988630115E348816500BF05981F
:1055200003900846E049C865C00488630398029068
:10553000029801900198496D60F30701DA484165CE
:10554000406920F4FF024FF4FF01019801EAC01006
:105550000243D548426100BF4FF08050D249C86332
:1055600000BF4FF08050D04988630015886500BFA8
:1055700000BF3220FEF798FF132004904FF4A8508C
:105580000590049803904FF48070C749C865C00423
:10559000C863800088630398029002980190019884
:1055A000496D60F30701C0484165406920F4FF027E
:1055B0004FF4FF01019801EAC0100243BA4842616A
:1055C00000BF4FF08050B849C86300BF4FF0805013
:1055D000B54988630015886500BF05980390481594
:1055E000C865C004886303980290029801900198EE
:1055F000496D60F30701AC484165406920F4FF0143
:105600004FF4FF02019802EAC0100143A64841612D
:1056100000BF4FF08050A449C86300BF4FF08051D5
:10562000A14881634015A049886500BF00BF2920BB
:10563000049027200590049803904815C865C0047D
:10564000C8638000886303980290029801900198D3
:10565000496D60F3070194484165406920F4FF01FA
:105660004FF4FF02019802EAC01001438E484161E5
:1056700000BF4FF080508C49C86300BF4FF080508E
:10568000894988630015886500BF0598039048150F
:10569000C865C0048863039802900298019001983D
:1056A000496D60F3070180484165406920F4FF02BD
:1056B0004FF4FF01019801EAC01002437A484261A9
:1056C00000BF4FF080507849C86300BF4FF0805052
:1056D000754988630015886500BF00BF2B200490C2
:1056E0000D200590049803904815C865C004C86350
:1056F0008000886303980290029801900198496D98
:1057000060F3070168484165406920F4FF024FF4E7
:10571000FF01019801EAC01002436348426100BFE3
:105720004FF080506049C86300BF4FF080505E4921
:1057300088630015886500BF059803904815C86503
:10574000C004886303980290029801900198496D03
:1057500060F3070154484165406920F4FF024FF4AB
:10576000FF01019801EAC01002434F48426100BFA7
:105770004FF080504C49C86300BF4FF080504A49F9
:1057800088630015886500BF00BF3220FEF78CFEDD
:105790002020049000200590049803904FF480701E
:1057A0004149C865C004C8638000886303980290BB
:1057B000029801900198496D60F307013A484165EC
:1057C000406920F4FF014FF4FF02019802EAC01083
:1057D00001433548416100BF4FF080503249C863F2
:1057E00000BF4FF080513048816340152E498865D5
:1057F00000BF059803904815C865C1042A48816315
:10580000039802900298019027490198496D60F32E
:10581000070125484165406920F4FF024FF4FF016C
:10582000019801EAC01002431F48426100BF4FF0D7
:1058300080501D49C86300BF4FF080501A498863EB
:105840000015886500BF00BF21200490002005904E
:10585000049803904815C865C004C8638000886335
:1058600003980290029801900198496D60F3070136
:105870000D484165406920F4FF014FF4FF02019893
:1058800002EAC01001430848416100BF4FF0805058
:105890000549C86300BF4FF0805003498863001575
:1058A000886500BF059801E000C0092003904815F5
:1058B000C865C0048863039802900298019001981B
:1058C000496D60F30701FE484165406920F4FF011E
:1058D0004FF4FF02019802EAC0100143F848416109
:1058E00000BF4FF08050F649C86300BF4FF08050B2
:1058F000F34988630015886500BF00BF302004901D
:1059000000200590049803904815C865C004C8633A
:105910008000886303980290029801900198496D75
:1059200060F30701E6484165406920F4FF014FF448
:10593000FF02019802EAC0100143E148416100BF43
:105940004FF08050DE49C86300BF4FF08050DC4903
:1059500088630015886500BF059803904815C865E1
:10596000C004886303980290029801900198496DE1
:1059700060F30701D2484165406920F4FF024FF40B
:10598000FF01019801EAC0100243CD48426100BF07
:105990004FF08050CA49C86300BF4FF08050C849DB
:1059A00088630015886500BF00BF3120049040F275
:1059B00007700590049803904815C865C004C86333
:1059C0008000886303980290029801900198496DC5
:1059D00060F30701BA484165406920F4FF014FF4C4
:1059E000FF02019802EAC0100143B548416100BFBF
:1059F0004FF08050B249C86300BF4FF08050B049AB
:105A000088630015886500BF059803904815C86530
:105A1000C004886303980290029801900198496D30
:105A200060F30701A6484165406920F4FF024FF486
:105A3000FF01019801EAC0100243A148426100BF82
:105A40004FF080509E49C86300BF4FF080509C4982
:105A500088630015886500BF00BF3220049040F2C3
:105A600007300590049803904815C865C004C863C2
:105A70008000886303980290029801900198496D14
:105A800060F307018E484165406920F4FF024FF43E
:105A9000FF01019801EAC01002438948426100BF3A
:105AA0004FF080508649C86300BF4FF08050844952
:105AB00088630015886500BF059803904815C86580
:105AC000C004886303980290029801900198496D80
:105AD00060F307017A484165406920F4FF024FF402
