:020000040000FA
:10000000D0230820AD020000B5020000B7020000B6
:10001000B9020000BB020000BD02000000000000A9
:10002000000000000000000000000000BF0200000F
:10003000C102000000000000C3020000032800000D
:10004000C70200004529000097290000BD290000D3
:10005000BF29000053530100C7020000C70200007F
:1000600037560100C7020000C7020000C7020000A7
:10007000C7020000C7020000C7020000C70200005C
:10008000C702000045060000C7020000C7020000CA
:10009000C7020000C70200003D2D0000C70200009B
:1000A000C7020000C7020000C7020000C70200002C
:1000B0008B0E0000C7020000C7020000C70200004C
:1000C000C7020000C7020000C7020000DFF80CD022
:1000D00016F0A6FB004800479D020000D023082030
:1000E000AA204107087255200872704700B50548DC
:1000F000410648600120086103200870FFF7F0FF07
:1001000000BD0000A0ACB9035448C06C5349C8649A
:100110000846C06CC8640846C06820F03000C8605B
:100120000846C06840F03000C8604D48006F4C4938
:1001300008670846806A40F0050088624948006800
:1001400040F004004849C1F8C4004FF000004449A1
:10015000C8600846406840F00200486008464068B1
:1001600020F0020048600846406840F00100486006
:100170003A48C06840F030003849C8604FF002008B
:100180004FF0010101FA00F14FEA50124FF0E02365
:1001900003EB8202C2F8001100BF704770B5002463
:1001A00000E0641C47F230508442FADB10202C49F6
:1001B00008602E480078401C2C49087008460078DA
:1001C00002284ADB2A480068294948602448C06A56
:1001D000086000202549087025490968244A5268AA
:1001E000881A16F0F4F80646224915F0E9FE05468D
:1001F0002946214815F01AFF204908602048007858
:10020000401C1F4908700846007804281FD1144874
:10021000806A60F004001249886200201849087062
:100220001648006817490968C861174800680078CF
:1002300020F002001449096808701348006800782B
:1002400020F00100401C10490968087005E00448CE
:10025000806A40F005000249886270BD00C002401B
:1002600000800040C4C00F4000C00F4000C0072005
:1002700004C0072000007A44D313834E0CC007202B
:1002800001C007202C0000103800001010B519F034
:1002900043FD10BD10B519F033FF10BD02F0FEF99B
:1002A00003E001F0FCF9FFF7F5FFFAE706488047A5
:1002B00006480047FEE7FEE7FEE7FEE7FEE7FEE74B
:1002C000FEE7FEE7FEE7FEE7E5240000CD000000C4
:1002D0000848406840F48020064948600846406C61
:1002E00020F4402048640448006840F004000249BB
:1002F0000860704700C0024000400340FFFFFFFF5E
:1003000070B505460C469A48006840F0400099498F
:10031000C1F8C4002946984815F088FE064616F034
:1003200079F8401E954988610846406840F0090008
:10033000486008464069002048610846406940F02E
:10034000020048618E4800696FF30B008C49086118
:100350000846C0688B4908408949C86000208A491E
:100360000968087025E088480068017844FA01F0BF
:100370004FF6FE71884315D08148016982480068B4
:10038000007842000120904001437D4801617B4894
:10039000C06C7D4909680978093101228A401043FF
:1003A0007649C864784800680078401C7649096836
:1003B00008707548006800780628D4DB062072496A
:1003C0000968087052E0704800680178891C44FA96
:1003D00001F04FF6FE71884341D06848C16C6A480D
:1003E00000680078C01C0122824011436348C16448
:1003F000654800680078801F06282ED2DFE800F0EC
:10040000030A11181F265E48C06840F020005C49AE
:10041000C86023E05A48C06840F400705849C8607A
:100420001CE05748C06840F400605549C86015E0BA
:100430005348C06840F400405149C8600EE050483D
:10044000C06840F400304E49C86007E04C48C068BE
:1004500040F400104A49C86000E000BF00BF4A48AD
:1004600000680078401C48490968087046480068E0
:1004700000780C28A7DB002043490968087070BD8C
:100480002DE9FF5F04460D4616469946DDF838A073
:10049000032C00D9A41D504615F0E9FF4FF033326C
:1004A0003A4BCDE9020115F0A8FE074616F006F812
:1004B00082460F9815F0DBFF354A364BCDE9020135
:1004C00015F09BFE074615F0F9FF0F90D5B1012DF1
:1004D0003ED1304615F07BFF2F49039015F0A6FD65
:1004E00080462649886915F072FF8346414615F01B
:1004F00067FD074615F08EFF2049042202FB041118
:10050000886126E0484615F062FF2449009015F006
:100510008DFD514602900F9815F04CFD0190029907
:1005200015F04EFD8346514615F0F2FC124903903A
:1005300015F046FD80464FF07E5115F03BFD074615
:1005400015F068FF0D49042202FB0411886100E0E8
:1005500000BF00BF032C00D9A41F0848006D012173
:10056000A14041F00101084304490865BDE8FF9F2F
:10057000C4C00F4000C00F4020BCBE4B00800140F3
:1005800000C00240CF30CCFF340000103333E33FD3
:10059000CDCCCCCCCCCCF43F0000C84200003443DE
:1005A00010B53A48006840F400703949C1F8C400F9
:1005B0004FF01200374908724FF0000008644FF006
:1005C000010008720846007B40F00100087340F209
:1005D000E37088874FF00A002F4908704FF00C0035
:1005E0002E4908704FF00F00A1F1040108704FF080
:1005F0002500A1F1040108704FF00000A1F10401F1
:1006000008704FF011004FF0010101FA00F14FEABC
:1006100050124FF0E02303EB8202C2F8001100BF3A
:100620004FF00001002807DACA06140E1C4A00F039
:100630000F031B1FD45403E0CA06130E194A1354A8
:1006400000BF10BD1FB5184800688068401C1649DF
:10065000096888600F48007840F001000D49087073
:100660001248007812490978124A1278094B9B8F78
:10067000CDE90032CDE90210064890F8383010F884
:100680002C2F0DA1144816F07DFB1FBDC4C00F40D8
:1006900000C00F4000400240384002402C40024061
:1006A00018ED00E000E400E03400001020400240BB
:1006B0002440024028400240253032642F25303249
:1006C000642F253034642D253032643A253032646D
:1006D0003A2530326400000098C2072007280CD267
:1006E000DFE800F00405060708090A0005E004E059
:1006F00003E002E001E000E000BF00BF00BFFEE752
:1007000010B518F073F819F015FC19F01FFA1BF06A
:100710008DFB1AF08DFC18F039FCBDE8104017F085
:1007200045BD10B518F07CF819F00AFC19F07CFAF8
:100730001AF04EFDBDE8104019F006B800207047D1
:1007400070477047002070470020704700207047B6
:10075000704770472DE9F04705460E4691469A4688
:10076000287862284CD010DC4D2873D006DC412854
:1007700071D0442870D048286FD1B7E053286DD08D
:1007800054286CD06128F7D148E074280ED006DCDC
:10079000682827D0692873D07028EDD114E0762816
:1007A0007CD078285CD07928E6D145E06249096898
:1007B000086815F05CFE07463A460B46291D304690
:1007C00016F0E0FA0446B2E05B490968486815F0A3
:1007D0004EFE07463A460B46291D304616F0D2FA21
:1007E0000446A4E054490968886815F040FE0746AD
:1007F0003A460B46291D304616F0C4FA044696E0E8
:100800004D490968086A15F032FE07463A460B461C
:10081000291D304616F0B6FA044688E046490968B4
:10082000886915F024FE07463A460B46291D3046D6
:1008300016F0A8FA04467AE03F490968486915F0BD
:1008400016FE07463A460B46291D304616F09AFA20
:1008500004466CE038E02FE03FE062E058E04EE014
:1008600035490968086915F002FE07463A460B4605
:10087000291D304616F086FA044658E000E00DE0E7
:100880002D490968C86815F0F2FD07463A460B463F
:10089000291D304616F076FA044648E026490968D4
:1008A000C86915F0E4FD07463A460B46291D304657
:1008B00016F068FA04463AE02048828F291D304637
:1008C00016F060FA044632E01D48027805F1040192
:1008D000304616F057FA044629E01A48027805F126
:1008E0000401304616F04EFA044620E0164802781D
:1008F00005F10401304616F045FA044617E01348A6
:10090000027805F10401304616F03CFA04460EE088
:100910000F48027805F10401304616F033FA044618
:1009200005E00CA1304616F02DFA044600BF00BFCA
:10093000A0B2BDE8F08700002C000010004002408B
:10094000384002402C4002402840024024400240EF
:10095000204002403C703E592E2E2E20717565209D
:10096000717569657265732071756520706F6E674A
:100970006120617175693F203A6C3C2F703E000028
:100980001C200121814042094FF0E02303EB820249
:10099000C2F8001100BF70471C2001218140FE4AAF
:1009A000430942F8231000BF704770B505460E4654
:1009B0008EB9032405E015F8021BC8B2F7490855A3
:1009C000641C062CF7DB7E20F4490870FF20487079
:1009D000FE20887009E0002405E015F8021BC8B26B
:1009E000EE490855641C062CF7DBFFF7D5FF4FF0E6
:1009F000A040006820F001004FF0A0410860E848E6
:100A0000006820F00300C1F80001E4480079E349E0
:100A1000497940EA01204FF0A0410864DF4880781E
:100A2000DE49C97840EA01204FF0A0414864DB4824
:100A30000078DA49497840EA01204FF0A041886403
:100A40000846006840F44F4008600846D0F80001AE
:100A500040F07800C1F80001FFF792FF012070BD5F
:100A600000200FE000EB4001CE4A02EB4121CE4ACC
:100A700042F83010002102EBC0025160CB4A42F82C
:100A80002010401C0328EDD3C749C94A1160C7494B
:100A90004FF0A042C2F820114FF00201C54A116088
:100AA0004FF000014FF0A042C2F82811704700201B
:100AB00013E000EB4001C04A02EB4121BF4A42F87B
:100AC0003010BF4902EBC00251600021BD4A42F81C
:100AD000301002EBC0025160401C0428E9D3B74932
:100AE000B94A1160B7494FF0A042C2F80C114FF05B
:100AF0000301B64A11604FF000014FF0A042C2F866
:100B00001811704710B5014641F480704FF0A044B1
:100B1000A06201206062002307E04FF0A040406B1C
:100B200010F0010F00D103E05B1CB3F5A02FF4D34C
:100B300000BF00204FF0A04460622046026B90B2DC
:100B400010BD10B540F480734FF0A044A36223465B
:100B5000D962002207E04FF0A0435B6B13F0010F56
:100B600000D103E0521CB2F5A02FF4D300BF10BD9A
:100B700010B59748006840F080409649C1F8C4001D
:100B80009548964988600846C06820F00F0000F13B
:100B90000500C8604FF44F404FF0A04108604FF08F
:100BA00038007F4908604FF000008D49086004E07C
:100BB0008B480068401C8A49086089480068FF2803
:100BC000F6D902204FF0A041086030204860400173
:100BD000486143F20F7008611220C8604FF4307012
:100BE0006F49086048F23C004FF0A04108624FF0A6
:100BF00000007B49086004E079480068401C78499F
:100C0000086077480068FF28F6D93C204FF0A041E3
:100C100008624FF40060886100207149086004E0B8
:100C20006F480068401C6E4908606D480068FF28E6
:100C3000F6D900204FF0A04188614FF40041FFF742
:100C400080FF0020664908600FE00020FFF75AFF90
:100C5000644908600846008810F4084F00D109E094
:100C60005F480068401C5E4908605D480068B0F558
:100C7000801FEAD300BF0220FFF744FF5A490860F3
:100C80000320FFF73FFF59490860084600684FF608
:100C9000F07108405449098840EA0140A0F5F82164
:100CA000F0391ED14FF480510020FFF74AFF002099
:100CB0004B4908600FE00120FFF724FF4949086015
:100CC0000846007810F0200F00D009E04448006882
:100CD000401C4349086042480068B0F5801FEAD3D1
:100CE00000BF00203E4908600FE00120FFF70AFF27
:100CF0003C4908600846007810F0040F00D009E075
:100D000037480068401C3649086035480068B0F52F
:100D1000803FEAD300BF1F20FFF7F4FE314908608F
:100D20000846007810F0100F11D04FF0A040406836
:100D300040F001004FF0A04148601948006840F4BD
:100D40008060C1F800014FF01500886003E01220B8
:100D50004FF0A04188602348007810F0080F05D0BC
:100D60004FF480704FF0A041886103E000204FF005
:100D7000A0418861094800790849497940EA012081
:100D80004FF0A0410864054880780449C97840EADA
:100D900001204FF0A0412BE080E100E010000010A6
:100DA00000010050040F0820E0F60720F8F60720A5
:100DB0001C0100502401005004F70720A0F6072072
:100DC000FF050080C0F60720080100501001005008
:100DD000C4C00F4000C00F400501155000C00240C4
:100DE00018C0072014C007201CC0072020C00720FF
:100DF00048644D4800784C49497840EA01204FF05A
:100E0000A0418864FFF753FEFFF72AFE26204749DA
:100E100008604FF08800464908604FF6FF7001F106
:100E2000040108604FF0A040D0F8000140F003003A
:100E30004FF0A041C1F800010846006840F00100F1
:100E4000086010BD70B53B4D296800F104033A4DB0
:100E500055F83140058805F103054FEAA50202E087
:100E600020CB20C4521E002AFAD105886D1E45F001
:100E70004045314E06EBC10675604D1C2946032DD9
:100E800000D100212B4D296070BD2DE9F04740E0D5
:100E90002748001DC0F8008018F0080F38D02748F8
:100EA000046831E0264850F8347017F0804F00D1C4
:100EB00023E0C7F30A00C51E40F2EA50854202D87B
:100EC0002048074200D018E045F0004016F022FF0D
:100ED00006468EB106F1040A1B4850F83490E81C0F
:100EE000850804E059F8040B4AF8040B6D1E002D28
:100EF000F8D1304619F084FE00BF601C0446042877
:100F000000D100240D48046010480068A042C9D1F7
:100F100000BF0748001F00680549096810EA01087A
:100F2000B6D1BDE8F08700001000001000020050AC
:100F3000E40F005028010050E0F60720180100508F
:100F4000C0F607200000901BA0F6072014010050F7
:100F50001CB50446FE48007801282FD1FD480088C2
:100F60002188884219DD2088A1880844F949098828
:100F7000884212DDF7484088618888420DDD60882C
:100F8000E1880844F3494988884206DD207A10B98F
:100F9000012020721CBD0020FCE7EF480088B0F55E
:100FA000167F08DB002000900346322201210190C9
:100FB0000620FFF765FA0020E7490880002020722C
:100FC00000BFE7E72DE9F84F04460E4617461D46D9
:100FD0000095B4F800C0B4F80480C4441FFA8CF241
:100FE00063881946208813F0A4FF0095B4F802C066
:100FF000B4F80680C4441FFA8CF322886188104636
:1010000013F097FF0095B4F802C0B4F80680C4440A
:101010001FFA8CF3B4F800C0B4F80480C4441FFA7B
:101020008CF2B4F802C0B4F80680C4441FFA8CF104
:10103000208813F07EFF0095B4F802C0B4F8068053
:10104000C4441FFA8CF3B4F800C0B4F80480C4445C
:101050001FFA8CF2B4F800C0C4441FFA8CF0618807
:1010600013F067FF304614F09EFE4008B4F8049079
:1010700009EBD971228802EB6101A1EBC0001FFAD4
:1010800080FA00200090B4F8068008EBD8706288DF
:1010900002EB6000083881B23B463246504613F0FE
:1010A000F7FFBDE8F88F00B589B04FF4FC634FF649
:1010B000E072AA49AA48FFF785FF4FF4FC634FF698
:1010C000E072A8A1A848FFF77DFF4FF4FC634FF63C
:1010D000E072A6A1A648FFF775FF4FF4FC634FF638
:1010E000E072A4A1A548FFF76DFF4FF4FC634FF633
:1010F000E072A3A1A448FFF765FF4FF4FC634FF62D
:10110000E072A2A1A448FFF75DFF4FF4FC634FF625
:10111000E072A2A1A348FFF755FF78200121A82380
:10112000C022CDE90010A0A103A815F02BFE4FF4BA
:10113000FC634FF6E07203A99F48FFF743FF4FF4AB
:10114000FC634FF6E0729DA19D48FFF73BFF4FF413
:10115000FC634FF6E07299A19A48FFF733FF4FF412
:10116000FC634FF6E07295A19748FFF72BFF4FF411
:10117000FC634FF6E07291A19448FFF723FF4FF410
:10118000FC634FF6E07292A19248FFF71BFF4FF409
:10119000FC634FF6E0728EA18F48FFF713FF4FF408
:1011A000FC634FF6E0728AA18C48FFF70BFF4FF407
:1011B000FC634FF6E07286A18948FFF703FF09B090
:1011C00000BD30B587B04FF4FC634FF6E072634961
:1011D0006348FFF7F7FE4FF4FC634FF6E07261A13E
:1011E0006148FFF7EFFE4FF4FC634FF6E0725FA13A
:1011F0005F48FFF7E7FE4FF4FC634FF6E07279A11A
:101200007D48FFF7DFFE7D490968C86915F02FF9B1
:10121000044622460B467AA101A815F0B3FD7D488D
:101220000068007810F0010F23D074490968C8697C
:1012300015F01DF9044622460B4671A101A815F0D0
:10124000A1FD4FF4FC634FF6E07273A17848FFF7FD
:10125000B9FE70480068007820F001006D49096807
:1012600008704FF4FC634FF6E07201A97048FFF775
:10127000A9FE4FF4FC634FF6E0726EA17048FFF7D1
:10128000A1FE5E490968086A15F0F1F80446224695
:101290000B466CA101A815F075FD4FF4FC634FF6E9
:1012A000E0725DA16A48FFF78DFE4FF4FC634FF6D4
:1012B000E07201A96648FFF785FE07B030BD2DE951
:1012C000F0438BB04FF4FC634FF6E072234924489F
:1012D000FFF778FE4FF4FC634FF6E07221A122483D
:1012E000FFF770FE4FF4FC634FF6E0721FA1204839
:1012F000FFF768FE4FF4FC634FF6E07255A15A48C1
:10130000FFF760FE3D490968886915F0B0F80446AA
:101310000D463A490968486915F0A9F806460F468E
:1013200036490968086915F0A2F8804642460B461E
:101330004EA105A8CDE90067CDE9024515F022FDD3
:101340004FF4FC634FF6E07205A94E489CE00000A4
:10135000DEC1072028C207204C00001098C20720D9
:1013600030C007202D3E00003AC007203C2D000071
:1013700044C00720486F72617300000034C1072029
:101380004D696E75746F73003EC1072053656775B4
:101390006E646F730000000048C1072044696173E8
:1013A0000000000052C1072049503A25642E2564F0
:1013B0002E25642E256400005CC107202D0000004E
:1013C00066C1072070C107207AC1072084C10720A9
:1013D0002B0000008EC1072098C10720A2C1072062
:1013E000ACC1072056656C2E2064656C207669655B
:1013F0006E746F3A00000000B6C107202C00001088
:10140000252E303266206D6574726F732F73656799
:101410002E00000038000010202020202020202056
:1014200020202020202020202020202020202000DC
:10143000C0C10720436C6172696461643A000000B6
:10144000CAC10720252E303266204C5558000000B6
:10145000D4C107204D45444944415320414354558C
:10146000414C455300000000D0C00720583A252EBB
:1014700030326620593A252E303266205A3A252ECF
:1014800030326600DAC00720FFF79CFD4FF4FC63A2
:101490004FF6E072F9A1FD48FFF794FD4FF4FC63AD
:1014A0004FF6E072FAA1FD48FFF78CFD4FF4FC63A4
:1014B0004FF6E072FAA1FD48FFF784FD4FF4FC639C
:1014C0004FF6E072FAA1FD48FFF77CFDFC49096880
:1014D000086814F0CCFF044622460B46F9A105A883
:1014E00015F050FC4FF4FC634FF6E07205A9F84884
:1014F000FFF768FDF2490968886814F0B8FF0446F0
:1015000022460B46F3A105A815F03CFC4FF4FC6302
:101510004FF6E07205A9F248FFF754FDE849096863
:10152000486814F0A4FF044622460B46EDA105A826
:1015300015F028FC4FF4FC634FF6E07205A9EC4867
:10154000FFF740FDDE490968C86814F090FF0446C3
:1015500022460B46E7A105A815F014FC4FF4FC63E6
:101560004FF6E07205A9E648FFF72CFD0BB0BDE889
:10157000F08310B54FF4FC634FF6E072E149E248A6
:10158000FFF720FD4FF4FC634FF6E072AFF22C2121
:10159000DE48FFF717FD4FF4FC634FF6E072AFF241
:1015A0003421DB48FFF70EFD4FF4FC634FF6E07289
:1015B000D8A1DA48FFF706FD4FF4FC634FF6E0725E
:1015C000D7A1D948FFF7FEFC4FF4FC634FF6E07259
:1015D000D6A1DB48FFF7F6FC4FF4FC634FF6E07250
:1015E000D8A1D948FFF7EEFC4FF4FC634FF6E07248
:1015F000D6A1D748FFF7E6FC4FF4FC634FF6E07244
:10160000D4A1D548FFF7DEFC4FF4FC634FF6E0723F
:10161000D2A1D348FFF7D6FC4FF4FC634FF6E0723B
:10162000D0A1D148FFF7CEFC4FF4FC634FF6E07237
:10163000CEA1D048FFF7C6FC4FF4FC634FF6E07232
:10164000CDA1CF48FFF7BEFC4FF4FC634FF6E0722C
:10165000CCA1CE48FFF7B6FC4FF4FC634FF6E07226
:10166000CBA1CD48FFF7AEFC4FF4FC634FF6E07220
:10167000CAA1CC48FFF7A6FC10BD10B500F0E1FBF5
:10168000044644B1C84A2146C84800F090FD0120F4
:10169000C749087002E00020C549087010BD1CB59C
:1016A000FEF71EFDFFF7E9FFC2480078D0B14FF00A
:1016B000E020006910F4803F14D0002000908049A1
:1016C00001900968086ABC4B0022012101F0DEFC90
:1016D0000020009003460190B748027801210620BF
:1016E000FEF7CEFEB5480068007805287DD2DFE819
:1016F00000F00393ABC4C300FFF73BFF8348FFF741
:1017000027FC30B10120AD4909680870002011F0B4
:10171000C6FF7F48FFF71CFC30B10220A7490968CB
:101720000870002011F0BBFF7F48FFF711FC30B1BB
:101730000320A24909680870002011F0B0FF824818
:10174000FFF706FC50B100209A490870009003464C
:101750000122114601900620FEF792FE7C48FFF719
:10176000F7FB50B100209349087000900346142203
:10177000012101900620FEF783FE7748FFF7E8FB82
:1017800050B100208B4908700090034628220121A7
:1017900001900620FEF774FE7148FFF7D9FB58B19F
:1017A0000020009003463C22012101900620FEF714
:1017B00067FE00207F4908706B48FFF7C9FB10B136
:1017C00001207C4908706B48FFF7C2FB80B17C4860
:1017D00000680078C0090BD079480068007820F0D4
:1017E000800077490968087000E05BE101F010FCB7
:1017F0006C48FFF7ADFB70B1714800680078C00914
:1018000009D06F480068007820F080006C490968B2
:10181000087001F065FB46E1FFF751FD3B48FFF71B
:1018200097FB30B10220654909680870002011F06B
:1018300036FF3748FFF78CFB28B100205F49096865
:10184000087011F02CFF2EE1FFF7BBFC2F48FFF7CB
:101850007FFB28B1002059490968087011F01FFF6B
:101860002B48FFF775FB30B1012054490968087017
:10187000002011F014FF16E113E1A3E054656D7030
:10188000657261747572613A00000000E4C007205F
:1018900048756D656461643A00000000EEC0072081
:1018A00050726573696F6E3A00000000F8C007203F
:1018B000496E636964652055563A000002C10720ED
:1018C0002C000010252E30326620644300000000FA
:1018D0000CC10720252E303266202525000000008F
:1018E00016C10720252E303266205061732E00006D
:1018F00020C10720252E3032662055567300000087
:101900002AC1072098C2072030C007203AC007200C
:1019100044C00720496E666F2E0000004EC00720AD
:10192000416A75737465730058C007204E69766507
:101930006C206465206272696C6C6F3A0000000074
:1019400062C00720310000006CC007203200000098
:1019500076C007203300000080C00720340000005C
:101960008AC007204100000094C00720506C6179B4
:10197000000000009EC00720566F6C2E3100000052
:10198000A8C00720566F6C2E32000000B2C007209E
:10199000566F6C2E33000000BCC007204C6F616492
:1019A00000000000C6C00720E0C1072028C20720B1
:1019B000DEC1072024C00720DFC10720300000104F
:1019C00038000010FFF76FFB3B48FFF7C1FA28B162
:1019D00000203A490968087011F061FE3848FFF7A5
:1019E000B7FA28B1002035490968087011F057FE90
:1019F0003448FFF7ADFA30B133480078A0F1010068
:101A0000324981F828003248FFF7A2FA30B1314854
:101A10000078A0F101002D4981F824002E48FFF73D
:101A200097FA30B12D480078A0F10100274981F8DC
:101A300020002B48FFF78CFA30B12A480078A0F13B
:101A40000100224981F82C002748FFF781FA30B1C4
:101A50001D48007800F101001C4981F82800234846
:101A6000FFF776FA30B11B48007800F10100174902
:101A700081F824001E48FFF76BFA30B11748007850
:101A800000F10100114981F820001A48FFF760FABF
:101A900030B11448007800F101000C4981F82C00A5
:101AA00001E000E000BF00BF1CBD10B500F024F84D
:101AB00002F0BDFA10BD00003AC00720300000104F
:101AC00044C0072066C10720284002400040024071
:101AD00070C10720244002407AC107202040024004
:101AE00084C107202C4002408EC1072098C10720E6
:101AF000A2C10720ACC1072000B589B002208DF833
:101B00001E0000208DF820008DF81F008DF81C00AD
:101B100007208DF81D0007A801F084FF08208DF82C
:101B20001D0007A801F07EFF09208DF81D0007A801
:101B300001F078FF00208DF81E008DF81C000620B3
:101B40008DF81D0007A801F06DFF00208DF81E0024
:101B500002208DF81C000D208DF81D0007A801F053
:101B600061FF00224FF40051022001F0BDFF4FF44D
:101B70000051022001F0CCFF01224021002001F0A1
:101B8000B3FF4021002001F0C3FF01A801F024FCB5
:101B9000FE48069001A9FE4801F0BDFB0121FC486A
:101BA00001F025FC09B000BD70B50446FEF798FAB7
:101BB000002507E00C2000BF0100A0F10102D0B217
:101BC000FAD16D1CA542F5D370BD10B5044600BF17
:101BD0001021EF4801F0C4FD0128F9D02146EC485E
:101BE00001F06DFC00BF0421E94801F0B9FD0028B7
:101BF000F9D0E74801F075FCC0B210BD70B5002007
:101C0000FFF7E3FF05464FF6FF7000EA05240120C9
:101C1000FFF7CAFF0020FFF7D8FF05462C43E4106A
:101C2000C4F30B04204670BD10B54020D949C861EB
:101C30000120FFF7B9FF9020FFF7C7FF0120FFF752
:101C4000B3FFFFF7DBFF04464020D24988612046FE
:101C500010BD10B54020CF49C8610120FFF7A4FF97
:101C6000D020FFF7B2FF0120FFF79EFFFFF7C6FF6E
:101C700004464020C7498861204610BD2DE9F04147
:101C800004460D46FFF7D0FF06460120FFF78CFF04
:101C9000FFF7DFFF074626602F60BDE8F08170B5D3
:101CA00004460D464FF478422946204612F0B5FE10
:101CB000611C88B24FF47842294612F0AEFE681CCF
:101CC00081B24FF47842204612F0A7FE6A1C91B20E
:101CD000621C90B24FF4784212F09FFE70BDF8B5CE
:101CE00004460D464FF6FF70A11E8AB20D390090D2
:101CF00088B22B46294613F01CF94FF6FF7004F109
:101D00000F018AB2A11C009088B22B46294613F01D
:101D100010F94FF6FF700090A81E83B20D3881B203
:101D20002246204613F005F94FF6FF70009005F1AA
:101D30000F0083B2A81C81B22246204613F0F9F8A6
:101D40004BF6F04005F10F06B3B2E61FB2B205F153
:101D50000F06B1B2A4F10F060090B0B213F0E9F88B
:101D60004BF6F04005F10F06B3B2A4F10F06B2B284
:101D7000EE1DB1B2A4F10F060090B0B213F0D9F885
:101D80004BF6F040A5F10F06B3B2E61FB2B2A5F1D3
:101D90000F06B1B2A4F10F060090B0B213F0C9F86B
:101DA0004BF6F040A5F10F06B3B2A4F10F06B2B2A4
:101DB000EE1FB1B2A4F10F060090B0B213F0B9F863
:101DC0004BF6F04005F10F06B3B204F10F06B2B2C4
:101DD00005F10F06B1B2E61D0090B0B213F0A9F8FC
:101DE0004BF6F04005F10F06B3B204F10F06B2B2A4
:101DF000EE1DB1B204F10F060090B0B213F099F8E5
:101E00004BF6F040A5F10F06B3B204F10F06B2B2E3
:101E1000A5F10F06B1B2E61D0090B0B213F089F83B
:101E20004BF6F040EE1FB3B204F10F06B2B2A5F1CB
:101E30000F06B1B204F10F060090B0B213F079F8BA
:101E4000F8BDF0B597B000274821684613F0A0FF11
:101E500000BF15A916A8FFF711FF16984DF8270027
:101E600009A8159940F82710781CC7B24948406D59
:101E700010F4005F01D1092FEBDB092F7ED1DDE9E2
:101E80000001084402990844032190FBF1F01290EC
:101E9000DDE90301084405990844032190FBF1F0B2
:101EA0001390DDE90601084408990844032190FBDA
:101EB000F1F01490DDE91201441ADDE91301451A2D
:101EC00012991498461A002C01DD204600E0604269
:101ED0000446002D01DD284600E068420546002E3C
:101EE00001DD304600E070420646502C06DD502DE4
:101EF00004DD502E02DD002017B0F0BDAC4215DA33
:101F0000A64209DA149A1299881800EBD071C1F32D
:101F10004F01214A11801EE0DDE91212881800EB02
:101F2000D071C1F34F011C4A118014E0AE4209DAAE
:101F3000149A1299881800EBD071C1F34F01164A18
:101F4000118008E0DDE91312881800EBD071C1F3AD
:101F50004F01114A1180DDE9091001440B98084432
:101F6000032190FBF1F01290DDE90C1001440E9872
:101F70000844032190FBF1F0139000E063E0DDE9F9
:101F80000F10014411980844032107E020A1070025
:101F90000000034000C0092024C2072090FBF1F09C
:101FA0001490DDE91201441ADDE91301451A129972
:101FB0001498461A002C01DD204600E060420446D9
:101FC000002D01DD284600E068420546002E01DDB7
:101FD000304600E070420646502C05DD502D03DDF2
:101FE000502E01DD002087E7AC4215DAA64209DA5F
:101FF000149A1299881800EBD071C1F34F01C24AAC
:1020000051801EE0DDE91212881800EBD071C1F397
:102010004F01BD4A518014E0AE4209DA149A129978
:10202000881800EBD071C1F34F01B74A518008E026
:10203000DDE91312881800EBD071C1F34F01B24AE9
:102040005180B14858E7002056E72DE9F047054692
:102050000C4616464FF0000921882289891AE38828
:1020600062899A1A5143A2882389D31A67886289A0
:10207000BA1A03FB121014F0AFF9C6E90C010022E2
:102080001346D6E90C71384614F004FA02D14FF029
:10209000010989E029882A89891AE38862899A1ABC
:1020A0005143AA882B89D31A67886289BA1A03FB1D
:1020B000121014F091F9C6E9000121882289891AC9
:1020C000AA882B89D21A51432A88D21AA388278931
:1020D000DB1B02FB131014F07FF9C6E90201218912
:1020E000AA885143A2882B8902FB131162885143AD
:1020F00022885A4323892F8803FB1723E28803FB96
:102100000212A18879432388AF8803FB17136189E2
:1021100003FB012014F060F9C6E904016A886989AB
:10212000511AE38862899A1A5143EB886A899B1A8B
:1021300067886289BA1A03FB121014F04DF9C6E9D8
:10214000060121882289891AEB886A899A1A5143E3
:102150006B886A899A1AA3882789DB1B02FB1310F4
:1021600014F03AF9C6E908012189EA885143A388A5
:102170006A8903FB12116288514322886B895A4392
:1021800023896F8803FB1723E28803FB0213A188CE
:1021900079432788EA8807FB1212618902FB013024
:1021A00014F01AF9C6E90A014846BDE8F0872DE99E
:1021B000F04F8BB08246894614464FF0000B002248
:1021C0001346D4E90C51284614F064F960D0B9F8EC
:1021D000020014F012F90546D4E902733A4614F0ED
:1021E0000CF8CDE90201B9F8000014F006F9074631
:1021F000D4E900532A4614F000F8CDE90001DDE9E6
:10220000022313F053FFCDE90401D4E904532A4615
:1022100013F04CFFCDE90601D4E90C532A4614F023
:102220005EF8CDE9080114F009F9AAF80000B9F840
:10223000020014F0E2F80746D4E908532A4613F0E6
:10224000DCFFCDE90201B9F8000014F0D6F807462A
:10225000D4E906532A4613F0D0FFCDE90001DDE9A9
:10226000022313F023FFCDE90401D4E90A532A46DF
:1022700013F01CFFCDE90601D4E90C532A4614F0F3
:102280002EF8CDE9080114F0D9F8AAF8020001E00F
:102290004FF0010B58460BB0BDE8F08F38B5002465
:1022A00027E0002011F0FBF900204FF6FF7317A282
:1022B0000A210090084612F0EBFE1C48FFF774FC60
:1022C0001B4A02EB84025188194A32F82400FFF7B6
:1022D00006FD00BFFFF7B5FD0546002DFAD02888A2
:1022E000144921F82400688801EB84014880601CAF
:1022F000C4B2032CD5DB104A0E490D48FFF7A5FEEA
:10230000002011F0CCF938BD24C20720546F75634A
:10231000682063726F73736861697220746F2063E1
:10232000616C6962726174650000000020A10700A1
:1023300018C2072078000010E0C107202DE9F047FF
:10234000B1480068C0F3016003287CD1AF48006841
:1023500010F0030006D0012833D002285FD00328F4
:102360002ED100E000BFA8480068C0F3074000F18C
:1023700001044FF00201A648D0F88800C0F30E0017
:1023800000F10100A1FB0001A24B4FF0000CA0FBEB
:10239000037901FB039100FB0C112246634638468A
:1023A00013F0ACFC05469C480068C0B200F1010483
:1023B00022464FF00003284613F0A0FC974908601E
:1023C0005DE091480068C0F3074000F101044FF060
:1023D00002018F48D0F88800C0F30E0000F1010020
:1023E000A1FB00108E4A4FF0000CA1FB027900FB0C
:1023F000029001FB0C0122466346384613F07EFC36
:10240000054685480068C0B200F1010422464FF03D
:102410000003284613F072FC804908602FE07A48D8
:102420000068C0F3074000F101044FF00201784852
:10243000D0F88800C0F30E0000F10100A1FB0012EB
:102440004FF4004000E01BE04FF00003A1FB0079D7
:1024500002FB009001FB03012246384613F04EFCBC
:1024600005466D480068C0B200F1010422464FF0F5
:102470000003284613F042FC6849086000BF2FE0C3
:102480006248006810F0030006D0012810D002282E
:1024900019D0032823D100E000BF5F480068C0B214
:1024A00000F101005B49B1FBF0F05C49086016E007
:1024B00059480068C0B200F101005949B1FBF0F081
:1024C000564908600BE054480068C0B200F10100B2
:1024D0004FF40041B1FBF0F05049086000BF00BF6D
:1024E000BDE8F08720204F4908604948D0F8A00196
:1024F00010F0200F05D000BF4A48006810F0400FD0
:10250000FAD00320444908604FF000004049C1F868
:10251000A801454908604FF001003C490860434864
:10252000434908604FF0AA00424908604FF0550047
:1025300008604FF00100404908604FF0AA003D4993
:1025400008604FF055003249C1F88C0000BF2E489A
:10255000006810F0806FFAD00320374908604FF010
:10256000AA002B49C1F88C004FF055003149086092
:1025700000BF2548006800F04070B0F1407FF8D1FE
:1025800023202E4908604FF0AA002149C1F8AC0071
:102590004FF055002A4908604FF0010029490860B2
:1025A0004FF0AA00264908604FF055001849C1F8BD
:1025B000AC0000BF2448006810F4806FFAD00320FC
:1025C000204908604FF0AA001149C1F8AC004FF053
:1025D00055001B49086000BF1B48006800F44070AC
:1025E000B0F5407FF8D11948194908604FF0000054
:1025F0000749C1F8C8010846006820F4704040F45B
:10260000804008607047000088C00F400CC10F4038
:1026100000C00F4000093D0004C10F404000001001
:10262000001BB700A0C10F40ACC10F406300050004
:1026300084C00F408CC00F4080C00F40A4C00F402A
:10264000ACC00F40A0C00F40A8C00F40DE872804D8
:10265000C4C00F4004202E49096808702D482E4937
:10266000096808602D482C49096888602A4909686A
:1026700048602B4828490968C8612A4826490968E2
:10268000C86000212448006881610020224909684F
:102690000861002120480068416170471CB5FFF7C0
:1026A000D9FF00F057F800F07DF800F009FBFDF7C6
:1026B0000FFE00F0F9FBFFF7F8F9FDF771FF4FF49B
:1026C00008511948FDF71CFE184819495A230022E1
:1026D000CDE9001011460220FDF7D2FE0020009047
:1026E00003463222012101900620FDF7C9FE00F0C9
:1026F0008DFD00F05DFC00F0A0F9FDF705FD13F085
:10270000FCF8FFF7CBFD00200149096808701CBDEB
:10271000300000100000C0412C0000106666C63F6B
:10272000B81E55409A99993F000048426F12033BEA
:102730006F12833A10B5002807DACA06140EA04AB1
:1027400000F00F031B1FD45403E0CA06130E9D4A6A
:10275000135410BD10B59C4800680A21B0FBF1F07D
:10276000401E4FF0E021486107200861964800684C
:102770000A21B0FBF1F4B4F1807F00D311E024F022
:102780007F40401E4FF0E02148611F214FF0FF3095
:10279000FFF7D0FF00204FF0E0218861072008619B
:1027A00000BF10BD10B58948006840F44100884959
:1027B000C1F8C4000846D0F8C40040F002008349C4
:1027C00008604FF003004FF0402148614FF00000D7
:1027D000C8600846406840F0010048607D48886154
:1027E0004FF001010846FFF7A5FF012001218140BC
:1027F00042094FF0E02303EB8202C2F8001100BF50
:1028000010BD1CB519F008FB73480088B0F5167FA1
:102810000BDB7248007840B900200090034601228B
:10282000114601900620FDF72BFE6B480088B0F59D
:10283000167F04DA68480088401C674908801CBD80
:102840002DE9F0414FF0402000684FF04021086032
:1028500063480078142190FBF1F201FB120738461F
:1028600013F0ACFD06464FF07E5113F0A9FB054670
:102870004FF07C5113F0DAFB0446002113F03AFECE
:102880002CD15848806A40F00500564988620846B5
:10289000806A40F03000886200F08FF913F0B4F8DD
:1028A000514800680078C0F3400078B94F4800787C
:1028B00060B100204E490968C8614B480068007843
:1028C00020F00100401C484909680870464800682B
:1028D000007820F00200444909680870BDE8F081E2
:1028E00070B5002013F06AFD05464FF07C5113F0DF
:1028F0009DFB0446002113F0FDFD22D13A480068FB
:102900000078C0F3C000E0B138480078C8B12F4863
:10291000006840F480502E49C1F8C4003248006875
:10292000007820F0080030490968087031480068D4
:1029300020F0C0602F4908600846006840F48030ED
:10294000086070BD2DE9FC41FFF77AFFFFF7C8FF73
:1029500023480078401C2249087025490968086806
:10296000254913F027FB0746244913F029FB0646A7
:10297000234913F05BFB054613F04CFDC4B221481C
:10298000214923460022CDE9001011460220FDF71F
:1029900077FDBDE8FC8110B512480068C4B214F0A0
:1029A000100F01D0FDF7FAFB14F0020F01D000F078
:1029B00043FB0C4800680B49086010BD7047704726
:1029C00018ED00E000E400E040000010C4C00F403B
:1029D00000C00F401FBCBE004C00001024C00720E8
:1029E00044000010008000403800001034C207206E
:1029F0002C000010004003400000884100003443D8
:102A0000000070416F12033B6F12833AA34988683C
:102A10000221A24A5160012151607047A04800681C
:102A200040F400009F49C1F8C4004FF000009B49EA
:102A300008674FF01800C860704700B5FFF7EEFF59
:102A4000FFF7E4FF00BD30B500250023002448E077
:102A5000FFF7DCFF00BF9448406BC0F3C04018B9DB
:102A60008E4880686428F6D3FFF7D0FF03468F486E
:102A700001680068401C8D4A10608D4840F8213084
:102A8000282B01D3432B01D9002030BD0023FFF7B1
:102A9000BDFF00BF8448406BC0F3C04018B17F4801
:102AA00080686428F6D3FFF7B1FF03467F480168CA
:102AB0000068401C7D4A10607D4840F821303C2B66
:102AC00008D9502B06D2C4F10701012088402843C1
:102AD000C5B205E00A2B01D3642B01D90020D4E74D
:102AE000641C082CB4DB2846CFE700B50023FFF7B1
:102AF0008DFF00BF6C48406BC0F3C04018B1674801
:102B000080682D28F6D3FFF781FF034667480168E8
:102B10000068401C654A1060654840F82130052B6C
:102B200001D32D2B01D9012000BDFFF76FFF00BF9E
:102B30005D48406BC0F3C04018B9584880686428AD
:102B4000F6D3FFF763FF0346584801680068401C4E
:102B5000564A1060564840F82130462B01D35A2B74
:102B600001D90120E0E7FFF751FF00BF4E48406B5D
:102B7000C0F3C04018B1494880686428F6D3FFF715
:102B800045FF0346494801680068401C474A1060F9
:102B9000474840F82130462B01D35A2B01D9012058
:102BA000C2E70020C0E700B50346FFF72FFF00BFD4
:102BB0003A4880689842FBD300BD2DE9F84F0024C5
:102BC000A2460020394908603A4908703648006A30
:102BD00040F40020344908624FF40020C86344F2F6
:102BE0005060FFF7E0FF3048006A20F400202E49D3
:102BF0000862FFF77AFF08B1BDE8F88F4FF00009CF
:102C000008E0FFF720FFC9F10301C9008840044331
:102C100009F10109B9F1040FF3DBFFF714FF824654
:102C2000200E8DF80000200C8DF80100200A8DF890
:102C30000200E0B28DF803009DF800009DF801103D
:102C400008449DF8021008449DF8031008441949EF
:102C500008700846007850451ED14FF6FF7101EA12
:102C6000144013F0CAFB07460022134B13F037FB46
:102C7000054613F023FC114909688860A0B213F0DF
:102C8000BCFB074600220C4B13F029FB054613F052
:102C900015FC0A490968086000BFADE7004009401B
:102CA000C4C00F4000C00F4000C009202CC2072044
:102CB0008400001030C20720000024402C000010C7
:102CC0006748006840F480506649C1F8C40066480F
:102CD000406840F48030644948600846406C20F405
:102CE0004030486461480068614940EA01005F493A
:102CF00008600846C06840F00200C8605D4800688F
:102D0000007820F0080000F108005A4909680870AE
:102D10005648C06820F480705449C8604FF01600CF
:102D20004FF0010101FA00F14FEA50124FF0E02399
:102D300003EB8202C2F8001100BF70472DE9FC5F6F
:102D40004D480078002865D0012862D147480068C6
:102D500020F48030454908604969C1F30B1013F035
:102D600036FB4649086046494448006813F05EF95E
:102D7000424908600846006813F079FB06460022C5
:102D8000404B13F037FA04460D463C48006813F0F8
:102D90006EFB064600223C4B13F02FFA804622467B
:102DA0002B4613F09CFA824613F088FB33490860E7
:102DB000002000900346019034480268203203212D
:102DC0002E48006800F062F928498969C1F30B10A8
:102DD00013F0FDFA2E4908600846006813F047FB1F
:102DE000804600222B4B13F008FA064600222A4B9D
:102DF00013F075FA044613F061FB24490968C860B2
:102E00001C480068007820F008000830194909685B
:102E1000087022E015480069C0F307201F49204AC6
:102E2000126888541E4801680068401C1C4A1060E3
:102E300045F6BF5081420FD3002011460860194962
:102E400048610C480068007820F080008030094913
:102E50000968087000F081F800BF00BFBDE8FC9F62
:102E6000C4C00F4000C00F4000C0024000400340FB
:102E700002FF21003800001034C20720500000106B
:102E800000F07F450000F03F008051402C00001012
:102E9000540000100080404000FEAF40A40300102A
:102EA00058000010008000403A48406840F48040DC
:102EB0003849486040F6220037498861022048605E
:102EC0000120486000204861012001218140420921
:102ED0004FF0E02303EB8202C2F8001100BF7047FD
:102EE00000202E49087001202D4908702D480068E7
:102EF0002D4908602B48C0682C49086001202949E9
:102F0000C8600846006820F0FF00086008460068B6
:102F100040F0010008600846006820F47F40086027
:102F20000846006840F4807008600846006820F495
:102F3000803008600846006820F0E06008600846BD
:102F4000006840F0C0600860022013494861486092
:102F5000012048603120C86370471148007801287B
:102F600016D1114800680F49086010480068C86011
:102F70000846006820F0E06008600846006840F4F9
:102F80007F4008600120054908700020044908704E
:102F90007047000000C002400080004034C207209B
:102FA000450000100040034038C207203CC2072003
:102FB0002F48406840F400102D49486040F6220038
:102FC0002C4908810E2048602B480068007820F0CA
:102FD0008000803028490968087070470A2905DD9B
:102FE000A1F10A0200FA02F290B200E00841214A7F
:102FF00012684FF6C0739A431E4B1A601A46126845
:103000004FF4803343EA80131A431A4B1A60704717
:103010001A48006840F001001949C1F810014FF04A
:103020001800184948611848C8614FF0020048600C
:103030004FF00100486070471048006820F0010020
:103040000F49C1F810010C480068007820F080009A
:1030500000F180000849096808700A48406920F0BA
:103060003800084948614FF0000002490860704785
:1030700000C0024000C0084038000010104100505D
:1030800000400050008000403FA5AE022DE9FC5FEB
:1030900081468A4614469B46BAF1000F09D0BAF120
:1030A000010F24D0BAF1020F3DD0BAF1030F57D16E
:1030B0003CE04A49087813F08AF94FF07E510190BC
:1030C000484612F077FF8046454912F0AFFF0746A9
:1030D000019912F075FF064613F09CF9C0B2401C2E
:1030E0003E490D5C284613F072F9206039E03D49F5
:1030F000087813F06CF907464FF07E51484612F0FD
:1031000059FF8046364912F091FF0646394612F0C3
:1031100057FF054613F07EF9C0B2401C3149085CE8
:103120008BF800001DE0C4F800901AE0484613F048
:103130009EF92D4A2D4BCDE9000113F05EF80746AC
:103140002B4A2C4B12F0B2FF054613F0B7F9206062
:103150000021206813F0CEF901D20020206000BFCA
:1031600000BF00BFBDE8FC9F2DE9F04788B04FF0DD
:10317000000A2CE0504613F02FF980461E4A1F4BE0
:1031800013F03BF800224FF08043CDE9000113F02B
:10319000A6F800221A4BCDE9020113F02EF80646DC
:1031A00017F0DCFD0022174BCDE9040113F025F8E0
:1031B00004460022134B12F079FFCDE9060113F00B
:1031C0003DF91149096801F80A000AF1010A45F6BA
:1031D000C0508245CEDB08B0BDE8F0874EC2072064
:1031E0000000C64240C207200BB5A679C729F0BF30
:1031F000A835CD3B4E8159407A008BFCFA2119400D
:103200000070C74000C05F40A4030010174800686A
:1032100040F000501649C1F8C4004FF001001549B4
:1032200008634FF040004863134800681349096879
:1032300008601349086013481049096848600D493F
:10324000C1F804010D4800680C49096888600E49FE
:1032500008600E4801F10401086008490968C86067
:103260004FF41C600A49086070470000C4C00F405A
:1032700000C00F4000400050A403001064C20720AB
:103280000041005020C0084008410050C05D0004CB
:10329000104100502DE9F04704468846FB4884421F
:1032A00002D0FB48844200D103E04321F9A000F0A2
:1032B00087FEF648844204D12A2000F01EFE07460D
:1032C00009E0F348844204D1142000F016FE0746BA
:1032D00001E0BDE8F08700254FF0FF3902260AE043
:1032E000681C7043B7FBF0F9C14504D96D1CFF2D74
:1032F00001D90025B61CC145F2D82068C0B22060B3
:1033000020684FF6FF7101EA052108432060F0B202
:10331000206100BFDDE770B504460D46DB488442FE
:1033200002D0DB48844200D103E08121D9A000F023
:1033300047FED648844204D10121480500F0FAFD39
:1033400008E0D348844204D10121001500F0F2FDC9
:1033500000E070BDA88829890843298A0843298884
:10336000084386B22660287B00F00F066660204680
:103370006969FFF78FFF00BFEBE710B50446C3484C
:10338000844202D0C248844200D103E0A821C1A0F7
:1033900000F016FEBD48844205D100214FF4001014
:1033A00000F0C8FD06E0BA48844203D100210015B0
:1033B00000F0C0FD10BD10B50446B448844202D0F0
:1033C000B348844200D103E0C021B2A000F0F8FD70
:1033D000206800F00F0010BD002141608160B749F6
:1033E0004161072101600021C1600161704770B532
:1033F00004460D46A548844202D0A548844200D127
:1034000003E0E521A3A000F0DBFD0DB1012D00D10B
:1034100003E0E6219FA000F0D3FD012D04D16068F8
:1034200040F00200606003E0606800F00D00606042
:1034300070BD70B504460D469448844202D094484D
:10344000844200D103E0FE2192A000F0B9FD0DB14D
:10345000012D00D103E0FF218EA000F0B1FD012D70
:1034600004D1606840F00100606003E0606800F033
:103470000E00606070BD70B504460D4683488442FE
:1034800002D08348844200D104E04FF48D7181A0C2
:1034900000F096FD0DB1012D00D104E040F21B11AA
:1034A0007CA000F08DFD012D04D1606800F00700C4
:1034B000606003E0606840F00800606070BD70B557
:1034C00004460D467148844202D07148844200D1BE
:1034D00004E04FF49A716FA000F072FDA8B2A060F2
:1034E00070BD10B504466948844202D068488442E1
:1034F00000D104E04FF4A27166A000F061FDA06865
:1035000080B210BD2DE9F74F82B006460C46002070
:10351000E0606060606103E03046FFF7E2FF07466D
:10352000F06810F0040FF7D1032030623046FFF747
:1035300042FF082801DD012500E00025049800284D
:103540007AD125B9D4F80890D4F800A003E0D4F8D3
:1035500008B02068019060E0F06810F0020F2ED0F3
:103560002169606888422AD0206888B93DB9FF2166
:103570003046FFF7A4FF6068401C60601FE04FF614
:10358000FF713046FFF79BFF6068801C606016E0AB
:1035900055B99AF800103046FFF791FF0AF1010A79
:1035A0006068401C60600AE0019801883046FFF7BF
:1035B00086FF0198801C01906068801C6060D6F8CE
:1035C000188018F0010F07D048F4007060614FF0C8
:1035D000FF3005B0BDE8F08F17E03046FFF781FF00
:1035E0000746A06848B125B989F8007009F10109BA
:1035F00003E0ABF800700BF1020B1DB9E068401C52
:10360000E06002E0E068801CE060F06810F0040F09
:1036100003D0D4E903018842DFD121696068884280
:103620009AD1D4E90301884296D14FF48070606149
:10363000206810B16068CCE705E0A06808B1E068D8
:10364000C7E70020C5E7049801287DD16BE020681A
:1036500088B93DB9FF213046FFF731FF6068401C53
:10366000606036E04FF6FF713046FFF728FF606874
:10367000801C60602DE01DBBD4E90002815C3046F7
:10368000FFF71DFF6068401C606022E0008008407A
:10369000000003402E2E5C4D656E755C4669726DB0
:1036A000776172655C736F757263655C6C706331B2
:1036B0003778785F7373702E6300000040420F000C
:1036C000D4E90002815A3046FFF7F9FE6068801C99
:1036D0006060D6F8188018F0010F05D048F400702B
:1036E00060614FF0FF3074E715E03046FFF7F9FEF8
:1036F0000746A06838B11DB9D4E902128F5402E020
:10370000D4E902128F521DB9E068401CE06002E06B
:10371000E068801CE060F06810F0040F03D0D4E98A
:1037200003018842E1D1F06810F0020F03D0216953
:10373000606888428BD1D4E90301884203D12169B2
:103740006068884204D000E007E00F20706102E06A
:103750004FF48070606100203BE74FF0FF3038E7A6
:1037600070B505460C467748854202D076488542BA
:1037700000D105E04FF40571AFF2E80000F020FC45
:10378000012C07D0022C05D0042C03D0082C01D02A
:10379000102C00D105E040F21521AFF2081000F026
:1037A0000FFCE868204201D0012070BD0020FCE73A
:1037B00070B504460D4616466248844202D06248FF
:1037C000844200D105E04FF40B71AFF2381000F0E5
:1037D000F7FB012E03D160692843606104E0606952
:1037E0000F21A9430840606170BD70B505460C46C5
:1037F0005448854202D05448854200D105E040F249
:103800004921AFF2701000F0DBFB012C05D0022C37
:1038100003D0042C01D0082C00D105E040F24A214D
:10382000AFF2901000F0CCFBA869204201D001203B
:1038300070BD0020FCE710B504464248844202D027
:103840004148844200D105E04FF41671AFF2BC103C
:1038500000F0B6FBA06910BD70B505460C463948AE
:10386000854202D03848854200D105E040F26D2102
:10387000AFF2E01000F0A4FB012C05D0022C03D025
:10388000042C01D0082C00D105E040F26E21AFF2EB
:10389000FC1000F095FBE869204201D0012070BDCA
:1038A0000020FCE770B504460D462648844202D04D
:1038B0002548844200D105E040F28121AFF22C205E
:1038C00000F07EFB012D01D0022D00D105E040F279
:1038D0008221AFF2402000F073FB256270BD70B50D
:1038E00004460D4616461748844202D016488442C4
:1038F00000D105E040F29721AFF2682000F060FBB4
:10390000022D01D0012D00D105E04FF42671AFF258
:103910007C2000F055FB0EB1012E00D105E040F2F5
:103920009921AFF2902000F04BFB012E03D1606A89
:103930002843606204E0606A0321A9430840606292
:1039400070BD00000080084000000340F0B5044650
:103950000B461546194660003B4A102901D3103921
:10396000401C52F820604FEA410C032707FA0CF77D
:10397000BE4342F8206052F820604F0005FA07F776
:103980003E4342F82060F0BDF0B504460B461546B4
:10399000194660002C4A4032102901D31039401CCE
:1039A00052F820604FEA410C032707FA0CF7BE4398
:1039B00042F8206052F820604F0005FA07F73E43B6
:1039C00042F82060F0BD30B50B461F496831012A2E
:1039D00007D151F8204001259D402C4341F820405B
:1039E00006E051F8204001259D40AC4341F82040BD
:1039F00030BD012806D11449896A41F00801124AF4
:103A0000916206E028B91049896A21F008010E4A3E
:103A100091627047012800D1052201B90A220A4BA0
:103A2000DA67704710B50446A27861782078FFF70E
:103A30008DFFE27861782078FFF7A6FF2279617820
:103A40002078FFF7C0FF10BD00C0024001460020F3
:103A5000052912D2DFE801F00305080B0E00F84833
:103A60000CE0F748203009E0F548403006E0F44823
:103A7000603003E0F248803000E000BF00BF7047D4
:103A800001460020052912D2DFE801F00305080BEA
:103A90000E00EB480CE0EA48203009E0E8484030EE
:103AA00006E0E748603003E0E548803000E000BF12
:103AB00000BF704701460020052912D2DFE801F05F
:103AC0000305080B0E00DE480CE0DD48203009E05D
:103AD000DB48403006E0DA48603003E0D848803008
:103AE00000E000BF00BF70472DE9F04107460D46DA
:103AF00016463846FFF7AAFF04463CB11EB12068BF
:103B00002843206002E02068A8432060BDE8F081DF
:103B100070B506460C463046FFF798FF054605B1DE
:103B2000AC6170BD70B506460C463046FFF78EFF9F
:103B3000054605B1EC6170BD70B505462846FFF736
:103B400085FF04460CB1606970BD0020FCE718B920
:103B500012B9BC4B196014E0022803D112B9BA4B58
:103B600019600EE020B9012A02D1B84B196008E0B3
:103B7000022804D1012A02D1B54B196001E000BF2F
:103B8000FEE7704703463BB932B9B248006820FAF5
:103B900001F000F001007047022B07D132B9AE48A6
:103BA000006820FA01F000F00100F4E743B9012AAF
:103BB00006D1AA48006820FA01F000F00100EAE707
:103BC000022B08D1012A06D1A548006820FA01F08D
:103BD00000F00100DFE700BFFEE710B9A14A116065
:103BE00006E0022802D1A04A116001E000BFFEE712
:103BF000704770B504460D461646324629462046A3
:103C0000FFF772FF70BD70B504460D462946204689
:103C1000FFF77EFF70BD70B504460D46294620466D
:103C2000FFF780FF70BD10B504462046FFF784FF04
:103C300010BD70B504460D4616463246294620464C
:103C4000FFF785FF70BD70B504460D461646324637
:103C500029462046FFF796FF70BD10B503460C4677
:103C600021461846FFF7B9FF10BD2DE9F041074680
:103C70000D4616463846FFF7E9FE04463CB11EB134
:103C800020692843206102E02069A8432061BDE843
:103C9000F0812DE9F04180460E4615461F4640460C
:103CA000FFF7EEFE04468CB147B11EB16088284391
:103CB00060800BE020882843208007E01EB16088E8
:103CC000A843608002E02088A8432080BDE8F081FE
:103CD0002DE9F04180460E4615461F464046FFF747
:103CE000CFFE04468CB147B11EB1608A2843608282
:103CF0000BE0208A2843208207E01EB1608AA84397
:103D0000608202E0208AA8432082BDE8F0812DE98C
:103D1000F04107460E4614463846FFF7B1FE054609
:103D20001DB10EB16C8300E02C83BDE8F0812DE95C
:103D3000F04107460E4614463846FFF7A1FE0546F9
:103D40001DB10EB1EC8300E0AC83BDE8F08170B52D
:103D500006460D463046FFF793FE044624B10DB1EA
:103D6000E08A70BDA08AFCE70020FAE72DE9F04167
:103D700080460C4616461F464046FFF79BFE05460A
:103D80005DB12FB1032C08DC285D3043285504E0D9
:103D9000032C02DC285DB0432855BDE8F0812DE9F5
:103DA000F04180460C4616461F464046FFF782FE0D
:103DB00005469DB14FB1032C10DC05F11000005DEC
:103DC000304305F11001085508E0032C06DC05F12D
:103DD0001000005DB04305F110010855BDE8F08109
:103DE0002DE9F04107460C4615463846FFF762FEBE
:103DF000064626B1032C02DC06F118000555BDE885
:103E0000F0812DE9F04107460C4615463846FFF78C
:103E100051FE064626B1032C02DC06F11C000555B6
:103E2000BDE8F08170B506460C463046FFF742FE0D
:103E30000546DDB1032C19DC05F11400005D70BDF1
:103E400000C0092090800240B0800240948002406F
:103E5000B480024084800240A480024088800240F6
:103E6000A88002408C800240AC8002400020E6E73F
:103E700010B50A46202801D2034601E0A0F1200334
:103E80001946202814D2464B1B684FF0030404FA4D
:103E900001F423EA0403434CC4F8A831404B1B68E7
:103EA00002FA01F443EA04033E4CC4F8A83113E0DB
:103EB0003D4B1B684FF0030404FA01F423EA0403AA
:103EC000384CC4F8AC31384B1B6802FA01F443EAB1
:103ED0000403344CC4F8AC3110BD0146202903D290
:103EE0000A462F4B186803E0A1F120022E4B1868F8
:103EF00020FA02F303F00300704770B506462B4822
:103F000004683046FFF7E9FF054635B1012D06D0BC
:103F1000022D06D0032D08D105E0042505E001257A
:103F200003E0022501E0082500BF00BFB4FBF5F463
:103F3000204670BD01290AD11D4A12681D4B00EAB6
:103F4000030342EA0302174BC3F8C4200AE049B94D
:103F5000174A1268174B23EA000302EA0302114BC7
:103F6000C3F8C420704700201349086030BF704771
:103F700004201249086008200F49086030BF7047CC
:103F800004200E49086009200B49086030BF7047C3
:103F900004200A49086003200749086030BF7047C1
:103FA000A8C10F4000C00F40ACC10F40400000103E
:103FB000C4C00F40DEF7EFEFC0C00F4010ED00E0CF
:103FC00000BFFEE770B505460C46A4F12000044A88
:103FD00002EB00111022284611F0C1FE70BD000056
:103FE00070C70100FE48006C40F0FF00FC49086407
:103FF0000846006840F4FF0008600846006A40F088
:10400000605008620846006C40F480700864704795
:10401000002109E0002201E0531C9AB240F27543EE
:104020009A42F9DB4B1C99B28142F3DB704700B531
:1040300087B0FFF7D7FF6420FFF7EAFF0020059065
:10404000059803904FF48070E549C865C004C863C3
:104050008000886303980290029801900198496D4E
:1040600060F30701DE484165406920F4FF024FF428
:10407000FF01019801EAC0100243D948426100BF24
:104080004FF08050D649C86300BF4FF08050D449EC
:1040900088630015886500BF00BFC865C0048863D9
:1040A000400088634000C86300BF0846006C20F0F1
:1040B000FF0008640846006820F4FF000860084616
:1040C000406DC1B20291C648406900F4FF01019100
:1040D000DDE9010141EAD0110291C148006C40F0D4
:1040E000FF00BF4908640846006840F4FF01BC486F
:1040F0000160029803904FF00050B9498863411560
:10410000B748816503980490049806900698A0F536
:104110001341253905D00698A0F51341283942F0FE
:10412000A7820120AF490870B1200490A520059016
:10413000049803904FF48070A949C865C004C8630F
:104140008100A74881630398029002980190A449D6
:104150000198496D60F30701A1484165406920F469
:10416000FF014FF4FF02019802EAC01001439C488E
:10417000416100BF4FF08051C16300BF4FF08051DB
:104180009748816340159649886500BF059803905C
:104190004815C865C004886303980290029801908E
:1041A0000198496D60F307018D484165406920F42D
:1041B000FF024FF4FF01019801EAC0100243884852
:1041C000426100BF4FF080508549C86300BF4FF087
:1041D00080508349886301158148816500BF00BF15
:1041E000B12005900598039008467D49C865C00434
:1041F000C863800088630398029002980190019838
:10420000496D60F3070176484165406920F4FF027B
:104210004FF4FF01019801EAC01002437048426167
:1042200000BF4FF080506E49C86300BF4FF080510F
:104230006B4881634115816500BF00BF4015684927
:10424000C865C104664881634800654988634000C9
:10425000C86300BF0846006C20F0FF0008640846F1
:10426000006820F4FF0008600846406DC0B202906C
:104270000846406900F4FF000190DDE9011040EAC2
:10428000D11002905648006C40F0FF005449086479
:104290000846006840F4FF000860029803904FF061
:1042A0000050886340158865039804900498069030
:1042B0000698A5285ED103204A490870B1200490D1
:1042C00000200590049803904FF480704449C8651D
:1042D000C004C8638000886303980290029801902C
:1042E0000198496D60F307013D484165406920F43C
:1042F000FF024FF4FF01019801EAC0100243384861
:10430000426100BF4FF080503549C86300BF4FF095
:1043100080513348816340153149886500BF059855
:1043200003904815C865C0048863039802900298FA
:1043300001900198496D60F3070129484165406982
:1043400020F4FF014FF4FF02019802EAC01001437C
:104350002348416100BF4FF080502149C86300BF2E
:104360004FF080501E49886301151D48816500BFCC
:1043700000BF02E002201B490870E520049047F6C8
:10438000F0000590049803904FF480701449C865BC
:10439000C1041348C16388001149886303980290DF
:1043A000029801900198496D60F307010C4841653E
:1043B000406920F4FF024FF4FF01019801EAC010A8
:1043C00002430748426100BF4FF080500449C86370
:1043D00000BF4FF08050024988630015886503E0F4
:1043E00000C009205C00001000BF0598039048152C
:1043F000C865C004886303980290029801900198F0
:10440000496D60F30701FE484165406920F4FF02F1
:104410004FF4FF01019801EAC0100243F8484261DD
:1044200000BF4FF08050F649C86300BF4FF0805086
:10443000F34988630015886500BF00BF0120049020
:1044400000020590049803904815C865C004C8632D
:104450008000886303980290029801900198496D4A
:1044600060F30701E6484165406920F4FF024FF41C
:10447000FF01019801EAC0100243E148426100BF18
:104480004FF08050DE49C86300BF4FF08050DC49D8
:1044900088630015886500BF059803904815C865B6
:1044A000C004886303980290029801900198496DB6
:1044B00060F30701D2484165406920F4FF024FF4E0
:1044C000FF01019801EAC0100243CD48426100BFDC
:1044D0004FF08050CA49C86300BF4FF08050C849B0
:1044E00088630015886500BF00BF022004904FF468
:1044F000E0600590049803904815C865C004C8633F
:104500008000886303980290029801900198496D99
:1045100060F30701BA484165406920F4FF014FF498
:10452000FF02019802EAC0100143B548416100BF93
:104530004FF08050B249C86300BF4FF08050B0497F
:1045400088630115AE48816500BF05980390084651
:10455000AB49C865C0048863039802900298019033
:104560000198496D60F30701A5484165406920F451
:10457000FF024FF4FF01019801EAC0100243A04876
:10458000426100BF4FF080509D49C86300BF4FF0AB
:1045900080519B48816340159949886500BF00BFE1
:1045A0000320049041F230000590049803904815D0
:1045B000C865C004C86380008863039802900298AD
:1045C00001900198496D60F307018D48416540698C
:1045D00020F4FF014FF4FF02019802EAC0100143EA
:1045E0008748416100BF4FF080508549C86300BFD4
:1045F0004FF080508249886301158148816500BF72
:104600000598039008467E49C865C00488630398EE
:104610000290029801900198496D60F30701784873
:104620004165406920F4FF014FF4FF02019802EA5E
:10463000C01001437248416100BF4FF08050704983
:10464000C86300BF4FF080506D49886300158865CE
:1046500000BF00BF04200490002005900498039040
:104660004815C865C004C863800088630398029039
:10467000029801900198496D60F307016048416517
:10468000406920F4FF024FF4FF01019801EAC010D5
:1046900002435B48426100BF4FF080505849C863F5
:1046A00000BF4FF08050564988630015886500BFF1
:1046B000059803904815C865C00488630398029064
:1046C000029801900198496D60F307014C484165DB
:1046D000406920F4FF024FF4FF01019801EAC01085
:1046E00002434748426100BF4FF080504449C863CD
:1046F00000BF4FF0805142488163401540498865B2
:1047000000BF00BF0820049040F2072005900498E5
:1047100003904815C865C004C86380008863039887
:104720000290029801900198496D60F307013448A6
:104730004165406920F4FF024FF4FF01019801EA4E
:10474000C01002432E48426100BF4FF080502C49F8
:10475000C86300BF4FF0805029498863011528487D
:10476000816500BF0598039008462549C865C004C7
:10477000886303980290029801900198496D60F354
:1047800007011F484165406920F4FF024FF4FF0113
:10479000019801EAC01002431948426100BF4FF07E
:1047A0008051C16300BF4FF08051154881634015AF
:1047B0001349886500BF00BF0920049000200590C0
:1047C0000498039049150E48C165C8040C49C86394
:1047D0008000886303980290029801900198496DC7
:1047E00060F3070106484165406920F4FF024FF479
:1047F000FF01019801EAC01002430148426101E053
:1048000000C0092000BF4FF08050FE49C86300BFC0
:104810004FF08050FB4988630015886500BF0598FC
:1048200003904815C865C0048863039802900298F5
:1048300001900198496D60F30701F24841654069B4
:1048400020F4FF024FF4FF01019801EAC010024377
:10485000EC48426100BF4FF08050EA49C86300BF96
:104860004FF08050E74988630015886500BF00BF9E
:104870000A20049000200590049803904815C8650C
:10488000C004C86380008863039802900298019076
:104890000198496D60F30701DA484165406920F4E9
:1048A000FF024FF4FF01019801EAC0100243D5480E
:1048B000426100BF4FF08051C16300BF4FF0805094
:1048C000D04988630015886500BF05980390481596
:1048D000C865C0048863039802900298019001980B
:1048E000496D60F30701C7484165406920F4FF0145
:1048F0004FF4FF02019802EAC0100143C148416130
:1049000000BF4FF08050BF49C86300BF4FF08051D7
:10491000BC4881634015BB49886500BF00BF0C20BF
:10492000049000200590049803904815C865C004C1
:10493000C8638000886303980290029801900198F0
:10494000496D60F30701AF484165406920F4FF02FB
:104950004FF4FF01019801EAC0100243A9484261E7
:1049600000BF4FF08051C16300BF4FF08050A54998
:1049700088630115A348816500BF05980390084628
:10498000A049C865C004886303980290029801900A
:104990000198496D60F307019A484165406920F428
:1049A000FF024FF4FF01019801EAC010024395484D
:1049B000426100BF4FF080509249C86300BF4FF082
:1049C00080519048816340158E49886500BF00BFC3
:1049D0000D20049000200590049803904815C865A8
:1049E000C004C86380008863039802900298019015
:1049F0000198496D60F3070182484165406920F4E0
:104A0000FF024FF4FF01019801EAC01002437D4804
:104A1000426100BF4FF080507A49C86300BF4FF039
:104A20008050784988630015886500BF0598039019
:104A30004815C865C00488630398029002980190E5
:104A40000198496D60F307016E484165406920F4A3
:104A5000FF024FF4FF01019801EAC01002436948C8
:104A6000426100BF4FF080506649C86300BF4FF0FD
:104A70008050644988630015886500BF00BF0F201F
:104A8000049000200590049803904815C865C00460
:104A9000C86380008863039802900298019001988F
:104AA000496D60F3070157484165406920F4FF02F2
:104AB0004FF4FF01019801EAC010024351484261DE
:104AC00000BF4FF080504F49C86300BF4FF0805087
:104AD0004C4988630015886500BF05980390481508
:104AE000C865C004886303980290029801900198F9
:104AF000496D60F3070143484165406920F4FF02B6
:104B00004FF4FF01019801EAC01002433D484261A1
:104B100000BF4FF080503B49C86300BF4FF080504A
:104B2000384988630015886500BF00BF10200490D5
:104B300000200590049803904815C865C004C86318
:104B400081003048816303980290029801902D49BA
:104B50000198496D60F307012A484165406920F4D6
:104B6000FF014FF4FF02019802EAC01001432548FB
:104B7000416100BF4FF080502249C86300BF4FF031
:104B80008050204988630015886500BF0598039010
:104B90004815C865C0048863039802900298019084
:104BA0000198496D60F3070116484165406920F49A
:104BB000FF014FF4FF02019802EAC01001431148BF
:104BC000416100BF4FF080500E49C86300BF4FF0F5
:104BD00080500C4988630015886500BF00BF112014
:104BE000049007200590049803904815C865C004F8
:104BF000C863810003488163039802900298019082
:104C0000004901E000C009200198496D60F30701E7
:104C1000FE484165406920F4FF024FF4FF0101980E
:104C200001EAC0100243F948426100BF4FF08050D2
:104C3000F649C86300BF4FF08050F44988630015FF
:104C4000886500BF059803904815C865C00488634F
:104C500003980290029801900198496D60F3070152
:104C6000EA484165406920F4FF024FF4FF010198D2
:104C700001EAC0100243E548426100BF4FF0805096
:104C8000E249C86300BF4FF08050E04988630015D7
:104C9000886500BF00BF1220049000200590049892
:104CA00003904815C865C004C863800088630398F2
:104CB0000290029801900198496D60F30701D34872
:104CC0004165406920F4FF014FF4FF02019802EAB8
:104CD000C0100143CD48416100BF4FF08050CB4927
:104CE000C86300BF4FF08050C84988630115C748AA
:104CF000816500BF059803900846C449C865C00493
:104D0000886303980290029801900198496D60F3BE
:104D10000701BE484165406920F4FF024FF4FF01DE
:104D2000019801EAC0100243B848426100BF4FF049
:104D30008050B649C86300BF4FF08050B3498863C4
:104D40000015886500BF00BF132004900020059067
:104D5000049803904815C865C004C8638000886340
:104D600003980290029801900198496D60F3070141
:104D7000A6484165406920F4FF014FF4FF02019805
:104D800002EAC0100143A148416100BF4FF08050CA
:104D90009E49C86300BF4FF080509C49886300154E
:104DA000886500BF059803904815C865C0048863EE
:104DB00003980290029801900198496D60F30701F1
:104DC00092484165406920F4FF024FF4FF010198C9
:104DD00001EAC01002438D48426100BF4FF080508D
:104DE0008A49C86300BF4FF0805088498863001526
:104DF000886500BF00BF072004900120059004983B
:104E000003904815C865C004C86380008863039890
:104E10000290029801900198496D60F307017B4868
:104E20004165406920F4FF014FF4FF02019802EA56
:104E3000C01001437548416100BF4FF08050734975
:104E4000C86300BF4FF080507049886300158865C3
:104E500000BF059803904815C865C004886303988F
:104E60000290029801900198496D60F3070167482C
:104E70004165406920F4FF014FF4FF02019802EA06
:104E8000C01001436148416100BF4FF080505F494D
:104E9000C86300BF4FF080505C4988630015886587
:104EA00000BF00BFC820FFF7B3F81020049041F204
:104EB00090000590049803904FF480705349C865A2
:104EC000C004C86380008863039802900298019030
:104ED0000198496D60F307014C484165406920F431
:104EE000FF014FF4FF02019802EAC0100143474856
:104EF000416100BF4FF080504449C86300BF4FF08C
:104F000080504249886301154048816500BF05987B
:104F1000039008463D49C865C1043C488163039835
:104F200002900298019039490198496D60F3070198
:104F300036484165406920F4FF024FF4FF010198B3
:104F400001EAC01002433148426100BF4FF0805077
:104F50002E49C86300BF4FF080502C49886300156C
:104F6000886500BF00BF1120049040F22720059003
:104F7000049803904815C865C004C863800088631E
:104F800003980290029801900198496D60F307011F
:104F90001E484165406920F4FF014FF4FF0201986B
:104FA00002EAC01001431948416100BF4FF0805030
:104FB0001649C86300BF4FF080501449886301153B
:104FC0001248816500BF0598039008460F49C865DF
:104FD000C004886303980290029801900198496D7B
:104FE00060F3070109484165406920F4FF024FF46E
:104FF000FF01019801EAC01002430448426100BF6A
:105000004FF080500149C86300BF01E000C0092093
:105010004FF08050FE4988630015886500BF00BFCF
:105020003220FEF7F5FF122004901F20059004980F
:1050300003904FF48070F649C865C004C8638000CF
:10504000886303980290029801900198496D60F37B
:105050000701EF484165406920F4FF014FF4FF026A
:10506000019802EAC0100143E948416100BF4FF0D6
:105070008051C16300BF4FF08050E549886301153E
:10508000E348816500BF059803900846E049C8657C
:10509000C004886303980290029801900198496DBA
:1050A00060F30701DA484165406920F4FF024FF4DC
:1050B000FF01019801EAC0100243D548426100BFD8
:1050C0004FF08050D249C86300BF4FF08050D049A4
:1050D00088630015886500BF00BF3220FEF798FF87
:1050E000132004904FF4A8500590049803904FF4B7
:1050F0008070C749C865C004C8638000886303988E
:105100000290029801900198496D60F30701C04830
:105110004165406920F4FF024FF4FF01019801EA64
:10512000C0100243BA48426100BF4FF08050B849F6
:10513000C86300BF4FF08050B5498863001588658B
:1051400000BF059803904815C865C004886303989C
:105150000290029801900198496D60F30701AC48F4
:105160004165406920F4FF014FF4FF02019802EA13
:10517000C0100143A648416100BF4FF08050A449D0
:10518000C86300BF4FF08051A14881634015A0491A
:10519000886500BF00BF292004902720059004984F
:1051A00003904815C865C004C863800088630398ED
:1051B0000290029801900198496D60F307019448AC
:1051C0004165406920F4FF014FF4FF02019802EAB3
:1051D000C01001438E48416100BF4FF080508C49A0
:1051E000C86300BF4FF08050894988630015886507
:1051F00000BF059803904815C865C00488630398EC
:105200000290029801900198496D60F3070180486F
:105210004165406920F4FF024FF4FF01019801EA63
:10522000C01002437A48426100BF4FF08050784975
:10523000C86300BF4FF080507549886300158865CA
:1052400000BF00BF2B2004900D2005900498039010
:105250004815C865C004C86380008863039802903D
:10526000029801900198496D60F307016848416513
:10527000406920F4FF024FF4FF01019801EAC010D9
:1052800002436348426100BF4FF080506049C863E9
:1052900000BF4FF080505E4988630015886500BFED
:1052A000059803904815C865C00488630398029068
:1052B000029801900198496D60F3070154484165D7
:1052C000406920F4FF024FF4FF01019801EAC01089
:1052D00002434F48426100BF4FF080504C49C863C1
:1052E00000BF4FF080504A4988630015886500BFB1
:1052F00000BF3220FEF78CFE202004900020059095
:10530000049803904FF480704149C865C004C86395
:105310008000886303980290029801900198496D7B
:1053200060F307013A484165406920F4FF014FF4FA
:10533000FF02019802EAC01001433548416100BFF5
:105340004FF080503249C86300BF4FF08051304861
:10535000816340152E49886500BF05980390481564
:10536000C865C1042A48816303980290029801909D
:1053700027490198496D60F3070125484165406957
:1053800020F4FF024FF4FF01019801EAC01002432C
:105390001F48426100BF4FF080501D49C86300BFE5
:1053A0004FF080501A4988630015886500BF00BF20
:1053B0002120049000200590049803904815C865AA
:1053C000C004C8638000886303980290029801902B
:1053D0000198496D60F307010D484165406920F46B
:1053E000FF014FF4FF02019802EAC0100143084890
:1053F000416100BF4FF080500549C86300BF4FF0C6
:105400008050034988630015886500BF059801E056
:1054100000C0092003904815C865C004886303983C
:105420000290029801900198496D60F30701FE48CF
:105430004165406920F4FF014FF4FF02019802EA40
:10544000C0100143F848416100BF4FF08050F64959
:10545000C86300BF4FF08050F3498863001588652A
:1054600000BF00BF302004900020059004980390F6
:105470004815C865C004C86380008863039802901B
:10548000029801900198496D60F30701E648416573
:10549000406920F4FF014FF4FF02019802EAC010B6
:1054A0000143E148416100BF4FF08050DE49C863CD
:1054B00000BF4FF08050DC4988630015886500BF4D
:1054C000059803904815C865C00488630398029046
:1054D000029801900198496D60F30701D248416537
:1054E000406920F4FF024FF4FF01019801EAC01067
:1054F0000243CD48426100BF4FF08050CA49C863A3
:1055000000BF4FF08050C84988630015886500BF10
:1055100000BF3120049040F207700590049803907A
:105520004815C865C004C86380008863039802906A
:10553000029801900198496D60F30701BA484165EE
:10554000406920F4FF014FF4FF02019802EAC01005
:105550000143B548416100BF4FF08050B249C86374
:1055600000BF4FF08050B04988630015886500BFC8
:10557000059803904815C865C00488630398029095
:10558000029801900198496D60F30701A6484165B2
:10559000406920F4FF024FF4FF01019801EAC010B6
:1055A0000243A148426100BF4FF080509E49C8634A
:1055B00000BF4FF080509C4988630015886500BF8C
:1055C00000BF3220049040F2073005900498039009
:1055D0004815C865C004C8638000886303980290BA
:1055E000029801900198496D60F307018E4841656A
:1055F000406920F4FF024FF4FF01019801EAC01056
:1056000002438948426100BF4FF080508649C86319
:1056100000BF4FF08050844988630015886500BF43
:10562000059803904815C865C004886303980290E4
:10563000029801900198496D60F307017A4841652D
:10564000406920F4FF024FF4FF01019801EAC01005
:1056500002437548426100BF4FF080507249C863F1
:1056600000BF4FF08050704988630015886500BF07
:1056700000BF352004900815059004980390481544
:10568000C865C004C86381006748816303980290BD
:105690000298019064490198496D60F307016248DE
:1056A0004165406920F4FF024FF4FF01019801EACF
:1056B000C01002435C48426100BF4FF080505A491D
:1056C000C86300BF4FF08050574988630015886554
:1056D00000BF059803904815C865C0048863039807
:1056E0000290029801900198496D60F307014E48BD
:1056F0004165406920F4FF014FF4FF02019802EA7E
:10570000C01001434848416100BF4FF080504649F6
:10571000C86300BF4FF08050434988630015886517
:1057200000BF00BF36200490082005900498039025
:105730004815C865C004C863800088630398029058
:10574000029801900198496D60F307013648416560
:10575000406920F4FF014FF4FF02019802EAC010F3
:1057600001433148416100BF4FF080502E49C8636A
:1057700000BF4FF080502C4988630015886500BF3A
:10578000059803904815C865C00488630398029083
:10579000029801900198496D60F307012248416524
:1057A000406920F4FF024FF4FF01019801EAC010A4
:1057B00002431D48426100BF4FF080501A49C86340
:1057C00000BF4FF080511848816340151649886525
:1057D00000BF00BF37200490042005900498039078
:1057E0004815C865C1041048C16388000E49886324
:1057F00003980290029801900198496D60F30701A7
:1058000009484165406920F4FF014FF4FF02019807
:1058100002EAC01001430448416100BF4FF08051CB
:10582000C16300BF02E0000000C009204FF08051BA
:10583000FE4881634015FD49886500BF05980390C7
:105840004815C865C00488630398029002980190C7
:105850000198496D60F30701F4484165406920F4FF
:10586000FF024FF4FF01019801EAC0100243EF4824
:10587000426100BF4FF08050EC49C86300BF4FF059
:105880008050EA4988630015886500BF00BF382052
:10589000049000200590049803904815C865C00442
:1058A000C863800088630398029002980190019871
:1058B000496D60F30701DD484165406920F4FF014F
:1058C0004FF4FF02019802EAC0100143D74841613A
:1058D00000BF4FF08050D549C86300BF4FF08050E3
:1058E000D24988630015886500BF05980390481564
:1058F000C865C004886303980290029801900198DB
:10590000496D60F30701C9484165406920F4FF0211
:105910004FF4FF01019801EAC0100243C3484261FD
:1059200000BF4FF08050C149C86300BF4FF08050A6
:10593000BE4988630015886500BF00BF3920049008
:1059400040F207700590049803904815C865C0049C
:10595000C8638000886303980290029801900198C0
:10596000496D60F30701B1484165406920F4FF02C9
:105970004FF4FF01019801EAC0100243AB484261B5
:1059800000BF4FF08050A949C86300BF4FF080505E
:10599000A64988630015886500BF059803904815DF
:1059A000C865C0048863039802900298019001982A
:1059B000496D60F307019D484165406920F4FF018E
:1059C0004FF4FF02019802EAC01001439748416179
:1059D00000BF4FF08051C16300BF4FF0805093492A
:1059E00088630015886500BF00BF3C20049002203A
:1059F0000590049803904815C865C004C8638100E9
:105A00008A4881630398029002980190874901981F
:105A1000496D60F3070185484165406920F4FF0145
:105A20004FF4FF02019802EAC01001437F48416130
:105A300000BF4FF080507D49C86300BF4FF08050D9
:105A40007A4988630015886500BF0598039048155A
:105A5000C865C00488630398029002980190019879
:105A6000496D60F3070171484165406920F4FF0208
:105A70004FF4FF01019801EAC01002436B484261F4
:105A800000BF4FF080506949C86300BF4FF080519C
:105A90006648816340156549886500BF00BF3D20A9
:105AA000049041F604500590049803904815C86589
:105AB000C004C86380008863039802900298019034
:105AC0000198496D60F3070158484165406920F429
:105AD000FF014FF4FF02019802EAC010014353484E
