:020000040000FA
:1000000020610010AD020000B5020000B702000040
:10001000B9020000BB020000BD02000000000000A9
:10002000000000000000000000000000BF0200000F
:10003000C102000000000000C3020000E32700002E
:10004000C7020000EB2800003D2900006F290000D6
:10005000C7020000C7020000C7020000C70200007C
:10006000C7020000C7020000C7020000C70200006C
:10007000C7020000C7020000C7020000C70200005C
:10008000C702000045060000C7020000C7020000CA
:10009000C7020000C7020000052C0000C7020000D4
:1000A000C7020000C7020000C7020000C70200002C
:1000B0008B0E00001F2B0000C7020000C7020000CB
:1000C000C7020000C7020000C7020000DFF80CD022
:1000D00015F038FC004800479D0200002061001028
:1000E000AA204107087255200872704700B50548DC
:1000F000410648600120086103200870FFF7F0FF07
:1001000000BD0000A0ACB9035448C06C5349C8649A
:100110000846C06CC8640846C06820F03000C8605B
:100120000846C06840F03000C8604D48006F4C4938
:1001300008670846806A40F0050088624948006800
:1001400040F004004849C1F8C4004FF000004449A1
:10015000C8600846406840F00200486008464068B1
:1001600020F0020048600846406840F00100486006
:100170003A48C06840F030003849C8604FF002008B
:100180004FF0010101FA00F14FEA50124FF0E02365
:1001900003EB8202C2F8001100BF704770B5002463
:1001A00000E0641C47F230508442FADB10202C49F6
:1001B00008602E480078401C2C49087008460078DA
:1001C00002284ADB2A480068294948602448C06A56
:1001D000086000202549087025490968244A5268AA
:1001E000881A15F0B9F90646224914F0AEFF054603
:1001F0002946214814F0DFFF204908602048007894
:10020000401C1F4908700846007804281FD1144874
:10021000806A60F004001249886200201849087062
:100220001648006817490968C861174800680078CF
:1002300020F002001449096808701348006800782B
:1002400020F00100401C10490968087005E00448CE
:10025000806A40F005000249886270BD00C002401B
:1002600000800040C4C00F4000C00F4000000010DC
:100270000400001000007A44D313834E0C000010D9
:10028000010000104CC2072058C2072010B518F01A
:10029000E3FB10BD10B518F0D3FD10BD02F0C6F998
:1002A00003E001F0F2F9FFF7F5FFFAE706488047AF
:1002B00006480047FEE7FEE7FEE7FEE7FEE7FEE74B
:1002C000FEE7FEE7FEE7FEE7BD240000CD000000EC
:1002D0000848406840F48020064948600846406C61
:1002E00020F4402048640448006840F004000249BB
:1002F0000860704700C0024000400340FFFFFFFF5E
:1003000070B505460C469A48006840F0400099498F
:10031000C1F8C4002946984814F04DFF064615F070
:100320003EF9401E954988610846406840F0090042
:10033000486008464069002048610846406940F02E
:10034000020048618E4800696FF30B008C49086118
:100350000846C0688B4908408949C86000208A491E
:100360000968087025E088480068017844FA01F0BF
:100370004FF6FE71884315D08148016982480068B4
:10038000007842000120904001437D4801617B4894
:10039000C06C7D4909680978093101228A401043FF
:1003A0007649C864784800680078401C7649096836
:1003B00008707548006800780628D4DB062072496A
:1003C0000968087052E0704800680178891C44FA96
:1003D00001F04FF6FE71884341D06848C16C6A480D
:1003E00000680078C01C0122824011436348C16448
:1003F000654800680078801F06282ED2DFE800F0EC
:10040000030A11181F265E48C06840F020005C49AE
:10041000C86023E05A48C06840F400705849C8607A
:100420001CE05748C06840F400605549C86015E0BA
:100430005348C06840F400405149C8600EE050483D
:10044000C06840F400304E49C86007E04C48C068BE
:1004500040F400104A49C86000E000BF00BF4A48AD
:1004600000680078401C48490968087046480068E0
:1004700000780C28A7DB002043490968087070BD8C
:100480002DE9FF5F04460D4616469946DDF838A073
:10049000032C00D9A41D504615F0AEF84FF03332AE
:1004A0003A4BCDE9020114F06DFF074615F0CCF888
:1004B00082460F9815F0A0F8354A364BCDE9020177
:1004C00014F060FF074615F0BFF80F90D5B1012D6D
:1004D0003ED1304615F040F82F49039014F06BFEE2
:1004E00080462649886915F037F88346414614F05E
:1004F0002CFE074615F053F82049042202FB041194
:10050000886126E0484615F027F82449009014F049
:1005100052FE514602900F9814F011FE019002997C
:1005200014F013FE8346514614F0B7FD12490390B0
:1005300014F00BFE80464FF07E5114F000FE07468B
:1005400015F02DF80D49042202FB0411886100E02A
:1005500000BF00BF032C00D9A41F0848006D012173
:10056000A14041F00101084304490865BDE8FF9F2F
:10057000C4C00F4000C00F4020BCBE4B00800140F3
:1005800000C00240CF30CCFF54C207203333E33FDA
:10059000CDCCCCCCCCCCF43F0000C84200003443DE
:1005A00010B53A48006840F400703949C1F8C400F9
:1005B0004FF01200374908724FF0000008644FF006
:1005C000010008720846007B40F00100087340F209
:1005D000E37088874FF00A002F4908704FF00C0035
:1005E0002E4908704FF00F00A1F1040108704FF080
:1005F0002500A1F1040108704FF00000A1F10401F1
:1006000008704FF011004FF0010101FA00F14FEABC
:1006100050124FF0E02303EB8202C2F8001100BF3A
:100620004FF00001002807DACA06140E1C4A00F039
:100630000F031B1FD45403E0CA06130E194A1354A8
:1006400000BF10BD1FB5184800688068401C1649DF
:10065000096888600F48007840F001000D49087073
:100660001248007812490978124A1278094B9B8F78
:10067000CDE90032CDE90210064890F8383010F884
:100680002C2F0DA1144815F01DFA1FBDC4C00F403A
:1006900000C00F4000400240384002402C40024061
:1006A00018ED00E000E400E054C2072020400240C2
:1006B0002440024028400240253032642F25303249
:1006C000642F253034642D253032643A253032646D
:1006D0003A253032640000005800001007280CD280
:1006E000DFE800F00405060708090A0005E004E059
:1006F00003E002E001E000E000BF00BF00BFFEE752
:1007000010B516F013FF18F0B5FA18F0BFF819F08D
:1007100017FD18F017FE17F0D9FABDE8104016F0D3
:10072000E5BB10B516F01CFF18F0AAFA18F01CF97A
:1007300018F0D8FEBDE8104017F0A6BE00207047A4
:1007400070477047002070470020704700207047B6
:10075000704770472DE9F04705460E4691469A4688
:10076000287862284CD010DC4D2873D006DC412854
:1007700071D0442870D048286FD1B7E053286DD08D
:1007800054286CD06128F7D148E074280ED006DCDC
:10079000682827D0692873D07028EDD114E0762816
:1007A0007CD078285CD07928E6D145E06249096898
:1007B000086814F021FF07463A460B46291D3046CB
:1007C00015F080F90446B2E05B490968486814F006
:1007D00013FF07463A460B46291D304615F072F9BD
:1007E0000446A4E054490968886814F005FF0746E8
:1007F0003A460B46291D304615F064F9044696E04A
:100800004D490968086A14F0F7FE07463A460B4658
:10081000291D304615F056F9044688E04649096816
:10082000886914F0E9FE07463A460B46291D304612
:1008300015F048F904467AE03F490968486914F020
:10084000DBFE07463A460B46291D304615F03AF9BD
:1008500004466CE038E02FE03FE062E058E04EE014
:1008600035490968086914F0C7FE07463A460B4641
:10087000291D304615F026F9044658E000E00DE049
:100880002D490968C86814F0B7FE07463A460B467A
:10089000291D304615F016F9044648E02649096836
:1008A000C86914F0A9FE07463A460B46291D304692
:1008B00015F008F904463AE02048828F291D304699
:1008C00015F000F9044632E01D48027805F10401F4
:1008D000304615F0F7F8044629E01A48027805F189
:1008E0000401304615F0EEF8044620E01648027880
:1008F00005F10401304615F0E5F8044617E0134809
:10090000027805F10401304615F0DCF804460EE0EB
:100910000F48027805F10401304615F0D3F804467B
:1009200005E00CA1304615F0CDF8044600BF00BF2D
:10093000A0B2BDE8F08700004CC207200040024092
:10094000384002402C4002402840024024400240EF
:10095000204002403C703E592E2E2E20717565209D
:10096000717569657265732071756520706F6E674A
:100970006120617175693F203A6C3C2F703E000028
:100980001C200121814042094FF0E02303EB820249
:10099000C2F8001100BF70471C2001218140FE4AAF
:1009A000430942F8231000BF704770B505460E4654
:1009B0008EB9032405E015F8021BC8B2F7490855A3
:1009C000641C062CF7DB7E20F4490870FF20487079
:1009D000FE20887009E0002405E015F8021BC8B26B
:1009E000EE490855641C062CF7DBFFF7D5FF4FF0E6
:1009F000A040006820F001004FF0A0410860E848E6
:100A0000006820F00300C1F80001E4480079E349E0
:100A1000497940EA01204FF0A0410864DF4880781E
:100A2000DE49C97840EA01204FF0A0414864DB4824
:100A30000078DA49497840EA01204FF0A041886403
:100A40000846006840F44F4008600846D0F80001AE
:100A500040F07800C1F80001FFF792FF012070BD5F
:100A600000200FE000EB4001CE4A02EB4121CE4ACC
:100A700042F83010002102EBC0025160CB4A42F82C
:100A80002010401C0328EDD3C749C94A1160C7494B
:100A90004FF0A042C2F820114FF00201C54A116088
:100AA0004FF000014FF0A042C2F82811704700201B
:100AB00013E000EB4001C04A02EB4121BF4A42F87B
:100AC0003010BF4902EBC00251600021BD4A42F81C
:100AD000301002EBC0025160401C0428E9D3B74932
:100AE000B94A1160B7494FF0A042C2F80C114FF05B
:100AF0000301B64A11604FF000014FF0A042C2F866
:100B00001811704710B5014641F480704FF0A044B1
:100B1000A06201206062002307E04FF0A040406B1C
:100B200010F0010F00D103E05B1CB3F5A02FF4D34C
:100B300000BF00204FF0A04460622046026B90B2DC
:100B400010BD10B540F480734FF0A044A36223465B
:100B5000D962002207E04FF0A0435B6B13F0010F56
:100B600000D103E0521CB2F5A02FF4D300BF10BD9A
:100B700010B59748006840F080409649C1F8C4001D
:100B80009548964988600846C06820F00F0000F13B
:100B90000500C8604FF44F404FF0A04108604FF08F
:100BA00038007F4908604FF000008D49086004E07C
:100BB0008B480068401C8A49086089480068FF2803
:100BC000F6D902204FF0A041086030204860400173
:100BD000486143F20F7008611220C8604FF4307012
:100BE0006F49086048F23C004FF0A04108624FF0A6
:100BF00000007B49086004E079480068401C78499F
:100C0000086077480068FF28F6D93C204FF0A041E3
:100C100008624FF40060886100207149086004E0B8
:100C20006F480068401C6E4908606D480068FF28E6
:100C3000F6D900204FF0A04188614FF40041FFF742
:100C400080FF0020664908600FE00020FFF75AFF90
:100C5000644908600846008810F4084F00D109E094
:100C60005F480068401C5E4908605D480068B0F558
:100C7000801FEAD300BF0220FFF744FF5A490860F3
:100C80000320FFF73FFF59490860084600684FF608
:100C9000F07108405449098840EA0140A0F5F82164
:100CA000F0391ED14FF480510020FFF74AFF002099
:100CB0004B4908600FE00120FFF724FF4949086015
:100CC0000846007810F0200F00D009E04448006882
:100CD000401C4349086042480068B0F5801FEAD3D1
:100CE00000BF00203E4908600FE00120FFF70AFF27
:100CF0003C4908600846007810F0040F00D009E075
:100D000037480068401C3649086035480068B0F52F
:100D1000803FEAD300BF1F20FFF7F4FE314908608F
:100D20000846007810F0100F11D04FF0A040406836
:100D300040F001004FF0A04148601948006840F4BD
:100D40008060C1F800014FF01500886003E01220B8
:100D50004FF0A04188602348007810F0080F05D0BC
:100D60004FF480704FF0A041886103E000204FF005
:100D7000A0418861094800790849497940EA012081
:100D80004FF0A0410864054880780449C97840EADA
:100D900001204FF0A0412BE080E100E010C00720CF
:100DA00000010050DC0E0820B8F60720D0F607201E
:100DB0001C01005024010050DCF6072078F60720C3
:100DC000FF05008098F60720080100501001005030
:100DD000C4C00F4000C00F400501155000C00240C4
:100DE00034C0072030C0072038C007203CC007208F
:100DF00048644D4800784C49497840EA01204FF05A
:100E0000A0418864FFF753FEFFF72AFE26204749DA
:100E100008604FF08800464908604FF6FF7001F106
:100E2000040108604FF0A040D0F8000140F003003A
:100E30004FF0A041C1F800010846006840F00100F1
:100E4000086010BD70B53B4D296800F104033A4DB0
:100E500055F83140058805F103054FEAA50202E087
:100E600020CB20C4521E002AFAD105886D1E45F001
:100E70004045314E06EBC10675604D1C2946032DD9
:100E800000D100212B4D296070BD2DE9F04740E0D5
:100E90002748001DC0F8008018F0080F38D02748F8
:100EA000046831E0264850F8347017F0804F00D1C4
:100EB00023E0C7F30A00C51E40F2EA50854202D87B
:100EC0002048074200D018E045F0004015F0C2FD70
:100ED00006468EB106F1040A1B4850F83490E81C0F
:100EE000850804E059F8040B4AF8040B6D1E002D28
:100EF000F8D1304618F034F800BF601C04460428CE
:100F000000D100240D48046010480068A042C9D1F7
:100F100000BF0748001F00680549096810EA01087A
:100F2000B6D1BDE8F087000010C0072000020050D5
:100F3000E40F005028010050B8F6072018010050B7
:100F400098F607200000901B78F607201401005047
:100F50000146FD48007801281ED1FC4800880A8817
:100F6000904219DD08888A881044F84A1288904215
:100F700012DDF64840884A8890420DDD4888CA88CC
:100F80001044F24A5288904206DD087A10B90120D6
:100F9000087270470020FCE70020087200BFF8E7E5
:100FA0002DE9F84F04460E4617461D460095B4F845
:100FB00000C0B4F80480C4441FFA8CF26388194658
:100FC000208813F01AFF0095B4F802C0B4F8068028
:100FD000C4441FFA8CF322886188104613F00DFF79
:100FE0000095B4F802C0B4F80680C4441FFA8CF32C
:100FF000B4F800C0B4F80480C4441FFA8CF2B4F80A
:1010000002C0B4F80680C4441FFA8CF1208813F0A3
:10101000F4FE0095B4F802C0B4F80680C4441FFA88
:101020008CF3B4F800C0B4F80480C4441FFA8CF206
:10103000B4F800C0C4441FFA8CF0618813F0DDFEE0
:10104000304614F008F84008B4F8049009EBD97160
:10105000228802EB6101A1EBC0001FFA80FA002098
:101060000090B4F8068008EBD870628802EB60004C
:10107000083881B23B463246504613F06DFFBDE85A
:10108000F88F00B589B04FF4FC634FF6E072B049B9
:10109000B048FFF785FF4FF4FC634FF6E072AEA156
:1010A000AE48FFF77DFF4FF4FC634FF6E072ACA152
:1010B000AC48FFF775FF4FF4FC634FF6E072AAA14E
:1010C000AB48FFF76DFF4FF4FC634FF6E072A9A148
:1010D000AA48FFF765FF4FF4FC634FF6E072A8A142
:1010E000AA48FFF75DFF4FF4FC634FF6E072A8A13A
:1010F000A948FFF755FF78200121A823C022CDE998
:101100000010A6A103A814F0DDFC4FF4FC634FF619
:10111000E07203A9A548FFF743FF4FF4FC634FF6C5
:10112000E072A3A1A348FFF73BFF4FF4FC634FF627
:10113000E0729FA1A048FFF733FF4FF4FC634FF626
:10114000E0729BA19D48FFF72BFF4FF4FC634FF625
:10115000E07297A19A48FFF723FF4FF4FC634FF624
:10116000E07298A19848FFF71BFF4FF4FC634FF61D
:10117000E07294A19548FFF713FF4FF4FC634FF61C
:10118000E07290A19248FFF70BFF4FF4FC634FF61B
:10119000E0728CA18F48FFF703FF09B000BD30B5A6
:1011A00087B04FF4FC634FF6E07269496948FFF776
:1011B000F7FE4FF4FC634FF6E07267A16748FFF754
:1011C000EFFE4FF4FC634FF6E07265A16548FFF750
:1011D000E7FE4FF4FC634FF6E0727FA18348FFF710
:1011E000DFFE83490968C86914F006FA04462246FE
:1011F0000B4680A101A814F065FC834800680078C4
:1012000010F0010F23D07A490968C86914F0F4F985
:10121000044622460B4677A101A814F053FC4FF474
:10122000FC634FF6E07279A17E48FFF7B9FE76487D
:101230000068007820F001007349096808704FF4D5
:10124000FC634FF6E07201A97648FFF7A9FE4FF460
:10125000FC634FF6E07274A17648FFF7A1FE644983
:101260000968086A14F0C8F9044622460B4672A1C0
:1012700001A814F027FC4FF4FC634FF6E07263A161
:101280007048FFF78DFE4FF4FC634FF6E07201A942
:101290006C48FFF785FE07B030BD2DE9F0438BB0F9
:1012A0004FF4FC634FF6E07229492A48FFF778FEB5
:1012B0004FF4FC634FF6E07227A12848FFF770FE59
:1012C0004FF4FC634FF6E07225A12648FFF768FE55
:1012D0004FF4FC634FF6E0725BA16048FFF760FEDD
:1012E00043490968886914F087F904460D46404966
:1012F0000968486914F080F906460F463C490968B8
:10130000086914F079F9804642460B4654A105A8B5
:10131000CDE90067CDE9024514F0D4FB4FF4FC633E
:101320004FF6E07205A95448FFF73AFE4FF4FC630C
:101330004FF6E07251A15548FFF732FE4FF4FC63BF
:101340004FF6E072A4E00000FAC1072048C207206F
:10135000580000104CC007202D3E000056C007204A
:101360003C2D000060C00720486F726173000000D0
:1013700050C107204D696E75746F73005AC1072004
:10138000536567756E646F730000000064C10720C9
:1013900044696173000000006EC1072049503A257E
:1013A000642E25642E25642E2564000078C1072054
:1013B0002D00000082C107208CC1072096C10720A4
:1013C000A0C107202B000000AAC10720B4C107203C
:1013D000BEC10720C8C1072056656C2E2064656C0D
:1013E000207669656E746F3A00000000D2C1072054
:1013F0004CC20720252E303266206D6574726F73E3
:101400002F7365672E00000058C20720202020207F
:1014100020202020202020202020202020202020CC
:1014200020202000DCC10720436C61726964616484
:101430003A000000E6C10720252E303266204C55C8
:1014400058000000F0C107204D4544494441532055
:1014500041435455414C455300000000ECC0072067
:10146000583A252E30326620593A252E30326620E1
:101470005A3A252E30326600F6C0072054656D704A
:10148000657261747572613A0000000000C1072046
:10149000F5A1F848FFF784FD4FF4FC634FF6E072C6
:1014A000F5A1F848FFF77CFD4FF4FC634FF6E072BE
:1014B000F5A1F848FFF774FDF7490968086814F0CA
:1014C0009BF8044622460B46F4A105A814F0FAFA4C
:1014D0004FF4FC634FF6E07205A9F348FFF760FD97
:1014E000ED490968886814F087F8044622460B46DF
:1014F000EEA105A814F0E6FA4FF4FC634FF6E07293
:1015000005A9ED48FFF74CFDE3490968486814F068
:1015100073F8044622460B46E8A105A814F0D2FA57
:101520004FF4FC634FF6E07205A9E748FFF738FD7A
:10153000D9490968C86814F05FF8044622460B468A
:10154000E2A105A814F0BEFA4FF4FC634FF6E07276
:1015500005A9E148FFF724FD0BB0BDE8F08310B505
:101560004FF4FC634FF6E072DC49DD48FFF718FDED
:101570004FF4FC634FF6E072AFF22421D948FFF735
:101580000FFD4FF4FC634FF6E072AFF22C21D6480A
:10159000FFF706FD4FF4FC634FF6E072D3A1D54888
:1015A000FFF7FEFC4FF4FC634FF6E072D2A1D44883
:1015B000FFF7F6FC4FF4FC634FF6E072D1A1D6487A
:1015C000FFF7EEFC4FF4FC634FF6E072D3A1D44872
:1015D000FFF7E6FC4FF4FC634FF6E072D1A1D2486E
:1015E000FFF7DEFC4FF4FC634FF6E072CFA1D0486A
:1015F000FFF7D6FC4FF4FC634FF6E072CDA1CE4866
:10160000FFF7CEFC4FF4FC634FF6E072CBA1CC4861
:10161000FFF7C6FC4FF4FC634FF6E072C9A1CB485C
:10162000FFF7BEFC4FF4FC634FF6E072C8A1CA4856
:10163000FFF7B6FC4FF4FC634FF6E072C7A1C94850
:10164000FFF7AEFC4FF4FC634FF6E072C6A1C8484A
:10165000FFF7A6FC4FF4FC634FF6E072C5A1C74844
:10166000FFF79EFC10BD10B500F0D7FB044644B157
:10167000C34A2146C34800F086FD0120C2490870D4
:1016800002E00020C049087010BD1CB5FEF728FD1F
:10169000FFF7E9FFBD480078D0B14FF0E0200069C6
:1016A00010F4803F14D0002000907B49019009681D
:1016B000086AB74B0022012101F04CFC0020009089
:1016C00003460190B248027801210620FEF7D8FEB9
:1016D000B0480068007805287DD2DFE800F0039369
:1016E000ABC4C300FFF73BFF7E48FFF731FC30B1CE
:1016F0000120A84909680870002011F034FF7A48D9
:10170000FFF726FC30B10220A249096808700020CA
:1017100011F029FF7A48FFF71BFC30B103209D49E7
:1017200009680870002011F01EFF7D48FFF710FCCB
:1017300050B10020954908700090034601221146DF
:1017400001900620FEF79CFE7748FFF701FC50B1A0
:1017500000208E4908700090034614220121019058
:101760000620FEF78DFE7248FFF7F2FB50B1002015
:101770008649087000900346282201210190062026
:10178000FEF77EFE6C48FFF7E3FB58B100200090A7
:1017900003463C22012101900620FEF771FE002045
:1017A0007A4908706648FFF7D3FB10B101207749EA
:1017B00008706648FFF7CCFB80B177480068007876
:1017C000C0090BD074480068007820F0800072498E
:1017D0000968087000E051E101F07EFB6748FFF7FF
:1017E000B7FB70B16C4800680078C00909D06A483E
:1017F0000068007820F0800067490968087001F0EF
:10180000D3FA3CE1FFF749FD3648FFF7A1FB30B1C1
:101810000220604909680870002011F0A4FE3248D7
:10182000FFF796FB28B100205A490968087011F0AB
:101830009AFE24E1FFF7B3FC2A48FFF789FB28B1A1
:10184000002054490968087011F08DFE2648FFF702
:101850007FFB30B101204F4909680870002011F06A
:1018600082FE0CE109E199E048756D656461643AB6
:10187000000000000AC1072050726573696F6E3A5C
:101880000000000014C10720496E6369646520559B
:10189000563A00001EC107204CC20720252E3032C8
:1018A000662064430000000028C10720252E303246
:1018B000662025250000000032C10720252E303289
:1018C00066205061732E00003CC10720252E303267
:1018D000662055567300000046C1072058000010CE
:1018E0004CC0072056C0072060C00720496E666FB5
:1018F0002E0000006AC00720416A7573746573008A
:1019000074C007204E6976656C2064652062726938
:101910006C6C6F3A000000007EC0072031000000B0
:1019200088C007203200000092C00720330000006A
:101930009CC0072034000000A6C007204100000022
:10194000B0C00720506C617900000000BAC00720C9
:10195000566F6C2E31000000C4C00720566F6C2EED
:1019600032000000CEC00720566F6C2E33000000FE
:10197000D8C007204C6F616400000000E2C007205F
:1019800000C2072048C20720FAC1072040C0072034
:10199000FBC1072050C2072058C20720FFF771FB88
:1019A0003B48FFF7D5FA28B100203A49096808708A
:1019B00011F0D9FD3848FFF7CBFA28B1002035499E
:1019C0000968087011F0CFFD3448FFF7C1FA30B153
:1019D00033480078A0F10100324981F828003248EC
:1019E000FFF7B6FA30B131480078A0F101002D4977
:1019F00081F824002E48FFF7ABFA30B12D4800786B
:101A0000A0F10100274981F820002B48FFF7A0FA38
:101A100030B12A480078A0F10100224981F82C0059
:101A20002748FFF795FA30B11D48007800F1010012
:101A30001C4981F828002348FFF78AFA30B11B4877
:101A4000007800F10100174981F824001E48FFF7D3
:101A50007FFA30B11748007800F10100114981F890
:101A600020001A48FFF774FA30B11448007800F1EA
:101A700001000C4981F82C0001E000E000BF00BF2C
:101A80001CBD10B500F024F802F035FA10BD0000BE
:101A900056C0072050C2072060C0072082C107201F
:101AA00028400240004002408CC1072024400240F0
:101AB00096C1072020400240A0C107202C400240D0
:101AC000AAC10720B4C10720BEC10720C8C1072092
:101AD00000B589B002208DF81E0000208DF820008E
:101AE0008DF81F008DF81C0007208DF81D0007A839
:101AF00001F0FCFE08208DF81D0007A801F0F6FE9D
:101B000009208DF81D0007A801F0F0FE00208DF8D7
:101B10001E008DF81C0006208DF81D0007A801F09E
:101B2000E5FE00208DF81E0002208DF81C000D201F
:101B30008DF81D0007A801F0D9FE00224FF40051D6
:101B4000022001F035FF4FF40051022001F044FF64
:101B500001224021002001F02BFF4021002001F054
:101B60003BFF01A801F09CFBFE48069001A9FE483E
:101B700001F035FB0121FC4801F09DFB09B000BDDF
:101B800070B50446FEF7ACFA002507E00C2000BF54
:101B90000100A0F10102D0B2FAD16D1CA542F5D32B
:101BA00070BD10B5044600BF1021EF4801F03CFDA8
:101BB0000128F9D02146EC4801F0E5FB00BF0421E3
:101BC000E94801F031FD0028F9D0E74801F0EDFBCC
:101BD000C0B210BD70B50020FFF7E3FF05464FF619
:101BE000FF7000EA05240120FFF7CAFF0020FFF77D
:101BF000D8FF05462C43E410C4F30B04204670BD07
:101C000010B54020D949C8610120FFF7B9FF9020E5
:101C1000FFF7C7FF0120FFF7B3FFFFF7DBFF044625
:101C20004020D2498861204610BD10B54020CF49E0
:101C3000C8610120FFF7A4FFD020FFF7B2FF012009
:101C4000FFF79EFFFFF7C6FF04464020C7498861A3
:101C5000204610BD2DE9F04104460D46FFF7D0FFA8
:101C600006460120FFF78CFFFFF7DFFF07462660DF
:101C70002F60BDE8F08170B504460D464FF4784200
:101C80002946204612F02DFE611C88B24FF478429E
:101C9000294612F026FE681C81B24FF47842204695
:101CA00012F01FFE6A1C91B2621C90B24FF478428F
:101CB00012F017FE70BDF8B504460D464FF6FF70E2
:101CC000A11E8AB20D39009088B22B46294613F026
:101CD00094F84FF6FF7004F10F018AB2A11C009036
:101CE00088B22B46294613F088F84FF6FF70009013
:101CF000A81E83B20D3881B22246204613F07DF82B
:101D00004FF6FF70009005F10F0083B2A81C81B25E
:101D10002246204613F071F84BF6F04005F10F060D
:101D2000B3B2E61FB2B205F10F06B1B2A4F10F06CD
:101D30000090B0B213F061F84BF6F04005F10F06D9
:101D4000B3B2A4F10F06B2B2EE1DB1B2A4F10F0608
:101D50000090B0B213F051F84BF6F040A5F10F0629
:101D6000B3B2E61FB2B2A5F10F06B1B2A4F10F06ED
:101D70000090B0B213F041F84BF6F040A5F10F0619
:101D8000B3B2A4F10F06B2B2EE1FB1B2A4F10F06C6
:101D90000090B0B213F031F84BF6F04005F10F06A9
:101DA000B3B204F10F06B2B205F10F06B1B2E61DEF
:101DB0000090B0B213F021F84BF6F04005F10F0699
:101DC000B3B204F10F06B2B2EE1DB1B204F10F06C8
:101DD0000090B0B213F011F84BF6F040A5F10F06E9
:101DE000B3B204F10F06B2B2A5F10F06B1B2E61D0F
:101DF0000090B0B213F001F84BF6F040EE1FB3B212
:101E000004F10F06B2B2A5F10F06B1B204F10F064C
:101E10000090B0B212F0F1FFF8BDF0B597B0002716
:101E20004821684613F00CF900BF15A916A8FFF762
:101E300011FF16984DF8270009A8159940F82710AA
:101E4000781CC7B24948406D10F4005F01D1092FDA
:101E5000EBDB092F7ED1DDE900010844029908443B
:101E6000032190FBF1F01290DDE90301084405998C
:101E70000844032190FBF1F01390DDE906010844CA
:101E800008990844032190FBF1F01490DDE9120158
:101E9000441ADDE91301451A12991498461A002CC8
:101EA00001DD204600E060420446002D01DD2846A9
:101EB00000E068420546002E01DD304600E0704239
:101EC0000646502C06DD502D04DD502E02DD00208C
:101ED00017B0F0BDAC4215DAA64209DA149A12998D
:101EE000881800EBD071C1F34F01214A11801EE028
:101EF000DDE91212881800EBD071C1F34F011C4AC2
:101F0000118014E0AE4209DA149A1299881800EB95
:101F1000D071C1F34F01164A118008E0DDE91312B8
:101F2000881800EBD071C1F34F01114A1180DDE92F
:101F3000091001440B980844032190FBF1F0129022
:101F4000DDE90C1001440E980844032190FBF1F0E8
:101F5000139000E063E0DDE90F100144119808449C
:101F6000032107E020A107000000034000C0092072
:101F700044C2072090FBF1F01490DDE91201441AED
:101F8000DDE91301451A12991498461A002C01DD57
:101F9000204600E060420446002D01DD284600E0B6
:101FA00068420546002E01DD304600E070420646DC
:101FB000502C05DD502D03DD502E01DD002087E77C
:101FC000AC4215DAA64209DA149A1299881800EB85
:101FD000D071C1F34F01C24A51801EE0DDE91212F7
:101FE000881800EBD071C1F34F01BD4A518014E055
:101FF000AE4209DA149A1299881800EBD071C1F335
:102000004F01B74A518008E0DDE91312881800EB50
:10201000D071C1F34F01B24A5180B14858E7002056
:1020200056E72DE9F04705460C4616464FF00009E5
:1020300021882289891AE38862899A1A5143A288E1
:102040002389D31A67886289BA1A03FB121013F026
:1020500088FAC6E90C0100221346D6E90C7138460D
:1020600013F0DEFA02D14FF0010989E029882A89AC
:10207000891AE38862899A1A5143AA882B89D31A4C
:1020800067886289BA1A03FB121013F06AFAC6E96C
:10209000000121882289891AAA882B89D21A5143E2
:1020A0002A88D21AA3882789DB1B02FB131013F09E
:1020B00058FAC6E902012189AA885143A2882B89CE
:1020C00002FB13116288514322885A4323892F88C7
:1020D00003FB1723E28803FB0212A18879432388BC
:1020E000AF8803FB1713618903FB012013F039FA52
:1020F000C6E904016A886989511AE38862899A1AD3
:102100005143EB886A899B1A67886289BA1A03FB74
:10211000121013F026FAC6E9060121882289891ACD
:10212000EB886A899A1A51436B886A899A1AA3883C
:102130002789DB1B02FB131013F013FAC6E9080111
:102140002189EA885143A3886A8903FB12116288B6
:10215000514322886B895A4323896F8803FB1723D5
:10216000E28803FB0213A18879432788EA8807FBEA
:102170001212618902FB013013F0F3F9C6E90A017A
:102180004846BDE8F0872DE9F04F8BB0824689467E
:1021900014464FF0000B00221346D4E90C51284698
:1021A00013F03EFA60D0B9F8020013F0EBF90546DF
:1021B000D4E902733A4613F0E5F8CDE90201B9F823
:1021C000000013F0DFF90746D4E900532A4613F064
:1021D000D9F8CDE90001DDE9022313F02CF8CDE9AF
:1021E0000401D4E904532A4613F025F8CDE9060189
:1021F000D4E90C532A4613F037F9CDE9080113F05E
:10220000E2F9AAF80000B9F8020013F0BBF907469A
:10221000D4E908532A4613F0B5F8CDE90201B9F81C
:10222000000013F0AFF90746D4E906532A4613F02D
:10223000A9F8CDE90001DDE9022312F0FCFFCDE9A8
:102240000401D4E90A532A4612F0F5FFCDE906014C
:10225000D4E90C532A4613F007F9CDE9080113F02D
:10226000B2F9AAF8020001E04FF0010B58460BB09A
:10227000BDE8F08F38B5002427E0002011F073F995
:1022800000204FF6FF7317A20A210090084612F0B3
:1022900063FE1C48FFF774FC1B4A02EB8402518862
:1022A000194A32F82400FFF706FD00BFFFF7B5FD1D
:1022B0000546002DFAD02888144921F824006888A2
:1022C00001EB84014880601CC4B2032CD5DB104AAA
:1022D0000E490D48FFF7A5FE002011F044F938BD66
:1022E00044C20720546F7563682063726F7373680C
:1022F00061697220746F2063616C696272617465D8
:102300000000000020A1070038C20720DC200820C0
:1023100000C207202DE9F047B1480068C0F3016012
:1023200003287CD1AF48006810F0030006D00128D4
:1023300033D002285FD003282ED100E000BFA84888
:102340000068C0F3074000F101044FF00201A64805
:10235000D0F88800C0F30E0000F10100A1FB0001DD
:10236000A24B4FF0000CA0FB037901FB039100FB93
:102370000C1122466346384612F018FE05469C486A
:102380000068C0B200F1010422464FF00003284665
:1023900012F00CFE974908605DE091480068C0F3B8
:1023A000074000F101044FF002018F48D0F8880087
:1023B000C0F30E0000F10100A1FB00108E4A4FF0A7
:1023C000000CA1FB027900FB029001FB0C012246EC
:1023D0006346384612F0EAFD054685480068C0B2FB
:1023E00000F1010422464FF00003284612F0DEFD02
:1023F000804908602FE07A480068C0F3074000F188
:1024000001044FF002017848D0F88800C0F30E00B4
:1024100000F10100A1FB00124FF4004000E01BE0BE
:102420004FF00003A1FB007902FB009001FB0301C8
:102430002246384612F0BAFD05466D480068C0B223
:1024400000F1010422464FF00003284612F0AEFDD1
:102450006849086000BF2FE06248006810F0030080
:1024600006D0012810D0022819D0032823D100E07B
:1024700000BF5F480068C0B200F101005B49B1FBDA
:10248000F0F05C49086016E059480068C0B200F1FD
:1024900001005949B1FBF0F0564908600BE054487F
:1024A0000068C0B200F101004FF40041B1FBF0F050
:1024B0005049086000BF00BFBDE8F08720204F49A9
:1024C00008604948D0F8A00110F0200F05D000BFE7
:1024D0004A48006810F0400FFAD0032044490860D1
:1024E0004FF000004049C1F8A801454908604FF08D
:1024F00001003C4908604348434908604FF0AA0086
:10250000424908604FF0550008604FF00100404913
:1025100008604FF0AA003D4908604FF0550032496D
:10252000C1F88C0000BF2E48006810F0806FFAD010
:102530000320374908604FF0AA002B49C1F88C00EE
:102540004FF055003149086000BF2548006800F091
:102550004070B0F1407FF8D123202E4908604FF041
:10256000AA002149C1F8AC004FF055002A49086083
:102570004FF00100294908604FF0AA002649086081
:102580004FF055001849C1F8AC0000BF244800685E
:1025900010F4806FFAD00320204908604FF0AA00A1
:1025A0001149C1F8AC004FF055001B49086000BF4D
:1025B0001B48006800F44070B0F5407FF8D119481E
:1025C000194908604FF000000749C1F8C8010846E2
:1025D000006820F4704040F48040086070470000BC
:1025E00088C00F400CC10F4000C00F4000093D00E3
:1025F00004C10F4010000010001BB700A0C10F4025
:10260000ACC10F406300050084C00F408CC00F4078
:1026100080C00F40A4C00F40ACC00F40A0C00F400E
:10262000A8C00F40DE872804C4C00F401CB504209A
:102630002D49096808702D482D49096808602D4802
:102640002B49096888602A49096848602A4828494E
:102650000968C861294826490968C860284924488A
:1026600000688161274822490968086101462048BD
:1026700000684161FDF70AFE00F05CF800F082F8A6
:1026800000F082FAFDF724FE00F072FBFFF7F9F983
:10269000FDF786FF4FF408511B48FDF731FE1B483C
:1026A0001B495A230022CDE9001011460220FDF7F4
:1026B000E7FE00200090034632220121019006200F
:1026C000FDF7DEFEFDF712FD00F004FD00F0D4FB87
:1026D00000F0CCF9FDF718FDFFF7CCFD0020024912
:1026E000096808701CBD000050C207200000C041EE
:1026F0004CC207206666C63FB81E55409A99993F5E
:102700005C0FFA43F6A89442000048426F12033B64
:102710006F12833A10B5002807DACA06140EBD4AB4
:1027200000F00F031B1FD45403E0CA06130EBA4A6D
:10273000135410BD10B5B94800680A21B0FBF1F080
:10274000401E4FF0E021486107200861B34800684F
:102750000A21B0FBF1F4B4F1807F00D311E024F042
:102760007F40401E4FF0E02148611F214FF0FF30B5
:10277000FFF7D0FF00204FF0E021886107200861BB
:1027800000BF10BD10B5A648006840F44100A5493F
:10279000C1F8C4000846D0F8C40040F00200A049C7
:1027A00008604FF003004FF0402148614FF00000F7
:1027B000C8600846406840F0010048609A48886157
:1027C0004FF001010846FFF7A5FF012001218140DC
:1027D00042094FF0E02303EB8202C2F8001100BF70
:1027E00010BD10B517F0A2FC10BD2DE9F0414FF05F
:1027F000402000684FF0402108608C480078052197
:1028000090FBF1F201FB1207384612F09CFE0646DF
:102810004FF07E5112F099FC05464FF07C5112F0BA
:10282000CAFC0446002112F02BFF2AD18048806A9E
:1028300040F005007E4988620846806A40F030001A
:10284000886200F052F97B4800680078C0F34000CD
:1028500078B97948007860B1002078490968C86182
:1028600074480068007820F00100401C7149096834
:10287000087070480068007820F002006D4909680F
:102880000870BDE8F08170B5002012F05CFE0546CE
:102890004FF07C5112F08FFC0446002112F0F0FE44
:1028A00022D1644800680078C0F3C000E0B16248FB
:1028B0000078C8B15A48006840F480505949C1F8BE
:1028C000C4005C480068007820F008005949096895
:1028D00008705B48006820F0C060594908600846ED
:1028E000006840F48030086070BD2DE9FC41FFF7BE
:1028F0007CFFFFF7C8FF4D480078401C4B4908702B
:102900004E49096808684F4912F019FC07464E49BC
:1029100012F01BFC06464D4912F04DFC054612F024
:102920003EFEC4B24A484B4923460022CDE900107E
:1029300011460220FDF7A4FDBDE8FC8110B53C481E
:102940000068C4B2022C08D0102C02D0202C07D171
:1029500002E0FDF723FC04E003E000F0D1FA00E020
:1029600000BF00BF324800683149086010BD10B593
:1029700039480068384909680843374908603748CA
:10298000007810B1012820D109E03549096849686B
:10299000344A1268505C0C2100F084FA16E0284892
:1029A0000069C0F307212E48006840682D4A12686C
:1029B00011542348006820F0C0602149086008468F
:1029C000006840F0C060086000E000BF00BF24491C
:1029D00009684868411C224A12685160A0F5BA4152
:1029E000BF3916D100201E49096848600320012123
:1029F00081401D4A430942F8231000BF0D4800687A
:102A0000007820F0800080300A490968087000F0E2
:102A100008FA10BD18ED00E000E400E0100000101E
:102A2000C4C00F4000C00F401FBCBE005EC20720E4
:102A30000080004058C20720140000104CC207203C
:102A40000040034000008841000034430000704112
:102A50006F12033B6F12833A000009405FC20720E8
:102A600054C207206F00001080E100E03E48C06CB7
:102A70003D49C8640846C06CC8640846C06820F078
:102A8000C000C8600846C06840F0C000C860374851
:102A9000006F364908670846806A40F03000886257
:102AA0003348344908601D200121814042094FF01C
:102AB000E02303EB8202C2F8001100BF2E48006839
:102AC00040F480302D49C1F8C4002A48007A40F013
:102AD00002002849087270472020244908600846EF
:102AE000806A20F020008862704700202149087227
:102AF0000846007A40F0080008721B48C06820F0C1
:102B0000C0001949C8601E48006A40F400201C49F2
:102B100008620846C06B40F40020C863704719483B
:102B20000068C068401C17490968C8600E48C06C3E
:102B300020F0C0000C49C8641148806B40F40020AC
:102B40000F4988630848C06820F0C0000649C86083
:102B50000846C06840F0C000C8600648007A20F00F
:102B6000080004490872704700C00240008000401D
:102B700048E8010000000B40C4C00F4000C00F40F7
:102B800000C0092054C207206748006840F4805004
:102B90006649C1F8C4006648406840F48030644922
:102BA00048600846406C20F4403048646148006842
:102BB000614940EA01005F4908600846C06840F08A
:102BC0000200C8605D480068007820F0080000F14D
:102BD00008005A49096808705648C06820F4807097
:102BE0005449C8604FF016004FF0010101FA00F19E
:102BF0004FEA50124FF0E02303EB8202C2F80011BB
:102C000000BF70472DE9FC5F4D480078002865D073
:102C1000012862D14748006820F4803045490860A7
:102C20004969C1F30B1012F097FC46490860464908
:102C30004448006812F0BFFA42490860084600683C
:102C400012F0DAFC06460022404B12F098FB0446D4
:102C50000D463C48006812F0CFFC064600223C4B73
:102C600012F090FB804622462B4612F0FDFB824676
:102C700012F0EAFC334908600020009003460190FE
:102C800034480268203203212E48006800F062F9BF
:102C900028498969C1F30B1012F05EFC2E490860C7
:102CA0000846006812F0A8FC804600222B4B12F068
:102CB00069FB064600222A4B12F0D6FB044612F0AE
:102CC000C3FC24490968C8601C480068007820F0EB
:102CD0000800083019490968087022E015480069A1
:102CE000C0F307201F49204A126888541E48016813
:102CF0000068401C1C4A106045F6BF5081420FD34B
:102D0000002011460860194948610C4800680078A5
:102D100020F08000803009490968087000F081F8CF
:102D200000BF00BFBDE8FC9FC4C00F4000C00F4003
:102D300000C002400040034002FF210058C20720AB
:102D40001400001060C2072000F07F450000F03F33
:102D5000008051404CC2072064C2072000804040E0
:102D600000FEAF406F00001068C2072000800040E6
:102D70003A48406840F480403849486040F62200B4
:102D8000374988610220486001204860002048617E
:102D900001200121814042094FF0E02303EB820230
:102DA000C2F8001100BF704700202E4908700120B2
:102DB0002D4908702D4800682D4908602B48C068CF
:102DC0002C49086001202949C8600846006820F0A5
:102DD000FF0008600846006840F0010008600846EF
:102DE000006820F47F4008600846006840F4807066
:102DF00008600846006820F48030086008460068D3
:102E000020F0E06008600846006840F0C06008609C
:102E10000220134948614860012048603120C8639E
:102E2000704711480078012816D1114800680F49F1
:102E3000086010480068C8600846006820F0E0603C
:102E400008600846006840F47F400860012005499A
:102E500008700020044908707047000000C002405C
:102E600000800040140000105FC2072000400340B3
:102E7000180000101C0000102F48406840F400109B
:102E80002D49486040F622002C4908810E204860F8
:102E90002B480068007820F08000803028490968BD
:102EA000087070470A2905DDA1F10A0200FA02F252
:102EB00090B200E00841214A12684FF6C0739A436D
:102EC0001E4B1A601A4612684FF4803343EA80138F
:102ED0001A431A4B1A6070471A48006840F0010004
:102EE0001949C1F810014FF01800184948611848F5
:102EF000C8614FF0020048604FF001004860704721
:102F00001048006820F001000F49C1F810010C487A
:102F10000068007820F0800000F18000084909680E
:102F200008700A48406920F03800084948614FF0AD
:102F3000000002490860704700C0024000C008401D
:102F400058C207201041005000400050008000404F
:102F50003FA5AE022DE9FC5F81468A4614469B469A
:102F6000BAF1000F09D0BAF1010F24D0BAF1020F63
:102F70003DD0BAF1030F57D13CE04A49087812F02E
:102F8000EBFA4FF07E510190484612F0D8F8804697
:102F9000454912F010F90746019912F0D6F8064695
:102FA00012F0FDFAC0B2401C3E490D5C284612F0FA
:102FB000D3FA206039E03D49087812F0CDFA07468F
:102FC0004FF07E51484612F0BAF88046364912F06A
:102FD000F2F80646394612F0B8F8054612F0DFFA64
:102FE000C0B2401C3149085C8BF800001DE0C4F8F9
:102FF00000901AE0484612F0FFFA2D4A2D4BCDE919
:10300000000112F0BFF907462B4A2C4B12F013F9BE
:10301000054612F019FB20600021206812F030FBF9
:1030200001D20020206000BF00BF00BFBDE8FC9FB0
:103030002DE9F04788B04FF0000A2CE0504612F01E
:1030400090FA80461E4A1F4B12F09CF900224FF066
:103050008043CDE9000112F007FA00221A4BCDE9B6
:10306000020112F08FF9064616F028F80022174BDD
:10307000CDE9040112F086F904460022134B12F048
:10308000DAF8CDE9060112F09EFA1149096801F853
:103090000A000AF1010A45F6C0508245CEDB08B0AD
:1030A000BDE8F0872E0000100000C642200000108E
:1030B0000BB5A679C729F0BFA835CD3B4E81594045
:1030C0007A008BFCFA2119400070C74000C05F40B5
:1030D0006F0000101748006840F000501649C1F812
:1030E000C4004FF00100154908634FF040004863E9
:1030F00013480068134909680860134908601348B9
:103100001049096848600D49C1F804010D4800687C
:103110000C49096888600E4908600E4801F10401F5
:10312000086008490968C8604FF41C600A490860D3
:1031300070470000C4C00F4000C00F400040005066
:103140006F000010440000100041005020C00840F3
:1031500008410050C05D0004104100502DE9F047C7
:1031600004468846FB48844202D0FB48844200D192
:1031700003E04321F9A000F087FEF648844204D121
:103180002A2000F01EFE074609E0F348844204D1DD
:10319000142000F016FE074601E0BDE8F087002588
:1031A0004FF0FF3902260AE0681C7043B7FBF0F9C4
:1031B000C14504D96D1CFF2D01D90025B61CC145A0
:1031C000F2D82068C0B2206020684FF6FF7101EA93
:1031D000052108432060F0B2206100BFDDE770B533
:1031E00004460D46DB48844202D0DB48844200D1CD
:1031F00003E08121D9A000F047FED648844204D1E3
:103200000121480500F0FAFD08E0D348844204D1CA
:103210000121001500F0F2FD00E070BDA8882989A9
:103220000843298A08432988084386B22660287BF8
:1032300000F00F06666020466969FFF78FFF00BF48
:10324000EBE710B50446C348844202D0C24884422A
:1032500000D103E0A821C1A000F016FEBD488442C1
:1032600005D100214FF4001000F0C8FD06E0BA4877
:10327000844203D10021001500F0C0FD10BD10B53F
:103280000446B448844202D0B348844200D103E0EB
:10329000C021B2A000F0F8FD206800F00F0010BDC2
:1032A000002141608160B74941610721016000212F
:1032B000C1600161704770B504460D46A54884425F
:1032C00002D0A548844200D103E0E521A3A000F08C
:1032D000DBFD0DB1012D00D103E0E6219FA000F040
:1032E000D3FD012D04D1606840F00200606003E06E
:1032F000606800F00D00606070BD70B504460D465A
:103300009448844202D09448844200D103E0FE21D4
:1033100092A000F0B9FD0DB1012D00D103E0FF2115
:103320008EA000F0B1FD012D04D1606840F00100D5
:10333000606003E0606800F00E00606070BD70B512
:1033400004460D468348844202D08348844200D11B
:1033500004E04FF48D7181A000F096FD0DB1012DB8
:1033600000D104E040F21B117CA000F08DFD012D86
:1033700004D1606800F00700606003E0606840F01E
:103380000800606070BD70B504460D467148844207
:1033900002D07148844200D104E04FF49A716FA0CA
:1033A00000F072FDA8B2A06070BD10B50446694877
:1033B000844202D06848844200D104E04FF4A271F4
:1033C00066A000F061FDA06880B210BD2DE9F74F46
:1033D00082B006460C460020E0606060606103E059
:1033E0003046FFF7E2FF0746F06810F0040FF7D110
:1033F000032030623046FFF742FF082801DD012537
:1034000000E00025049800287AD125B9D4F8089066
:10341000D4F800A003E0D4F808B02068019060E080
:10342000F06810F0020F2ED02169606888422AD01F
:10343000206888B93DB9FF213046FFF7A4FF6068D6
:10344000401C60601FE04FF6FF713046FFF79BFFA6
:103450006068801C606016E055B99AF8001030462C
:10346000FFF791FF0AF1010A6068401C60600AE002
:10347000019801883046FFF786FF0198801C019073
:103480006068801C6060D6F8188018F0010F07D0C3
:1034900048F4007060614FF0FF3005B0BDE8F08F78
:1034A00017E03046FFF781FF0746A06848B125B90D
:1034B00089F8007009F1010903E0ABF800700BF125
:1034C000020B1DB9E068401CE06002E0E068801C6F
:1034D000E060F06810F0040F03D0D4E903018842E3
:1034E000DFD12169606888429AD1D4E9030188421A
:1034F00096D14FF480706061206810B16068CCE7AD
:1035000005E0A06808B1E068C7E70020C5E70498B7
:1035100001287DD16BE0206888B93DB9FF21304694
:10352000FFF731FF6068401C606036E04FF6FF71C6
:103530003046FFF728FF6068801C60602DE01DBBEF
:10354000D4E90002815C3046FFF71DFF6068401C33
:10355000606022E000800840000003402E2E5C4D99
:10356000656E755C4669726D776172655C736F75C7
:103570007263655C6C7063313778785F7373702E3B
:103580006300000040420F00D4E90002815A304637
:10359000FFF7F9FE6068801C6060D6F8188018F0AC
:1035A000010F05D048F4007060614FF0FF3074E700
:1035B00015E03046FFF7F9FE0746A06838B11DB99F
:1035C000D4E902128F5402E0D4E902128F521DB9DD
:1035D000E068401CE06002E0E068801CE060F068A9
:1035E00010F0040F03D0D4E903018842E1D1F06860
:1035F00010F0020F03D02169606888428BD1D4E9B2
:103600000301884203D121696068884204D000E048
:1036100007E00F20706102E04FF4807060610020CD
:103620003BE74FF0FF3038E770B505460C4677486A
:10363000854202D07648854200D105E04FF40571FD
:10364000AFF2E80000F020FC012C07D0022C05D0DE
:10365000042C03D0082C01D0102C00D105E040F23E
:103660001521AFF2081000F00FFCE868204201D0ED
:10367000012070BD0020FCE770B504460D461646DB
:103680006248844202D06248844200D105E04FF48F
:103690000B71AFF2381000F0F7FB012E03D1606917
:1036A0002843606104E060690F21A943084060611C
:1036B00070BD70B505460C465448854202D054484A
:1036C000854200D105E040F24921AFF2701000F0D0
:1036D000DBFB012C05D0022C03D0042C01D0082CDC
:1036E00000D105E040F24A21AFF2901000F0CCFB8F
:1036F000A869204201D0012070BD0020FCE710B570
:1037000004464248844202D04148844200D105E048
:103710004FF41671AFF2BC1000F0B6FBA06910BDFB
:1037200070B505460C463948854202D03848854276
:1037300000D105E040F26D21AFF2E01000F0A4FBF3
:10374000012C05D0022C03D0042C01D0082C00D170
:1037500005E040F26E21AFF2FC1000F095FBE86945
:10376000204201D0012070BD0020FCE770B5044666
:103770000D462648844202D02548844200D105E007
:1037800040F28121AFF22C2000F07EFB012D01D010
:10379000022D00D105E040F28221AFF2402000F07E
:1037A00073FB256270BD70B504460D46164617487A
:1037B000844202D01648844200D105E040F29721AD
:1037C000AFF2682000F060FB022D01D0012D00D186
:1037D00005E04FF42671AFF27C2000F055FB0EB1EE
:1037E000012E00D105E040F29921AFF2902000F0C7
:1037F0004BFB012E03D1606A2843606204E0606ADB
:103800000321A9430840606270BD000000800840A9
:1038100000000340F0B504460B461546194660000B
:103820003B4A102901D31039401C52F820604FEA5E
:10383000410C032707FA0CF7BE4342F8206052F808
:1038400020604F0005FA07F73E4342F82060F0BDC4
:10385000F0B504460B461546194660002C4A403226
:10386000102901D31039401C52F820604FEA410C56
:10387000032707FA0CF7BE4342F8206052F8206095
:103880004F0005FA07F73E4342F82060F0BD30B51F
:103890000B461F496831012A07D151F82040012504
:1038A0009D402C4341F8204006E051F8204001257E
:1038B0009D40AC4341F8204030BD012806D1144959
:1038C000896A41F00801124A916206E028B910495C
:1038D000896A21F008010E4A91627047012800D1DF
:1038E000052201B90A220A4BDA67704710B504466F
:1038F000A27861782078FFF78DFFE27861782078F0
:10390000FFF7A6FF227961782078FFF7C0FF10BD8E
:1039100000C0024001460020052912D2DFE801F074
:103920000305080B0E00F8480CE0F748203009E0CA
:10393000F548403006E0F448603003E0F24880305B
:1039400000E000BF00BF704701460020052912D2E9
:10395000DFE801F00305080B0E00EB480CE0EA4835
:10396000203009E0E848403006E0E748603003E0F6
:10397000E548803000E000BF00BF704701460020EE
:10398000052912D2DFE801F00305080B0E00DE481E
:103990000CE0DD48203009E0DB48403006E0DA4842
:1039A000603003E0D848803000E000BF00BF7047BF
:1039B0002DE9F04107460D4616463846FFF7AAFFA7
:1039C00004463CB11EB120682843206002E0206814
:1039D000A8432060BDE8F08170B506460C4630462D
:1039E000FFF798FF054605B1AC6170BD70B506469E
:1039F0000C463046FFF78EFF054605B1EC6170BD01
:103A000070B505462846FFF785FF04460CB160698E
:103A100070BD0020FCE718B912B9BC4B196014E066
:103A2000022803D112B9BA4B19600EE020B9012A5D
:103A300002D1B84B196008E0022804D1012A02D152
:103A4000B54B196001E000BFFEE7704703463BB984
:103A500032B9B248006820FA01F000F00100704766
:103A6000022B07D132B9AE48006820FA01F000F00D
:103A70000100F4E743B9012A06D1AA48006820FAF8
:103A800001F000F00100EAE7022B08D1012A06D17B
:103A9000A548006820FA01F000F00100DFE700BF50
:103AA000FEE710B9A14A116006E0022802D1A04A3F
:103AB000116001E000BFFEE7704770B504460D4697
:103AC0001646324629462046FFF772FF70BD70B594
:103AD00004460D4629462046FFF77EFF70BD70B5AF
:103AE00004460D4629462046FFF780FF70BD10B5FD
:103AF00004462046FFF784FF10BD70B504460D460E
:103B00001646324629462046FFF785FF70BD70B540
:103B100004460D461646324629462046FFF796FFD4
:103B200070BD10B503460C4621461846FFF7B9FF95
:103B300010BD2DE9F04107460D4616463846FFF701
:103B4000E9FE04463CB11EB120692843206102E031
:103B50002069A8432061BDE8F0812DE9F04180464D
:103B60000E4615461F464046FFF7EEFE04468CB152
:103B700047B11EB16088284360800BE0208828434D
:103B8000208007E01EB16088A843608002E02088A2
:103B9000A8432080BDE8F0812DE9F04180460E4623
:103BA00015461F464046FFF7CFFE04468CB147B18D
:103BB0001EB1608A284360820BE0208A284320825D
:103BC00007E01EB1608AA843608202E0208AA84311
:103BD0002082BDE8F0812DE9F04107460E461446EB
:103BE0003846FFF7B1FE05461DB10EB16C8300E00B
:103BF0002C83BDE8F0812DE9F04107460E461446BE
:103C00003846FFF7A1FE05461DB10EB1EC8300E07A
:103C1000AC83BDE8F08170B506460D463046FFF72F
:103C200093FE044624B10DB1E08A70BDA08AFCE782
:103C30000020FAE72DE9F04180460C4616461F4663
:103C40004046FFF79BFE05465DB12FB1032C08DC13
:103C5000285D3043285504E0032C02DC285DB04386
:103C60002855BDE8F0812DE9F04180460C46164606
:103C70001F464046FFF782FE05469DB14FB1032C1B
:103C800010DC05F11000005D304305F1100108550E
:103C900008E0032C06DC05F11000005DB04305F1DF
:103CA00010010855BDE8F0812DE9F04107460C46AA
:103CB00015463846FFF762FE064626B1032C02DCA5
:103CC00006F118000555BDE8F0812DE9F0410746E1
:103CD0000C4615463846FFF751FE064626B1032C22
:103CE00002DC06F11C000555BDE8F08170B5064602
:103CF0000C463046FFF742FE0546DDB1032C19DCC9
:103D000005F11400005D70BD00C0092090800240E4
:103D1000B080024094800240B4800240848002401F
:103D2000A480024088800240A88002408C8002402B
:103D3000AC8002400020E6E710B50A46202801D2F8
:103D4000034601E0A0F120031946202814D2464B77
:103D50001B684FF0030404FA01F423EA0403434C04
:103D6000C4F8A831404B1B6802FA01F443EA04038B
:103D70003E4CC4F8A83113E03D4B1B684FF00304E0
:103D800004FA01F423EA0403384CC4F8AC31384B8C
:103D90001B6802FA01F443EA0403344CC4F8AC3162
:103DA00010BD0146202903D20A462F4B186803E0B4
:103DB000A1F120022E4B186820FA02F303F0030051
:103DC000704770B506462B4804683046FFF7E9FF98
:103DD000054635B1012D06D0022D06D0032D08D1A0
:103DE00005E0042505E0012503E0022501E00825A2
:103DF00000BF00BFB4FBF5F4204670BD01290AD115
:103E00001D4A12681D4B00EA030342EA0302174BE6
:103E1000C3F8C4200AE049B9174A1268174B23EACD
:103E2000000302EA0302114BC3F8C42070470020CC
:103E30001349086030BF7047042012490860082009
:103E40000F49086030BF704704200E490860092000
:103E50000B49086030BF704704200A4908600320FE
:103E60000749086030BF7047A8C10F4000C00F402D
:103E7000ACC10F4010000010C4C00F40DEF7EFEFE0
:103E8000C0C00F4010ED00E000BFFEE770B5054672
:103E90000C46A4F12000044A02EB0011102228462F
:103EA00011F0B5F870BD000084AA0100FE48006C56
:103EB00040F0FF00FC4908640846006840F4FF0039
:103EC00008600846006A40F0605008620846006CCE
:103ED00040F4807008647047002109E0002201E08E
:103EE000531C9AB240F275439A42F9DB4B1C99B2CB
:103EF0008142F3DB704700B587B0FFF7D7FF64203E
:103F0000FFF7EAFF00200590059803904FF48070BA
:103F1000E549C865C004C8638000886303980290BF
:103F2000029801900198496D60F30701DE484165F0
:103F3000406920F4FF024FF4FF01019801EAC0102C
:103F40000243D948426100BF4FF08050D649C86350
:103F500000BF4FF08050D44988630015886500BFCA
:103F600000BFC865C0048863400088634000C86320
:103F700000BF0846006C20F0FF0008640846006897
:103F800020F4FF0008600846406DC1B20291C648A7
:103F9000406900F4FF010191DDE9010141EAD0111E
:103FA0000291C148006C40F0FF00BF490864084618
:103FB000006840F4FF01BC480160029803904FF094
:103FC0000050B94988634115B7488165039804904A
:103FD000049806900698A0F51341253905D0069857
:103FE000A0F51341283942F0A7820120AF4908709B
:103FF000B1200490A5200590049803904FF48070A0
:10400000A949C865C004C8638100A74881630398B3
:10401000029002980190A4490198496D60F307014C
:10402000A1484165406920F4FF014FF4FF02019867
:1040300002EAC01001439C48416100BF4FF080512B
:10404000C16300BF4FF08051974881634015964986
:10405000886500BF059803904815C865C00488634B
:1040600003980290029801900198496D60F307014E
:104070008D484165406920F4FF024FF4FF0101982B
:1040800001EAC01002438848426100BF4FF08050EF
:104090008549C86300BF4FF080508349886301158C
:1040A0008148816500BF00BFB1200590059803904D
:1040B00008467D49C865C004C863800088630398CA
:1040C0000290029801900198496D60F307017648CB
:1040D0004165406920F4FF024FF4FF01019801EAB5
:1040E000C01002437048426100BF4FF080506E49DB
:1040F000C86300BF4FF080516B48816341158165F3
:1041000000BF00BF40156849C865C10466488163A7
:104110004800654988634000C86300BF0846006CDA
:1041200020F0FF0008640846006820F4FF000860E3
:104130000846406DC0B202900846406900F4FF0096
:104140000190DDE9011040EAD11002905648006C60
:1041500040F0FF00544908640846006840F4FF003E
:104160000860029803904FF00050886340158865FE
:1041700003980490049806900698A5285ED1032021
:104180004A490870B12004900020059004980390DB
:104190004FF480704449C865C004C86380008863D8
:1041A00003980290029801900198496D60F307010D
:1041B0003D484165406920F4FF024FF4FF0101983A
:1041C00001EAC01002433848426100BF4FF08050FE
:1041D0003549C86300BF4FF08051334881634015B3
:1041E0003149886500BF059803904815C865C0042B
:1041F000886303980290029801900198496D60F3DA
:10420000070129484165406920F4FF014FF4FF028E
:10421000019802EAC01001432348416100BF4FF0FA
:1042200080502149C86300BF4FF080501E49886309
:1042300001151D48816500BF00BF02E002201B4937
:104240000870E520049047F6F0000590049803906C
:104250004FF480701449C865C1041348C1638800D5
:104260001149886303980290029801900198496D62
:1042700060F307010C484165406920F4FF024FF4E8
:10428000FF01019801EAC01002430748426100BFE4
:104290004FF080500449C86300BF4FF0805002497E
:1042A00088630015886503E000C009206CC2072000
:1042B00000BF059803904815C865C004886303983B
:1042C0000290029801900198496D60F30701FE4841
:1042D0004165406920F4FF024FF4FF01019801EAB3
:1042E000C0100243F848426100BF4FF08050F649C9
:1042F000C86300BF4FF08050F3498863001588659C
:1043000000BF00BF012004900002059004980390B4
:104310004815C865C004C86380008863039802908C
:10432000029801900198496D60F30701E6484165E4
:10433000406920F4FF024FF4FF01019801EAC01028
:104340000243E148426100BF4FF08050DE49C8633C
:1043500000BF4FF08050DC4988630015886500BFBE
:10436000059803904815C865C004886303980290B7
:10437000029801900198496D60F30701D2484165A8
:10438000406920F4FF024FF4FF01019801EAC010D8
:104390000243CD48426100BF4FF08050CA49C86314
:1043A00000BF4FF08050C84988630015886500BF82
:1043B00000BF022004904FF4E06005900498039041
:1043C0004815C865C004C8638000886303980290DC
:1043D000029801900198496D60F30701BA48416560
:1043E000406920F4FF014FF4FF02019802EAC01077
:1043F0000143B548416100BF4FF08050B249C863E6
:1044000000BF4FF08050B04988630115AE48816508
:1044100000BF059803900846AB49C865C00488638F
:1044200003980290029801900198496D60F307018A
:10443000A5484165406920F4FF024FF4FF0101984F
:1044400001EAC0100243A048426100BF4FF0805013
:104450009D49C86300BF4FF080519B488163401560
:104460009949886500BF00BF0320049041F23000E5
:104470000590049803904815C865C004C86380007F
:10448000886303980290029801900198496D60F347
:1044900007018D484165406920F4FF014FF4FF0298
:1044A000019802EAC01001438748416100BF4FF004
:1044B00080508549C86300BF4FF0805082498863AF
:1044C00001158148816500BF0598039008467E4923
:1044D000C865C0048863039802900298019001980F
:1044E000496D60F3070178484165406920F4FF0198
:1044F0004FF4FF02019802EAC01001437248416183
:1045000000BF4FF080507049C86300BF4FF080502B
:104510006D4988630015886500BF00BF04200490C2
:1045200000200590049803904815C865C004C8632E
:104530008000886303980290029801900198496D69
:1045400060F3070160484165406920F4FF024FF4C1
:10455000FF01019801EAC01002435B48426100BFBD
:104560004FF080505849C86300BF4FF08050564903
:1045700088630015886500BF059803904815C865D5
:10458000C004886303980290029801900198496DD5
:1045900060F307014C484165406920F4FF024FF485
:1045A000FF01019801EAC01002434748426100BF81
:1045B0004FF080504449C86300BF4FF080514248DB
:1045C000816340154049886500BF00BF0820049002
:1045D00040F207200590049803904815C865C00470
:1045E000C863800088630398029002980190019844
:1045F000496D60F3070134484165406920F4FF02CA
:104600004FF4FF01019801EAC01002432E484261B5
:1046100000BF4FF080502C49C86300BF4FF080505E
:104620002949886301152848816500BF05980390D2
:1046300008462549C865C00488630398029002981B
:1046400001900198496D60F307011F484165406979
:1046500020F4FF024FF4FF01019801EAC010024369
:104660001948426100BF4FF08051C16300BF4FF055
:1046700080511548816340151349886500BF00BF0C
:1046800009200490002005900498039049150E48D5
:10469000C165C8040C49C863800088630398029010
:1046A000029801900198496D60F307010648416541
:1046B000406920F4FF024FF4FF01019801EAC010A5
:1046C00002430148426101E000C0092000BF4FF0F1
:1046D0008050FE49C86300BF4FF08050FB4988639B
:1046E0000015886500BF059803904815C865C0048B
:1046F000886303980290029801900198496D60F3D5
:104700000701F2484165406920F4FF024FF4FF01C0
:10471000019801EAC0100243EC48426100BF4FF02B
:104720008050EA49C86300BF4FF08050E749886372
:104730000015886500BF00BF0A2004900020059086
:10474000049803904815C865C004C8638000886356
:1047500003980290029801900198496D60F3070157
:10476000DA484165406920F4FF024FF4FF010198E7
:1047700001EAC0100243D548426100BF4FF08051AA
:10478000C16300BF4FF08050D04988630015886531
:1047900000BF059803904815C865C0048863039856
:1047A0000290029801900198496D60F30701C74893
:1047B0004165406920F4FF014FF4FF02019802EACD
:1047C000C0100143C148416100BF4FF08050BF4954
:1047D000C86300BF4FF08051BC4881634015BB499E
:1047E000886500BF00BF0C2004900020059004984D
:1047F00003904815C865C004C863800088630398A7
:104800000290029801900198496D60F30701AF484A
:104810004165406920F4FF024FF4FF01019801EA6D
:10482000C0100243A948426100BF4FF08051C163EC
:1048300000BF4FF08050A54988630115A3488165EA
:1048400000BF059803900846A049C865C004886366
:1048500003980290029801900198496D60F3070156
:104860009A484165406920F4FF024FF4FF01019826
:1048700001EAC01002439548426100BF4FF08050EA
:104880009249C86300BF4FF0805190488163401542
:104890008E49886500BF00BF0D2004900020059060
:1048A000049803904815C865C004C86380008863F5
:1048B00003980290029801900198496D60F30701F6
:1048C00082484165406920F4FF024FF4FF010198DE
:1048D00001EAC01002437D48426100BF4FF08050A2
:1048E0007A49C86300BF4FF080507849886300154B
:1048F000886500BF059803904815C865C0048863A3
:1049000003980290029801900198496D60F30701A5
:104910006E484165406920F4FF024FF4FF010198A1
:1049200001EAC01002436948426100BF4FF0805065
:104930006649C86300BF4FF0805064498863001522
:10494000886500BF00BF0F200490002005900498E8
:1049500003904815C865C004C86380008863039845
:104960000290029801900198496D60F30701574841
:104970004165406920F4FF024FF4FF01019801EA0C
:10498000C01002435148426100BF4FF080504F4970
:10499000C86300BF4FF080504C498863001588659C
:1049A00000BF059803904815C865C0048863039844
:1049B0000290029801900198496D60F30701434805
:1049C0004165406920F4FF024FF4FF01019801EABC
:1049D000C01002433D48426100BF4FF080503B4948
:1049E000C86300BF4FF08050384988630015886560
:1049F00000BF00BF10200490002005900498039091
:104A00004815C865C004C8638100304881630398B5
:104A10000290029801902D490198496D60F30701B9
:104A20002A484165406920F4FF014FF4FF020198D4
:104A300002EAC01001432548416100BF4FF0805099
:104A40002249C86300BF4FF0805020498863001599
:104A5000886500BF059803904815C865C004886341
:104A600003980290029801900198496D60F3070144
:104A700016484165406920F4FF014FF4FF02019898
:104A800002EAC01001431148416100BF4FF080505D
:104A90000E49C86300BF4FF080500C498863001571
:104AA000886500BF00BF112004900720059004987E
:104AB00003904815C865C004C8638100034881633A
:104AC0000398029002980190004901E000C009207B
:104AD0000198496D60F30701FE484165406920F483
:104AE000FF024FF4FF01019801EAC0100243F948A8
:104AF000426100BF4FF08050F649C86300BF4FF0DD
:104B00008050F44988630015886500BF05980390BC
:104B10004815C865C0048863039802900298019004
:104B20000198496D60F30701EA484165406920F446
:104B3000FF024FF4FF01019801EAC0100243E5486B
:104B4000426100BF4FF08050E249C86300BF4FF0A0
:104B50008050E04988630015886500BF00BF1220BF
:104B6000049000200590049803904815C865C0047F
:104B7000C8638000886303980290029801900198AE
:104B8000496D60F30701D3484165406920F4FF0196
:104B90004FF4FF02019802EAC0100143CD48416181
:104BA00000BF4FF08050CB49C86300BF4FF080502A
:104BB000C84988630115C748816500BF05980390FF
:104BC0000846C449C865C0048863039802900298E7
:104BD00001900198496D60F30701BE484165406945
:104BE00020F4FF024FF4FF01019801EAC0100243D4
:104BF000B848426100BF4FF08050B649C86300BF5B
:104C00004FF08050B34988630015886500BF00BF2E
:104C10001320049000200590049803904815C8655F
:104C2000C004C863800088630398029002980190D2
:104C30000198496D60F30701A6484165406920F479
:104C4000FF014FF4FF02019802EAC0100143A1489E
:104C5000416100BF4FF080509E49C86300BF4FF0D4
:104C600080509C4988630015886500BF05980390B3
:104C70004815C865C00488630398029002980190A3
:104C80000198496D60F3070192484165406920F43D
:104C9000FF024FF4FF01019801EAC01002438D4862
:104CA000426100BF4FF080508A49C86300BF4FF097
:104CB0008050884988630015886500BF00BF0720C1
:104CC000049001200590049803904815C865C0041D
:104CD000C86380008863039802900298019001984D
:104CE000496D60F307017B484165406920F4FF018D
:104CF0004FF4FF02019802EAC01001437548416178
:104D000000BF4FF080507349C86300BF4FF0805020
:104D1000704988630015886500BF059803904815A1
:104D2000C865C004886303980290029801900198B6
:104D3000496D60F3070167484165406920F4FF0150
:104D40004FF4FF02019802EAC0100143614841613B
:104D500000BF4FF080505F49C86300BF4FF08050E4
:104D60005C4988630015886500BF00BFC820FFF755
:104D7000B3F81020049041F290000590049803903D
:104D80004FF480705349C865C004C86380008863CD
:104D900003980290029801900198496D60F3070111
:104DA0004C484165406920F4FF014FF4FF0201982F
:104DB00002EAC01001434748416100BF4FF08050F4
:104DC0004449C86300BF4FF08050424988630115D1
:104DD0004048816500BF0598039008463D49C86575
:104DE000C1043C48816303980290029801903949BC
:104DF0000198496D60F3070136484165406920F428
:104E0000FF024FF4FF01019801EAC010024331484C
:104E1000426100BF4FF080502E49C86300BF4FF081
:104E200080502C4988630015886500BF00BF1120A1
:104E3000049040F227200590049803904815C86517
:104E4000C004C863800088630398029002980190B0
:104E50000198496D60F307011E484165406920F4DF
:104E6000FF014FF4FF02019802EAC0100143194804
:104E7000416100BF4FF080501649C86300BF4FF03A
:104E800080501449886301151248816500BF059858
:104E9000039008460F49C865C004886303980290D0
:104EA000029801900198496D60F307010948416536
:104EB000406920F4FF024FF4FF01019801EAC0109D
:104EC00002430448426100BF4FF080500149C8636B
:104ED00000BF01E000C009204FF08050FE49886308
:104EE0000015886500BF00BF3220FEF7F5FF1220D5
:104EF00004901F200590049803904FF48070F649A9
:104F0000C865C004C8638000886303980290029853
:104F100001900198496D60F30701EF4841654069D0
:104F200020F4FF014FF4FF02019802EAC010014390
:104F3000E948416100BF4FF08051C16300BF4FF0AD
:104F40008050E54988630115E348816500BF0598F5
:104F500003900846E049C865C0048863039802903E
:104F6000029801900198496D60F30701DA484165A4
:104F7000406920F4FF024FF4FF01019801EAC010DC
:104F80000243D548426100BF4FF08050D249C86308
:104F900000BF4FF08050D04988630015886500BF7E
:104FA00000BF3220FEF798FF132004904FF4A85062
:104FB0000590049803904FF48070C749C865C004F9
:104FC000C86380008863039802900298019001985A
:104FD000496D60F30701C0484165406920F4FF0254
:104FE0004FF4FF01019801EAC0100243BA48426140
:104FF00000BF4FF08050B849C86300BF4FF08050E9
:10500000B54988630015886500BF05980390481569
:10501000C865C004886303980290029801900198C3
:10502000496D60F30701AC484165406920F4FF0118
:105030004FF4FF02019802EAC0100143A648416103
:1050400000BF4FF08050A449C86300BF4FF08051AB
:10505000A14881634015A049886500BF00BF292091
:10506000049027200590049803904815C865C00453
:10507000C8638000886303980290029801900198A9
:10508000496D60F3070194484165406920F4FF01D0
:105090004FF4FF02019802EAC01001438E484161BB
:1050A00000BF4FF080508C49C86300BF4FF0805064
:1050B000894988630015886500BF059803904815E5
:1050C000C865C00488630398029002980190019813
:1050D000496D60F3070180484165406920F4FF0293
:1050E0004FF4FF01019801EAC01002437A4842617F
:1050F00000BF4FF080507849C86300BF4FF0805028
:10510000754988630015886500BF00BF2B20049097
:105110000D200590049803904815C865C004C86325
:105120008000886303980290029801900198496D6D
:1051300060F3070168484165406920F4FF024FF4BD
:10514000FF01019801EAC01002436348426100BFB9
:105150004FF080506049C86300BF4FF080505E49F7
:1051600088630015886500BF059803904815C865D9
:10517000C004886303980290029801900198496DD9
:1051800060F3070154484165406920F4FF024FF481
:10519000FF01019801EAC01002434F48426100BF7D
:1051A0004FF080504C49C86300BF4FF080504A49CF
:1051B00088630015886500BF00BF3220FEF78CFEB3
:1051C0002020049000200590049803904FF48070F4
:1051D0004149C865C004C863800088630398029091
:1051E000029801900198496D60F307013A484165C2
:1051F000406920F4FF014FF4FF02019802EAC01059
:1052000001433548416100BF4FF080503249C863C7
:1052100000BF4FF080513048816340152E498865AA
:1052200000BF059803904815C865C1042A488163EA
:10523000039802900298019027490198496D60F304
:10524000070125484165406920F4FF024FF4FF0142
:10525000019801EAC01002431F48426100BF4FF0AD
:1052600080501D49C86300BF4FF080501A498863C1
:105270000015886500BF00BF212004900020059024
:10528000049803904815C865C004C863800088630B
:1052900003980290029801900198496D60F307010C
:1052A0000D484165406920F4FF014FF4FF02019869
:1052B00002EAC01001430848416100BF4FF080502E
:1052C0000549C86300BF4FF080500349886300154B
:1052D000886500BF059801E000C0092003904815CB
:1052E000C865C004886303980290029801900198F1
:1052F000496D60F30701FE484165406920F4FF01F4
:105300004FF4FF02019802EAC0100143F8484161DE
:1053100000BF4FF08050F649C86300BF4FF0805087
:10532000F34988630015886500BF00BF30200490F2
:1053300000200590049803904815C865C004C86310
:105340008000886303980290029801900198496D4B
:1053500060F30701E6484165406920F4FF014FF41E
:10536000FF02019802EAC0100143E148416100BF19
:105370004FF08050DE49C86300BF4FF08050DC49D9
:1053800088630015886500BF059803904815C865B7
:10539000C004886303980290029801900198496DB7
:1053A00060F30701D2484165406920F4FF024FF4E1
:1053B000FF01019801EAC0100243CD48426100BFDD
:1053C0004FF08050CA49C86300BF4FF08050C849B1
:1053D00088630015886500BF00BF3120049040F24B
:1053E00007700590049803904815C865C004C86309
:1053F0008000886303980290029801900198496D9B
:1054000060F30701BA484165406920F4FF014FF499
:10541000FF02019802EAC0100143B548416100BF94
:105420004FF08050B249C86300BF4FF08050B04980
:1054300088630015886500BF059803904815C86506
:10544000C004886303980290029801900198496D06
:1054500060F30701A6484165406920F4FF024FF45C
:10546000FF01019801EAC0100243A148426100BF58
:105470004FF080509E49C86300BF4FF080509C4958
:1054800088630015886500BF00BF3220049040F299
:1054900007300590049803904815C865C004C86398
:1054A0008000886303980290029801900198496DEA
:1054B00060F307018E484165406920F4FF024FF414
:1054C000FF01019801EAC01002438948426100BF10
:1054D0004FF080508649C86300BF4FF08050844928
:1054E00088630015886500BF059803904815C86556
:1054F000C004886303980290029801900198496D56
:1055000060F307017A484165406920F4FF024FF4D7
:10551000FF01019801EAC01002437548426100BFD3
:105520004FF080507249C86300BF4FF080507049FF
:1055300088630015886500BF00BF352004900815FA
:105540000590049803904815C865C004C86381009D
:10555000674881630398029002980190644901981A
:10556000496D60F3070162484165406920F4FF021C
:105570004FF4FF01019801EAC01002435C48426108
:1055800000BF4FF080505A49C86300BF4FF08050B1
:10559000574988630015886500BF05980390481532
:1055A000C865C0048863039802900298019001982E
:1055B000496D60F307014E484165406920F4FF01E1
:1055C0004FF4FF02019802EAC010014348484161CC
:1055D00000BF4FF080504649C86300BF4FF0805075
:1055E000434988630015886500BF00BF36200490DA
:1055F00008200590049803904815C865C004C86346
:105600008000886303980290029801900198496D88
:1056100060F3070136484165406920F4FF014FF40B
:10562000FF02019802EAC01001433148416100BF06
:105630004FF080502E49C86300BF4FF080502C4976
:1056400088630015886500BF059803904815C865F4
:10565000C004886303980290029801900198496DF4
:1056600060F3070122484165406920F4FF024FF4CE
:10567000FF01019801EAC01002431D48426100BFCA
:105680004FF080501A49C86300BF4FF0805118484E
:10569000816340151649886500BF00BF372004901C
:1056A00004200590049803904815C865C10410486B
:1056B000C16388000E4988630398029002980190A4
:1056C0000198496D60F3070109484165406920F47C
:1056D000FF014FF4FF02019802EAC01001430448A1
:1056E000416100BF4FF08051C16300BF02E0000084
:1056F00000C009204FF08051FE4881634015FD49EC
:10570000886500BF059803904815C865C004886384
:1057100003980290029801900198496D60F3070187
:10572000F4484165406920F4FF024FF4FF010198FD
:1057300001EAC0100243EF48426100BF4FF08050C1
:10574000EC49C86300BF4FF08050EA4988630015F8
:10575000886500BF00BF38200490002005900498A1
:1057600003904815C865C004C86380008863039827
:105770000290029801900198496D60F30701DD489D
:105780004165406920F4FF014FF4FF02019802EAED
:10579000C0100143D748416100BF4FF08050D54948
:1057A000C86300BF4FF08050D249886300158865F8
:1057B00000BF059803904815C865C0048863039826
:1057C0000290029801900198496D60F30701C94861
:1057D0004165406920F4FF024FF4FF01019801EA9E
:1057E000C0100243C348426100BF4FF08050C1491E
:1057F000C86300BF4FF08050BE49886300158865BC
:1058000000BF00BF3920049040F207700590049853
:1058100003904815C865C004C86380008863039876
:105820000290029801900198496D60F30701B14818
:105830004165406920F4FF024FF4FF01019801EA3D
:10584000C0100243AB48426100BF4FF08050A949ED
:10585000C86300BF4FF08050A64988630015886573
:1058600000BF059803904815C865C0048863039875
:105870000290029801900198496D60F307019D48DC
:105880004165406920F4FF014FF4FF02019802EAEC
:10589000C01001439748416100BF4FF08051C16380
:1058A00000BF4FF08050934988630015886500BFA2
:1058B00000BF3C20049002200590049803904815F6
:1058C000C865C004C86381008A4881630398029058
:1058D0000298019087490198496D60F30701854856
:1058E0004165406920F4FF014FF4FF02019802EA8C
:1058F000C01001437F48416100BF4FF080507D4997
:10590000C86300BF4FF080507A49886300158865EE
:1059100000BF059803904815C865C00488630398C4
:105920000290029801900198496D60F30701714857
:105930004165406920F4FF024FF4FF01019801EA3C
:10594000C01002436B48426100BF4FF0805069496C
:10595000C86300BF4FF080516648816340156549B8
:10596000886500BF00BF3D20049041F604500590BB
:10597000049803904815C865C004C8638000886314
:1059800003980290029801900198496D60F3070115
:1059900058484165406920F4FF014FF4FF02019827
:1059A00002EAC01001435348416100BF4FF08050EC
:1059B0005049C86300BF4FF080504E4988630115BD
:1059C0004C48816500BF0598039008464949C86561
:1059D000C004886303980290029801900198496D71
:1059E00060F3070143484165406920F4FF024FF42A
:1059F000FF01019801EAC01002433E48426100BF26
:105A00004FF080503B49C86300BF4FF08050394988
:105A100088630015886500BF00BF502004900020F7
:105A20000590049803904815C865C1043148C163C6
:105A30008800304988630398029002980190019889
:105A4000496D60F307012B484165406920F4FF016F
:105A50004FF4FF02019802EAC0100143254841615A
:105A600000BF4FF08051C16300BF4FF0805021490B
:105A700088630015886500BF0598039049151D4887
:105A8000C165C8041B49886303980290029801907D
:105A90000198496D60F3070116484165406920F49B
:105AA000FF024FF4FF01019801EAC01002431148C0
:105AB000426100BF4FF080500E49C86300BF4FF0F5
:105AC00080500C4988630015886500BF00BF5120D5
:105AD0000490EF200590049803904815C865C00411
