:020000040000FA
:1000000010610010E1000000E9000000EB000000BA
:10001000ED000000EF000000F10000000000000013
:10002000000000000000000000000000F3000000DD
:10003000F500000000000000F7000000B50A000015
:10004000FB000000BD0A000059290000150C00004B
:10005000FB000000FB000000FB000000FB000000B4
:10006000FB000000FB000000FB000000FB000000A4
:10007000FB000000FB000000FB000000FB00000094
:10008000FB0000005D090000FB000000FB00000019
:10009000FB000000FB000000C12A0000FB00000084
:1000A000FB000000FB000000FB000000FB00000064
:1000B00043140000FB000000FB000000FB000000F8
:1000C000FB000000FB000000FB000000DFF80CD08C
:1000D00015F024FA00480047E1010000106100100B
:1000E0000648804706480047FEE7FEE7FEE7FEE7D2
:1000F000FEE7FEE7FEE7FEE7FEE7FEE7A9040000F5
:10010000CD0000001CB504202A49096808702A485F
:100110002A49096808602A482849096888602749E7
:1001200009684860274825490968C8612648234965
:100130000968C860254921480068816124481F4931
:100140000968086101461D480068416100F064F8D3
:1001500000F060FC00F086FC02F074FC02F032FD5E
:1001600000F09CF84FF408511A4800F055FA1A486C
:100170001A495A230022CDE900101146022000F04E
:100180000BFB002000900346322201210190062043
:1001900000F002FB01F051FF00F08EFB00F02EF8A2
:1001A00002F026FD02F092FB002002490968087067
:1001B0001CBD0000040000100000C0410000001041
:1001C0006666C63FB81E55409A99993F5C0FFA4340
:1001D000F6A89442000048426F12033B6F12833A24
:1001E000FFF790FF03E001F02CFD00F019F8FAE7AB
:1001F000AA204107087255200872704700B50548CB
:100200004FF0804148600120086103200870FFF72B
:10021000EFFF00BD00B743BA10B517F0BBFE10BD2D
:1002200010B518F0ABF810BD07280CD2DFE800F0CD
:100230000405060708090A0005E004E003E002E0FF
:1002400001E000E000BF00BF00BFFEE710B516F000
:100250000BFC17F0ADFF17F0B7FD19F0B7F918F068
:10026000B7FA16F0D1FFBDE8104016F0DDB810B5B2
:1002700016F014FC17F0A2FF17F014FE18F078FB2C
:10028000BDE8104017F09EBB0020704770477047D4
:100290000020704700207047002070477047002002
:1002A000134908701348006820F480301149086031
:1002B00001201149087003200121814042094FF0BB
:1002C000E02303EB8202C2F8001100BF0948006876
:1002D00040F080700749086070470648006820F0C9
:1002E00080700449086001200149087070470000CF
:1002F0003E0000100040034013000010FFFFFFFF0E
:100300002DE9F047B1480068C0F3016003287CD1B3
:10031000AF48006810F0030006D0012833D002284F
:100320005FD003282ED100E000BFA8480068C0F3CA
:10033000074000F101044FF00201A648D0F8880000
:10034000C0F30E0000F10100A1FB0001A24B4FF031
:10035000000CA0FB037901FB039100FB0C1122466A
:100360006346384614F026FC05469C480068C0B237
:1003700000F1010422464FF00003284614F01AFC55
:10038000974908605DE091480068C0F3074000F1BC
:1003900001044FF002018F48D0F88800C0F30E002E
:1003A00000F10100A1FB00108E4A4FF0000CA1FBF0
:1003B000027900FB029001FB0C012246634638469D
:1003C00014F0F8FB054685480068C0B200F101044E
:1003D00022464FF00003284614F0ECFB80490860E9
:1003E0002FE07A480068C0F3074000F101044FF0A5
:1003F00002017848D0F88800C0F30E0000F1010037
:10040000A1FB00124FF4004000E01BE04FF000039E
:10041000A1FB007902FB009001FB03012246384654
:1004200014F0C8FB05466D480068C0B200F1010435
:1004300022464FF00003284614F0BCFB68490860D0
:1004400000BF2FE06248006810F0030006D00128CA
:1004500010D0022819D0032823D100E000BF5F4844
:100460000068C0B200F101005B49B1FBF0F05C49EB
:10047000086016E059480068C0B200F1010059490F
:10048000B1FBF0F0564908600BE054480068C0B278
:1004900000F101004FF40041B1FBF0F05049086059
:1004A00000BF00BFBDE8F08720204F4908604948E1
:1004B000D0F8A00110F0200F05D000BF4A48006816
:1004C00010F0400FFAD00320444908604FF00000BC
:1004D0004049C1F8A801454908604FF001003C4976
:1004E00008604348434908604FF0AA004249086049
:1004F0004FF0550008604FF00100404908604FF090
:10050000AA003D4908604FF055003249C1F88C00FF
:1005100000BF2E48006810F0806FFAD003203749E2
:1005200008604FF0AA002B49C1F88C004FF055002D
:100530003149086000BF2548006800F04070B0F104
:10054000407FF8D123202E4908604FF0AA002149AE
:10055000C1F8AC004FF055002A4908604FF0010087
:10056000294908604FF0AA00264908604FF055005D
:100570001849C1F8AC0000BF2448006810F4806F2F
:10058000FAD00320204908604FF0AA001149C1F8B1
:10059000AC004FF055001B49086000BF1B480068C5
:1005A00000F44070B0F5407FF8D11948194908604F
:1005B0004FF000000749C1F8C8010846006820F460
:1005C000704040F4804008607047000088C00F40D1
:1005D0000CC10F4000C00F4000093D0004C10F4096
:1005E00000C00720001BB700A0C10F40ACC10F40E6
:1005F0006300050084C00F408CC00F4080C00F40D6
:10060000A4C00F40ACC00F40A0C00F40A8C00F4016
:10061000DE872804C4C00F4070B505460C469A48D2
:10062000006840F040009949C1F8C4002946984844
:1006300014F0C5FB064614F0B6FD401E95498861CE
:100640000846406840F009004860084640690020BC
:1006500048610846406940F0020048618E480069E0
:100660006FF30B008C4908610846C0688B4908404D
:100670008949C86000208A490968087025E08848CF
:100680000068017844FA01F04FF6FE71884315D0F6
:10069000814801698248006800784200012090404A
:1006A00001437D4801617B48C06C7D490968097838
:1006B000093101228A4010437649C86478480068AD
:1006C0000078401C76490968087075480068007811
:1006D0000628D4DB062072490968087052E0704889
:1006E00000680178891C44FA01F04FF6FE718843D6
:1006F00041D06848C16C6A4800680078C01C01227B
:10070000824011436348C164654800680078801FD7
:1007100006282ED2DFE800F0030A11181F265E48D3
:10072000C06840F020005C49C86023E05A48C068B7
:1007300040F400705849C8601CE05748C06840F455
:1007400000605549C86015E05348C06840F4004057
:100750005149C8600EE05048C06840F400304E492E
:10076000C86007E04C48C06840F400104A49C860BF
:1007700000E000BF00BF4A4800680078401C4849BC
:10078000096808704648006800780C28A7DB00203C
:1007900043490968087070BD2DE9FF5F04460D46A6
:1007A00016469946DDF838A0032C00D9A41D504602
:1007B00014F026FD4FF033323A4BCDE9020114F02C
:1007C000E5FB074614F044FD82460F9814F018FD2F
:1007D000354A364BCDE9020114F0D8FB074614F038
:1007E00037FD0F90D5B1012D3ED1304614F0B8FC45
:1007F0002F49039014F0E3FA80462649886914F0E3
:10080000AFFC8346414614F0A4FA074614F0CBFC33
:100810002049042202FB0411886126E0484614F0B6
:100820009FFC2449009014F0CAFA514602900F9898
:1008300014F089FA0190029914F08BFA834651461C
:1008400014F02FFA1249039014F083FA80464FF007
:100850007E5114F078FA074614F0A5FC0D490422E5
:1008600002FB0411886100E000BF00BF032C00D927
:10087000A41F0848006D0121A14041F00101084377
:1008800004490865BDE8FF9FC4C00F4000C00F4089
:1008900020BCBE4B0080014000C00240CF30CCFFE6
:1008A000080000103333E33FCDCCCCCCCCCCF43FAC
:1008B0000000C8420000344310B53A48006840F4D4
:1008C00000703949C1F8C4004FF01200374908726E
:1008D0004FF0000008644FF0010008720846007BEA
:1008E00040F00100087340F2E37088874FF00A007F
:1008F0002F4908704FF00C002E4908704FF00F0080
:10090000A1F1040108704FF02500A1F10401087065
:100910004FF00000A1F1040108704FF011004FF0FA
:10092000010101FA00F14FEA50124FF0E02303EB0E
:100930008202C2F8001100BF4FF00001002807DA60
:10094000CA06140E1C4A00F00F031B1FD45403E008
:10095000CA06130E194A135400BF10BD1FB518481C
:1009600000688068401C1649096888600F48007854
:1009700040F001000D4908701248007812490978CA
:10098000124A1278094B9B8FCDE90032CDE9021053
:10099000064890F8383010F82C2F0DA1144814F0A8
:1009A0005FFE1FBDC4C00F4000C00F4000400240AA
:1009B000384002402C40024018ED00E000E400E026
:1009C000080000102040024024400240284002401D
:1009D000253032642F253032642F253034642D25A4
:1009E0003032643A253032643A25303264000000F7
:1009F0004CC2072010B5002807DACA06140EAC4A0C
:100A000000F00F031B1FD45403E0CA06130EA94ABB
:100A1000135410BD10B5A84800680A21B0FBF1F0CE
:100A2000401E4FF0E021486107200861A24800689D
:100A30000A21B0FBF1F4B4F1807F00D311E024F07F
:100A40007F40401E4FF0E02148611F214FF0FF30F2
:100A5000FFF7D0FF00204FF0E021886107200861F8
:100A600000BF10BD10B59548006840F002009449E1
:100A7000C1F8C4004FF003004FF0402148614FF02F
:100A80000000C8600846406840F0010048608D489A
:100A900088614FF001010846FFF7ACFF01200121FA
:100AA000814042094FF0E02303EB8202C2F80011BB
:100AB00000BF10BD10B518F07FFD10BD2DE9FC4141
:100AC0004FF0402000684FF0402108607E480078D9
:100AD000052190FBF1F201FB1207384614F037FBB9
:100AE00006464FF07E5114F034F905464FF07C5124
:100AF00014F065F90446002114F0C6FB1DD1052051
:100B000072498862724800680078C0F3400060B99A
:100B1000002070490968C8616D480068007820F0BD
:100B20000100401C6A49096808706948006800783B
:100B300020F00200664909680870002014F007FBE5
:100B400005464FF07C5114F03AF90446002114F0A8
:100B50009BFB22D15E4800680078C0F3C000E0B182
:100B60005D480078C8B15548006840F48050544949
:100B7000C1F8C40056480068007820F008005449C5
:100B8000096808705548006820F080705349086073
:100B90000846006840F4803008604B4800784FF009
:100BA0000A0190FBF1F201FB1207384614F0CFFA6C
:100BB00006464FF07E5114F0CCF805464FF07C51BC
:100BC00014F0FDF80446002114F05EFB3E48007866
:100BD00000F101003C4908703E4909680868404935
:100BE00014F0B1F807463F4914F0B3F804463E4903
:100BF00014F0E5F8054614F0D6FAC6B23B483C4975
:100C000033460022CDE9001011460220FFF7C4FD53
:100C1000BDE8FC8110B537480068364909680843CB
:100C2000344908603448007840B934490968496853
:100C3000334A1268505C022102F011F82E48007805
:100C400001280FD125480069C0F307202B49096806
:100C500049682B4A126850542048006840F0807060
:100C60001E490860254909684868411C234A1268E2
:100C70005160A0F5BA41BF3919D100201F49096858
:100C800048600320012181401E4A430942F8231095
:100C900000BF0F480068007820F0800080300C49C9
:100CA00009680870FFF719FB00201349087010BD90
:100CB00018ED00E000E400E000C00720C4C00F40D1
:100CC00000C00F401FBCBE0012000010008000409A
:100CD0000C000010000000103E0000100040034017
:100CE0000000884100003443000070416F12033B54
:100CF0006F12833A00000940130000100800001032
:100D0000AC00001080E100E0704770472DE9F0472B
:100D100005460E4691469A46287862284CD010DC4B
:100D20004D2873D006DC412871D0442870D0482863
:100D30006FD1B7E053286DD054286CD06128F7D11B
:100D400048E074280ED006DC682827D0692873D0C4
:100D50007028EDD114E076287CD078285CD07928F2
:100D6000E6D145E062490968086814F049FA074687
:100D70003A460B46291D304614F072FC0446B2E098
:100D80005B490968486814F03BFA07463A460B4647
:100D9000291D304614F064FC0446A4E05449096857
:100DA000886814F02DFA07463A460B46291D30464E
:100DB00014F056FC044696E04D490968086A14F0A0
:100DC0001FFA07463A460B46291D304614F048FCE8
:100DD000044688E046490968886914F011FA074614
:100DE0003A460B46291D304614F03AFC04467AE098
:100DF0003F490968486914F003FA07463A460B462A
:100E0000291D304614F02CFC04466CE038E02FE03D
:100E10003FE062E058E04EE035490968086914F0A7
:100E2000EFF907463A460B46291D304614F018FCE8
:100E3000044658E000E00DE02D490968C86814F048
:100E4000DFF907463A460B46291D304614F008FCE8
:100E5000044648E026490968C86914F0D1F90746F4
:100E60003A460B46291D304614F0FAFB04463AE098
:100E70002048828F291D304614F0F2FB044632E0F0
:100E80001D48027805F10401304614F0E9FB0446E0
:100E900029E01A48027805F10401304614F0E0FB1D
:100EA000044620E01648027805F10401304614F0AB
:100EB000D7FB044617E01348027805F104013046D9
:100EC00014F0CEFB04460EE00F48027805F1040151
:100ED000304614F0C5FB044605E00CA1304614F082
:100EE000BFFB044600BF00BFA0B2BDE8F087000012
:100EF0000000001000400240384002402C400240F8
:100F00002840024024400240204002403C703E59AC
:100F10002E2E2E207175652071756965726573209E
:100F200071756520706F6E676120617175693F2012
:100F30003A6C3C2F703E00001C2001218140420988
:100F40004FF0E02303EB8202C2F8001100BF7047AC
:100F50001C2001218140FE4A430942F8231000BFB2
:100F6000704770B505460E468EB9032405E015F8A6
:100F7000021BC8B2F7490855641C062CF7DB7E201B
:100F8000F4490870FF204870FE20887009E00024B2
:100F900005E015F8021BC8B2EE490855641C062C82
:100FA000F7DBFFF7D5FF4FF0A040006820F001000D
:100FB0004FF0A0410860E848006820F00300C1F845
:100FC0000001E4480079E349497940EA01204FF003
:100FD000A0410864DF488078DE49C97840EA0120F2
:100FE0004FF0A0414864DB480078DA49497840EA8C
:100FF00001204FF0A04188640846006840F44F404B
:1010000008600846D0F8000140F07800C1F80001FF
:10101000FFF792FF012070BD00200FE000EB4001C0
:10102000CE4A02EB4121CE4A42F83010002102EBB9
:10103000C0025160CB4A42F82010401C0328EDD377
:10104000C749C94A1160C7494FF0A042C2F82011F0
:101050004FF00201C54A11604FF000014FF0A0426D
:10106000C2F828117047002013E000EB4001C04A8D
:1010700002EB4121BF4A42F83010BF4902EBC002E7
:1010800051600021BD4A42F8301002EBC0025160AD
:10109000401C0428E9D3B749B94A1160B7494FF059
:1010A000A042C2F80C114FF00301B64A11604FF094
:1010B00000014FF0A042C2F81811704710B5014668
:1010C00041F480704FF0A044A062012060620023D0
:1010D00007E04FF0A040406B10F0010F00D103E09B
:1010E0005B1CB3F5A02FF4D300BF00204FF0A04449
:1010F00060622046026B90B210BD10B540F4807360
:101100004FF0A044A3622346D962002207E04FF0CB
:10111000A0435B6B13F0010F00D103E0521CB2F54A
:10112000A02FF4D300BF10BD10B59748006840F061
:1011300080409649C1F8C4009548964988600846A1
:10114000C06820F00F0000F10500C8604FF44F4068
:101150004FF0A04108604FF038007F4908604FF021
:1011600000008D49086004E08B480068401C8A49F3
:10117000086089480068FF28F6D902204FF0A04196
:101180000860302048604001486143F20F700861F8
:101190001220C8604FF430706F49086048F23C007C
:1011A0004FF0A04108624FF000007B49086004E066
:1011B00079480068401C7849086077480068FF2833
:1011C000F6D93C204FF0A04108624FF400608861DE
:1011D00000207149086004E06F480068401C6E49B7
:1011E00008606D480068FF28F6D900204FF0A04144
:1011F00088614FF40041FFF780FF002066490860D6
:101200000FE00020FFF75AFF644908600846008895
:1012100010F4084F00D109E05F480068401C5E49A7
:1012200008605D480068B0F5801FEAD300BF022067
:10123000FFF744FF5A4908600320FFF73FFF594971
:101240000860084600684FF6F07108405449098864
:1012500040EA0140A0F5F821F0391ED14FF4805149
:101260000020FFF74AFF00204B4908600FE00120F3
:10127000FFF724FF494908600846007810F0200F66
:1012800000D009E044480068401C434908604248D7
:101290000068B0F5801FEAD300BF00203E49086017
:1012A0000FE00120FFF70AFF3C490860084600787C
:1012B00010F0040F00D009E037480068401C3649A0
:1012C000086035480068B0F5803FEAD300BF1F20B2
:1012D000FFF7F4FE314908600846007810F0100F5F
:1012E00011D04FF0A040406840F001004FF0A04105
:1012F00048601948006840F48060C1F800014FF070
:101300001500886003E012204FF0A0418860234858
:10131000007810F0080F05D04FF480704FF0A04116
:10132000886103E000204FF0A041886109480079FE
:101330000849497940EA01204FF0A0410864054876
:1013400080780449C97840EA01204FF0A0412BE0A1
:1013500080E100E02400001000010050B40E0820DD
:1013600090F60720A8F607201C0100502401005029
:10137000B4F6072050F60720FF05008070F607201E
:101380000801005010010050C4C00F4000C00F40C1
:101390000501155000C002400CC0072008C00720FE
:1013A00010C0072014C0072048644D4800784C49FD
:1013B000497840EA01204FF0A0418864FFF753FECE
:1013C000FFF72AFE2620474908604FF0880046496B
:1013D00008604FF6FF7001F1040108604FF0A04073
:1013E000D0F8000140F003004FF0A041C1F8000127
:1013F0000846006840F00100086010BD70B53B4D24
:10140000296800F104033A4D55F83140058805F18B
:1014100003054FEAA50202E020CB20C4521E002A99
:10142000FAD105886D1E45F04045314E06EBC106E8
:1014300075604D1C2946032D00D100212B4D2960DC
:1014400070BD2DE9F04740E02748001DC0F800803E
:1014500018F0080F38D02748046831E0264850F8C3
:10146000347017F0804F00D123E0C7F30A00C51E87
:1014700040F2EA50854202D82048074200D018E0E6
:1014800045F0004014F084FD06468EB106F1040AD2
:101490001B4850F83490E81C850804E059F8040B08
:1014A0004AF8040B6D1E002DF8D1304616F0F6FFF9
:1014B00000BF601C0446042800D100240D480460CD
:1014C00010480068A042C9D100BF0748001F00684B
:1014D0000549096810EA0108B6D1BDE8F0870000A7
:1014E0002400001000020050E40F005028010050BA
:1014F00090F607201801005070F607200000901B9E
:1015000050F60720140100500146FD4800780128DC
:101510001ED1FC4800880A88904219DD08888A8814
:101520001044F84A1288904212DDF64840884A88F2
:1015300090420DDD4888CA881044F24A5288904291
:1015400006DD087A10B90120087270470020FCE718
:101550000020087200BFF8E72DE9F84F04460E4658
:1015600017461D460095B4F800C0B4F80480C44482
:101570001FFA8CF263881946208812F056FB0095FA
:10158000B4F802C0B4F80680C4441FFA8CF3228871
:101590006188104612F049FB0095B4F802C0B4F817
:1015A0000680C4441FFA8CF3B4F800C0B4F8048079
:1015B000C4441FFA8CF2B4F802C0B4F80680C444E4
:1015C0001FFA8CF1208812F030FB0095B4F802C0AD
:1015D000B4F80680C4441FFA8CF3B4F800C0B4F821
:1015E0000480C4441FFA8CF2B4F800C0C4441FFA4B
:1015F0008CF0618812F019FB304613F030FB400884
:10160000B4F8049009EBD971228802EB6101A1EBD7
:10161000C0001FFA80FA00200090B4F8068008EBA2
:10162000D870628802EB6000083881B23B463246CF
:10163000504612F0A9FBBDE8F88F00B589B04FF411
:10164000FC634FF6E072B049B048FFF785FF4FF4F6
:10165000FC634FF6E072AEA1AE48FFF77DFF4FF49A
:10166000FC634FF6E072ACA1AC48FFF775FF4FF496
:10167000FC634FF6E072AAA1AB48FFF76DFF4FF491
:10168000FC634FF6E072A9A1AA48FFF765FF4FF48B
:10169000FC634FF6E072A8A1AA48FFF75DFF4FF484
:1016A000FC634FF6E072A8A1A948FFF755FF782028
:1016B0000121A823C022CDE90010A6A103A813F0A0
:1016C000CFFF4FF4FC634FF6E07203A9A548FFF784
:1016D00043FF4FF4FC634FF6E072A3A1A348FFF76A
:1016E0003BFF4FF4FC634FF6E0729FA1A048FFF769
:1016F00033FF4FF4FC634FF6E0729BA19D48FFF768
:101700002BFF4FF4FC634FF6E07297A19A48FFF766
:1017100023FF4FF4FC634FF6E07298A19848FFF75F
:101720001BFF4FF4FC634FF6E07294A19548FFF75E
:1017300013FF4FF4FC634FF6E07290A19248FFF75D
:101740000BFF4FF4FC634FF6E0728CA18F48FFF75C
:1017500003FF09B000BD30B587B04FF4FC634FF60E
:10176000E07269496948FFF7F7FE4FF4FC634FF6F2
:10177000E07267A16748FFF7EFFE4FF4FC634FF696
:10178000E07265A16548FFF7E7FE4FF4FC634FF692
:10179000E0727FA18348FFF7DFFE83490968C869CB
:1017A00013F02EFD044622460B4680A101A813F03B
:1017B00057FF83480068007810F0010F23D07A4962
:1017C0000968C86913F01CFD044622460B4677A140
:1017D00001A813F045FF4FF4FC634FF6E07279A1C6
:1017E0007E48FFF7B9FE76480068007820F00100D7
:1017F0007349096808704FF4FC634FF6E07201A961
:101800007648FFF7A9FE4FF4FC634FF6E07274A12F
:101810007648FFF7A1FE64490968086A13F0F0FCF6
:10182000044622460B4672A101A813F019FF4FF49B
:10183000FC634FF6E07263A17048FFF78DFE4FF432
:10184000FC634FF6E07201A96C48FFF785FE07B014
:1018500030BD2DE9F0438BB04FF4FC634FF6E072DE
:1018600029492A48FFF778FE4FF4FC634FF6E072EF
:1018700027A12848FFF770FE4FF4FC634FF6E07293
:1018800025A12648FFF768FE4FF4FC634FF6E0728F
:101890005BA16048FFF760FE43490968886913F05F
:1018A000AFFC04460D4640490968486913F0A8FC9E
:1018B00006460F463C490968086913F0A1FC8046BA
:1018C00042460B4654A105A8CDE90067CDE9024583
:1018D00013F0C6FE4FF4FC634FF6E07205A95448BE
:1018E000FFF73AFE4FF4FC634FF6E07251A1554802
:1018F000FFF732FE4FF4FC634FF6E072A4E0000005
:10190000D2C1072020C207204CC2072024C00720D4
:101910002D3E00002EC007203C2D000038C00720BF
:10192000486F72617300000028C107204D696E7511
:10193000746F730032C10720536567756E646F73EF
:10194000000000003CC107204469617300000000F2
:1019500046C1072049503A25642E25642E25642E61
:101960002564000050C107202D0000005AC1072047
:1019700064C107206EC1072078C107202B0000003A
:1019800082C107208CC1072096C10720A0C1072073
:1019900056656C2E2064656C207669656E746F3AAE
:1019A00000000000AAC1072000000010252E3032E0
:1019B00066206D6574726F732F7365672E0000006B
:1019C0000C0000102020202020202020202020207B
:1019D000202020202020202020202000B4C107200B
:1019E000436C6172696461643A000000BEC1072003
:1019F000252E303266204C5558000000C8C1072003
:101A00004D4544494441532041435455414C45536D
:101A100000000000C4C00720583A252E303266204E
:101A2000593A252E303266205A3A252E3032660039
:101A3000CEC0072054656D70657261747572613A2D
:101A400000000000D8C00720F5A1F848FFF784FD8A
:101A50004FF4FC634FF6E072F5A1F848FFF77CFD08
:101A60004FF4FC634FF6E072F5A1F848FFF774FD00
:101A7000F7490968086813F0C3FB044622460B4681
:101A8000F4A105A813F0ECFD4FF4FC634FF6E072EF
:101A900005A9F348FFF760FDED490968886813F070
:101AA000AFFB044622460B46EEA105A813F0D8FD75
:101AB0004FF4FC634FF6E07205A9ED48FFF74CFDCB
:101AC000E3490968486813F09BFB044622460B462D
:101AD000E8A105A813F0C4FD4FF4FC634FF6E072D3
:101AE00005A9E748FFF738FDD9490968C86813F028
:101AF00087FB044622460B46E2A105A813F0B0FD81
:101B00004FF4FC634FF6E07205A9E148FFF724FDAE
:101B10000BB0BDE8F08310B54FF4FC634FF6E072F4
:101B2000DC49DD48FFF718FD4FF4FC634FF6E07227
:101B3000AFF22421D948FFF70FFD4FF4FC634FF6B5
:101B4000E072AFF22C21D648FFF706FD4FF4FC639C
:101B50004FF6E072D3A1D548FFF7FEFC4FF4FC63CB
:101B60004FF6E072D2A1D448FFF7F6FC4FF4FC63C5
:101B70004FF6E072D1A1D648FFF7EEFC4FF4FC63BC
:101B80004FF6E072D3A1D448FFF7E6FC4FF4FC63B4
:101B90004FF6E072D1A1D248FFF7DEFC4FF4FC63B0
:101BA0004FF6E072CFA1D048FFF7D6FC4FF4FC63AC
:101BB0004FF6E072CDA1CE48FFF7CEFC4FF4FC63A8
:101BC0004FF6E072CBA1CC48FFF7C6FC4FF4FC63A4
:101BD0004FF6E072C9A1CB48FFF7BEFC4FF4FC639F
:101BE0004FF6E072C8A1CA48FFF7B6FC4FF4FC6399
:101BF0004FF6E072C7A1C948FFF7AEFC4FF4FC6393
:101C00004FF6E072C6A1C848FFF7A6FC4FF4FC638C
:101C10004FF6E072C5A1C748FFF79EFC10BD10B596
:101C200000F0D7FB044644B1C34A2146C34800F044
:101C300086FD0120C249087002E00020C0490870FA
:101C400010BD1CB5FEF7D4FAFFF7E9FFBD480078D8
:101C5000D0B14FF0E020006910F4803F14D0002094
:101C600000907B4901900968086AB74B0022012166
:101C700012F04CFF0020009003460190B248027819
:101C800001210620FEF788FDB0480068007805288D
:101C90007DD2DFE800F00393ABC4C300FFF73BFF46
:101CA0007E48FFF731FC30B10120A849096808706F
:101CB000002010F070FB7A48FFF726FC30B10220BC
:101CC000A24909680870002010F065FB7A48FFF708
:101CD0001BFC30B103209D4909680870002010F0FA
:101CE0005AFB7D48FFF710FC50B100209549087061
:101CF000009003460122114601900620FEF74CFD9C
:101D00007748FFF701FC50B100208E490870009021
:101D100003461422012101900620FEF73DFD724882
:101D2000FFF7F2FB50B1002086490870009003468F
:101D30002822012101900620FEF72EFD6C48FFF7B6
:101D4000E3FB58B10020009003463C2201210190A2
:101D50000620FEF721FD00207A4908706648FFF74B
:101D6000D3FB10B10120774908706648FFF7CCFB20
:101D700080B1774800680078C0090BD074480068CB
:101D8000007820F0800072490968087000E051E195
:101D900000F077FF6748FFF7B7FB70B16C48006849
:101DA0000078C00909D06A480068007820F08000F7
:101DB000674909680870FEF772FA3CE1FFF749FDD0
:101DC0003648FFF7A1FB30B102206049096808706E
:101DD000002010F0E0FA3248FFF796FB28B100200F
:101DE0005A490968087010F0D6FA24E1FFF7B3FCED
:101DF0002A48FFF789FB28B1002054490968087078
:101E000010F0C9FA2648FFF77FFB30B101204F4997
:101E100009680870002010F0BEFA0CE109E199E0B1
:101E200048756D656461643A00000000E2C00720F7
:101E300050726573696F6E3A00000000ECC00720B5
:101E4000496E636964652055563A0000F6C0072064
:101E500000000010252E3032662064430000000090
:101E600000C10720252E3032662025250000000005
:101E70000AC10720252E303266205061732E0000E3
:101E800014C10720252E30326620555673000000FD
:101E90001EC107204CC2072024C007202EC00720E7
:101EA00038C00720496E666F2E00000042C0072030
:101EB000416A7573746573004CC007204E6976657E
:101EC0006C206465206272696C6C6F3A00000000DF
:101ED00056C007203100000060C00720320000001B
:101EE0006AC007203300000074C0072034000000DF
:101EF0007EC007204100000088C00720506C617937
:101F00000000000092C00720566F6C2E31000000C8
:101F10009CC00720566F6C2E32000000A6C0072020
:101F2000566F6C2E33000000B0C007204C6F616408
:101F300000000000BAC00720D8C1072020C2072037
:101F4000D2C1072018C00720D3C107200400001009
:101F50000C000010FFF771FB3B48FFF7D5FA28B1E2
:101F600000203A490968087010F015FA3848FFF760
:101F7000CBFA28B1002035490968087010F00BFA37
:101F80003448FFF7C1FA30B133480078A0F10100BE
:101F9000324981F828003248FFF7B6FA30B13148AB
:101FA0000078A0F101002D4981F824002E48FFF7A8
:101FB000ABFA30B12D480078A0F10100274981F833
:101FC00020002B48FFF7A0FA30B12A480078A0F192
:101FD0000100224981F82C002748FFF795FA30B11B
:101FE0001D48007800F101001C4981F828002348B1
:101FF000FFF78AFA30B11B48007800F10100174959
:1020000081F824001E48FFF77FFA30B117480078A6
:1020100000F10100114981F820001A48FFF774FA15
:1020200030B11448007800F101000C4981F82C000F
:1020300001E000E000BF00BF1CBD10B500F024F8B7
:1020400000F071FE10BD00002EC00720040000103B
:1020500038C007205AC107202840024000400240F3
:1020600064C10720244002406EC107202040024086
:1020700078C107202C40024082C107208CC1072074
:1020800096C10720A0C1072000B589B002208DF8B5
:102090001E0000208DF820008DF81F008DF81C0018
:1020A00007208DF81D0007A812F060FA08208DF8AF
:1020B0001D0007A812F05AFA09208DF81D0007A884
:1020C00012F054FA00208DF81E008DF81C00062036
:1020D0008DF81D0007A812F049FA00208DF81E00A7
:1020E00002208DF81C000D208DF81D0007A812F0AD
:1020F0003DFA00224FF40051022012F099FA4FF4F9
:102100000051022012F0A8FA01224021002012F012
:102110008FFA4021002012F09FFA01A811F000FF71
:10212000FE48069001A9FE4811F099FE0121FC48E5
:1021300011F001FF09B000BD70B50446FEF758F874
:10214000002507E00C2000BF0100A0F10102D0B281
:10215000FAD16D1CA542F5D370BD10B5044600BF81
:102160001021EF4812F0A0F80128F9D02146EC48E0
:1021700011F049FF00BF0421E94812F095F800284A
:10218000F9D0E74811F051FFC0B210BD70B5002082
:10219000FFF7E3FF05464FF6FF7000EA0524012034
:1021A000FFF7CAFF0020FFF7D8FF05462C43E410D5
:1021B000C4F30B04204670BD10B54020D949C86156
:1021C0000120FFF7B9FF9020FFF7C7FF0120FFF7BD
:1021D000B3FFFFF7DBFF04464020D2498861204669
:1021E00010BD10B54020CF49C8610120FFF7A4FF02
:1021F000D020FFF7B2FF0120FFF79EFFFFF7C6FFD9
:1022000004464020C7498861204610BD2DE9F041B1
:1022100004460D46FFF7D0FF06460120FFF78CFF6E
:10222000FFF7DFFF074626602F60BDE8F08170B53D
:1022300004460D464FF478422946204611F069FACB
:10224000611C88B24FF47842294611F062FA681C8A
:1022500081B24FF47842204611F05BFA6A1C91B2C9
:10226000621C90B24FF4784211F053FA70BDF8B589
:1022700004460D464FF6FF70A11E8AB20D3900903C
:1022800088B22B46294611F0D0FC4FF6FF7004F1BE
:102290000F018AB2A11C009088B22B46294611F08A
:1022A000C4FC4FF6FF700090A81E83B20D3881B2B7
:1022B0002246204611F0B9FC4FF6FF70009005F160
:1022C0000F0083B2A81C81B22246204611F0ADFC5B
:1022D0004BF6F04005F10F06B3B2E61FB2B205F1BE
:1022E0000F06B1B2A4F10F060090B0B211F09DFC40
:1022F0004BF6F04005F10F06B3B2A4F10F06B2B2EF
:10230000EE1DB1B2A4F10F060090B0B211F08DFC39
:102310004BF6F040A5F10F06B3B2E61FB2B2A5F13D
:102320000F06B1B2A4F10F060090B0B211F07DFC1F
:102330004BF6F040A5F10F06B3B2A4F10F06B2B20E
:10234000EE1FB1B2A4F10F060090B0B211F06DFC17
:102350004BF6F04005F10F06B3B204F10F06B2B22E
:1023600005F10F06B1B2E61D0090B0B211F05DFCB0
:102370004BF6F04005F10F06B3B204F10F06B2B20E
:10238000EE1DB1B204F10F060090B0B211F04DFC99
:102390004BF6F040A5F10F06B3B204F10F06B2B24E
:1023A000A5F10F06B1B2E61D0090B0B211F03DFCF0
:1023B0004BF6F040EE1FB3B204F10F06B2B2A5F136
:1023C0000F06B1B204F10F060090B0B211F02DFC6F
:1023D000F8BDF0B597B000274821684612F034FCEC
:1023E00000BF15A916A8FFF711FF16984DF8270092
:1023F00009A8159940F82710781CC7B24948406DC4
:1024000010F4005F01D1092FEBDB092F7ED1DDE94C
:102410000001084402990844032190FBF1F0129056
:10242000DDE90301084405990844032190FBF1F01C
:102430001390DDE90601084408990844032190FB44
:10244000F1F01490DDE91201441ADDE91301451A97
:1024500012991498461A002C01DD204600E06042D3
:102460000446002D01DD284600E068420546002EA6
:1024700001DD304600E070420646502C06DD502D4E
:1024800004DD502E02DD002017B0F0BDAC4215DA9D
:10249000A64209DA149A1299881800EBD071C1F398
:1024A0004F01214A11801EE0DDE91212881800EB6D
:1024B000D071C1F34F011C4A118014E0AE4209DA19
:1024C000149A1299881800EBD071C1F34F01164A83
:1024D000118008E0DDE91312881800EBD071C1F318
:1024E0004F01114A1180DDE9091001440B9808449D
:1024F000032190FBF1F01290DDE90C1001440E98DD
:102500000844032190FBF1F0139000E063E0DDE963
:102510000F10014411980844032107E020A107008F
:102520000000034000C009201CC2072090FBF1F00E
:102530001490DDE91201441ADDE91301451A1299DC
:102540001498461A002C01DD204600E06042044643
:10255000002D01DD284600E068420546002E01DD21
:10256000304600E070420646502C05DD502D03DD5C
:10257000502E01DD002087E7AC4215DAA64209DAC9
:10258000149A1299881800EBD071C1F34F01C24A16
:1025900051801EE0DDE91212881800EBD071C1F302
:1025A0004F01BD4A518014E0AE4209DA149A1299E3
:1025B000881800EBD071C1F34F01B74A518008E091
:1025C000DDE91312881800EBD071C1F34F01B24A54
:1025D0005180B14858E7002056E72DE9F0470546FD
:1025E0000C4616464FF0000921882289891AE38893
:1025F00062899A1A5143A2882389D31A678862890B
:10260000BA1A03FB121012F0B0FDC6E90C01002249
:102610001346D6E90C71384612F006FE02D14FF08F
:10262000010989E029882A89891AE38862899A1A26
:102630005143AA882B89D31A67886289BA1A03FB87
:10264000121012F092FDC6E9000121882289891A30
:10265000AA882B89D21A51432A88D21AA38827899B
:10266000DB1B02FB131012F080FDC6E90201218979
:10267000AA885143A2882B8902FB13116288514317
:1026800022885A4323892F8803FB1723E28803FB00
:102690000212A18879432388AF8803FB171361894D
:1026A00003FB012012F061FDC6E904016A88698913
:1026B000511AE38862899A1A5143EB886A899B1AF6
:1026C00067886289BA1A03FB121012F04EFDC6E940
:1026D000060121882289891AEB886A899A1A51434E
:1026E0006B886A899A1AA3882789DB1B02FB13105F
:1026F00012F03BFDC6E908012189EA885143A3880D
:102700006A8903FB12116288514322886B895A43FC
:1027100023896F8803FB1723E28803FB0213A18838
:1027200079432788EA8807FB1212618902FB01308E
:1027300012F01BFDC6E90A014846BDE8F0872DE905
:10274000F04F8BB08246894614464FF0000B0022B2
:102750001346D4E90C51284612F066FD60D0B9F852
:10276000020012F013FD0546D4E902733A4612F056
:102770000DFCCDE90201B9F8000012F007FD074693
:10278000D4E900532A4612F001FCCDE90001DDE94D
:10279000022312F054FBCDE90401D4E904532A4684
:1027A00012F04DFBCDE90601D4E90C532A4612F094
:1027B0005FFCCDE9080112F00AFDAAF80000B9F8A3
:1027C000020012F0E3FC0746D4E908532A4612F04F
:1027D000DDFBCDE90201B9F8000012F0D7FC074695
:1027E000D4E906532A4612F0D1FBCDE90001DDE918
:1027F000022312F024FBCDE90401D4E90A532A464E
:1028000012F01DFBCDE90601D4E90C532A4612F063
:102810002FFCCDE9080112F0DAFCAAF8020001E071
:102820004FF0010B58460BB0BDE8F08F38B50024CF
:1028300027E000200FF0AFFD00204FF6FF7317A236
:102840000A210090084611F09FFA1C48FFF774FC1B
:102850001B4A02EB84025188194A32F82400FFF720
:1028600006FD00BFFFF7B5FD0546002DFAD028880C
:10287000144921F82400688801EB84014880601C19
:10288000C4B2032CD5DB104A0E490D48FFF7A5FE54
:1028900000200FF080FD38BD1CC20720546F756307
:1028A000682063726F73736861697220746F20634C
:1028B000616C6962726174650000000020A107000C
:1028C00010C207206C5E0010D8C107205148C06CB0
:1028D0005049C8640846C06CC8640846C06820F007
:1028E0003000C8600846C06840F03000C860002072
:1028F00049490867052088624848006840F004009C
:102900004749C1F8C4004FF000004349C860084679
:10291000406840F0020048600846406820F002002D
:1029200048600846406840F0010048603948C06887
:1029300040F030003749C8604FF002004FF001010D
:1029400001FA00F14FEA50124FF0E02303EB82024C
:10295000C2F8001100BF704770B5002400E0641C8D
:1029600047F230508442FADB10202B4908602D4892
:102970000078401C2B49087008460078042845DB85
:1029800029480068284948602348C06A0860002038
:102990002449087024490968234A5268881A12F0A9
:1029A000DFFB0646214912F0D4F9054629462048A6
:1029B00012F005FA1F4908601F480078401C1E49A4
:1029C00008700846007804281DD101201249886249
:1029D0000020194908701748006818490968C8613B
:1029E00017480068007820F00200801C144909682C
:1029F000087013480068007820F00100401C10495E
:102A00000968087002E00520034988621020024925
:102A1000086070BD00C0024000800040C4C00F408C
:102A200000C00F4024C2072028C2072000007A44BB
:102A3000D313834E30C2072025C2072000000010A8
:102A40000C0000105248006840F480505149C1F811
:102A5000C4005148406840F480304F4948600846FF
:102A6000406C20F4403048644C4800684C4940EACF
:102A700001004A4908600846C06840F00200C8608A
:102A800048480068007820F0080000F10800454937
:102A9000096808704148C06820F480703F49C860E8
:102AA0004FF016004FF0010101FA00F14FEA501209
:102AB0004FF0E02303EB8202C2F8001100BF704721
:102AC0002DE9FC5F3548006820F480303349086008
:102AD0004969C1F30B1012F043FB334908603349D5
:102AE0003148006812F06BF92F4908600846006809
:102AF00012F086FB064600222D4B12F041FA0446E6
:102B00000D462948006812F07BFB06460022284B40
:102B100012F03CFA804622462B4612F0A9FA824671
:102B200012F096FB204908600020009003460190B7
:102B300020480268203200211B48006811F0E6FF9F
:102B400016498969C1F30B1012F00AFB1A49086093
:102B50000846006812F054FB80460022174B12F022
:102B600015FA06460022164B12F082FA044612F0BD
:102B70006FFB10490968C8600A480068007820F0B7
:102B800008000830074909680870BDE8FC9F00008C
:102B9000C4C00F4000C00F4000C0024000400340CE
:102BA000020021000C00001034C2072000F07F4515
:102BB0000000F03F0000001038C2072000804040B5
:102BC00000FEAF400848406840F480200649486055
:102BD0000846406C20F4402048640448006840F0F7
:102BE000040002490860704700C0024000400340F2
:102BF00010B52A48006840F480002949C1F8C40093
:102C00002848406840F00070264948604FF00100B5
:102C1000254948610846406840F00100486040F698
:102C2000220088614FF003004FF00001002807DA0E
:102C3000CA06140E1D4A00F00F031B1FD45403E0F4
:102C4000CA06130E1A4A135400BF1A4800680078C7
:102C500020F08000803017490968087010BD0841D5
:102C6000154A12684FF6C0739A43134B1A601A46FE
:102C700012684FF4803343EA80131A430E4B1A60F4
:102C8000704703200121814042094FF0E02303EB0C
:102C90008202C2F8001100BF70470000C4C00F409C
:102CA00000C00F4000C002400000094018ED00E0E5
:102CB00000E400E00C00001000C0084070B50546BC
:102CC0000C46A4F12000044A02EB00111022284611
:102CD00011F0A1FF70BD0000109F0100FE48006CC4
:102CE00040F0FF00FC4908640846006840F4FF001B
:102CF00008600846006A40F0605008620846006CB0
:102D000040F4807008647047002109E0002201E06F
:102D1000531C9AB240F275439A42F9DB4B1C99B2AC
:102D20008142F3DB704700B587B0FFF7D7FF64201F
:102D3000FFF7EAFF00200590059803904FF480709C
:102D4000E549C865C004C8638000886303980290A1
:102D5000029801900198496D60F30701DE484165D2
:102D6000406920F4FF024FF4FF01019801EAC0100E
:102D70000243D948426100BF4FF08050D649C86332
:102D800000BF4FF08050D44988630015886500BFAC
:102D900000BFC865C0048863400088634000C86302
:102DA00000BF0846006C20F0FF0008640846006879
:102DB00020F4FF0008600846406DC1B20291C64889
:102DC000406900F4FF010191DDE9010141EAD01100
:102DD0000291C148006C40F0FF00BF4908640846FA
:102DE000006840F4FF01BC480160029803904FF076
:102DF0000050B94988634115B7488165039804902C
:102E0000049806900698A0F51341253905D0069838
:102E1000A0F51341283942F0A7820120AF4908707C
:102E2000B1200490A5200590049803904FF4807081
:102E3000A949C865C004C8638100A7488163039895
:102E4000029002980190A4490198496D60F307012E
:102E5000A1484165406920F4FF014FF4FF02019849
:102E600002EAC01001439C48416100BF4FF080510D
:102E7000C16300BF4FF08051974881634015964968
:102E8000886500BF059803904815C865C00488632D
:102E900003980290029801900198496D60F3070130
:102EA0008D484165406920F4FF024FF4FF0101980D
:102EB00001EAC01002438848426100BF4FF08050D1
:102EC0008549C86300BF4FF080508349886301156E
:102ED0008148816500BF00BFB1200590059803902F
:102EE00008467D49C865C004C863800088630398AC
:102EF0000290029801900198496D60F307017648AD
:102F00004165406920F4FF024FF4FF01019801EA96
:102F1000C01002437048426100BF4FF080506E49BC
:102F2000C86300BF4FF080516B48816341158165D4
:102F300000BF00BF40156849C865C1046648816389
:102F40004800654988634000C86300BF0846006CBC
:102F500020F0FF0008640846006820F4FF000860C5
:102F60000846406DC0B202900846406900F4FF0078
:102F70000190DDE9011040EAD11002905648006C42
:102F800040F0FF00544908640846006840F4FF0020
:102F90000860029803904FF00050886340158865E0
:102FA00003980490049806900698A5285ED1032003
:102FB0004A490870B12004900020059004980390BD
:102FC0004FF480704449C865C004C86380008863BA
:102FD00003980290029801900198496D60F30701EF
:102FE0003D484165406920F4FF024FF4FF0101981C
:102FF00001EAC01002433848426100BF4FF08050E0
:103000003549C86300BF4FF0805133488163401594
:103010003149886500BF059803904815C865C0040C
:10302000886303980290029801900198496D60F3BB
:10303000070129484165406920F4FF014FF4FF0270
:10304000019802EAC01001432348416100BF4FF0DC
:1030500080502149C86300BF4FF080501E498863EB
:1030600001151D48816500BF00BF02E002201B4919
:103070000870E520049047F6F0000590049803904E
:103080004FF480701449C865C1041348C1638800B7
:103090001149886303980290029801900198496D44
:1030A00060F307010C484165406920F4FF024FF4CA
:1030B000FF01019801EAC01002430748426100BFC6
:1030C0004FF080500449C86300BF4FF08050024960
:1030D00088630015886503E000C009203F000010E8
:1030E00000BF059803904815C865C004886303981D
:1030F0000290029801900198496D60F30701FE4823
:103100004165406920F4FF024FF4FF01019801EA94
:10311000C0100243F848426100BF4FF08050F649AA
:10312000C86300BF4FF08050F3498863001588657D
:1031300000BF00BF01200490000205900498039096
:103140004815C865C004C86380008863039802906E
:10315000029801900198496D60F30701E6484165C6
:10316000406920F4FF024FF4FF01019801EAC0100A
:103170000243E148426100BF4FF08050DE49C8631E
:1031800000BF4FF08050DC4988630015886500BFA0
:10319000059803904815C865C00488630398029099
:1031A000029801900198496D60F30701D24841658A
:1031B000406920F4FF024FF4FF01019801EAC010BA
:1031C0000243CD48426100BF4FF08050CA49C863F6
:1031D00000BF4FF08050C84988630015886500BF64
:1031E00000BF022004904FF4E06005900498039023
:1031F0004815C865C004C8638000886303980290BE
:10320000029801900198496D60F30701BA48416541
:10321000406920F4FF014FF4FF02019802EAC01058
:103220000143B548416100BF4FF08050B249C863C7
:1032300000BF4FF08050B04988630115AE488165EA
:1032400000BF059803900846AB49C865C004886371
:1032500003980290029801900198496D60F307016C
:10326000A5484165406920F4FF024FF4FF01019831
:1032700001EAC0100243A048426100BF4FF08050F5
:103280009D49C86300BF4FF080519B488163401542
:103290009949886500BF00BF0320049041F23000C7
:1032A0000590049803904815C865C004C863800061
:1032B000886303980290029801900198496D60F329
:1032C00007018D484165406920F4FF014FF4FF027A
:1032D000019802EAC01001438748416100BF4FF0E6
:1032E00080508549C86300BF4FF080508249886391
:1032F00001158148816500BF0598039008467E4905
:10330000C865C004886303980290029801900198F0
:10331000496D60F3070178484165406920F4FF0179
:103320004FF4FF02019802EAC01001437248416164
:1033300000BF4FF080507049C86300BF4FF080500D
:103340006D4988630015886500BF00BF04200490A4
:1033500000200590049803904815C865C004C86310
:103360008000886303980290029801900198496D4B
:1033700060F3070160484165406920F4FF024FF4A3
:10338000FF01019801EAC01002435B48426100BF9F
:103390004FF080505849C86300BF4FF080505649E5
:1033A00088630015886500BF059803904815C865B7
:1033B000C004886303980290029801900198496DB7
:1033C00060F307014C484165406920F4FF024FF467
:1033D000FF01019801EAC01002434748426100BF63
:1033E0004FF080504449C86300BF4FF080514248BD
:1033F000816340154049886500BF00BF08200490E4
:1034000040F207200590049803904815C865C00451
:10341000C863800088630398029002980190019825
:10342000496D60F3070134484165406920F4FF02AB
:103430004FF4FF01019801EAC01002432E48426197
:1034400000BF4FF080502C49C86300BF4FF0805040
:103450002949886301152848816500BF05980390B4
:1034600008462549C865C0048863039802900298FD
:1034700001900198496D60F307011F48416540695B
:1034800020F4FF024FF4FF01019801EAC01002434B
:103490001948426100BF4FF08051C16300BF4FF037
:1034A00080511548816340151349886500BF00BFEE
:1034B00009200490002005900498039049150E48B7
:1034C000C165C8040C49C8638000886303980290F2
:1034D000029801900198496D60F307010648416523
:1034E000406920F4FF024FF4FF01019801EAC01087
:1034F00002430148426101E000C0092000BF4FF0D3
:103500008050FE49C86300BF4FF08050FB4988637C
:103510000015886500BF059803904815C865C0046C
:10352000886303980290029801900198496D60F3B6
:103530000701F2484165406920F4FF024FF4FF01A2
:10354000019801EAC0100243EC48426100BF4FF00D
:103550008050EA49C86300BF4FF08050E749886354
:103560000015886500BF00BF0A2004900020059068
:10357000049803904815C865C004C8638000886338
:1035800003980290029801900198496D60F3070139
:10359000DA484165406920F4FF024FF4FF010198C9
:1035A00001EAC0100243D548426100BF4FF080518C
:1035B000C16300BF4FF08050D04988630015886513
:1035C00000BF059803904815C865C0048863039838
:1035D0000290029801900198496D60F30701C74875
:1035E0004165406920F4FF014FF4FF02019802EAAF
:1035F000C0100143C148416100BF4FF08050BF4936
:10360000C86300BF4FF08051BC4881634015BB497F
:10361000886500BF00BF0C2004900020059004982E
:1036200003904815C865C004C86380008863039888
:103630000290029801900198496D60F30701AF482C
:103640004165406920F4FF024FF4FF01019801EA4F
:10365000C0100243A948426100BF4FF08051C163CE
:1036600000BF4FF08050A54988630115A3488165CC
:1036700000BF059803900846A049C865C004886348
:1036800003980290029801900198496D60F3070138
:103690009A484165406920F4FF024FF4FF01019808
:1036A00001EAC01002439548426100BF4FF08050CC
:1036B0009249C86300BF4FF0805190488163401524
:1036C0008E49886500BF00BF0D2004900020059042
:1036D000049803904815C865C004C86380008863D7
:1036E00003980290029801900198496D60F30701D8
:1036F00082484165406920F4FF024FF4FF010198C0
:1037000001EAC01002437D48426100BF4FF0805083
:103710007A49C86300BF4FF080507849886300152C
:10372000886500BF059803904815C865C004886384
:1037300003980290029801900198496D60F3070187
:103740006E484165406920F4FF024FF4FF01019883
:1037500001EAC01002436948426100BF4FF0805047
:103760006649C86300BF4FF0805064498863001504
:10377000886500BF00BF0F200490002005900498CA
:1037800003904815C865C004C86380008863039827
:103790000290029801900198496D60F30701574823
:1037A0004165406920F4FF024FF4FF01019801EAEE
:1037B000C01002435148426100BF4FF080504F4952
:1037C000C86300BF4FF080504C498863001588657E
:1037D00000BF059803904815C865C0048863039826
:1037E0000290029801900198496D60F307014348E7
:1037F0004165406920F4FF024FF4FF01019801EA9E
:10380000C01002433D48426100BF4FF080503B4929
:10381000C86300BF4FF08050384988630015886541
:1038200000BF00BF10200490002005900498039072
:103830004815C865C004C863810030488163039897
:103840000290029801902D490198496D60F307019B
:103850002A484165406920F4FF014FF4FF020198B6
:1038600002EAC01001432548416100BF4FF080507B
:103870002249C86300BF4FF080502049886300157B
:10388000886500BF059803904815C865C004886323
:1038900003980290029801900198496D60F3070126
:1038A00016484165406920F4FF014FF4FF0201987A
:1038B00002EAC01001431148416100BF4FF080503F
:1038C0000E49C86300BF4FF080500C498863001553
:1038D000886500BF00BF1120049007200590049860
:1038E00003904815C865C004C8638100034881631C
:1038F0000398029002980190004901E000C009205D
:103900000198496D60F30701FE484165406920F464
:10391000FF024FF4FF01019801EAC0100243F94889
:10392000426100BF4FF08050F649C86300BF4FF0BE
:103930008050F44988630015886500BF059803909E
:103940004815C865C00488630398029002980190E6
:103950000198496D60F30701EA484165406920F428
:10396000FF024FF4FF01019801EAC0100243E5484D
:10397000426100BF4FF08050E249C86300BF4FF082
:103980008050E04988630015886500BF00BF1220A1
:10399000049000200590049803904815C865C00461
:1039A000C863800088630398029002980190019890
:1039B000496D60F30701D3484165406920F4FF0178
:1039C0004FF4FF02019802EAC0100143CD48416163
:1039D00000BF4FF08050CB49C86300BF4FF080500C
:1039E000C84988630115C748816500BF05980390E1
:1039F0000846C449C865C0048863039802900298C9
:103A000001900198496D60F30701BE484165406926
:103A100020F4FF024FF4FF01019801EAC0100243B5
:103A2000B848426100BF4FF08050B649C86300BF3C
:103A30004FF08050B34988630015886500BF00BF10
:103A40001320049000200590049803904815C86541
:103A5000C004C863800088630398029002980190B4
:103A60000198496D60F30701A6484165406920F45B
:103A7000FF014FF4FF02019802EAC0100143A14880
:103A8000416100BF4FF080509E49C86300BF4FF0B6
:103A900080509C4988630015886500BF0598039095
:103AA0004815C865C0048863039802900298019085
:103AB0000198496D60F3070192484165406920F41F
:103AC000FF024FF4FF01019801EAC01002438D4844
:103AD000426100BF4FF080508A49C86300BF4FF079
:103AE0008050884988630015886500BF00BF0720A3
:103AF000049001200590049803904815C865C004FF
:103B0000C86380008863039802900298019001982E
:103B1000496D60F307017B484165406920F4FF016E
:103B20004FF4FF02019802EAC01001437548416159
:103B300000BF4FF080507349C86300BF4FF0805002
:103B4000704988630015886500BF05980390481583
:103B5000C865C00488630398029002980190019898
:103B6000496D60F3070167484165406920F4FF0132
:103B70004FF4FF02019802EAC0100143614841611D
:103B800000BF4FF080505F49C86300BF4FF08050C6
:103B90005C4988630015886500BF00BFC820FFF737
:103BA000B3F81020049041F290000590049803901F
:103BB0004FF480705349C865C004C86380008863AF
:103BC00003980290029801900198496D60F30701F3
:103BD0004C484165406920F4FF014FF4FF02019811
:103BE00002EAC01001434748416100BF4FF08050D6
:103BF0004449C86300BF4FF08050424988630115B3
:103C00004048816500BF0598039008463D49C86556
:103C1000C1043C488163039802900298019039499D
:103C20000198496D60F3070136484165406920F409
:103C3000FF024FF4FF01019801EAC010024331482E
:103C4000426100BF4FF080502E49C86300BF4FF063
:103C500080502C4988630015886500BF00BF112083
:103C6000049040F227200590049803904815C865F9
:103C7000C004C86380008863039802900298019092
:103C80000198496D60F307011E484165406920F4C1
:103C9000FF014FF4FF02019802EAC01001431948E6
:103CA000416100BF4FF080501649C86300BF4FF01C
:103CB00080501449886301151248816500BF05983A
:103CC000039008460F49C865C004886303980290B2
:103CD000029801900198496D60F307010948416518
:103CE000406920F4FF024FF4FF01019801EAC0107F
:103CF00002430448426100BF4FF080500149C8634D
:103D000000BF01E000C009204FF08050FE498863E9
:103D10000015886500BF00BF3220FEF7F5FF1220B6
:103D200004901F200590049803904FF48070F6498A
:103D3000C865C004C8638000886303980290029835
:103D400001900198496D60F30701EF4841654069B2
:103D500020F4FF014FF4FF02019802EAC010014372
:103D6000E948416100BF4FF08051C16300BF4FF08F
:103D70008050E54988630115E348816500BF0598D7
:103D800003900846E049C865C00488630398029020
:103D9000029801900198496D60F30701DA48416586
:103DA000406920F4FF024FF4FF01019801EAC010BE
:103DB0000243D548426100BF4FF08050D249C863EA
:103DC00000BF4FF08050D04988630015886500BF60
:103DD00000BF3220FEF798FF132004904FF4A85044
:103DE0000590049803904FF48070C749C865C004DB
:103DF000C86380008863039802900298019001983C
:103E0000496D60F30701C0484165406920F4FF0235
:103E10004FF4FF01019801EAC0100243BA48426121
:103E200000BF4FF08050B849C86300BF4FF08050CA
:103E3000B54988630015886500BF0598039048154B
:103E4000C865C004886303980290029801900198A5
:103E5000496D60F30701AC484165406920F4FF01FA
:103E60004FF4FF02019802EAC0100143A6484161E5
:103E700000BF4FF08050A449C86300BF4FF080518D
:103E8000A14881634015A049886500BF00BF292073
:103E9000049027200590049803904815C865C00435
:103EA000C86380008863039802900298019001988B
:103EB000496D60F3070194484165406920F4FF01B2
:103EC0004FF4FF02019802EAC01001438E4841619D
:103ED00000BF4FF080508C49C86300BF4FF0805046
:103EE000894988630015886500BF059803904815C7
:103EF000C865C004886303980290029801900198F5
:103F0000496D60F3070180484165406920F4FF0274
:103F10004FF4FF01019801EAC01002437A48426160
:103F200000BF4FF080507849C86300BF4FF0805009
:103F3000754988630015886500BF00BF2B20049079
:103F40000D200590049803904815C865C004C86307
:103F50008000886303980290029801900198496D4F
:103F600060F3070168484165406920F4FF024FF49F
:103F7000FF01019801EAC01002436348426100BF9B
:103F80004FF080506049C86300BF4FF080505E49D9
:103F900088630015886500BF059803904815C865BB
:103FA000C004886303980290029801900198496DBB
:103FB00060F3070154484165406920F4FF024FF463
:103FC000FF01019801EAC01002434F48426100BF5F
:103FD0004FF080504C49C86300BF4FF080504A49B1
:103FE00088630015886500BF00BF3220FEF78CFE95
:103FF0002020049000200590049803904FF48070D6
:104000004149C865C004C863800088630398029072
:10401000029801900198496D60F307013A484165A3
:10402000406920F4FF014FF4FF02019802EAC0103A
:1040300001433548416100BF4FF080503249C863A9
:1040400000BF4FF080513048816340152E4988658C
:1040500000BF059803904815C865C1042A488163CC
:10406000039802900298019027490198496D60F3E6
:10407000070125484165406920F4FF024FF4FF0124
:10408000019801EAC01002431F48426100BF4FF08F
:1040900080501D49C86300BF4FF080501A498863A3
:1040A0000015886500BF00BF212004900020059006
:1040B000049803904815C865C004C86380008863ED
:1040C00003980290029801900198496D60F30701EE
:1040D0000D484165406920F4FF014FF4FF0201984B
:1040E00002EAC01001430848416100BF4FF0805010
:1040F0000549C86300BF4FF080500349886300152D
:10410000886500BF059801E000C0092003904815AC
:10411000C865C004886303980290029801900198D2
:10412000496D60F30701FE484165406920F4FF01D5
:104130004FF4FF02019802EAC0100143F8484161C0
:1041400000BF4FF08050F649C86300BF4FF0805069
:10415000F34988630015886500BF00BF30200490D4
:1041600000200590049803904815C865C004C863F2
:104170008000886303980290029801900198496D2D
:1041800060F30701E6484165406920F4FF014FF400
:10419000FF02019802EAC0100143E148416100BFFB
:1041A0004FF08050DE49C86300BF4FF08050DC49BB
:1041B00088630015886500BF059803904815C86599
:1041C000C004886303980290029801900198496D99
:1041D00060F30701D2484165406920F4FF024FF4C3
:1041E000FF01019801EAC0100243CD48426100BFBF
:1041F0004FF08050CA49C86300BF4FF08050C84993
:1042000088630015886500BF00BF3120049040F22C
:1042100007700590049803904815C865C004C863EA
:104220008000886303980290029801900198496D7C
:1042300060F30701BA484165406920F4FF014FF47B
:10424000FF02019802EAC0100143B548416100BF76
:104250004FF08050B249C86300BF4FF08050B04962
:1042600088630015886500BF059803904815C865E8
:10427000C004886303980290029801900198496DE8
:1042800060F30701A6484165406920F4FF024FF43E
:10429000FF01019801EAC0100243A148426100BF3A
:1042A0004FF080509E49C86300BF4FF080509C493A
:1042B00088630015886500BF00BF3220049040F27B
:1042C00007300590049803904815C865C004C8637A
:1042D0008000886303980290029801900198496DCC
:1042E00060F307018E484165406920F4FF024FF4F6
:1042F000FF01019801EAC01002438948426100BFF2
:104300004FF080508649C86300BF4FF08050844909
:1043100088630015886500BF059803904815C86537
:10432000C004886303980290029801900198496D37
:1043300060F307017A484165406920F4FF024FF4B9
:10434000FF01019801EAC01002437548426100BFB5
:104350004FF080507249C86300BF4FF080507049E1
:1043600088630015886500BF00BF352004900815DC
:104370000590049803904815C865C004C86381007F
:1043800067488163039802900298019064490198FC
:10439000496D60F3070162484165406920F4FF02FE
:1043A0004FF4FF01019801EAC01002435C484261EA
:1043B00000BF4FF080505A49C86300BF4FF0805093
:1043C000574988630015886500BF05980390481514
:1043D000C865C00488630398029002980190019810
:1043E000496D60F307014E484165406920F4FF01C3
:1043F0004FF4FF02019802EAC010014348484161AE
:1044000000BF4FF080504649C86300BF4FF0805056
:10441000434988630015886500BF00BF36200490BB
:1044200008200590049803904815C865C004C86327
:104430008000886303980290029801900198496D6A
:1044400060F3070136484165406920F4FF014FF4ED
:10445000FF02019802EAC01001433148416100BFE8
:104460004FF080502E49C86300BF4FF080502C4958
:1044700088630015886500BF059803904815C865D6
:10448000C004886303980290029801900198496DD6
:1044900060F3070122484165406920F4FF024FF4B0
:1044A000FF01019801EAC01002431D48426100BFAC
:1044B0004FF080501A49C86300BF4FF08051184830
:1044C000816340151649886500BF00BF37200490FE
:1044D00004200590049803904815C865C10410484D
:1044E000C16388000E498863039802900298019086
:1044F0000198496D60F3070109484165406920F45E
:10450000FF014FF4FF02019802EAC0100143044882
:10451000416100BF4FF08051C16300BF02E0000065
:1045200000C009204FF08051FE4881634015FD49CD
:10453000886500BF059803904815C865C004886366
:1045400003980290029801900198496D60F3070169
:10455000F4484165406920F4FF024FF4FF010198DF
:1045600001EAC0100243EF48426100BF4FF08050A3
:10457000EC49C86300BF4FF08050EA4988630015DA
:10458000886500BF00BF3820049000200590049883
:1045900003904815C865C004C86380008863039809
:1045A0000290029801900198496D60F30701DD487F
:1045B0004165406920F4FF014FF4FF02019802EACF
:1045C000C0100143D748416100BF4FF08050D5492A
:1045D000C86300BF4FF08050D249886300158865DA
:1045E00000BF059803904815C865C0048863039808
:1045F0000290029801900198496D60F30701C94843
:104600004165406920F4FF024FF4FF01019801EA7F
:10461000C0100243C348426100BF4FF08050C149FF
:10462000C86300BF4FF08050BE498863001588659D
:1046300000BF00BF3920049040F207700590049835
:1046400003904815C865C004C86380008863039858
:104650000290029801900198496D60F30701B148FA
:104660004165406920F4FF024FF4FF01019801EA1F
:10467000C0100243AB48426100BF4FF08050A949CF
:10468000C86300BF4FF08050A64988630015886555
:1046900000BF059803904815C865C0048863039857
:1046A0000290029801900198496D60F307019D48BE
:1046B0004165406920F4FF014FF4FF02019802EACE
:1046C000C01001439748416100BF4FF08051C16362
:1046D00000BF4FF08050934988630015886500BF84
:1046E00000BF3C20049002200590049803904815D8
:1046F000C865C004C86381008A488163039802903A
:104700000298019087490198496D60F30701854837
:104710004165406920F4FF014FF4FF02019802EA6D
:10472000C01001437F48416100BF4FF080507D4978
:10473000C86300BF4FF080507A49886300158865D0
:1047400000BF059803904815C865C00488630398A6
:104750000290029801900198496D60F30701714839
:104760004165406920F4FF024FF4FF01019801EA1E
:10477000C01002436B48426100BF4FF0805069494E
:10478000C86300BF4FF0805166488163401565499A
:10479000886500BF00BF3D20049041F6045005909D
:1047A000049803904815C865C004C86380008863F6
:1047B00003980290029801900198496D60F30701F7
:1047C00058484165406920F4FF014FF4FF02019809
:1047D00002EAC01001435348416100BF4FF08050CE
:1047E0005049C86300BF4FF080504E49886301159F
:1047F0004C48816500BF0598039008464949C86543
:10480000C004886303980290029801900198496D52
:1048100060F3070143484165406920F4FF024FF40B
:10482000FF01019801EAC01002433E48426100BF07
:104830004FF080503B49C86300BF4FF0805039496A
:1048400088630015886500BF00BF502004900020D9
:104850000590049803904815C865C1043148C163A8
:10486000880030498863039802900298019001986B
:10487000496D60F307012B484165406920F4FF0151
:104880004FF4FF02019802EAC0100143254841613C
:1048900000BF4FF08051C16300BF4FF080502149ED
:1048A00088630015886500BF0598039049151D4869
:1048B000C165C8041B49886303980290029801905F
:1048C0000198496D60F3070116484165406920F47D
:1048D000FF024FF4FF01019801EAC01002431148A2
:1048E000426100BF4FF080500E49C86300BF4FF0D7
:1048F00080500C4988630015886500BF00BF5120B7
:104900000490EF200590049803904815C865C004F2
:10491000C863810003488163039802900298019064
:10492000004901E000C009200198496D60F30701CA
:10493000FE484165406920F4FF024FF4FF010198F1
:1049400001EAC0100243F948426100BF4FF08050B5
:10495000F649C86300BF4FF08051F44881634015A9
:10496000F249886500BF059803904815C865C104E1
:10497000EE4881630398029002980190EB490198F8
:10498000496D60F30701E9484165406920F4FF0182
:104990004FF4FF02019802EAC0100143E34841616D
:1049A00000BF4FF08050E149C86300BF4FF0805016
:1049B000DE4988630015886500BF00BF522004905F
:1049C00000200590049803904815C865C004C8638A
:1049D0008000886303980290029801900198496DC5
:1049E00060F30701D1484165406920F4FF024FF4AC
:1049F000FF01019801EAC0100243CC48426100BFA8
:104A00004FF08050C949C86300BF4FF08050C7497C
:104A100088630015886500BF059803904815C86530
:104A2000C004886303980290029801900198496D30
:104A300060F30701BD484165406920F4FF024FF46F
:104A4000FF01019801EAC0100243B848426100BF6B
:104A50004FF08050B549C86300BF4FF08050B34954
:104A600088630015886500BF00BF5320049040F2A2
:104A70003F100590049803904815C865C004C863AA
:104A80008000886303980290029801900198496D14
:104A900060F30701A5484165406920F4FF014FF428
:104AA000FF02019802EAC0100143A048416100BF23
:104AB0004FF080509D49C86300BF4FF080509B4924
:104AC00088630015886500BF0598039049159748CD
:104AD000C165C804954988630398029002980190C3
:104AE0000198496D60F3070190484165406920F4E1
:104AF000FF024FF4FF01019801EAC01002438B4806
:104B0000426100BF4FF080508849C86300BF4FF03A
:104B10008050864988630015886500BF00BF60200B
:104B200004904FF427400590049803904815C865F9
:104B3000C1047E48C16388007C4988630398029061
:104B4000029801900198496D60F30701774841652B
:104B5000406920F4FF014FF4FF02019802EAC010FF
:104B600001437248416100BF4FF08051C16300BFF3
:104B70004FF080506D4988630015886500BF059827
:104B8000039049156948C165C8046849886303985A
:104B90000290029801900198496D60F30701634803
:104BA0004165406920F4FF024FF4FF01019801EADA
:104BB000C01002435D48426100BF4FF080505B4926
:104BC000C86300BF4FF0805058498863001588655E
:104BD00000BF00BF6120049001200590049803905D
:104BE0004815C865C004C8638000886303980290B4
:104BF000029801900198496D60F307014B484165A7
:104C0000406920F4FF024FF4FF01019801EAC0104F
:104C100002434648426100BF4FF08051C16300BF6C
:104C20004FF08050414988630015886500BF0598A2
:104C300003904815C865C0048863039802900298E1
:104C400001900198496D60F307013848416540695A
:104C500020F4FF014FF4FF02019802EAC010014363
:104C60003248416100BF4FF080503049C86300BFF7
:104C70004FF080502D4988630015886500BF00BF44
:104C80006A20049000200590049803904815C86598
:104C9000C004C86380008863039802900298019062
:104CA0000198496D60F3070120484165406920F48F
:104CB000FF014FF4FF02019802EAC01001431B48B4
:104CC000416100BF4FF080501849C86300BF4FF0EA
:104CD0008050164988630015886500BF05980390C9
:104CE0004815C865C0048863039802900298019033
:104CF0000198496D60F307010C484165406920F453
:104D0000FF024FF4FF01019801EAC0100243074877
:104D1000426100BF4FF080500449C86300BF4FF0AC
:104D20008050024988630015886501E000C00920B1
:104D300000BF00BF802004900020059004980390DD
:104D40004815C865C004C863800088630398029052
:104D5000029801900198496D60F30701FE48416592
:104D6000406920F4FF014FF4FF02019802EAC010ED
:104D70000143F948416100BF4FF08050F649C863D4
:104D800000BF4FF08050F44988630015886500BF6C
:104D9000059803904815C865C0048863039802907D
:104DA000029801900198496D60F30701EA48416556
:104DB000406920F4FF024FF4FF01019801EAC0109E
:104DC0000243E548426100BF4FF08050E249C863AA
:104DD00000BF4FF08050E04988630015886500BF30
:104DE00000BF81200490002005900498039048158E
:104DF000C865C004C8638000886303980290029865
:104E000001900198496D60F30701D34841654069FD
:104E100020F4FF014FF4FF02019802EAC0100143A1
:104E2000CD48416100BF4FF08050CB49C86300BFFF
:104E30004FF08050C84988630015886500BF059809
:104E400003904815C865C0048863039802900298CF
:104E500001900198496D60F30701BF4841654069C1
:104E600020F4FF024FF4FF01019801EAC010024351
:104E7000B948426100BF4FF08050B749C86300BFD6
:104E80004FF08050B44988630015886500BF00BFAB
:104E90008220049000200590049803904815C8656E
:104EA000C004C86380008863039802900298019050
:104EB0000198496D60F30701A7484165406920F4F6
:104EC000FF024FF4FF01019801EAC0100243A2481B
:104ED000426100BF4FF080509F49C86300BF4FF050
:104EE00080509D4988630015886500BF0598039030
:104EF0004815C865C0048863039802900298019021
:104F00000198496D60F3070193484165406920F4B9
:104F1000FF014FF4FF02019802EAC01001438E48DE
:104F2000416100BF4FF080508B49C86300BF4FF014
:104F30008050894988630015886500BF00BF8320C1
:104F4000049000200590049803904815C865C0049B
:104F5000C8638000886303980290029801900198CA
:104F6000496D60F307017C484165406920F4FF0109
:104F70004FF4FF02019802EAC010014376484161F4
:104F800000BF4FF080507449C86300BF4FF080509D
:104F9000714988630015886500BF0598039048151E
:104FA000C865C00488630398029002980190019834
:104FB000496D60F3070168484165406920F4FF02CC
:104FC0004FF4FF01019801EAC010024362484261B8
:104FD00000BF4FF080506049C86300BF4FF0805061
:104FE0005D4988630015886500BF00BF8420049078
:104FF00000200590049803904815C865C004C86354
:105000008000886303980290029801900198496D8E
:1050100060F3070150484165406920F4FF014FF4F7
:10502000FF02019802EAC01001434B48416100BFF2
:105030004FF080504849C86300BF4FF08050464948
:1050400088630015886500BF059803904815C865FA
:10505000C004886303980290029801900198496DFA
:1050600060F307013C484165406920F4FF024FF4BA
:10507000FF01019801EAC01002433748426100BFB6
:105080004FF080503449C86300BF4FF08050324920
:1050900088630015886500BF00BF8520049000204C
:1050A0000590049803904815C865C004C863800043
:1050B000886303980290029801900198496D60F30B
:1050C000070125484165406920F4FF024FF4FF01C4
:1050D000019801EAC01002431F48426100BF4FF02F
:1050E00080501D49C86300BF4FF080501A49886343
:1050F0000015886500BF059803904815C865C00471
:10510000886303980290029801900198496D60F3BA
:10511000070111484165406920F4FF024FF4FF0187
:10512000019801EAC01002430B48426100BF4FF0F2
:1051300080500949C86300BF4FF08050064988631A
:105140000015886500BF00BF9020049010200590D6
:1051500004980390481501E000C00920C865C00408
:10516000C8638000886303980290029801900198B8
:10517000496D60F30701FE484165406920F4FF0175
:105180004FF4FF02019802EAC0100143F848416160
:1051900000BF4FF08050F649C86300BF4FF0805009
:1051A000F34988630115F248816500BF05980390B3
:1051B0000846EF49C865C0048863039802900298C6
:1051C00001900198496D60F30701E9484165406924
:1051D00020F4FF014FF4FF02019802EAC0100143DE
:1051E000E348416100BF4FF08050E149C86300BF10
:1051F0004FF08050DE4988630015886500BF00BF0E
:10520000922004904FF4C0600590049803904815D4
:10521000C865C004C8638000886303980290029840
:1052200001900198496D60F30701D14841654069DB
:1052300020F4FF014FF4FF02019802EAC01001437D
:10524000CB48416100BF4FF08050C949C86300BFDF
:105250004FF08050C64988630015886500BF0598E7
:1052600003904815C865C0048863039802900298AB
:1052700001900198496D60F30701BD48416540699F
:1052800020F4FF024FF4FF01019801EAC01002432D
:10529000B748426100BF4FF08050B549C86300BFB6
:1052A0004FF08050B24988630015886500BF00BF89
:1052B0000720049040F2331005900498039048159D
:1052C000C865C004C8638000886303980290029890
:1052D00001900198496D60F30701A5484165406957
:1052E00020F4FF014FF4FF02019802EAC0100143CD
:1052F0009F48416100BF4FF080509D49C86300BF87
:105300004FF080509A4988630015886500BF059862
:10531000039049159648C165C80495498863039868
:105320000290029801900198496D60F3070190483E
:105330004165406920F4FF014FF4FF02019802EA41
:10534000C01001438A48416100BF4FF08050884936
:10535000C86300BF4FF08050854988630015886599
:1053600000BF00BF0DF012B80698A0F51341203918
:1053700004D00698B0F5134F41F0468500207D49D2
:10538000087004900590049803904FF48070784959
:10539000C865C004C86380008863039802900298BF
:1053A00001900198496D60F30701714841654069BA
:1053B00020F4FF014FF4FF02019802EAC0100143FC
:1053C0006B48416100BF4FF080506949C86300BF1E
:1053D0004FF08050664988630015886500BF0598C6
:1053E00003904815C865C00488630398029002982A
:1053F00001900198496D60F307015D48416540697E
:1054000020F4FF024FF4FF01019801EAC0100243AB
:105410005748426100BF4FF080505549C86300BFF4
:105420004FF08050524988630015886500BF00BF67
:105430000120049000020590049803904815C86567
:10544000C004C86381004A488163039802900298AF
:10545000019047490198496D60F30701444841654F
:10546000406920F4FF014FF4FF02019802EAC010E6
:1054700001433F48416100BF4FF080503C49C86341
:1054800000BF4FF080503A4988630015886500BF1F
:10549000059803904815C865C00488630398029076
:1054A000029801900198496D60F307013048416509
:1054B000406920F4FF024FF4FF01019801EAC01097
:1054C00002432B48426100BF4FF080502849C86317
:1054D00000BF4FF08050264988630015886500BFE3
:1054E00000BF022004904FF4E06005900498039000
:1054F0004815C865C004C86380008863039802909B
:10550000029801900198496D60F3070118484165C0
:10551000406920F4FF014FF4FF02019802EAC01035
:1055200001431348416100BF4FF080501049C863E8
:1055300000BF4FF080500E4988630015886500BF9A
:10554000059803904815C865C004886303980290C5
:10555000029801900198496D60F307010448416584
:10556000406920F4FF024FF4FF01019804E00000BD
:1055700000C009203F00001001EAC0100243FE48AD
:10558000426100BF4FF08050FB49C86300BF4FF03D
:105590008050F94988630015886500BF00BF03206B
:1055A000049041F218000590049803904815C865CE
:1055B000C004C86380008863039802900298019039
:1055C0000198496D60F30701EB484165406920F49B
:1055D000FF014FF4FF02019802EAC0100143E648C0
:1055E000416100BF4FF08050E349C86300BF4FF0F6
:1055F0008050E14988630015886500BF05980390D5
:105600004815C865C0048863039802900298019009
:105610000198496D60F30701D7484165406920F45E
:10562000FF014FF4FF02019802EAC0100143D24883
:10563000416100BF4FF08050CF49C86300BF4FF0B9
:105640008050CD4988630015886500BF00BF0420E5
:10565000049000200590049803904815C865C00484
:10566000C8638000886303980290029801900198B3
:10567000496D60F30701C0484165406920F4FF02AD
:105680004FF4FF01019801EAC0100243BA48426199
:1056900000BF4FF08050B849C86300BF4FF0805042
:1056A000B54988630015886500BF059803904815C3
:1056B000C865C0048863039802900298019001981D
:1056C000496D60F30701AC484165406920F4FF0271
:1056D0004FF4FF01019801EAC0100243A64842615D
:1056E00000BF4FF08050A449C86300BF4FF0805006
:1056F000A14988630015886500BF00BF0820049099
:1057000040F202200590049803904815C865C00433
:10571000C8638100984881630398029002980190C1
:1057200095490198496D60F30701934841654069C7
:1057300020F4FF024FF4FF01019801EAC010024378
:105740008D48426100BF4FF080508B49C86300BF55
:105750004FF08050884988630015886500BF059820
:1057600003904815C865C0048863039802900298A6
:1057700001900198496D60F307017F4841654069D8
:1057800020F4FF024FF4FF01019801EAC010024328
:105790007948426100BF4FF080507749C86300BF2D
:1057A0004FF08050744988630015886500BF00BFC2
:1057B0000920049000200590049803904815C865BE
:1057C000C004C86380008863039802900298019027
:1057D0000198496D60F3070167484165406920F40D
:1057E000FF014FF4FF02019802EAC0100143624832
:1057F000416100BF4FF080505F49C86300BF4FF068
:1058000080505D4988630015886500BF0598039046
:105810004815C865C00488630398029002980190F7
:105820000198496D60F3070153484165406920F4D0
:10583000FF024FF4FF01019801EAC01002434E48F5
:10584000426100BF4FF080504B49C86300BF4FF02A
:105850008050494988630015886500BF00BF0A2051
:10586000049000200590049803904815C865C00472
:10587000C8638000886303980290029801900198A1
:10588000496D60F307013C484165406920F4FF0120
:105890004FF4FF02019802EAC0100143364841610B
:1058A00000BF4FF080503449C86300BF4FF08050B4
:1058B000314988630015886500BF05980390481535
:1058C000C865C0048863039802900298019001980B
:1058D000496D60F3070128484165406920F4FF01E4
:1058E0004FF4FF02019802EAC010014322484161CF
:1058F00000BF4FF080502049C86300BF4FF0805078
:105900001D4988630015886500BF00BF0C20049006
:1059100001200590049803904815C865C004C86329
:105920008000886303980290029801900198496D65
:1059300060F3070110484165406920F4FF024FF40D
:10594000FF01019801EAC01002430B48426100BF09
:105950004FF080500849C86300BF4FF0805006499F
:1059600088630015886500BF059803904815C865D1
:10597000C0048863039801E000C0092002900298E7
:1059800001900198496D60F30701FE484165406947
:1059900020F4FF024FF4FF01019801EAC010024316
:1059A000F848426100BF4FF08050F649C86300BF1D
:1059B0004FF08050F34988630015886500BF00BF31
:1059C0000D20049000200590049803904815C865A8
:1059D000C004C8638100EB48816303980290029879
:1059E0000190E8490198496D60F30701E548416578
:1059F000406920F4FF014FF4FF02019802EAC01051
:105A00000143E048416100BF4FF08050DD49C86369
:105A100000BF4FF08050DB4988630015886500BFE8
:105A2000059803904815C865C004886303980290E0
:105A3000029801900198496D60F30701D1484165D2
:105A4000406920F4FF024FF4FF01019801EAC01001
:105A50000243CC48426100BF4FF08050C949C8633F
:105A600000BF4FF08050C74988630015886500BFAC
:105A700000BF0F2004900020059004980390481563
:105A8000C865C004C86380008863039802900298C8
:105A900001900198496D60F30701BA48416540697A
:105AA00020F4FF024FF4FF01019801EAC010024305
:105AB000B448426100BF4FF08050B249C86300BF94
:105AC0004FF08050AF4988630015886500BF059886
:105AD00003904815C865C004886303980290029833
