:020000040000FA
:10000000204A0010AD020000B5020000B702000057
:10001000B9020000BB020000BD02000000000000A9
:10002000000000000000000000000000BF0200000F
:10003000C102000000000000C3020000EF3B00000E
:10004000C7020000013F0000693F00008F3F000031
:10005000913F0000696F0100C7020000C702000065
:10006000C7020000C7020000C7020000C70200006C
:10007000C7020000C7020000C7020000C70200005C
:10008000C702000039060000C7020000C7020000D6
:10009000C7020000C7020000CD420000C7020000F6
:1000A000C7020000C7020000C7020000C70200002C
:1000B0007B0F0000C7020000C7020000C70200005B
:1000C000C7020000C7020000C7020000DFF80CD022
:1000D00018F05CFB004800479D020000204A001019
:1000E000AA204107087255200872704700B50548DC
:1000F000410648600120086103200870FFF7F0FF07
:1001000000BD0000A0ACB9035448C06C5349C8649A
:100110000846C06CC8640846C06820F03000C8605B
:100120000846C06840F03000C8604D48006F4C4938
:1001300008670846806A40F0050088624948006800
:1001400040F004004849C1F8C4004FF000004449A1
:10015000C8600846406840F00200486008464068B1
:1001600020F0020048600846406840F00100486006
:100170003A48C06840F030003849C8604FF002008B
:100180004FF0010101FA00F14FEA50124FF0E02365
:1001900003EB8202C2F8001100BF704770B5002463
:1001A00000E0641C47F230508442FADB10202C49F6
:1001B00008602E480078401C2C49087008460078DA
:1001C00002284ADB2A480068294948602448C06A56
:1001D000086000202549087025490968244A5268AA
:1001E000881A18F04DF80646224917F042FE0546D7
:1001F0002946214817F073FE2049086020480078FE
:10020000401C1F4908700846007804281FD1144874
:10021000806A60F004001249886200201849087062
:100220001648006817490968C861174800680078CF
:1002300020F002001449096808701348006800782B
:1002400020F00100401C10490968087005E00448CE
:10025000806A40F005000249886270BD00C002401B
:1002600000800040C4C00F4000C00F4000000010DC
:100270000400001000007A44D313834E0C000010D9
:1002800001000010740300108003001010B51BF073
:1002900013FD10BD10B51BF003FF10BD03F0D6FB1E
:1002A00003E002F0FBF9FFF7F5FFFAE706488047A5
:1002B00006480047FEE7FEE7FEE7FEE7FEE7FEE74B
:1002C000FEE7FEE7FEE7FEE781380000CD00000014
:1002D0000848406840F48020064948600846406C61
:1002E00020F4402048640448006840F004000249BB
:1002F0000860704700C0024000400340FFFFFFFF5E
:1003000070B505460C469A48006840F0400099498F
:10031000C1F8C4002946984817F0E1FD064617F0D9
:10032000EBFF401E954988610846406840F009008F
:10033000486008464069002048610846406940F02E
:10034000020048618E4800696FF30B008C49086118
:100350000846C0688B4908408949C86000208A491E
:100360000968087025E088480068017844FA01F0BF
:100370004FF6FE71884315D08148016982480068B4
:10038000007842000120904001437D4801617B4894
:10039000C06C7D4909680978093101228A401043FF
:1003A0007649C864784800680078401C7649096836
:1003B00008707548006800780628D4DB062072496A
:1003C0000968087052E0704800680178891C44FA96
:1003D00001F04FF6FE71884341D06848C16C6A480D
:1003E00000680078C01C0122824011436348C16448
:1003F000654800680078801F06282ED2DFE800F0EC
:10040000030A11181F265E48C06840F020005C49AE
:10041000C86023E05A48C06840F400705849C8607A
:100420001CE05748C06840F400605549C86015E0BA
:100430005348C06840F400405149C8600EE050483D
:10044000C06840F400304E49C86007E04C48C068BE
:1004500040F400104A49C86000E000BF00BF4A48AD
:1004600000680078401C48490968087046480068E0
:1004700000780C28A7DB002043490968087070BD8C
:100480002DE9FF5F04460D4616469946DDF838A073
:10049000032C00D9A41D504617F07AFF4FF03332D9
:1004A0003A4BCDE9020117F001FE074617F098FF1D
:1004B00082460F9817F06CFF354A364BCDE90201A2
:1004C00017F0F4FD074617F08BFF0F90D5B1012D03
:1004D0003ED1304617F0D4FE2F49039017F0FFFCB1
:1004E00080462649886917F0CBFE8346414617F0BF
:1004F000C0FC074617F000FF2049042202FB04114C
:10050000886126E0484617F0BBFE2449009017F0AA
:10051000E6FC514602900F9817F0A5FC0190029955
:1005200017F0A7FC8346514617F04BFC1249039085
:1005300017F09FFC80464FF07E5117F094FC074661
:1005400017F0DAFE0D49042202FB0411886100E075
:1005500000BF00BF032C00D9A41F0848006D012173
:10056000A14041F00101084304490865BDE8FF9F2F
:10057000C4C00F4000C00F4020BCBE4B00800140F3
:1005800000C00240CF30CCFF7C0300103333E33F88
:10059000CDCCCCCCCCCCF43F0000C84200003443DE
:1005A00010B53748006840F400703649C1F8C400FF
:1005B0004FF01200344908724FF0000008644FF009
:1005C000010008720846007B40F00100087340F209
:1005D000E47088874FF001002C4908702C4908709E
:1005E0004FF00000A1F104010870A1F104010870AE
:1005F000A1F1040108704FF011004FF0010101FA60
:1006000000F14FEA50124FF0E02303EB8202C2F8F0
:10061000001100BF4FF00001002807DACA06140ECF
:100620001C4A00F00F031B1FD45403E0CA06130E2C
:10063000194A135400BF10BD1FB5184800688068E0
:10064000401C1649096888600F48007840F0010096
:100650000D4908701248007812490978124A127838
:10066000094B9B8FCDE90032CDE90210064890F886
:10067000383010F82C2F0DA1144818F00BFB1FBDBB
:10068000C4C00F4000C00F4000400240384002404C
:100690002C40024018ED00E000E400E07C03001074
:1006A000204002402440024028400240253032646D
:1006B0002F253032642F253034642D253032643AB2
:1006C000253032643A2530326400000028040010DE
:1006D00007280CD2DFE800F00405060708090A0025
:1006E00005E004E003E002E001E000E000BF00BF3D
:1006F00000BFFEE710B51AF009F81BF0EBFB1BF08A
:10070000F5F91DF063FB1CF063FC1AF00FFCBDE86B
:10071000104019F0DBBC10B51AF012F81BF0E0FB2A
:100720001BF052FA1CF024FDBDE810401AF0DCBFAB
:1007300000207047704770470020704700207047C6
:100740000020704770B50546282019F073FA04465A
:1007500000BF2822214628461AF0B2FB0546207821
:10076000002847D09FA120461CF067FB20B19F4A7C
:100770009FA1601D17F0B6F89EA120461CF05DFBFE
:1007800028B19A4A121F9AA1601D17F0ABF89BA1DD
:1007900020461CF052FB28B1944A083294A1601DF7
:1007A00017F0A0F897A120461CF047FB28B18F4A0C
:1007B000121D8FA1601D17F095F894A120461CF022
:1007C0003CFB28B1894A103292A1601D17F08AF8CB
:1007D00091A120461CF031FB18B100208349091F6C
:1007E00008748FA120461CF028FB18B101207F4916
:1007F000091F0874002DACD120461AF05FF870BDB7
:1008000070472DE9F04705460E4691469A462878EE
:1008100062284CD010DC4D2873D006DC412871D002
:10082000442870D048286FD1B7E053286DD05428A1
:100830006CD06128F7D148E074280ED006DC682817
:1008400027D0692873D07028EDD114E076287CD0A9
:1008500078285CD07928E6D145E0734909680868B2
:1008600017F096FD07463A460B46291D304618F00C
:1008700011FA0446B2E06C490968486817F088FD2F
:1008800007463A460B46291D304618F003FA04463F
:10089000A4E065490968886817F07AFD07463A467A
:1008A0000B46291D304618F0F5F9044696E05E49DE
:1008B0000968086A17F06CFD07463A460B46291D81
:1008C000304618F0E7F9044688E057490968886916
:1008D00017F05EFD07463A460B46291D304618F0D4
:1008E000D9F904467AE050490968486917F050FD83
:1008F00007463A460B46291D304618F0CBF9044608
:100900006CE038E02FE03FE062E058E04EE046491E
:100910000968086917F03CFD07463A460B46291D51
:10092000304618F0B7F9044658E000E00DE03E49C3
:100930000968C86817F02CFD07463A460B46291D82
:10094000304618F0A7F9044648E037490968C869F5
:1009500017F01EFD07463A460B46291D304618F093
:1009600099F904463AE03148828F291D304618F043
:1009700091F9044632E02E48027805F10401304630
:1009800018F088F9044629E02A48027805F10401A4
:10099000304618F07FF9044620E02748027805F138
:1009A0000401304618F076F9044617E0234802782F
:1009B00005F10401304618F06DF904460EE02048B8
:1009C000027805F10401304618F064F9044605E0A8
:1009D0001CA1304618F05EF9044600BF00BFA0B26B
:1009E000BDE8F087746D696E3D000000440400109E
:1009F00025660000746D61783D000000706D696EC1
:100A00003D000000706D61783D0000006273656319
:100A10003D00000025640000766172743D00000016
:100A2000766172703D0000007403001000400240C7
:100A3000384002402C4002402840024024400240FE
:100A4000204002403C703E592E2E2E2071756520AC
:100A5000717569657265732071756520706F6E6759
:100A60006120617175693F203A763C2F703E00002D
:100A70001C200121814042094FF0E02303EB820258
:100A8000C2F8001100BF70471C2001218140FE4ABE
:100A9000430942F8231000BF704770B505460E4663
:100AA0008EB9032405E015F8021BC8B2F7490855B2
:100AB000641C062CF7DB7E20F4490870FF20487088
:100AC000FE20887009E0002405E015F8021BC8B27A
:100AD000EE490855641C062CF7DBFFF7D5FF4FF0F5
:100AE000A040006820F001004FF0A0410860E848F5
:100AF000006820F00300C1F80001E4480079E349F0
:100B0000497940EA01204FF0A0410864DF4880782D
:100B1000DE49C97840EA01204FF0A0414864DB4833
:100B20000078DA49497840EA01204FF0A041886412
:100B30000846006840F44F4008600846D0F80001BD
:100B400040F07800C1F80001FFF792FF012070BD6E
:100B500000200FE000EB4001CE4A02EB4121CE4ADB
:100B600042F83010002102EBC0025160CB4A42F83B
:100B70002010401C0328EDD3C749C94A1160C7495A
:100B80004FF0A042C2F820114FF00201C54A116097
:100B90004FF000014FF0A042C2F82811704700202A
:100BA00013E000EB4001C04A02EB4121BF4A42F88A
:100BB0003010BF4902EBC00251600021BD4A42F82B
:100BC000301002EBC0025160401C0428E9D3B74941
:100BD000B94A1160B7494FF0A042C2F80C114FF06A
:100BE0000301B64A11604FF000014FF0A042C2F875
:100BF0001811704710B5014641F480704FF0A044C1
:100C0000A06201206062002307E04FF0A040406B2B
:100C100010F0010F00D103E05B1CB3F5A02FF4D35B
:100C200000BF00204FF0A04460622046026B90B2EB
:100C300010BD10B540F480734FF0A044A36223466A
:100C4000D962002207E04FF0A0435B6B13F0010F65
:100C500000D103E0521CB2F5A02FF4D300BF10BDA9
:100C600010B59748006840F080409649C1F8C4002C
:100C70009548964988600846C06820F00F0000F14A
:100C80000500C8604FF44F404FF0A04108604FF09E
:100C900038007F4908604FF000008D49086004E08B
:100CA0008B480068401C8A49086089480068FF2812
:100CB000F6D902204FF0A041086030204860400182
:100CC000486143F20F7008611220C8604FF4307021
:100CD0006F49086048F23C004FF0A04108624FF0B5
:100CE00000007B49086004E079480068401C7849AE
:100CF000086077480068FF28F6D93C204FF0A041F3
:100D000008624FF40060886100207149086004E0C7
:100D10006F480068401C6E4908606D480068FF28F5
:100D2000F6D900204FF0A04188614FF40041FFF751
:100D300080FF0020664908600FE00020FFF75AFF9F
:100D4000644908600846008810F4084F00D109E0A3
:100D50005F480068401C5E4908605D480068B0F567
:100D6000801FEAD300BF0220FFF744FF5A49086002
:100D70000320FFF73FFF59490860084600684FF617
:100D8000F07108405449098840EA0140A0F5F82173
:100D9000F0391ED14FF480510020FFF74AFF0020A8
:100DA0004B4908600FE00120FFF724FF4949086024
:100DB0000846007810F0200F00D009E04448006891
:100DC000401C4349086042480068B0F5801FEAD3E0
:100DD00000BF00203E4908600FE00120FFF70AFF36
:100DE0003C4908600846007810F0040F00D009E084
:100DF00037480068401C3649086035480068B0F53F
:100E0000803FEAD300BF1F20FFF7F4FE314908609E
:100E10000846007810F0100F11D04FF0A040406845
:100E200040F001004FF0A04148601948006840F4CC
:100E30008060C1F800014FF01500886003E01220C7
:100E40004FF0A04188602348007810F0080F05D0CB
:100E50004FF480704FF0A041886103E000204FF014
:100E6000A0418861094800790849497940EA012090
:100E70004FF0A0410864054880780449C97840EAE9
:100E800001204FF0A0412BE080E100E020000010A5
:100E900000010050540C082030F4072048F40720CB
:100EA0001C0100502401005054F40720F0F30720E7
:100EB000FF05008010F407200801005010010050C9
:100EC000C4C00F4000C00F400501155000C00240D3
:100ED0004400001040000010480000104C000010BA
:100EE00048644D4800784C49497840EA01204FF069
:100EF000A0418864FFF753FEFFF72AFE26204749EA
:100F000008604FF08800464908604FF6FF7001F115
:100F1000040108604FF0A040D0F8000140F0030049
:100F20004FF0A041C1F800010846006840F0010000
:100F3000086010BD70B53B4D296800F104033A4DBF
:100F400055F83140058805F103054FEAA50202E096
:100F500020CB20C4521E002AFAD105886D1E45F010
:100F60004045314E06EBC10675604D1C2946032DE8
:100F700000D100212B4D296070BD2DE9F04740E0E4
:100F80002748001DC0F8008018F0080F38D0274807
:100F9000046831E0264850F8347017F0804F00D1D3
:100FA00023E0C7F30A00C51E40F2EA50854202D88A
:100FB0002048074200D018E045F0004018F03AFE03
:100FC00006468EB106F1040A1B4850F83490E81C1E
:100FD000850804E059F8040B4AF8040B6D1E002D37
:100FE000F8D130461BF0DCFD00BF601C044604282D
:100FF00000D100240D48046010480068A042C9D107
:1010000000BF0748001F00680549096810EA010889
:10101000B6D1BDE8F08700002000001000020050AB
:10102000E40F00502801005030F407201801005050
:1010300010F407200000901BF0F30720140100506B
:101040001CB50446FE480078012847D1FD480088B9
:101050002188884219DD2088A1880844F949098837
:10106000884212DDF7484088618888420DDD60883B
:10107000E1880844F3494988884206DD207A10B99E
:10108000012020721CBD0020FCE7EF48406900EB06
:1010900080004000ED49098888421CD8002000905B
:1010A00003463C22012101900620FFF7E9F90320C5
:1010B000E7490870E748007801280CDD0120E6497F
:1010C00008700420E2490870E2480078022802D142
:1010D0000120E24908700020DC49088000202072CD
:1010E00000BFCFE72DE9F84F04460E4617461D46D0
:1010F0000095B4F800C0B4F80480C444ACF1010C0D
:101100001FFA8CF263881946208815F002FA0095C0
:10111000B4F802C0B4F80680C444ACF1010C1FFA64
:101120008CF322886188104615F0F3F90095B4F825
:1011300002C0B4F80680C444ACF1010C1FFA8CF371
:10114000B4F800C0B4F80480C444ACF1010C1FFA38
:101150008CF2B4F802C0B4F80680C444ACF1010CBF
:101160001FFA8CF1208815F0D4F90095B4F802C06C
:10117000B4F80680C444ACF1010C1FFA8CF3B4F847
:1011800000C0B4F80480C444ACF1010C1FFA8CF226
:10119000B4F800C0C444ACF1010C1FFA8CF06188B3
:1011A00015F0B7F9304616F07EFB4008B4F804900D
:1011B00009EBD971228802EB6101A1EBC0001FFA93
:1011C00080FA00200090B4F8068008EBD87062889E
:1011D00002EB6000083881B23B463246504615F0BB
:1011E00047FABDE8F88F2DE9FC414FF4FC634FF658
:1011F000E0729B499B48FFF775FF4FF4FC634FF685
:10120000E07299A19948FFF76DFF4FF4FC634FF628
:10121000E07297A19748FFF765FF4FF4FC634FF624
:10122000E07295A19748FFF75DFF4FF4FC634FF61E
:10123000E07295A19748FFF755FF4FF4FC634FF616
:10124000E07295A19748FFF74DFF4FF4FC634FF60E
:10125000E07295A19748FFF745FF7B49086817F0B2
:1012600032F804467849486817F02DF80546764963
:10127000886817F028F806467349C86817F023F8FD
:10128000074633463A468CA19248CDE9005417F000
:1012900001FD6D48007C38B14FF4FC631A468D495E
:1012A0008D48FFF71FFF07E04FF4FC634FF47842CF
:1012B00088498948FFF716FF4FF4FC634FF6E07248
:1012C00086A18748FFF70EFF4FF4FC634FF6E072EC
:1012D00082A18448FFF706FF4FF4FC634FF6E072EB
:1012E0007EA18148FFF7FEFE4FF4FC634FF6E072EB
:1012F0007AA17E48FFF7F6FE4FF4FC634FF6E072EA
:101300007BA17C48FFF7EEFE4FF4FC634FF6E072E2
:1013100077A17948FFF7E6FE4FF4FC634FF6E072E1
:1013200073A17648FFF7DEFE4FF4FC634FF6E072E0
:101330006FA17348FFF7D6FEBDE8FC811CB54FF4E2
:10134000FC634FF6E07246494648FFF7CBFE4FF488
:10135000FC634FF6E07244A14448FFF7C3FE4FF42C
:10136000FC634FF6E07242A14248FFF7BBFE4FF428
:10137000FC634FF6E07263A14248FFF7B3FE4FF4FF
:10138000FC634FF6E07261A14248FFF7ABFE4FF4F9
:10139000FC634FF6E0725FA14248FFF7A3FE4FF4F3
:1013A000FC634FF6E0725EA14248FFF79BFE782097
:1013B0000121A823C022CDE900105BA1454817F008
:1013C00069FC4FF4FC634FF6E07242494248FFF774
:1013D00089FE4FF4FC634FF6E07240A14048FFF7EE
:1013E00081FE4FF4FC634FF6E0723CA13D48FFF7ED
:1013F00079FE4FF4FC634FF6E07238A13A48FFF7EC
:1014000071FE4FF4FC634FF6E07234A13748FFF7EA
:1014100069FE4FF4FC634FF6E07235A13548FFF7E3
:1014200061FE4FF4FC634FF6E07231A13248FFF7E2
:1014300059FE4FF4FC634FF6E0722DA12F487BE07C
:1014400024030010700300104004001094030010E7
:101450005100001050000010530000105200001006
:10146000280400105E0000102D3E000068000010EF
:101470003C2D00007200001054656D702E6D696E79
:101480002E0000006201001054656D702E6D6178B1
:101490002E0000006C010010507265732E6D696E95
:1014A0002E00000076010010507265732E6D617879
:1014B0002E0000008001001050726573205B2564CF
:1014C0002C25645D2054656D70205B25642C25649B
:1014D0005D000000580400108A0100102D0000007B
:1014E000940100109E010010A8010010B20100102C
:1014F0002B000000BC010010C6010010D00100103C
:10150000DA010010486F7261730000004D696E755A
:10151000746F7300536567756E646F73000000002D
:10152000446961730000000049503A25642E256427
:101530002E25642E25640000FFF7D4FD4FF4FC63D4
:101540004FF6E072AFF25801FE48FFF7CBFD1CBD2D
:10155000F8B504460E46002514E000966788B4F8F6
:1015600006C06744BF1EBBB227882F44BF1CBAB257
:101570006788BF1CB9B227882F44BF1CB8B214F0CB
:10158000C8FF6D1CA088001FA842E6DCF8BD2DE94D
:10159000F0414FF4FC634FF6E072EB49EB48FFF784
:1015A000A1FD4FF4FC634FF6E072AFF24411E8483E
:1015B000FFF798FD4FF4FC634FF6E072AFF2501165
:1015C000E448FFF78FFD4FF4FC634FF6E072E2A1B1
:1015D000E548FFF787FDE5480068407810F0010F07
:1015E0002FD0E3490968086816F0D2FE0446224667
:1015F0000B46E0A1E24817F04DFB4FF4FC634FF6B9
:10160000E072DF49DF48FFF76DFDD9490968486896
:1016100016F0BEFE044622460B46DBA1D84817F062
:1016200039FB4FF4FC634FF6E072D549D948FFF718
:1016300059FDCE480068407820F00100CB49096888
:101640004870D54A5168106816F00DFC0646D24A1B
:101650005168C74A1268106816F005FC0746CF4962
:1016600016F007FC0546314616F039FC044616F024
:101670002AFE0B287ED2DFE800F0062F5986B2DF63
:10168000FDFCFBFAF9000021C548FFF761FF0021CE
:10169000C448FFF75DFF0021C348FFF759FF002151
:1016A000C248FFF755FF0021C148FFF751FF002155
:1016B000C048FFF74DFF0021BF48FFF749FF002159
:1016C000BE48FFF745FF0021BD48FFF741FF00215D
:1016D000BC48FFF73DFF7BE24FF6FF71B048FFF7D4
:1016E00037FF0021AF48FFF733FF0021AE48FFF777
:1016F0002FFF0021AD48FFF72BFF0021AC48FFF77B
:1017000027FF0021AB48FFF723FF0021AA48FFF77E
:101710001FFF0021A948FFF71BFF0021A848FFF782
:1017200017FF0021A748FFF713FF51E24FF6FF71A3
:101730009B48FFF70DFF4FF6FF719A48FFF708FF30
:1017400000219948FFF704FF00219848FFF700FFA8
:1017500000219748FFF7FCFE00219648FFF7F8FEAE
:1017600000219548FFF7F4FE00219448FFF7F0FEB2
:10177000002100E0C1E19248FFF7EAFE0021914814
:10178000FFF7E6FE24E24FF6E0718548FFF7E0FE42
:101790004FF6E0718348FFF7DBFE4FF6E0718248B9
:1017A000FFF7D6FE00218148FFF7D2FE00218048D6
:1017B000FFF7CEFE00217F48FFF7CAFE00217E48DA
:1017C000FFF7C6FE00217D48FFF7C2FE00217C48DE
:1017D000FFF7BEFE00217B48FFF7BAFEF8E14FF6A7
:1017E000E0716F48FFF7B4FE4FF6E0716D48FFF708
:1017F000AFFE4FF6E0716C48FFF7AAFE4FF6E071BE
:101800006A48FFF7A5FE00216948FFF7A1FE002105
:101810006848FFF79DFE00216748FFF799FE002109
:101820006648FFF795FE00216548FFF791FE00210D
:101830006448FFF78DFECBE11F215948FFF788FE72
:101840001F215848FFF784FE1F215748FFF780FEED
:101850001F215648FFF77CFE1F215548FFF778FEF1
:1018600000215448FFF774FE002104E012E1DFE09C
:10187000ADE039E00FE05048FFF76AFE00214F4825
:10188000FFF766FE00214E48FFF762FE00214D483B
:10189000FFF75EFE9CE11F214148FFF759FE1F2123
:1018A0004048FFF755FE1F213F48FFF751FE1F211B
:1018B0003E48FFF74DFE1F213D48FFF749FE1F211F
:1018C0003C48FFF745FE00213B48FFF741FE002161
:1018D0003A48FFF73DFE00213948FFF739FE002165
:1018E0003848FFF735FE73E14FF4FC612C48FFF7F1
:1018F0002FFE4FF4FC612B48FFF72AFE4FF4FC61EA
:101900002948FFF725FE4FF4FC612848FFF720FE29
:101910004FF4FC612648FFF71BFE4FF4FC6125489D
:10192000FFF716FE4FF4FC612348FFF711FE00217C
:101930002248FFF70DFE00212148FFF709FE002194
:10194000204841E0DA010010280400105E00001079
:10195000680000107200001054656D70657261744B
:101960007572613A00000000E4010010800300106D
:1019700074030010252E30326620644300000000FE
:1019800058040010EE010010252E303266206D4202
:1019900061722E000C020010400400100000204173
:1019A000840200108E02001098020010A2020010A3
:1019B000AC020010B6020010C0020010CA020010F3
:1019C000D4020010DE020010FFF7C2FD00E14FF468
:1019D000FC61FE48FFF7BCFD4FF4FC61FC48FFF7DB
:1019E000B7FD4FF4FC61FB48FFF7B2FD4FF4FC611B
:1019F000F948FFF7ADFD4FF4FC61F848FFF7A8FD8B
:101A00004FF4FC61F648FFF7A3FD4FF4FC61F54885
:101A1000FFF79EFD4FF4FC61F348FFF799FD0021AD
:101A2000F248FFF795FD0021F148FFF791FDCFE067
:101A30004FF47841E548FFF78BFD4FF47841E448D7
:101A4000FFF786FD4FF47841E248FFF781FD4FF440
:101A50007841E148FFF77CFD4FF47841DF48FFF71C
:101A600077FD4FF47841DE48FFF772FD4FF478417F
:101A7000DC48FFF76DFD4FF47841DB48FFF768FD68
:101A80004FF47841D948FFF763FD0021D848FFF7AC
:101A90005FFD9DE04FF47841CC48FFF759FD4FF4CE
:101AA0007841CB48FFF754FD4FF47841C948FFF720
:101AB0004FFD4FF47841C848FFF74AFD4FF4784195
:101AC000C648FFF745FD4FF47841C548FFF740FD94
:101AD0004FF47841C348FFF73BFD4FF47841C248CB
:101AE000FFF736FD4FF47841C048FFF731FD4FF462
:101AF0007841BF48FFF72CFD6AE0BE4A5168BE4AF4
:101B00001268106816F092FC31D24FF47841AF4859
:101B1000FFF71EFD4FF47841AD48FFF719FD4FF474
:101B20007841AC48FFF714FD4FF47841AA48FFF71D
:101B30000FFD4FF47841A948FFF70AFD4FF47841B3
:101B4000A748FFF705FD4FF47841A648FFF700FDD1
:101B50004FF47841A448FFF7FBFC4FF47841A348C9
:101B6000FFF7F6FC4FF47841A148FFF7F1FCA14ADA
:101B70005168A14A1268106816F04EFC27D2002165
:101B80009248FFF7E5FC00219148FFF7E1FC0021B6
:101B90009048FFF7DDFC00218F48FFF7D9FC0021BA
:101BA0008E48FFF7D5FC00218D48FFF7D1FC0021BE
:101BB0008C48FFF7CDFC00218B48FFF7C9FC0021C2
:101BC0008A48FFF7C5FC00218948FFF7C1FC00BF28
:101BD00000BF4FF4FC634FF6E07288A18A48FFF71C
:101BE00081FA844AD168906816F03DF90646814A28
:101BF000D168814A1268506816F035F90746834962
:101C000016F037F90546314616F069F9044616F024
:101C10005AFB0B287ED2DFE800F0062F5986B2D897
:101C2000D7D6D5D4D30000217948FFF791FC002105
:101C30007848FFF78DFC00217748FFF789FC0021E9
:101C40007648FFF785FC00217548FFF781FC0021ED
:101C50007448FFF77DFC00217348FFF779FC0021F1
:101C60007248FFF775FC00217148FFF771FC0021F5
:101C70007048FFF76DFC6FE24FF6FF716448FFF7A5
:101C800067FC00216348FFF763FC00216248FFF70F
:101C90005FFC00216148FFF75BFC00216048FFF713
:101CA00057FC00215F48FFF753FC00215E48FFF717
:101CB0004FFC00215D48FFF74BFC00215C48FFF71B
:101CC00047FC00215B48FFF743FC45E24FF6FF71FC
:101CD0004F48FFF73DFC4FF6FF714E48FFF738FCC9
:101CE00000214D48FFF734FC00214C48FFF730FC41
:101CF00000214B48FFF72CFC00214A48FFF728FC45
:101D000000214948FFF724FC00214848FFF720FC48
:101D1000002100E0B5E14648FFF71AFC00214548E4
:101D2000FFF716FC18E24FF6E0713948FFF710FC98
:101D30004FF6E0713748FFF70BFC4FF6E07136487D
:101D4000FFF706FC00213548FFF702FC002134486C
:101D5000FFF7FEFB00213348FFF7FAFB0021324872
:101D6000FFF7F6FB00213148FFF7F2FB0021304876
:101D7000FFF7EEFB00212F48FFF7EAFBECE14FF6FF
:101D8000E0712348FFF7E4FB4FF6E0712148FFF7CD
:101D9000DFFB4FF6E0712048FFF7DAFB4FF6E0710A
:101DA0001E48FFF7D5FB00211D48FFF7D1FB00219E
:101DB0001C48FFF7CDFB00211B48FFF7C9FB3BE0A8
:101DC0002CE1F9E0C7E096E06CE042E0840200100C
:101DD0008E02001098020010A2020010AC02001047
:101DE000B6020010C0020010CA020010D402001097
:101DF000DE0200104004001074030010507265737E
:101E0000696F6E3A000000000202001000002041DD
:101E1000200200102A020010340200103E020010BE
:101E200048020010520200105C020010660200100E
:101E3000700200107A0200100021FE48FFF788FBB4
:101E40000021FD48FFF784FB0021FC48FFF780FBE1
:101E500082E11F21FA48FFF77BFB1F21F948FFF7BA
:101E600077FB1F21F848FFF773FB1F21F748FFF7A7
:101E70006FFB1F21F648FFF76BFB0021F548FFF7CA
:101E800067FB0021F448FFF763FB0021E948FFF7F7
:101E90005FFB0021E848FFF75BFB0021E748FFF705
:101EA00057FB59E11F21E648FFF752FB1F21E54888
:101EB000FFF74EFB1F21E448FFF74AFB1F21E348D1
:101EC000FFF746FB1F21E248FFF742FB1F21E148D5
:101ED000FFF73EFB0021E048FFF73AFB0021D54821
:101EE000FFF736FB0021D448FFF732FB0021D3482F
:101EF000FFF72EFB30E14FF4FC61D148FFF728FBE0
:101F00004FF4FC61CF48FFF723FB4FF4FC61CE4850
:101F1000FFF71EFB4FF4FC61CC48FFF719FB4FF4B1
:101F2000FC61CB48FFF714FB4FF4FC61C948FFF795
:101F30000FFB4FF4FC61C848FFF70AFB0021BD48C6
:101F4000FFF706FB0021BC48FFF702FB0021BB485E
:101F5000FFF7FEFA00E14FF4FC61B948FFF7F8FA29
:101F60004FF4FC61B748FFF7F3FA4FF4FC61B64851
:101F7000FFF7EEFA4FF4FC61B448FFF7E9FA4FF4CB
:101F8000FC61B348FFF7E4FA4FF4FC61B148FFF796
:101F9000DFFA4FF4FC61B048FFF7DAFA4FF4FC6166
:101FA000A448FFF7D5FA0021A348FFF7D1FA002192
:101FB000A248FFF7CDFACFE04FF47841A048FFF7F1
:101FC000C7FA4FF478419F48FFF7C2FA4FF47841BF
:101FD0009D48FFF7BDFA4FF478419C48FFF7B8FAE7
:101FE0004FF478419A48FFF7B3FA4FF47841994893
:101FF000FFF7AEFA4FF478419748FFF7A9FA4FF48C
:1020000078418C48FFF7A4FA4FF478418A48FFF7EB
:102010009FFA00218948FFF79BFA9DE04FF4784131
:102020008748FFF795FA4FF478418648FFF790FA12
:102030004FF478418448FFF78BFA4FF47841834896
:10204000FFF786FA4FF478418148FFF781FA4FF4A1
:1020500078418048FFF77CFA4FF478417E48FFF7DB
:1020600077FA4FF478417348FFF772FA4FF47841EA
:102070007148FFF76DFA4FF478417048FFF768FA3E
:102080006AE0764A9168764A1268506816F0CEF98E
:1020900031D24FF478416A48FFF75AFA4FF4784149
:1020A0006848FFF755FA4FF478416748FFF750FA50
:1020B0004FF478416548FFF74BFA4FF47841644894
:1020C000FFF746FA4FF478416248FFF741FA4FF4C0
:1020D00078416148FFF73CFA4FF478415548FFF7E3
:1020E00037FA4FF478415448FFF732FA4FF4784109
:1020F0005248FFF72DFA594AD168594A1268506878
:1021000016F08AF927D200214D48FFF721FA002165
:102110004C48FFF71DFA00214B48FFF719FA002140
:102120004A48FFF715FA00214948FFF711FA002144
:102130004848FFF70DFA00214748FFF709FA002148
:102140003C48FFF705FA00213B48FFF701FA002160
:102150003A48FFF7FDF900BF00BFBDE8F08170B558
:102160004FF4FC634FF6E0723E493F48FEF7BAFF7A
:102170004FF4FC634FF6E072AFF614513B48FEF7A4
:10218000B1FF4FF4FC634FF6E072AFF61C513848D4
:10219000FEF7A8FF4FF4FC634FF6E07235A13A4812
:1021A000FEF7A0FF39480068407810F0010F13D007
:1021B0002B490968886916F0EBF8044622460B465D
:1021C00033A1384816F066FD4FF4FC634FF6E07219
:1021D00034493548FEF786FF4FF4FC634FF6E07252
:1021E00032A13548FEF77EFF4FF4FC634FF6E072F4
:1021F00032A13548FEF776FF4FF4FC634FF6E072EC
:1022000032A13548FEF76EFF4FF4FC634FF6E072E3
:1022100032A13548FEF766FF1C480068007810F0D0
:10222000010F78D00E490968C86916F0B1F8044664
:1022300022465BE066020010700200107A02001075
:10224000200200102A020010340200103E0200108A
:1022500048020010520200105C02001040040010FE
:1022600074030010280400105E00001068000010C5
:10227000720000104D454449444153204143545598
:10228000414C455300000000FE0000108003001088
:10229000416C747572613A20252E303266206D2EA5
:1022A00000000000580400100801001056656C2E54
:1022B00020762E3A000000001201001048756D656E
:1022C0006461643A000000001C010010436C6172FC
:1022D000696461643A00000026010010496E636978
:1022E00064652055563A0000300100100B46FCA1F1
:1022F000FE4816F0CFFC4FF4FC634FF6E072FB494A
:10230000FB48FEF7EFFEFB480068007820F0010074
:10231000F84909680870F7480068407810F0010F24
:102320001BD0F5490968886816F032F80446224641
:102330000B46F2A1ED4816F0ADFC4FF4FC634FF6EE
:10234000E072EA49F048FEF7CDFEEA4800684078BE
:1023500020F00100E74909684870E7490968086A00
:1023600016F016F8044622460B46E8A1DF4816F0A0
:1023700091FC4FF4FC634FF6E072DC49E648FEF74F
:10238000B1FEDD490968C86816F002F80446224625
:102390000B46E2A1D54816F07DFC4FF4FC634FF6E6
:1023A000E072D249E048FEF79DFE70BD10B54FF4D3
:1023B000FC634FF6E072DD49DD48FEF793FE4FF413
:1023C000FC634FF6E072AFF66071DA48FEF78AFE02
:1023D0004FF4FC634FF6E072AFF66C71D648FEF72F
:1023E00081FE4FF4FC634FF6E072D4A1D548FEF7AE
:1023F00079FE4FF4FC634FF6E072D3A1D448FEF7A8
:1024000071FE4FF4FC634FF6E072D2A1D648FEF79E
:1024100069FED648007805282BD2DFE800F0032BB0
:10242000537BA3004FF6FF731A46D1A1D148FEF7A4
:1024300059FE4FF4FC634FF6E072CFA1CF48FEF790
:1024400051FE4FF4FC634FF6E072CDA1CD48FEF78C
:1024500049FE4FF4FC634FF6E072CBA1CB48FEF788
:1024600041FE4FF4FC634FF6E072C9A1C948FEF784
:1024700039FE9FE04FF4FC634FF6E072BCA1BD480B
:10248000FEF730FE4FF6FF731A46BBA1BB48FEF7BE
:1024900029FE4FF4FC634FF6E072B9A1B948FEF78C
:1024A00021FE4FF4FC634FF6E072B7A1B748FEF788
:1024B00019FE4FF4FC634FF6E072B5A1B548FEF784
:1024C00011FE77E04FF4FC634FF6E072A8A1A94833
:1024D000FEF708FE4FF4FC634FF6E072A6A1A74892
:1024E000FEF700FE4FF6FF731A46A5A1A548FEF7BA
:1024F000F9FD4FF4FC634FF6E072A3A1A348FEF789
:10250000F1FD4FF4FC634FF6E072A1A1A148FEF784
:10251000E9FD4FE04FF4FC634FF6E07294A195485B
:10252000FEF7E0FD4FF4FC634FF6E07292A1934892
:10253000FEF7D8FD4FF4FC634FF6E07290A191488E
:10254000FEF7D0FD4FF6FF731A468FA18F48FEF7B6
:10255000C9FD4FF4FC634FF6E0728DA18D48FEF784
:10256000C1FD27E04FF4FC634FF6E07280A1814883
:10257000FEF7B8FD4FF4FC634FF6E0727EA17F4892
:10258000FEF7B0FD4FF4FC634FF6E0727CA17D488E
:10259000FEF7A8FD4FF4FC634FF6E0727AA17B488A
:1025A000FEF7A0FD4FF6FF731A4679A17948FEF7B2
:1025B00099FD00BF00BF4FF4FC634FF6E07276A1B7
:1025C0007748FEF78FFD7748007820B101281AD0B0
:1025D000022847D12EE04FF478431A4672A173487F
:1025E000FEF780FD4FF4FC634FF6E07270A1714876
:1025F000FEF778FD4FF4FC634FF6E0726EA16F4872
:10260000FEF770FD2EE04FF4FC634FF6E07266A11A
:102610006648FEF767FD1F231A4665A16548FEF769
:1026200061FD4FF4FC634FF6E07263A16348FEF76F
:1026300059FD17E04FF4FC634FF6E0725AA15B4876
:10264000FEF750FD4FF4FC634FF6E07258A1594875
:10265000FEF748FD4FF6FF731A4657A15748FEF79D
:1026600041FD00BF00BF4FF4FC634FF6E07254A180
:102670005548FEF737FD10BD10B500F0B0FD04461B
:1026800044B1524A2146524800F05FFF01205149AF
:10269000087002E000204F49087010BD1CB5FDF71E
:1026A0001FFDFFF7E9FF4C480078B8B14FF0E0207C
:1026B000006910F4803F11D0002000900E49019075
:1026C0000968464B0022086A012101F077FF0020CB
:1026D0000090034601904148027881E084E00000C8
:1026E000252E303266206D707300000058040010F3
:1026F0003A0100108003001074030010252E3032C0
:10270000662025250000000044010010252E3032EF
:1027100066204C55580000004E010010252E303226
:102720006620555673000000580100102804001060
:102730005E000010680000107200001056616C6F9F
:10274000726573007C000010416A757374657300D4
:10275000860000104E6976656C206465206272699F
:102760006C6C6F3A000000009000001051000010E7
:10277000310000009A00001032000000A400001098
:1027800033000000AE00001034000000B80000105C
:1027900041000000C2000010506C61790000000090
:1027A000CC0000105000001048500000D60000106F
:1027B0004C500000E0000010554C5000EA000010A2
:1027C0004C6F616400000000F4000010280300104A
:1027D00070030010240300105300001025030010A4
:1027E00001210620FDF74CFEFE480068007806280F
:1027F0007ED2DFE800F003FDFCFBFAF9FFF7D6FD1F
:10280000F948FEF71DFC30B10120F649096808704F
:10281000002012F034FAF548FEF712FC30B1022025
:10282000F04909680870002012F029FAF048FEF714
:1028300007FC30B10320EB4909680870002012F052
:102840001EFAEC48FEF7FCFB30B10520E5490968AB
:102850000870002012F013FAE748FEF7F1FB88B188
:102860000020E6490870E6490870009003460122FE
:10287000114601900620FDF703FE0020E149087093
:10288000E1490870E148FEF7DBFB90B10020DB492D
:102890000870DB4908700090034614220121019062
:1028A0000620FDF7EDFD0120D64908700020D6492D
:1028B0000870D748FEF7C4FB90B10020CF490870DC
:1028C000CF4908700090034628220121019006207C
:1028D000FDF7D6FD0220CB4908700020CA490870D8
:1028E000CC48FEF7ADFBA8B100200090034600E005
:1028F000ECE13C22012101900620FDF7C1FD002002
:10290000BE490870BE4908700320BE490870002007
:10291000BD490870C048FEF793FB58B10120B74984
:1029200008700020B64908700420B64908700120DC
:10293000B5490870B948FEF783FB80B1B848006814
:102940000078C0090BD0B6480068007820F08000FD
:10295000B3490968087001F023FF01F0F2FDB148A6
:10296000FEF76EFB70B1AE4800680078C00909D070
:10297000AB480068007820F08000A9490968087019
:1029800001F076FDA848FEF75BFB98B100209E4958
:1029900008709A49087003209A4908700020009036
:1029A00003463C22012101900620FDF769FD00202D
:1029B000934908709D48FEF743FB58B101209249A6
:1029C000087004208F49087001208C49087000208D
:1029D0008B4908709648FEF733FB80B102208A4984
:1029E00008700420874904E0AAE0A8E038E01FE06E
:1029F00006E008700120814908708149087066E18D
:102A0000FFF7ADFB7848FEF71BFB30B1022075499C
:102A100009680870002012F032F97448FEF710FBC4
:102A200028B100206F490968087012F028F94EE1BA
:102A3000FEF7ADFD6C48FEF703FB28B100206949A5
:102A40000968087012F01BF96848FEF7F9FA30B10E
:102A50000120644909680870002012F010F936E17D
:102A6000FEF76CFC6048FEF7EBFA28B100205D49E8
:102A70000968087012F003F95C48FEF7E1FA28B122
:102A8000002058490968087012F0F9F86948FEF703
:102A9000D7FA30B168480078A0F10100674981F8A1
:102AA00028006748FEF7CCFA30B166480078A0F1FC
:102AB0000100624981F824006348FEF7C1FA30B191
:102AC00062480078A0F101005C4981F8200060486C
:102AD000FEF7B6FA30B15F480078A0F1010057491F
:102AE00081F82C005C48FEF7ABFA30B15248007810
:102AF00000F10100514981F828005848FEF7A0FA7A
:102B000030B15048007800F101004C4981F82400B0
:102B10005348FEF795FA30B14C48007800F10100B7
:102B2000464981F820004F48FEF78AFA30B14948FB
:102B3000007800F10100414981F82C00C7E0C6E0AF
:102B4000FEF751FB2848FEF77BFA28B10020254903
:102B50000968087012F093F82448FEF771FA28B15A
:102B6000002020490968087012F089F83148FEF702
:102B700067FA38B13C4948684FF07E5115F073F957
:102B8000394948602E48FEF75BFA38B13649086883
:102B90004FF07E5115F067F9334908602A48FEF777
:102BA0004FFA30B13049C868304915F05CF92E4908
:102BB000C8602748FEF744FA30B12B4988682B4992
:102BC00015F051F9284988602348FEF739FA38B1E1
:102BD000254948684FF07E5115F0F3F8224947E047
:102BE00047E0000078030010680000107200001039
:102BF000860000107C0000109A00001053000010A6
:102C0000520000105100001050000010A4000010ED
:102C1000AE000010B8000010C2000010CC00001080
:102C200080030010F4000010D6000010E000001037
:102C3000EA000010940100102840024000400240C9
:102C40009E01001024400240A801001020400240D4
:102C5000B20100102C400240BC010010C60100105F
:102C6000D0010010DA0100104004001000002041E3
:102C700048605C48FEF7E4F938B15B4908684FF0FA
:102C80007E5115F09EF8584908605848FEF7D8F96B
:102C900030B15549C868564915F093F85249C86093
:102CA0005448FEF7CDF930B14F498868504915F0C6
:102CB00088F84D4988605048FEF7C2F928B14A4863
:102CC000007CC0F101004849087400BF00BF00BF8C
:102CD0001CBD10B500F0DEF802F099FC10BD10B577
:102CE0004FF4FC631F2245A14848FEF7FBF94FF45F
:102CF000FC631F2246A14D48FEF7F4F910BD10B544
:102D00004FF4FC631F223DA14048FEF7EBF94FF45E
:102D1000FC631F2246A14548FEF7E4F94FF6FF7118
:102D20004848FEF715FC10BD10B54FF4FC631F2298
:102D300032A13648FEF7D6F94FF4FC631F2242A1B8
:102D40003A48FEF7CFF94FF6FF713E48FEF700FC18
:102D50004FF6FF714348FEF7FBFB10BD10B54FF473
:102D6000FC631F2225A12948FEF7BCF94FF4FC6340
:102D70001F223DA12D48FEF7B5F94FF6FF713148EE
:102D8000FEF7E6FB4FF6FF713648FEF7E1FB4FF624
:102D9000FF713B48FEF7DCFB10BD10B54FF4FC6340
:102DA0001F2238A11948FEF79DF94FF4FC631F223A
:102DB00036A11E48FEF796F94FF6FF712148FEF73F
:102DC000C7FB4FF6FF712748FEF7C2FB4FF6FF71B6
:102DD0002B48FEF7BDFB4FF6FF712948FEF7B8FB05
:102DE00010BD0000C601001040040010D00100100A
:102DF00000002041DA0100108A01001043415247CF
:102E0000414E444F202E2E2E00000000E8020010FC
:102E1000507265706172616E646F20656C207369B9
:102E20007374656D612E2E2E00000000F2020010FA
:102E3000437265616E646F206D7565737472617342
:102E40002E2E2E00FC02001042757363616E646FBB
:102E500020636F6E6578696F6E205443502E2E2E5E
:102E60000000000006030010496E696369616E642A
:102E70006F206D6F64756C6F732E2E2E0000000036
:102E8000100300104341524741444F003130302578
:102E90000000000000B589B002208DF81E0000205F
:102EA0008DF820008DF81F008DF81C0007208DF88C
:102EB0001D0007A802F0A6F808208DF81D0007A83D
:102EC00002F0A0F809208DF81D0007A802F09AF87A
:102ED00000208DF81E008DF81C0006208DF81D00C6
:102EE00007A802F08FF800208DF81E0002208DF850
:102EF0001C000D208DF81D0007A802F083F80022A9
:102F00004FF40051022002F0DFF84FF4005102208C
:102F100002F0EEF801224021002002F0D5F8402115
:102F2000002002F0E5F801A801F046FDFE480690F9
:102F300001A9FE4801F0DFFC0121FC4801F047FD3A
:102F400009B000BD70B50446FDF7CAF8002507E0DA
:102F50000C2000BF0100A0F10102D0B2FAD16D1C1B
:102F6000A542F5D370BD10B5044600BF1021EF484F
:102F700001F0E6FE0128F9D02146EC4801F08FFD72
:102F800000BF0421E94801F0DBFE0028F9D0E74842
:102F900001F097FDC0B210BD70B50020FFF7E3FF50
:102FA00005464FF6FF7000EA05240120FFF7CAFF2F
:102FB0000020FFF7D8FF05462C43E410C4F30B04B0
:102FC000204670BD10B54020D949C8610120FFF7E7
:102FD000B9FF9020FFF7C7FF0120FFF7B3FFFFF70E
:102FE000DBFF04464020D2498861204610BD10B561
:102FF0004020CF49C8610120FFF7A4FFD020FFF790
:10300000B2FF0120FFF79EFFFFF7C6FF04464020F6
:10301000C7498861204610BD2DE9F04104460D46A0
:10302000FFF7D0FF06460120FFF78CFFFFF7DFFF19
:10303000074626602F60BDE8F08170B504460D4656
:103040004FF478422946204612F0D7FF611C88B21F
:103050004FF47842294612F0D0FF681C81B24FF439
:103060007842204612F0C9FF6A1C91B2621C90B2ED
:103070004FF4784212F0C1FF70BDF8B504460D461A
:103080004FF6FF70A11E8AB20D39009088B22B4610
:10309000294613F03EFA4FF6FF7004F10F018AB291
:1030A000A11C009088B22B46294613F032FA4FF645
:1030B000FF700090A81E83B20D3881B222462046D0
:1030C00013F027FA4FF6FF70009005F10F0083B25E
:1030D000A81C81B22246204613F01BFA4BF6F040A2
:1030E00005F10F06B3B2E61FB2B205F10F06B1B299
:1030F000A4F10F060090B0B213F00BFA4BF6F040BB
:1031000005F10F06B3B2A4F10F06B2B2EE1DB1B2D3
:10311000A4F10F060090B0B213F0FBF94BF6F040AB
:10312000A5F10F06B3B2E61FB2B2A5F10F06B1B218
:10313000A4F10F060090B0B213F0EBF94BF6F0409B
:10314000A5F10F06B3B2A4F10F06B2B2EE1FB1B2F1
:10315000A4F10F060090B0B213F0DBF94BF6F0408B
:1031600005F10F06B3B204F10F06B2B205F10F0676
:10317000B1B2E61D0090B0B213F0CBF94BF6F040BF
:1031800005F10F06B3B204F10F06B2B2EE1DB1B2F3
:1031900004F10F060090B0B213F0BBF94BF6F0400B
:1031A000A5F10F06B3B204F10F06B2B2A5F10F06F6
:1031B000B1B2E61D0090B0B213F0ABF94BF6F0409F
:1031C000EE1FB3B204F10F06B2B2A5F10F06B1B211
:1031D00004F10F060090B0B213F09BF9F8BDF0B502
:1031E00097B000274821684614F052FB00BF15A98C
:1031F00016A8FFF711FF16984DF8270009A8159992
:1032000040F82710781CC7B24948406D10F4005FA1
:1032100001D1092FEBDB092F7ED1DDE90001084444
:1032200002990844032190FBF1F01290DDE90301BB
:10323000084405990844032190FBF1F01390DDE95F
:103240000601084408990844032190FBF1F014900A
:10325000DDE91201441ADDE91301451A12991498A7
:10326000461A002C01DD204600E060420446002D95
:1032700001DD284600E068420546002E01DD3046AB
:1032800000E070420646502C06DD502D04DD502E25
:1032900002DD002017B0F0BDAC4215DAA64209DA13
:1032A000149A1299881800EBD071C1F34F01214A8A
:1032B00011801EE0DDE91212881800EBD071C1F315
:1032C0004F011C4A118014E0AE4209DA149A129997
:1032D000881800EBD071C1F34F01164A118008E045
:1032E000DDE91312881800EBD071C1F34F01114AC8
:1032F0001180DDE9091001440B980844032190FB7B
:10330000F1F01290DDE90C1001440E9808440321FD
:1033100090FBF1F0139000E063E0DDE90F10014451
:1033200011980844032107E020A107000000034092
:1033300000C009206C03001090FBF1F01490DDE94F
:103340001201441ADDE91301451A12991498461A1C
:10335000002C01DD204600E060420446002D01DD26
:10336000284600E068420546002E01DD304600E0B8
:1033700070420646502C05DD502D03DD502E01DD38
:10338000002087E7AC4215DAA64209DA149A1299AE
:10339000881800EBD071C1F34F01C24A51801EE082
:1033A000DDE91212881800EBD071C1F34F01BD4A5C
:1033B000518014E0AE4209DA149A1299881800EB91
:1033C000D071C1F34F01B74A518008E0DDE9131213
:1033D000881800EBD071C1F34F01B24A5180B14857
:1033E00058E7002056E72DE9F04705460C461646FB
:1033F0004FF0000921882289891AE38862899A1A84
:103400005143A2882389D31A67886289BA1A03FBB9
:10341000121014F03AFFC6E90C0100221346D6E957
:103420000C71384614F0C8FF02D14FF0010989E051
:1034300029882A89891AE38862899A1A5143AA88B5
:103440002B89D31A67886289BA1A03FB121014F009
:103450001CFFC6E9000121882289891AAA882B89C4
:10346000D21A51432A88D21AA3882789DB1B02FB70
:10347000131014F00AFFC6E902012189AA885143FA
:10348000A2882B8902FB13116288514322885A4378
:1034900023892F8803FB1723E28803FB0212A188EC
:1034A00079432388AF8803FB1713618903FB01204D
:1034B00014F0EBFEC6E904016A886989511AE388B1
:1034C00062899A1A5143EB886A899B1A67886289D4
:1034D000BA1A03FB121014F0D8FEC6E906012188BF
:1034E0002289891AEB886A899A1A51436B886A89FA
:1034F0009A1AA3882789DB1B02FB131014F0C5FE60
:10350000C6E908012189EA885143A3886A8903FB37
:1035100012116288514322886B895A4323896F882C
:1035200003FB1723E28803FB0213A1887943278852
:10353000EA8807FB1212618902FB013014F0A5FE34
:10354000C6E90A014846BDE8F0872DE9F04F8BB087
:103550008246894614464FF0000B00221346D4E9F8
:103560000C51284614F028FF60D0B9F8020014F07E
:103570009DFE0546D4E902733A4614F097FDCDE965
:103580000201B9F8000014F091FE0746D4E9005397
:103590002A4614F08BFDCDE90001DDE9022314F089
:1035A000DEFCCDE90401D4E904532A4614F0D7FC2B
:1035B000CDE90601D4E90C532A4614F0E9FDCDE922
:1035C000080114F0CCFEAAF80000B9F8020014F0CB
:1035D0006DFE0746D4E908532A4614F067FDCDE98D
:1035E0000201B9F8000014F061FE0746D4E9065361
:1035F0002A4614F05BFDCDE90001DDE9022314F059
:10360000AEFCCDE90401D4E90A532A4614F0A7FC24
:10361000CDE90601D4E90C532A4614F0B9FDCDE9F1
:10362000080114F09CFEAAF8020001E04FF0010B23
:1036300058460BB0BDE8F08F38B5002427E00020D5
:1036400011F01DFB00204FF6FF7317A20A21009016
:10365000084613F00DF81C48FFF774FC1B4A02EBF8
:1036600084025188194A32F82400FFF706FD00BF92
:10367000FFF7B5FD0546002DFAD02888144921F83A
:103680002400688801EB84014880601CC4B2032CCC
:10369000D5DB104A0E490D48FFF7A5FE002011F0BA
:1036A000EEFA38BD6C030010546F756368206372C6
:1036B0006F73736861697220746F2063616C6962F3
:1036C000726174650000000020A107006003001013
:1036D00070040010280300102DE9F047B14800687D
:1036E000C0F3016003287CD1AF48006810F00300EC
:1036F00006D0012833D002285FD003282ED100E065
:1037000000BFA8480068C0F3074000F101044FF073
:103710000201A648D0F88800C0F30E0000F10100B5
:10372000A1FB0001A24B4FF0000CA0FB037901FBB1
:10373000039100FB0C1122466346384614F05EF8F4
:1037400005469C480068C0B200F1010422464FF0D3
:103750000003284614F052F8974908605DE091484C
:103760000068C0F3074000F101044FF002018F48E8
:10377000D0F88800C0F30E0000F10100A1FB00109A
:103780008E4A4FF0000CA1FB027900FB029001FB76
:103790000C0122466346384614F030F80546854849
:1037A0000068C0B200F1010422464FF00003284631
:1037B00014F024F8804908602FE07A480068C0F3CC
:1037C000074000F101044FF002017848D0F888006A
:1037D000C0F30E0000F10100A1FB00124FF4004005
:1037E00000E01BE04FF00003A1FB007902FB00901A
:1037F00001FB03012246384614F000F805466D48E7
:103800000068C0B200F1010422464FF000032846D0
:1038100013F0F4FF6849086000BF2FE062480068B9
:1038200010F0030006D0012810D0022819D0032878
:1038300023D100E000BF5F480068C0B200F1010082
:103840005B49B1FBF0F05C49086016E0594800683C
:10385000C0B200F101005949B1FBF0F056490860CF
:103860000BE054480068C0B200F101004FF4004181
:10387000B1FBF0F05049086000BF00BFBDE8F08721
:1038800020204F4908604948D0F8A00110F0200FCF
:1038900005D000BF4A48006810F0400FFAD003205E
:1038A000444908604FF000004049C1F8A80145496B
:1038B00008604FF001003C490860434843490860F4
:1038C0004FF0AA00424908604FF0550008604FF0E1
:1038D0000100404908604FF0AA003D4908604FF0E0
:1038E00055003249C1F88C0000BF2E48006810F026
:1038F000806FFAD00320374908604FF0AA002B49A7
:10390000C1F88C004FF055003149086000BF2548D0
:10391000006800F04070B0F1407FF8D123202E49BC
:1039200008604FF0AA002149C1F8AC004FF05500E3
:103930002A4908604FF00100294908604FF0AA00A9
:10394000264908604FF055001849C1F8AC0000BF87
:103950002448006810F4806FFAD0032020490860E2
:103960004FF0AA001149C1F8AC004FF055001B49B7
:10397000086000BF1B48006800F44070B0F5407F4D
:10398000F8D11948194908604FF000000749C1F8FB
:10399000C8010846006820F4704040F48040086088
:1039A0007047000088C00F400CC10F4000C00F409E
:1039B00000093D0004C10F4088030010001BB70040
:1039C000A0C10F40ACC10F406300050084C00F4090
:1039D0008CC00F4080C00F40A4C00F40ACC00F404F
:1039E000A0C00F40A8C00F40DE872804C4C00F400D
:1039F00004204249096808700020414909680860AC
:103A00003F49096888603E49096848603C4909683F
:103A1000C8613B490968C860002139480068816174
:103A20000020374909680861002135480068416174
:103A3000344835490860354848603548886035481D
:103A4000C8600A2048610020087470471CB5FFF761
:103A500040F9002011F013F9FFF741F9FFF7C8FF13
:103A6000002011F00CF9FFF74AF9002011F007F9D6
:103A7000FFF75AF9FCF70AFC002011F000F9FFF7F4
:103A80006DF900F05DF800F083F800F0E1FBFCF761
:103A90001FFC00F0D1FCFCF783FD4FF408511948DE
:103AA000FCF72EFC1C481D495A230022CDE90010CA
:103AB00011460220FCF7E4FC00200090034632226D
:103AC000012101900620FCF7DBFC00F039FD00F03D
:103AD0002EFE00F078FAFCF717FB12F0F3FD13F05E
:103AE0007EFC002011F0CBF8FFF757F9002011F011
:103AF000C6F800200149096808701CBD7803001051
:103B0000740300100000484240040010000020C16F
:103B10000080BB440000FA436F12033B6F12833AEC
:103B200010B5002807DACA06140EFC4A00F00F038D
:103B30001B1FD45403E0CA06130EF94A135410BDD8
:103B400010B5F84800680A21B0FBF1F0401E4FF0B4
:103B5000E021486107200861F24800680A21B0FBB3
:103B6000F1F4B4F1807F00D311E024F07F40401ED7
:103B70004FF0E02148611F214FF0FF30FFF7D0FFE9
:103B800000204FF0E02188610720086100BF10BDD0
:103B900010B5E548006840F44100E449C1F8C400AC
:103BA0000846D0F8C40040F00200DF4908604FF03A
:103BB00003004FF0402148614FF00000C860084604
:103BC000406840F001004860D94888614FF0010129
:103BD0000846FFF7A5FF01200121814042094FF06F
:103BE000E02303EB8202C2F8001100BF10BD1CB538
:103BF0001AF0E2F8CF48406900EB80004000CE495F
:103C00000988884205D9CC480088401CCA490880E8
:103C10000FE0CA48007860B10020C9490870C74960
:103C20000870009003460122114601900620FCF71F
:103C300027FC1CBD2DE9F0414FF0402000684FF0FB
:103C400040210860BF480078052190FBF1F201FB9C
:103C50001207384614F00BFB06464FF07E5114F065
:103C600008F905464FF07C5114F039F9044600215B
:103C700014F0D2FB35D1B448806A40F00500B24957
:103C800088620846806A40F03000886200F05BFA83
:103C900013F036FCAD4800680078C0F3400078B9F6
:103CA000AB48007860B10020AA490968C861A748FC
:103CB0000068007820F00100401CA44909680870E1
:103CC000A2480068007820F00200A0490968087046
:103CD0009E480068407820F00100401C9B4909681C
:103CE0004870BDE8F08170B5002014F0C0FA0546B8
:103CF0004FF07C5114F0F3F80446002114F08CFBD3
:103D000022D1924800680078C0F3C000E0B190482A
:103D10000078C8B18448006840F480508349C1F8F5
:103D2000C4008A480068007820F0080087490968C4
:103D300008708948006820F0C0608749086008461C
:103D4000006840F48030086070BD2DE9FC4179487E
:103D5000007C002869D1774A11687E4A1268106891
:103D600014F064FB1AD87D487D49B4230022CDE9C4
:103D7000001011460220FCF783FB744800680078AD
:103D8000C0090BD071480068007820F080006F49AE
:103D90000968087000F08EFC00F0D3FB654A51689A
:103DA0006C4A1268106814F037FB1AD86B486C49DB
:103DB00000231A46CDE9001019460220FCF760FBEB
:103DC000624800680078C0090BD06048006800783D
:103DD00020F080005D490968087000F0E1FC00F007
:103DE000B0FB544A5168106814F03DF80746514A38
:103DF0005168584A1268106814F035F880465949DD
:103E000014F037F80646394614F069F8054614F000
:103E100073FAC4B25148524923460022CDE900103A
:103E200011460220FCF72CFB68E0424A9168494A9F
:103E30001268506814F0FAFA1AD848484849B4236E
:103E40000022CDE9001011460220FCF719FB3F4883
:103E500000680078C0090BD03C480068007820F06A
:103E600080003A490968087000F024FC00F069FB02
:103E7000304AD168374A1268506814F0CDFA1AD81F
:103E80003648374900231A46CDE90010194602206A
:103E9000FCF7F6FA2D4800680078C0090BD02B48D3
:103EA0000068007820F0800028490968087000F058
:103EB00077FC00F046FB1F4AD168906813F0D3FFEF
:103EC00007461C4AD168234A1268506813F0CBFF9A
:103ED0008046244913F0CDFF0646394613F0FFFF14
:103EE000054614F009FAC4B21C481D4923460022B5
:103EF000CDE9001011460220FCF7C2FABDE8FC81B2
:103F000010B5FFF797FEFFF7EEFE0E480078401C55
:103F10000C490870FFF719FF10BD000018ED00E014
:103F200000E400E088030010C4C00F4000C00F4050
:103F30001FBCBE004004001094030010520000108B
:103F4000530000108C03001000800040800300101C
:103F5000AC03001074030010004003406F12033BD9
:103F60006F12833A0000344310B50A480068C4B2A7
:103F700014F0100F01D0FCF711F914F0020F01D06A
:103F800000F0F3FA034800680249086010BD70476A
:103F90007047000000800040A44988680221A34ABD
:103FA0005160012151607047A148006840F4000051
:103FB000A049C1F8C4004FF000009C4908674FF0C9
:103FC0001800C860704700B5FFF7EEFFFFF7E4FF89
:103FD00000BD30B500250023002448E0FFF7DCFFDA
:103FE00000BF9548406BC0F3C04018B98F48806847
:103FF0006428F6D3FFF7D0FF0346904801680068B5
:10400000401C8E4A10608E4840F82130282B01D386
:10401000432B01D9002030BD0023FFF7BDFF00BFB7
:104020008548406BC0F3C04018B180488068642860
:10403000F6D3FFF7B1FF0346804801680068401CD3
:104040007E4A10607E4840F821303C2B08D9502B26
:1040500006D2C4F10701012088402843C5B205E01B
:104060000A2B01D3642B01D90020D4E7641C082C4F
:10407000B4DB2846CFE700B50023FFF78DFF00BF74
:104080006D48406BC0F3C04018B1684880682D2867
:10409000F6D3FFF781FF0346684801680068401CBB
:1040A000664A1060664840F82130052B01D32D2B5D
:1040B00001D9012000BDFFF76FFF00BF5E48406BD4
:1040C000C0F3C04018B9594880686428F6D3FFF798
:1040D00063FF0346594801680068401C574A106056
:1040E000574840F82130462B01D35A2B01D90120E3
:1040F000E0E7FFF751FF00BF4F48406BC0F3C040FF
:1041000018B14A4880686428F6D3FFF745FF034694
:104110004A4801680068401C484A1060484840F816
:104120002130462B01D35A2B01D90120C2E70020B0
:10413000C0E700B50346FFF72FFF00BF3B4880688C
:104140009842FBD300BD2DE9F84F002000900024D9
:1041500082463A4908603B4908703748006A40F493
:104160000020354908624FF40020C86344F25060D3
:10417000FFF7DFFF3048006A20F400202E49086274
:10418000FFF779FF08B1BDE8F88F4FF0000908E0AC
:10419000FFF71FFFC9F10301C9008840044309F17B
:1041A0000109B9F1040FF3DBFFF713FF8246200E7C
:1041B0008DF80000200C8DF80100200A8DF8020017
:1041C000E0B28DF803009DF800009DF8011008444E
:1041D0009DF8021008449DF803100844194908701E
:1041E0000846007850451ED14FF6FF7101EA144091
:1041F00014F05CF807460022134B13F0C9FF054684
:1042000014F0EEF8114909688860A0B214F04EF875
:10421000074600220C4B13F0BBFF054614F0E0F8F4
:104220000A490968086000BFADE700000040094086
:10423000C4C00F4000C00F4000C009209803001008
:10424000B00400109C030010000024407403001010
:104250006748006840F480506649C1F8C400664869
:10426000406840F48030644948600846406C20F45F
:104270004030486461480068614940EA01005F4994
:1042800008600846C06840F00200C8605D480068E9
:10429000007820F0080000F108005A490968087009
:1042A0005648C06820F480705449C8604FF016002A
:1042B0004FF0010101FA00F14FEA50124FF0E023F4
:1042C00003EB8202C2F8001100BF70472DE9FC5FCA
:1042D0004D480078002865D0012862D14748006821
:1042E00020F48030454908604969C1F30B1013F090
:1042F000C7FF4649086046494448006813F0EFFD8F
:10430000424908600846006814F042F80646002258
:10431000404B13F0C8FE04460D463C48006814F0BC
:1043200037F8064600223C4B13F0C0FE804622467A
:104330002B4613F02DFF824614F052F833490860E3
:104340000020009003460190344802682032032187
:104350002E48006800F032F928498969C1F30B1032
:1043600013F08EFF2E4908600846006814F010F81C
:10437000804600222B4B13F099FE064600222A4B62
:1043800013F006FF044614F02BF824490968C860AE
:104390001C480068007820F00800083019490968B6
:1043A000087022E015480069C0F307201F49204A21
:1043B000126888541E4801680068401C1C4A10603E
:1043C00043F67F6081420FD30020114608601949EF
:1043D00048610C480068007820F08000803009496E
:1043E0000968087000F081F800BF00BFBDE8FC9FBD
:1043F000C4C00F4000C00F4000C002400040034056
:1044000002FF210080030010AC030010A003001085
:1044100000F07F450000F03F008051407403001021
:10442000A40300100080404000FEAF40D007001001
:10443000A8030010008000403A48406840F48040E3
:104440003849486040F63440374988610220486066
:10445000012048600020486102200121814042097A
:104460004FF0E02303EB8202C2F8001100BF704757
:1044700000202E49087001202D4908702D48006841
:104480002D4908602B48C0682C4908600120294943
:10449000C8600846006820F0FF0008600846006811
:1044A00040F0010008600846006820F47F40086082
:1044B0000846006840F4807008600846006820F4F0
:1044C000803008600846006820F0E0600860084618
:1044D000006840F0C06008600220134948614860ED
:1044E000012048603120C8637047114800780128D6
:1044F00016D1114800680F49086010480068C8606C
:104500000846006820F0E06008600846006840F453
:104510007F400860012005490870002004490870A8
:104520007047000000C0024000800040AC03001053
:104530008D03001000400340B0030010B4030010CE
:1045400070471848006840F001001749C1F8100191
:104550004FF01800154948611548C8614FF0020036
:1045600048604FF00100486070470E48006820F036
:1045700001000D49C1F810010E480068007820F0D4
:10458000800000F180000B49096808700748406905
:1045900020F03800054948614FF0000006490860E6
:1045A0007047000010410050004000500080004063
:1045B00080F0FA028003001000C008402DE9FC5F83
:1045C00081468A4614469B46BAF1000F09D0BAF1DB
:1045D000010F24D0BAF1020F3DD0BAF1030F57D129
:1045E0003CE02D49087813F04BFE4FF07E510190CE
:1045F000484613F038FC8046284913F070FC074603
:10460000019913F036FC064613F076FEC0B2401C4A
:1046100021490D5C284613F033FE206039E0204923
:10462000087813F02DFE07464FF07E51484613F0F0
:104630001AFC8046194913F052FC0646394613F01D
:1046400018FC054613F058FEC0B2401C1449085C23
:104650008BF800001DE0C4F800901AE0484613F003
:1046600097FE104A104BCDE9000113F01FFD0746DD
:104670000E4A0F4B13F073FC054613F0B1FE206099
:104680000021206813F0C8FE01D20020206000BF86
:1046900000BF00BFBDE8FC9FC60300100000C6427B
:1046A000B80300100BB5A679C729F0BFA835CD3BDC
:1046B0004E8159405C485D4908605D484860084645
:1046C00088605C48C8605C48006840F000505B4906
:1046D000C1F8C4004FF00100594908634FF0400091
:1046E0004863514857490860574801F10401086080
:1046F0004E4801F104010860544801F104010860CA
:104700004FF41C6001F1040108604FF4F460484963
:1047100008814FF00E0048604D480068007820F096
:10472000800000F180004A490968087070472DE94F
:10473000F04786B04FF0000A24E0504613F0A5FD84
:104740000646444A444B13F0B1FC0022434BCDE9EA
:10475000000113F01DFD044618F0D0FA0022404B72
:10476000CDE9020113F0A2FC804600223C4B13F07D
:10477000F6FBCDE9040113F0D3FD2B4901F80A0043
:104780000AF1010ABAF1200FD7DB3648406840F43D
:10479000001034494860FFF78DFF06B0BDE8F08790
:1047A00010B53048406840F400102E4948601E485B
:1047B0001E4908601E484860084688601D48C86059
:1047C0001D48006840F000501C49C1F8C4004FF07B
:1047D00001001B4908634FF0400048632248194913
:1047E0000860194801F104010860104801F1040152
:1047F00008601E4801F1040108604FF41C6001F1DB
:10480000040108601A4813F077FD094908810E2059
:1048100048600F480068007820F0800080300C4924
:104820000968087010BD0000604600105046001076
:1048300000C0084020004804C4C00F4000C00F4022
:10484000004000500041005002C008402000000419
:10485000800300107A008BFCFA21194000004040D0
:1048600000C05F4000C00240D0070010803E4004FE
:104870001FBC3E4B2DE9F04704468846FB48844266
:1048800002D0FB48844200D103E04321F9A000F0AC
:1048900087FEF648844204D12A2000F01EFE074617
:1048A00009E0F348844204D1142000F016FE0746C4
:1048B00001E0BDE8F08700254FF0FF3902260AE04D
:1048C000681C7043B7FBF0F9C14504D96D1CFF2D7E
:1048D00001D90025B61CC145F2D82068C0B22060BD
:1048E00020684FF6FF7101EA052108432060F0B20D
:1048F000206100BFDDE770B504460D46DB48844209
:1049000002D0DB48844200D103E08121D9A000F02D
:1049100047FED648844204D10121480500F0FAFD43
:1049200008E0D348844204D10121001500F0F2FDD3
:1049300000E070BDA88829890843298A084329888E
:10494000084386B22660287B00F00F06666020468A
:104950006969FFF78FFF00BFEBE710B50446C34856
:10496000844202D0C248844200D103E0A821C1A001
:1049700000F016FEBD48844205D100214FF400101E
:1049800000F0C8FD06E0BA48844203D100210015BA
:1049900000F0C0FD10BD10B50446B448844202D0FA
:1049A000B348844200D103E0C021B2A000F0F8FD7A
:1049B000206800F00F0010BD002141608160B74900
:1049C0004161072101600021C1600161704770B53C
:1049D00004460D46A548844202D0A548844200D131
:1049E00003E0E521A3A000F0DBFD0DB1012D00D116
:1049F00003E0E6219FA000F0D3FD012D04D1606803
:104A000040F00200606003E0606800F00D0060604C
:104A100070BD70B504460D469448844202D0944857
:104A2000844200D103E0FE2192A000F0B9FD0DB157
:104A3000012D00D103E0FF218EA000F0B1FD012D7A
:104A400004D1606840F00100606003E0606800F03D
:104A50000E00606070BD70B504460D468348844208
:104A600002D08348844200D104E04FF48D7181A0CC
:104A700000F096FD0DB1012D00D104E040F21B11B4
:104A80007CA000F08DFD012D04D1606800F00700CE
:104A9000606003E0606840F00800606070BD70B561
:104AA00004460D467148844202D07148844200D1C8
:104AB00004E04FF49A716FA000F072FDA8B2A060FC
:104AC00070BD10B504466948844202D068488442EB
:104AD00000D104E04FF4A27166A000F061FDA0686F
:104AE00080B210BD2DE9F74F82B006460C4600207B
:104AF000E0606060606103E03046FFF7E2FF074678
:104B0000F06810F0040FF7D1032030623046FFF751
:104B100042FF082801DD012500E000250498002857
:104B20007AD125B9D4F80890D4F800A003E0D4F8DD
:104B300008B02068019060E0F06810F0020F2ED0FD
:104B40002169606888422AD0206888B93DB9FF2170
:104B50003046FFF7A4FF6068401C60601FE04FF61E
:104B6000FF713046FFF79BFF6068801C606016E0B5
:104B700055B99AF800103046FFF791FF0AF1010A83
:104B80006068401C60600AE0019801883046FFF7C9
:104B900086FF0198801C01906068801C6060D6F8D8
:104BA000188018F0010F07D048F4007060614FF0D2
:104BB000FF3005B0BDE8F08F17E03046FFF781FF0A
:104BC0000746A06848B125B989F8007009F10109C4
:104BD00003E0ABF800700BF1020B1DB9E068401C5C
:104BE000E06002E0E068801CE060F06810F0040F14
:104BF00003D0D4E903018842DFD12169606888428B
:104C00009AD1D4E90301884296D14FF48070606153
:104C1000206810B16068CCE705E0A06808B1E068E2
:104C2000C7E70020C5E7049801287DD16BE0206824
:104C300088B93DB9FF213046FFF731FF6068401C5D
:104C4000606036E04FF6FF713046FFF728FF60687E
:104C5000801C60602DE01DBBD4E90002815C304601
:104C6000FFF71DFF6068401C606022E00080084084
:104C7000000003402E2E5C4D656E755C4669726DBA
:104C8000776172655C736F757263655C6C706331BC
:104C90003778785F7373702E6300000040420F0016
:104CA000D4E90002815A3046FFF7F9FE6068801CA3
:104CB0006060D6F8188018F0010F05D048F4007035
:104CC00060614FF0FF3074E715E03046FFF7F9FE02
:104CD0000746A06838B11DB9D4E902128F5402E02A
:104CE000D4E902128F521DB9E068401CE06002E076
:104CF000E068801CE060F06810F0040F03D0D4E995
:104D000003018842E1D1F06810F0020F03D021695D
:104D1000606888428BD1D4E90301884203D12169BC
:104D20006068884204D000E007E00F20706102E074
:104D30004FF48070606100203BE74FF0FF3038E7B0
:104D400070B505460C467748854202D076488542C4
:104D500000D105E04FF40571AFF2E80000F020FC4F
:104D6000012C07D0022C05D0042C03D0082C01D034
:104D7000102C00D105E040F21521AFF2081000F030
:104D80000FFCE868204201D0012070BD0020FCE744
:104D900070B504460D4616466248844202D0624809
:104DA000844200D105E04FF40B71AFF2381000F0EF
:104DB000F7FB012E03D160692843606104E060695C
:104DC0000F21A9430840606170BD70B505460C46CF
:104DD0005448854202D05448854200D105E040F253
:104DE0004921AFF2701000F0DBFB012C05D0022C42
:104DF00003D0042C01D0082C00D105E040F24A2158
:104E0000AFF2901000F0CCFBA869204201D0012045
:104E100070BD0020FCE710B504464248844202D031
:104E20004148844200D105E04FF41671AFF2BC1046
:104E300000F0B6FBA06910BD70B505460C463948B8
:104E4000854202D03848854200D105E040F26D210C
:104E5000AFF2E01000F0A4FB012C05D0022C03D02F
:104E6000042C01D0082C00D105E040F26E21AFF2F5
:104E7000FC1000F095FBE869204201D0012070BDD4
:104E80000020FCE770B504460D462648844202D057
:104E90002548844200D105E040F28121AFF22C2068
:104EA00000F07EFB012D01D0022D00D105E040F283
:104EB0008221AFF2402000F073FB256270BD70B517
:104EC00004460D4616461748844202D016488442CE
:104ED00000D105E040F29721AFF2682000F060FBBE
:104EE000022D01D0012D00D105E04FF42671AFF263
:104EF0007C2000F055FB0EB1012E00D105E040F200
:104F00009921AFF2902000F04BFB012E03D1606A93
:104F10002843606204E0606A0321A943084060629C
:104F200070BD00000080084000000340F0B504465A
:104F30000B461546194660003B4A102901D310392B
:104F4000401C52F820604FEA410C032707FA0CF787
:104F5000BE4342F8206052F820604F0005FA07F780
:104F60003E4342F82060F0BDF0B504460B461546BE
:104F7000194660002C4A4032102901D31039401CD8
:104F800052F820604FEA410C032707FA0CF7BE43A2
:104F900042F8206052F820604F0005FA07F73E43C0
:104FA00042F82060F0BD30B50B461F496831012A38
:104FB00007D151F8204001259D402C4341F8204065
:104FC00006E051F8204001259D40AC4341F82040C7
:104FD00030BD012806D11449896A41F00801124AFE
:104FE000916206E028B91049896A21F008010E4A49
:104FF00091627047012800D1052201B90A220A4BAB
:10500000DA67704710B50446A27861782078FFF718
:105010008DFFE27861782078FFF7A6FF227961782A
:105020002078FFF7C0FF10BD00C0024001460020FD
:10503000052912D2DFE801F00305080B0E00F8483D
:105040000CE0F748203009E0F548403006E0F4482D
:10505000603003E0F248803000E000BF00BF7047DE
:1050600001460020052912D2DFE801F00305080BF4
:105070000E00EB480CE0EA48203009E0E8484030F8
:1050800006E0E748603003E0E548803000E000BF1C
:1050900000BF704701460020052912D2DFE801F069
:1050A0000305080B0E00DE480CE0DD48203009E067
:1050B000DB48403006E0DA48603003E0D848803012
:1050C00000E000BF00BF70472DE9F04107460D46E4
:1050D00016463846FFF7AAFF04463CB11EB12068C9
:1050E0002843206002E02068A8432060BDE8F081EA
:1050F00070B506460C463046FFF798FF054605B1E9
:10510000AC6170BD70B506460C463046FFF78EFFA9
:10511000054605B1EC6170BD70B505462846FFF740
:1051200085FF04460CB1606970BD0020FCE718B92A
:1051300012B9BC4B196014E0022803D112B9BA4B62
:1051400019600EE020B9012A02D1B84B196008E0BD
:10515000022804D1012A02D1B54B196001E000BF39
:10516000FEE7704703463BB932B9B248006820FAFF
:1051700001F000F001007047022B07D132B9AE48B0
:10518000006820FA01F000F00100F4E743B9012AB9
:1051900006D1AA48006820FA01F000F00100EAE711
:1051A000022B08D1012A06D1A548006820FA01F097
:1051B00000F00100DFE700BFFEE710B9A14A11606F
:1051C00006E0022802D1A04A116001E000BFFEE71C
:1051D000704770B504460D461646324629462046AD
:1051E000FFF772FF70BD70B504460D462946204694
:1051F000FFF77EFF70BD70B504460D462946204678
:10520000FFF780FF70BD10B504462046FFF784FF0E
:1052100010BD70B504460D46164632462946204656
:10522000FFF785FF70BD70B504460D461646324641
:1052300029462046FFF796FF70BD10B503460C4681
:1052400021461846FFF7B9FF10BD2DE9F04107468A
:105250000D4616463846FFF7E9FE04463CB11EB13E
:1052600020692843206102E02069A8432061BDE84D
:10527000F0812DE9F04180460E4615461F46404616
:10528000FFF7EEFE04468CB147B11EB1608828439B
:1052900060800BE020882843208007E01EB16088F2
:1052A000A843608002E02088A8432080BDE8F08108
:1052B0002DE9F04180460E4615461F464046FFF751
:1052C000CFFE04468CB147B11EB1608A284360828C
:1052D0000BE0208A2843208207E01EB1608AA843A1
:1052E000608202E0208AA8432082BDE8F0812DE997
:1052F000F04107460E4614463846FFF7B1FE054614
:105300001DB10EB16C8300E02C83BDE8F0812DE966
:10531000F04107460E4614463846FFF7A1FE054603
:105320001DB10EB1EC8300E0AC83BDE8F08170B537
:1053300006460D463046FFF793FE044624B10DB1F4
:10534000E08A70BDA08AFCE70020FAE72DE9F04171
:1053500080460C4616461F464046FFF79BFE054614
:105360005DB12FB1032C08DC285D3043285504E0E3
:10537000032C02DC285DB0432855BDE8F0812DE9FF
:10538000F04180460C4616461F464046FFF782FE17
:1053900005469DB14FB1032C10DC05F11000005DF6
:1053A000304305F11001085508E0032C06DC05F137
:1053B0001000005DB04305F110010855BDE8F08113
:1053C0002DE9F04107460C4615463846FFF762FEC8
:1053D000064626B1032C02DC06F118000555BDE88F
:1053E000F0812DE9F04107460C4615463846FFF797
:1053F00051FE064626B1032C02DC06F11C000555C1
:10540000BDE8F08170B506460C463046FFF742FE17
:105410000546DDB1032C19DC05F11400005D70BDFB
:1054200000C0092090800240B08002409480024079
:10543000B480024084800240A48002408880024000
:10544000A88002408C800240AC8002400020E6E749
:1054500010B50A46202801D2034601E0A0F120033E
:105460001946202814D2464B1B684FF0030404FA57
:1054700001F423EA0403434CC4F8A831404B1B68F1
:1054800002FA01F443EA04033E4CC4F8A83113E0E5
:105490003D4B1B684FF0030404FA01F423EA0403B4
:1054A000384CC4F8AC31384B1B6802FA01F443EABB
:1054B0000403344CC4F8AC3110BD0146202903D29A
:1054C0000A462F4B186803E0A1F120022E4B186802
:1054D00020FA02F303F00300704770B506462B482C
:1054E00004683046FFF7E9FF054635B1012D06D0C7
:1054F000022D06D0032D08D105E0042505E0012585
:1055000003E0022501E0082500BF00BFB4FBF5F46D
:10551000204670BD01290AD11D4A12681D4B00EAC0
:10552000030342EA0302174BC3F8C4200AE049B957
:10553000174A1268174B23EA000302EA0302114BD1
:10554000C3F8C420704700201349086030BF70477B
:1055500004201249086008200F49086030BF7047D6
:1055600004200E49086009200B49086030BF7047CD
:1055700004200A49086003200749086030BF7047CB
:10558000A8C10F4000C00F40ACC10F4088030010FD
:10559000C4C00F40DEF7EFEFC0C00F4010ED00E0D9
:1055A00000BFFEE770B505460C46A4F12000044A92
:1055B00002EB00111022284612F051F970BD0000D4
:1055C000D0E80100FE48006C40F0FF00FC49086490
:1055D0000846006840F4FF0008600846006A40F092
:1055E000605008620846006C40F4807008647047A0
:1055F000002109E0002201E0531C9AB240F27543F9
:105600009A42F9DB4B1C99B28142F3DB704700B53B
:1056100087B0FFF7D7FF6420FFF7EAFF002005906F
:10562000059803904FF48070E549C865C004C863CD
:105630008000886303980290029801900198496D58
:1056400060F30701DE484165406920F4FF024FF432
:10565000FF01019801EAC0100243D948426100BF2E
:105660004FF08050D649C86300BF4FF08050D449F6
:1056700088630015886500BF00BFC865C0048863E3
:10568000400088634000C86300BF0846006C20F0FB
:10569000FF0008640846006820F4FF000860084620
:1056A000406DC1B20291C648406900F4FF0101910A
:1056B000DDE9010141EAD0110291C148006C40F0DE
:1056C000FF00BF4908640846006840F4FF01BC4879
:1056D0000160029803904FF00050B949886341156A
:1056E000B748816503980490049806900698A0F541
:1056F0001341253905D00698A0F51341283942F009
:10570000A7820120AF490870B1200490A520059020
:10571000049803904FF48070A949C865C004C86319
:105720008100A74881630398029002980190A449E0
:105730000198496D60F30701A1484165406920F473
:10574000FF014FF4FF02019802EAC01001439C4898
:10575000416100BF4FF08051C16300BF4FF08051E5
:105760009748816340159649886500BF0598039066
:105770004815C865C0048863039802900298019098
:105780000198496D60F307018D484165406920F437
:10579000FF024FF4FF01019801EAC010024388485C
:1057A000426100BF4FF080508549C86300BF4FF091
:1057B00080508349886301158148816500BF00BF1F
:1057C000B12005900598039008467D49C865C0043E
:1057D000C863800088630398029002980190019842
:1057E000496D60F3070176484165406920F4FF0286
:1057F0004FF4FF01019801EAC01002437048426172
:1058000000BF4FF080506E49C86300BF4FF0805119
:105810006B4881634115816500BF00BF4015684931
:10582000C865C104664881634800654988634000D3
:10583000C86300BF0846006C20F0FF0008640846FB
:10584000006820F4FF0008600846406DC0B2029076
:105850000846406900F4FF000190DDE9011040EACC
:10586000D11002905648006C40F0FF005449086483
:105870000846006840F4FF000860029803904FF06B
:10588000005088634015886503980490049806903A
:105890000698A5285ED103204A490870B1200490DB
:1058A00000200590049803904FF480704449C86527
:1058B000C004C86380008863039802900298019036
:1058C0000198496D60F307013D484165406920F446
:1058D000FF024FF4FF01019801EAC010024338486B
:1058E000426100BF4FF080503549C86300BF4FF0A0
:1058F00080513348816340153149886500BF059860
:1059000003904815C865C004886303980290029804
:1059100001900198496D60F307012948416540698C
:1059200020F4FF014FF4FF02019802EAC010014386
:105930002348416100BF4FF080502149C86300BF38
:105940004FF080501E49886301151D48816500BFD6
:1059500000BF02E002201B490870E520049047F6D2
:10596000F0000590049803904FF480701449C865C6
:10597000C1041348C16388001149886303980290E9
:10598000029801900198496D60F307010C48416548
:10599000406920F4FF024FF4FF01019801EAC010B2
:1059A00002430748426100BF4FF080500449C8637A
:1059B00000BF4FF08050024988630015886503E0FE
:1059C00000C00920DC03001000BF059803904815B3
:1059D000C865C004886303980290029801900198FA
:1059E000496D60F30701FE484165406920F4FF02FC
:1059F0004FF4FF01019801EAC0100243F8484261E8
:105A000000BF4FF08050F649C86300BF4FF0805090
:105A1000F34988630015886500BF00BF012004902A
:105A200000020590049803904815C865C004C86337
:105A30008000886303980290029801900198496D54
:105A400060F30701E6484165406920F4FF024FF426
:105A5000FF01019801EAC0100243E148426100BF22
:105A60004FF08050DE49C86300BF4FF08050DC49E2
:105A700088630015886500BF059803904815C865C0
:105A8000C004886303980290029801900198496DC0
:105A900060F30701D2484165406920F4FF024FF4EA
:105AA000FF01019801EAC0100243CD48426100BFE6
:105AB0004FF08050CA49C86300BF4FF08050C849BA
:105AC00088630015886500BF00BF022004904FF472
:105AD000E0600590049803904815C865C004C86349
