:020000040000FA
:1000000058F00720E1000000E9000000EB000000CC
:10001000ED000000EF000000F10000000000000013
:10002000000000000000000000000000F3000000DD
:10003000F500000000000000F7000000AB0B00001E
:10004000FB000000B70A000025280000FB000000AC
:10005000FB000000FB000000FB000000FB000000B4
:10006000FB000000FB000000FB000000FB000000A4
:10007000FB000000FB000000FB000000FB00000094
:10008000FB0000005D090000FB000000FB00000019
:10009000FB000000FB00000063290000FB000000E3
:1000A000FB000000FB000000FB000000FB00000064
:1000B00017130000FB000000FB000000FB00000025
:1000C000FB000000FB000000FB000000DFF80CD08C
:1000D00015F05AF800480047D501000058F00720F5
:1000E0000648804706480047FEE7FEE7FEE7FEE7D2
:1000F000FEE7FEE7FEE7FEE7FEE7FEE7A9040000F5
:10010000CD0000001CB50420274909680870274865
:1001100027490968086027482549096888602449F3
:1001200009684860244822490968C8612348204971
:100130000968C86022491E480068816121481C493D
:100140000968086101461A480068416100F05EF8DC
:1001500000F060FC00F086FC4FF408511A4800F0F3
:100160005BFA1A481A495A230022CDE900101146B9
:10017000022000F011FB00200090034632220121F2
:100180000190062000F008FB01F0C2FE00F094FB95
:1001900000F02EF802F000FB02F0AEFA0020024957
:1001A000096808701CBD000008C007200000C0419D
:1001B00004C007206666C63FB81E55409A99993F0D
:1001C0005C0FFA43F6A89442000048426F12033BCA
:1001D0006F12833AFFF796FF03E001F09CFC00F0FA
:1001E00019F8FAE7AA2041070872552008727047EB
:1001F00000B505484FF080414860012008610320A8
:100200000870FFF7EFFF00BD00B743BA10B517F055
:10021000F7FC10BD10B517F0E7FE10BD07280CD293
:10022000DFE800F00405060708090A0005E004E01D
:1002300003E002E001E000E000BF00BF00BFFEE716
:1002400010B516F047FA17F0E9FD17F0F3FB18F0B8
:10025000F3FF18F0F3F816F00DFEBDE8104015F0AE
:1002600019BF10B516F050FA17F0DEFD17F050FC6C
:1002700018F0B4F9BDE8104017F0DAB90020704763
:10028000704770470020704700207047002070477B
:100290001CB500208DF802008DF804008DF80300D5
:1002A00003208DF8000019208DF80100684613F036
:1002B000D3FF00208DF802008DF804008DF80300B4
:1002C00003208DF800001A208DF80100684613F015
:1002D000C3FF01224FF0C061032014F01FF81CBDC2
:1002E00000BFFEE7421C10F8011B0029FBD1801A59
:1002F000704796230022114614F08EBEFFFFFFFFC9
:100300002DE9F047B1480068C0F3016003287CD1B3
:10031000AF48006810F0030006D0012833D002284F
:100320005FD003282ED100E000BFA8480068C0F3CA
:10033000074000F101044FF00201A648D0F8880000
:10034000C0F30E0000F10100A1FB0001A24B4FF031
:10035000000CA0FB037901FB039100FB0C1122466A
:100360006346384614F068FA05469C480068C0B2F7
:1003700000F1010422464FF00003284614F05CFA15
:10038000974908605DE091480068C0F3074000F1BC
:1003900001044FF002018F48D0F88800C0F30E002E
:1003A00000F10100A1FB00108E4A4FF0000CA1FBF0
:1003B000027900FB029001FB0C012246634638469D
:1003C00014F03AFA054685480068C0B200F101040D
:1003D00022464FF00003284614F02EFA80490860A8
:1003E0002FE07A480068C0F3074000F101044FF0A5
:1003F00002017848D0F88800C0F30E0000F1010037
:10040000A1FB00124FF4004000E01BE04FF000039E
:10041000A1FB007902FB009001FB03012246384654
:1004200014F00AFA05466D480068C0B200F10104F4
:1004300022464FF00003284614F0FEF96849086090
:1004400000BF2FE06248006810F0030006D00128CA
:1004500010D0022819D0032823D100E000BF5F4844
:100460000068C0B200F101005B49B1FBF0F05C49EB
:10047000086016E059480068C0B200F1010059490F
:10048000B1FBF0F0564908600BE054480068C0B278
:1004900000F101004FF40041B1FBF0F05049086059
:1004A00000BF00BFBDE8F08720204F4908604948E1
:1004B000D0F8A00110F0200F05D000BF4A48006816
:1004C00010F0400FFAD00320444908604FF00000BC
:1004D0004049C1F8A801454908604FF001003C4976
:1004E00008604348434908604FF0AA004249086049
:1004F0004FF0550008604FF00100404908604FF090
:10050000AA003D4908604FF055003249C1F88C00FF
:1005100000BF2E48006810F0806FFAD003203749E2
:1005200008604FF0AA002B49C1F88C004FF055002D
:100530003149086000BF2548006800F04070B0F104
:10054000407FF8D123202E4908604FF0AA002149AE
:10055000C1F8AC004FF055002A4908604FF0010087
:10056000294908604FF0AA00264908604FF055005D
:100570001849C1F8AC0000BF2448006810F4806F2F
:10058000FAD00320204908604FF0AA001149C1F8B1
:10059000AC004FF055001B49086000BF1B480068C5
:1005A00000F44070B0F5407FF8D11948194908604F
:1005B0004FF000000749C1F8C8010846006820F460
:1005C000704040F4804008607047000088C00F40D1
:1005D0000CC10F4000C00F4000093D0004C10F4096
:1005E00000C00720001BB700A0C10F40ACC10F40E6
:1005F0006300050084C00F408CC00F4080C00F40D6
:10060000A4C00F40ACC00F40A0C00F40A8C00F4016
:10061000DE872804C4C00F4070B505460C469A48D2
:10062000006840F040009949C1F8C4002946984844
:1006300014F000FA064614F0ECFB401E9549886160
:100640000846406840F009004860084640690020BC
:1006500048610846406940F0020048618E480069E0
:100660006FF30B008C4908610846C0688B4908404D
:100670008949C86000208A490968087025E08848CF
:100680000068017844FA01F04FF6FE71884315D0F6
:10069000814801698248006800784200012090404A
:1006A00001437D4801617B48C06C7D490968097838
:1006B000093101228A4010437649C86478480068AD
:1006C0000078401C76490968087075480068007811
:1006D0000628D4DB062072490968087052E0704889
:1006E00000680178891C44FA01F04FF6FE718843D6
:1006F00041D06848C16C6A4800680078C01C01227B
:10070000824011436348C164654800680078801FD7
:1007100006282ED2DFE800F0030A11181F265E48D3
:10072000C06840F020005C49C86023E05A48C068B7
:1007300040F400705849C8601CE05748C06840F455
:1007400000605549C86015E05348C06840F4004057
:100750005149C8600EE05048C06840F400304E492E
:10076000C86007E04C48C06840F400104A49C860BF
:1007700000E000BF00BF4A4800680078401C4849BC
:10078000096808704648006800780C28A7DB00203C
:1007900043490968087070BD2DE9FF5F04460D46A6
:1007A00016469946DDF838A0032C00D9A41D504602
:1007B00014F05CFB4FF033323A4BCDE9020114F0F8
:1007C00020FA074614F07AFB82460F9814F04EFB8D
:1007D000354A364BCDE9020114F013FA074614F0FE
:1007E0006DFB0F90D5B1012D3ED13046FFF781FD55
:1007F0002F49039014F01EF9804626498869FFF7B7
:1008000078FD8346414614F0DFF8074614F001FBFB
:100810002049042202FB0411886126E04846FFF7C4
:1008200068FD2449009014F005F9514602900F9894
:1008300014F0C4F80190029914F0C6F883465146AA
:1008400014F06AF81249039014F0BEF880464FF095
:100850007E5114F0B3F8074614F0DBFA0D49042278
:1008600002FB0411886100E000BF00BF032C00D927
:10087000A41F0848006D0121A14041F00101084377
:1008800004490865BDE8FF9FC4C00F4000C00F4089
:1008900020BCBE4B0080014000C00240CF30CCFFE6
:1008A0000CC007203333E33FCDCCCCCCCCCCF43FD1
:1008B0000000C8420000344310B53A48006840F4D4
:1008C00000703949C1F8C4004FF01200374908726E
:1008D0004FF0000008644FF0010008720846007BEA
:1008E00040F00100087340F2E37088874FF00A007F
:1008F0002F4908704FF00C002E4908704FF00F0080
:10090000A1F1040108704FF02500A1F10401087065
:100910004FF00000A1F1040108704FF011004FF0FA
:10092000010101FA00F14FEA50124FF0E02303EB0E
:100930008202C2F8001100BF4FF00001002807DA60
:10094000CA06140E1C4A00F00F031B1FD45403E008
:10095000CA06130E194A135400BF10BD1FB518481C
:1009600000688068401C1649096888600F48007854
:1009700040F001000D4908701248007812490978CA
:10098000124A1278094B9B8FCDE90032CDE9021053
:10099000064890F8383010F82C2F0DA1144814F0A8
:1009A00095FC1FBDC4C00F4000C00F400040024076
:1009B000384002402C40024018ED00E000E400E026
:1009C0000CC0072020400240244002402840024042
:1009D000253032642F253032642F253034642D25A4
:1009E0003032643A253032643A25303264000000F7
:1009F000E0C2072010B5002807DACA06140E6D4AB7
:100A000000F00F031B1FD45403E0CA06130E6A4AFA
:100A1000135410BD10B5694800680A21B0FBF1F00D
:100A2000401E4FF0E02148610720086163480068DC
:100A30000A21B0FBF1F4B4F1807F00D311E024F07F
:100A40007F40401E4FF0E02148611F214FF0FF30F2
:100A5000FFF7D0FF00204FF0E021886107200861F8
:100A600000BF10BD10B55648006840F0020055495F
:100A7000C1F8C4004FF003004FF0402148614FF02F
:100A80000000C8600846406840F0010048604E48D9
:100A900088614FF000014FF00100FFF7ABFF01202C
:100AA0000121814042094FF0E02303EB8202C2F8AA
:100AB000001100BF10BD2DE9F0414FF0402000684B
:100AC0004FF04021086041480078052190FBF1F289
:100AD00001FB1207384614F075F906464FF07E51B7
:100AE00013F072FF05464FF07C5113F0A3FF04464C
:100AF000002114F0FFF91DD10520354988623548E1
:100B000000680078C0F3400060B9002032490968ED
:100B1000C86130480068007820F00100401C2D4971
:100B2000096808702B480068007820F00200294905
:100B300009680870002014F045F905464FF07C5113
:100B400013F078FF0446002114F0D4F90CD12148A9
:100B500000680078C0F3C00030B11948006840F464
:100B600080501849C1F8C400184800784FF00501BA
:100B700090FBF1F201FB1207384614F023F9064608
:100B80004FF07E5113F020FF05464FF07C5113F0DB
:100B900051FF0446002114F0ADF90C48007800F133
:100BA00001000A490870BDE8F08110B518F03AFB61
:100BB00010BD000018ED00E000E400E000C00720D8
:100BC000C4C00F4000C00F401FBCBE0016C00720AD
:100BD0000080004010C0072004C007207047704705
:100BE0002DE9F04705460E4691469A462878622838
:100BF0004CD010DC4D2873D006DC412871D044283D
:100C000070D048286FD1B7E053286DD054286CD0ED
:100C10006128F7D148E074280ED006DC682827D078
:100C2000692873D07028EDD114E076287CD078281C
:100C30005CD07928E6D145E062490968086814F07B
:100C400015F907463A460B46291D304614F03EFB7F
:100C50000446B2E05B490968486814F007F90746A2
:100C60003A460B46291D304614F030FB0446A4E0FA
:100C700054490968886814F0F9F807463A460B4663
:100C8000291D304614F022FB044696E04D490968C0
:100C9000086A14F0EBF807463A460B46291D304621
:100CA00014F014FB044688E046490968886914F08A
:100CB000DDF807463A460B46291D304614F006FB80
:100CC00004467AE03F490968486914F0CFF80746BE
:100CD0003A460B46291D304614F0F8FA04466CE0FB
:100CE00038E02FE03FE062E058E04EE03549096827
:100CF000086914F0BBF807463A460B46291D3046F2
:100D000014F0E4FA044658E000E00DE02D490968CB
:100D1000C86814F0ABF807463A460B46291D304622
:100D200014F0D4FA044648E026490968C86914F06A
:100D30009DF807463A460B46291D304614F0C6FA80
:100D400004463AE02048828F291D304614F0BEFA4E
:100D5000044632E01D48027805F10401304614F0E3
:100D6000B5FA044629E01A48027805F10401304634
:100D700014F0ACFA044620E01648027805F10401AC
:100D8000304614F0A3FA044617E01348027805F140
:100D90000401304614F09AFA04460EE00F48027837
:100DA00005F10401304614F091FA044605E00CA167
:100DB000304614F08BFA044600BF00BFA0B2BDE875
:100DC000F087000004C00720004002403840024085
:100DD0002C40024028400240244002402040024073
:100DE0003C703E592E2E2E207175652071756965F7
:100DF0007265732071756520706F6E676120617117
:100E000075693F203A6C3C2F703E00001C20012188
:100E1000814042094FF0E02303EB8202C2F8001147
:100E200000BF70471C2001218140FE4A430942F85F
:100E3000231000BF704770B505460E468EB90324D7
:100E400005E015F8021BC8B2F7490855641C062CCA
:100E5000F7DB7E20F4490870FF204870FE20887080
:100E600009E0002405E015F8021BC8B2EE49085558
:100E7000641C062CF7DBFFF7D5FF4FF0A04000689D
:100E800020F001004FF0A0410860E848006820F021
:100E90000300C1F80001E4480079E349497940EAD8
:100EA00001204FF0A0410864DF488078DE49C9780E
:100EB00040EA01204FF0A0414864DB480078DA495D
:100EC000497840EA01204FF0A04188640846006854
:100ED00040F44F4008600846D0F8000140F0780028
:100EE000C1F80001FFF792FF012070BD00200FE064
:100EF00000EB4001CE4A02EB4121CE4A42F83010CD
:100F0000002102EBC0025160CB4A42F82010401C85
:100F10000328EDD3C749C94A1160C7494FF0A04221
:100F2000C2F820114FF00201C54A11604FF00001D4
:100F30004FF0A042C2F828117047002013E000EBE8
:100F40004001C04A02EB4121BF4A42F83010BF497C
:100F500002EBC00251600021BD4A42F8301002EBA2
:100F6000C0025160401C0428E9D3B749B94A116056
:100F7000B7494FF0A042C2F80C114FF00301B64A36
:100F800011604FF000014FF0A042C2F818117047F5
:100F900010B5014641F480704FF0A044A0620120DA
:100FA0006062002307E04FF0A040406B10F0010F9B
:100FB00000D103E05B1CB3F5A02FF4D300BF0020E9
:100FC0004FF0A04460622046026B90B210BD10B595
:100FD00040F480734FF0A044A3622346D9620022FC
:100FE00007E04FF0A0435B6B13F0010F00D103E06B
:100FF000521CB2F5A02FF4D300BF10BD10B5974816
:10100000006840F080409649C1F8C4009548964970
:1010100088600846C06820F00F0000F10500C86035
:101020004FF44F404FF0A04108604FF038007F4927
:1010300008604FF000008D49086004E08B480068AC
:10104000401C8A49086089480068FF28F6D90220B8
:101050004FF0A0410860302048604001486143F2F1
:101060000F7008611220C8604FF430706F4908603B
:1010700048F23C004FF0A04108624FF000007B496D
:10108000086004E079480068401C784908607748A7
:101090000068FF28F6D93C204FF0A04108624FF4C9
:1010A0000060886100207149086004E06F480068B2
:1010B000401C6E4908606D480068FF28F6D9002082
:1010C0004FF0A04188614FF40041FFF780FF0020FE
:1010D000664908600FE00020FFF75AFF6449086086
:1010E0000846008810F4084F00D109E05F48006806
:1010F000401C5E4908605D480068B0F5801FEAD377
:1011000000BF0220FFF744FF5A4908600320FFF7A1
:101110003FFF59490860084600684FF6F0710840E3
:101120005449098840EA0140A0F5F821F0391ED160
:101130004FF480510020FFF74AFF00204B49086020
:101140000FE00120FFF724FF4949086008460078B6
:1011500010F0200F00D009E044480068401C4349CB
:10116000086042480068B0F5801FEAD300BF002045
:101170003E4908600FE00120FFF70AFF3C49086084
:101180000846007810F0040F00D009E037480068E6
:10119000401C3649086035480068B0F5803FEAD306
:1011A00000BF1F20FFF7F4FE3149086008460078B1
:1011B00010F0100F11D04FF0A040406840F0010037
:1011C0004FF0A04148601948006840F48060C1F8C1
:1011D00000014FF01500886003E012204FF0A0419D
:1011E00088602348007810F0080F05D04FF4807015
:1011F0004FF0A041886103E000204FF0A0418861DA
:10120000094800790849497940EA01204FF0A04196
:101210000864054880780449C97840EA01204FF005
:10122000A0412BE080E100E027C007200001005032
:101230005CDB072038C3072050C307201C01005087
:10124000240100505CC30720F8C20720FF0500807E
:1012500018C307200801005010010050C4C00F40FF
:1012600000C00F400501155000C002404CC00720CF
:1012700048C0072050C0072054C0072048644D488C
:1012800000784C49497840EA01204FF0A041886439
:10129000FFF753FEFFF72AFE2620474908604FF06C
:1012A0008800464908604FF6FF7001F104010860AC
:1012B0004FF0A040D0F8000140F003004FF0A041F3
:1012C000C1F800010846006840F00100086010BD48
:1012D00070B53B4D296800F104033A4D55F8314093
:1012E000058805F103054FEAA50202E020CB20C4E2
:1012F000521E002AFAD105886D1E45F04045314E38
:1013000006EBC10675604D1C2946032D00D1002156
:101310002B4D296070BD2DE9F04740E02748001DA6
:10132000C0F8008018F0080F38D02748046831E072
:10133000264850F8347017F0804F00D123E0C7F3EF
:101340000A00C51E40F2EA50854202D820480742F2
:1013500000D018E045F0004014F050FC06468EB175
:1013600006F1040A1B4850F83490E81C850804E094
:1013700059F8040B4AF8040B6D1E002DF8D13046C5
:1013800016F0C2FE00BF601C0446042800D10024F1
:101390000D48046010480068A042C9D100BF07484A
:1013A000001F00680549096810EA0108B6D1BDE8C8
:1013B000F087000027C0072000020050E40F005013
:1013C0002801005038C307201801005018C3072017
:1013D0000000901BF8C20720140100500146FD4890
:1013E000007801281ED1FC4800880A88904219DD47
:1013F00008888A881044F84A1288904212DDF6481C
:1014000040884A8890420DDD4888CA881044F24AD4
:101410005288904206DD087A10B9012008727047A0
:101420000020FCE70020087200BFF8E72DE9F84F24
:1014300004460E4617461D460095B4F800C0B4F8A1
:101440000480C4441FFA8CF263881946208812F085
:1014500062FA0095B4F802C0B4F80680C4441FFADA
:101460008CF322886188104612F055FA0095B4F882
:1014700002C0B4F80680C4441FFA8CF3B4F800C06C
:10148000B4F80480C4441FFA8CF2B4F802C0B4F873
:101490000680C4441FFA8CF1208812F03CFA0095B3
:1014A000B4F802C0B4F80680C4441FFA8CF3B4F850
:1014B00000C0B4F80480C4441FFA8CF2B4F800C031
:1014C000C4441FFA8CF0618812F025FA3046FEF70A
:1014D00009FF4008B4F8049009EBD971228802EBA7
:1014E0006101A1EBC0001FFA80FA00200090B4F85F
:1014F000068008EBD870628802EB6000083881B281
:101500003B463246504612F0B5FABDE8F88F00B5BA
:1015100089B04FF4FC634FF6E072B049B048FFF772
:1015200085FF4FF4FC634FF6E072AEA1AE48FFF7C3
:101530007DFF4FF4FC634FF6E072ACA1AC48FFF7BF
:1015400075FF4FF4FC634FF6E072AAA1AB48FFF7BA
:101550006DFF4FF4FC634FF6E072A9A1AA48FFF7B4
:1015600065FF4FF4FC634FF6E072A8A1AA48FFF7AD
:101570005DFF4FF4FC634FF6E072A8A1A948FFF7A6
:1015800055FF78200121A823C022CDE90010A6A193
:1015900003A813F09BFE4FF4FC634FF6E07203A91F
:1015A000A548FFF743FF4FF4FC634FF6E072A3A199
:1015B000A348FFF73BFF4FF4FC634FF6E0729FA197
:1015C000A048FFF733FF4FF4FC634FF6E0729BA196
:1015D0009D48FFF72BFF4FF4FC634FF6E07297A195
:1015E0009A48FFF723FF4FF4FC634FF6E07298A18F
:1015F0009848FFF71BFF4FF4FC634FF6E07294A18D
:101600009548FFF713FF4FF4FC634FF6E07290A18B
:101610009248FFF70BFF4FF4FC634FF6E0728CA18A
:101620008F48FFF703FF09B000BD30B587B04FF416
:10163000FC634FF6E07269496948FFF7F7FE4FF423
:10164000FC634FF6E07267A16748FFF7EFFE4FF4C7
:10165000FC634FF6E07265A16548FFF7E7FE4FF4C3
:10166000FC634FF6E0727FA18348FFF7DFFE8349FA
:101670000968C86913F0FAFB044622460B4680A1AC
:1016800001A813F023FE83480068007810F0010FD2
:1016900023D07A490968C86913F0E8FB044622465A
:1016A0000B4677A101A813F011FE4FF4FC634FF62F
:1016B000E07279A17E48FFF7B9FE764800680078AD
:1016C00020F001007349096808704FF4FC634FF67D
:1016D000E07201A97648FFF7A9FE4FF4FC634FF6CC
:1016E000E07274A17648FFF7A1FE64490968086AB0
:1016F00013F0BCFB044622460B4672A101A813F06E
:10170000E5FD4FF4FC634FF6E07263A17048FFF70C
:101710008DFE4FF4FC634FF6E07201A96C48FFF7B1
:1017200085FE07B030BD2DE9F0438BB04FF4FC636C
:101730004FF6E07229492A48FFF778FE4FF4FC6320
:101740004FF6E07227A12848FFF770FE4FF4FC63C4
:101750004FF6E07225A12648FFF768FE4FF4FC63C0
:101760004FF6E0725BA16048FFF760FE43490968ED
:10177000886913F07BFB04460D46404909684869B7
:1017800013F074FB06460F463C490968086913F0DC
:101790006DFB804642460B4654A105A8CDE9006783
:1017A000CDE9024513F092FD4FF4FC634FF6E07271
:1017B00005A95448FFF73AFE4FF4FC634FF6E07278
:1017C00051A15548FFF732FE4FF4FC634FF6E0722B
:1017D000A4E0000012C2072060C20720E0C2072078
:1017E00064C007202D3E00006EC007203C2D000085
:1017F00078C00720486F72617300000068C107203D
:101800004D696E75746F730072C1072053656775FB
:101810006E646F73000000007CC10720446961732F
:101820000000000086C1072049503A25642E256437
:101830002E25642E2564000090C107202D00000095
:101840009AC10720A4C10720AEC10720B8C1072054
:101850002B000000C2C10720CCC10720D6C1072041
:10186000E0C1072056656C2E2064656C20766965A2
:101870006E746F3A00000000EAC1072004C0072020
:10188000252E303266206D6574726F732F73656715
:101890002E00000010C00720202020202020202023
:1018A0002020202020202020202020202020200058
:1018B000F4C10720436C6172696461643A000000FE
:1018C000FEC10720252E303266204C5558000000FE
:1018D00008C207204D4544494441532041435455D3
:1018E000414C45530000000004C10720583A252E02
:1018F00030326620593A252E303266205A3A252E4B
:10190000303266000EC1072054656D7065726174D7
:101910007572613A0000000018C10720FBA1FE4863
:10192000FFF784FD4FF4FC634FF6E072FBA1FE4825
:10193000FFF77CFD4FF4FC634FF6E072FBA1FE481D
:10194000FFF774FDFD490968086813F08FFA044633
:1019500022460B46FAA105A813F0B8FC4FF4FC632D
:101960004FF6E07205A9F948FFF760FDF3490968F1
:10197000886813F07BFA044622460B46F4A105A8BA
:1019800013F0A4FC4FF4FC634FF6E07205A9F34892
:10199000FFF74CFDE9490968486813F067FA044607
:1019A00022460B46EEA105A813F090FC4FF4FC6311
:1019B0004FF6E07205A9ED48FFF738FDDF490968E9
:1019C000C86813F053FA044622460B46E8A105A85E
:1019D00013F07CFC4FF4FC634FF6E07205A9E74876
:1019E000FFF724FD0BB0BDE8F08310B54FF4FC63A6
:1019F0004FF6E072E249E348FFF718FD4FF4FC634D
:101A00004FF6E072AFF22421DF48FFF70FFD4FF4ED
:101A1000FC634FF6E072AFF22C21DC48FFF706FDC5
:101A20004FF4FC634FF6E072D9A1DB48FFF7FEFCF0
:101A30004FF4FC634FF6E072D8A1DA48FFF7F6FCEA
:101A40004FF4FC634FF6E072D7A1DC48FFF7EEFCE1
:101A50004FF4FC634FF6E072D9A1DA48FFF7E6FCD9
:101A60004FF4FC634FF6E072D7A1D848FFF7DEFCD5
:101A70004FF4FC634FF6E072D5A1D648FFF7D6FCD1
:101A80004FF4FC634FF6E072D3A1D448FFF7CEFCCD
:101A90004FF4FC634FF6E072D1A1D248FFF7C6FCC9
:101AA0004FF4FC634FF6E072CFA1D148FFF7BEFCC4
:101AB0004FF4FC634FF6E072CEA1D048FFF7B6FCBE
:101AC0004FF4FC634FF6E072CDA1CF48FFF7AEFCB8
:101AD0004FF4FC634FF6E072CCA1CE48FFF7A6FCB2
:101AE0004FF4FC634FF6E072CBA1CD48FFF79EFCAC
:101AF00010BD10B500F0D3FB044644B1C94A2146DD
:101B0000C94800F082FD0120C849087002E00020A9
:101B1000C649087010BD2DE9FC41FEF763FBFFF7D5
:101B2000E8FF864909680868C14912F047FF07467F
:101B3000C04912F049FF0646BF4912F07BFF054637
:101B400013F067F9C4B2BD48BD4923460022CDE970
:101B5000001011460220FEF71FFEBA480078D0B1EF
:101B60004FF0E020006910F4803F14D00020009076
:101B7000724901900968086AB34B0022114612F0BD
:101B800039FE0020009003460190AF480278012101
:101B90000620FEF701FEAD480068007805287DD2DA
:101BA000DFE800F0036B859DB300FFF71EFF76486A
:101BB000FFF714FC30B10120A44909680870002027
:101BC00010F05FFA7148FFF709FC30B102209F491D
:101BD00009680870002010F054FA7248FFF7FEFB05
:101BE00030B10320994909680870002010F049FAC3
:101BF0007448FFF7F3FB50B1002092490870009041
:101C000003460122114601900620FEF7C5FD6F48EC
:101C1000FFF7E4FB50B100208A49087000900346AA
:101C20001422012101900620FEF7B6FD6948FFF756
:101C3000D5FB50B10020834908700090034628224C
:101C4000012101900620FEF7A7FD6448FFF7C6FBBF
:101C500058B10020009003463C220121019006204B
:101C6000FEF79AFD0020774908705E48FFF7B6FB43
:101C700010B101207349087047E1FFF754FD424855
:101C8000FFF7ACFB30B102207049096808700020F2
:101C900010F0F7F93D48FFF7A1FB00E034E128B16F
:101CA00000206A490968087010F0EBF92DE1FFF790
:101CB000BCFC3548FFF792FB28B100206349096856
:101CC000087010F0DEF93148FFF788FB30B10120D1
:101CD0005E4909680870002010F0D3F915E1FFF79C
:101CE00016FC2948FFF77AFB28B1002057490968FC
:101CF000087010F0C6F92548FFF770FB20B10020EE
:101D0000524909680870A3E0A4E0FCE048756D65DD
:101D10006461643A0000000022C1072050726573BC
:101D2000696F6E3A000000002CC10720496E63699C
:101D300064652055563A000036C1072004C00720CC
:101D4000252E3032662064430000000040C1072089
:101D5000252E303266202525000000004AC10720CC
:101D6000252E303266205061732E000054C10720AA
:101D7000252E303266205556730000005EC10720C4
:101D8000E0C2072064C007206EC0072078C007208B
:101D9000496E666F2E00000082C00720416A75738D
:101DA000746573008CC007204E6976656C2064658D
:101DB000206272696C6C6F3A0000000096C00720C8
:101DC00031000000A0C0072032000000AAC0072098
:101DD00033000000B4C0072034000000BEC007205C
:101DE00041000000C8C00720506C6179000000006D
:101DF000D2C00720566F6C2E31000000DCC00720D7
:101E0000566F6C2E32000000E6C00720566F6C2E15
:101E100033000000F0C007204C6F61640000000038
:101E2000FAC0072018C2072060C2072012C207208C
:101E30000000884100003443000070416F12033BF2
:101E40006F12833A58C0072013C2072008C007202A
:101E500010F017F93248FFF7C1FA30B13148007875
:101E6000A0F10100304981F828003048FFF7B6FAA8
:101E700030B12F480078A0F101002B4981F82400EF
:101E80002C48FFF7ABFA30B12B480078A0F10100E5
:101E9000254981F820002948FFF7A0FA30B12848E9
:101EA0000078A0F10100204981F82C002548FFF7B7
:101EB00095FA30B11B48007800F101001A4981F809
:101EC00028002148FFF78AFA30B11948007800F15C
:101ED0000100154981F824001C48FFF77FFA30B152
:101EE0001548007800F101000F4981F820001848DA
:101EF000FFF774FA30B11248007800F101000A4986
:101F000081F82C0001E000E000BF00BFBDE8FC81CB
:101F100010B500F01FF800F07CFDFEF7B9F910BD18
:101F20009AC107202840024000400240A4C1072077
:101F300024400240AEC1072020400240B8C1072023
:101F40002C400240C2C10720CCC10720D6C10720C7
:101F5000E0C1072000B589B002208DF81E000020E6
:101F60008DF820008DF81F008DF81C0007208DF8DB
:101F70001D0007A812F070F908208DF81D0007A8B1
:101F800012F06AF909208DF81D0007A812F064F913
:101F900000208DF81E008DF81C0006208DF81D0015
:101FA00007A812F059F900208DF81E0002208DF8C4
:101FB0001C000D208DF81D0007A812F04DF900221D
:101FC0004FF40051022012F0A9F94FF40051022001
:101FD00012F0B8F901224021002012F09FF94021AF
:101FE000002012F0AFF901A811F010FEFE48069093
:101FF00001A9FE4811F0A9FD0121FC4811F011FED4
:1020000009B000BD70B50446FEF7ECF8002507E006
:102010000C2000BF0100A0F10102D0B2FAD16D1C6A
:10202000A542F5D370BD10B5044600BF1021EF489E
:1020300011F0B0FF0128F9D02146EC4811F059FE0B
:1020400000BF0421E94811F0A5FF0028F9D0E748B6
:1020500011F061FEC0B210BD70B50020FFF7E3FFC4
:1020600005464FF6FF7000EA05240120FFF7CAFF7E
:102070000020FFF7D8FF05462C43E410C4F30B04FF
:10208000204670BD10B54020D949C8610120FFF736
:10209000B9FF9020FFF7C7FF0120FFF7B3FFFFF75D
:1020A000DBFF04464020D2498861204610BD10B5B0
:1020B0004020CF49C8610120FFF7A4FFD020FFF7DF
:1020C000B2FF0120FFF79EFFFFF7C6FF0446402046
:1020D000C7498861204610BD2DE9F04104460D46F0
:1020E000FFF7D0FF06460120FFF78CFFFFF7DFFF69
:1020F000074626602F60BDE8F08170B504460D46A6
:102100004FF478422946204611F079F9611C88B2D3
:102110004FF47842294611F072F9681C81B24FF4ED
:102120007842204611F06BF96A1C91B2621C90B2A1
:102130004FF4784211F063F970BDF8B504460D46CE
:102140004FF6FF70A11E8AB20D39009088B22B465F
:10215000294611F0E0FB4FF6FF7004F10F018AB23F
:10216000A11C009088B22B46294611F0D4FB4FF6F3
:10217000FF700090A81E83B20D3881B2224620461F
:1021800011F0C9FB4FF6FF70009005F10F0083B20C
:10219000A81C81B22246204611F0BDFB4BF6F04050
:1021A00005F10F06B3B2E61FB2B205F10F06B1B2E8
:1021B000A4F10F060090B0B211F0ADFB4BF6F04069
:1021C00005F10F06B3B2A4F10F06B2B2EE1DB1B223
:1021D000A4F10F060090B0B211F09DFB4BF6F04059
:1021E000A5F10F06B3B2E61FB2B2A5F10F06B1B268
:1021F000A4F10F060090B0B211F08DFB4BF6F04049
:10220000A5F10F06B3B2A4F10F06B2B2EE1FB1B240
:10221000A4F10F060090B0B211F07DFB4BF6F04038
:1022200005F10F06B3B204F10F06B2B205F10F06C5
:10223000B1B2E61D0090B0B211F06DFB4BF6F0406C
:1022400005F10F06B3B204F10F06B2B2EE1DB1B242
:1022500004F10F060090B0B211F05DFB4BF6F040B8
:10226000A5F10F06B3B204F10F06B2B2A5F10F0645
:10227000B1B2E61D0090B0B211F04DFB4BF6F0404C
:10228000EE1FB3B204F10F06B2B2A5F10F06B1B260
:1022900004F10F060090B0B211F03DFBF8BDF0B5AF
:1022A00097B000274821684612F010FB00BF15A91F
:1022B00016A8FFF711FF16984DF8270009A81599E1
:1022C00040F82710781CC7B24948406D10F4005FF1
:1022D00001D1092FEBDB092F7ED1DDE90001084494
:1022E00002990844032190FBF1F01290DDE903010B
:1022F000084405990844032190FBF1F01390DDE9AF
:102300000601084408990844032190FBF1F0149059
:10231000DDE91201441ADDE91301451A12991498F6
:10232000461A002C01DD204600E060420446002DE4
:1023300001DD284600E068420546002E01DD3046FA
:1023400000E070420646502C06DD502D04DD502E74
:1023500002DD002017B0F0BDAC4215DAA64209DA62
:10236000149A1299881800EBD071C1F34F01214AD9
:1023700011801EE0DDE91212881800EBD071C1F364
:102380004F011C4A118014E0AE4209DA149A1299E6
:10239000881800EBD071C1F34F01164A118008E094
:1023A000DDE91312881800EBD071C1F34F01114A17
:1023B0001180DDE9091001440B980844032190FBCA
:1023C000F1F01290DDE90C1001440E98084403214D
:1023D00090FBF1F0139000E063E0DDE90F100144A1
:1023E00011980844032107E020A1070000000340E2
:1023F00000C009205CC2072090FBF1F01490DDE9D9
:102400001201441ADDE91301451A12991498461A6B
:10241000002C01DD204600E060420446002D01DD75
:10242000284600E068420546002E01DD304600E007
:1024300070420646502C05DD502D03DD502E01DD87
:10244000002087E7AC4215DAA64209DA149A1299FD
:10245000881800EBD071C1F34F01C24A51801EE0D1
:10246000DDE91212881800EBD071C1F34F01BD4AAB
:10247000518014E0AE4209DA149A1299881800EBE0
:10248000D071C1F34F01B74A518008E0DDE9131262
:10249000881800EBD071C1F34F01B24A5180B148A6
:1024A00058E7002056E72DE9F04705460C4616464A
:1024B0004FF0000921882289891AE38862899A1AD3
:1024C0005143A2882389D31A67886289BA1A03FB09
:1024D000121012F080FCC6E90C0100221346D6E966
:1024E0000C71384612F0D6FC02D14FF0010989E098
:1024F00029882A89891AE38862899A1A5143AA8805
:102500002B89D31A67886289BA1A03FB121012F05A
:1025100062FCC6E9000121882289891AAA882B89D0
:10252000D21A51432A88D21AA3882789DB1B02FBBF
:10253000131012F050FCC6E902012189AA88514308
:10254000A2882B8902FB13116288514322885A43C7
:1025500023892F8803FB1723E28803FB0212A1883B
:1025600079432388AF8803FB1713618903FB01209C
:1025700012F031FCC6E904016A886989511AE388BE
:1025800062899A1A5143EB886A899B1A6788628923
:10259000BA1A03FB121012F01EFCC6E906012188CC
:1025A0002289891AEB886A899A1A51436B886A8949
:1025B0009A1AA3882789DB1B02FB131012F00BFC6D
:1025C000C6E908012189EA885143A3886A8903FB87
:1025D00012116288514322886B895A4323896F887C
:1025E00003FB1723E28803FB0213A18879432788A2
:1025F000EA8807FB1212618902FB013012F0EBFB43
:10260000C6E90A014846BDE8F0872DE9F04F8BB0D6
:102610008246894614464FF0000B00221346D4E947
:102620000C51284612F036FC60D0B9F8020012F0C6
:10263000E3FB0546D4E902733A4612F0E2FACDE92B
:102640000201B9F8000012F0D7FB0746D4E90053A5
:102650002A4612F0D6FACDE90001DDE9022312F094
:1026600029FACDE90401D4E904532A4612F022FAEA
:10267000CDE90601D4E90C532A4612F034FBCDE92A
:10268000080112F0DAFBAAF80000B9F8020012F013
:10269000B3FB0746D4E908532A4612F0B2FACDE953
:1026A0000201B9F8000012F0A7FB0746D4E906536F
:1026B0002A4612F0A6FACDE90001DDE9022312F064
:1026C000F9F9CDE90401D4E90A532A4612F0F2F9E6
:1026D000CDE90601D4E90C532A4612F004FBCDE9FA
:1026E000080112F0AAFBAAF8020001E04FF0010B6A
:1026F00058460BB0BDE8F08F38B5002427E0002025
:102700000FF0BFFC00204FF6FF7317A20A210090C4
:10271000084611F0AFF91C48FFF774FC1B4A02EBA6
:1027200084025188194A32F82400FFF706FD00BFE1
:10273000FFF7B5FD0546002DFAD02888144921F889
:102740002400688801EB84014880601CC4B2032C1B
:10275000D5DB104A0E490D48FFF7A5FE00200FF00B
:1027600090FC38BD5CC20720546F756368206372AB
:102770006F73736861697220746F2063616C696242
:10278000726174650000000020A1070050C207209C
:102790005CED072018C207205148C06C5049C8643E
:1027A0000846C06CC8640846C06820F03000C860A5
:1027B0000846C06840F03000C860002049490867FA
:1027C000052088624848006840F004004749C1F885
:1027D000C4004FF000004349C8600846406840F01C
:1027E000020048600846406820F002004860084641
:1027F000406840F0010048603948C06840F030004F
:102800003749C8604FF002004FF0010101FA00F1B2
:102810004FEA50124FF0E02303EB8202C2F800119E
:1028200000BF704770B5002400E0641C47F23050D0
:102830008442FADB10202B4908602D480078401CA8
:102840002B49087008460078042845DB29480068B1
:10285000284948602348C06A08600020244908705D
:1028600024490968234A5268881AFDF742FD064642
:10287000214912F0A9F805462946204812F0DAF855
:102880001F4908601F480078401C1E490870084610
:10289000007804281DD101201249886200201949BE
:1028A00008701748006818490968C8611748006827
:1028B000007820F00200801C144909680870134851
:1028C0000068007820F00100401C10490968087079
:1028D00002E005200349886210200249086070BDAB
:1028E00000C0024000800040C4C00F4000C00F4044
:1028F00064C2072068C2072000007A44D313834EC5
:1029000070C2072065C2072004C0072010C007203E
:102910001E48006840F480501D49C1F8C4001D489D
:10292000406840F480301B4948601B4800681B49E0
:1029300040EA0100184908600846C06840F00200FB
:10294000C8604FF016004FF0010101FA00F14FEAA4
:1029500050124FF0E02303EB8202C2F8001100BFD7
:1029600070470A48006820F480500949C1F8C40043
:10297000094840690A4908600A480068007820F060
:10298000080008490968087070470000C4C00F407B
:1029900000C00F4000C00240004003400200210080
:1029A00074C2072010C0072070B505460C46A4F17C
:1029B0002000044A02EB00111022284611F06DFF9E
:1029C00070BD00007C9B0100FE48006C40F0FF00E1
:1029D000FC4908640846006840F4FF0008600846A7
:1029E000006A40F0605008620846006C40F4807055
:1029F00008647047002109E0002201E0531C9AB2EC
:102A000040F275439A42F9DB4B1C99B28142F3DBE9
:102A1000704700B587B0FFF7D7FF6420FFF7EAFFE4
:102A200000200590059803904FF48070E549C86533
:102A3000C004C863800088630398029002980190E4
:102A40000198496D60F30701DE484165406920F453
:102A5000FF024FF4FF01019801EAC0100243D94878
:102A6000426100BF4FF08050D649C86300BF4FF0AD
:102A70008050D44988630015886500BF00BFC865D1
:102A8000C0048863400088634000C86300BF0846F4
:102A9000006C20F0FF0008640846006820F4FF0086
:102AA00008600846406DC1B20291C648406900F412
:102AB000FF010191DDE9010141EAD0110291C14814
:102AC000006C40F0FF00BF4908640846006840F40D
:102AD000FF01BC480160029803904FF00050B949D3
:102AE00088634115B748816503980490049806905F
:102AF0000698A0F51341253905D00698A0F5134195
:102B0000283942F0A7820120AF490870B120049013
:102B1000A5200590049803904FF48070A949C865DA
:102B2000C004C8638100A74881630398029002989B
:102B30000190A4490198496D60F30701A1484165DE
:102B4000406920F4FF014FF4FF02019802EAC0102F
:102B500001439C48416100BF4FF08051C16300BFF9
:102B60004FF080519748816340159649886500BFB2
:102B7000059803904815C865C004886303980290BF
:102B8000029801900198496D60F307018D484165F5
:102B9000406920F4FF024FF4FF01019801EAC010E0
:102BA00002438848426100BF4FF080508549C863A6
:102BB00000BF4FF0805083498863011581488165CB
:102BC00000BF00BFB12005900598039008467D49DD
:102BD000C865C004C86380008863039802900298A7
:102BE00001900198496D60F307017648416540699D
:102BF00020F4FF024FF4FF01019801EAC0100243E4
:102C00007048426100BF4FF080506E49C86300BFFA
:102C10004FF080516B4881634115816500BF00BF53
:102C200040156849C865C104664881634800654924
:102C300088634000C86300BF0846006C20F0FF00B6
:102C400008640846006820F4FF0008600846406DEC
:102C5000C0B202900846406900F4FF000190DDE92F
:102C6000011040EAD11002905648006C40F0FF007D
:102C7000544908640846006840F4FF000860029860
:102C800003904FF0005088634015886503980490C6
:102C9000049806900698A5285ED103204A4908703A
:102CA000B120049000200590049803904FF48070A8
:102CB0004449C865C004C8638000886303980290D3
:102CC000029801900198496D60F307013D48416504
:102CD000406920F4FF024FF4FF01019801EAC0109F
:102CE00002433848426100BF4FF080503549C86305
:102CF00000BF4FF0805133488163401531498865EA
:102D000000BF059803904815C865C0048863039800
:102D10000290029801900198496D60F307012948DB
:102D20004165406920F4FF014FF4FF02019802EA77
:102D3000C01001432348416100BF4FF0805021493A
:102D4000C86300BF4FF080501E49886301151D48BD
:102D5000816500BF00BF02E002201B490870E5202A
:102D6000049047F6F0000590049803904FF48070AB
:102D70001449C865C1041348C163880011498863B8
:102D800003980290029801900198496D60F3070141
:102D90000C484165406920F4FF024FF4FF0101989F
:102DA00001EAC01002430748426100BF4FF0805063
:102DB0000449C86300BF4FF0805002498863001582
:102DC000886503E000C0092078C2072000BF05988D
:102DD00003904815C865C004886303980290029860
:102DE00001900198496D60F30701FE484165406913
:102DF00020F4FF024FF4FF01019801EAC0100243E2
:102E0000F848426100BF4FF08050F649C86300BFE8
:102E10004FF08050F34988630015886500BF00BFFC
:102E20000120049000020590049803904815C8659D
:102E3000C004C863800088630398029002980190E0
:102E40000198496D60F30701E6484165406920F447
:102E5000FF024FF4FF01019801EAC0100243E1486C
:102E6000426100BF4FF08050DE49C86300BF4FF0A1
:102E70008050DC4988630015886500BF0598039081
:102E80004815C865C00488630398029002980190B1
:102E90000198496D60F30701D2484165406920F40B
:102EA000FF024FF4FF01019801EAC0100243CD4830
:102EB000426100BF4FF08050CA49C86300BF4FF065
:102EC0008050C84988630015886500BF00BF022094
:102ED00004904FF4E0600590049803904815C8658D
:102EE000C004C86380008863039802900298019030
:102EF0000198496D60F30701BA484165406920F4C3
:102F0000FF014FF4FF02019802EAC0100143B548E7
:102F1000416100BF4FF08050B249C86300BF4FF01D
:102F20008050B04988630115AE48816500BF05989F
:102F300003900846AB49C865C004886303980290B3
:102F4000029801900198496D60F30701A548416519
:102F5000406920F4FF024FF4FF01019801EAC0101C
:102F60000243A048426100BF4FF080509D49C863B2
:102F700000BF4FF080519B48816340159949886597
:102F800000BF00BF0320049041F230000590049878
:102F900003904815C865C004C8638000886303981F
:102FA0000290029801900198496D60F307018D48E5
:102FB0004165406920F4FF014FF4FF02019802EAE5
:102FC000C01001438748416100BF4FF080508549E0
:102FD000C86300BF4FF08050824988630115814863
:102FE000816500BF0598039008467E49C865C00406
:102FF000886303980290029801900198496D60F3EC
:10300000070178484165406920F4FF014FF4FF0251
:10301000019802EAC01001437248416100BF4FF0BD
:1030200080507049C86300BF4FF080506D4988637D
:103030000015886500BF00BF0420049000200590A3
:10304000049803904815C865C004C863800088636D
:1030500003980290029801900198496D60F307016E
:1030600060484165406920F4FF024FF4FF01019878
:1030700001EAC01002435B48426100BF4FF080503C
:103080005849C86300BF4FF0805056498863001507
:10309000886500BF059803904815C865C00488631B
:1030A00003980290029801900198496D60F307011E
:1030B0004C484165406920F4FF024FF4FF0101983C
:1030C00001EAC01002434748426100BF4FF0805000
:1030D0004449C86300BF4FF08051424881634015A6
:1030E0004049886500BF00BF0820049040F20720D7
:1030F0000590049803904815C865C004C863800013
:10310000886303980290029801900198496D60F3DA
:10311000070134484165406920F4FF024FF4FF0184
:10312000019801EAC01002432E48426100BF4FF0EF
:1031300080502C49C86300BF4FF0805029498863F4
:1031400001152848816500BF059803900846254968
:10315000C865C004886303980290029801900198A2
:10316000496D60F307011F484165406920F4FF0283
:103170004FF4FF01019801EAC0100243194842616F
:1031800000BF4FF08051C16300BF4FF08051154820
:10319000816340151349886500BF00BF0920049072
:1031A000002005900498039049150E48C165C80495
:1031B0000C49C863800088630398029002980190CC
:1031C0000198496D60F3070106484165406920F4A4
:1031D000FF024FF4FF01019801EAC01002430148C9
:1031E000426101E000C0092000BF4FF08050FE495D
:1031F000C86300BF4FF08050FB49886300158865A5
:1032000000BF059803904815C865C00488630398FB
:103210000290029801900198496D60F30701F2480D
:103220004165406920F4FF024FF4FF01019801EA73
:10323000C0100243EC48426100BF4FF08050EA49A1
:10324000C86300BF4FF08050E74988630015886568
:1032500000BF00BF0A20049000200590049803904E
:103260004815C865C004C86380008863039802904D
:10327000029801900198496D60F30701DA484165B1
:10328000406920F4FF024FF4FF01019801EAC010E9
:103290000243D548426100BF4FF08051C16300BF77
:1032A0004FF08050D04988630015886500BF0598AD
:1032B00003904815C865C00488630398029002987B
:1032C00001900198496D60F30701C7484165406965
:1032D00020F4FF014FF4FF02019802EAC0100143FD
:1032E000C148416100BF4FF08050BF49C86300BF73
:1032F0004FF08051BC4881634015BB49886500BFD1
:1033000000BF0C20049000200590049803904815FD
:10331000C865C004C863800088630398029002985F
:1033200001900198496D60F30701AF48416540691C
:1033300020F4FF024FF4FF01019801EAC01002439C
:10334000A948426100BF4FF08051C16300BF4FF0F8
:103350008050A54988630115A348816500BF059881
:1033600003900846A049C865C0048863039802908A
:10337000029801900198496D60F307019A484165F0
:10338000406920F4FF024FF4FF01019801EAC010E8
:1033900002439548426100BF4FF080509249C86394
:1033A00000BF4FF080519048816340158E49886579
:1033B00000BF00BF0D2004900020059004980390EA
:1033C0004815C865C004C8638000886303980290EC
:1033D000029801900198496D60F3070182484165A8
:1033E000406920F4FF024FF4FF01019801EAC01088
:1033F00002437D48426100BF4FF080507A49C86364
:1034000000BF4FF08050784988630015886500BF81
:10341000059803904815C865C00488630398029016
:10342000029801900198496D60F307016E4841656B
:10343000406920F4FF024FF4FF01019801EAC01037
:1034400002436948426100BF4FF080506649C8633B
:1034500000BF4FF08050644988630015886500BF45
:1034600000BF0F2004900020059004980390481599
:10347000C865C004C86380008863039802900298FE
:1034800001900198496D60F3070157484165406913
:1034900020F4FF024FF4FF01019801EAC01002433B
:1034A0005148426100BF4FF080504F49C86300BF90
:1034B0004FF080504C4988630015886500BF05981F
:1034C00003904815C865C004886303980290029869
:1034D00001900198496D60F30701434841654069D7
:1034E00020F4FF024FF4FF01019801EAC0100243EB
:1034F0003D48426100BF4FF080503B49C86300BF68
:103500004FF08050384988630015886500BF00BFC0
:103510001020049000200590049803904815C86579
:10352000C004C86381003048816303980290029808
:1035300001902D490198496D60F307012A484165C2
:10354000406920F4FF014FF4FF02019802EAC01025
:1035500001432548416100BF4FF080502249C863B4
:1035600000BF4FF08050204988630015886500BF78
:10357000059803904815C865C004886303980290B5
:10358000029801900198496D60F307011648416562
:10359000406920F4FF014FF4FF02019802EAC010D5
:1035A00001431148416100BF4FF080500E49C8638C
:1035B00000BF4FF080500C4988630015886500BF3C
:1035C00000BF11200490072005900498039048152F
:1035D000C865C004C86381000348816303980290F2
:1035E00002980190004901E000C009200198496D4E
:1035F00060F30701FE484165406920F4FF024FF483
:10360000FF01019801EAC0100243F948426100BF7E
:103610004FF08050F649C86300BF4FF08050F44926
:1036200088630015886500BF059803904815C86534
:10363000C004886303980290029801900198496D34
:1036400060F30701EA484165406920F4FF024FF446
:10365000FF01019801EAC0100243E548426100BF42
:103660004FF08050E249C86300BF4FF08050E049FE
:1036700088630015886500BF00BF122004900020F9
:103680000590049803904815C865C004C86380007D
:10369000886303980290029801900198496D60F345
:1036A0000701D3484165406920F4FF014FF4FF0250
:1036B000019802EAC0100143CD48416100BF4FF0BC
:1036C0008050CB49C86300BF4FF08050C849886321
:1036D0000115C748816500BF059803900846C44995
:1036E000C865C0048863039802900298019001980D
:1036F000496D60F30701BE484165406920F4FF024F
:103700004FF4FF01019801EAC0100243B84842613A
:1037100000BF4FF08050B649C86300BF4FF08050E3
:10372000B34988630015886500BF00BF132004906B
:1037300000200590049803904815C865C004C8632C
:103740008000886303980290029801900198496D67
:1037500060F30701A6484165406920F4FF014FF47A
:10376000FF02019802EAC0100143A148416100BF75
:103770004FF080509E49C86300BF4FF080509C4975
:1037800088630015886500BF059803904815C865D3
:10379000C004886303980290029801900198496DD3
:1037A00060F3070192484165406920F4FF024FF43D
:1037B000FF01019801EAC01002438D48426100BF39
:1037C0004FF080508A49C86300BF4FF0805088494D
:1037D00088630015886500BF00BF072004900120A2
:1037E0000590049803904815C865C004C86380001C
:1037F000886303980290029801900198496D60F3E4
:1038000007017B484165406920F4FF014FF4FF0246
:10381000019802EAC01001437548416100BF4FF0B2
:1038200080507349C86300BF4FF08050704988636F
:103830000015886500BF059803904815C865C00449
:10384000886303980290029801900198496D60F393
:10385000070167484165406920F4FF014FF4FF020A
:10386000019802EAC01001436148416100BF4FF076
:1038700080505F49C86300BF4FF080505C49886347
:103880000015886500BF00BFC820FFF7B3F81020FF
:10389000049041F290000590049803904FF48070DA
:1038A0005349C865C004C8638000886303980290C8
:1038B000029801900198496D60F307014C484165F9
:1038C000406920F4FF014FF4FF02019802EAC010A2
:1038D00001434748416100BF4FF080504449C863ED
:1038E00000BF4FF080504249886301154048816510
:1038F00000BF0598039008463D49C865C1043C488F
:103900008163039802900298019039490198496DAA
:1039100060F3070136484165406920F4FF024FF427
:10392000FF01019801EAC01002433148426100BF23
:103930004FF080502E49C86300BF4FF080502C4993
:1039400088630015886500BF00BF1120049040F215
:1039500027200590049803904815C865C004C863E3
:103960008000886303980290029801900198496D45
:1039700060F307011E484165406920F4FF014FF4E0
:10398000FF02019802EAC01001431948416100BFDB
:103990004FF080501649C86300BF4FF08050144963
:1039A000886301151248816500BF05980390084699
:1039B0000F49C865C004886303980290029801907B
:1039C0000198496D60F3070109484165406920F499
:1039D000FF024FF4FF01019801EAC01002430448BE
:1039E000426100BF4FF080500149C86300BF01E051
:1039F00000C009204FF08050FE498863001588659B
:103A000000BF00BF3220FEF7F5FF122004901F20F8
:103A10000590049803904FF48070F649C865C0047F
:103A2000C86380008863039802900298019001980F
:103A3000496D60F30701EF484165406920F4FF01DB
:103A40004FF4FF02019802EAC0100143E9484161C6
:103A500000BF4FF08051C16300BF4FF08050E54977
:103A600088630115E348816500BF05980390084607
:103A7000E049C865C00488630398029002980190E9
:103A80000198496D60F30701DA484165406920F407
:103A9000FF024FF4FF01019801EAC0100243D5482C
:103AA000426100BF4FF08050D249C86300BF4FF061
:103AB0008050D04988630015886500BF00BF322060
:103AC000FEF798FF132004904FF4A8500590049837
:103AD00003904FF48070C749C865C004C863800074
:103AE000886303980290029801900198496D60F3F1
:103AF0000701C0484165406920F4FF024FF4FF010F
:103B0000019801EAC0100243BA48426100BF4FF079
:103B10008050B849C86300BF4FF08050B5498863F2
:103B20000015886500BF059803904815C865C00456
:103B3000886303980290029801900198496D60F3A0
:103B40000701AC484165406920F4FF014FF4FF02D2
:103B5000019802EAC0100143A648416100BF4FF03E
:103B60008050A449C86300BF4FF08051A1488163D1
:103B70004015A049886500BF00BF29200490272078
:103B80000590049803904815C865C004C863800078
:103B9000886303980290029801900198496D60F340
:103BA000070194484165406920F4FF014FF4FF028A
:103BB000019802EAC01001438E48416100BF4FF0F6
:103BC00080508C49C86300BF4FF08050894988639A
:103BD0000015886500BF059803904815C865C004A6
:103BE000886303980290029801900198496D60F3F0
:103BF000070180484165406920F4FF024FF4FF014E
:103C0000019801EAC01002437A48426100BF4FF0B8
:103C100080507849C86300BF4FF080507549886371
:103C20000015886500BF00BF2B2004900D20059073
:103C3000049803904815C865C004C8638000886371
:103C400003980290029801900198496D60F3070172
:103C500068484165406920F4FF024FF4FF01019874
:103C600001EAC01002436348426100BF4FF0805038
:103C70006049C86300BF4FF080505E4988630015FB
:103C8000886500BF059803904815C865C00488631F
:103C900003980290029801900198496D60F3070122
:103CA00054484165406920F4FF024FF4FF01019838
:103CB00001EAC01002434F48426100BF4FF08050FC
:103CC0004C49C86300BF4FF080504A4988630015D3
:103CD000886500BF00BF3220FEF78CFE20200490D4
:103CE00000200590049803904FF480704149C86506
:103CF000C004C86380008863039802900298019012
:103D00000198496D60F307013A484165406920F424
:103D1000FF014FF4FF02019802EAC0100143354849
:103D2000416100BF4FF080503249C86300BF4FF07F
:103D300080513048816340152E49886500BF059841
:103D400003904815C865C1042A488163039802900E
:103D50000298019027490198496D60F307012548B1
:103D60004165406920F4FF024FF4FF01019801EA28
:103D7000C01002431F48426100BF4FF080501D49F0
:103D8000C86300BF4FF080501A49886300158865EA
:103D900000BF00BF212004900020059004980390EC
:103DA0004815C865C004C863800088630398029002
:103DB000029801900198496D60F307010D48416533
:103DC000406920F4FF014FF4FF02019802EAC0109D
:103DD00001430848416100BF4FF080500549C86366
:103DE00000BF4FF08050034988630015886500BF0D
:103DF000059801E000C0092003904815C865C0047B
:103E0000886303980290029801900198496D60F3CD
:103E10000701FE484165406920F4FF014FF4FF02AD
:103E2000019802EAC0100143F848416100BF4FF019
:103E30008050F649C86300BF4FF08050F349886353
:103E40000015886500BF00BF302004900020059059
:103E5000049803904815C865C004C863800088634F
:103E600003980290029801900198496D60F3070150
:103E7000E6484165406920F4FF014FF4FF020198D4
:103E800002EAC0100143E148416100BF4FF0805099
:103E9000DE49C86300BF4FF08050DC4988630015DD
:103EA000886500BF059803904815C865C0048863FD
:103EB00003980290029801900198496D60F3070100
:103EC000D2484165406920F4FF024FF4FF01019898
:103ED00001EAC0100243CD48426100BF4FF080505C
:103EE000CA49C86300BF4FF08050C84988630015B5
:103EF000886500BF00BF3120049040F20770059034
:103F0000049803904815C865C004C863800088639E
:103F100003980290029801900198496D60F307019F
:103F2000BA484165406920F4FF014FF4FF0201984F
:103F300002EAC0100143B548416100BF4FF0805014
:103F4000B249C86300BF4FF08050B0498863001584
:103F5000886500BF059803904815C865C00488634C
:103F600003980290029801900198496D60F307014F
:103F7000A6484165406920F4FF024FF4FF01019813
:103F800001EAC0100243A148426100BF4FF08050D7
:103F90009E49C86300BF4FF080509C49886300155C
:103FA000886500BF00BF3220049040F207300590C2
:103FB000049803904815C865C004C86380008863EE
:103FC00003980290029801900198496D60F30701EF
:103FD0008E484165406920F4FF024FF4FF010198CB
:103FE00001EAC01002438948426100BF4FF080508F
:103FF0008649C86300BF4FF080508449886300152C
:10400000886500BF059803904815C865C00488639B
:1040100003980290029801900198496D60F307019E
:104020007A484165406920F4FF024FF4FF0101988E
:1040300001EAC01002437548426100BF4FF0805052
:104040007249C86300BF4FF0805070498863001503
:10405000886500BF00BF35200490081505900498BE
:1040600003904815C865C004C86381006748816330
:10407000039802900298019064490198496D60F399
:10408000070162484165406920F4FF024FF4FF01D7
:10409000019801EAC01002435C48426100BF4FF042
:1040A00080505A49C86300BF4FF080505749886319
:1040B0000015886500BF059803904815C865C004C1
:1040C000886303980290029801900198496D60F30B
:1040D00007014E484165406920F4FF014FF4FF029B
:1040E000019802EAC01001434848416100BF4FF007
:1040F00080504649C86300BF4FF0805043498863F1
:104100000015886500BF00BF362004900820059088
:10411000049803904815C865C004C863800088638C
:1041200003980290029801900198496D60F307018D
:1041300036484165406920F4FF014FF4FF020198C1
:1041400002EAC01001433148416100BF4FF0805086
:104150002E49C86300BF4FF080502C49886300157A
:10416000886500BF059803904815C865C00488633A
:1041700003980290029801900198496D60F307013D
:1041800022484165406920F4FF024FF4FF01019885
:1041900001EAC01002431D48426100BF4FF0805049
:1041A0001A49C86300BF4FF0805118488163401519
:1041B0001649886500BF00BF372004900420059091
:1041C000049803904815C865C1041048C16388006D
:1041D0000E49886303980290029801900198496DF6
:1041E00060F3070109484165406920F4FF014FF47D
:1041F000FF02019802EAC01001430448416100BF78
:104200004FF08051C16300BF02E0000000C00920F0
:104210004FF08051FE4881634015FD49886500BF1D
:10422000059803904815C865C004886303980290F8
:10423000029801900198496D60F30701F4484165C7
:10424000406920F4FF024FF4FF01019801EAC01019
:104250000243EF48426100BF4FF08050EC49C86311
:1042600000BF4FF08050EA4988630015886500BFA1
:1042700000BF382004900020059004980390481552
:10428000C865C004C86380008863039802900298E0
:1042900001900198496D60F30701DD48416540696F
:1042A00020F4FF014FF4FF02019802EAC01001431D
:1042B000D748416100BF4FF08050D549C86300BF67
:1042C0004FF08050D24988630015886500BF05987B
:1042D00003904815C865C00488630398029002984B
:1042E00001900198496D60F30701C9484165406933
:1042F00020F4FF024FF4FF01019801EAC0100243CD
:10430000C348426100BF4FF08050C149C86300BF3D
:104310004FF08050BE4988630015886500BF00BF1C
:104320003920049040F207700590049803904815D6
:10433000C865C004C863800088630398029002982F
:1043400001900198496D60F30701B14841654069EA
:1043500020F4FF024FF4FF01019801EAC01002436C
:10436000AB48426100BF4FF08050A949C86300BF0D
:104370004FF08050A64988630015886500BF0598F6
:1043800003904815C865C00488630398029002989A
:1043900001900198496D60F307019D4841654069AE
:1043A00020F4FF014FF4FF02019802EAC01001431C
:1043B0009748416100BF4FF08051C16300BF4FF08B
:1043C0008050934988630015886500BF00BF3C207A
:1043D000049002200590049803904815C865C00415
:1043E000C86381008A488163039802900298019013
:1043F00087490198496D60F3070185484165406927
:1044000020F4FF014FF4FF02019802EAC0100143BB
:104410007F48416100BF4FF080507D49C86300BFB5
:104420004FF080507A4988630015886500BF059871
:1044300003904815C865C0048863039802900298E9
:1044400001900198496D60F3070171484165406929
:1044500020F4FF024FF4FF01019801EAC01002436B
:104460006B48426100BF4FF080506949C86300BF8C
:104470004FF080516648816340156549886500BFEB
:1044800000BF3D20049041F604500590049803902D
:104490004815C865C004C86380008863039802900B
:1044A000029801900198496D60F3070158484165F1
:1044B000406920F4FF014FF4FF02019802EAC010A6
:1044C00001435348416100BF4FF080505049C863D9
:1044D00000BF4FF080504E49886301154C488165FC
:1044E00000BF0598039008464949C865C004886321
:1044F00003980290029801900198496D60F30701BA
:1045000043484165406920F4FF024FF4FF010198E0
:1045100001EAC01002433E48426100BF4FF08050A4
:104520003B49C86300BF4FF080503949886300158C
:10453000886500BF00BF50200490002005900498BB
:1045400003904815C865C1043148C16388003049EB
:10455000886303980290029801900198496D60F376
:1045600007012B484165406920F4FF014FF4FF0229
:10457000019802EAC01001432548416100BF4FF095
:104580008051C16300BF4FF08050214988630015FE
:10459000886500BF0598039049151D48C165C8048A
:1045A0001B49886303980290029801900198496D15
:1045B00060F3070116484165406920F4FF024FF49B
:1045C000FF01019801EAC01002431148426100BF97
:1045D0004FF080500E49C86300BF4FF080500C4927
:1045E00088630015886500BF00BF51200490EF204C
:1045F0000590049803904815C865C004C8638100FD
:10460000034881630398029002980190004901E0F9
:1046100000C009200198496D60F30701FE4841651B
:10462000406920F4FF024FF4FF01019801EAC01035
:104630000243F948426100BF4FF08050F649C86319
:1046400000BF4FF08051F44881634015F2498865FE
:1046500000BF059803904815C865C104EE48816302
:104660000398029002980190EB490198496D60F31C
:104670000701E9484165406920F4FF014FF4FF025A
:10468000019802EAC0100143E348416100BF4FF0C6
:104690008050E149C86300BF4FF08050DE49886315
:1046A0000015886500BF00BF5220049000200590CF
:1046B000049803904815C865C004C86380008863E7
:1046C00003980290029801900198496D60F30701E8
:1046D000D1484165406920F4FF024FF4FF01019881
:1046E00001EAC0100243CC48426100BF4FF0805045
:1046F000C949C86300BF4FF08050C749886300159F
:10470000886500BF059803904815C865C004886394
:1047100003980290029801900198496D60F3070197
:10472000BD484165406920F4FF024FF4FF01019844
:1047300001EAC0100243B848426100BF4FF0805008
:10474000B549C86300BF4FF08050B3498863001576
:10475000886500BF00BF5320049040F23F100590D1
:10476000049803904815C865C004C8638000886336
:1047700003980290029801900198496D60F3070137
:10478000A5484165406920F4FF014FF4FF020198FC
:1047900002EAC0100143A048416100BF4FF08050C1
:1047A0009D49C86300BF4FF080509B498863001546
:1047B000886500BF0598039049159748C165C804EE
:1047C0009549886303980290029801900198496D79
:1047D00060F3070190484165406920F4FF024FF4FF
:1047E000FF01019801EAC01002438B48426100BFFB
:1047F0004FF080508849C86300BF4FF08050864911
:1048000088630015886500BF00BF602004904FF4E6
:1048100027400590049803904815C865C1047E4858
:10482000C16388007C4988630398029002980190D4
:104830000198496D60F3070177484165406920F4AC
:10484000FF014FF4FF02019802EAC01001437248D1
:10485000416100BF4FF08051C16300BF4FF08050F5
:104860006D4988630015886500BF05980390491558
:104870006948C165C8046849886303980290029832
:1048800001900198496D60F30701634841654069F3
:1048900020F4FF024FF4FF01019801EAC010024327
:1048A0005D48426100BF4FF080505B49C86300BF64
:1048B0004FF08050584988630015886500BF00BFDD
:1048C0006120049001200590049803904815C86564
:1048D000C004C86380008863039802900298019026
:1048E0000198496D60F307014B484165406920F428
:1048F000FF024FF4FF01019801EAC010024346484D
:10490000426100BF4FF08051C16300BF4FF0805043
:10491000414988630015886500BF059803904815D4
:10492000C865C004886303980290029801900198BA
:10493000496D60F3070138484165406920F4FF0183
:104940004FF4FF02019802EAC0100143324841616E
:1049500000BF4FF080503049C86300BF4FF0805017
:104960002D4988630015886500BF00BF6A20049048
:1049700000200590049803904815C865C004C863DA
:104980008000886303980290029801900198496D15
:1049900060F3070120484165406920F4FF014FF4AE
:1049A000FF02019802EAC01001431B48416100BFA9
:1049B0004FF080501849C86300BF4FF0805016492F
:1049C00088630015886500BF059803904815C86581
:1049D000C004886303980290029801900198496D81
:1049E00060F307010C484165406920F4FF024FF471
:1049F000FF01019801EAC01002430748426100BF6D
:104A00004FF080500449C86300BF4FF08050024906
:104A100088630015886501E000C0092000BF00BF61
:104A20008020049000200590049803904815C865E4
:104A3000C004C863800088630398029002980190C4
:104A40000198496D60F30701FE484165406920F413
:104A5000FF014FF4FF02019802EAC0100143F94838
:104A6000416100BF4FF08050F649C86300BF4FF06E
:104A70008050F44988630015886500BF059803904D
:104A80004815C865C0048863039802900298019095
:104A90000198496D60F30701EA484165406920F4D7
:104AA000FF024FF4FF01019801EAC0100243E548FC
:104AB000426100BF4FF08050E249C86300BF4FF031
:104AC0008050E04988630015886500BF00BF8120E1
:104AD000049000200590049803904815C865C00410
:104AE000C86380008863039802900298019001983F
:104AF000496D60F30701D3484165406920F4FF0127
:104B00004FF4FF02019802EAC0100143CD48416111
:104B100000BF4FF08050CB49C86300BF4FF08050BA
:104B2000C84988630015886500BF0598039048153B
:104B3000C865C004886303980290029801900198A8
:104B4000496D60F30701BF484165406920F4FF02E9
:104B50004FF4FF01019801EAC0100243B9484261D5
:104B600000BF4FF08050B749C86300BF4FF080507E
:104B7000B44988630015886500BF00BF8220049097
:104B800000200590049803904815C865C004C863C8
:104B90008000886303980290029801900198496D03
:104BA00060F30701A7484165406920F4FF024FF414
:104BB000FF01019801EAC0100243A248426100BF10
:104BC0004FF080509F49C86300BF4FF080509D490F
:104BD00088630015886500BF059803904815C8656F
:104BE000C004886303980290029801900198496D6F
:104BF00060F3070193484165406920F4FF014FF4D9
:104C0000FF02019802EAC01001438E48416100BFD3
:104C10004FF080508B49C86300BF4FF080508949E6
:104C200088630015886500BF00BF832004900020C2
:104C30000590049803904815C865C004C8638000B7
:104C4000886303980290029801900198496D60F37F
:104C500007017C484165406920F4FF014FF4FF02E1
:104C6000019802EAC01001437648416100BF4FF04D
:104C700080507449C86300BF4FF080507149886309
:104C80000015886500BF059803904815C865C004E5
:104C9000886303980290029801900198496D60F32F
:104CA000070168484165406920F4FF024FF4FF01A5
:104CB000019801EAC01002436248426100BF4FF010
:104CC00080506049C86300BF4FF080505D498863E1
:104CD0000015886500BF00BF842004900020059067
:104CE000049803904815C865C004C86380008863B1
:104CF00003980290029801900198496D60F30701B2
:104D000050484165406920F4FF014FF4FF020198CB
:104D100002EAC01001434B48416100BF4FF0805090
:104D20004849C86300BF4FF080504649886300156A
:104D3000886500BF059803904815C865C00488635E
:104D400003980290029801900198496D60F3070161
:104D50003C484165406920F4FF024FF4FF0101988F
:104D600001EAC01002433748426100BF4FF0805053
:104D70003449C86300BF4FF0805032498863001542
:104D8000886500BF00BF852004900020059004982E
:104D900003904815C865C004C86380008863039801
:104DA0000290029801900198496D60F3070125482F
:104DB0004165406920F4FF024FF4FF01019801EAC8
:104DC000C01002431F48426100BF4FF080501D4990
:104DD000C86300BF4FF080501A498863001588658A
:104DE00000BF059803904815C865C0048863039800
:104DF0000290029801900198496D60F307011148F3
:104E00004165406920F4FF024FF4FF01019801EA77
:104E1000C01002430B48426100BF4FF08050094967
:104E2000C86300BF4FF0805006498863001588654D
:104E300000BF00BF902004901020059004980390BC
:104E4000481501E000C00920C865C004C86380009F
:104E5000886303980290029801900198496D60F36D
:104E60000701FE484165406920F4FF014FF4FF024D
:104E7000019802EAC0100143F848416100BF4FF0B9
:104E80008050F649C86300BF4FF08050F3498863F3
:104E90000115F248816500BF059803900846EF4967
:104EA000C865C00488630398029002980190019835
:104EB000496D60F30701E9484165406920F4FF014D
:104EC0004FF4FF02019802EAC0100143E348416138
:104ED00000BF4FF08050E149C86300BF4FF08050E1
:104EE000DE4988630015886500BF00BF92200490EA
:104EF0004FF4C0600590049803904815C865C0043D
:104F0000C86380008863039802900298019001981A
:104F1000496D60F30701D1484165406920F4FF0104
:104F20004FF4FF02019802EAC0100143CB484161EF
:104F300000BF4FF08050C949C86300BF4FF0805098
:104F4000C64988630015886500BF05980390481519
:104F5000C865C00488630398029002980190019884
:104F6000496D60F30701BD484165406920F4FF02C7
:104F70004FF4FF01019801EAC0100243B7484261B3
:104F800000BF4FF08050B549C86300BF4FF080505C
:104F9000B24988630015886500BF00BF07200490F0
:104FA00040F233100590049803904815C865C0047A
:104FB000C86380008863039802900298019001986A
:104FC000496D60F30701A5484165406920F4FF0180
:104FD0004FF4FF02019802EAC01001439F4841616B
:104FE00000BF4FF080509D49C86300BF4FF0805014
:104FF0009A4988630015886500BF05980390491594
:105000009648C165C8049549886303980290029840
:1050100001900198496D60F307019048416540692E
:1050200020F4FF014FF4FF02019802EAC01001438F
:105030008A48416100BF4FF080508849C86300BF73
:105040004FF08050854988630015886500BF00BF18
:105050000DF012B80698A0F51341203904D0069837
:10506000B0F5134F41F0468500207D49087004904B
:105070000590049803904FF480707849C865C00487
:10508000C863800088630398029002980190019899
:10509000496D60F3070171484165406920F4FF01E3
:1050A0004FF4FF02019802EAC01001436B484161CE
:1050B00000BF4FF080506949C86300BF4FF0805077
:1050C000664988630015886500BF059803904815F8
:1050D000C865C00488630398029002980190019803
:1050E000496D60F307015D484165406920F4FF02A6
:1050F0004FF4FF01019801EAC01002435748426192
:1051000000BF4FF080505549C86300BF4FF080503A
:10511000524988630015886500BF00BF01200490D4
:1051200000020590049803904815C865C004C86340
:1051300081004A4881630398029002980190474990
:105140000198496D60F3070144484165406920F4C6
:10515000FF014FF4FF02019802EAC01001433F48EB
:10516000416100BF4FF080503C49C86300BF4FF021
:1051700080503A4988630015886500BF0598039000
:105180004815C865C004886303980290029801908E
:105190000198496D60F3070130484165406920F48A
:1051A000FF024FF4FF01019801EAC01002432B48AF
:1051B000426100BF4FF080502849C86300BF4FF0E4
:1051C0008050264988630015886500BF00BF022013
:1051D00004904FF4E0600590049803904815C8656A
:1051E000C004C8638000886303980290029801900D
:1051F0000198496D60F3070118484165406920F442
:10520000FF014FF4FF02019802EAC0100143134866
:10521000416100BF4FF080501049C86300BF4FF09C
:1052200080500E4988630015886500BF059803907B
:105230004815C865C00488630398029002980190DD
:105240000198496D60F3070104484165406920F405
:10525000FF024FF4FF01019804E0000000C00920A4
:1052600078C2072001EAC0100243FE48426100BF35
:105270004FF08050FB49C86300BF4FF08050F949A0
:1052800088630015886500BF00BF0320049041F2C9
:1052900018000590049803904815C865C004C863B9
:1052A0008000886303980290029801900198496DEC
:1052B00060F30701EB484165406920F4FF014FF4BA
:1052C000FF02019802EAC0100143E648416100BFB5
:1052D0004FF08050E349C86300BF4FF08050E14970
:1052E00088630015886500BF059803904815C86558
:1052F000C004886303980290029801900198496D58
:1053000060F30701D7484165406920F4FF014FF47D
:10531000FF02019802EAC0100143D248416100BF78
:105320004FF08050CF49C86300BF4FF08050CD4947
:1053300088630015886500BF00BF0420049000202A
:105340000590049803904815C865C004C8638000A0
:10535000886303980290029801900198496D60F368
:105360000701C0484165406920F4FF024FF4FF0186
:10537000019801EAC0100243BA48426100BF4FF0F1
:105380008050B849C86300BF4FF08050B54988636A
:105390000015886500BF059803904815C865C004CE
:1053A000886303980290029801900198496D60F318
:1053B0000701AC484165406920F4FF024FF4FF014A
:1053C000019801EAC0100243A648426100BF4FF0B5
:1053D0008050A449C86300BF4FF08050A149886342
:1053E0000015886500BF00BF0820049040F202202D
:1053F0000590049803904815C865C004C8638100EF
:105400009848816303980290029801909549019809
:10541000496D60F3070193484165406920F4FF023C
:105420004FF4FF01019801EAC01002438D48426128
:1054300000BF4FF080508B49C86300BF4FF08050D1
:10544000884988630015886500BF05980390481552
:10545000C865C0048863039802900298019001987F
:10546000496D60F307017F484165406920F4FF0200
:105470004FF4FF01019801EAC010024379484261EC
:1054800000BF4FF080507749C86300BF4FF0805095
:10549000744988630015886500BF00BF0920049027
:1054A00000200590049803904815C865C004C8639F
:1054B0008000886303980290029801900198496DDA
:1054C00060F3070167484165406920F4FF014FF42C
:1054D000FF02019802EAC01001436248416100BF27
:1054E0004FF080505F49C86300BF4FF080505D4966
:1054F00088630015886500BF059803904815C86546
:10550000C004886303980290029801900198496D45
:1055100060F3070153484165406920F4FF024FF4EE
:10552000FF01019801EAC01002434E48426100BFEA
:105530004FF080504B49C86300BF4FF0805049493D
:1055400088630015886500BF00BF0A200490002012
:105550000590049803904815C865C004C86380008E
:10556000886303980290029801900198496D60F356
:1055700007013C484165406920F4FF014FF4FF02F8
:10558000019802EAC01001433648416100BF4FF064
:1055900080503449C86300BF4FF080503149886360
:1055A0000015886500BF059803904815C865C004BC
:1055B000886303980290029801900198496D60F306
:1055C000070128484165406920F4FF014FF4FF02BC
:1055D000019802EAC01001432248416100BF4FF028
:1055E00080502049C86300BF4FF080501D49886338
:1055F0000015886500BF00BF0C20049001200590B5
:10560000049803904815C865C004C8638000886387
:1056100003980290029801900198496D60F3070188
:1056200010484165406920F4FF024FF4FF010198E2
:1056300001EAC01002430B48426100BF4FF08050A6
:105640000849C86300BF4FF08050064988630015C1
:10565000886500BF059803904815C865C004886335
:10566000039801E000C0092002900298019001987F
:10567000496D60F30701FE484165406920F4FF026F
:105680004FF4FF01019801EAC0100243F84842615B
:1056900000BF4FF08050F649C86300BF4FF0805004
:1056A000F34988630015886500BF00BF0D20049092
:1056B00000200590049803904815C865C004C8638D
:1056C0008100EB4881630398029002980190E849B9
:1056D0000198496D60F30701E5484165406920F490
:1056E000FF014FF4FF02019802EAC0100143E048B5
:1056F000416100BF4FF08050DD49C86300BF4FF0EB
:105700008050DB4988630015886500BF05980390C9
:105710004815C865C00488630398029002980190F8
:105720000198496D60F30701D1484165406920F453
:10573000FF024FF4FF01019801EAC0100243CC4878
:10574000426100BF4FF08050C949C86300BF4FF0AD
:105750008050C74988630015886500BF00BF0F20CF
:10576000049000200590049803904815C865C00473
:10577000C8638000886303980290029801900198A2
:10578000496D60F30701BA484165406920F4FF02A2
:105790004FF4FF01019801EAC0100243B44842618E
:1057A00000BF4FF08050B249C86300BF4FF0805037
:1057B000AF4988630015886500BF059803904815B8
:1057C000C865C0048863039802900298019001980C
:1057D000496D60F30701A6484165406920F4FF0266
:1057E0004FF4FF01019801EAC0100243A048426152
:1057F00000BF4FF080509E49C86300BF4FF08050FB
:105800009B4988630015886500BF00BF6420FDF7D1
:10581000F1F80720049040F20110059004980390DD
:105820004FF480709249C865C004C86380008863E3
:1058300003980290029801900198496D60F3070166
:105840008B484165406920F4FF014FF4FF02019845
:1058500002EAC01001438648416100BF4FF080500A
:105860008349C86300BF4FF08050814988630015A9
:10587000886500BF059803904815C865C004886313
:1058800003980290029801900198496D60F3070116
:1058900077484165406920F4FF014FF4FF02019809
:1058A00002EAC01001437248416100BF4FF08050CE
:1058B0006F49C86300BF4FF080506D498863001581
:1058C000886500BF00BF6420FDF794F810200490A5
:1058D0004FF486500590049803904FF4807064490B
:1058E000C865C004C863800088630398029002986A
:1058F00001900198496D60F307015D484165406979
:1059000020F4FF014FF4FF02019802EAC0100143A6
:105910005748416100BF4FF080505549C86300BFF0
:105920004FF08050524988630015886500BF059884
:10593000039049154E48C165C8044D4988630398D2
:105940000290029801900198496D60F30701484860
:105950004165406920F4FF024FF4FF01019801EA1C
:10596000C01002434248426100BF4FF0805040499E
:10597000C86300BF4FF080503D49886301153C4823
:10598000816500BF00BF1120049007200590049896
:10599000039008463649C865C1043548C16388008C
:1059A0003349886303980290029801900198496DE9
:1059B00060F307012E484165406920F4FF014FF470
:1059C000FF02019802EAC01001432948416100BF6B
:1059D0004FF080502649C86300BF4FF080502449E3
:1059E000886301152248816500BF05980390084629
:1059F0001F49C865C004886303980290029801900B
:105A00000198496D60F3070119484165406920F428
:105A1000FF024FF4FF01019801EAC010024314484D
:105A2000426100BF4FF080501149C86300BF4FF082
:105A300080500F4988630015886500BF00BF1220A1
:105A400004904FF488700590049803904815C86539
:105A5000C004C86380008863039802900298019094
:105A60000198496D60F3070101484165406901E013
:105A700000C0092020F4FF014FF4FF02019802EA60
:105A8000C0100143FE48416100BF4FF08050FC4907
:105A9000C86300BF4FF08050F949886300158865DE
:105AA00000BF059803904815C865C0048863039833
:105AB0000290029801900198496D60F30701F04847
:105AC0004165406920F4FF024FF4FF01019801EAAB
:105AD000C0100243EA48426100BF4FF08050E849DD
