:020000040000FA
:10000000184A0010E1000000E9000000EB000000C9
:10001000ED000000EF000000F10000000000000013
:10002000000000000000000000000000F3000000DD
:10003000F500000000000000F70000008F560000EF
:10004000FB000000A1590000095A00002F5A0000CF
:10005000315A000021490000FB000000FB000000B5
:10006000FB000000FB000000FB000000FB000000A4
:10007000FB000000FB000000FB000000FB00000094
:10008000FB00000029550000FB000000FB00000001
:10009000FB000000FB00000045350000FB000000F5
:1000A000FB000000FB000000FB000000FB00000064
:1000B000CB530000FB000000FB000000FB00000031
:1000C000FB000000FB000000FB000000DFF80CD08C
:1000D00018F07EFB0048004705010000184A001098
:1000E0000648804706480047FEE7FEE7FEE7FEE7D2
:1000F000FEE7FEE7FEE7FEE7FEE7FEE7A9040000F5
:10010000CD00000000F034F803E001F0B3FD00F092
:10011000C9F8FAE7042043490968087000204249F9
:10012000096808604049096888603F490968486073
:100130003D490968C8613C490968C86000213A48DE
:10014000006881610020384909680861002136484B
:10015000006841613548364908603648486036488D
:1001600088603648C8600A204861002008747047DB
:100170001CB502F09AF8002015F051FE02F09BF831
:10018000FFF7C8FF002015F04AFE02F0A4F8002097
:1001900015F045FE02F0B4F800F080F8002015F0EC
:1001A0003EFE02F0C7F805F01BFA05F041FA03F035
:1001B0008BF900F049F803F07BFA05F069F94FF488
:1001C00008511A4803F05CFC1D481E495A230022BE
:1001D000CDE900101146022003F012FD002000902E
:1001E0000346322201210190062003F009FD00F0B0
:1001F00047F803F095FD03F0A6FE03F0FCFA03F0C8
:10020000A1F803F03BFF02F08EFE002015F007FE80
:1002100002F0AFF8002015F002FE00200149096845
:1002200008701CBD080000100400001000004842C7
:1002300054040010000020C10080BB440000FA43B9
:100240006F12033B6F12833A0848406840F48020E5
:10025000064948600846406C20F440204864044841
:10026000006840F0040002490860704700C0024086
:1002700000400340AA2041070872552008727047C9
:1002800000B5054841064860012008610320087058
:10029000FFF7F0FF00BD0000A0ACB90310B51BF0E4
:1002A00029FD10BD10B51BF019FF10BD00BFFEE702
:1002B00070B505460C46A4F12000044A02EB00117B
:1002C0001022284600F004F870BD0000ACEA0100DE
:1002D00040EA01039B0703D009E008C9121F08C0C8
:1002E000042AFAD203E011F8013B00F8013B521E48
:1002F000F9D2704700487047D4F50100FFFFFFFFB7
:100300002DE9F047B1480068C0F3016003287CD1B3
:10031000AF48006810F0030006D0012833D002284F
:100320005FD003282ED100E000BFA8480068C0F3CA
:10033000074000F101044FF00201A648D0F8880000
:10034000C0F30E0000F10100A1FB0001A24B4FF031
:10035000000CA0FB037901FB039100FB0C1122466A
:100360006346384617F07EFA05469C480068C0B2DE
:1003700000F1010422464FF00003284617F072FAFC
:10038000974908605DE091480068C0F3074000F1BC
:1003900001044FF002018F48D0F88800C0F30E002E
:1003A00000F10100A1FB00108E4A4FF0000CA1FBF0
:1003B000027900FB029001FB0C012246634638469D
:1003C00017F050FA054685480068C0B200F10104F4
:1003D00022464FF00003284617F044FA804908608F
:1003E0002FE07A480068C0F3074000F101044FF0A5
:1003F00002017848D0F88800C0F30E0000F1010037
:10040000A1FB00124FF4004000E01BE04FF000039E
:10041000A1FB007902FB009001FB03012246384654
:1004200017F020FA05466D480068C0B200F10104DB
:1004300022464FF00003284617F014FA6849086076
:1004400000BF2FE06248006810F0030006D00128CA
:1004500010D0022819D0032823D100E000BF5F4844
:100460000068C0B200F101005B49B1FBF0F05C49EB
:10047000086016E059480068C0B200F1010059490F
:10048000B1FBF0F0564908600BE054480068C0B278
:1004900000F101004FF40041B1FBF0F05049086059
:1004A00000BF00BFBDE8F08720204F4908604948E1
:1004B000D0F8A00110F0200F05D000BF4A48006816
:1004C00010F0400FFAD00320444908604FF00000BC
:1004D0004049C1F8A801454908604FF001003C4976
:1004E00008604348434908604FF0AA004249086049
:1004F0004FF0550008604FF00100404908604FF090
:10050000AA003D4908604FF055003249C1F88C00FF
:1005100000BF2E48006810F0806FFAD003203749E2
:1005200008604FF0AA002B49C1F88C004FF055002D
:100530003149086000BF2548006800F04070B0F104
:10054000407FF8D123202E4908604FF0AA002149AE
:10055000C1F8AC004FF055002A4908604FF0010087
:10056000294908604FF0AA00264908604FF055005D
:100570001849C1F8AC0000BF2448006810F4806F2F
:10058000FAD00320204908604FF0AA001149C1F8B1
:10059000AC004FF055001B49086000BF1B480068C5
:1005A00000F44070B0F5407FF8D11948194908604F
:1005B0004FF000000749C1F8C8010846006820F460
:1005C000704040F4804008607047000088C00F40D1
:1005D0000CC10F4000C00F4000093D0004C10F4096
:1005E00000000010001BB700A0C10F40ACC10F40BD
:1005F0006300050084C00F408CC00F4080C00F40D6
:10060000A4C00F40ACC00F40A0C00F40A8C00F4016
:10061000DE872804C4C00F401CB50446FE4800789D
:10062000012847D1FD4800882188884219DD2088AB
:10063000A1880844F9490988884212DDF7484088B2
:10064000618888420DDD6088E1880844F349498863
:10065000884206DD207A10B9012020721CBD0020DE
:10066000FCE7EF48406900EB80004000ED49098855
:1006700088421CD80020009003463C2201210190B2
:10068000062003F0BDFA0320E7490870E748007828
:1006900001280CDD0120E64908700420E2490870B9
:1006A000E2480078022802D10120E24908700020C7
:1006B000DC4908800020207200BFCFE72DE9F84F09
:1006C00004460E4617461D460095B4F800C0B4F81F
:1006D0000480C444ACF1010C1FFA8CF26388194603
:1006E000208816F0E6FF0095B4F802C0B4F8068042
:1006F000C444ACF1010C1FFA8CF3228861881046C7
:1007000016F0D7FF0095B4F802C0B4F80680C444D0
:10071000ACF1010C1FFA8CF3B4F800C0B4F80480FB
:10072000C444ACF1010C1FFA8CF2B4F802C0B4F866
:100730000680C444ACF1010C1FFA8CF1208816F03D
:10074000B8FF0095B4F802C0B4F80680C444ACF118
:10075000010C1FFA8CF3B4F800C0B4F80480C44450
:10076000ACF1010C1FFA8CF2B4F800C0C444ACF137
:10077000010C1FFA8CF0618816F09BFF304617F0D1
:10078000B4F84008B4F8049009EBD971228802EB60
:100790006101A1EBC0001FFA80FA00200090B4F8BC
:1007A000068008EBD870628802EB6000083881B2DE
:1007B0003B463246504617F02BF8BDE8F88F2DE93E
:1007C000FC414FF4FC634FF6E0729B499B48FFF7F6
:1007D00075FF4FF4FC634FF6E07299A19948FFF75B
:1007E0006DFF4FF4FC634FF6E07297A19748FFF757
:1007F00065FF4FF4FC634FF6E07295A19748FFF751
:100800005DFF4FF4FC634FF6E07295A19748FFF748
:1008100055FF4FF4FC634FF6E07295A19748FFF740
:100820004DFF4FF4FC634FF6E07295A19748FFF738
:1008300045FF7B49086817F068FD04467849486819
:1008400017F063FD05467649886817F05EFD064699
:100850007349C86817F059FD074633463A468CA1DC
:100860009248CDE9005418F033FA6D48007C38B155
:100870004FF4FC631A468D498D48FFF71FFF07E0D0
:100880004FF4FC634FF4784288498948FFF716FF1C
:100890004FF4FC634FF6E07286A18748FFF70EFF26
:1008A0004FF4FC634FF6E07282A18448FFF706FF25
:1008B0004FF4FC634FF6E0727EA18148FFF7FEFE25
:1008C0004FF4FC634FF6E0727AA17E48FFF7F6FE24
:1008D0004FF4FC634FF6E0727BA17C48FFF7EEFE1D
:1008E0004FF4FC634FF6E07277A17948FFF7E6FE1C
:1008F0004FF4FC634FF6E07273A17648FFF7DEFE1B
:100900004FF4FC634FF6E0726FA17348FFF7D6FE19
:10091000BDE8FC811CB54FF4FC634FF6E07246491C
:100920004648FFF7CBFE4FF4FC634FF6E07244A15C
:100930004448FFF7C3FE4FF4FC634FF6E07242A158
:100940004248FFF7BBFE4FF4FC634FF6E07263A131
:100950004248FFF7B3FE4FF4FC634FF6E07261A12B
:100960004248FFF7ABFE4FF4FC634FF6E0725FA125
:100970004248FFF7A3FE4FF4FC634FF6E0725EA11E
:100980004248FFF79BFE78200121A823C022CDE931
:1009900000105BA1454818F09BF94FF4FC634FF63B
:1009A000E07242494248FFF789FE4FF4FC634FF67C
:1009B000E07240A14048FFF781FE4FF4FC634FF620
:1009C000E0723CA13D48FFF779FE4FF4FC634FF61F
:1009D000E07238A13A48FFF771FE4FF4FC634FF61E
:1009E000E07234A13748FFF769FE4FF4FC634FF61D
:1009F000E07235A13548FFF761FE4FF4FC634FF616
:100A0000E07231A13248FFF759FE4FF4FC634FF614
:100A1000E0722DA12F487BE0EC020010380300109B
:100A200054040010F4030010190000101800001006
:100A30001B0000101A0000100F47001026000010C5
:100A40002D3E0000300000103C2D00003A00001048
:100A500054656D702E6D696E2E0000002A01001025
:100A600054656D702E6D61782E0000003401001009
:100A7000507265732E6D696E2E0000003E010010ED
:100A8000507265732E6D61782E00000048010010D1
:100A900050726573205B25642C25645D2054656D60
:100AA00070205B25642C25645D0000006C04001040
:100AB000520100102D0000005C01001066010010C2
:100AC000700100107A0100102B000000840100105A
:100AD0008E01001098010010A2010010486F726191
:100AE000730000004D696E75746F73005365677510
:100AF0006E646F73000000004469617300000000C1
:100B000049503A25642E25642E25642E2564000064
:100B1000FFF7D4FD4FF4FC634FF6E072AFF25801DB
:100B2000FE48FFF7CBFD1CBDF8B504460E46002578
:100B300014E000966788B4F806C06744BF1EBBB2D5
:100B400027882F44BF1CBAB26788BF1CB9B2278858
:100B50002F44BF1CB8B216F0ACFD6D1CA088001F5E
:100B6000A842E6DCF8BD2DE9F0414FF4FC634FF6F6
:100B7000E072EB49EB48FFF7A1FD4FF4FC634FF641
:100B8000E072AFF24411E848FFF798FD4FF4FC63C0
:100B90004FF6E072AFF25011E448FFF78FFD4FF4CB
:100BA000FC634FF6E072E2A1E548FFF787FDE548F8
:100BB0000068407810F0010F2FD0E34909680868F9
:100BC00017F008FC044622460B46E0A1E24818F064
:100BD0007FF84FF4FC634FF6E072DF49DF48FFF720
:100BE0006DFDD9490968486817F0F4FB04462246B0
:100BF0000B46DBA1D84818F06BF84FF4FC634FF6B6
:100C0000E072D549D948FFF759FDCE4800684078D1
:100C100020F00100CB4909684870D54A5168106836
:100C200017F043F90646D24A5168C74A126810685D
:100C300017F03BF90746CF4917F03DF90546314615
:100C400017F06FF9044617F060FB0B287ED2DFE83F
:100C500000F0062F5986B2DFFDFCFBFAF9000021F7
:100C6000C548FFF761FF0021C448FFF75DFF002181
:100C7000C348FFF759FF0021C248FFF755FF002185
:100C8000C148FFF751FF0021C048FFF74DFF002189
:100C9000BF48FFF749FF0021BE48FFF745FF00218D
:100CA000BD48FFF741FF0021BC48FFF73DFF7BE255
:100CB0004FF6FF71B048FFF737FF0021AF48FFF74D
:100CC00033FF0021AE48FFF72FFF0021AD48FFF7AB
:100CD0002BFF0021AC48FFF727FF0021AB48FFF7AF
:100CE00023FF0021AA48FFF71FFF0021A948FFF7B3
:100CF0001BFF0021A848FFF717FF0021A748FFF7B7
:100D000013FF51E24FF6FF719B48FFF70DFF4FF6BF
:100D1000FF719A48FFF708FF00219948FFF704FF89
:100D200000219848FFF700FF00219748FFF7FCFEDD
:100D300000219648FFF7F8FE00219548FFF7F4FEE2
:100D400000219448FFF7F0FE002100E0C1E1924845
:100D5000FFF7EAFE00219148FFF7E6FE24E24FF696
:100D6000E0718548FFF7E0FE4FF6E0718348FFF73A
:100D7000DBFE4FF6E0718248FFF7D6FE0021814886
:100D8000FFF7D2FE00218048FFF7CEFE00217F480A
:100D9000FFF7CAFE00217E48FFF7C6FE00217D480E
:100DA000FFF7C2FE00217C48FFF7BEFE00217B4812
:100DB000FFF7BAFEF8E14FF6E0716F48FFF7B4FEB7
:100DC0004FF6E0716D48FFF7AFFE4FF6E0716C48EB
:100DD000FFF7AAFE4FF6E0716A48FFF7A5FE002173
:100DE0006948FFF7A1FE00216848FFF79DFE00213A
:100DF0006748FFF799FE00216648FFF795FE00213E
:100E00006548FFF791FE00216448FFF78DFECBE1B6
:100E10001F215948FFF788FE1F215848FFF784FE1D
:100E20001F215748FFF780FE1F215648FFF77CFE21
:100E30001F215548FFF778FE00215448FFF774FE44
:100E4000002104E012E1DFE0ADE039E00FE05048BE
:100E5000FFF76AFE00214F48FFF766FE00214E486B
:100E6000FFF762FE00214D48FFF75EFE9CE11F2167
:100E70004148FFF759FE1F214048FFF755FE1F214B
:100E80003F48FFF751FE1F213E48FFF74DFE1F214F
:100E90003D48FFF749FE1F213C48FFF745FE002172
:100EA0003B48FFF741FE00213A48FFF73DFE002195
:100EB0003948FFF739FE00213848FFF735FE73E166
:100EC0004FF4FC612C48FFF72FFE4FF4FC612B48D8
:100ED000FFF72AFE4FF4FC612948FFF725FE4FF487
:100EE000FC612848FFF720FE4FF4FC612648FFF71D
:100EF0001BFE4FF4FC612548FFF716FE4FF4FC6122
:100F00002348FFF711FE00212248FFF70DFE0021C4
:100F10002148FFF709FE0021204841E0A20100100E
:100F20000F47001026000010300000103A0000109B
:100F300054656D70657261747572613A00000000ED
:100F4000AC0100101000001004000010252E3032FB
:100F500066206443000000006C040010B60100101D
:100F6000252E303266206D4261722E00D4010010B1
:100F700054040010000020414C02001056020010E2
:100F8000600200106A020010740200107E0200105D
:100F900088020010920200109C020010A6020010AD
:100FA000FFF7C2FD00E14FF4FC61FE48FFF7BCFD16
:100FB0004FF4FC61FC48FFF7B7FD4FF4FC61FB48C0
:100FC000FFF7B2FD4FF4FC61F948FFF7ADFD4FF4B8
:100FD000FC61F848FFF7A8FD4FF4FC61F648FFF705
:100FE000A3FD4FF4FC61F548FFF79EFD4FF4FC6153
:100FF000F348FFF799FD0021F248FFF795FD002126
:10100000F148FFF791FDCFE04FF47841E548FFF755
:101010008BFD4FF47841E448FFF786FD4FF47841AB
:10102000E248FFF781FD4FF47841E148FFF77CFD8E
:101030004FF47841DF48FFF777FD4FF47841DE4801
:10104000FFF772FD4FF47841DC48FFF76DFD4FF478
:101050007841DB48FFF768FD4FF47841D948FFF746
:1010600063FD0021D848FFF75FFD9DE04FF4784114
:10107000CC48FFF759FD4FF47841CB48FFF754FDBA
:101080004FF47841C948FFF74FFD4FF47841C84805
:10109000FFF74AFD4FF47841C648FFF745FD4FF48E
:1010A0007841C548FFF740FD4FF47841C348FFF74A
:1010B0003BFD4FF47841C248FFF736FD4FF47841CD
:1010C000C048FFF731FD4FF47841BF48FFF72CFDD2
:1010D0006AE0BE4A5168BE4A1268106817F0C8F943
:1010E00031D24FF47841AF48FFF71EFD4FF47841FD
:1010F000AD48FFF719FD4FF47841AC48FFF714FDF8
:101100004FF47841AA48FFF70FFD4FF47841A94802
:10111000FFF70AFD4FF47841A748FFF705FD4FF4AC
:101120007841A648FFF700FD4FF47841A448FFF747
:10113000FBFC4FF47841A348FFF7F6FC4FF47841ED
:10114000A148FFF7F1FCA14A5168A14A1268106852
:1011500017F084F927D200219248FFF7E5FC00211F
:101160009148FFF7E1FC00219048FFF7DDFC0021EA
:101170008F48FFF7D9FC00218E48FFF7D5FC0021EE
:101180008D48FFF7D1FC00218C48FFF7CDFC0021F2
:101190008B48FFF7C9FC00218A48FFF7C5FC0021F6
:1011A0008948FFF7C1FC00BF00BF4FF4FC634FF656
:1011B000E07288A18A48FFF781FA844AD168906872
:1011C00016F073FE0646814AD168814A126850685B
:1011D00016F06BFE0746834916F06DFE0546314654
:1011E00016F09FFE044617F090F80B287ED2DFE839
:1011F00000F0062F5986B2D8D7D6D5D4D300002117
:101200007948FFF791FC00217848FFF78DFC002119
:101210007748FFF789FC00217648FFF785FC00211D
:101220007548FFF781FC00217448FFF77DFC002121
:101230007348FFF779FC00217248FFF775FC002125
:101240007148FFF771FC00217048FFF76DFC6FE2F9
:101250004FF6FF716448FFF767FC00216348FFF712
:1012600063FC00216248FFF75FFC00216148FFF743
:101270005BFC00216048FFF757FC00215F48FFF747
:1012800053FC00215E48FFF74FFC00215D48FFF74B
:101290004BFC00215C48FFF747FC00215B48FFF74F
:1012A00043FC45E24FF6FF714F48FFF73DFC4FF618
:1012B000FF714E48FFF738FC00214D48FFF734FC22
:1012C00000214C48FFF730FC00214B48FFF72CFC75
:1012D00000214A48FFF728FC00214948FFF724FC79
:1012E00000214848FFF720FC002100E0B5E1464816
:1012F000FFF71AFC00214548FFF716FC18E24FF6ED
:10130000E0713948FFF710FC4FF6E0713748FFF7FE
:101310000BFC4FF6E0713648FFF706FC002135481C
:10132000FFF702FC00213448FFF7FEFB00213348A1
:10133000FFF7FAFB00213248FFF7F6FB00213148A6
:10134000FFF7F2FB00213048FFF7EEFB00212F48AA
:10135000FFF7EAFBECE14FF6E0712348FFF7E4FB0F
:101360004FF6E0712148FFF7DFFB4FF6E0712048B0
:10137000FFF7DAFB4FF6E0711E48FFF7D5FB0021BF
:101380001D48FFF7D1FB00211C48FFF7CDFB0021D2
:101390001B48FFF7C9FB3BE02CE1F9E0C7E096E012
:1013A0006CE042E04C020010560200106002001097
:1013B0006A020010740200107E0200108802001001
:1013C000920200109C020010A602001054040010AB
:1013D0000400001050726573696F6E3A00000000DF
:1013E000CA01001000002041E8010010F2010010C5
:1013F000FC01001006020010100200101A0200107A
:10140000240200102E0200103802001042020010C8
:101410000021FE48FFF788FB0021FD48FFF784FB11
:101420000021FC48FFF780FB82E11F21FA48FFF70B
:101430007BFB1F21F948FFF777FB1F21F848FFF7D7
:1014400073FB1F21F748FFF76FFB1F21F648FFF7DB
:101450006BFB0021F548FFF767FB0021F448FFF71D
:1014600063FB0021E948FFF75FFB0021E848FFF735
:101470005BFB0021E748FFF757FB59E11F21E648D6
:10148000FFF752FB1F21E548FFF74EFB1F21E44801
:10149000FFF74AFB1F21E348FFF746FB1F21E24805
:1014A000FFF742FB1F21E148FFF73EFB0021E04828
:1014B000FFF73AFB0021D548FFF736FB0021D4485F
:1014C000FFF732FB0021D348FFF72EFB30E14FF44A
:1014D000FC61D148FFF728FB4FF4FC61CF48FFF7D0
:1014E00023FB4FF4FC61CE48FFF71EFB4FF4FC6179
:1014F000CC48FFF719FB4FF4FC61CB48FFF714FB16
:101500004FF4FC61C948FFF70FFB4FF4FC61C8487A
:10151000FFF70AFB0021BD48FFF706FB0021BC488E
:10152000FFF702FB0021BB48FFF7FEFA00E14FF492
:10153000FC61B948FFF7F8FA4FF4FC61B748FFF7D0
:10154000F3FA4FF4FC61B648FFF7EEFA4FF4FC6192
:10155000B448FFF7E9FA4FF4FC61B348FFF7E4FA47
:101560004FF4FC61B148FFF7DFFA4FF4FC61B0487B
:10157000FFF7DAFA4FF4FC61A448FFF7D5FA00212F
:10158000A348FFF7D1FA0021A248FFF7CDFACFE038
:101590004FF47841A048FFF7C7FA4FF478419F48CD
:1015A000FFF7C2FA4FF478419D48FFF7BDFA4FF4B8
:1015B00078419C48FFF7B8FA4FF478419A48FFF712
:1015C000B3FA4FF478419948FFF7AEFA4FF47841F7
:1015D0009748FFF7A9FA4FF478418C48FFF7A4FA2F
:1015E0004FF478418A48FFF79FFA00218948FFF7B6
:1015F0009BFA9DE04FF478418748FFF795FA4FF446
:1016000078418648FFF790FA4FF478418448FFF715
:101610008BFA4FF478418348FFF786FA4FF478410C
:101620008148FFF781FA4FF478418048FFF77CFA50
:101630004FF478417E48FFF777FA4FF478417348CA
:10164000FFF772FA4FF478417148FFF76DFA4FF4E3
:1016500078417048FFF768FA6AE0764A9168764AFE
:101660001268506816F004FF31D24FF478416A488E
:10167000FFF75AFA4FF478416848FFF755FA4FF4EC
:1016800078416748FFF750FA4FF478416548FFF713
:101690004BFA4FF478416448FFF746FA4FF478412B
:1016A0006248FFF741FA4FF478416148FFF73CFA8E
:1016B0004FF478415548FFF737FA4FF478415448D2
:1016C000FFF732FA4FF478415248FFF72DFA594AA2
:1016D000D168594A1268506816F0C0FE27D200211E
:1016E0004D48FFF721FA00214C48FFF71DFA002171
:1016F0004B48FFF719FA00214A48FFF715FA002175
:101700004948FFF711FA00214848FFF70DFA002178
:101710004748FFF709FA00213C48FFF705FA002186
:101720003B48FFF701FA00213A48FFF7FDF900BFF7
:1017300000BFBDE8F08170B54FF4FC634FF6E07276
:101740003E493F48FEF7BAFF4FF4FC634FF6E072A4
:10175000AFF614513B48FEF7B1FF4FF4FC634FF670
:10176000E072AFF61C513848FEF7A8FF4FF4FC6357
:101770004FF6E07235A13A48FEF7A0FF39480068FD
:10178000407810F0010F13D02B490968886916F0D2
:1017900021FE044622460B4633A1384817F098FA3A
:1017A0004FF4FC634FF6E07234493548FEF786FF8C
:1017B0004FF4FC634FF6E07232A13548FEF77EFF2E
:1017C0004FF4FC634FF6E07232A13548FEF776FF26
:1017D0004FF4FC634FF6E07232A13548FEF76EFF1E
:1017E0004FF4FC634FF6E07232A13548FEF766FF16
:1017F0001C480068007810F0010F78D00E49096885
:10180000C86916F0E7FD044622465BE02E02001090
:101810003802001042020010E8010010F20100102E
:10182000FC01001006020010100200101A02001045
:101830002402001054040010040000100F47001090
:1018400026000010300000103A0000104D454449B9
:101850004441532041435455414C4553000000003E
:10186000C600001010000010416C747572613A20BF
:10187000252E303266206D2E000000006C04001012
:10188000D000001056656C2E20762E3A0000000025
:10189000DA00001048756D656461643A000000006C
:1018A000E4000010436C6172696461643A000000F6
:1018B000EE000010496E636964652055563A0000D9
:1018C000F80000100B46FCA1FE4817F001FA4FF497
:1018D000FC634FF6E072FB49FB48FEF7EFFEFB4866
:1018E0000068007820F00100F84909680870F7489E
:1018F0000068407810F0010F1BD0F549096888682E
:1019000016F068FD044622460B46F2A1ED4817F09A
:10191000DFF94FF4FC634FF6E072EA49F048FEF756
:10192000CDFEEA480068407820F00100E7490968E8
:101930004870E7490968086A16F04CFD04462246DB
:101940000B46E8A1DF4817F0C3F94FF4FC634FF6EC
:10195000E072DC49E648FEF7B1FEDD490968C86877
:1019600016F038FD044622460B46E2A1D54817F092
:10197000AFF94FF4FC634FF6E072D249E048FEF74E
:101980009DFE70BD10B54FF4FC634FF6E072DD496B
:10199000DD48FEF793FE4FF4FC634FF6E072AFF6BE
:1019A0006071DA48FEF78AFE4FF4FC634FF6E0728E
:1019B000AFF66C71D648FEF781FE4FF4FC634FF62C
:1019C000E072D4A1D548FEF779FE4FF4FC634FF6E0
:1019D000E072D3A1D448FEF771FE4FF4FC634FF6DA
:1019E000E072D2A1D648FEF769FED64800780528F5
:1019F0002BD2DFE800F0032B537BA3004FF6FF73DD
:101A00001A46D1A1D148FEF759FE4FF4FC634FF6B8
:101A1000E072CFA1CF48FEF751FE4FF4FC634FF6C2
:101A2000E072CDA1CD48FEF749FE4FF4FC634FF6BE
:101A3000E072CBA1CB48FEF741FE4FF4FC634FF6BA
:101A4000E072C9A1C948FEF739FE9FE04FF4FC637C
:101A50004FF6E072BCA1BD48FEF730FE4FF6FF73B3
:101A60001A46BBA1BB48FEF729FE4FF4FC634FF6B4
:101A7000E072B9A1B948FEF721FE4FF4FC634FF6BE
:101A8000E072B7A1B748FEF719FE4FF4FC634FF6BA
:101A9000E072B5A1B548FEF711FE77E04FF4FC63A4
:101AA0004FF6E072A8A1A948FEF708FE4FF4FC63C8
:101AB0004FF6E072A6A1A748FEF700FE4FF6FF73AF
:101AC0001A46A5A1A548FEF7F9FD4FF4FC634FF6B1
:101AD000E072A3A1A348FEF7F1FD4FF4FC634FF6BB
:101AE000E072A1A1A148FEF7E9FD4FE04FF4FC63CD
:101AF0004FF6E07294A19548FEF7E0FD4FF4FC63C9
:101B00004FF6E07292A19348FEF7D8FD4FF4FC63C4
:101B10004FF6E07290A19148FEF7D0FD4FF6FF73AB
:101B20001A468FA18F48FEF7C9FD4FF4FC634FF6AC
:101B3000E0728DA18D48FEF7C1FD27E04FF4FC63F4
:101B40004FF6E07280A18148FEF7B8FD4FF4FC63C8
:101B50004FF6E0727EA17F48FEF7B0FD4FF4FC63C4
:101B60004FF6E0727CA17D48FEF7A8FD4FF4FC63C0
:101B70004FF6E0727AA17B48FEF7A0FD4FF6FF73A7
:101B80001A4679A17948FEF799FD00BF00BF4FF4CE
:101B9000FC634FF6E07276A17748FEF78FFD774839
:101BA000007820B101281AD0022847D12EE04FF446
:101BB00078431A4672A17348FEF780FD4FF4FC6328
:101BC0004FF6E07270A17148FEF778FD4FF4FC63A8
:101BD0004FF6E0726EA16F48FEF770FD2EE04FF4F5
:101BE000FC634FF6E07266A16648FEF767FD1F23AF
:101BF0001A4665A16548FEF761FD4FF4FC634FF698
:101C0000E07263A16348FEF759FD17E04FF4FC63EF
:101C10004FF6E0725AA15B48FEF750FD4FF4FC63AB
:101C20004FF6E07258A15948FEF748FD4FF6FF7392
:101C30001A4657A15748FEF741FD00BF00BF4FF4B9
:101C4000FC634FF6E07254A15548FEF737FD10BD16
:101C500010B500F0B0FD044644B1524A2146524846
:101C600000F05FFF01205149087002E000204F4959
:101C7000087010BD1CB5FEF7FDFAFFF7E9FF4C48F0
:101C80000078B8B14FF0E020006910F4803F11D027
:101C9000002000900E4901900968464B0022086A16
:101CA000012102F097F8002000900346019041487E
:101CB000027881E084E00000252E303266206D70CD
:101CC000730000006C0400100201001010000010EE
:101CD00004000010252E303266202525000000006B
:101CE0000C010010252E303266204C5558000000A3
:101CF00016010010252E3032662055567300000064
:101D0000200100100F4700102600001030000010C6
:101D10003A00001056616C6F726573004400001049
:101D2000416A7573746573004E0000104E697665E4
:101D30006C206465206272696C6C6F3A0000000070
:101D4000580000101900001031000000620000105F
:101D5000320000006C00001033000000760000101C
:101D60003400000080000010410000008A000010D4
:101D7000506C617900000000940000101800001001
:101D8000485000009E0000104C500000A8000010B9
:101D9000554C5000B20000104C6F61640000000010
:101DA000BC000010F002001038030010EC0200101C
:101DB0001B000010ED0200100121062001F020FFA1
:101DC000FE480068007806287ED2DFE800F003FDB8
:101DD000FCFBFAF9FFF7D6FDF948FEF71DFC30B120
:101DE0000120F64909680870002014F018F8F54839
:101DF000FEF712FC30B10220F0490968087000209B
:101E000014F00DF8F048FEF707FC30B10320EB4961
:101E100009680870002014F002F8EC48FEF7FCFB9B
:101E200030B10520E54909680870002013F0F7FF7C
:101E3000E748FEF7F1FB88B10020E6490870E64963
:101E4000087000900346012211460190062001F01F
:101E5000D7FE0020E1490870E1490870E148FEF72B
:101E6000DBFB90B10020DB490870DB490870009073
:101E70000346142201210190062001F0C1FE012039
:101E8000D64908700020D6490870D748FEF7C4FB31
:101E900090B10020CF490870CF49087000900346E8
:101EA000282201210190062001F0AAFE0220CB4940
:101EB00008700020CA490870CC48FEF7ADFBA8B1F5
:101EC00000200090034600E0ECE13C22012101905B
:101ED000062001F095FE0020BE490870BE4908703A
:101EE0000320BE4908700020BD490870C048FEF7B5
:101EF00093FB58B10120B74908700020B64908701B
:101F00000420B64908700120B5490870B948FEF7A9
:101F100083FB80B1B84800680078C0090BD0B64890
:101F20000068007820F08000B3490968087002F06A
:101F300043F801F001FFB148FEF76EFB70B1AE4807
:101F400000680078C00909D0AB480068007820F02C
:101F50008000A9490968087001F0C6FBA848FEF78F
:101F60005BFB98B100209E4908709A4908700320D5
:101F70009A4908700020009003463C2201210190FC
:101F8000062001F03DFE0020934908709D48FEF7B1
:101F900043FB58B101209249087004208F49087012
:101FA00001208C49087000208B4908709648FEF784
:101FB00033FB80B102208A4908700420874904E07D
:101FC000AAE0A8E038E01FE006E00870012081499F
:101FD00008708149087066E1FFF7ADFB7848FEF7AD
:101FE0001BFB30B10220754909680870002013F00E
:101FF00016FF7448FEF710FB28B100206F490968EE
:10200000087013F00CFF4EE1FEF7ADFD6C48FEF7D3
:1020100003FB28B1002069490968087013F0FFFE2E
:102020006848FEF7F9FA30B1012064490968087080
:10203000002013F0F4FE36E1FEF76CFC6048FEF77A
:10204000EBFA28B100205D490968087013F0E7FE3B
:102050005C48FEF7E1FA28B1002058490968087089
:1020600013F0DDFE6948FEF7D7FA30B16848007812
:10207000A0F10100674981F828006748FEF7CCFA13
:1020800030B166480078A0F10100624981F824006F
:102090006348FEF7C1FA30B162480078A0F1010050
:1020A0005C4981F820006048FEF7B6FA30B15F481D
:1020B0000078A0F10100574981F82C005C48FEF738
:1020C000ABFA30B15248007800F10100514981F873
:1020D00028005848FEF7A0FA30B15048007800F1C7
:1020E00001004C4981F824005348FEF795FA30B1BD
:1020F0004C48007800F10100464981F820004F4823
:10210000FEF78AFA30B14948007800F101004149F0
:1021100081F82C00C7E0C6E0FEF751FB2848FEF727
:102120007BFA28B1002025490968087013F077FE72
:102130002448FEF771FA28B1002020490968087088
:1021400013F06DFE3148FEF767FA38B13C49486834
:102150004FF07E5115F0A9FE394948602E48FEF730
:102160005BFA38B1364908684FF07E5115F09DFE94
:10217000334908602A48FEF74FFA30B13049C86841
:10218000304915F092FE2E49C8602748FEF744FA00
:1021900030B12B4988682B4915F087FE28498860A3
:1021A0002348FEF739FA38B1254948684FF07E5187
:1021B00015F029FE224947E047E000000800001022
:1021C000300000103A0000104E00001044000010D3
:1021D000620000101B0000101A000010190000100F
:1021E000180000106C000010760000108000001035
:1021F0008A0000109400001010000010BC000010B5
:102200009E000010A8000010B20000105C01001039
:102210002840024000400240660100102440024075
:1022200070010010204002407A0100102C40024052
:10223000840100108E01001098010010A20100100E
:10224000540400100000204148605C48FEF7E4F9A7
:1022500038B15B4908684FF07E5115F0D4FD5849FC
:1022600008605848FEF7D8F930B15549C868564952
:1022700015F0C9FD5249C8605448FEF7CDF930B198
:102280004F498868504915F0BEFD4D498860504857
:10229000FEF7C2F928B14A48007CC0F10100484964
:1022A000087400BF00BF00BF1CBD10B500F0DEF811
:1022B00004F07DFA10BD10B54FF4FC631F2245A158
:1022C0004848FEF7FBF94FF4FC631F2246A14D4836
:1022D000FEF7F4F910BD10B54FF4FC631F223DA1C9
:1022E0004048FEF7EBF94FF4FC631F2246A1454836
:1022F000FEF7E4F94FF6FF714848FEF715FC10BDF4
:1023000010B54FF4FC631F2232A13648FEF7D6F910
:102310004FF4FC631F2242A13A48FEF7CFF94FF673
:10232000FF713E48FEF700FC4FF6FF714348FEF791
:10233000FBFB10BD10B54FF4FC631F2225A12948FB
:10234000FEF7BCF94FF4FC631F223DA12D48FEF7B8
:10235000B5F94FF6FF713148FEF7E6FB4FF6FF7116
:102360003648FEF7E1FB4FF6FF713B48FEF7DCFB1A
:1023700010BD10B54FF4FC631F2238A11948FEF7B9
:102380009DF94FF4FC631F2236A11E48FEF796F913
:102390004FF6FF712148FEF7C7FB4FF6FF71274844
:1023A000FEF7C2FB4FF6FF712B48FEF7BDFB4FF661
:1023B000FF712948FEF7B8FB10BD00008E01001028
:1023C000540400109801001000002041A2010010E8
:1023D0005201001043415247414E444F202E2E2EB1
:1023E00000000000B0020010507265706172616EF2
:1023F000646F20656C2073697374656D612E2E2E79
:1024000000000000BA020010437265616E646F2024
:102410006D756573747261732E2E2E00C4020010E8
:1024200042757363616E646F20636F6E6578696F68
:102430006E205443502E2E2E00000000CE020010BD
:10244000496E696369616E646F206D6F64756C6F4E
:10245000732E2E2E00000000D80200104341524778
:1024600041444F00313030250000000000B589B0F4
:1024700002208DF81E0000208DF820008DF81F002E
:102480008DF81C0007208DF81D0007A803F09CFEA6
:1024900008208DF81D0007A803F096FE09208DF88E
:1024A0001D0007A803F090FE00208DF81E008DF897
:1024B0001C0006208DF81D0007A803F085FE0020F3
:1024C0008DF81E0002208DF81C000D208DF81D00D7
:1024D00007A803F079FE00224FF40051022003F018
:1024E000D5FE4FF40051022003F0E4FE012240210A
:1024F000002003F0CBFE4021002003F0DBFE01A80A
:1025000003F03CFBFE48069001A9FE4803F0D5FA13
:102510000121FC4803F03DFB09B000BD70B5044645
:10252000FDF7A8FE002507E00C2000BF0100A0F188
:102530000102D0B2FAD16D1CA542F5D370BD10B521
:10254000044600BF1021EF4803F0DCFC0128F9D05D
:102550002146EC4803F085FB00BF0421E94803F065
:10256000D1FC0028F9D0E74803F08DFBC0B210BDC4
:1025700070B50020FFF7E3FF05464FF6FF7000EA55
:1025800005240120FFF7CAFF0020FFF7D8FF05460A
:102590002C43E410C4F30B04204670BD10B540205A
:1025A000D949C8610120FFF7B9FF9020FFF7C7FFA5
:1025B0000120FFF7B3FFFFF7DBFF04464020D249BD
:1025C0008861204610BD10B54020CF49C861012068
:1025D000FFF7A4FFD020FFF7B2FF0120FFF79EFF17
:1025E000FFF7C6FF04464020C7498861204610BD5A
:1025F0002DE9F04104460D46FFF7D0FF06460120C5
:10260000FFF78CFFFFF7DFFF074626602F60BDE86E
:10261000F08170B504460D464FF4784229462046B5
:1026200014F0BBFD611C88B24FF47842294614F0C7
:10263000B4FD681C81B24FF47842204614F0ADFD21
:102640006A1C91B2621C90B24FF4784214F0A5FD5E
:1026500070BDF8B504460D464FF6FF70A11E8AB254
:102660000D39009088B22B46294615F022F84FF616
:10267000FF7004F10F018AB2A11C009088B22B46B2
:10268000294615F016F84FF6FF700090A81E83B289
:102690000D3881B22246204615F00BF84FF6FF7038
:1026A000009005F10F0083B2A81C81B2224620469B
:1026B00014F0FFFF4BF6F04005F10F06B3B2E61F32
:1026C000B2B205F10F06B1B2A4F10F060090B0B29C
:1026D00014F0EFFF4BF6F04005F10F06B3B2A4F192
:1026E0000F06B2B2EE1DB1B2A4F10F060090B0B267
:1026F00014F0DFFF4BF6F040A5F10F06B3B2E61F72
:10270000B2B2A5F10F06B1B2A4F10F060090B0B2BB
:1027100014F0CFFF4BF6F040A5F10F06B3B2A4F1D1
:102720000F06B2B2EE1FB1B2A4F10F060090B0B224
:1027300014F0BFFF4BF6F04005F10F06B3B204F101
:102740000F06B2B205F10F06B1B2E61D0090B0B2AD
:1027500014F0AFFF4BF6F04005F10F06B3B204F1F1
:102760000F06B2B2EE1DB1B204F10F060090B0B286
:1027700014F09FFF4BF6F040A5F10F06B3B204F141
:102780000F06B2B2A5F10F06B1B2E61D0090B0B2CD
:1027900014F08FFF4BF6F040EE1FB3B204F10F06BA
:1027A000B2B2A5F10F06B1B204F10F060090B0B2BB
:1027B00014F07FFFF8BDF0B597B0002748216846B8
:1027C00015F088F800BF15A916A8FFF711FF169895
:1027D0004DF8270009A8159940F82710781CC7B2B2
:1027E0004948406D10F4005F01D1092FEBDB092F40
:1027F0007ED1DDE90001084402990844032190FBE1
:10280000F1F01290DDE90301084405990844032121
:1028100090FBF1F01390DDE90601084408990844A3
:10282000032190FBF1F01490DDE91201441ADDE977
:102830001301451A12991498461A002C01DD2046FE
:1028400000E060420446002D01DD284600E06842B9
:102850000546002E01DD304600E070420646502C51
:1028600006DD502D04DD502E02DD002017B0F0BD36
:10287000AC4215DAA64209DA149A1299881800EBCC
:10288000D071C1F34F01214A11801EE0DDE912121F
:10289000881800EBD071C1F34F011C4A118014E07D
:1028A000AE4209DA149A1299881800EBD071C1F37C
:1028B0004F01164A118008E0DDE91312881800EB79
:1028C000D071C1F34F01114A1180DDE909100144B3
:1028D0000B980844032190FBF1F01290DDE90C10F5
:1028E00001440E980844032190FBF1F0139000E09E
:1028F00063E0DDE90F10014411980844032107E06B
:1029000020A107000000034000C00920340300108C
:1029100090FBF1F01490DDE91201441ADDE9130196
:10292000451A12991498461A002C01DD204600E041
:1029300060420446002D01DD284600E0684205465D
:10294000002E01DD304600E070420646502C05DDC9
:10295000502D03DD502E01DD002087E7AC4215DA53
:10296000A64209DA149A1299881800EBD071C1F3C3
:102970004F01C24A51801EE0DDE91212881800EBB7
:10298000D071C1F34F01BD4A518014E0AE4209DA63
:10299000149A1299881800EBD071C1F34F01B74A0D
:1029A000518008E0DDE91312881800EBD071C1F303
:1029B0004F01B24A5180B14858E7002056E72DE94F
:1029C000F04705460C4616464FF00009218822893B
:1029D000891AE38862899A1A5143A2882389D31AF3
:1029E00067886289BA1A03FB121015F070FCC6E9F9
:1029F0000C0100221346D6E90C71384615F0FEFC96
:102A000002D14FF0010989E029882A89891AE388CF
:102A100062899A1A5143AA882B89D31A67886289D6
:102A2000BA1A03FB121015F052FCC6E90001218806
:102A30002289891AAA882B89D21A51432A88D21A44
:102A4000A3882789DB1B02FB131015F040FCC6E9A5
:102A500002012189AA885143A2882B8902FB131104
:102A60006288514322885A4323892F8803FB172306
:102A7000E28803FB0212A18879432388AF8803FB15
:102A80001713618903FB012015F021FCC6E904013D
:102A90006A886989511AE38862899A1A5143EB88D6
:102AA0006A899B1A67886289BA1A03FB121015F0AB
:102AB0000EFCC6E9060121882289891AEB886A89F9
:102AC0009A1A51436B886A899A1AA3882789DB1B53
:102AD00002FB131015F0FBFBC6E908012189EA8807
:102AE0005143A3886A8903FB1211628851432288EB
:102AF0006B895A4323896F8803FB1723E28803FB02
:102B00000213A18879432788EA8807FB121261899A
:102B100002FB013015F0DBFBC6E90A014846BDE8BF
:102B2000F0872DE9F04F8BB08246894614464FF06E
:102B3000000B00221346D4E90C51284615F05EFC28
:102B400060D0B9F8020015F0D3FB0546D4E9027352
:102B50003A4615F0CDFACDE90201B9F8000015F0BA
:102B6000C7FB0746D4E900532A4615F0C1FACDE960
:102B70000001DDE9022315F014FACDE90401D4E9DE
:102B800004532A4615F00DFACDE90601D4E90C5399
:102B90002A4615F01FFBCDE9080115F002FCAAF842
:102BA0000000B9F8020015F0A3FB0746D4E908536A
:102BB0002A4615F09DFACDE90201B9F8000015F09A
:102BC00097FB0746D4E906532A4615F091FACDE95A
:102BD0000001DDE9022315F0E4F9CDE90401D4E9AF
:102BE0000A532A4615F0DDF9CDE90601D4E90C5364
:102BF0002A4615F0EFFACDE9080115F0D2FBAAF844
:102C0000020001E04FF0010B58460BB0BDE8F08F19
:102C100038B5002427E0002013F001F900204FF61A
:102C2000FF7317A20A210090084614F0F1FD1C481A
:102C3000FFF774FC1B4A02EB84025188194A32F8F0
:102C40002400FFF706FD00BFFFF7B5FD0546002D88
:102C5000FAD02888144921F82400688801EB8401FF
:102C60004880601CC4B2032CD5DB104A0E490D48C5
:102C7000FFF7A5FE002013F0D2F838BD3403001092
:102C8000546F7563682063726F7373686169722033
:102C9000746F2063616C696272617465000000008A
:102CA00020A107002803001084040010F002001087
:102CB00010B50021772000F0D7FAAA2000F0AFFA73
:102CC0000121772000F0D0FA002000F0F5FA000290
:102CD00000B2FE490880012000F0EEFAFB49B1F98C
:102CE00000100843F949088000F018FB0021772004
:102CF00000F0BAFAAC2000F092FA0121772000F03F
:102D0000B3FA002000F0D8FA000200B2EF49488080
:102D1000012000F0D1FAED49B1F902100843EB4966
:102D2000488000F0FBFA0021772000F09DFAAE20E9
:102D300000F075FA0121772000F096FA002000F0EB
:102D4000BBFA000200B2E1498880012000F0B4FA29
:102D5000DE49B1F904100843DC49888000F0DEFA4E
:102D60000021772000F080FAB02000F058FA01210D
:102D7000772000F079FA002000F09EFA0002D34993
:102D8000C880012000F098FAD049C9880843CF498B
:102D9000C88000F0C3FA0021772000F065FAB22065
:102DA00000F03DFA0121772000F05EFA002000F0EB
:102DB00083FA0002C5490881012000F07DFAC34969
:102DC00009890843C149088100F0A8FA0021772049
:102DD00000F04AFAB42000F022FA0121772000F036
:102DE00043FA002000F068FA0002B8494881012047
:102DF00000F062FAB54949890843B449488100F0B6
:102E00008DFA0021772000F02FFAB62000F007FAA3
:102E10000121772000F028FA002000F04DFA00028E
:102E200000B2AA498881012000F046FAA749B1F909
:102E30000E100843A549C88100F070FA00217720E0
:102E400000F012FAB82000F0EAF90121772000F032
:102E50000BFA002000F030FA000200B29B49C88152
:102E6000012000F029FA9949B1F90E100843974959
:102E7000C88100F053FA0021772000F0F5F9BA205C
:102E800000F0CDF90121772000F0EEF9002000F0EC
:102E900013FA000200B28D490882012000F00CFAFA
:102EA0008A49B1F9101008438849088200F036FABF
:102EB0000021772000F0D8F9BC2000F0B0F9012102
:102EC000772000F0D1F9002000F0F6F9000200B2FE
:102ED0007E494882012000F0EFF97C49B1F91210D7
:102EE00008437A49488200F019FA0021772000F05F
:102EF000BBF9BE2000F093F90121772000F0B4F96E
:102F0000002000F0D9F9000200B270498882012047
:102F100000F0D2F96D49B1F9141008436B49888269
:102F200000F0FCF910BD10B5FFF7C2FE10BD2DE991
:102F3000F84F6748006815F04DFA0646654A664B3B
:102F400015F0D6F8044615F06DFA64490968486032
:102F50006348006861490968086062495C48006824
:102F600014F0DFFF009015F035FA80465E4A5F4BA3
:102F700019F030F9064600225D4B15F0B6F804460C
:102F800000225C4B15F0B4F8824615F04BFA534919
:102F900009688861BDE8F88F10B50121772000F03D
:102FA00063F9002000F088F953490870012000F00F
:102FB00083F95249087000F0B1F9504800784E4941
:102FC000097840EA01204E49088010BD10B504463A
:102FD0000021772000F048F9204600F020F910BDCC
:102FE00010B504462046FFF7F1FFFFF7D5FF0A2092
:102FF000FFF79DFF10BD70B505460021772000F05A
:1030000033F9284600F00BF90121772000F02CF964
:10301000002000F051F90402012000F04DF90443B2
:1030200000F07CF9204670BD70B505460C460021C5
:10303000772000F019F9284600F0F1F8204600F05A
:10304000EEF800F06BF970BD2DE9F04F87B02E213E
:10305000F420FFF7E9FF4FF0000803E000F0CCF8A0
:1030600008F10108B8F57A7FF8DBF620FFF7C3FF17
:1030700006903421F420FFF7D7FF4FF0000803E05B
:1030800000F0BAF808F10108B8F57A7FF8DBF6200D
:10309000FFF7B1FF82460D494A890699891A0B4A02
:1030A000128901FB02F0C11700EB5141CC13074814
:1030B000B0F91200C0020549B1F91410214490FB87
:1030C000F1F604EB060B0BF108001BE09004001076
:1030D000480300107B14AE47E17A843F04000010DF
:1030E0004403001080E6C5476C45D9CC955BC83FCA
:1030F0000000F03F40A5E5403D0300103E030010F6
:103100004003001000110390ABF57A673548B0F921
:103110000E0007FB07F109134843C4123148B0F908
:1031200002007843C612A01905902E49B1F900108B
:10313000059A02EB8101881CC11700EB917189107F
:1031400004912848B0F90400784344132548B0F9A5
:103150000C0007FB07F1091348430614A019801C53
:10316000801005901F48C188059800F50040414334
:10317000C80B02900499AAEB01004CF2503100FBFD
:1031800001F9B9F1004F05D24FEA49010298B1FBAC
:10319000F0F503E00298B9FBF0F04500281200FBBF
:1031A00000F440F6DE30604304140F486843061410
:1031B000A01900F6CF6005EB2015039815F079F8FB
:1031C0000A49019014F0ADFE09490860284615F03F
:1031D00070F8084908600020FFF7A9FE07B0BDE8B5
:1031E000F08F00009004001043E3FFFF0000204137
:1031F0004403001048030010002001E0411CC8B245
:103200006428FBDB704700B502204D498861FFF759
:10321000F3FF02204A49C861FFF7EEFF00BD00B589
:10322000024600230FE012F0800F03D00120444932
:10323000886102E001204249C8615006020EFFF792
:10324000E2FF581CC3B2082BEDDB3D48006820F0BC
:1032500001003B490860FFF7D6FF3948006840F09D
:1032600001003749086000BD30B504460D463448BA
:10327000006840F00300324908600846806940F069
:1032800003008861FFF7B8FF2D48C06940F00100D6
:103290002B49C861FFF7B0FF2948C06940F0020020
:1032A0002749C861FFF7A8FF6106090E0C462944AB
:1032B000C8B2FFF7B4FF30BD10B503462048006820
:1032C00020F001001E490860002414E002201C497F
:1032D0008861FFF791FF5006020E1948406910F00F
:1032E000010F01D0501CC2B202201549C861FFF77E
:1032F00083FF601CC4B2082CE8DB1148006840F072
:1033000001000F49086013B10120886102E001202B
:103310000B49C861FFF777FF104610BD00B50120CB
:103320000749C861FFF768FF022005498861FFF778
:1033300063FF012002498861FFF75EFF00BD0000C6
:1033400000C009205448C06C5349C8640846C06C8A
:10335000C8640846C06820F03000C8600846C068ED
:1033600040F03000C8604D48006F4C49086708467F
:10337000806A40F0050088624948006840F0040017
:103380004849C1F8C4004FF000004449C8600846ED
:10339000406840F0020048600846406820F00200A3
:1033A00048600846406840F0010048603A48C068FC
:1033B00040F030003849C8604FF002004FF0010182
:1033C00001FA00F14FEA50124FF0E02303EB8202C2
:1033D000C2F8001100BF704770B5002400E0641C03
:1033E00047F230508442FADB10202C4908602E4806
:1033F0000078401C2C4908700846007802284ADBF7
:103400002A480068294948602448C06A08600020AA
:103410002549087025490968244A5268881A14F019
:1034200051FF0646224914F046FD0546294621482B
:1034300014F077FD2049086020480078401C1F499F
:1034400008700846007804281FD11448806A60F08C
:103450000400124988620020184908701648006864
:1034600017490968C86117480068007820F0020011
:1034700014490968087013480068007820F00100BA
:10348000401C10490968087005E00448806A40F053
:1034900005000249886270BD00C002400080004003
:1034A000C4C00F4000C00F404C0300105003001078
:1034B0000000C842D313834E580300104D03001080
:1034C00004000010100000106748006840F48050AD
:1034D0006649C1F8C4006648406840F480306449D9
:1034E00048600846406C20F44030486461480068F9
:1034F000614940EA01005F4908600846C06840F041
:103500000200C8605D480068007820F0080000F103
:1035100008005A49096808705648C06820F480704D
:103520005449C8604FF016004FF0010101FA00F154
:103530004FEA50124FF0E02303EB8202C2F8001171
:1035400000BF70472DE9FC5F4D480078002865D02A
:10355000012862D14748006820F48030454908605E
:103560004969C1F30B1014F0ADFE464908604649A5
:103570004448006814F0D5FC4249086008460068D9
:1035800014F028FF06460022404B14F0AEFD04461E
:103590000D463C48006814F01DFF064600223C4BD7
:1035A00014F0A6FD804622462B4614F013FE8246F8
:1035B00014F038FF33490860002000900346019062
:1035C00034480268203203212E48006800F002FCD3
:1035D00028498969C1F30B1014F074FE2E49086064
:1035E0000846006814F0F6FE804600222B4B14F0CB
:1035F0007FFD064600222A4B14F0ECFD044614F031
:1036000011FF24490968C8601C480068007820F050
:103610000800083019490968087022E01548006957
:10362000C0F307201F49204A126888541E480168C9
:103630000068401C1C4A106043F67F6081420FD333
:10364000002011460860194948610C48006800785C
:1036500020F08000803009490968087000F085F882
:1036600000BF00BFBDE8FC9FC4C00F4000C00F40BA
:1036700000C002400040034002FF21001000001083
:10368000680300105C03001000F07F450000F03F6D
:103690000080514004000010600300100080404092
:1036A00000FEAF40A604001064030010008000403C
:1036B0003D48406840F480403B49486040F6344013
:1036C0003A49886102204860012048600020486132
:1036D00002200121814042094FF0E02303EB8202E6
:1036E000C2F8001100BF70470020314908704FF048
:1036F00000703049886701202F4908702F48006802
:103700002F4908602D48C0682E49086001202B49C8
:10371000C8600846006820F0FF000860084600689E
:1037200040F0010008600846006820F47F4008600F
:103730000846006840F4807008600846006820F47D
:10374000803008600846006820F0E06008600846A5
:10375000006840F0C0600860022014494861486079
:10376000012048603120C863704713480078012861
:1037700019D1134800681149086012480068C860F0
:103780000846006820F0E06008600846006840F4E1
:103790007F40086001200649087040060549C86757
:1037A000002005490870704700C0024000800040BA
:1037B0006803001000C00920ED0300100040034022
:1037C0006C03001070030010A44988680221A34A0A
:1037D0005160012151607047A148006840F4000029
:1037E000A049C1F8C4004FF000009C4908674FF0A1
:1037F0001800C860704700B5FFF7EEFFFFF7E4FF61
:1038000000BD30B500250023002448E0FFF7DCFFB1
:1038100000BF9548406BC0F3C04018B98F4880681E
:103820006428F6D3FFF7D0FF03469048016800688C
:10383000401C8E4A10608E4840F82130282B01D35E
:10384000432B01D9002030BD0023FFF7BDFF00BF8F
:103850008548406BC0F3C04018B180488068642838
:10386000F6D3FFF7B1FF0346804801680068401CAB
:103870007E4A10607E4840F821303C2B08D9502BFE
:1038800006D2C4F10701012088402843C5B205E0F3
:103890000A2B01D3642B01D90020D4E7641C082C27
:1038A000B4DB2846CFE700B50023FFF78DFF00BF4C
:1038B0006D48406BC0F3C04018B1684880682D283F
:1038C000F6D3FFF781FF0346684801680068401C93
:1038D000664A1060664840F82130052B01D32D2B35
:1038E00001D9012000BDFFF76FFF00BF5E48406BAC
:1038F000C0F3C04018B9594880686428F6D3FFF770
:1039000063FF0346594801680068401C574A10602D
:10391000574840F82130462B01D35A2B01D90120BA
:10392000E0E7FFF751FF00BF4F48406BC0F3C040D6
:1039300018B14A4880686428F6D3FFF745FF03466C
:103940004A4801680068401C484A1060484840F8EE
:103950002130462B01D35A2B01D90120C2E7002088
:10396000C0E700B50346FFF72FFF00BF3B48806864
:103970009842FBD300BD2DE9F84F002000900024B1
:1039800082463A4908603B4908703748006A40F46B
:103990000020354908624FF40020C86344F25060AB
:1039A000FFF7DFFF3048006A20F400202E4908624C
:1039B000FFF779FF08B1BDE8F88F4FF0000908E084
:1039C000FFF71FFFC9F10301C9008840044309F153
:1039D0000109B9F1040FF3DBFFF713FF8246200E54
:1039E0008DF80000200C8DF80100200A8DF80200EF
:1039F000E0B28DF803009DF800009DF80110084426
:103A00009DF8021008449DF80310084419490870F5
:103A10000846007850451ED14FF6FF7101EA144068
:103A200014F066FC07460022134B14F0D3FB054646
:103A300014F0F8FC114909688860A0B214F058FC31
:103A4000074600220C4B14F0C5FB054614F0EAFCB7
:103A50000A490968086000BFADE70000004009405E
:103A6000C4C00F4000C00F4000C009207403001004
:103A700028430010780300100000244004000010C8
:103A800070B505460C469A48006840F040009949D8
:103A9000C1F8C4002946984814F043FA064614F0C9
:103AA0004DFC401E954988610846406840F0090079
:103AB000486008464069002048610846406940F077
:103AC000020048618E4800696FF30B008C49086161
:103AD0000846C0688B4908408949C86000208A4967
:103AE0000968087025E088480068017844FA01F008
:103AF0004FF6FE71884315D08148016982480068FD
:103B0000007842000120904001437D4801617B48DC
:103B1000C06C7D4909680978093101228A40104347
:103B20007649C864784800680078401C764909687E
:103B300008707548006800780628D4DB06207249B2
:103B40000968087052E0704800680178891C44FADE
:103B500001F04FF6FE71884341D06848C16C6A4855
:103B600000680078C01C0122824011436348C16490
:103B7000654800680078801F06282ED2DFE800F034
:103B8000030A11181F265E48C06840F020005C49F7
:103B9000C86023E05A48C06840F400705849C860C3
:103BA0001CE05748C06840F400605549C86015E003
:103BB0005348C06840F400405149C8600EE0504886
:103BC000C06840F400304E49C86007E04C48C06807
:103BD00040F400104A49C86000E000BF00BF4A48F6
:103BE00000680078401C4849096808704648006829
:103BF00000780C28A7DB002043490968087070BDD5
:103C00002DE9FF5F04460D4616469946DDF838A0BB
:103C1000032C00D9A41D504614F0DCFB4FF03332C6
:103C20003A4BCDE9020114F063FA074614F0FAFBAF
:103C300082460F9814F0CEFB354A364BCDE902018F
:103C400014F056FA074614F0EDFB0F90D5B1012D94
:103C50003ED1304614F036FB2F49039014F061F941
:103C600080462649886914F02DFB8346414614F0AE
:103C700022F9074614F062FB2049042202FB0411DA
:103C8000886126E0484614F01DFB2449009014F09A
:103C900048F9514602900F9814F007F901900299E3
:103CA00014F009F98346514614F0ADF81249039017
:103CB00014F001F980464FF07E5114F0F6F80746F3
:103CC00014F03CFB0D49042202FB0411886100E062
:103CD00000BF00BF032C00D9A41F0848006D0121BC
:103CE000A14041F00101084304490865BDE8FF9F78
:103CF000C4C00F4000C00F4020BCBE4B008001403C
:103D000000C00240CF30CCFF0C0000103333E33F43
:103D1000CDCCCCCCCCCCF43F0000C8420000344326
:103D20002548006E40F0C060234908664FF00070DF
:103D3000C8674000C86770472048006840F001002D
:103D40001F49C1F810014FF018001E4948611E4874
:103D5000C8614FF0020048604FF0010048601B4806
:103D60000068007820F080001849096808704FF05A
:103D700080601149886770471048006820F0010092
:103D80000F49C1F8100111480068007820F0800048
:103D900000F180000D49096808704FF08060064905
:103DA000C8670848406920F03800064948614FF06C
:103DB000000007490860704700C00920104100500A
:103DC000004000500080004080F0FA021000001017
:103DD00000C008402DE9FC5F81468A4614469B4698
:103DE000BAF1000F09D0BAF1010F24D0BAF1020FD5
:103DF0003DD0BAF1030F57D13CE02D49087814F0BB
:103E000061FA4FF07E510190484614F04EF880461A
:103E1000284914F086F80746019914F04CF8064634
:103E200014F08CFAC0B2401C21490D5C284614F0F5
:103E300049FA206039E02049087814F043FA07462F
:103E40004FF07E51484614F030F88046194914F07E
:103E500068F80646394614F02EF8054614F06EFA56
:103E6000C0B2401C1449085C8BF800001DE0C4F887
:103E700000901AE0484614F0ADFA104A104BCDE914
:103E8000000114F035F907460E4A0F4B14F089F87B
:103E9000054614F0C7FA20600021206814F0DEFA0D
:103EA00001D20020206000BF00BF00BFBDE8FC9F22
:103EB000870300100000C642790300100BB5A679F5
:103EC000C729F0BFA835CD3B4E81594059485A49C2
:103ED00008605A484860084688605948C860594890
:103EE000006840F000505849C1F8C4004FF001008C
:103EF000564908634FF0400048634E4854490860F3
:103F00004E4801F1040108604B4801F104010860CA
:103F10004B4801F1040108604FF41C6001F10401F9
:103F200008604FF4F4604B4908814FF00E00486080
:103F300049480068007820F0800000F18000464980
:103F40000968087070472DE9F04786B04FF0000A05
:103F500024E0504614F0BBF90646404A404B14F0AA
:103F6000C7F800223F4BCDE9000114F033F90446B5
:103F700018F0E2FE00223C4BCDE9020114F0B8F843
:103F800080460022384B14F00CF8CDE9040114F0FF
:103F9000E9F9284901F80A000AF1010ABAF1200FEB
:103FA000D7DB3248406840F4001030494860FFF7E2
:103FB0008DFF06B0BDE8F0872D481F4908601F48F7
:103FC0004860084688602B48C8601E48006840F07A
:103FD00000501D49C1F8C4004FF001001B4908639F
:103FE0004FF040004863224819490860134801F126
:103FF00004010860104801F1040108601E4801F145
:10400000040108604FF41C6001F10401086041F6EE
:104010006900104908814FF00E0048600E480068A2
:10402000007820F0800000F180000B4909680870DA
:1040300070470000584600104846001001C0084074
:1040400020000004C4C00F4000C00F4000400050DA
:104050000041005000C00840100000107A008BFCA6
:10406000FA2119400000404000C05F4000C00240FB
:10407000A6040010803E0004803E400410B54FF4BA
:10408000165000F015FDB2A000F085FC10BD2DE922
:10409000FF4781460024B0480078072876D2DFE841
:1040A00010F007004E035C036A0377038503930354
:1040B000AAA1484613F020FC20B90124A949AA4826
:1040C00013F028FCA9A1484613F016FC50B9AA48E1
:1040D000007838B9A9A1A44813F01CFC0120A64916
:1040E00008700124A8A1484613F006FC50B97820B6
:1040F0000121A823C022CDE90010A6A19A4814F0FE
:10410000E7FD0124A8A1484613F0F6FB60B9AB49CE
:104110000968086814F05EF905462A460B46A8A10E
:10412000914814F0D5FD0124ABA1484613F0E4FBFF
:1041300060B9A2490968486814F04CF905462A4656
:104140000B46A9A1884814F0C3FD0124ABA1484641
:1041500013F0D2FB60B999490968C86914F03AF9BB
:1041600005462A460B46A9A17F4814F0B1FD01245B
:10417000AFA1484613F0C0FB70B99049096888693F
:1041800014F028F905462A460B4600E0D6E2ABA11A
:10419000754814F09DFD0124AFA1484613F0ACFB17
:1041A00060B986490968C86814F014F905462A46BA
:1041B0000B46ADA16C4814F08BFD0124AEA148461E
:1041C00013F09AFB20B9AF49674813F0A3FB012411
:1041D000ADA1484613F090FB88B978490968886812
:1041E00014F0F8F80746AC4AAC4B13F081FF0546D3
:1041F0002A460B46AAA15C4814F06AFD0124ACA132
:10420000484613F079FB60B96C490968086A14F0F4
:10421000E1F805462A460B46A9A1534814F058FD7B
:104220000124ACA1484613F067FB48B900BF5248CF
:1042300000780028FBD0A9A14B4813F06BFB0124A8
:10424000B6A1484613F058FB28B94649683146489C
:1042500013F060FB0124B3A1484613F04DFB28B9CD
:104260004049F431404813F055FB0124B0A14846C1
:1042700013F042FB20B9B1493B4813F04BFB01243A
:104280001CB9AFA1384813F045FBBDA1484613F057
:1042900033FB38B9BDA1344813F03CFB01240120A5
:1042A0002D490870C3A1484613F026FB38B9C4A1B4
:1042B0002D4813F02FFB0124062027490870CCA1BC
:1042C000484613F019FB38B9CDA1274813F022FB5B
:1042D0000124022020490870D5A1484613F00CFBA8
:1042E00038B9D7A1204813F015FB012403201A493F
:1042F0000870DFA1484613F0FFFA38B9E0A11A4868
:1043000013F008FB0124042013490870E7A1484674
:1043100013F0F2FA38B9E9A1134813F0FBFA0124BB
:1043200005200D490870F0A1484613F0E5FA38B9A8
:10433000F1A10D4813F0EEFA01240120F5490874AB
:10434000F5A1484613F0D8FA00B9EFE1F6E1000014
:10435000486F6C612E0A00009D03001041424F55CA
:10436000540D0000B8DF010078460010474956455B
:104370002053554741520D009E0300100A535547E4
:104380004152206E2E6E0A00474956452049500D75
:10439000000000000A49503A2025642E25642E258D
:1043A000642E2564200A0000474956452054454D97
:1043B00050455241545552410D0000000400001078
:1043C0000A54454D50455241545552413A202566B4
:1043D00020BA430A00000000474956452050524584
:1043E00053494F4E0D0000000A50524553494F4E5D
:1043F0003A202566206D4261722E0A0047495645D3
:10440000205649454E544F0D000000000A56454CB9
:104410004F43494441442044454C205649454E545D
:104420004F3A202566206D2E2F732E0A00000000C3
:1044300047495645204C554741520D000A583A20ED
:104440004E412020200A593A204E4120200A5A3A53
:10445000202566206D2E0A004749564520494E44C6
:1044600049434555560D00000A494E4449434520ED
:1044700055563A2025660A004749564520484F526E
:10448000410D00000F470010474956452048554D43
:10449000454441440D0000007B14AE47E17A843F5F
:1044A0000A48554D454441443A202566200A0000FB
:1044B00047495645204252494C4C4F0D00000000E0
:1044C0000A4252494C4C4F3A202566204C55582EF2
:1044D0000A0000004B494C4C0D00000044656D6122
:1044E000736961646F2064756C636520636F6D6FC1
:1044F0002070617261206D617461726C6F2C206D2F
:10450000656A6F722070617261206F747261206FD2
:10451000636173696F6E2E2E2E0A000048454C5061
:104520000D00000048454C5020474956450D0000FD
:1045300048454C50205345540D00000000E1010057
:104540004572726F723A20636F6D616E646F206E98
:104550006F20646566696E69646F2C206573637291
:10456000696261202748454C5027207061726120A4
:10457000766572206C61206C697374612E0A00008C
:10458000534554204252494C4C4F0D00496E7472B1
:104590006F6475637A61206C6F7320736567756EE5
:1045A000646F73206465206272696C6C6F3A200AD4
:1045B0000000000053455420484F52410D000000B8
:1045C000496E74726F6475637A61206C61206665F0
:1045D00063686120736570617261646120706F72DD
:1045E000206573706163696F733A200A00000000F0
:1045F000534554204D494E2054454D500D00000068
:10460000496E74726F6475637A6120656C2076619F
:104610006C6F72206D696E696D6F206465207465C2
:104620006D70657261747572613A200A0000000055
:10463000534554204D41582054454D500D00000025
:10464000496E74726F6475637A6120656C2076615F
:104650006C6F72206D6178696D6F20646520746580
:104660006D70657261747572613A200A0000000015
:10467000534554204D494E20505245530D000000E3
:10468000496E74726F6475637A6120656C2076611F
:104690006C6F72206D696E696D6F20646520707239
:1046A0006573696F6E3A200A00000000534554207C
:1046B0004D415820505245530D000000496E747210
:1046C0006F6475637A6120656C2076616C6F72200F
:1046D0006D6178696D6F2064652070726573696FB4
:1046E0006E3A200A000000005345542050524553B2
:1046F000494F4E0D0000000041686F7261206D65EA
:1047000064696D6F732070726573696F6E2E2E2EE3
:10471000200A0000540400105345542054454D50C5
:10472000455241545552410D0000000036A13E480B
:1047300013F0F0F8012400203C4908745BE03B4A88
:1047400014323BA13B4813F0EFF83BA1364813F07D
:10475000E1F800203F4908704DE0344A121D3EA1A7
:10476000344813F0E1F83DA12F4813F0D3F80020AE
:10477000384908703FE02D4A37A12E4813F0D4F88D
:1047800040A1294813F0C6F800203249087032E0F1
:10479000264A0C3230A1274813F0C6F843A122481C
:1047A00013F0B8F800202B49087024E01F4A0832A3
:1047B00029A1204813F0B8F845A11B4813F0AAF826
:1047C00000202449087016E04A48011D0A1D494B83
:1047D0001C33CDE90032CDE902101B1F121D46A18A
:1047E000144813F0A1F849A10F4813F093F80020E2
:1047F0001849087000BF00BF0B4800F0CCF82046F5
:1048000004B0BDE8F087000041686F7261206D65FB
:1048100064696D6F732074656D7065726174757213
:10482000612E2E2E200A000078460010540400103D
:1048300025640000F14600105469656D706F2064B6
:104840006520686F6C642063616D626961646F2EBE
:104850000A0000009D03001025660000436F74618C
:10486000206D696E696D612064652074656D706589
:104870007261747572612063616D62696164612E39
:104880000A000000436F7461206D6178696D6120DA
:1048900064652074656D7065726174757261206302
:1048A000616D62696164612E0A000000436F74618A
:1048B000206D696E696D6120646520707265736931
:1048C0006F6E2063616D62696164612E0A00000091
:1048D000436F7461206D6178696D6120646520703B
:1048E000726573696F6E2063616D62696164612EC8
:1048F0000A00000020400240256420256420256431
:10490000202564202564202564000000486F726122
:104910002063616D62696164612E2E2E0A000000C1
:1049200010B57648806800F00E0002281ED00428DA
:104930002FD1724800787249096808707048006881
:1049400001786F480068401C6D4A10600D290CD139
:10495000002011460968087001206A4908706A48F9
:10496000FFF795FB68486649086012E067480068F1
:10497000007850B165480068007860490870634865
:104980000068401C6149086002E00120604908702D
:1049900000BF00BF10BD5D49086000215C4A117076
:1049A0005A4909680978554A117058490968491CDB
:1049B000564A116070472DE9F84F01464FF0FF301D
:1049C000DFF850B1DBF800B04FEA9B080026002763
:1049D00000234FF0010A4FF0000BCDF800B04FF06C
:1049E00000090025DFF830C14FEA181801222CE039
:1049F000002424E002FB08FB02EB040EBBFBFEF7E5
:104A0000B7FBF1F3B7FBF1FB01FB1B7BBBEB510FDA
:104A100000D95B1C022B11D9B3F5803F0ED2B7FB36
:104A2000F3F68E4201D88D1B00E0751A654505D25C
:104A3000924600949946AC4605B902E0641C0F2CDE
:104A4000D8D900BF05B902E0521C0F2AD0D900BF47
:104A500001EB410B4FF0640EBBFBFEFBE34525D998
:104A6000DFF898B09BF80CB04BF0800BDFF88CE0CF
:104A70008EF80CB04FEA192B8EF804B08EF8009027
:104A8000F3469BF80CB02BF0800B8EF80CB04FF077
:104A9000F00B0BEA0A1BDDF800E00EF00F0E4BEAFC
:104AA0000E0BDFF858E08EF828B00020BDE8F88F34
:104AB00010B504461948006840F0500017490860D6
:104AC00011480F4908600D48007B0C4908730846DF
:104AD000007B40F00B0008732046FFF76CFF0320BB
:104AE0000649486005200121814042094FF0E0233A
:104AF00003EB8202C2F8001100BF10BD00C00040ED
:104B0000A0030010A4030010F1460010A803001039
:104B1000AC03001000000010A086010000C002409D
:104B200007280CD2DFE800F00405060708090A0090
:104B300005E004E003E002E001E000E000BF00BFA8
:104B400000BFFEE710B515F0FFFD17F0E1F916F014
:104B5000EBFF19F059F918F059FA16F005FABDE80B
:104B6000104015F0D1BA10B515F008FE17F0D6F9BF
:104B700017F048F818F01AFBBDE8104016F0D2BD47
:104B80000020704770477047002070470020704732
:104B90000020704770B50546282015F069F80446D6
:104BA00000BF28222146284616F0A8F9054620789D
:104BB000002847D09FA1204618F05DF920B19F4AF8
:104BC0009FA1601D12F0B0FE9EA1204618F053F97F
:104BD00028B19A4A121F9AA1601D12F0A5FE9BA14E
:104BE000204618F048F928B1944A083294A1601D73
:104BF00012F09AFE97A1204618F03DF928B18F4A8D
:104C0000121D8FA1601D12F08FFE94A1204618F096
:104C100032F928B1894A103292A1601D12F084FE47
:104C200091A1204618F027F918B100208349091FE7
:104C300008748FA1204618F01EF918B101207F4991
:104C4000091F0874002DACD1204615F055FE70BD2B
:104C500070472DE9F04705460E4691469A4628785A
:104C600062284CD010DC4D2873D006DC412871D06E
:104C7000442870D048286FD1B7E053286DD054280D
:104C80006CD06128F7D148E074280ED006DC682883
:104C900027D0692873D07028EDD114E076287CD015
:104CA00078285CD07928E6D145E07349096808681E
:104CB00013F090FB07463A460B46291D304614F088
:104CC00007F80446B2E06C490968486813F082FBB3
:104CD00007463A460B46291D304613F0F9FF0446B5
:104CE000A4E065490968886813F074FB07463A46F2
:104CF0000B46291D304613F0EBFF044696E05E4953
:104D00000968086A13F066FB07463A460B46291DF8
:104D1000304613F0DDFF044688E05749096888698A
:104D200013F058FB07463A460B46291D304613F050
:104D3000CFFF04467AE050490968486913F04AFBFE
:104D400007463A460B46291D304613F0C1FF04467C
:104D50006CE038E02FE03FE062E058E04EE046498A
:104D60000968086913F036FB07463A460B46291DC9
:104D7000304613F0ADFF044658E000E00DE03E4938
:104D80000968C86813F026FB07463A460B46291DFA
:104D9000304613F09DFF044648E037490968C8696A
:104DA00013F018FB07463A460B46291D304613F010
:104DB0008FFF04463AE03148828F291D304613F0B8
:104DC00087FF044632E02E48027805F104013046A0
:104DD00013F07EFF044629E02A48027805F1040119
:104DE000304613F075FF044620E02748027805F1AD
:104DF0000401304613F06CFF044617E023480278A4
:104E000005F10401304613F063FF04460EE020482C
:104E1000027805F10401304613F05AFF044605E01C
:104E20001CA1304613F054FF044600BF00BFA0B2DF
:104E3000BDE8F087746D696E3D00000058040010F5
:104E400025660000746D61783D000000706D696E2C
:104E50003D000000706D61783D0000006273656385
:104E60003D00000025640000766172743D00000082
:104E7000766172703D0000000400001000400240A6
:104E8000384002402C40024028400240244002406A
:104E9000204002403C703E592E2E2E207175652018
:104EA000717569657265732071756520706F6E67C5
:104EB0006120617175693F203A763C2F703E000099
:104EC0001C200121814042094FF0E02303EB8202C4
:104ED000C2F8001100BF70471C2001218140FE4A2A
:104EE000430942F8231000BF704770B505460E46CF
:104EF0008EB9032405E015F8021BC8B2F74908551E
:104F0000641C062CF7DB7E20F4490870FF204870F3
:104F1000FE20887009E0002405E015F8021BC8B2E5
:104F2000EE490855641C062CF7DBFFF7D5FF4FF060
:104F3000A040006820F001004FF0A0410860E84860
:104F4000006820F00300C1F80001E4480079E3495B
:104F5000497940EA01204FF0A0410864DF48807899
:104F6000DE49C97840EA01204FF0A0414864DB489F
:104F70000078DA49497840EA01204FF0A04188647E
:104F80000846006840F44F4008600846D0F8000129
:104F900040F07800C1F80001FFF792FF012070BDDA
:104FA00000200FE000EB4001CE4A02EB4121CE4A47
:104FB00042F83010002102EBC0025160CB4A42F8A7
:104FC0002010401C0328EDD3C749C94A1160C749C6
:104FD0004FF0A042C2F820114FF00201C54A116003
:104FE0004FF000014FF0A042C2F828117047002096
:104FF00013E000EB4001C04A02EB4121BF4A42F8F6
:105000003010BF4902EBC00251600021BD4A42F896
:10501000301002EBC0025160401C0428E9D3B749AC
:10502000B94A1160B7494FF0A042C2F80C114FF0D5
:105030000301B64A11604FF000014FF0A042C2F8E0
:105040001811704710B5014641F480704FF0A0442C
:10505000A06201206062002307E04FF0A040406B97
:1050600010F0010F00D103E05B1CB3F5A02FF4D3C7
:1050700000BF00204FF0A04460622046026B90B257
:1050800010BD10B540F480734FF0A044A3622346D6
:10509000D962002207E04FF0A0435B6B13F0010FD1
:1050A00000D103E0521CB2F5A02FF4D300BF10BD15
:1050B00010B59748006840F080409649C1F8C40098
:1050C0009548964988600846C06820F00F0000F1B6
:1050D0000500C8604FF44F404FF0A04108604FF00A
:1050E00038007F4908604FF000008D49086004E0F7
:1050F0008B480068401C8A49086089480068FF287E
:10510000F6D902204FF0A0410860302048604001ED
:10511000486143F20F7008611220C8604FF430708C
:105120006F49086048F23C004FF0A04108624FF020
:1051300000007B49086004E079480068401C784919
:10514000086077480068FF28F6D93C204FF0A0415E
:1051500008624FF40060886100207149086004E033
:105160006F480068401C6E4908606D480068FF2861
:10517000F6D900204FF0A04188614FF40041FFF7BD
:1051800080FF0020664908600FE00020FFF75AFF0B
:10519000644908600846008810F4084F00D109E00F
:1051A0005F480068401C5E4908605D480068B0F5D3
:1051B000801FEAD300BF0220FFF744FF5A4908606E
:1051C0000320FFF73FFF59490860084600684FF683
:1051D000F07108405449098840EA0140A0F5F821DF
:1051E000F0391ED14FF480510020FFF74AFF002014
:1051F0004B4908600FE00120FFF724FF4949086090
:105200000846007810F0200F00D009E044480068FC
:10521000401C4349086042480068B0F5801FEAD34B
:1052200000BF00203E4908600FE00120FFF70AFFA1
:105230003C4908600846007810F0040F00D009E0EF
:1052400037480068401C3649086035480068B0F5AA
:10525000803FEAD300BF1F20FFF7F4FE314908600A
:105260000846007810F0100F11D04FF0A0404068B1
:1052700040F001004FF0A04148601948006840F438
:105280008060C1F800014FF01500886003E0122033
:105290004FF0A04188602348007810F0080F05D037
:1052A0004FF480704FF0A041886103E000204FF080
:1052B000A0418861094800790849497940EA0120FC
:1052C0004FF0A0410864054880780449C97840EA55
:1052D00001204FF0A0412BE080E100E0BD03001071
:1052E00000010050540C082030F4072048F4072037
:1052F0001C0100502401005054F40720F0F3072053
:10530000FF05008010F40720080100501001005034
:10531000C4C00F4000C00F400501155000C002403E
:10532000E0030010DC030010E4030010E8030010A9
:1053300048644D4800784C49497840EA01204FF0D4
:10534000A0418864FFF753FEFFF72AFE2620474955
:1053500008604FF08800464908604FF6FF7001F181
:10536000040108604FF0A040D0F8000140F00300B5
:105370004FF0A041C1F800010846006840F001006C
:10538000086010BD70B53B4D296800F104033A4D2B
:1053900055F83140058805F103054FEAA50202E002
:1053A00020CB20C4521E002AFAD105886D1E45F07C
:1053B0004045314E06EBC10675604D1C2946032D54
:1053C00000D100212B4D296070BD2DE9F04740E050
:1053D0002748001DC0F8008018F0080F38D0274873
:1053E000046831E0264850F8347017F0804F00D13F
:1053F00023E0C7F30A00C51E40F2EA50854202D8F6
:105400002048074200D018E045F0004014F030FC7E
:1054100006468EB106F1040A1B4850F83490E81C89
:10542000850804E059F8040B4AF8040B6D1E002DA2
:10543000F8D1304617F0D2FB00BF601C04460428A8
:1054400000D100240D48046010480068A042C9D172
:1054500000BF0748001F00680549096810EA0108F5
:10546000B6D1BDE8F0870000BD0300100002005077
:10547000E40F00502801005030F4072018010050BC
:1054800010F407200000901BF0F3072014010050D7
:1054900010B53748006840F400703649C1F8C400C0
:1054A0004FF01200344908724FF0000008644FF0CA
:1054B000010008720846007B40F00100087340F2CA
:1054C000E47088874FF001002C4908702C4908705F
:1054D0004FF00000A1F104010870A1F1040108706F
:1054E000A1F1040108704FF011004FF0010101FA21
:1054F00000F14FEA50124FF0E02303EB8202C2F8B2
:10550000001100BF4FF00001002807DACA06140E90
:105510001C4A00F00F031B1FD45403E0CA06130EED
:10552000194A135400BF10BD1FB5184800688068A1
:10553000401C1649096888600F48007840F0010057
:105540000D4908701248007812490978124A1278F9
:10555000094B9B8FCDE90032CDE90210064890F847
:10556000383010F82C2F0DA1144813F0B1FB1FBDDB
:10557000C4C00F4000C00F4000400240384002400D
:105580002C40024018ED00E000E400E00C000010A8
:10559000204002402440024028400240253032642E
:1055A0002F253032642F253034642D253032643A73
:1055B000253032643A253032640000000F47001075
:1055C00010B5002807DACA06140EFC4A00F00F03D3
:1055D0001B1FD45403E0CA06130EF94A135410BD1E
:1055E00010B5F84800680A21B0FBF1F0401E4FF0FA
:1055F000E021486107200861F24800680A21B0FBF9
:10560000F1F4B4F1807F00D311E024F07F40401E1C
:105610004FF0E02148611F214FF0FF30FFF7D0FF2E
:1056200000204FF0E02188610720086100BF10BD15
:1056300010B5E548006840F44100E449C1F8C400F1
:105640000846D0F8C40040F00200DF4908604FF07F
:1056500003004FF0402148614FF00000C860084649
:10566000406840F001004860D94888614FF001016E
:105670000846FFF7A5FF01200121814042094FF0B4
:10568000E02303EB8202C2F8001100BF10BD1CB57D
:1056900018F0B0FBCF48406900EB80004000CE49D5
:1056A0000988884205D9CC480088401CCA4908802E
:1056B0000FE0CA48007860B10020C9490870C749A6
:1056C0000870009003460122114601900620FEF763
:1056D00097FA1CBD2DE9F0414FF0402000684FF0D3
:1056E00040210860BF4800780A2190FBF1F201FBDD
:1056F0001207384612F0DDFD06464FF07E5112F0DB
:10570000DAFB05464FF07C5112F00BFC04460021F9
:1057100012F0A4FE35D1B448806A40F00500B249C9
:1057200088620846806A40F030008862FEF723F9FC
:10573000FDF78AFCAD4800680078C0F3400078B9F6
:10574000AB48007860B10020AA490968C861A74841
:105750000068007820F00100401CA4490968087026
:10576000A2480068007820F00200A049096808708B
:105770009E480068407820F00100401C9B49096861
:105780004870BDE8F08170B5002012F092FD05462A
:105790004FF07C5112F0C5FB0446002112F05EFE72
:1057A00022D1924800680078C0F3C000E0B1904870
:1057B0000078C8B18448006840F480508349C1F83B
:1057C000C4008A480068007820F00800874909680A
:1057D00008708948006820F0C06087490860084662
:1057E000006840F48030086070BD2DE9FC417948C4
:1057F000007C002869D1774A11687E4A12681068D7
:1058000012F036FE1AD87D487D49B4230022CDE936
:10581000001011460220FEF7F3F974480068007882
:10582000C0090BD071480068007820F080006F49F3
:1058300009680870FEF74AFBFEF77EFA654A516870
:105840006C4A1268106812F009FE1AD86B486C494D
:1058500000231A46CDE9001019460220FEF7D0F9C0
:10586000624800680078C0090BD060480068007882
:1058700020F080005D4909680870FEF79DFBFEF787
:105880005BFA544A5168106812F00FFB0746514A00
:105890005168584A1268106812F007FB804659494F
:1058A00012F009FB0646394612F03BFB054612F0A2
:1058B00045FDC4B25148524923460022CDE90010AB
:1058C00011460220FEF79CF968E0424A9168494A75
:1058D0001268506812F0CCFD1AD848484849B423E1
:1058E0000022CDE9001011460220FEF789F93F4859
:1058F00000680078C0090BD03C480068007820F0B0
:1059000080003A4909680870FEF7E0FAFEF714FAD9
:10591000304AD168374A1268506812F09FFD1AD891
:105920003648374900231A46CDE9001019460220AF
:10593000FEF766F92D4800680078C0090BD02B48A7
:105940000068007820F08000284909680870FEF798
:1059500033FBFEF7F1F91F4AD168906812F0A5FAFF
:1059600007461C4AD168234A1268506812F09DFA13
:105970008046244912F09FFA0646394612F0D1FAC1
:10598000054612F0DBFCC4B21C481D492346002228
:10599000CDE9001011460220FEF732F9BDE8FC8186
:1059A00010B5FFF797FEFFF7EEFE0E480078401C9B
:1059B0000C490870FFF719FF10BD000018ED00E05A
:1059C00000E400E000000010C4C00F4000C00F4021
:1059D0001FBCBE0054040010F40300101A00001095
:1059E0001B000010EC0300100080004010000010AD
:1059F0006803001004000010004003406F12033BD6
:105A00006F12833A0000344310B50A480068C4B2EC
:105A100014F0100F01D0FDF7DFFC14F0020F01D0DD
:105A2000FEF7AAF9034800680249086010BD7047F4
:105A300070470000008000402DE9F047044688468A
:105A4000FB48844202D0FB48844200D103E043215A
:105A5000F9A0FAF72BFCF648844204D12A2000F082
:105A60001EFE074609E0F348844204D1142000F0EA
:105A700016FE074601E0BDE8F08700254FF0FF392C
:105A800002260AE0681C7043B7FBF0F9C14504D94F
:105A90006D1CFF2D01D90025B61CC145F2D8206828
:105AA000C0B2206020684FF6FF7101EA052108436B
:105AB0002060F0B2206100BFDDE770B504460D46FE
:105AC000DB48844202D0DB48844200D103E08121DC
:105AD000D9A0FAF7EBFBD648844204D1012148054E
