:020000040000FA
:1000000040240820AD020000B5020000B702000045
:10001000B9020000BB020000BD02000000000000A9
:10002000000000000000000000000000BF0200000F
:10003000C102000000000000C3020000EB35000018
:10004000C702000047370000F53700001B380000EA
:100050001D380000BB610100C7020000C70200009C
:10006000A9640100C7020000C7020000C702000027
:10007000C7020000C7020000C7020000C70200005C
:10008000C702000039060000C7020000C7020000D6
:10009000C7020000C70200009D3B0000C70200002D
:1000A000C7020000C7020000C7020000C70200002C
:1000B0007F0E0000C7020000C7020000C702000058
:1000C000C7020000C7020000C7020000DFF80CD022
:1000D00017F012FB004800479D0200004024082052
:1000E000AA204107087255200872704700B50548DC
:1000F000410648600120086103200870FFF7F0FF07
:1001000000BD0000A0ACB9035448C06C5349C8649A
:100110000846C06CC8640846C06820F03000C8605B
:100120000846C06840F03000C8604D48006F4C4938
:1001300008670846806A40F0050088624948006800
:1001400040F004004849C1F8C4004FF000004449A1
:10015000C8600846406840F00200486008464068B1
:1001600020F0020048600846406840F00100486006
:100170003A48C06840F030003849C8604FF002008B
:100180004FF0010101FA00F14FEA50124FF0E02365
:1001900003EB8202C2F8001100BF704770B5002463
:1001A00000E0641C47F230508442FADB10202C49F6
:1001B00008602E480078401C2C49087008460078DA
:1001C00002284ADB2A480068294948602448C06A56
:1001D000086000202549087025490968244A5268AA
:1001E000881A17F03CF80646224916F031FE0546FB
:1001F0002946214816F062FE204908602048007810
:10020000401C1F4908700846007804281FD1144874
:10021000806A60F004001249886200201849087062
:100220001648006817490968C861174800680078CF
:1002300020F002001449096808701348006800782B
:1002400020F00100401C10490968087005E00448CE
:10025000806A40F005000249886270BD00C002401B
:1002600000800040C4C00F4000C00F4000000010DC
:100270000400001000007A44D313834E0C000010D9
:1002800001000010FCC2072008C3072010B51AF0B7
:10029000AFFC10BD10B51AF09FFE10BD03F0F0F8D2
:1002A00003E002F0D4F8FFF7F5FFFAE706488047CD
:1002B00006480047FEE7FEE7FEE7FEE7FEE7FEE74B
:1002C000FEE7FEE7FEE7FEE7B5320000CD000000E6
:1002D0000848406840F48020064948600846406C61
:1002E00020F4402048640448006840F004000249BB
:1002F0000860704700C0024000400340FFFFFFFF5E
:1003000070B505460C469A48006840F0400099498F
:10031000C1F8C4002946984816F0D0FD064616F0EC
:10032000DAFF401E954988610846406840F00900A0
:10033000486008464069002048610846406940F02E
:10034000020048618E4800696FF30B008C49086118
:100350000846C0688B4908408949C86000208A491E
:100360000968087025E088480068017844FA01F0BF
:100370004FF6FE71884315D08148016982480068B4
:10038000007842000120904001437D4801617B4894
:10039000C06C7D4909680978093101228A401043FF
:1003A0007649C864784800680078401C7649096836
:1003B00008707548006800780628D4DB062072496A
:1003C0000968087052E0704800680178891C44FA96
:1003D00001F04FF6FE71884341D06848C16C6A480D
:1003E00000680078C01C0122824011436348C16448
:1003F000654800680078801F06282ED2DFE800F0EC
:10040000030A11181F265E48C06840F020005C49AE
:10041000C86023E05A48C06840F400705849C8607A
:100420001CE05748C06840F400605549C86015E0BA
:100430005348C06840F400405149C8600EE050483D
:10044000C06840F400304E49C86007E04C48C068BE
:1004500040F400104A49C86000E000BF00BF4A48AD
:1004600000680078401C48490968087046480068E0
:1004700000780C28A7DB002043490968087070BD8C
:100480002DE9FF5F04460D4616469946DDF838A073
:10049000032C00D9A41D504616F04AFF4FF033320A
:1004A0003A4BCDE9020116F0F0FD074616F068FF61
:1004B00082460F9816F03CFF354A364BCDE90201D3
:1004C00016F0E3FD074616F05BFF0F90D5B1012D46
:1004D0003ED1304616F0C3FE2F49039016F0EEFCD5
:1004E00080462649886916F0BAFE8346414616F0D2
:1004F000AFFC074616F0EFFE2049042202FB041170
:10050000886126E0484616F0AAFE2449009016F0BD
:10051000D5FC514602900F9816F094FC0190029978
:1005200016F096FC8346514616F03AFC12490390A9
:1005300016F08EFC80464FF07E5116F083FC074685
:1005400016F0C9FE0D49042202FB0411886100E087
:1005500000BF00BF032C00D9A41F0848006D012173
:10056000A14041F00101084304490865BDE8FF9F2F
:10057000C4C00F4000C00F4020BCBE4B00800140F3
:1005800000C00240CF30CCFF04C307203333E33F29
:10059000CDCCCCCCCCCCF43F0000C84200003443DE
:1005A00010B53748006840F400703649C1F8C400FF
:1005B0004FF01200344908724FF0000008644FF009
:1005C000010008720846007B40F00100087340F209
:1005D000E47088874FF001002C4908702C4908709E
:1005E0004FF00000A1F104010870A1F104010870AE
:1005F000A1F1040108704FF011004FF0010101FA60
:1006000000F14FEA50124FF0E02303EB8202C2F8F0
:10061000001100BF4FF00001002807DACA06140ECF
:100620001C4A00F00F031B1FD45403E0CA06130E2C
:10063000194A135400BF10BD1FB5184800688068E0
:10064000401C1649096888600F48007840F0010096
:100650000D4908701248007812490978124A127838
:10066000094B9B8FCDE90032CDE90210064890F886
:10067000383010F82C2F0DA1144817F0EFFA1FBDD9
:10068000C4C00F4000C00F4000400240384002404C
:100690002C40024018ED00E000E400E004C3072015
:1006A000204002402440024028400240253032646D
:1006B0002F253032642F253034642D253032643AB2
:1006C000253032643A253032640000009400001076
:1006D00007280CD2DFE800F00405060708090A0025
:1006E00005E004E003E002E001E000E000BF00BF3D
:1006F00000BFFEE710B518F0E5FF1AF087FB1AF00F
:1007000091F91CF0FFFA1BF0FFFB19F0ABFBBDE801
:10071000104018F0B7BC10B518F0EEFF1AF07CFBD3
:100720001AF0EEF91BF0C0FCBDE8104019F078BFDC
:1007300000207047704770470020704700207047C6
:1007400000207047704770472DE9F04705460E4678
:1007500091469A46287862284CD010DC4D2873D0F8
:1007600006DC412871D0442870D048286FD1B7E00A
:1007700053286DD054286CD06128F7D148E07428F4
:100780000ED006DC682827D0692873D07028EDD1F8
:1007900014E076287CD078285CD07928E6D145E032
:1007A00062490968086816F0C3FD07463A460B46D9
:1007B000291D304617F052FA0446B2E05B49096839
:1007C000486816F0B5FD07463A460B46291D3046E7
:1007D00017F044FA0446A4E054490968886816F002
:1007E000A7FD07463A460B46291D304617F036FA54
:1007F000044696E04D490968086A16F099FD0746D7
:100800003A460B46291D304617F028FA044688E080
:1008100046490968886916F08BFD07463A460B463B
:10082000291D304617F01AFA04467AE03F49096854
:10083000486916F07DFD07463A460B46291D3046AD
:1008400017F00CFA04466CE038E02FE03FE062E07D
:1008500058E04EE035490968086916F069FD074619
:100860003A460B46291D304617F0F8F9044658E081
:1008700000E00DE02D490968C86816F059FD0746EB
:100880003A460B46291D304617F0E8F9044648E081
:1008900026490968C86916F04BFD07463A460B46DB
:1008A000291D304617F0DAF904463AE02048828FD5
:1008B000291D304617F0D2F9044632E01D4802786F
:1008C00005F10401304617F0C9F9044629E01A4839
:1008D000027805F10401304617F0C0F9044620E023
:1008E0001648027805F10401304617F0B7F90446BE
:1008F00017E01348027805F10401304617F0AEF90D
:1009000004460EE00F48027805F10401304617F066
:10091000A5F9044605E00CA1304617F09FF90446FE
:1009200000BF00BFA0B2BDE8F0870000FCC20720F6
:1009300000400240384002402C4002402840024023
:1009400024400240204002403C703E592E2E2E2072
:1009500071756520717569657265732071756520A3
:10096000706F6E676120617175693F203A6C3C2F32
:10097000703E00001C200121814042094FF0E0231D
:1009800003EB8202C2F8001100BF70471C20012156
:100990008140FE4A430942F8231000BF704770B5FA
:1009A00005460E468EB9032405E015F8021BC8B2B1
:1009B000F7490855641C062CF7DB7E20F4490870C3
:1009C000FF204870FE20887009E0002405E015F83B
:1009D000021BC8B2EE490855641C062CF7DBFFF772
:1009E000D5FF4FF0A040006820F001004FF0A0417B
:1009F0000860E848006820F00300C1F80001E448FE
:100A00000079E349497940EA01204FF0A0410864A8
:100A1000DF488078DE49C97840EA01204FF0A041E4
:100A20004864DB480078DA49497840EA01204FF011
:100A3000A04188640846006840F44F4008600846BA
:100A4000D0F8000140F07800C1F80001FFF792FFF4
:100A5000012070BD00200FE000EB4001CE4A02EB08
:100A60004121CE4A42F83010002102EBC002516011
:100A7000CB4A42F82010401C0328EDD3C749C94A8D
:100A80001160C7494FF0A042C2F820114FF0020197
:100A9000C54A11604FF000014FF0A042C2F8281182
:100AA0007047002013E000EB4001C04A02EB4121F7
:100AB000BF4A42F83010BF4902EBC002516000212A
:100AC000BD4A42F8301002EBC0025160401C0428BD
:100AD000E9D3B749B94A1160B7494FF0A042C2F80B
:100AE0000C114FF00301B64A11604FF000014FF0B6
:100AF000A042C2F81811704710B5014641F4807049
:100B00004FF0A044A06201206062002307E04FF094
:100B1000A040406B10F0010F00D103E05B1CB3F567
:100B2000A02FF4D300BF00204FF0A0446062204605
:100B3000026B90B210BD10B540F480734FF0A0442A
:100B4000A3622346D962002207E04FF0A0435B6B0B
:100B500013F0010F00D103E0521CB2F5A02FF4D323
:100B600000BF10BD10B59748006840F0804096491E
:100B7000C1F8C4009548964988600846C06820F0CE
:100B80000F0000F10500C8604FF44F404FF0A04146
:100B900008604FF038007F4908604FF000008D4931
:100BA000086004E08B480068401C8A490860894856
:100BB0000068FF28F6D902204FF0A04108603020DD
:100BC00048604001486143F20F7008611220C8601C
:100BD0004FF430706F49086048F23C004FF0A0417C
:100BE00008624FF000007B49086004E07948006823
:100BF000401C7849086077480068FF28F6D93C20F7
:100C00004FF0A04108624FF40060886100207149F4
:100C1000086004E06F480068401C6E4908606D4839
:100C20000068FF28F6D900204FF0A04188614FF4FA
:100C30000041FFF780FF0020664908600FE00020B8
:100C4000FFF75AFF644908600846008810F4084F0F
:100C500000D109E05F480068401C5E4908605D48BB
:100C60000068B0F5801FEAD300BF0220FFF744FF01
:100C70005A4908600320FFF73FFF594908600846BA
:100C800000684FF6F07108405449098840EA014075
:100C9000A0F5F821F0391ED14FF480510020FFF764
:100CA0004AFF00204B4908600FE00120FFF724FFB6
:100CB000494908600846007810F0200F00D009E08C
:100CC00044480068401C4349086042480068B0F549
:100CD000801FEAD300BF00203E4908600FE00120DA
:100CE000FFF70AFF3C4908600846007810F0040F3F
:100CF00000D009E037480068401C36490860354894
:100D00000068B0F5803FEAD300BF1F20FFF7F4FE74
:100D1000314908600846007810F0100F11D04FF0EC
:100D2000A040406840F001004FF0A04148601948E1
:100D3000006840F48060C1F800014FF01500886041
:100D400003E012204FF0A04188602348007810F0A3
:100D5000080F05D04FF480704FF0A041886103E088
:100D600000204FF0A041886109480079084949797D
:100D700040EA01204FF0A04108640548807804490A
:100D8000C97840EA01204FF0A0412BE080E100E06B
:100D900010C0072000010050940F082070F70720B2
:100DA00088F707201C0100502401005094F7072009
:100DB00030F70720FF05008050F70720080100509A
:100DC00010010050C4C00F4000C00F400501155075
:100DD00000C0024018000010140000101C00001099
:100DE0002000001048644D4800784C49497840EA9A
:100DF00001204FF0A0418864FFF753FEFFF72AFE61
:100E00002620474908604FF08800464908604FF6A1
:100E1000FF7001F1040108604FF0A040D0F800011C
:100E200040F003004FF0A041C1F8000108460068FF
:100E300040F00100086010BD70B53B4D296800F11D
:100E400004033A4D55F83140058805F103054FEA92
:100E5000A50202E020CB20C4521E002AFAD1058848
:100E60006D1E45F04045314E06EBC10675604D1CC8
:100E70002946032D00D100212B4D296070BD2DE99D
:100E8000F04740E02748001DC0F8008018F0080F28
:100E900038D02748046831E0264850F8347017F0FD
:100EA000804F00D123E0C7F30A00C51E40F2EA508C
:100EB000854202D82048074200D018E045F00040A3
:100EC00017F094FE06468EB106F1040A1B4850F84E
:100ED0003490E81C850804E059F8040B4AF8040B28
:100EE0006D1E002DF8D130461AF0F6FD00BF601CD3
:100EF0000446042800D100240D480460104800680E
:100F0000A042C9D100BF0748001F00680549096811
:100F100010EA0108B6D1BDE8F087000010C0072034
:100F200000020050E40F00502801005070F7072025
:100F30001801005050F707200000901B30F70720E1
:100F4000140100501CB50446F9480078012847D127
:100F5000F84800882188884219DD2088A188084443
:100F6000F4490988884212DDF24840886188884245
:100F70000DDD6088E1880844EE494988884206DD35
:100F8000207A10B9012020721CBD0020FCE7EA483D
:100F9000406900EB80004000E849098888421CD87D
:100FA0000020009003463C22012101900620FFF71B
:100FB00067FA0320E2490870E248007801280CDD56
:100FC0000120E14908700420DD490870DD480078FF
:100FD000022802D10120DD4908700020D74908808D
:100FE0000020207200BFCFE72DE9F84F04460E46DF
:100FF00017461D460095B4F800C0B4F80480C444F8
:10100000ACF1010C1FFA8CF263881946208814F0A9
:10101000C0FE0095B4F802C0B4F80680C444ACF138
:10102000010C1FFA8CF322886188104614F0B1FE7F
:101030000095B4F802C0B4F80680C444ACF1010CC9
:101040001FFA8CF3B4F800C0B4F80480C444ACF1C7
:10105000010C1FFA8CF2B4F802C0B4F80680C44444
:10106000ACF1010C1FFA8CF1208814F092FE00956F
:10107000B4F802C0B4F80680C444ACF1010C1FFA05
:101080008CF3B4F800C0B4F80480C444ACF1010C93
:101090001FFA8CF2B4F800C0C444ACF1010C1FFA82
:1010A0008CF0618814F075FE304615F0C4FD4008E0
:1010B000B4F8049009EBD971228802EB6101A1EB2D
:1010C000C0001FFA80FA00200090B4F8068008EBF8
:1010D000D870628802EB6000083881B23B46324625
:1010E000504614F005FFBDE8F88F00B589B04FF405
:1010F000FC634FF6E07296499648FFF775FF4FF490
:10110000FC634FF6E07294A19448FFF76DFF4FF433
:10111000FC634FF6E07292A19248FFF765FF4FF42F
:10112000FC634FF6E07290A19148FFF75DFF4FF42A
:10113000FC634FF6E0728FA19048FFF755FF4FF424
:10114000FC634FF6E0728EA19048FFF74DFF4FF41D
:10115000FC634FF6E0728EA18F48FFF745FF082031
:10116000D721A823C022CDE900108CA103A816F036
:1011700075FD4FF4FC634FF6E07203A98B48FFF74F
:1011800033FF4FF4FC634FF6E07289A18948FFF703
:101190002BFF4FF4FC634FF6E07285A18648FFF702
:1011A00023FF4FF4FC634FF6E07281A18348FFF701
:1011B0001BFF4FF4FC634FF6E0727DA18048FFF700
:1011C00013FF4FF4FC634FF6E0727EA17E48FFF7F9
:1011D0000BFF4FF4FC634FF6E0727AA17B48FFF7F8
:1011E00003FF4FF4FC634FF6E07276A17848FFF7F7
:1011F000FBFE4FF4FC634FF6E07272A17548FFF7F7
:10120000F3FE09B000BDF8B504460E46002514E013
:1012100000966788B4F806C06744BF1EBBB2278833
:101220002F44BF1CBAB26788BF1CB9B227882F44AD
:10123000BF1CB8B214F0ADFD6D1CA088001FA84201
:10124000E6DCF8BD2DE9F0414FF4FC634FF6E072A7
:101250003F494048FFF7C8FE4FF4FC634FF6E07289
:101260003DA13E48FFF7C0FE4FF4FC634FF6E0722D
:101270003BA13C48FFF7B8FE4FF4FC634FF6E07229
:1012800055A15948FFF7B0FE58480068407820F053
:101290000100564909684870274A5168106815F0DE
:1012A000D1FD0646244A5168514A1268106815F06B
:1012B000C9FD07464F4915F0CBFD0546314615F0EF
:1012C000FDFD044615F0EEFF0B2830D2DFE800F0FC
:1012D00006A8D2FDFCFBFAF9F8F7F6000021464813
:1012E000FFF791FF00214548FFF78DFF002144489B
:1012F000FFF789FF00214348FFF785FF002142489F
:10130000FFF781FF00214148FFF77DFF00214048A2
:10131000FFF779FF00213F48FFF775FF00213E48A6
:10132000FFF771FF00213D48FFF76DFFCBE246E27A
:10133000AEC20720F8C20720942108202C0000101C
:101340002BC007202AC007202DC007202CC0072053
:101350009400001038C007202D3E000042C0072036
:101360003C2D00004CC00720486F726173000000E4
:101370003CC107204D696E75746F730046C107202C
:10138000536567756E646F730000000050C10720DD
:1013900044696173000000005AC1072049503A2592
:1013A000642E25642E25642E2564000064C1072068
:1013B0002D0000006EC1072078C1072082C10720E0
:1013C0008CC107202B00000096C10720A0C1072078
:1013D000AAC10720B4C1072054656D70657261749D
:1013E0007572613A00000000BEC1072008C30720E3
:1013F000FCC20720000020414AC2072054C2072037
:101400005EC2072068C2072072C207207CC2072084
:1014100086C2072090C207209AC20720A4C20720D4
:101420004FF6FF71FE48FFF7EEFE0021FD48FFF783
:10143000EAFE0021FC48FFF7E6FE0021FB48FFF72B
:10144000E2FE0021FA48FFF7DEFE0021F948FFF72F
:10145000DAFE0021F848FFF7D6FE0021F748FFF733
:10146000D2FE0021F648FFF7CEFE0021F548FFF737
:10147000CAFE28E24FF6FF71E948FFF7C4FE4FF6B7
:10148000FF71E848FFF7BFFE0021E748FFF7BBFE0A
:101490000021E648FFF7B7FE0021E548FFF7B3FE5D
:1014A0000021E448FFF7AFFE0021E348FFF7ABFE61
:1014B0000021E248FFF7A7FE002107E04CE119E117
:1014C000E7E0B6E08CE062E034E007E0DC48FFF7FC
:1014D0009AFE0021DB48FFF796FEF4E14FF6E0713B
:1014E000CF48FFF790FE4FF6E071CE48FFF78BFE36
:1014F0004FF6E071CC48FFF786FE0021CB48FFF79E
:1015000082FE0021CA48FFF77EFE0021C948FFF78E
:101510007AFE0021C848FFF776FE0021C748FFF792
:1015200072FE0021C648FFF76EFE0021C548FFF796
:101530006AFEC8E14FF6E071B948FFF764FE4FF666
:10154000E071B848FFF75FFE4FF6E071B648FFF76D
:101550005AFE4FF6E071B548FFF755FE0021B4483A
:10156000FFF751FE0021B348FFF74DFE0021B248BE
:10157000FFF749FE0021B148FFF745FE0021B048C2
:10158000FFF741FE0021AF48FFF73DFE9BE11F2121
:10159000A348FFF738FE1F21A248FFF734FE1F21A2
:1015A000A148FFF730FE1F21A048FFF72CFE1F21A6
:1015B0009F48FFF728FE00219E48FFF724FE0021E8
:1015C0009D48FFF720FE00219C48FFF71CFE0021EC
:1015D0009B48FFF718FE00219A48FFF714FE72E1BE
:1015E0001F218F48FFF70FFE1F218E48FFF70BFECC
:1015F0001F218D48FFF707FE1F218C48FFF703FED0
:101600001F218B48FFF7FFFD1F218A48FFF7FBFDD5
:1016100000218948FFF7F7FD00218848FFF7F3FD17
:1016200000218748FFF7EFFD00218648FFF7EBFD1B
:1016300049E14FF4FC617A48FFF7E5FD4FF4FC61A6
:101640007848FFF7E0FD4FF4FC617748FFF7DBFDDA
:101650004FF4FC617548FFF7D6FD4FF4FC61744808
:10166000FFF7D1FD4FF4FC617248FFF7CCFD4FF45A
:10167000FC617148FFF7C7FD00217048FFF7C3FD0B
:1016800000216F48FFF7BFFD00216E48FFF7BBFD4B
:1016900019E14FF4FC616248FFF7B5FD4FF4FC61BE
:1016A0006048FFF7B0FD4FF4FC615F48FFF7ABFD0A
:1016B0004FF4FC615D48FFF7A6FD4FF4FC615C4808
:1016C000FFF7A1FD4FF4FC615A48FFF79CFD4FF472
:1016D000FC615948FFF797FD4FF4FC615748FFF74D
:1016E00092FD00215648FFF78EFD00215548FFF777
:1016F0008AFDE8E04FF478414948FFF784FD4FF454
:1017000078414848FFF77FFD4FF478414648FFF79E
:101710007AFD4FF478414548FFF775FD4FF4784165
:101720004348FFF770FD4FF478414248FFF76BFDE7
:101730004FF478414048FFF766FD4FF478413F4849
:10174000FFF761FD4FF478413D48FFF75CFD002154
:101750003C48FFF758FDB6E04FF478413048FFF7BA
:1017600052FD4FF478412F48FFF74DFD4FF478417B
:101770002D48FFF748FD4FF478412C48FFF743FD13
:101780004FF478412A48FFF73EFD4FF4784129484D
:10179000FFF739FD4FF478412748FFF734FD4FF448
:1017A00078412648FFF72FFD4FF478412448FFF792
:1017B0002AFD4FF478412348FFF725FD83E0224AB4
:1017C0005168224A1268106815F000FE4AD24FF4A0
:1017D00078411348FFF717FD4FF478411148FFF7A0
:1017E00012FD4FF478411048FFF70DFD4FF478419A
:1017F0000E48FFF708FD4FF478410D48FFF703FD51
:101800004FF478410B48FFF7FEFC4FF478410A484B
:10181000FFF7F9FC4FF478410848FFF7F4FC17E0B4
:101820004AC2072054C207205EC2072068C20720B0
:1018300072C207207CC2072086C2072090C2072000
:101840009AC20720A4C2072094210820FCC20720C6
:101850004FF47841FA48FFF7D6FC4FF47841F94845
:10186000FFF7D1FCF84A5168F84A1268106815F081
:10187000A3FD27D20021F648FFF7C5FC0021F5485B
:10188000FFF7C1FC0021F448FFF7BDFC0021F3483D
:10189000FFF7B9FC0021F248FFF7B5FC0021F14841
:1018A000FFF7B1FC0021F048FFF7ADFC0021EF4845
:1018B000FFF7A9FC0021E248FFF7A5FC0021E14861
:1018C000FFF7A1FC00BF00BF4FF4FC634FF6E072CE
:1018D000E7A1EA48FFF788FBDB4AD168906815F07A
:1018E000B1FA0646D84AD168D84A1268506815F04D
:1018F000A9FA0746E24915F0ABFA0546314615F05C
:10190000DDFA044615F0CEFC0B287DD2DFE800F0AE
:10191000062F5986B2DFFEFDFCFBFA000021D948F4
:10192000FFF771FC0021D848FFF76DFC0021D74874
:10193000FFF769FC0021D648FFF765FC0021D54878
:10194000FFF761FC0021D448FFF75DFC0021D3487C
:10195000FFF759FC0021D248FFF755FC0021D14880
:10196000FFF751FC0021D048FFF74DFC6EE24FF627
:10197000FF71C448FFF747FC0021C348FFF743FC51
:101980000021C248FFF73FFC0021C148FFF73BFCA4
:101990000021C048FFF737FC0021BF48FFF733FCA8
:1019A0000021BE48FFF72FFC0021BD48FFF72BFCAC
:1019B0000021BC48FFF727FC0021BB48FFF723FCB0
:1019C00044E24FF6FF71AF48FFF71DFC4FF6FF7181
:1019D000AD48FFF718FC0021AC48FFF714FC0021CC
:1019E000AB48FFF710FC0021AA48FFF70CFC0021D0
:1019F000A948FFF708FC0021A848FFF704FC0021D4
:101A0000A748FFF700FC00E0B5E10021A548FFF77B
:101A1000FAFB0021A448FFF7F6FB17E24FF6E0714E
:101A20009848FFF7F0FB4FF6E0719748FFF7EBFBA4
:101A30004FF6E0719548FFF7E6FB00219448FFF769
:101A4000E2FB00219348FFF7DEFB00219248FFF7FD
:101A5000DAFB00219148FFF7D6FB00219048FFF701
:101A6000D2FB00218F48FFF7CEFB00218E48FFF705
:101A7000CAFBEBE14FF6E0718248FFF7C4FB4FF67B
:101A8000E0718148FFF7BFFB4FF6E0717F48FFF739
:101A9000BAFB4FF6E0717E48FFF7B5FB00217D48A9
:101AA000FFF7B1FB00217C48FFF7ADFB00217B482D
:101AB000FFF7A9FB00217A48FFF7A5FB0021794831
:101AC000FFF7A1FB00217848FFF79DFBBEE11F2136
:101AD0006C48FFF798FB1F216B48FFF794FB1F2111
:101AE0006A48FFF790FB1F216948FFF78CFB1F2115
:101AF0006848FFF788FB00216748FFF784FB002157
:101B0000664804E004E1D1E069E038E00EE0FFF768
:101B10007AFB00216248FFF776FB00216148FFF75E
:101B200072FB00216048FFF76EFB8FE11F215548D3
:101B3000FFF769FB1F215448FFF765FB1F2153483E
:101B4000FFF761FB1F215248FFF75DFB1F21514842
:101B5000FFF759FB1F215048FFF755FB00214F4865
:101B6000FFF751FB00214E48FFF74DFB00214D4888
:101B7000FFF749FB00214C48FFF745FB66E14FF4B6
:101B8000FC614048FFF73FFB4FF4FC613E48FFF724
:101B90003AFB4FF4FC613D48FFF735FB4FF4FC6125
:101BA0003B48FFF730FB4FF4FC613A48FFF72BFB53
:101BB0004FF4FC613848FFF726FB4FF4FC613748CF
:101BC000FFF721FB00213648FFF71DFB00213548B8
:101BD000FFF719FB00213448FFF715FB36E14FF4FE
:101BE000FC612848FFF70FFB4FF4FC612648FFF724
:101BF0000AFB4FF4FC612548FFF705FB4FF4FC613D
:101C00002348FFF700FB4FF4FC612248FFF7FBFA83
:101C10004FF4FC612048FFF7F6FA4FF4FC611F48CF
:101C2000FFF7F1FA4FF4FC611D48FFF7ECFA0021D1
:101C30001C48FFF7E8FA00211B48FFF7E4FA05E12A
:101C40009AC20720A4C2072094210820FCC20720C2
:101C50004AC2072054C207205EC2072068C207207C
:101C600072C207207CC2072086C2072090C20720CC
:101C700050726573696F6E3A00000000D2C1072090
:101C800000002041E6C10720F0C10720FAC107206B
:101C900004C207200EC2072018C2072022C2072054
:101CA0002CC2072036C2072040C207204FF47841DB
:101CB000FD48FFF7A8FA4FF47841FC48FFF7A3FA74
:101CC0004FF47841FA48FFF79EFA4FF47841F9480B
:101CD000FFF799FA4FF47841F748FFF794FA4FF479
:101CE0007841F648FFF78FFA4FF47841F448FFF750
:101CF0008AFA4FF47841F348FFF785FA4FF47841B8
:101D0000F148FFF780FA0021F048FFF77CFA9DE0E8
:101D10004FF47841E448FFF776FA4FF47841E3480E
:101D2000FFF771FA4FF47841E148FFF76CFA4FF48E
:101D30007841E048FFF767FA4FF47841DE48FFF753
:101D400062FA4FF47841DD48FFF75DFA4FF47841CD
:101D5000DB48FFF758FA4FF47841DA48FFF753FAB7
:101D60004FF47841D848FFF74EFA4FF47841D748FE
:101D7000FFF749FA6AE0D64A9168D64A1268506875
:101D800015F024FB31D24FF47841C748FFF73BFAF6
:101D90004FF47841C548FFF736FA4FF47841C4480C
:101DA000FFF731FA4FF47841C248FFF72CFA4FF4AD
:101DB0007841C148FFF727FA4FF47841BF48FFF751
:101DC00022FA4FF47841BE48FFF71DFA4FF47841EC
:101DD000BC48FFF718FA4FF47841BB48FFF713FAF5
:101DE0004FF47841B948FFF70EFAB94AD168B94AB9
:101DF0001268506815F0E0FA27D20021AA48FFF7D0
:101E000002FA0021A948FFF7FEF90021A848FFF7D0
:101E1000FAF90021A748FFF7F6F90021A648FFF7D5
:101E2000F2F90021A548FFF7EEF90021A448FFF7D9
:101E3000EAF90021A348FFF7E6F90021A248FFF7DD
:101E4000E2F90021A148FFF7DEF900BF00BFBDE8BD
:101E5000F08130B587B04FF4FC634FF6E0729E49D5
:101E60009E48FFF7C1F84FF4FC634FF6E072AFF6FF
:101E700018319B48FFF7B8F84FF4FC634FF6E07257
:101E8000AFF624319748FFF7AFF84FF4FC634FF6F5
:101E9000E07295A19948FFF7A7F899480068407843
:101EA00010F0010F13D08B490968886915F040FACA
:101EB000044622460B4693A101A815F0CFFE4FF42D
:101EC000FC634FF6E07201A99348FFF78DF84FF4D9
:101ED000FC634FF6E07291A19348FFF785F84FF449
:101EE000FC634FF6E07291A19348FFF77DF84FF441
:101EF000FC634FF6E07291A19348FFF775F84FF439
:101F0000FC634FF6E07291A19348FFF76DF87C48AF
:101F10000068007810F0010F1BD06E490968C8698D
:101F200015F006FA044622460B468CA101A815F0CE
:101F300095FE4FF4FC634FF6E07201A98A48FFF763
:101F400053F86F480068007820F001006C49096878
:101F500008706B480068407810F0010F1BD05D4995
:101F60000968886815F0E4F9044622460B467FA10B
:101F700001A815F073FE4FF4FC634FF6E07201A95F
:101F80007D48FFF731F85E480068407820F0010096
:101F90005B49096848704F490968086A15F0C8F933
:101FA000044622460B4675A101A815F057FE4FF4D2
:101FB000FC634FF6E07201A97348FFF715F8454935
:101FC0000968C86815F0B4F9044622460B466FA1AB
:101FD00001A815F043FE4FF4FC634FF6E07201A92F
:101FE0006D48FFF701F807B030BD10B54FF4FC6342
:101FF0004FF6E07238493948FEF7F6FF4FF4FC63BC
:102000004FF6E072AFF6B0413548FEF7EDFF4FF402
:10201000FC634FF6E072AFF6B8413248FEF7E4FFDA
:102020004FF4FC634FF6E0725CA15E48FEF7DCFF04
:102030004FF4FC634FF6E0725BA15D48FEF7D4FFFE
:102040004FF4FC634FF6E0725AA15F48FEF7CCFFF5
:102050005E480078052826D2DFE800F003D1FDFCB9
:10206000FB004FF6FF731A4659A15A48FEF7BCFF12
:102070004FF4FC634FF6E07257A15848FEF7B4FFE7
:102080004FF4FC634FF6E07255A15648FEF7ACFFE3
:102090004FF4FC634FF6E07253A15448FEF7A4FFDF
:1020A0004FF4FC63A4E05EE1E6C10720F0C1072025
:1020B000FAC1072004C207200EC2072018C2072059
:1020C00022C207202CC2072036C2072040C20720A8
:1020D00094210820FCC207209400001038C007207B
:1020E00042C007204CC007204D454449444153207D
:1020F00041435455414C455300000000D8C00720CF
:1021000008C30720416C747572613A20252E303265
:1021100066206D2E00000000E2C0072056656C2E80
:1021200020762E3A00000000ECC0072048756D654F
:102130006461643A00000000F6C00720436C6172DD
:10214000696461643A00000000C10720496E636958
:1021500064652055563A00000AC10720252E30320A
:1021600066206D707300000014C10720252E3032E8
:1021700066202525000000001EC10720252E3032D4
:1021800066204C555800000028C10720252E30320B
:10219000662055567300000032C10720496E666FF5
:1021A0002E00000056C00720416A757374657300E5
:1021B00060C007204E6976656C2064652062726994
:1021C0006C6C6F3A000000006AC007202BC007202B
:1021D0003100000074C00720320000007EC00720DC
:1021E0003300000088C007203400000092C00720A0
:1021F0004FF6E072FDA1FE48FEF7F6FEB3E04FF4A5
:10220000FC634FF6E072AFF23801FA48FEF7ECFEDD
:102210004FF6FF731A46AFF24001F748FEF7E4FEAF
:102220004FF4FC634FF6E072AFF24C01F348FEF757
:10223000DBFE4FF4FC634FF6E072AFF25401F0485E
:10224000FEF7D2FE4FF4FC634FF6E072E7A1E848D8
:1022500002E05CE02FE002E0FEF7C6FE83E04FF410
:10226000FC634FF6E072AFF29801E248FEF7BCFE65
:102270004FF4FC634FF6E072AFF2A401DE48FEF7C4
:10228000B3FE4FF6FF731A46AFF2AC01DB48FEF720
:10229000ABFE4FF4FC634FF6E072AFF2B401D848E6
:1022A000FEF7A2FE4FF4FC634FF6E072CFA1D048D8
:1022B000FEF79AFE57E04FF4FC634FF6E072AFF280
:1022C000F001CC48FEF790FE4FF4FC634FF6E0724D
:1022D000AFF2FC01C848FEF787FE4FF4FC634FF6EF
:1022E000E072AFF20411C548FEF77EFE4FF6FF73B1
:1022F0001A46AFF20C11C248FEF776FE4FF4FC63AB
:102300004FF6E072B9A1BA48FEF76EFE2BE04FF42B
:10231000FC634FF6E072AFF24811B648FEF764FE78
:102320004FF4FC634FF6E072AFF25411B248FEF77F
:102330005BFE4FF4FC634FF6E072AFF25C11AF4806
:10234000FEF752FE4FF4FC634FF6E072AFF26811F5
:10235000AB48FEF749FE4FF6FF731A46A3A1A44807
:10236000FEF742FE00BF00BF4FF4FC634FF6E07281
:10237000A4A1A648FEF738FEA548007820B10128A0
:102380001AD0022847D12EE04FF478431A46A1A173
:10239000A148FEF729FE4FF4FC634FF6E0729FA1BF
:1023A0009F48FEF721FE4FF4FC634FF6E0729DA1BB
:1023B0009D48FEF719FE2EE04FF4FC634FF6E072E5
:1023C00094A19548FEF710FE1F231A4693A1944846
:1023D000FEF70AFE4FF4FC634FF6E07291A19248BB
:1023E000FEF702FE17E04FF4FC634FF6E07289A19E
:1023F0008948FEF7F9FD4FF4FC634FF6E07287A1C0
:102400008748FEF7F1FD4FF6FF731A4685A186480F
:10241000FEF7EAFD00BF00BF4FF4FC634FF6E07229
:1024200082A18448FEF7E0FD10BD10B500F0F1FB7D
:10243000044644B1804A2146804800F0A0FD0120B6
:102440007F49087002E000207D49087010BD1CB56E
:10245000FDF746FEFFF7E9FF7A480078D0B14FF06C
:10246000E020006910F4803F14D0002000907649ED
:1024700001900968754B0022086A012101F036FDC0
:102480000020009003460190704802780121062048
:10249000FDF7F6FF6E480068007805287ED2DFE879
:1024A00000F003E7E6E5A400FFF79FFD6948FEF7AB
:1024B00049FD30B10120664909680870002012F01A
:1024C0001EF86548FEF73EFD30B1022060490968FC
:1024D0000870002012F013F86048FEF733FD30B1A9
:1024E00003205B4909680870002012F008F8414891
:1024F000FEF728FD88B1002052490870584908703D
:10250000009003460122114601900620FDF7B8FF16
:102510000020544908703E4908703748FEF712FD04
:1025200090B10020474908704D490870009003465B
:102530001422012101900620FDF7A2FF0120494944
:1025400008700020324908702C48FEF7FBFC90B15F
:1025500000203C4908704249087000900346282238
:10256000012101900620FDF78BFF02203D490870F4
:102570000020274908702248FEF7E4FCA8B100209B
:10258000009003463C22012101900620FDF778FFD0
:1025900000202C4908703249087000E059E10320FE
:1025A0003049087000201A4908701148FEF7CAFC2B
:1025B00058B10120234908700020294908700420DF
:1025C000284908700120124908701048FEF7BAFC2B
:1025D00050B1254800680078C0094FD022480068F3
:1025E000007820F0800044E048E031E14100000044
:1025F0009CC0072074C007207EC0072088C0072029
:1026000092C00720506C617900000000A6C007202E
:102610002AC0072048500000B0C007204C500000DE
:10262000BAC00720554C5000C4C007204C6F6164ED
:1026300000000000CEC00720B0C20720F8C207206B
:10264000AEC207202DC00720FCC20720AFC2072062
:1026500000C3072042C007204CC0072060C00720ED
:102660002CC007202BC0072008C3072081E068E0AA
:102670004FE07C490968087001F0FAFB7A48FEF7E0
:1026800061FC70B1774800680078C00909D07548CE
:102690000068007820F0800072490968087001F035
:1026A0004FFB7248FEF74EFC98B10020704908704D
:1026B000704908700320704908700020009003469C
:1026C0003C22012101900620FDF7DAFE00206B4933
:1026D00008706B48FEF736FC58B101206449087059
:1026E0000420654908700120624908700020634990
:1026F00008706448FEF726FC50B102205C4908705F
:1027000004205D49087001205A4908705B4908702F
:10271000A0E0FFF79EFB5C48FEF714FC30B10220FE
:102720005A4909680870002011F0E9FE5848FEF780
:1027300009FC28B1002055490968087011F0DFFE36
:1027400088E0FEF77FFD5048FEF7FCFB28B1002033
:102750004E490968087011F0D2FE4D48FEF7F2FBB1
:1027600030B10120494909680870002011F0C7FE06
:1027700070E0FEF7BAFC4448FEF7E4FB28B1002005
:1027800042490968087011F0BAFE4148FEF7DAFBC9
:1027900028B100203D490968087011F0B0FE3D489D
:1027A000FEF7D0FB30B13C480078A0F101003B4976
:1027B00081F828003A48FEF7C5FB30B13948007867
:1027C000A0F10100354981F824003748FEF7BAFB33
:1027D00030B136480078A0F10100304981F820007E
:1027E0003348FEF7AFFB30B132480078A0F101006A
:1027F0002A4981F82C003048FEF7A4FB30B1264866
:10280000007800F10100254981F828002B48FEF7E7
:1028100099FB30B12348007800F101001F4981F88D
:1028200024002748FEF78EFB30B12048007800F1E5
:1028300001001A4981F820002248FEF783FB30B1DD
:102840001C48007800F10100144981F82C0001E0D7
:1028500000E000BF00BF1CBD10B500F035F802F06D
:1028600016FB10BD08C30720CEC00720B0C007204C
:102870002AC007202DC007202BC007202CC007200E
:10288000BAC00720C4C0072042C0072000C30720E9
:102890004CC007206EC10720284002400040024083
:1028A00078C107202440024082C107202040024016
:1028B0008CC107202C40024096C10720A0C10720F0
:1028C000AAC10720B4C1072000B589B002208DF845
:1028D0001E0000208DF820008DF81F008DF81C00D0
:1028E00007208DF81D0007A801F0CCFF08208DF807
:1028F0001D0007A801F0C6FF09208DF81D0007A8DC
:1029000001F0C0FF00208DF81E008DF81C0006208D
:102910008DF81D0007A801F0B5FF00208DF81E00FE
:1029200002208DF81C000D208DF81D0007A801F075
:10293000A9FF00224FF40051022002F005F84FF4E5
:102940000051022002F014F801224021002001F081
:10295000FBFF4021002002F00BF801A801F06CFC05
:10296000FE48069001A9FE4801F005FC0121FC4843
:1029700001F06DFC09B000BD70B50446FDF7B0FB79
:10298000002507E00C2000BF0100A0F10102D0B239
:10299000FAD16D1CA542F5D370BD10B5044600BF39
:1029A0001021EF4801F00CFE0128F9D02146EC4837
:1029B00001F0B5FC00BF0421E94801F001FE002848
:1029C000F9D0E74801F0BDFCC0B210BD70B50020E1
:1029D000FFF7E3FF05464FF6FF7000EA05240120EC
:1029E000FFF7CAFF0020FFF7D8FF05462C43E4108D
:1029F000C4F30B04204670BD10B54020D949C8610E
:102A00000120FFF7B9FF9020FFF7C7FF0120FFF774
:102A1000B3FFFFF7DBFF04464020D2498861204620
:102A200010BD10B54020CF49C8610120FFF7A4FFB9
:102A3000D020FFF7B2FF0120FFF79EFFFFF7C6FF90
:102A400004464020C7498861204610BD2DE9F04169
:102A500004460D46FFF7D0FF06460120FFF78CFF26
:102A6000FFF7DFFF074626602F60BDE8F08170B5F5
:102A700004460D464FF478422946204612F0FDFEEA
:102A8000611C88B24FF47842294612F0F6FE681CA9
:102A900081B24FF47842204612F0EFFE6A1C91B2E8
:102AA000621C90B24FF4784212F0E7FE70BDF8B5A8
:102AB00004460D464FF6FF70A11E8AB20D390090F4
:102AC00088B22B46294613F064F94FF6FF7004F1E3
:102AD0000F018AB2A11C009088B22B46294613F040
:102AE00058F94FF6FF700090A81E83B20D3881B2DE
:102AF0002246204613F04DF94FF6FF70009005F185
:102B00000F0083B2A81C81B22246204613F041F97F
:102B10004BF6F04005F10F06B3B2E61FB2B205F175
:102B20000F06B1B2A4F10F060090B0B213F031F964
:102B30004BF6F04005F10F06B3B2A4F10F06B2B2A6
:102B4000EE1DB1B2A4F10F060090B0B213F021F95E
:102B50004BF6F040A5F10F06B3B2E61FB2B2A5F1F5
:102B60000F06B1B2A4F10F060090B0B213F011F944
:102B70004BF6F040A5F10F06B3B2A4F10F06B2B2C6
:102B8000EE1FB1B2A4F10F060090B0B213F001F93C
:102B90004BF6F04005F10F06B3B204F10F06B2B2E6
:102BA00005F10F06B1B2E61D0090B0B213F0F1F8D6
:102BB0004BF6F04005F10F06B3B204F10F06B2B2C6
:102BC000EE1DB1B204F10F060090B0B213F0E1F8BF
:102BD0004BF6F040A5F10F06B3B204F10F06B2B206
:102BE000A5F10F06B1B2E61D0090B0B213F0D1F816
:102BF0004BF6F040EE1FB3B204F10F06B2B2A5F1EE
:102C00000F06B1B204F10F060090B0B213F0C1F894
:102C1000F8BDF0B597B000274821684614F000F8D9
:102C200000BF15A916A8FFF711FF16984DF8270049
:102C300009A8159940F82710781CC7B24948406D7B
:102C400010F4005F01D1092FEBDB092F7ED1DDE904
:102C50000001084402990844032190FBF1F012900E
:102C6000DDE90301084405990844032190FBF1F0D4
:102C70001390DDE90601084408990844032190FBFC
:102C8000F1F01490DDE91201441ADDE91301451A4F
:102C900012991498461A002C01DD204600E060428B
:102CA0000446002D01DD284600E068420546002E5E
:102CB00001DD304600E070420646502C06DD502D06
:102CC00004DD502E02DD002017B0F0BDAC4215DA55
:102CD000A64209DA149A1299881800EBD071C1F350
:102CE0004F01214A11801EE0DDE91212881800EB25
:102CF000D071C1F34F011C4A118014E0AE4209DAD1
:102D0000149A1299881800EBD071C1F34F01164A3A
:102D1000118008E0DDE91312881800EBD071C1F3CF
:102D20004F01114A1180DDE9091001440B98084454
:102D3000032190FBF1F01290DDE90C1001440E9894
:102D40000844032190FBF1F0139000E063E0DDE91B
:102D50000F10014411980844032107E020A1070047
:102D60000000034000C00920F4C2072090FBF1F0EE
:102D70001490DDE91201441ADDE91301451A129994
:102D80001498461A002C01DD204600E060420446FB
:102D9000002D01DD284600E068420546002E01DDD9
:102DA000304600E070420646502C05DD502D03DD14
:102DB000502E01DD002087E7AC4215DAA64209DA81
:102DC000149A1299881800EBD071C1F34F01C24ACE
:102DD00051801EE0DDE91212881800EBD071C1F3BA
:102DE0004F01BD4A518014E0AE4209DA149A12999B
:102DF000881800EBD071C1F34F01B74A518008E049
:102E0000DDE91312881800EBD071C1F34F01B24A0B
:102E10005180B14858E7002056E72DE9F0470546B4
:102E20000C4616464FF0000921882289891AE3884A
:102E300062899A1A5143A2882389D31A67886289C2
:102E4000BA1A03FB121014F00FFAC6E90C010022A3
:102E50001346D6E90C71384614F07EFA02D14FF0D1
:102E6000010989E029882A89891AE38862899A1ADE
:102E70005143AA882B89D31A67886289BA1A03FB3F
:102E8000121014F0F1F9C6E9000121882289891A8B
:102E9000AA882B89D21A51432A88D21AA388278953
:102EA000DB1B02FB131014F0DFF9C6E902012189D4
:102EB000AA885143A2882B8902FB131162885143CF
:102EC00022885A4323892F8803FB1723E28803FBB8
:102ED0000212A18879432388AF8803FB1713618905
:102EE00003FB012014F0C0F9C6E904016A8869896E
:102EF000511AE38862899A1A5143EB886A899B1AAE
:102F000067886289BA1A03FB121014F0ADF9C6E99A
:102F1000060121882289891AEB886A899A1A514305
:102F20006B886A899A1AA3882789DB1B02FB131016
:102F300014F09AF9C6E908012189EA885143A38867
:102F40006A8903FB12116288514322886B895A43B4
:102F500023896F8803FB1723E28803FB0213A188F0
:102F600079432788EA8807FB1212618902FB013046
:102F700014F07AF9C6E90A014846BDE8F0872DE960
:102F8000F04F8BB08246894614464FF0000B00226A
:102F90001346D4E90C51284614F0DEF960D0B9F894
:102FA000020014F072F90546D4E902733A4614F0AF
:102FB0006CF8CDE90201B9F8000014F066F9074693
:102FC000D4E900532A4614F060F8CDE90001DDE9A8
:102FD000022313F0B3FFCDE90401D4E904532A46D8
:102FE00013F0ACFFCDE90601D4E90C532A4614F0E6
:102FF000BEF8CDE9080114F082F9AAF80000B9F88A
:10300000020014F042F90746D4E908532A4614F0A6
:103010003CF8CDE90201B9F8000014F036F9074692
:10302000D4E906532A4614F030F8CDE90001DDE971
:10303000022313F083FFCDE90401D4E90A532A46A1
:1030400013F07CFFCDE90601D4E90C532A4614F0B5
:103050008EF8CDE9080114F052F9AAF8020001E057
:103060004FF0010B58460BB0BDE8F08F38B5002487
:1030700027E0002011F043FA00204FF6FF7317A25B
:103080000A210090084612F033FF1C48FFF774FC39
:103090001B4A02EB84025188194A32F82400FFF7D8
:1030A00006FD00BFFFF7B5FD0546002DFAD02888C4
:1030B000144921F82400688801EB84014880601CD1
:1030C000C4B2032CD5DB104A0E490D48FFF7A5FE0C
:1030D000002011F014FA38BDF4C20720546F756354
:1030E000682063726F73736861697220746F206304
:1030F000616C6962726174650000000020A10700C4
:10310000E8C20720AC210820B0C207202DE9F04713
:10311000B1480068C0F3016003287CD1AF48006863
:1031200010F0030006D0012833D002285FD0032816
:103130002ED100E000BFA8480068C0F3074000F1AE
:1031400001044FF00201A648D0F88800C0F30E0039
:1031500000F10100A1FB0001A24B4FF0000CA0FB0D
:10316000037901FB039100FB0C11224663463846AC
:1031700013F00CFD05469C480068C0B200F1010444
:1031800022464FF00003284613F000FD97490860DF
:103190005DE091480068C0F3074000F101044FF082
:1031A00002018F48D0F88800C0F30E0000F1010042
:1031B000A1FB00108E4A4FF0000CA1FB027900FB2E
:1031C000029001FB0C0122466346384613F0DEFCF8
:1031D000054685480068C0B200F1010422464FF060
:1031E0000003284613F0D2FC804908602FE07A489B
:1031F0000068C0F3074000F101044FF00201784875
:10320000D0F88800C0F30E0000F10100A1FB00120D
:103210004FF4004000E01BE04FF00003A1FB0079F9
:1032200002FB009001FB03012246384613F0AEFC7E
:1032300005466D480068C0B200F1010422464FF017
:103240000003284613F0A2FC6849086000BF2FE085
:103250006248006810F0030006D0012810D0022850
:1032600019D0032823D100E000BF5F480068C0B236
:1032700000F101005B49B1FBF0F05C49086016E029
:1032800059480068C0B200F101005949B1FBF0F0A3
:10329000564908600BE054480068C0B200F10100D4
:1032A0004FF40041B1FBF0F05049086000BF00BF8F
:1032B000BDE8F08720204F4908604948D0F8A001B8
:1032C00010F0200F05D000BF4A48006810F0400FF2
:1032D000FAD00320444908604FF000004049C1F88B
:1032E000A801454908604FF001003C490860434887
:1032F000434908604FF0AA00424908604FF055006A
:1033000008604FF00100404908604FF0AA003D49B5
:1033100008604FF055003249C1F88C0000BF2E48BC
:10332000006810F0806FFAD00320374908604FF032
:10333000AA002B49C1F88C004FF0550031490860B4
:1033400000BF2548006800F04070B0F1407FF8D120
:1033500023202E4908604FF0AA002149C1F8AC0093
:103360004FF055002A4908604FF0010029490860D4
:103370004FF0AA00264908604FF055001849C1F8DF
:10338000AC0000BF2448006810F4806FFAD003201E
:10339000204908604FF0AA001149C1F8AC004FF075
:1033A00055001B49086000BF1B48006800F44070CE
:1033B000B0F5407FF8D11948194908604FF0000076
:1033C0000749C1F8C8010846006820F4704040F47D
:1033D000804008607047000088C00F400CC10F405B
:1033E00000C00F4000093D0004C10F4010C307207A
:1033F000001BB700A0C10F40ACC10F406300050027
:1034000084C00F408CC00F4080C00F40A4C00F404C
:10341000ACC00F40A0C00F40A8C00F40DE872804FA
:10342000C4C00F40042034490968087000203349A3
:10343000096808603149096888603049096848604E
:103440002E490968C8612D490968C86000212B48C8
:103450000068816100202949096808610021274826
:103460000068416126482749086027484860274886
:1034700088602748C8600A204861002008747047A7
:103480001CB5FFF7CFFF00F059F800F07FF800F00F
:1034900047FBFCF71DFF00F037FCFFF7DDF9FDF7F8
:1034A0007FF84FF408511648FCF72AFF19481A49CB
:1034B0005A230022CDE9001011460220FCF7E0FF5C
:1034C0000020009003463222012101900620FCF7E3
:1034D000D7FF00F0CBFD00F09BFC00F0DEF9FCF71D
:1034E00013FE13F044F9002011F009F800200249FE
:1034F000096808701CBD000000C30720FCC207203B
:103500000000484294210820000020C100007A44B5
:103510000000A0416F12033B6F12833A10B50028E0
:1035200007DACA06140EBE4A00F00F031B1FD4545C
:1035300003E0CA06130EBB4A135410BD10B5BA48B7
:1035400000680A21B0FBF1F0401E4FF0E021486115
:1035500007200861B44800680A21B0FBF1F4B4F117
:10356000807F00D311E024F07F40401E4FF0E02127
:1035700048611F214FF0FF30FFF7D0FF00204FF0D0
:10358000E02188610720086100BF10BD10B5A74881
:10359000006840F44100A649C1F8C4000846D0F8CC
:1035A000C40040F00200A14908604FF003004FF052
:1035B000402148614FF00000C8600846406840F074
:1035C000010048609B4888614FF001010846FFF701
:1035D000A5FF01200121814042094FF0E02303EBC8
:1035E0008202C2F8001100BF10BD1CB519F080FBAB
:1035F0009148406900EB800040009049098888426A
:1036000005D98E480088401C8C4908800FE08C4802
:10361000007860B100208B490870894908700090DB
:1036200003460122114601900620FCF729FF1CBD2C
:103630002DE9F0414FF0402000684FF04021086034
:1036400081480078052190FBF1F201FB1207384612
:1036500013F0FCFD06464FF07E5113F0F9FB0546D2
:103660004FF07C5113F02AFC0446002113F0A4FE15
:1036700035D17648806A40F0050074498862084672
:10368000806A40F03000886200F0C7F913F000F95A
:103690006F4800680078C0F3400078B96D48007842
:1036A00060B100206C490968C86169480068007809
:1036B00020F00100401C66490968087064480068F1
:1036C000007820F0020062490968087060480068CC
:1036D000407820F00100401C5D4909684870BDE851
:1036E000F08170B5002013F0B1FD05464FF07C511C
:1036F00013F0E4FB0446002113F05EFE22D154488F
:1037000000680078C0F3C000E0B152480078C8B14A
:103710004648006840F480504549C1F8C4004C4810
:103720000068007820F008004949096808704B4893
:10373000006820F0C060494908600846006840F40D
:103740008030086070BD2DE9FC41FFF771FFFFF785
:10375000C8FF3D480078401C3B4908703648007C53
:1037600018BB354A5168106813F06CFB0746324AA3
:103770005168394A1268106813F064FB8046384972
:1037800013F066FB0646394613F098FB054613F026
:10379000A2FDC4B23348344923460022CDE90010CB
:1037A00011460220FCF76CFE22E0234AD1689068A3
:1037B00013F048FB0746204AD168274A1268506830
:1037C00013F040FB8046264913F042FB064639467B
:1037D00013F074FB054613F07EFDC4B22148224964
:1037E00023460022CDE9001011460220FCF748FED6
:1037F000BDE8FC8110B515480068C4B214F0100F84
:1038000001D0FCF7CBFC14F0020F01D000F044FB18
:103810000E4800680D49086010BD704770470000F1
:1038200018ED00E000E400E010C30720C4C00F4022
:1038300000C00F401FBCBE00942108202C000010C7
:103840002CC007202DC0072024000010008000405D
:1038500008C307201CC30720FCC207200040034008
:10386000000034436F12033B6F12833AA349886808
:103870000221A24A5160012151607047A0480068AE
:1038800040F400009F49C1F8C4004FF000009B497C
:1038900008674FF01800C860704700B5FFF7EEFFEB
:1038A000FFF7E4FF00BD30B500250023002448E009
:1038B000FFF7DCFF00BF9448406BC0F3C04018B96D
:1038C0008E4880686428F6D3FFF7D0FF03468F4800
:1038D00001680068401C8D4A10608D4840F8213016
:1038E000282B01D3432B01D9002030BD0023FFF743
:1038F000BDFF00BF8448406BC0F3C04018B17F4893
:1039000080686428F6D3FFF7B1FF03467F4801685B
:103910000068401C7D4A10607D4840F821303C2BF7
:1039200008D9502B06D2C4F1070101208840284352
:10393000C5B205E00A2B01D3642B01D90020D4E7DE
:10394000641C082CB4DB2846CFE700B50023FFF742
:103950008DFF00BF6C48406BC0F3C04018B1674892
:1039600080682D28F6D3FFF781FF0346674801687A
:103970000068401C654A1060654840F82130052BFE
:1039800001D32D2B01D9012000BDFFF76FFF00BF30
:103990005D48406BC0F3C04018B95848806864283F
:1039A000F6D3FFF763FF0346584801680068401CE0
:1039B000564A1060564840F82130462B01D35A2B06
:1039C00001D90120E0E7FFF751FF00BF4E48406BEF
:1039D000C0F3C04018B1494880686428F6D3FFF7A7
:1039E00045FF0346494801680068401C474A10608B
:1039F000474840F82130462B01D35A2B01D90120EA
:103A0000C2E70020C0E700B50346FFF72FFF00BF65
:103A10003A4880689842FBD300BD2DE9F84F002456
:103A2000A2460020394908603A4908703648006AC1
:103A300040F40020344908624FF40020C86344F287
:103A40005060FFF7E0FF3048006A20F400202E4964
:103A50000862FFF77AFF08B1BDE8F88F4FF0000960
:103A600008E0FFF720FFC9F10301C90088400443C3
:103A700009F10109B9F1040FF3DBFFF714FF8246E6
:103A8000200E8DF80000200C8DF80100200A8DF822
:103A90000200E0B28DF803009DF800009DF80110CF
:103AA00008449DF8021008449DF803100844194981
:103AB00008700846007850451ED14FF6FF7101EAA4
:103AC000144013F0E2FB07460022134B13F04FFBA8
:103AD000054613F055FC114909688860A0B213F03F
:103AE000D4FB074600220C4B13F041FB054613F0B4
:103AF00047FC0A490968086000BFADE7004009407B
:103B0000C4C00F4000C00F4000C0092014C30720EC
:103B1000E000001018C3072000002440FCC207206A
:103B20006748006840F480506649C1F8C4006648A0
:103B3000406840F48030644948600846406C20F496
:103B40004030486461480068614940EA01005F49CB
:103B500008600846C06840F00200C8605D48006820
:103B6000007820F0080000F108005A490968087040
:103B70005648C06820F480705449C8604FF0160061
:103B80004FF0010101FA00F14FEA50124FF0E0232B
:103B900003EB8202C2F8001100BF70472DE9FC5F01
:103BA0004D480078002865D0012862D14748006858
:103BB00020F48030454908604969C1F30B1013F0C7
:103BC0004EFB4649086046494448006813F076F9C0
:103BD000424908600846006813F0AAFB0646002226
:103BE000404B13F04FFA04460D463C48006813F072
:103BF0009FFB064600223C4B13F047FA80462246C4
:103C00002B4613F0B4FA824613F0BAFB334908602E
:103C100000200090034601903448026820320321BE
:103C20002E48006800F062F928498969C1F30B1039
:103C300013F015FB2E4908600846006813F078FB66
:103C4000804600222B4B13F020FA064600222A4B16
:103C500013F08DFA044613F093FB24490968C860F9
:103C60001C480068007820F00800083019490968ED
:103C7000087022E015480069C0F307201F49204A58
:103C8000126888541E4801680068401C1C4A106075
:103C900045F6BF5081420FD30020114608601949F4
:103CA00048610C480068007820F0800080300949A5
:103CB0000968087000F081F800BF00BFBDE8FC9FF4
:103CC000C4C00F4000C00F4000C00240004003408D
:103CD00002FF210008C307201CC30720300000108A
:103CE00000F07F450000F03F00805140FCC20720FB
:103CF000340000100080404000FEAF40000400107F
:103D000038000010008000403A48406840F480408D
:103D10003849486040F622003749886102204860EF
:103D200001204860002048610120012181404209B2
:103D30004FF0E02303EB8202C2F8001100BF70478E
:103D400000202E49087001202D4908702D48006878
:103D50002D4908602B48C0682C490860012029497A
:103D6000C8600846006820F0FF0008600846006848
:103D700040F0010008600846006820F47F400860B9
:103D80000846006840F4807008600846006820F427
:103D9000803008600846006820F0E060086008464F
:103DA000006840F0C0600860022013494861486024
:103DB000012048603120C86370471148007801280D
:103DC00016D1114800680F49086010480068C860A3
:103DD0000846006820F0E06008600846006840F48B
:103DE0007F400860012005490870002004490870E0
:103DF0007047000000C00240008000401CC3072044
:103E0000250000100040034020C3072024C30720E2
:103E10002F48406840F400102D49486040F62200C9
:103E20002C4908810E2048602B480068007820F05B
:103E30008000803028490968087070470A2905DD2C
:103E4000A1F10A0200FA02F290B200E00841214A10
:103E500012684FF6C0739A431E4B1A601A461268D6
:103E60004FF4803343EA80131A431A4B1A607047A9
:103E70001A48006840F001001949C1F810014FF0DC
:103E80001800184948611848C8614FF0020048609E
:103E90004FF00100486070471048006820F00100B2
:103EA0000F49C1F810010C480068007820F080002C
:103EB00000F180000849096808700A48406920F04C
:103EC0003800084948614FF0000002490860704717
:103ED00000C0024000C0084008C307201041005045
:103EE00000400050008000403FA5AE022DE9FC5F7D
:103EF00081468A4614469B46BAF1000F09D0BAF1B2
:103F0000010F24D0BAF1020F3DD0BAF1030F57D1FF
:103F10003CE04A49087813F0A2F94FF07E51019035
:103F2000484612F08FFF8046454912F0C7FF07460A
:103F3000019912F08DFF064613F0CDF9C0B2401C76
:103F40003E490D5C284613F08AF9206039E03D496E
:103F5000087813F084F907464FF07E51484612F076
:103F600071FF8046364912F0A9FF0646394612F025
:103F70006FFF054613F0AFF9C0B2401C3149085C31
:103F80008BF800001DE0C4F800901AE0484613F0DA
:103F9000CFF92D4A2D4BCDE9000113F076F80746F5
:103FA0002B4A2C4B12F0CAFF054613F0E9F92060AA
:103FB0000021206813F000FA01D20020206000BF29
:103FC00000BF00BFBDE8FC9F2DE9F04788B04FF06F
:103FD000000A2CE0504613F047F980461E4A1F4B5A
:103FE00013F053F800224FF08043CDE9000113F0A5
:103FF000BEF800221A4BCDE9020113F046F806463E
:1040000017F018FE0022174BCDE9040113F03DF81C
:1040100004460022134B12F091FFCDE9060113F084
:104020006EF91149096801F80A000AF1010A45F61A
:10403000C0508245CEDB08B0BDE8F0874A000010D2
:104040000000C6423C0000100BB5A679C729F0BF9E
:10405000A835CD3B4E8159407A008BFCFA2119409E
:104060000070C74000C05F4000040010174800689F
:1040700040F000501649C1F8C4004FF00100154946
:1040800008634FF04000486313480068134909680B
:1040900008601349086013481049096848600D49D1
:1040A000C1F804010D4800680C49096888600E4990
:1040B00008600E4801F10401086008490968C860F9
:1040C0004FF41C600A49086070470000C4C00F40EC
:1040D00000C00F40004000500004001060000010BD
:1040E0000041005020C0084008410050C05D00045D
:1040F000104100502DE9F04704468846FB488442B1
:1041000002D0FB48844200D103E04321F9A000F033
:1041100087FEF648844204D12A2000F01EFE07469E
:1041200009E0F348844204D1142000F016FE07464B
:1041300001E0BDE8F08700254FF0FF3902260AE0D4
:10414000681C7043B7FBF0F9C14504D96D1CFF2D05
:1041500001D90025B61CC145F2D82068C0B2206044
:1041600020684FF6FF7101EA052108432060F0B294
:10417000206100BFDDE770B504460D46DB48844290
:1041800002D0DB48844200D103E08121D9A000F0B5
:1041900047FED648844204D10121480500F0FAFDCB
:1041A00008E0D348844204D10121001500F0F2FD5B
:1041B00000E070BDA88829890843298A0843298816
:1041C000084386B22660287B00F00F066660204612
:1041D0006969FFF78FFF00BFEBE710B50446C348DE
:1041E000844202D0C248844200D103E0A821C1A089
:1041F00000F016FEBD48844205D100214FF40010A6
:1042000000F0C8FD06E0BA48844203D10021001541
:1042100000F0C0FD10BD10B50446B448844202D081
:10422000B348844200D103E0C021B2A000F0F8FD01
:10423000206800F00F0010BD002141608160B74987
:104240004161072101600021C1600161704770B5C3
:1042500004460D46A548844202D0A548844200D1B8
:1042600003E0E521A3A000F0DBFD0DB1012D00D19D
:1042700003E0E6219FA000F0D3FD012D04D160688A
:1042800040F00200606003E0606800F00D006060D4
:1042900070BD70B504460D469448844202D09448DF
:1042A000844200D103E0FE2192A000F0B9FD0DB1DF
:1042B000012D00D103E0FF218EA000F0B1FD012D02
:1042C00004D1606840F00100606003E0606800F0C5
:1042D0000E00606070BD70B504460D468348844290
:1042E00002D08348844200D104E04FF48D7181A054
:1042F00000F096FD0DB1012D00D104E040F21B113C
:104300007CA000F08DFD012D04D1606800F0070055
:10431000606003E0606840F00800606070BD70B5E8
:1043200004460D467148844202D07148844200D14F
:1043300004E04FF49A716FA000F072FDA8B2A06083
:1043400070BD10B504466948844202D06848844272
:1043500000D104E04FF4A27166A000F061FDA068F6
:1043600080B210BD2DE9F74F82B006460C46002002
:10437000E0606060606103E03046FFF7E2FF0746FF
:10438000F06810F0040FF7D1032030623046FFF7D9
:1043900042FF082801DD012500E0002504980028DF
:1043A0007AD125B9D4F80890D4F800A003E0D4F865
:1043B00008B02068019060E0F06810F0020F2ED085
:1043C0002169606888422AD0206888B93DB9FF21F8
:1043D0003046FFF7A4FF6068401C60601FE04FF6A6
:1043E000FF713046FFF79BFF6068801C606016E03D
:1043F00055B99AF800103046FFF791FF0AF1010A0B
:104400006068401C60600AE0019801883046FFF750
:1044100086FF0198801C01906068801C6060D6F85F
:10442000188018F0010F07D048F4007060614FF059
:10443000FF3005B0BDE8F08F17E03046FFF781FF91
:104440000746A06848B125B989F8007009F101094B
:1044500003E0ABF800700BF1020B1DB9E068401CE3
:10446000E06002E0E068801CE060F06810F0040F9B
:1044700003D0D4E903018842DFD121696068884212
:104480009AD1D4E90301884296D14FF480706061DB
:10449000206810B16068CCE705E0A06808B1E0686A
:1044A000C7E70020C5E7049801287DD16BE02068AC
:1044B00088B93DB9FF213046FFF731FF6068401CE5
:1044C000606036E04FF6FF713046FFF728FF606806
:1044D000801C60602DE01DBBD4E90002815C304689
:1044E000FFF71DFF6068401C606022E0008008400C
:1044F000000003402E2E5C4D656E755C4669726D42
:10450000776172655C736F757263655C6C70633143
:104510003778785F7373702E6300000040420F009D
:10452000D4E90002815A3046FFF7F9FE6068801C2A
:104530006060D6F8188018F0010F05D048F40070BC
:1045400060614FF0FF3074E715E03046FFF7F9FE89
:104550000746A06838B11DB9D4E902128F5402E0B1
:10456000D4E902128F521DB9E068401CE06002E0FD
:10457000E068801CE060F06810F0040F03D0D4E91C
:1045800003018842E1D1F06810F0020F03D02169E5
:10459000606888428BD1D4E90301884203D1216944
:1045A0006068884204D000E007E00F20706102E0FC
:1045B0004FF48070606100203BE74FF0FF3038E738
:1045C00070B505460C467748854202D0764885424C
:1045D00000D105E04FF40571AFF2E80000F020FCD7
:1045E000012C07D0022C05D0042C03D0082C01D0BC
:1045F000102C00D105E040F21521AFF2081000F0B8
:104600000FFCE868204201D0012070BD0020FCE7CB
:1046100070B504460D4616466248844202D0624890
:10462000844200D105E04FF40B71AFF2381000F076
:10463000F7FB012E03D160692843606104E06069E3
:104640000F21A9430840606170BD70B505460C4656
:104650005448854202D05448854200D105E040F2DA
:104660004921AFF2701000F0DBFB012C05D0022CC9
:1046700003D0042C01D0082C00D105E040F24A21DF
:10468000AFF2901000F0CCFBA869204201D00120CD
:1046900070BD0020FCE710B504464248844202D0B9
:1046A0004148844200D105E04FF41671AFF2BC10CE
:1046B00000F0B6FBA06910BD70B505460C46394840
:1046C000854202D03848854200D105E040F26D2194
:1046D000AFF2E01000F0A4FB012C05D0022C03D0B7
:1046E000042C01D0082C00D105E040F26E21AFF27D
:1046F000FC1000F095FBE869204201D0012070BD5C
:104700000020FCE770B504460D462648844202D0DE
:104710002548844200D105E040F28121AFF22C20EF
:1047200000F07EFB012D01D0022D00D105E040F20A
:104730008221AFF2402000F073FB256270BD70B59E
:1047400004460D4616461748844202D01648844255
:1047500000D105E040F29721AFF2682000F060FB45
:10476000022D01D0012D00D105E04FF42671AFF2EA
:104770007C2000F055FB0EB1012E00D105E040F287
:104780009921AFF2902000F04BFB012E03D1606A1B
:104790002843606204E0606A0321A9430840606224
:1047A00070BD00000080084000000340F0B50446E2
:1047B0000B461546194660003B4A102901D31039B3
:1047C000401C52F820604FEA410C032707FA0CF70F
:1047D000BE4342F8206052F820604F0005FA07F708
:1047E0003E4342F82060F0BDF0B504460B46154646
:1047F000194660002C4A4032102901D31039401C60
:1048000052F820604FEA410C032707FA0CF7BE4329
:1048100042F8206052F820604F0005FA07F73E4347
:1048200042F82060F0BD30B50B461F496831012ABF
:1048300007D151F8204001259D402C4341F82040EC
:1048400006E051F8204001259D40AC4341F820404E
:1048500030BD012806D11449896A41F00801124A85
:10486000916206E028B91049896A21F008010E4AD0
:1048700091627047012800D1052201B90A220A4B32
:10488000DA67704710B50446A27861782078FFF7A0
:104890008DFFE27861782078FFF7A6FF22796178B2
:1048A0002078FFF7C0FF10BD00C002400146002085
:1048B000052912D2DFE801F00305080B0E00F848C5
:1048C0000CE0F748203009E0F548403006E0F448B5
:1048D000603003E0F248803000E000BF00BF704766
:1048E00001460020052912D2DFE801F00305080B7C
:1048F0000E00EB480CE0EA48203009E0E848403080
:1049000006E0E748603003E0E548803000E000BFA3
:1049100000BF704701460020052912D2DFE801F0F0
:104920000305080B0E00DE480CE0DD48203009E0EE
:10493000DB48403006E0DA48603003E0D848803099
:1049400000E000BF00BF70472DE9F04107460D466B
:1049500016463846FFF7AAFF04463CB11EB1206850
:104960002843206002E02068A8432060BDE8F08171
:1049700070B506460C463046FFF798FF054605B170
:10498000AC6170BD70B506460C463046FFF78EFF31
:10499000054605B1EC6170BD70B505462846FFF7C8
:1049A00085FF04460CB1606970BD0020FCE718B9B2
:1049B00012B9BC4B196014E0022803D112B9BA4BEA
:1049C00019600EE020B9012A02D1B84B196008E045
:1049D000022804D1012A02D1B54B196001E000BFC1
:1049E000FEE7704703463BB932B9B248006820FA87
:1049F00001F000F001007047022B07D132B9AE4838
:104A0000006820FA01F000F00100F4E743B9012A40
:104A100006D1AA48006820FA01F000F00100EAE798
:104A2000022B08D1012A06D1A548006820FA01F01E
:104A300000F00100DFE700BFFEE710B9A14A1160F6
:104A400006E0022802D1A04A116001E000BFFEE7A3
:104A5000704770B504460D46164632462946204634
:104A6000FFF772FF70BD70B504460D46294620461B
:104A7000FFF77EFF70BD70B504460D4629462046FF
:104A8000FFF780FF70BD10B504462046FFF784FF96
:104A900010BD70B504460D461646324629462046DE
:104AA000FFF785FF70BD70B504460D4616463246C9
:104AB00029462046FFF796FF70BD10B503460C4609
:104AC00021461846FFF7B9FF10BD2DE9F041074612
:104AD0000D4616463846FFF7E9FE04463CB11EB1C6
:104AE00020692843206102E02069A8432061BDE8D5
:104AF000F0812DE9F04180460E4615461F4640469E
:104B0000FFF7EEFE04468CB147B11EB16088284322
:104B100060800BE020882843208007E01EB1608879
:104B2000A843608002E02088A8432080BDE8F0818F
:104B30002DE9F04180460E4615461F464046FFF7D8
:104B4000CFFE04468CB147B11EB1608A2843608213
:104B50000BE0208A2843208207E01EB1608AA84328
:104B6000608202E0208AA8432082BDE8F0812DE91E
:104B7000F04107460E4614463846FFF7B1FE05469B
:104B80001DB10EB16C8300E02C83BDE8F0812DE9EE
:104B9000F04107460E4614463846FFF7A1FE05468B
:104BA0001DB10EB1EC8300E0AC83BDE8F08170B5BF
:104BB00006460D463046FFF793FE044624B10DB17C
:104BC000E08A70BDA08AFCE70020FAE72DE9F041F9
:104BD00080460C4616461F464046FFF79BFE05469C
:104BE0005DB12FB1032C08DC285D3043285504E06B
:104BF000032C02DC285DB0432855BDE8F0812DE987
:104C0000F04180460C4616461F464046FFF782FE9E
:104C100005469DB14FB1032C10DC05F11000005D7D
:104C2000304305F11001085508E0032C06DC05F1BE
:104C30001000005DB04305F110010855BDE8F0819A
:104C40002DE9F04107460C4615463846FFF762FE4F
:104C5000064626B1032C02DC06F118000555BDE816
:104C6000F0812DE9F04107460C4615463846FFF71E
:104C700051FE064626B1032C02DC06F11C00055548
:104C8000BDE8F08170B506460C463046FFF742FE9F
:104C90000546DDB1032C19DC05F11400005D70BD83
:104CA00000C0092090800240B08002409480024001
:104CB000B480024084800240A48002408880024088
:104CC000A88002408C800240AC8002400020E6E7D1
:104CD00010B50A46202801D2034601E0A0F12003C6
:104CE0001946202814D2464B1B684FF0030404FADF
:104CF00001F423EA0403434CC4F8A831404B1B6879
:104D000002FA01F443EA04033E4CC4F8A83113E06C
:104D10003D4B1B684FF0030404FA01F423EA04033B
:104D2000384CC4F8AC31384B1B6802FA01F443EA42
:104D30000403344CC4F8AC3110BD0146202903D221
:104D40000A462F4B186803E0A1F120022E4B186889
:104D500020FA02F303F00300704770B506462B48B3
:104D600004683046FFF7E9FF054635B1012D06D04E
:104D7000022D06D0032D08D105E0042505E001250C
:104D800003E0022501E0082500BF00BFB4FBF5F4F5
:104D9000204670BD01290AD11D4A12681D4B00EA48
:104DA000030342EA0302174BC3F8C4200AE049B9DF
:104DB000174A1268174B23EA000302EA0302114B59
:104DC000C3F8C420704700201349086030BF704703
:104DD00004201249086008200F49086030BF70475E
:104DE00004200E49086009200B49086030BF704755
:104DF00004200A49086003200749086030BF704753
:104E0000A8C10F4000C00F40ACC10F4010C3072025
:104E1000C4C00F40DEF7EFEFC0C00F4010ED00E060
:104E200000BFFEE770B505460C46A4F12000044A19
:104E300002EB00111022284611F0D9FE70BD0000CF
:104E400048D60100FE48006C40F0FF00FC490864B1
:104E50000846006840F4FF0008600846006A40F019
:104E6000605008620846006C40F480700864704727
:104E7000002109E0002201E0531C9AB240F2754380
:104E80009A42F9DB4B1C99B28142F3DB704700B5C3
:104E900087B0FFF7D7FF6420FFF7EAFF00200590F7
:104EA000059803904FF48070E549C865C004C86355
:104EB0008000886303980290029801900198496DE0
:104EC00060F30701DE484165406920F4FF024FF4BA
:104ED000FF01019801EAC0100243D948426100BFB6
:104EE0004FF08050D649C86300BF4FF08050D4497E
:104EF00088630015886500BF00BFC865C00488636B
:104F0000400088634000C86300BF0846006C20F082
:104F1000FF0008640846006820F4FF0008600846A7
:104F2000406DC1B20291C648406900F4FF01019191
:104F3000DDE9010141EAD0110291C148006C40F065
:104F4000FF00BF4908640846006840F4FF01BC4800
:104F50000160029803904FF00050B94988634115F1
:104F6000B748816503980490049806900698A0F5C8
:104F70001341253905D00698A0F51341283942F090
:104F8000A7820120AF490870B1200490A5200590A8
:104F9000049803904FF48070A949C865C004C863A1
:104FA0008100A74881630398029002980190A44968
:104FB0000198496D60F30701A1484165406920F4FB
:104FC000FF014FF4FF02019802EAC01001439C4820
:104FD000416100BF4FF08051C16300BF4FF080516D
:104FE0009748816340159649886500BF05980390EE
:104FF0004815C865C0048863039802900298019020
:105000000198496D60F307018D484165406920F4BE
:10501000FF024FF4FF01019801EAC01002438848E3
:10502000426100BF4FF080508549C86300BF4FF018
:1050300080508349886301158148816500BF00BFA6
:10504000B12005900598039008467D49C865C004C5
:10505000C8638000886303980290029801900198C9
:10506000496D60F3070176484165406920F4FF020D
:105070004FF4FF01019801EAC010024370484261F9
:1050800000BF4FF080506E49C86300BF4FF08051A1
:105090006B4881634115816500BF00BF40156849B9
:1050A000C865C1046648816348006549886340005B
:1050B000C86300BF0846006C20F0FF000864084683
:1050C000006820F4FF0008600846406DC0B20290FE
:1050D0000846406900F4FF000190DDE9011040EA54
:1050E000D11002905648006C40F0FF00544908640B
:1050F0000846006840F4FF000860029803904FF0F3
:1051000000508863401588650398049004980690C1
:105110000698A5285ED103204A490870B120049062
:1051200000200590049803904FF480704449C865AE
:10513000C004C863800088630398029002980190BD
:105140000198496D60F307013D484165406920F4CD
:10515000FF024FF4FF01019801EAC01002433848F2
:10516000426100BF4FF080503549C86300BF4FF027
:1051700080513348816340153149886500BF0598E7
:1051800003904815C865C00488630398029002988C
:1051900001900198496D60F3070129484165406914
:1051A00020F4FF014FF4FF02019802EAC01001430E
:1051B0002348416100BF4FF080502149C86300BFC0
:1051C0004FF080501E49886301151D48816500BF5E
:1051D00000BF02E002201B490870E520049047F65A
:1051E000F0000590049803904FF480701449C8654E
:1051F000C1041348C1638800114988630398029071
:10520000029801900198496D60F307010C484165CF
:10521000406920F4FF024FF4FF01019801EAC01039
:1052200002430748426100BF4FF080500449C86301
:1052300000BF4FF08050024988630015886503E085
:1052400000C0092028C3072000BF05980390481517
:10525000C865C00488630398029002980190019881
:10526000496D60F30701FE484165406920F4FF0283
:105270004FF4FF01019801EAC0100243F84842616F
:1052800000BF4FF08050F649C86300BF4FF0805018
:10529000F34988630015886500BF00BF01200490B2
:1052A00000020590049803904815C865C004C863BF
:1052B0008000886303980290029801900198496DDC
:1052C00060F30701E6484165406920F4FF024FF4AE
:1052D000FF01019801EAC0100243E148426100BFAA
:1052E0004FF08050DE49C86300BF4FF08050DC496A
:1052F00088630015886500BF059803904815C86548
:10530000C004886303980290029801900198496D47
:1053100060F30701D2484165406920F4FF024FF471
:10532000FF01019801EAC0100243CD48426100BF6D
:105330004FF08050CA49C86300BF4FF08050C84941
:1053400088630015886500BF00BF022004904FF4F9
:10535000E0600590049803904815C865C004C863D0
:105360008000886303980290029801900198496D2B
:1053700060F30701BA484165406920F4FF014FF42A
:10538000FF02019802EAC0100143B548416100BF25
:105390004FF08050B249C86300BF4FF08050B04911
:1053A00088630115AE48816500BF059803900846E3
:1053B000AB49C865C00488630398029002980190C5
:1053C0000198496D60F30701A5484165406920F4E3
:1053D000FF024FF4FF01019801EAC0100243A04808
:1053E000426100BF4FF080509D49C86300BF4FF03D
:1053F00080519B48816340159949886500BF00BF73
:105400000320049041F23000059004980390481561
:10541000C865C004C863800088630398029002983E
:1054200001900198496D60F307018D48416540691D
:1054300020F4FF014FF4FF02019802EAC01001437B
:105440008748416100BF4FF080508549C86300BF65
:105450004FF080508249886301158148816500BF03
:105460000598039008467E49C865C0048863039880
:105470000290029801900198496D60F30701784805
:105480004165406920F4FF014FF4FF02019802EAF0
:10549000C01001437248416100BF4FF08050704915
:1054A000C86300BF4FF080506D4988630015886560
:1054B00000BF00BF042004900020059004980390D2
:1054C0004815C865C004C8638000886303980290CB
:1054D000029801900198496D60F3070160484165A9
:1054E000406920F4FF024FF4FF01019801EAC01067
:1054F00002435B48426100BF4FF080505849C86387
:1055000000BF4FF08050564988630015886500BF82
:10551000059803904815C865C004886303980290F5
:10552000029801900198496D60F307014C4841656C
:10553000406920F4FF024FF4FF01019801EAC01016
:1055400002434748426100BF4FF080504449C8635E
:1055500000BF4FF080514248816340154049886543
:1055600000BF00BF0820049040F207200590049877
:1055700003904815C865C004C86380008863039819
:105580000290029801900198496D60F30701344838
:105590004165406920F4FF024FF4FF01019801EAE0
:1055A000C01002432E48426100BF4FF080502C498A
:1055B000C86300BF4FF0805029498863011528480F
:1055C000816500BF0598039008462549C865C00459
:1055D000886303980290029801900198496D60F3E6
:1055E00007011F484165406920F4FF024FF4FF01A5
:1055F000019801EAC01002431948426100BF4FF010
:105600008051C16300BF4FF0805115488163401540
:105610001349886500BF00BF092004900020059051
:105620000498039049150E48C165C8040C49C86325
:105630008000886303980290029801900198496D58
:1056400060F3070106484165406920F4FF024FF40A
:10565000FF01019801EAC01002430148426101E0E4
:1056600000C0092000BF4FF08050FE49C86300BF52
:105670004FF08050FB4988630015886500BF05988E
:1056800003904815C865C004886303980290029887
:1056900001900198496D60F30701F2484165406946
:1056A00020F4FF024FF4FF01019801EAC010024309
:1056B000EC48426100BF4FF08050EA49C86300BF28
:1056C0004FF08050E74988630015886500BF00BF30
:1056D0000A20049000200590049803904815C8659E
:1056E000C004C86380008863039802900298019008
:1056F0000198496D60F30701DA484165406920F47B
:10570000FF024FF4FF01019801EAC0100243D5489F
:10571000426100BF4FF08051C16300BF4FF0805025
:10572000D04988630015886500BF05980390481527
:10573000C865C0048863039802900298019001989C
:10574000496D60F30701C7484165406920F4FF01D6
:105750004FF4FF02019802EAC0100143C1484161C1
:1057600000BF4FF08050BF49C86300BF4FF0805169
:10577000BC4881634015BB49886500BF00BF0C2051
:10578000049000200590049803904815C865C00453
:10579000C863800088630398029002980190019882
:1057A000496D60F30701AF484165406920F4FF028D
:1057B0004FF4FF01019801EAC0100243A948426179
:1057C00000BF4FF08051C16300BF4FF08050A5492A
:1057D00088630115A348816500BF059803900846BA
:1057E000A049C865C004886303980290029801909C
:1057F0000198496D60F307019A484165406920F4BA
:10580000FF024FF4FF01019801EAC01002439548DE
:10581000426100BF4FF080509249C86300BF4FF013
:1058200080519048816340158E49886500BF00BF54
:105830000D20049000200590049803904815C86539
:10584000C004C863800088630398029002980190A6
:105850000198496D60F3070182484165406920F471
:10586000FF024FF4FF01019801EAC01002437D4896
:10587000426100BF4FF080507A49C86300BF4FF0CB
:105880008050784988630015886500BF05980390AB
:105890004815C865C0048863039802900298019077
:1058A0000198496D60F307016E484165406920F435
:1058B000FF024FF4FF01019801EAC010024369485A
:1058C000426100BF4FF080506649C86300BF4FF08F
:1058D0008050644988630015886500BF00BF0F20B1
:1058E000049000200590049803904815C865C004F2
:1058F000C863800088630398029002980190019821
:10590000496D60F3070157484165406920F4FF0283
:105910004FF4FF01019801EAC0100243514842616F
:1059200000BF4FF080504F49C86300BF4FF0805018
:105930004C4988630015886500BF05980390481599
:10594000C865C0048863039802900298019001988A
:10595000496D60F3070143484165406920F4FF0247
:105960004FF4FF01019801EAC01002433D48426133
:1059700000BF4FF080503B49C86300BF4FF08050DC
:10598000384988630015886500BF00BF1020049067
:1059900000200590049803904815C865C004C863AA
:1059A00081003048816303980290029801902D494C
:1059B0000198496D60F307012A484165406920F468
:1059C000FF014FF4FF02019802EAC010014325488D
:1059D000416100BF4FF080502249C86300BF4FF0C3
:1059E0008050204988630015886500BF05980390A2
:1059F0004815C865C0048863039802900298019016
:105A00000198496D60F3070116484165406920F42B
:105A1000FF014FF4FF02019802EAC0100143114850
:105A2000416100BF4FF080500E49C86300BF4FF086
:105A300080500C4988630015886500BF00BF1120A5
:105A4000049007200590049803904815C865C00489
:105A5000C863810003488163039802900298019013
:105A6000004901E000C009200198496D60F3070179
:105A7000FE484165406920F4FF024FF4FF010198A0
:105A800001EAC0100243F948426100BF4FF0805064
:105A9000F649C86300BF4FF08050F4498863001591
:105AA000886500BF059803904815C865C0048863E1
:105AB00003980290029801900198496D60F30701E4
:105AC000EA484165406920F4FF024FF4FF01019864
:105AD00001EAC0100243E548426100BF4FF0805028
